{
	"contracts/ZecreyOwnable.sol": {
		"ZecreyOwnable": {
			"abi": [
				{
					"inputs": [
						{
							"internalType": "address",
							"name": "masterAddress",
							"type": "address"
						}
					],
					"stateMutability": "nonpayable",
					"type": "constructor"
				},
				{
					"inputs": [],
					"name": "getMaster",
					"outputs": [
						{
							"internalType": "address",
							"name": "master",
							"type": "address"
						}
					],
					"stateMutability": "view",
					"type": "function"
				},
				{
					"inputs": [
						{
							"internalType": "address",
							"name": "_newMaster",
							"type": "address"
						}
					],
					"name": "transferMastership",
					"outputs": [],
					"stateMutability": "nonpayable",
					"type": "function"
				}
			],
			"devdoc": {
				"author": "Zecrey Team",
				"kind": "dev",
				"methods": {
					"constructor": {
						"details": "Sets msg sender address as masters address",
						"params": {
							"masterAddress": "Master address"
						}
					},
					"getMaster()": {
						"returns": {
							"master": "Master's address"
						}
					},
					"transferMastership(address)": {
						"params": {
							"_newMaster": "New masters address"
						}
					}
				},
				"stateVariables": {
					"MASTER_POSITION": {
						"details": "Storage position of the masters address (keccak256('eip1967.proxy.admin') - 1)"
					}
				},
				"title": "Ownable Contract",
				"version": 1
			},
			"evm": {
				"assembly": "    /* \"contracts/ZecreyOwnable.sol\":124:1709  contract ZecreyOwnable {... */\n  mstore(0x40, 0x80)\n    /* \"contracts/ZecreyOwnable.sol\":498:574  constructor(address masterAddress) {... */\n  callvalue\n  dup1\n  iszero\n  tag_1\n  jumpi\n  0x00\n  dup1\n  revert\ntag_1:\n  pop\n  mload(0x40)\n  sub(codesize, bytecodeSize)\n  dup1\n  bytecodeSize\n  dup4\n  codecopy\n  dup2\n  dup2\n  add\n  0x40\n  mstore\n  0x20\n  dup2\n  lt\n  iszero\n  tag_2\n  jumpi\n  0x00\n  dup1\n  revert\ntag_2:\n  pop\n  mload\n    /* \"contracts/ZecreyOwnable.sol\":543:567  setMaster(masterAddress) */\n  tag_5\n    /* \"contracts/ZecreyOwnable.sol\":498:574  constructor(address masterAddress) {... */\n  dup2\n    /* \"contracts/ZecreyOwnable.sol\":543:552  setMaster */\n  tag_6\n    /* \"contracts/ZecreyOwnable.sol\":543:567  setMaster(masterAddress) */\n  jump\t// in\ntag_5:\n    /* \"contracts/ZecreyOwnable.sol\":498:574  constructor(address masterAddress) {... */\n  pop\n    /* \"contracts/ZecreyOwnable.sol\":124:1709  contract ZecreyOwnable {... */\n  jump(tag_7)\n    /* \"contracts/ZecreyOwnable.sol\":1180:1349  function setMaster(address _newMaster) internal {... */\ntag_6:\n    /* \"contracts/ZecreyOwnable.sol\":288:354  0xb53127684a568b3173ae13b9f8a6016e243e63b6e8ee1178d6a717850b5d6103 */\n  0xb53127684a568b3173ae13b9f8a6016e243e63b6e8ee1178d6a717850b5d6103\n    /* \"contracts/ZecreyOwnable.sol\":1305:1333  sstore(position, _newMaster) */\n  sstore\n    /* \"contracts/ZecreyOwnable.sol\":1291:1343  {... */\n  jump\t// out\n    /* \"contracts/ZecreyOwnable.sol\":124:1709  contract ZecreyOwnable {... */\ntag_7:\n  dataSize(sub_0)\n  dup1\n  dataOffset(sub_0)\n  0x00\n  codecopy\n  0x00\n  return\nstop\n\nsub_0: assembly {\n        /* \"contracts/ZecreyOwnable.sol\":124:1709  contract ZecreyOwnable {... */\n      mstore(0x40, 0x80)\n      callvalue\n      dup1\n      iszero\n      tag_1\n      jumpi\n      0x00\n      dup1\n      revert\n    tag_1:\n      pop\n      jumpi(tag_2, lt(calldatasize, 0x04))\n      shr(0xe0, calldataload(0x00))\n      dup1\n      0x5a99719e\n      eq\n      tag_3\n      jumpi\n      dup1\n      0xc3f59687\n      eq\n      tag_4\n      jumpi\n    tag_2:\n      0x00\n      dup1\n      revert\n        /* \"contracts/ZecreyOwnable.sol\":913:1089  function getMaster() public view returns (address master) {... */\n    tag_3:\n      tag_5\n      tag_6\n      jump\t// in\n    tag_5:\n      0x40\n      dup1\n      mload\n      sub(shl(0xa0, 0x01), 0x01)\n      swap1\n      swap3\n      and\n      dup3\n      mstore\n      mload\n      swap1\n      dup2\n      swap1\n      sub\n      0x20\n      add\n      swap1\n      return\n        /* \"contracts/ZecreyOwnable.sol\":1467:1707  function transferMastership(address _newMaster) external {... */\n    tag_4:\n      tag_7\n      0x04\n      dup1\n      calldatasize\n      sub\n      0x20\n      dup2\n      lt\n      iszero\n      tag_8\n      jumpi\n      0x00\n      dup1\n      revert\n    tag_8:\n      pop\n      calldataload\n      sub(shl(0xa0, 0x01), 0x01)\n      and\n      tag_9\n      jump\t// in\n    tag_7:\n      stop\n        /* \"contracts/ZecreyOwnable.sol\":913:1089  function getMaster() public view returns (address master) {... */\n    tag_6:\n        /* \"contracts/ZecreyOwnable.sol\":288:354  0xb53127684a568b3173ae13b9f8a6016e243e63b6e8ee1178d6a717850b5d6103 */\n      0xb53127684a568b3173ae13b9f8a6016e243e63b6e8ee1178d6a717850b5d6103\n        /* \"contracts/ZecreyOwnable.sol\":1058:1073  sload(position) */\n      sload\n      swap1\n        /* \"contracts/ZecreyOwnable.sol\":1034:1083  {... */\n      jump\t// out\n        /* \"contracts/ZecreyOwnable.sol\":1467:1707  function transferMastership(address _newMaster) external {... */\n    tag_9:\n        /* \"contracts/ZecreyOwnable.sol\":1534:1559  requireMaster(msg.sender) */\n      tag_12\n        /* \"contracts/ZecreyOwnable.sol\":1548:1558  msg.sender */\n      caller\n        /* \"contracts/ZecreyOwnable.sol\":1534:1547  requireMaster */\n      tag_13\n        /* \"contracts/ZecreyOwnable.sol\":1534:1559  requireMaster(msg.sender) */\n      jump\t// in\n    tag_12:\n      sub(shl(0xa0, 0x01), 0x01)\n        /* \"contracts/ZecreyOwnable.sol\":1577:1601  _newMaster != address(0) */\n      dup2\n      and\n        /* \"contracts/ZecreyOwnable.sol\":1569:1608  require(_newMaster != address(0), \"1d\") */\n      tag_14\n      jumpi\n      0x40\n      dup1\n      mload\n      shl(0xe5, 0x461bcd)\n      dup2\n      mstore\n      0x20\n      0x04\n      dup3\n      add\n      mstore\n      0x02\n      0x24\n      dup3\n      add\n      mstore\n      shl(0xf2, 0x0c59)\n      0x44\n      dup3\n      add\n      mstore\n      swap1\n      mload\n      swap1\n      dup2\n      swap1\n      sub\n      0x64\n      add\n      swap1\n      revert\n    tag_14:\n        /* \"contracts/ZecreyOwnable.sol\":1679:1700  setMaster(_newMaster) */\n      tag_15\n        /* \"contracts/ZecreyOwnable.sol\":1689:1699  _newMaster */\n      dup2\n        /* \"contracts/ZecreyOwnable.sol\":1679:1688  setMaster */\n      tag_16\n        /* \"contracts/ZecreyOwnable.sol\":1679:1700  setMaster(_newMaster) */\n      jump\t// in\n    tag_15:\n        /* \"contracts/ZecreyOwnable.sol\":1467:1707  function transferMastership(address _newMaster) external {... */\n      pop\n      jump\t// out\n        /* \"contracts/ZecreyOwnable.sol\":674:818  function requireMaster(address _address) internal view {... */\n    tag_13:\n        /* \"contracts/ZecreyOwnable.sol\":759:770  getMaster() */\n      tag_18\n        /* \"contracts/ZecreyOwnable.sol\":759:768  getMaster */\n      tag_6\n        /* \"contracts/ZecreyOwnable.sol\":759:770  getMaster() */\n      jump\t// in\n    tag_18:\n      sub(shl(0xa0, 0x01), 0x01)\n        /* \"contracts/ZecreyOwnable.sol\":747:770  _address == getMaster() */\n      and\n        /* \"contracts/ZecreyOwnable.sol\":747:755  _address */\n      dup2\n      sub(shl(0xa0, 0x01), 0x01)\n        /* \"contracts/ZecreyOwnable.sol\":747:770  _address == getMaster() */\n      and\n      eq\n        /* \"contracts/ZecreyOwnable.sol\":739:777  require(_address == getMaster(), \"1c\") */\n      tag_15\n      jumpi\n      0x40\n      dup1\n      mload\n      shl(0xe5, 0x461bcd)\n      dup2\n      mstore\n      0x20\n      0x04\n      dup3\n      add\n      mstore\n      0x02\n      0x24\n      dup3\n      add\n      mstore\n      shl(0xf0, 0x3163)\n      0x44\n      dup3\n      add\n      mstore\n      swap1\n      mload\n      swap1\n      dup2\n      swap1\n      sub\n      0x64\n      add\n      swap1\n      revert\n        /* \"contracts/ZecreyOwnable.sol\":1180:1349  function setMaster(address _newMaster) internal {... */\n    tag_16:\n        /* \"contracts/ZecreyOwnable.sol\":288:354  0xb53127684a568b3173ae13b9f8a6016e243e63b6e8ee1178d6a717850b5d6103 */\n      0xb53127684a568b3173ae13b9f8a6016e243e63b6e8ee1178d6a717850b5d6103\n        /* \"contracts/ZecreyOwnable.sol\":1305:1333  sstore(position, _newMaster) */\n      sstore\n        /* \"contracts/ZecreyOwnable.sol\":1291:1343  {... */\n      jump\t// out\n\n    auxdata: 0xa2646970667358221220f9bf6b4b8b77ee6afe207dabac02abbb338bc59ba73b7c5f0808fbdb5a15db0964736f6c63430007060033\n}\n",
				"bytecode": {
					"linkReferences": {},
					"object": "608060405234801561001057600080fd5b506040516102243803806102248339818101604052602081101561003357600080fd5b505161003e81610044565b50610068565b7fb53127684a568b3173ae13b9f8a6016e243e63b6e8ee1178d6a717850b5d610355565b6101ad806100776000396000f3fe608060405234801561001057600080fd5b50600436106100365760003560e01c80635a99719e1461003b578063c3f596871461005f575b600080fd5b610043610087565b604080516001600160a01b039092168252519081900360200190f35b6100856004803603602081101561007557600080fd5b50356001600160a01b03166100ac565b005b7fb53127684a568b3173ae13b9f8a6016e243e63b6e8ee1178d6a717850b5d61035490565b6100b533610101565b6001600160a01b0381166100f5576040805162461bcd60e51b81526020600482015260026024820152610c5960f21b604482015290519081900360640190fd5b6100fe81610153565b50565b610109610087565b6001600160a01b0316816001600160a01b0316146100fe576040805162461bcd60e51b8152602060048201526002602482015261316360f01b604482015290519081900360640190fd5b7fb53127684a568b3173ae13b9f8a6016e243e63b6e8ee1178d6a717850b5d61035556fea2646970667358221220f9bf6b4b8b77ee6afe207dabac02abbb338bc59ba73b7c5f0808fbdb5a15db0964736f6c63430007060033",
					"opcodes": "PUSH1 0x80 PUSH1 0x40 MSTORE CALLVALUE DUP1 ISZERO PUSH2 0x10 JUMPI PUSH1 0x0 DUP1 REVERT JUMPDEST POP PUSH1 0x40 MLOAD PUSH2 0x224 CODESIZE SUB DUP1 PUSH2 0x224 DUP4 CODECOPY DUP2 DUP2 ADD PUSH1 0x40 MSTORE PUSH1 0x20 DUP2 LT ISZERO PUSH2 0x33 JUMPI PUSH1 0x0 DUP1 REVERT JUMPDEST POP MLOAD PUSH2 0x3E DUP2 PUSH2 0x44 JUMP JUMPDEST POP PUSH2 0x68 JUMP JUMPDEST PUSH32 0xB53127684A568B3173AE13B9F8A6016E243E63B6E8EE1178D6A717850B5D6103 SSTORE JUMP JUMPDEST PUSH2 0x1AD DUP1 PUSH2 0x77 PUSH1 0x0 CODECOPY PUSH1 0x0 RETURN INVALID PUSH1 0x80 PUSH1 0x40 MSTORE CALLVALUE DUP1 ISZERO PUSH2 0x10 JUMPI PUSH1 0x0 DUP1 REVERT JUMPDEST POP PUSH1 0x4 CALLDATASIZE LT PUSH2 0x36 JUMPI PUSH1 0x0 CALLDATALOAD PUSH1 0xE0 SHR DUP1 PUSH4 0x5A99719E EQ PUSH2 0x3B JUMPI DUP1 PUSH4 0xC3F59687 EQ PUSH2 0x5F JUMPI JUMPDEST PUSH1 0x0 DUP1 REVERT JUMPDEST PUSH2 0x43 PUSH2 0x87 JUMP JUMPDEST PUSH1 0x40 DUP1 MLOAD PUSH1 0x1 PUSH1 0x1 PUSH1 0xA0 SHL SUB SWAP1 SWAP3 AND DUP3 MSTORE MLOAD SWAP1 DUP2 SWAP1 SUB PUSH1 0x20 ADD SWAP1 RETURN JUMPDEST PUSH2 0x85 PUSH1 0x4 DUP1 CALLDATASIZE SUB PUSH1 0x20 DUP2 LT ISZERO PUSH2 0x75 JUMPI PUSH1 0x0 DUP1 REVERT JUMPDEST POP CALLDATALOAD PUSH1 0x1 PUSH1 0x1 PUSH1 0xA0 SHL SUB AND PUSH2 0xAC JUMP JUMPDEST STOP JUMPDEST PUSH32 0xB53127684A568B3173AE13B9F8A6016E243E63B6E8EE1178D6A717850B5D6103 SLOAD SWAP1 JUMP JUMPDEST PUSH2 0xB5 CALLER PUSH2 0x101 JUMP JUMPDEST PUSH1 0x1 PUSH1 0x1 PUSH1 0xA0 SHL SUB DUP2 AND PUSH2 0xF5 JUMPI PUSH1 0x40 DUP1 MLOAD PUSH3 0x461BCD PUSH1 0xE5 SHL DUP2 MSTORE PUSH1 0x20 PUSH1 0x4 DUP3 ADD MSTORE PUSH1 0x2 PUSH1 0x24 DUP3 ADD MSTORE PUSH2 0xC59 PUSH1 0xF2 SHL PUSH1 0x44 DUP3 ADD MSTORE SWAP1 MLOAD SWAP1 DUP2 SWAP1 SUB PUSH1 0x64 ADD SWAP1 REVERT JUMPDEST PUSH2 0xFE DUP2 PUSH2 0x153 JUMP JUMPDEST POP JUMP JUMPDEST PUSH2 0x109 PUSH2 0x87 JUMP JUMPDEST PUSH1 0x1 PUSH1 0x1 PUSH1 0xA0 SHL SUB AND DUP2 PUSH1 0x1 PUSH1 0x1 PUSH1 0xA0 SHL SUB AND EQ PUSH2 0xFE JUMPI PUSH1 0x40 DUP1 MLOAD PUSH3 0x461BCD PUSH1 0xE5 SHL DUP2 MSTORE PUSH1 0x20 PUSH1 0x4 DUP3 ADD MSTORE PUSH1 0x2 PUSH1 0x24 DUP3 ADD MSTORE PUSH2 0x3163 PUSH1 0xF0 SHL PUSH1 0x44 DUP3 ADD MSTORE SWAP1 MLOAD SWAP1 DUP2 SWAP1 SUB PUSH1 0x64 ADD SWAP1 REVERT JUMPDEST PUSH32 0xB53127684A568B3173AE13B9F8A6016E243E63B6E8EE1178D6A717850B5D6103 SSTORE JUMP INVALID LOG2 PUSH5 0x6970667358 0x22 SLT KECCAK256 0xF9 0xBF PUSH12 0x4B8B77EE6AFE207DABAC02AB 0xBB CALLER DUP12 0xC5 SWAP12 0xA7 EXTCODESIZE PUSH29 0x5F0808FBDB5A15DB0964736F6C63430007060033000000000000000000 "
				},
				"gasEstimates": {
					"creation": {
						"codeDepositCost": "85800",
						"executionCost": "infinite",
						"totalCost": "infinite"
					},
					"external": {
						"getMaster()": "997",
						"transferMastership(address)": "infinite"
					},
					"internal": {
						"requireMaster(address)": "infinite",
						"setMaster(address)": "20012"
					}
				},
				"methodIdentifiers": {
					"getMaster()": "5a99719e",
					"transferMastership(address)": "c3f59687"
				}
			},
			"storageLayout": {
				"storage": [],
				"types": null
			},
			"userdoc": {
				"kind": "user",
				"methods": {
					"constructor": {
						"notice": "Contract constructor"
					},
					"getMaster()": {
						"notice": "Returns contract masters address"
					},
					"transferMastership(address)": {
						"notice": "Transfer mastership of the contract to new master"
					}
				},
				"version": 1
			}
		}
	}
}