{
	"contracts/ZecreyVerifier.sol": {
		"ZecreyVerifier": {
			"abi": [
				{
					"inputs": [],
					"name": "ScalarField",
					"outputs": [
						{
							"internalType": "uint256",
							"name": "",
							"type": "uint256"
						}
					],
					"stateMutability": "pure",
					"type": "function"
				},
				{
					"inputs": [
						{
							"internalType": "bytes",
							"name": "upgradeParameters",
							"type": "bytes"
						}
					],
					"name": "upgrade",
					"outputs": [],
					"stateMutability": "nonpayable",
					"type": "function"
				},
				{
					"inputs": [
						{
							"internalType": "uint256[]",
							"name": "in_proof",
							"type": "uint256[]"
						},
						{
							"internalType": "uint256[]",
							"name": "proof_inputs",
							"type": "uint256[]"
						},
						{
							"internalType": "uint256",
							"name": "num_proofs",
							"type": "uint256"
						}
					],
					"name": "verifyBatchProofs",
					"outputs": [
						{
							"internalType": "bool",
							"name": "success",
							"type": "bool"
						}
					],
					"stateMutability": "view",
					"type": "function"
				},
				{
					"inputs": [
						{
							"internalType": "uint256[]",
							"name": "in_proof",
							"type": "uint256[]"
						},
						{
							"internalType": "uint256[]",
							"name": "proof_inputs",
							"type": "uint256[]"
						}
					],
					"name": "verifyProof",
					"outputs": [
						{
							"internalType": "bool",
							"name": "",
							"type": "bool"
						}
					],
					"stateMutability": "view",
					"type": "function"
				}
			],
			"devdoc": {
				"kind": "dev",
				"methods": {
					"upgrade(bytes)": {
						"params": {
							"upgradeParameters": "Encoded representation of upgrade parameters"
						}
					}
				},
				"version": 1
			},
			"evm": {
				"assembly": "    /* \"contracts/ZecreyVerifier.sol\":89:16180  contract ZecreyVerifier {\r... */\n  mstore(0x40, 0x80)\n  callvalue\n  dup1\n  iszero\n  tag_1\n  jumpi\n  0x00\n  dup1\n  revert\ntag_1:\n  pop\n  dataSize(sub_0)\n  dup1\n  dataOffset(sub_0)\n  0x00\n  codecopy\n  0x00\n  return\nstop\n\nsub_0: assembly {\n        /* \"contracts/ZecreyVerifier.sol\":89:16180  contract ZecreyVerifier {\r... */\n      mstore(0x40, 0x80)\n      callvalue\n      dup1\n      iszero\n      tag_1\n      jumpi\n      0x00\n      dup1\n      revert\n    tag_1:\n      pop\n      jumpi(tag_2, lt(calldatasize, 0x04))\n      shr(0xe0, calldataload(0x00))\n      dup1\n      0x25394645\n      eq\n      tag_3\n      jumpi\n      dup1\n      0x721ea4ac\n      eq\n      tag_4\n      jumpi\n      dup1\n      0xc50e8263\n      eq\n      tag_5\n      jumpi\n      dup1\n      0xdaad1e63\n      eq\n      tag_6\n      jumpi\n    tag_2:\n      0x00\n      dup1\n      revert\n        /* \"contracts/ZecreyVerifier.sol\":10148:10210  function upgrade(bytes calldata upgradeParameters) external {} */\n    tag_3:\n      tag_7\n      0x04\n      dup1\n      calldatasize\n      sub\n      0x20\n      dup2\n      lt\n      iszero\n      tag_8\n      jumpi\n      0x00\n      dup1\n      revert\n    tag_8:\n      dup2\n      add\n      swap1\n      0x20\n      dup2\n      add\n      dup2\n      calldataload\n      shl(0x20, 0x01)\n      dup2\n      gt\n      iszero\n      tag_9\n      jumpi\n      0x00\n      dup1\n      revert\n    tag_9:\n      dup3\n      add\n      dup4\n      0x20\n      dup3\n      add\n      gt\n      iszero\n      tag_10\n      jumpi\n      0x00\n      dup1\n      revert\n    tag_10:\n      dup1\n      calldataload\n      swap1\n      0x20\n      add\n      swap2\n      dup5\n      0x01\n      dup4\n      mul\n      dup5\n      add\n      gt\n      shl(0x20, 0x01)\n      dup4\n      gt\n      or\n      iszero\n      tag_11\n      jumpi\n      0x00\n      dup1\n      revert\n    tag_11:\n      pop\n      swap1\n      swap3\n      pop\n      swap1\n      pop\n      tag_12\n      jump\t// in\n    tag_7:\n      stop\n        /* \"contracts/ZecreyVerifier.sol\":13888:16175  function verifyProof(\r... */\n    tag_4:\n      tag_13\n      0x04\n      dup1\n      calldatasize\n      sub\n      0x40\n      dup2\n      lt\n      iszero\n      tag_14\n      jumpi\n      0x00\n      dup1\n      revert\n    tag_14:\n      dup2\n      add\n      swap1\n      0x20\n      dup2\n      add\n      dup2\n      calldataload\n      shl(0x20, 0x01)\n      dup2\n      gt\n      iszero\n      tag_15\n      jumpi\n      0x00\n      dup1\n      revert\n    tag_15:\n      dup3\n      add\n      dup4\n      0x20\n      dup3\n      add\n      gt\n      iszero\n      tag_16\n      jumpi\n      0x00\n      dup1\n      revert\n    tag_16:\n      dup1\n      calldataload\n      swap1\n      0x20\n      add\n      swap2\n      dup5\n      0x20\n      dup4\n      mul\n      dup5\n      add\n      gt\n      shl(0x20, 0x01)\n      dup4\n      gt\n      or\n      iszero\n      tag_17\n      jumpi\n      0x00\n      dup1\n      revert\n    tag_17:\n      swap2\n      swap1\n      dup1\n      dup1\n      0x20\n      mul\n      0x20\n      add\n      mload(0x40)\n      swap1\n      dup2\n      add\n      0x40\n      mstore\n      dup1\n      swap4\n      swap3\n      swap2\n      swap1\n      dup2\n      dup2\n      mstore\n      0x20\n      add\n      dup4\n      dup4\n      0x20\n      mul\n      dup1\n      dup3\n      dup5\n      calldatacopy\n      0x00\n      swap3\n      add\n      swap2\n      swap1\n      swap2\n      mstore\n      pop\n      swap3\n      swap6\n      swap5\n      swap4\n      0x20\n      dup2\n      add\n      swap4\n      pop\n      calldataload\n      swap2\n      pop\n      pop\n      shl(0x20, 0x01)\n      dup2\n      gt\n      iszero\n      tag_18\n      jumpi\n      0x00\n      dup1\n      revert\n    tag_18:\n      dup3\n      add\n      dup4\n      0x20\n      dup3\n      add\n      gt\n      iszero\n      tag_19\n      jumpi\n      0x00\n      dup1\n      revert\n    tag_19:\n      dup1\n      calldataload\n      swap1\n      0x20\n      add\n      swap2\n      dup5\n      0x20\n      dup4\n      mul\n      dup5\n      add\n      gt\n      shl(0x20, 0x01)\n      dup4\n      gt\n      or\n      iszero\n      tag_20\n      jumpi\n      0x00\n      dup1\n      revert\n    tag_20:\n      swap2\n      swap1\n      dup1\n      dup1\n      0x20\n      mul\n      0x20\n      add\n      mload(0x40)\n      swap1\n      dup2\n      add\n      0x40\n      mstore\n      dup1\n      swap4\n      swap3\n      swap2\n      swap1\n      dup2\n      dup2\n      mstore\n      0x20\n      add\n      dup4\n      dup4\n      0x20\n      mul\n      dup1\n      dup3\n      dup5\n      calldatacopy\n      0x00\n      swap3\n      add\n      swap2\n      swap1\n      swap2\n      mstore\n      pop\n      swap3\n      swap6\n      pop\n      tag_21\n      swap5\n      pop\n      pop\n      pop\n      pop\n      pop\n      jump\t// in\n    tag_13:\n      0x40\n      dup1\n      mload\n      swap2\n      iszero\n      iszero\n      dup3\n      mstore\n      mload\n      swap1\n      dup2\n      swap1\n      sub\n      0x20\n      add\n      swap1\n      return\n        /* \"contracts/ZecreyVerifier.sol\":10218:13880  function verifyBatchProofs(\r... */\n    tag_5:\n      tag_13\n      0x04\n      dup1\n      calldatasize\n      sub\n      0x60\n      dup2\n      lt\n      iszero\n      tag_23\n      jumpi\n      0x00\n      dup1\n      revert\n    tag_23:\n      dup2\n      add\n      swap1\n      0x20\n      dup2\n      add\n      dup2\n      calldataload\n      shl(0x20, 0x01)\n      dup2\n      gt\n      iszero\n      tag_24\n      jumpi\n      0x00\n      dup1\n      revert\n    tag_24:\n      dup3\n      add\n      dup4\n      0x20\n      dup3\n      add\n      gt\n      iszero\n      tag_25\n      jumpi\n      0x00\n      dup1\n      revert\n    tag_25:\n      dup1\n      calldataload\n      swap1\n      0x20\n      add\n      swap2\n      dup5\n      0x20\n      dup4\n      mul\n      dup5\n      add\n      gt\n      shl(0x20, 0x01)\n      dup4\n      gt\n      or\n      iszero\n      tag_26\n      jumpi\n      0x00\n      dup1\n      revert\n    tag_26:\n      swap2\n      swap1\n      dup1\n      dup1\n      0x20\n      mul\n      0x20\n      add\n      mload(0x40)\n      swap1\n      dup2\n      add\n      0x40\n      mstore\n      dup1\n      swap4\n      swap3\n      swap2\n      swap1\n      dup2\n      dup2\n      mstore\n      0x20\n      add\n      dup4\n      dup4\n      0x20\n      mul\n      dup1\n      dup3\n      dup5\n      calldatacopy\n      0x00\n      swap3\n      add\n      swap2\n      swap1\n      swap2\n      mstore\n      pop\n      swap3\n      swap6\n      swap5\n      swap4\n      0x20\n      dup2\n      add\n      swap4\n      pop\n      calldataload\n      swap2\n      pop\n      pop\n      shl(0x20, 0x01)\n      dup2\n      gt\n      iszero\n      tag_27\n      jumpi\n      0x00\n      dup1\n      revert\n    tag_27:\n      dup3\n      add\n      dup4\n      0x20\n      dup3\n      add\n      gt\n      iszero\n      tag_28\n      jumpi\n      0x00\n      dup1\n      revert\n    tag_28:\n      dup1\n      calldataload\n      swap1\n      0x20\n      add\n      swap2\n      dup5\n      0x20\n      dup4\n      mul\n      dup5\n      add\n      gt\n      shl(0x20, 0x01)\n      dup4\n      gt\n      or\n      iszero\n      tag_29\n      jumpi\n      0x00\n      dup1\n      revert\n    tag_29:\n      swap2\n      swap1\n      dup1\n      dup1\n      0x20\n      mul\n      0x20\n      add\n      mload(0x40)\n      swap1\n      dup2\n      add\n      0x40\n      mstore\n      dup1\n      swap4\n      swap3\n      swap2\n      swap1\n      dup2\n      dup2\n      mstore\n      0x20\n      add\n      dup4\n      dup4\n      0x20\n      mul\n      dup1\n      dup3\n      dup5\n      calldatacopy\n      0x00\n      swap3\n      add\n      swap2\n      swap1\n      swap2\n      mstore\n      pop\n      swap3\n      swap6\n      pop\n      pop\n      swap2\n      calldataload\n      swap3\n      pop\n      tag_30\n      swap2\n      pop\n      pop\n      jump\t// in\n        /* \"contracts/ZecreyVerifier.sol\":204:370  function ScalarField()\r... */\n    tag_6:\n      tag_31\n      tag_32\n      jump\t// in\n    tag_31:\n      0x40\n      dup1\n      mload\n      swap2\n      dup3\n      mstore\n      mload\n      swap1\n      dup2\n      swap1\n      sub\n      0x20\n      add\n      swap1\n      return\n        /* \"contracts/ZecreyVerifier.sol\":10148:10210  function upgrade(bytes calldata upgradeParameters) external {} */\n    tag_12:\n      pop\n      pop\n      jump\t// out\n        /* \"contracts/ZecreyVerifier.sol\":13888:16175  function verifyProof(\r... */\n    tag_21:\n        /* \"contracts/ZecreyVerifier.sol\":14022:14026  bool */\n      0x00\n        /* \"contracts/ZecreyVerifier.sol\":14044:14068  uint256[14] memory in_vk */\n      dup1\n        /* \"contracts/ZecreyVerifier.sol\":14071:14085  verifyingKey() */\n      tag_35\n        /* \"contracts/ZecreyVerifier.sol\":14071:14083  verifyingKey */\n      tag_36\n        /* \"contracts/ZecreyVerifier.sol\":14071:14085  verifyingKey() */\n      jump\t// in\n    tag_35:\n        /* \"contracts/ZecreyVerifier.sol\":14044:14085  uint256[14] memory in_vk = verifyingKey() */\n      swap1\n      pop\n        /* \"contracts/ZecreyVerifier.sol\":14096:14124  uint256[] memory vk_gammaABC */\n      0x00\n        /* \"contracts/ZecreyVerifier.sol\":14127:14131  ic() */\n      tag_37\n        /* \"contracts/ZecreyVerifier.sol\":14127:14129  ic */\n      tag_38\n        /* \"contracts/ZecreyVerifier.sol\":14127:14131  ic() */\n      jump\t// in\n    tag_37:\n        /* \"contracts/ZecreyVerifier.sol\":14096:14131  uint256[] memory vk_gammaABC = ic() */\n      swap1\n      pop\n        /* \"contracts/ZecreyVerifier.sol\":14184:14196  proof_inputs */\n      dup4\n        /* \"contracts/ZecreyVerifier.sol\":14184:14203  proof_inputs.length */\n      mload\n        /* \"contracts/ZecreyVerifier.sol\":14178:14179  1 */\n      0x01\n        /* \"contracts/ZecreyVerifier.sol\":14173:14174  2 */\n      0x02\n        /* \"contracts/ZecreyVerifier.sol\":14152:14163  vk_gammaABC */\n      dup4\n        /* \"contracts/ZecreyVerifier.sol\":14152:14170  vk_gammaABC.length */\n      mload\n        /* \"contracts/ZecreyVerifier.sol\":14152:14174  vk_gammaABC.length / 2 */\n      dup2\n      tag_39\n      jumpi\n      invalid\n    tag_39:\n      div\n        /* \"contracts/ZecreyVerifier.sol\":14151:14179  (vk_gammaABC.length / 2) - 1 */\n      sub\n        /* \"contracts/ZecreyVerifier.sol\":14150:14203  ((vk_gammaABC.length / 2) - 1) == proof_inputs.length */\n      eq\n        /* \"contracts/ZecreyVerifier.sol\":14142:14204  require(((vk_gammaABC.length / 2) - 1) == proof_inputs.length) */\n      tag_40\n      jumpi\n      0x00\n      dup1\n      revert\n    tag_40:\n        /* \"contracts/ZecreyVerifier.sol\":14223:14231  in_proof */\n      dup5\n        /* \"contracts/ZecreyVerifier.sol\":14223:14238  in_proof.length */\n      mload\n        /* \"contracts/ZecreyVerifier.sol\":14242:14243  8 */\n      0x08\n        /* \"contracts/ZecreyVerifier.sol\":14223:14243  in_proof.length == 8 */\n      eq\n        /* \"contracts/ZecreyVerifier.sol\":14215:14244  require(in_proof.length == 8) */\n      tag_41\n      jumpi\n      0x00\n      dup1\n      revert\n    tag_41:\n        /* \"contracts/ZecreyVerifier.sol\":14303:14330  uint256[3] memory mul_input */\n      tag_42\n      tag_43\n      jump\t// in\n    tag_42:\n        /* \"contracts/ZecreyVerifier.sol\":14341:14368  uint256[4] memory add_input */\n      tag_44\n      tag_45\n      jump\t// in\n    tag_44:\n        /* \"contracts/ZecreyVerifier.sol\":14379:14391  bool success */\n      0x00\n        /* \"contracts/ZecreyVerifier.sol\":14402:14408  uint m */\n      dup1\n        /* \"contracts/ZecreyVerifier.sol\":14411:14412  2 */\n      0x02\n        /* \"contracts/ZecreyVerifier.sol\":14402:14412  uint m = 2 */\n      swap1\n      pop\n        /* \"contracts/ZecreyVerifier.sol\":14489:14500  vk_gammaABC */\n      dup5\n        /* \"contracts/ZecreyVerifier.sol\":14501:14502  0 */\n      0x00\n        /* \"contracts/ZecreyVerifier.sol\":14489:14503  vk_gammaABC[0] */\n      dup2\n      mload\n      dup2\n      lt\n      tag_46\n      jumpi\n      invalid\n    tag_46:\n      0x20\n      mul\n      0x20\n      add\n      add\n      mload\n        /* \"contracts/ZecreyVerifier.sol\":14474:14483  add_input */\n      dup4\n        /* \"contracts/ZecreyVerifier.sol\":14484:14485  0 */\n      0x00\n        /* \"contracts/ZecreyVerifier.sol\":14474:14486  add_input[0] */\n      0x04\n      dup2\n      lt\n      tag_47\n      jumpi\n      invalid\n    tag_47:\n      0x20\n      mul\n      add\n        /* \"contracts/ZecreyVerifier.sol\":14474:14503  add_input[0] = vk_gammaABC[0] */\n      mstore\n        /* \"contracts/ZecreyVerifier.sol\":14529:14543  vk_gammaABC[1] */\n      dup5\n      mload\n        /* \"contracts/ZecreyVerifier.sol\":14529:14540  vk_gammaABC */\n      dup6\n      swap1\n        /* \"contracts/ZecreyVerifier.sol\":14541:14542  1 */\n      0x01\n      swap1\n        /* \"contracts/ZecreyVerifier.sol\":14529:14543  vk_gammaABC[1] */\n      dup2\n      lt\n      tag_48\n      jumpi\n      invalid\n    tag_48:\n      0x20\n      mul\n      0x20\n      add\n      add\n      mload\n        /* \"contracts/ZecreyVerifier.sol\":14514:14523  add_input */\n      dup4\n        /* \"contracts/ZecreyVerifier.sol\":14524:14525  1 */\n      0x01\n        /* \"contracts/ZecreyVerifier.sol\":14514:14526  add_input[1] */\n      0x04\n      dup2\n      lt\n      tag_49\n      jumpi\n      invalid\n    tag_49:\n      0x20\n      mul\n      add\n        /* \"contracts/ZecreyVerifier.sol\":14514:14543  add_input[1] = vk_gammaABC[1] */\n      mstore\n        /* \"contracts/ZecreyVerifier.sol\":14642:14648  uint i */\n      0x00\n        /* \"contracts/ZecreyVerifier.sol\":14637:15262  for (uint i = 0; i < proof_inputs.length; i++) {\r... */\n    tag_50:\n        /* \"contracts/ZecreyVerifier.sol\":14658:14670  proof_inputs */\n      dup9\n        /* \"contracts/ZecreyVerifier.sol\":14658:14677  proof_inputs.length */\n      mload\n        /* \"contracts/ZecreyVerifier.sol\":14654:14655  i */\n      dup2\n        /* \"contracts/ZecreyVerifier.sol\":14654:14677  i < proof_inputs.length */\n      lt\n        /* \"contracts/ZecreyVerifier.sol\":14637:15262  for (uint i = 0; i < proof_inputs.length; i++) {\r... */\n      iszero\n      tag_51\n      jumpi\n        /* \"contracts/ZecreyVerifier.sol\":14714:14730  vk_gammaABC[m++] */\n      dup6\n      mload\n        /* \"contracts/ZecreyVerifier.sol\":14726:14729  m++ */\n      0x01\n      dup4\n      add\n      swap3\n        /* \"contracts/ZecreyVerifier.sol\":14714:14725  vk_gammaABC */\n      dup8\n      swap2\n        /* \"contracts/ZecreyVerifier.sol\":14714:14730  vk_gammaABC[m++] */\n      dup2\n      lt\n      tag_53\n      jumpi\n      invalid\n    tag_53:\n      0x20\n      mul\n      0x20\n      add\n      add\n      mload\n        /* \"contracts/ZecreyVerifier.sol\":14699:14708  mul_input */\n      dup6\n        /* \"contracts/ZecreyVerifier.sol\":14709:14710  0 */\n      0x00\n        /* \"contracts/ZecreyVerifier.sol\":14699:14711  mul_input[0] */\n      0x03\n      dup2\n      lt\n      tag_54\n      jumpi\n      invalid\n    tag_54:\n      0x20\n      mul\n      add\n        /* \"contracts/ZecreyVerifier.sol\":14699:14730  mul_input[0] = vk_gammaABC[m++] */\n      mstore\n        /* \"contracts/ZecreyVerifier.sol\":14760:14776  vk_gammaABC[m++] */\n      dup6\n      mload\n        /* \"contracts/ZecreyVerifier.sol\":14772:14775  m++ */\n      0x01\n      dup4\n      add\n      swap3\n        /* \"contracts/ZecreyVerifier.sol\":14760:14771  vk_gammaABC */\n      dup8\n      swap2\n        /* \"contracts/ZecreyVerifier.sol\":14760:14776  vk_gammaABC[m++] */\n      dup2\n      lt\n      tag_55\n      jumpi\n      invalid\n    tag_55:\n      0x20\n      mul\n      0x20\n      add\n      add\n      mload\n        /* \"contracts/ZecreyVerifier.sol\":14745:14754  mul_input */\n      dup6\n        /* \"contracts/ZecreyVerifier.sol\":14755:14756  1 */\n      0x01\n        /* \"contracts/ZecreyVerifier.sol\":14745:14757  mul_input[1] */\n      0x03\n      dup2\n      lt\n      tag_56\n      jumpi\n      invalid\n    tag_56:\n      0x20\n      mul\n      add\n        /* \"contracts/ZecreyVerifier.sol\":14745:14776  mul_input[1] = vk_gammaABC[m++] */\n      mstore\n        /* \"contracts/ZecreyVerifier.sol\":14806:14821  proof_inputs[i] */\n      dup9\n      mload\n        /* \"contracts/ZecreyVerifier.sol\":14806:14818  proof_inputs */\n      dup10\n      swap1\n        /* \"contracts/ZecreyVerifier.sol\":14819:14820  i */\n      dup3\n      swap1\n        /* \"contracts/ZecreyVerifier.sol\":14806:14821  proof_inputs[i] */\n      dup2\n      lt\n      tag_57\n      jumpi\n      invalid\n    tag_57:\n      0x20\n      mul\n      0x20\n      add\n      add\n      mload\n        /* \"contracts/ZecreyVerifier.sol\":14791:14800  mul_input */\n      dup6\n        /* \"contracts/ZecreyVerifier.sol\":14801:14802  2 */\n      0x02\n        /* \"contracts/ZecreyVerifier.sol\":14791:14803  mul_input[2] */\n      0x03\n      dup2\n      lt\n      tag_58\n      jumpi\n      invalid\n    tag_58:\n      0x20\n      mul\n      add\n        /* \"contracts/ZecreyVerifier.sol\":14791:14821  mul_input[2] = proof_inputs[i] */\n      mstore\n        /* \"contracts/ZecreyVerifier.sol\":15012:15016  0x60 */\n      0x60\n        /* \"contracts/ZecreyVerifier.sol\":15005:15009  0x40 */\n      0x40\n        /* \"contracts/ZecreyVerifier.sol\":14990:15010  add(add_input, 0x40) */\n      dup6\n      add\n        /* \"contracts/ZecreyVerifier.sol\":14984:14988  0x80 */\n      0x80\n        /* \"contracts/ZecreyVerifier.sol\":14973:14982  mul_input */\n      dup8\n        /* \"contracts/ZecreyVerifier.sol\":14970:14971  7 */\n      0x07\n        /* \"contracts/ZecreyVerifier.sol\":14963:14967  2000 */\n      0x07d0\n        /* \"contracts/ZecreyVerifier.sol\":14956:14961  gas() */\n      gas\n        /* \"contracts/ZecreyVerifier.sol\":14952:14968  sub(gas(), 2000) */\n      sub\n        /* \"contracts/ZecreyVerifier.sol\":14941:15017  staticcall(sub(gas(), 2000), 7, mul_input, 0x80, add(add_input, 0x40), 0x60) */\n      staticcall\n        /* \"contracts/ZecreyVerifier.sol\":14930:15017  success := staticcall(sub(gas(), 2000), 7, mul_input, 0x80, add(add_input, 0x40), 0x60) */\n      swap3\n      pop\n        /* \"contracts/ZecreyVerifier.sol\":15054:15061  success */\n      dup3\n        /* \"contracts/ZecreyVerifier.sol\":15046:15062  require(success) */\n      tag_59\n      jumpi\n      0x00\n      dup1\n      revert\n    tag_59:\n        /* \"contracts/ZecreyVerifier.sol\":15200:15204  0x60 */\n      0x60\n        /* \"contracts/ZecreyVerifier.sol\":15189:15198  add_input */\n      dup5\n        /* \"contracts/ZecreyVerifier.sol\":15183:15187  0xc0 */\n      0xc0\n        /* \"contracts/ZecreyVerifier.sol\":15172:15181  add_input */\n      dup7\n        /* \"contracts/ZecreyVerifier.sol\":15169:15170  6 */\n      0x06\n        /* \"contracts/ZecreyVerifier.sol\":15162:15166  2000 */\n      0x07d0\n        /* \"contracts/ZecreyVerifier.sol\":15155:15160  gas() */\n      gas\n        /* \"contracts/ZecreyVerifier.sol\":15151:15167  sub(gas(), 2000) */\n      sub\n        /* \"contracts/ZecreyVerifier.sol\":15140:15205  staticcall(sub(gas(), 2000), 6, add_input, 0xc0, add_input, 0x60) */\n      staticcall\n        /* \"contracts/ZecreyVerifier.sol\":15129:15205  success := staticcall(sub(gas(), 2000), 6, add_input, 0xc0, add_input, 0x60) */\n      swap3\n      pop\n        /* \"contracts/ZecreyVerifier.sol\":15242:15249  success */\n      dup3\n        /* \"contracts/ZecreyVerifier.sol\":15234:15250  require(success) */\n      tag_60\n      jumpi\n      0x00\n      dup1\n      revert\n    tag_60:\n        /* \"contracts/ZecreyVerifier.sol\":14679:14682  i++ */\n      0x01\n      add\n        /* \"contracts/ZecreyVerifier.sol\":14637:15262  for (uint i = 0; i < proof_inputs.length; i++) {\r... */\n      jump(tag_50)\n    tag_51:\n      pop\n        /* \"contracts/ZecreyVerifier.sol\":15274:15295  uint[24] memory input */\n      0x00\n        /* \"contracts/ZecreyVerifier.sol\":15274:15970  uint[24] memory input = [\r... */\n      mload(0x40)\n      dup1\n      0x0300\n      add\n      0x40\n      mstore\n      dup1\n        /* \"contracts/ZecreyVerifier.sol\":15340:15348  in_proof */\n      dup12\n        /* \"contracts/ZecreyVerifier.sol\":15349:15350  0 */\n      0x00\n        /* \"contracts/ZecreyVerifier.sol\":15340:15351  in_proof[0] */\n      dup2\n      mload\n      dup2\n      lt\n      tag_61\n      jumpi\n      invalid\n    tag_61:\n      0x20\n      mul\n      0x20\n      add\n      add\n      mload\n        /* \"contracts/ZecreyVerifier.sol\":15274:15970  uint[24] memory input = [\r... */\n      dup2\n      mstore\n      0x20\n      add\n        /* \"contracts/ZecreyVerifier.sol\":15353:15361  in_proof */\n      dup12\n        /* \"contracts/ZecreyVerifier.sol\":15362:15363  1 */\n      0x01\n        /* \"contracts/ZecreyVerifier.sol\":15353:15364  in_proof[1] */\n      dup2\n      mload\n      dup2\n      lt\n      tag_62\n      jumpi\n      invalid\n    tag_62:\n      0x20\n      mul\n      0x20\n      add\n      add\n      mload\n        /* \"contracts/ZecreyVerifier.sol\":15274:15970  uint[24] memory input = [\r... */\n      dup2\n      mstore\n      0x20\n      add\n        /* \"contracts/ZecreyVerifier.sol\":15393:15401  in_proof */\n      dup12\n        /* \"contracts/ZecreyVerifier.sol\":15402:15403  2 */\n      0x02\n        /* \"contracts/ZecreyVerifier.sol\":15393:15404  in_proof[2] */\n      dup2\n      mload\n      dup2\n      lt\n      tag_63\n      jumpi\n      invalid\n    tag_63:\n      0x20\n      mul\n      0x20\n      add\n      add\n      mload\n        /* \"contracts/ZecreyVerifier.sol\":15274:15970  uint[24] memory input = [\r... */\n      dup2\n      mstore\n      0x20\n      add\n        /* \"contracts/ZecreyVerifier.sol\":15406:15414  in_proof */\n      dup12\n        /* \"contracts/ZecreyVerifier.sol\":15415:15416  3 */\n      0x03\n        /* \"contracts/ZecreyVerifier.sol\":15406:15417  in_proof[3] */\n      dup2\n      mload\n      dup2\n      lt\n      tag_64\n      jumpi\n      invalid\n    tag_64:\n      0x20\n      mul\n      0x20\n      add\n      add\n      mload\n        /* \"contracts/ZecreyVerifier.sol\":15274:15970  uint[24] memory input = [\r... */\n      dup2\n      mstore\n      0x20\n      add\n        /* \"contracts/ZecreyVerifier.sol\":15419:15427  in_proof */\n      dup12\n        /* \"contracts/ZecreyVerifier.sol\":15428:15429  4 */\n      0x04\n        /* \"contracts/ZecreyVerifier.sol\":15419:15430  in_proof[4] */\n      dup2\n      mload\n      dup2\n      lt\n      tag_65\n      jumpi\n      invalid\n    tag_65:\n      0x20\n      mul\n      0x20\n      add\n      add\n      mload\n        /* \"contracts/ZecreyVerifier.sol\":15274:15970  uint[24] memory input = [\r... */\n      dup2\n      mstore\n      0x20\n      add\n        /* \"contracts/ZecreyVerifier.sol\":15432:15440  in_proof */\n      dup12\n        /* \"contracts/ZecreyVerifier.sol\":15441:15442  5 */\n      0x05\n        /* \"contracts/ZecreyVerifier.sol\":15432:15443  in_proof[5] */\n      dup2\n      mload\n      dup2\n      lt\n      tag_66\n      jumpi\n      invalid\n    tag_66:\n      0x20\n      mul\n      0x20\n      add\n      add\n      mload\n        /* \"contracts/ZecreyVerifier.sol\":15274:15970  uint[24] memory input = [\r... */\n      dup2\n      mstore\n      0x20\n      add\n        /* \"contracts/ZecreyVerifier.sol\":15507:15512  in_vk */\n      dup9\n        /* \"contracts/ZecreyVerifier.sol\":15513:15514  0 */\n      0x00\n        /* \"contracts/ZecreyVerifier.sol\":15507:15515  in_vk[0] */\n      0x0e\n      dup2\n      lt\n      tag_67\n      jumpi\n      invalid\n    tag_67:\n      0x20\n      mul\n      add\n      mload\n        /* \"contracts/ZecreyVerifier.sol\":15274:15970  uint[24] memory input = [\r... */\n      dup2\n      mstore\n      0x20\n      add\n        /* \"contracts/ZecreyVerifier.sol\":15517:15534  NegateY(in_vk[1]) */\n      tag_68\n        /* \"contracts/ZecreyVerifier.sol\":15525:15530  in_vk */\n      dup10\n        /* \"contracts/ZecreyVerifier.sol\":15531:15532  1 */\n      0x01\n        /* \"contracts/ZecreyVerifier.sol\":15525:15533  in_vk[1] */\n      0x0e\n      dup2\n      lt\n      tag_69\n      jumpi\n      invalid\n    tag_69:\n      0x20\n      mul\n      add\n      mload\n        /* \"contracts/ZecreyVerifier.sol\":15517:15524  NegateY */\n      tag_70\n        /* \"contracts/ZecreyVerifier.sol\":15517:15534  NegateY(in_vk[1]) */\n      jump\t// in\n    tag_68:\n        /* \"contracts/ZecreyVerifier.sol\":15274:15970  uint[24] memory input = [\r... */\n      dup2\n      mstore\n        /* \"contracts/ZecreyVerifier.sol\":15563:15571  in_vk[2] */\n      0x40\n      dup10\n      dup2\n      add\n      mload\n        /* \"contracts/ZecreyVerifier.sol\":15274:15970  uint[24] memory input = [\r... */\n      0x20\n      dup4\n      add\n      mstore\n        /* \"contracts/ZecreyVerifier.sol\":15573:15581  in_vk[3] */\n      0x60\n      dup1\n      dup12\n      add\n      mload\n        /* \"contracts/ZecreyVerifier.sol\":15274:15970  uint[24] memory input = [\r... */\n      swap2\n      dup4\n      add\n      swap2\n      swap1\n      swap2\n      mstore\n        /* \"contracts/ZecreyVerifier.sol\":15583:15591  in_vk[4] */\n      0x80\n      dup1\n      dup12\n      add\n      mload\n        /* \"contracts/ZecreyVerifier.sol\":15274:15970  uint[24] memory input = [\r... */\n      swap2\n      dup4\n      add\n      swap2\n      swap1\n      swap2\n      mstore\n        /* \"contracts/ZecreyVerifier.sol\":15593:15601  in_vk[5] */\n      0xa0\n      dup1\n      dup12\n      add\n      mload\n        /* \"contracts/ZecreyVerifier.sol\":15274:15970  uint[24] memory input = [\r... */\n      swap2\n      dup4\n      add\n      swap2\n      swap1\n      swap2\n      mstore\n        /* \"contracts/ZecreyVerifier.sol\":15662:15674  add_input[0] */\n      dup7\n      mload\n        /* \"contracts/ZecreyVerifier.sol\":15274:15970  uint[24] memory input = [\r... */\n      swap1\n      dup3\n      add\n      mstore\n      0xc0\n      add\n        /* \"contracts/ZecreyVerifier.sol\":15676:15697  NegateY(add_input[1]) */\n      tag_76\n        /* \"contracts/ZecreyVerifier.sol\":15662:15671  add_input */\n      dup7\n        /* \"contracts/ZecreyVerifier.sol\":15694:15695  1 */\n      0x01\n        /* \"contracts/ZecreyVerifier.sol\":15684:15696  add_input[1] */\n      jump(tag_69)\n        /* \"contracts/ZecreyVerifier.sol\":15676:15697  NegateY(add_input[1]) */\n    tag_76:\n        /* \"contracts/ZecreyVerifier.sol\":15274:15970  uint[24] memory input = [\r... */\n      dup2\n      mstore\n        /* \"contracts/ZecreyVerifier.sol\":15726:15734  in_vk[6] */\n      0xc0\n      dup10\n      add\n      mload\n        /* \"contracts/ZecreyVerifier.sol\":15274:15970  uint[24] memory input = [\r... */\n      0x20\n      dup3\n      add\n      mstore\n        /* \"contracts/ZecreyVerifier.sol\":15736:15744  in_vk[7] */\n      0xe0\n      dup10\n      add\n      mload\n        /* \"contracts/ZecreyVerifier.sol\":15274:15970  uint[24] memory input = [\r... */\n      0x40\n      dup3\n      add\n      mstore\n        /* \"contracts/ZecreyVerifier.sol\":15746:15754  in_vk[8] */\n      0x0100\n      dup10\n      add\n      mload\n        /* \"contracts/ZecreyVerifier.sol\":15274:15970  uint[24] memory input = [\r... */\n      0x60\n      dup3\n      add\n      mstore\n      0x80\n      add\n        /* \"contracts/ZecreyVerifier.sol\":15726:15734  in_vk[6] */\n      dup9\n        /* \"contracts/ZecreyVerifier.sol\":15762:15763  9 */\n      0x09\n        /* \"contracts/ZecreyVerifier.sol\":15756:15764  in_vk[9] */\n      0x20\n      mul\n      add\n      mload\n        /* \"contracts/ZecreyVerifier.sol\":15274:15970  uint[24] memory input = [\r... */\n      dup2\n      mstore\n      0x20\n      add\n        /* \"contracts/ZecreyVerifier.sol\":15828:15836  in_proof */\n      dup12\n        /* \"contracts/ZecreyVerifier.sol\":15837:15838  6 */\n      0x06\n        /* \"contracts/ZecreyVerifier.sol\":15828:15839  in_proof[6] */\n      dup2\n      mload\n      dup2\n      lt\n      tag_82\n      jumpi\n      invalid\n    tag_82:\n      0x20\n      mul\n      0x20\n      add\n      add\n      mload\n        /* \"contracts/ZecreyVerifier.sol\":15274:15970  uint[24] memory input = [\r... */\n      dup2\n      mstore\n      0x20\n      add\n        /* \"contracts/ZecreyVerifier.sol\":15841:15861  NegateY(in_proof[7]) */\n      tag_83\n        /* \"contracts/ZecreyVerifier.sol\":15849:15857  in_proof */\n      dup13\n        /* \"contracts/ZecreyVerifier.sol\":15858:15859  7 */\n      0x07\n        /* \"contracts/ZecreyVerifier.sol\":15849:15860  in_proof[7] */\n      dup2\n      mload\n      dup2\n      lt\n      tag_84\n      jumpi\n      invalid\n    tag_84:\n      0x20\n      mul\n      0x20\n      add\n      add\n      mload\n        /* \"contracts/ZecreyVerifier.sol\":15841:15848  NegateY */\n      tag_70\n        /* \"contracts/ZecreyVerifier.sol\":15841:15861  NegateY(in_proof[7]) */\n      jump\t// in\n    tag_83:\n        /* \"contracts/ZecreyVerifier.sol\":15274:15970  uint[24] memory input = [\r... */\n      dup2\n      mstore\n        /* \"contracts/ZecreyVerifier.sol\":15890:15899  in_vk[10] */\n      0x0140\n      dup10\n      add\n      mload\n        /* \"contracts/ZecreyVerifier.sol\":15274:15970  uint[24] memory input = [\r... */\n      0x20\n      dup3\n      add\n      mstore\n        /* \"contracts/ZecreyVerifier.sol\":15901:15910  in_vk[11] */\n      0x0160\n      dup10\n      add\n      mload\n        /* \"contracts/ZecreyVerifier.sol\":15274:15970  uint[24] memory input = [\r... */\n      0x40\n      dup3\n      add\n      mstore\n        /* \"contracts/ZecreyVerifier.sol\":15912:15921  in_vk[12] */\n      0x0180\n      dup10\n      add\n      mload\n        /* \"contracts/ZecreyVerifier.sol\":15274:15970  uint[24] memory input = [\r... */\n      0x60\n      dup3\n      add\n      mstore\n        /* \"contracts/ZecreyVerifier.sol\":15923:15932  in_vk[13] */\n      0x01a0\n      dup10\n      add\n      mload\n        /* \"contracts/ZecreyVerifier.sol\":15274:15970  uint[24] memory input = [\r... */\n      0x80\n      swap1\n      swap2\n      add\n      mstore\n      swap1\n      pop\n        /* \"contracts/ZecreyVerifier.sol\":15983:16001  uint[1] memory out */\n      tag_89\n      tag_90\n      jump\t// in\n    tag_89:\n        /* \"contracts/ZecreyVerifier.sol\":16096:16100  0x20 */\n      0x20\n        /* \"contracts/ZecreyVerifier.sol\":16091:16094  out */\n      dup2\n        /* \"contracts/ZecreyVerifier.sol\":16086:16089  768 */\n      0x0300\n        /* \"contracts/ZecreyVerifier.sol\":16079:16084  input */\n      dup5\n        /* \"contracts/ZecreyVerifier.sol\":16076:16077  8 */\n      0x08\n        /* \"contracts/ZecreyVerifier.sol\":16069:16073  2000 */\n      0x07d0\n        /* \"contracts/ZecreyVerifier.sol\":16062:16067  gas() */\n      gas\n        /* \"contracts/ZecreyVerifier.sol\":16058:16074  sub(gas(), 2000) */\n      sub\n        /* \"contracts/ZecreyVerifier.sol\":16047:16101  staticcall(sub(gas(), 2000), 8, input, 768, out, 0x20) */\n      staticcall\n        /* \"contracts/ZecreyVerifier.sol\":16036:16101  success := staticcall(sub(gas(), 2000), 8, input, 768, out, 0x20) */\n      swap4\n      pop\n        /* \"contracts/ZecreyVerifier.sol\":16130:16137  success */\n      dup4\n        /* \"contracts/ZecreyVerifier.sol\":16122:16138  require(success) */\n      tag_91\n      jumpi\n      0x00\n      dup1\n      revert\n    tag_91:\n        /* \"contracts/ZecreyVerifier.sol\":16156:16162  out[0] */\n      mload\n        /* \"contracts/ZecreyVerifier.sol\":16166:16167  1 */\n      0x01\n        /* \"contracts/ZecreyVerifier.sol\":16156:16167  out[0] == 1 */\n      eq\n      swap11\n      swap10\n      pop\n      pop\n      pop\n      pop\n      pop\n      pop\n      pop\n      pop\n      pop\n      pop\n        /* \"contracts/ZecreyVerifier.sol\":13888:16175  function verifyProof(\r... */\n      jump\t// out\n        /* \"contracts/ZecreyVerifier.sol\":10218:13880  function verifyBatchProofs(\r... */\n    tag_30:\n        /* \"contracts/ZecreyVerifier.sol\":10487:10499  bool success */\n      0x00\n        /* \"contracts/ZecreyVerifier.sol\":10521:10531  num_proofs */\n      dup2\n        /* \"contracts/ZecreyVerifier.sol\":10535:10536  1 */\n      0x01\n        /* \"contracts/ZecreyVerifier.sol\":10521:10536  num_proofs == 1 */\n      eq\n        /* \"contracts/ZecreyVerifier.sol\":10517:10607  if (num_proofs == 1) {\r... */\n      iszero\n      tag_94\n      jumpi\n        /* \"contracts/ZecreyVerifier.sol\":10560:10595  verifyProof(in_proof, proof_inputs) */\n      tag_95\n        /* \"contracts/ZecreyVerifier.sol\":10572:10580  in_proof */\n      dup5\n        /* \"contracts/ZecreyVerifier.sol\":10582:10594  proof_inputs */\n      dup5\n        /* \"contracts/ZecreyVerifier.sol\":10560:10571  verifyProof */\n      tag_21\n        /* \"contracts/ZecreyVerifier.sol\":10560:10595  verifyProof(in_proof, proof_inputs) */\n      jump\t// in\n    tag_95:\n        /* \"contracts/ZecreyVerifier.sol\":10553:10595  return verifyProof(in_proof, proof_inputs) */\n      swap1\n      pop\n      jump(tag_93)\n        /* \"contracts/ZecreyVerifier.sol\":10517:10607  if (num_proofs == 1) {\r... */\n    tag_94:\n        /* \"contracts/ZecreyVerifier.sol\":10617:10641  uint256[14] memory in_vk */\n      0x00\n        /* \"contracts/ZecreyVerifier.sol\":10644:10658  verifyingKey() */\n      tag_96\n        /* \"contracts/ZecreyVerifier.sol\":10644:10656  verifyingKey */\n      tag_36\n        /* \"contracts/ZecreyVerifier.sol\":10644:10658  verifyingKey() */\n      jump\t// in\n    tag_96:\n        /* \"contracts/ZecreyVerifier.sol\":10617:10658  uint256[14] memory in_vk = verifyingKey() */\n      swap1\n      pop\n        /* \"contracts/ZecreyVerifier.sol\":10669:10697  uint256[] memory vk_gammaABC */\n      0x00\n        /* \"contracts/ZecreyVerifier.sol\":10700:10704  ic() */\n      tag_97\n        /* \"contracts/ZecreyVerifier.sol\":10700:10702  ic */\n      tag_38\n        /* \"contracts/ZecreyVerifier.sol\":10700:10704  ic() */\n      jump\t// in\n    tag_97:\n        /* \"contracts/ZecreyVerifier.sol\":10669:10704  uint256[] memory vk_gammaABC = ic() */\n      swap1\n      pop\n        /* \"contracts/ZecreyVerifier.sol\":10746:10756  num_proofs */\n      dup4\n        /* \"contracts/ZecreyVerifier.sol\":10742:10743  8 */\n      0x08\n        /* \"contracts/ZecreyVerifier.sol\":10742:10756  8 * num_proofs */\n      mul\n        /* \"contracts/ZecreyVerifier.sol\":10723:10731  in_proof */\n      dup7\n        /* \"contracts/ZecreyVerifier.sol\":10723:10738  in_proof.length */\n      mload\n        /* \"contracts/ZecreyVerifier.sol\":10723:10756  in_proof.length == 8 * num_proofs */\n      eq\n        /* \"contracts/ZecreyVerifier.sol\":10715:10794  require(in_proof.length == 8 * num_proofs, \"Invalid proofs length for a batch\") */\n      tag_98\n      jumpi\n      mload(0x40)\n      shl(0xe5, 0x461bcd)\n      dup2\n      mstore\n      0x04\n      add\n      dup1\n      dup1\n      0x20\n      add\n      dup3\n      dup2\n      sub\n      dup3\n      mstore\n      0x21\n      dup2\n      mstore\n      0x20\n      add\n      dup1\n      data_30a927176b85b56b3deaf77e8ab2c5b8e8323b5a79eca07c339102b46ba42bf9\n      0x21\n      swap2\n      codecopy\n      0x40\n      add\n      swap2\n      pop\n      pop\n      mload(0x40)\n      dup1\n      swap2\n      sub\n      swap1\n      revert\n    tag_98:\n        /* \"contracts/ZecreyVerifier.sol\":10835:10845  num_proofs */\n      dup4\n        /* \"contracts/ZecreyVerifier.sol\":10813:10825  proof_inputs */\n      dup6\n        /* \"contracts/ZecreyVerifier.sol\":10813:10832  proof_inputs.length */\n      mload\n        /* \"contracts/ZecreyVerifier.sol\":10813:10845  proof_inputs.length % num_proofs */\n      dup2\n      tag_99\n      jumpi\n      invalid\n    tag_99:\n      mod\n        /* \"contracts/ZecreyVerifier.sol\":10813:10850  proof_inputs.length % num_proofs == 0 */\n      iszero\n        /* \"contracts/ZecreyVerifier.sol\":10805:10888  require(proof_inputs.length % num_proofs == 0, \"Invalid inputs length for a batch\") */\n      tag_100\n      jumpi\n      mload(0x40)\n      shl(0xe5, 0x461bcd)\n      dup2\n      mstore\n      0x04\n      add\n      dup1\n      dup1\n      0x20\n      add\n      dup3\n      dup2\n      sub\n      dup3\n      mstore\n      0x21\n      dup2\n      mstore\n      0x20\n      add\n      dup1\n      data_41e25ace9546ee1239eee4fafd6892f414e39dd676b90bf207e211891145f50f\n      0x21\n      swap2\n      codecopy\n      0x40\n      add\n      swap2\n      pop\n      pop\n      mload(0x40)\n      dup1\n      swap2\n      sub\n      swap1\n      revert\n    tag_100:\n        /* \"contracts/ZecreyVerifier.sol\":10963:10973  num_proofs */\n      dup4\n        /* \"contracts/ZecreyVerifier.sol\":10941:10953  proof_inputs */\n      dup6\n        /* \"contracts/ZecreyVerifier.sol\":10941:10960  proof_inputs.length */\n      mload\n        /* \"contracts/ZecreyVerifier.sol\":10941:10973  proof_inputs.length / num_proofs */\n      dup2\n      tag_101\n      jumpi\n      invalid\n    tag_101:\n      div\n        /* \"contracts/ZecreyVerifier.sol\":10935:10936  1 */\n      0x01\n        /* \"contracts/ZecreyVerifier.sol\":10930:10931  2 */\n      0x02\n        /* \"contracts/ZecreyVerifier.sol\":10909:10920  vk_gammaABC */\n      dup4\n        /* \"contracts/ZecreyVerifier.sol\":10909:10927  vk_gammaABC.length */\n      mload\n        /* \"contracts/ZecreyVerifier.sol\":10909:10931  vk_gammaABC.length / 2 */\n      dup2\n      tag_102\n      jumpi\n      invalid\n    tag_102:\n      div\n        /* \"contracts/ZecreyVerifier.sol\":10908:10936  (vk_gammaABC.length / 2) - 1 */\n      sub\n        /* \"contracts/ZecreyVerifier.sol\":10907:10973  ((vk_gammaABC.length / 2) - 1) == proof_inputs.length / num_proofs */\n      eq\n        /* \"contracts/ZecreyVerifier.sol\":10899:11024  require(((vk_gammaABC.length / 2) - 1) == proof_inputs.length / num_proofs, \"Mismatching number of inputs for verifying key\") */\n      tag_103\n      jumpi\n      mload(0x40)\n      shl(0xe5, 0x461bcd)\n      dup2\n      mstore\n      0x04\n      add\n      dup1\n      dup1\n      0x20\n      add\n      dup3\n      dup2\n      sub\n      dup3\n      mstore\n      0x2e\n      dup2\n      mstore\n      0x20\n      add\n      dup1\n      data_6a3401c7d65725f3707de40f8566d5c3161b87fc0a74b69aaea4ffecc21d5590\n      0x2e\n      swap2\n      codecopy\n      0x40\n      add\n      swap2\n      pop\n      pop\n      mload(0x40)\n      dup1\n      swap2\n      sub\n      swap1\n      revert\n    tag_103:\n        /* \"contracts/ZecreyVerifier.sol\":11378:11406  uint256[] memory proofsAandC */\n      0x60\n        /* \"contracts/ZecreyVerifier.sol\":11417:11451  uint256[] memory inputAccumulators */\n      dup1\n        /* \"contracts/ZecreyVerifier.sol\":11497:11543  accumulate(in_proof, proof_inputs, num_proofs) */\n      tag_104\n        /* \"contracts/ZecreyVerifier.sol\":11508:11516  in_proof */\n      dup9\n        /* \"contracts/ZecreyVerifier.sol\":11518:11530  proof_inputs */\n      dup9\n        /* \"contracts/ZecreyVerifier.sol\":11532:11542  num_proofs */\n      dup9\n        /* \"contracts/ZecreyVerifier.sol\":11497:11507  accumulate */\n      tag_105\n        /* \"contracts/ZecreyVerifier.sol\":11497:11543  accumulate(in_proof, proof_inputs, num_proofs) */\n      jump\t// in\n    tag_104:\n        /* \"contracts/ZecreyVerifier.sol\":11462:11543  (proofsAandC, inputAccumulators) = accumulate(in_proof, proof_inputs, num_proofs) */\n      swap1\n      swap3\n      pop\n      swap1\n      pop\n        /* \"contracts/ZecreyVerifier.sol\":11556:11588  uint256[4] memory finalVksAlphaX */\n      0x00\n        /* \"contracts/ZecreyVerifier.sol\":11591:11644  prepareBatches(in_vk, vk_gammaABC, inputAccumulators) */\n      tag_106\n        /* \"contracts/ZecreyVerifier.sol\":11606:11611  in_vk */\n      dup6\n        /* \"contracts/ZecreyVerifier.sol\":11613:11624  vk_gammaABC */\n      dup6\n        /* \"contracts/ZecreyVerifier.sol\":11462:11543  (proofsAandC, inputAccumulators) = accumulate(in_proof, proof_inputs, num_proofs) */\n      dup5\n        /* \"contracts/ZecreyVerifier.sol\":11591:11605  prepareBatches */\n      tag_107\n        /* \"contracts/ZecreyVerifier.sol\":11591:11644  prepareBatches(in_vk, vk_gammaABC, inputAccumulators) */\n      jump\t// in\n    tag_106:\n        /* \"contracts/ZecreyVerifier.sol\":11556:11644  uint256[4] memory finalVksAlphaX = prepareBatches(in_vk, vk_gammaABC, inputAccumulators) */\n      swap1\n      pop\n        /* \"contracts/ZecreyVerifier.sol\":11657:11680  uint256[] memory inputs */\n      0x00\n        /* \"contracts/ZecreyVerifier.sol\":11701:11711  num_proofs */\n      dup8\n        /* \"contracts/ZecreyVerifier.sol\":11697:11698  6 */\n      0x06\n        /* \"contracts/ZecreyVerifier.sol\":11697:11711  6 * num_proofs */\n      mul\n        /* \"contracts/ZecreyVerifier.sol\":11714:11716  18 */\n      0x12\n        /* \"contracts/ZecreyVerifier.sol\":11697:11716  6 * num_proofs + 18 */\n      add\n        /* \"contracts/ZecreyVerifier.sol\":11683:11717  new uint256[](6 * num_proofs + 18) */\n      0xffffffffffffffff\n      dup2\n      gt\n      dup1\n      iszero\n      tag_108\n      jumpi\n      0x00\n      dup1\n      revert\n    tag_108:\n      pop\n      mload(0x40)\n      swap1\n      dup1\n      dup3\n      mstore\n      dup1\n      0x20\n      mul\n      0x20\n      add\n      dup3\n      add\n      0x40\n      mstore\n      dup1\n      iszero\n      tag_109\n      jumpi\n      dup2\n      0x20\n      add\n      0x20\n      dup3\n      mul\n      dup1\n      calldatasize\n      dup4\n      calldatacopy\n      add\n      swap1\n      pop\n    tag_109:\n      pop\n        /* \"contracts/ZecreyVerifier.sol\":11657:11717  uint256[] memory inputs = new uint256[](6 * num_proofs + 18) */\n      swap1\n      pop\n        /* \"contracts/ZecreyVerifier.sol\":11789:11808  uint256 proofNumber */\n      0x00\n        /* \"contracts/ZecreyVerifier.sol\":11784:12309  for (uint256 proofNumber = 0; proofNumber < num_proofs; proofNumber++) {\r... */\n    tag_110:\n        /* \"contracts/ZecreyVerifier.sol\":11828:11838  num_proofs */\n      dup9\n        /* \"contracts/ZecreyVerifier.sol\":11814:11825  proofNumber */\n      dup2\n        /* \"contracts/ZecreyVerifier.sol\":11814:11838  proofNumber < num_proofs */\n      lt\n        /* \"contracts/ZecreyVerifier.sol\":11784:12309  for (uint256 proofNumber = 0; proofNumber < num_proofs; proofNumber++) {\r... */\n      iszero\n      tag_111\n      jumpi\n        /* \"contracts/ZecreyVerifier.sol\":11896:11907  proofsAandC */\n      dup5\n        /* \"contracts/ZecreyVerifier.sol\":11908:11919  proofNumber */\n      dup2\n        /* \"contracts/ZecreyVerifier.sol\":11922:11923  2 */\n      0x02\n        /* \"contracts/ZecreyVerifier.sol\":11908:11923  proofNumber * 2 */\n      mul\n        /* \"contracts/ZecreyVerifier.sol\":11896:11924  proofsAandC[proofNumber * 2] */\n      dup2\n      mload\n      dup2\n      lt\n      tag_113\n      jumpi\n      invalid\n    tag_113:\n      0x20\n      mul\n      0x20\n      add\n      add\n      mload\n        /* \"contracts/ZecreyVerifier.sol\":11870:11876  inputs */\n      dup3\n        /* \"contracts/ZecreyVerifier.sol\":11877:11888  proofNumber */\n      dup3\n        /* \"contracts/ZecreyVerifier.sol\":11891:11892  6 */\n      0x06\n        /* \"contracts/ZecreyVerifier.sol\":11877:11892  proofNumber * 6 */\n      mul\n        /* \"contracts/ZecreyVerifier.sol\":11870:11893  inputs[proofNumber * 6] */\n      dup2\n      mload\n      dup2\n      lt\n      tag_114\n      jumpi\n      invalid\n    tag_114:\n      0x20\n      mul\n      0x20\n      add\n      add\n        /* \"contracts/ZecreyVerifier.sol\":11870:11924  inputs[proofNumber * 6] = proofsAandC[proofNumber * 2] */\n      dup2\n      dup2\n      mstore\n      pop\n      pop\n        /* \"contracts/ZecreyVerifier.sol\":11969:11980  proofsAandC */\n      dup5\n        /* \"contracts/ZecreyVerifier.sol\":11981:11992  proofNumber */\n      dup2\n        /* \"contracts/ZecreyVerifier.sol\":11995:11996  2 */\n      0x02\n        /* \"contracts/ZecreyVerifier.sol\":11981:11996  proofNumber * 2 */\n      mul\n        /* \"contracts/ZecreyVerifier.sol\":11999:12000  1 */\n      0x01\n        /* \"contracts/ZecreyVerifier.sol\":11981:12000  proofNumber * 2 + 1 */\n      add\n        /* \"contracts/ZecreyVerifier.sol\":11969:12001  proofsAandC[proofNumber * 2 + 1] */\n      dup2\n      mload\n      dup2\n      lt\n      tag_115\n      jumpi\n      invalid\n    tag_115:\n      0x20\n      mul\n      0x20\n      add\n      add\n      mload\n        /* \"contracts/ZecreyVerifier.sol\":11939:11945  inputs */\n      dup3\n        /* \"contracts/ZecreyVerifier.sol\":11946:11957  proofNumber */\n      dup3\n        /* \"contracts/ZecreyVerifier.sol\":11960:11961  6 */\n      0x06\n        /* \"contracts/ZecreyVerifier.sol\":11946:11961  proofNumber * 6 */\n      mul\n        /* \"contracts/ZecreyVerifier.sol\":11964:11965  1 */\n      0x01\n        /* \"contracts/ZecreyVerifier.sol\":11946:11965  proofNumber * 6 + 1 */\n      add\n        /* \"contracts/ZecreyVerifier.sol\":11939:11966  inputs[proofNumber * 6 + 1] */\n      dup2\n      mload\n      dup2\n      lt\n      tag_116\n      jumpi\n      invalid\n    tag_116:\n      0x20\n      mul\n      0x20\n      add\n      add\n        /* \"contracts/ZecreyVerifier.sol\":11939:12001  inputs[proofNumber * 6 + 1] = proofsAandC[proofNumber * 2 + 1] */\n      dup2\n      dup2\n      mstore\n      pop\n      pop\n        /* \"contracts/ZecreyVerifier.sol\":12046:12054  in_proof */\n      dup11\n        /* \"contracts/ZecreyVerifier.sol\":12055:12066  proofNumber */\n      dup2\n        /* \"contracts/ZecreyVerifier.sol\":12069:12070  8 */\n      0x08\n        /* \"contracts/ZecreyVerifier.sol\":12055:12070  proofNumber * 8 */\n      mul\n        /* \"contracts/ZecreyVerifier.sol\":12073:12074  2 */\n      0x02\n        /* \"contracts/ZecreyVerifier.sol\":12055:12074  proofNumber * 8 + 2 */\n      add\n        /* \"contracts/ZecreyVerifier.sol\":12046:12075  in_proof[proofNumber * 8 + 2] */\n      dup2\n      mload\n      dup2\n      lt\n      tag_117\n      jumpi\n      invalid\n    tag_117:\n      0x20\n      mul\n      0x20\n      add\n      add\n      mload\n        /* \"contracts/ZecreyVerifier.sol\":12016:12022  inputs */\n      dup3\n        /* \"contracts/ZecreyVerifier.sol\":12023:12034  proofNumber */\n      dup3\n        /* \"contracts/ZecreyVerifier.sol\":12037:12038  6 */\n      0x06\n        /* \"contracts/ZecreyVerifier.sol\":12023:12038  proofNumber * 6 */\n      mul\n        /* \"contracts/ZecreyVerifier.sol\":12041:12042  2 */\n      0x02\n        /* \"contracts/ZecreyVerifier.sol\":12023:12042  proofNumber * 6 + 2 */\n      add\n        /* \"contracts/ZecreyVerifier.sol\":12016:12043  inputs[proofNumber * 6 + 2] */\n      dup2\n      mload\n      dup2\n      lt\n      tag_118\n      jumpi\n      invalid\n    tag_118:\n      0x20\n      mul\n      0x20\n      add\n      add\n        /* \"contracts/ZecreyVerifier.sol\":12016:12075  inputs[proofNumber * 6 + 2] = in_proof[proofNumber * 8 + 2] */\n      dup2\n      dup2\n      mstore\n      pop\n      pop\n        /* \"contracts/ZecreyVerifier.sol\":12120:12128  in_proof */\n      dup11\n        /* \"contracts/ZecreyVerifier.sol\":12129:12140  proofNumber */\n      dup2\n        /* \"contracts/ZecreyVerifier.sol\":12143:12144  8 */\n      0x08\n        /* \"contracts/ZecreyVerifier.sol\":12129:12144  proofNumber * 8 */\n      mul\n        /* \"contracts/ZecreyVerifier.sol\":12147:12148  3 */\n      0x03\n        /* \"contracts/ZecreyVerifier.sol\":12129:12148  proofNumber * 8 + 3 */\n      add\n        /* \"contracts/ZecreyVerifier.sol\":12120:12149  in_proof[proofNumber * 8 + 3] */\n      dup2\n      mload\n      dup2\n      lt\n      tag_119\n      jumpi\n      invalid\n    tag_119:\n      0x20\n      mul\n      0x20\n      add\n      add\n      mload\n        /* \"contracts/ZecreyVerifier.sol\":12090:12096  inputs */\n      dup3\n        /* \"contracts/ZecreyVerifier.sol\":12097:12108  proofNumber */\n      dup3\n        /* \"contracts/ZecreyVerifier.sol\":12111:12112  6 */\n      0x06\n        /* \"contracts/ZecreyVerifier.sol\":12097:12112  proofNumber * 6 */\n      mul\n        /* \"contracts/ZecreyVerifier.sol\":12115:12116  3 */\n      0x03\n        /* \"contracts/ZecreyVerifier.sol\":12097:12116  proofNumber * 6 + 3 */\n      add\n        /* \"contracts/ZecreyVerifier.sol\":12090:12117  inputs[proofNumber * 6 + 3] */\n      dup2\n      mload\n      dup2\n      lt\n      tag_120\n      jumpi\n      invalid\n    tag_120:\n      0x20\n      mul\n      0x20\n      add\n      add\n        /* \"contracts/ZecreyVerifier.sol\":12090:12149  inputs[proofNumber * 6 + 3] = in_proof[proofNumber * 8 + 3] */\n      dup2\n      dup2\n      mstore\n      pop\n      pop\n        /* \"contracts/ZecreyVerifier.sol\":12194:12202  in_proof */\n      dup11\n        /* \"contracts/ZecreyVerifier.sol\":12203:12214  proofNumber */\n      dup2\n        /* \"contracts/ZecreyVerifier.sol\":12217:12218  8 */\n      0x08\n        /* \"contracts/ZecreyVerifier.sol\":12203:12218  proofNumber * 8 */\n      mul\n        /* \"contracts/ZecreyVerifier.sol\":12221:12222  4 */\n      0x04\n        /* \"contracts/ZecreyVerifier.sol\":12203:12222  proofNumber * 8 + 4 */\n      add\n        /* \"contracts/ZecreyVerifier.sol\":12194:12223  in_proof[proofNumber * 8 + 4] */\n      dup2\n      mload\n      dup2\n      lt\n      tag_121\n      jumpi\n      invalid\n    tag_121:\n      0x20\n      mul\n      0x20\n      add\n      add\n      mload\n        /* \"contracts/ZecreyVerifier.sol\":12164:12170  inputs */\n      dup3\n        /* \"contracts/ZecreyVerifier.sol\":12171:12182  proofNumber */\n      dup3\n        /* \"contracts/ZecreyVerifier.sol\":12185:12186  6 */\n      0x06\n        /* \"contracts/ZecreyVerifier.sol\":12171:12186  proofNumber * 6 */\n      mul\n        /* \"contracts/ZecreyVerifier.sol\":12189:12190  4 */\n      0x04\n        /* \"contracts/ZecreyVerifier.sol\":12171:12190  proofNumber * 6 + 4 */\n      add\n        /* \"contracts/ZecreyVerifier.sol\":12164:12191  inputs[proofNumber * 6 + 4] */\n      dup2\n      mload\n      dup2\n      lt\n      tag_122\n      jumpi\n      invalid\n    tag_122:\n      0x20\n      mul\n      0x20\n      add\n      add\n        /* \"contracts/ZecreyVerifier.sol\":12164:12223  inputs[proofNumber * 6 + 4] = in_proof[proofNumber * 8 + 4] */\n      dup2\n      dup2\n      mstore\n      pop\n      pop\n        /* \"contracts/ZecreyVerifier.sol\":12268:12276  in_proof */\n      dup11\n        /* \"contracts/ZecreyVerifier.sol\":12277:12288  proofNumber */\n      dup2\n        /* \"contracts/ZecreyVerifier.sol\":12291:12292  8 */\n      0x08\n        /* \"contracts/ZecreyVerifier.sol\":12277:12292  proofNumber * 8 */\n      mul\n        /* \"contracts/ZecreyVerifier.sol\":12295:12296  5 */\n      0x05\n        /* \"contracts/ZecreyVerifier.sol\":12277:12296  proofNumber * 8 + 5 */\n      add\n        /* \"contracts/ZecreyVerifier.sol\":12268:12297  in_proof[proofNumber * 8 + 5] */\n      dup2\n      mload\n      dup2\n      lt\n      tag_123\n      jumpi\n      invalid\n    tag_123:\n      0x20\n      mul\n      0x20\n      add\n      add\n      mload\n        /* \"contracts/ZecreyVerifier.sol\":12238:12244  inputs */\n      dup3\n        /* \"contracts/ZecreyVerifier.sol\":12245:12256  proofNumber */\n      dup3\n        /* \"contracts/ZecreyVerifier.sol\":12259:12260  6 */\n      0x06\n        /* \"contracts/ZecreyVerifier.sol\":12245:12260  proofNumber * 6 */\n      mul\n        /* \"contracts/ZecreyVerifier.sol\":12263:12264  5 */\n      0x05\n        /* \"contracts/ZecreyVerifier.sol\":12245:12264  proofNumber * 6 + 5 */\n      add\n        /* \"contracts/ZecreyVerifier.sol\":12238:12265  inputs[proofNumber * 6 + 5] */\n      dup2\n      mload\n      dup2\n      lt\n      tag_124\n      jumpi\n      invalid\n    tag_124:\n      0x20\n      swap1\n      dup2\n      mul\n      swap2\n      swap1\n      swap2\n      add\n      add\n        /* \"contracts/ZecreyVerifier.sol\":12238:12297  inputs[proofNumber * 6 + 5] = in_proof[proofNumber * 8 + 5] */\n      mstore\n        /* \"contracts/ZecreyVerifier.sol\":11840:11853  proofNumber++ */\n      0x01\n      add\n        /* \"contracts/ZecreyVerifier.sol\":11784:12309  for (uint256 proofNumber = 0; proofNumber < num_proofs; proofNumber++) {\r... */\n      jump(tag_110)\n    tag_111:\n      pop\n        /* \"contracts/ZecreyVerifier.sol\":12399:12416  finalVksAlphaX[0] */\n      dup2\n      mload\n        /* \"contracts/ZecreyVerifier.sol\":12374:12396  inputs[num_proofs * 6] */\n      dup2\n      mload\n        /* \"contracts/ZecreyVerifier.sol\":12374:12380  inputs */\n      dup3\n      swap1\n        /* \"contracts/ZecreyVerifier.sol\":12394:12395  6 */\n      0x06\n        /* \"contracts/ZecreyVerifier.sol\":12381:12395  num_proofs * 6 */\n      dup12\n      mul\n      swap1\n        /* \"contracts/ZecreyVerifier.sol\":12374:12396  inputs[num_proofs * 6] */\n      dup2\n      lt\n      tag_126\n      jumpi\n      invalid\n    tag_126:\n      0x20\n      swap1\n      dup2\n      mul\n      swap2\n      swap1\n      swap2\n      add\n      add\n        /* \"contracts/ZecreyVerifier.sol\":12374:12416  inputs[num_proofs * 6] = finalVksAlphaX[0] */\n      mstore\n        /* \"contracts/ZecreyVerifier.sol\":12456:12482  NegateY(finalVksAlphaX[1]) */\n      tag_127\n        /* \"contracts/ZecreyVerifier.sol\":12464:12478  finalVksAlphaX */\n      dup3\n        /* \"contracts/ZecreyVerifier.sol\":12479:12480  1 */\n      0x01\n        /* \"contracts/ZecreyVerifier.sol\":12464:12481  finalVksAlphaX[1] */\n      jump(tag_69)\n        /* \"contracts/ZecreyVerifier.sol\":12456:12482  NegateY(finalVksAlphaX[1]) */\n    tag_127:\n        /* \"contracts/ZecreyVerifier.sol\":12427:12433  inputs */\n      dup2\n        /* \"contracts/ZecreyVerifier.sol\":12434:12444  num_proofs */\n      dup10\n        /* \"contracts/ZecreyVerifier.sol\":12447:12448  6 */\n      0x06\n        /* \"contracts/ZecreyVerifier.sol\":12434:12448  num_proofs * 6 */\n      mul\n        /* \"contracts/ZecreyVerifier.sol\":12451:12452  1 */\n      0x01\n        /* \"contracts/ZecreyVerifier.sol\":12434:12452  num_proofs * 6 + 1 */\n      add\n        /* \"contracts/ZecreyVerifier.sol\":12427:12453  inputs[num_proofs * 6 + 1] */\n      dup2\n      mload\n      dup2\n      lt\n      tag_129\n      jumpi\n      invalid\n    tag_129:\n      0x20\n      swap1\n      dup2\n      mul\n      swap2\n      swap1\n      swap2\n      add\n      add\n        /* \"contracts/ZecreyVerifier.sol\":12427:12482  inputs[num_proofs * 6 + 1] = NegateY(finalVksAlphaX[1]) */\n      mstore\n        /* \"contracts/ZecreyVerifier.sol\":12522:12527  in_vk */\n      dup6\n        /* \"contracts/ZecreyVerifier.sol\":12528:12529  2 */\n      0x02\n        /* \"contracts/ZecreyVerifier.sol\":12522:12530  in_vk[2] */\n      0x20\n      mul\n      add\n      mload\n        /* \"contracts/ZecreyVerifier.sol\":12493:12499  inputs */\n      dup2\n        /* \"contracts/ZecreyVerifier.sol\":12500:12510  num_proofs */\n      dup10\n        /* \"contracts/ZecreyVerifier.sol\":12513:12514  6 */\n      0x06\n        /* \"contracts/ZecreyVerifier.sol\":12500:12514  num_proofs * 6 */\n      mul\n        /* \"contracts/ZecreyVerifier.sol\":12517:12518  2 */\n      0x02\n        /* \"contracts/ZecreyVerifier.sol\":12500:12518  num_proofs * 6 + 2 */\n      add\n        /* \"contracts/ZecreyVerifier.sol\":12493:12519  inputs[num_proofs * 6 + 2] */\n      dup2\n      mload\n      dup2\n      lt\n      tag_131\n      jumpi\n      invalid\n    tag_131:\n      0x20\n      swap1\n      dup2\n      mul\n      swap2\n      swap1\n      swap2\n      add\n      add\n        /* \"contracts/ZecreyVerifier.sol\":12493:12530  inputs[num_proofs * 6 + 2] = in_vk[2] */\n      mstore\n        /* \"contracts/ZecreyVerifier.sol\":12570:12575  in_vk */\n      dup6\n        /* \"contracts/ZecreyVerifier.sol\":12576:12577  3 */\n      0x03\n        /* \"contracts/ZecreyVerifier.sol\":12570:12578  in_vk[3] */\n      0x20\n      mul\n      add\n      mload\n        /* \"contracts/ZecreyVerifier.sol\":12541:12547  inputs */\n      dup2\n        /* \"contracts/ZecreyVerifier.sol\":12548:12558  num_proofs */\n      dup10\n        /* \"contracts/ZecreyVerifier.sol\":12561:12562  6 */\n      0x06\n        /* \"contracts/ZecreyVerifier.sol\":12548:12562  num_proofs * 6 */\n      mul\n        /* \"contracts/ZecreyVerifier.sol\":12565:12566  3 */\n      0x03\n        /* \"contracts/ZecreyVerifier.sol\":12548:12566  num_proofs * 6 + 3 */\n      add\n        /* \"contracts/ZecreyVerifier.sol\":12541:12567  inputs[num_proofs * 6 + 3] */\n      dup2\n      mload\n      dup2\n      lt\n      tag_133\n      jumpi\n      invalid\n    tag_133:\n      0x20\n      swap1\n      dup2\n      mul\n      swap2\n      swap1\n      swap2\n      add\n      add\n        /* \"contracts/ZecreyVerifier.sol\":12541:12578  inputs[num_proofs * 6 + 3] = in_vk[3] */\n      mstore\n        /* \"contracts/ZecreyVerifier.sol\":12618:12623  in_vk */\n      dup6\n        /* \"contracts/ZecreyVerifier.sol\":12624:12625  4 */\n      0x04\n        /* \"contracts/ZecreyVerifier.sol\":12618:12626  in_vk[4] */\n      0x20\n      mul\n      add\n      mload\n        /* \"contracts/ZecreyVerifier.sol\":12589:12595  inputs */\n      dup2\n        /* \"contracts/ZecreyVerifier.sol\":12596:12606  num_proofs */\n      dup10\n        /* \"contracts/ZecreyVerifier.sol\":12609:12610  6 */\n      0x06\n        /* \"contracts/ZecreyVerifier.sol\":12596:12610  num_proofs * 6 */\n      mul\n        /* \"contracts/ZecreyVerifier.sol\":12613:12614  4 */\n      0x04\n        /* \"contracts/ZecreyVerifier.sol\":12596:12614  num_proofs * 6 + 4 */\n      add\n        /* \"contracts/ZecreyVerifier.sol\":12589:12615  inputs[num_proofs * 6 + 4] */\n      dup2\n      mload\n      dup2\n      lt\n      tag_135\n      jumpi\n      invalid\n    tag_135:\n      0x20\n      swap1\n      dup2\n      mul\n      swap2\n      swap1\n      swap2\n      add\n      add\n        /* \"contracts/ZecreyVerifier.sol\":12589:12626  inputs[num_proofs * 6 + 4] = in_vk[4] */\n      mstore\n        /* \"contracts/ZecreyVerifier.sol\":12666:12671  in_vk */\n      dup6\n        /* \"contracts/ZecreyVerifier.sol\":12672:12673  5 */\n      0x05\n        /* \"contracts/ZecreyVerifier.sol\":12666:12674  in_vk[5] */\n      0x20\n      mul\n      add\n      mload\n        /* \"contracts/ZecreyVerifier.sol\":12637:12643  inputs */\n      dup2\n        /* \"contracts/ZecreyVerifier.sol\":12644:12654  num_proofs */\n      dup10\n        /* \"contracts/ZecreyVerifier.sol\":12657:12658  6 */\n      0x06\n        /* \"contracts/ZecreyVerifier.sol\":12644:12658  num_proofs * 6 */\n      mul\n        /* \"contracts/ZecreyVerifier.sol\":12661:12662  5 */\n      0x05\n        /* \"contracts/ZecreyVerifier.sol\":12644:12662  num_proofs * 6 + 5 */\n      add\n        /* \"contracts/ZecreyVerifier.sol\":12637:12663  inputs[num_proofs * 6 + 5] */\n      dup2\n      mload\n      dup2\n      lt\n      tag_137\n      jumpi\n      invalid\n    tag_137:\n      0x20\n      swap1\n      dup2\n      mul\n      swap2\n      swap1\n      swap2\n      add\n      add\n        /* \"contracts/ZecreyVerifier.sol\":12637:12674  inputs[num_proofs * 6 + 5] = in_vk[5] */\n      mstore\n        /* \"contracts/ZecreyVerifier.sol\":12765:12779  finalVksAlphaX */\n      dup2\n        /* \"contracts/ZecreyVerifier.sol\":12780:12781  2 */\n      0x02\n        /* \"contracts/ZecreyVerifier.sol\":12765:12782  finalVksAlphaX[2] */\n      0x20\n      mul\n      add\n      mload\n        /* \"contracts/ZecreyVerifier.sol\":12736:12742  inputs */\n      dup2\n        /* \"contracts/ZecreyVerifier.sol\":12743:12753  num_proofs */\n      dup10\n        /* \"contracts/ZecreyVerifier.sol\":12756:12757  6 */\n      0x06\n        /* \"contracts/ZecreyVerifier.sol\":12743:12757  num_proofs * 6 */\n      mul\n        /* \"contracts/ZecreyVerifier.sol\":12760:12761  6 */\n      0x06\n        /* \"contracts/ZecreyVerifier.sol\":12743:12761  num_proofs * 6 + 6 */\n      add\n        /* \"contracts/ZecreyVerifier.sol\":12736:12762  inputs[num_proofs * 6 + 6] */\n      dup2\n      mload\n      dup2\n      lt\n      tag_139\n      jumpi\n      invalid\n    tag_139:\n      0x20\n      swap1\n      dup2\n      mul\n      swap2\n      swap1\n      swap2\n      add\n      add\n        /* \"contracts/ZecreyVerifier.sol\":12736:12782  inputs[num_proofs * 6 + 6] = finalVksAlphaX[2] */\n      mstore\n        /* \"contracts/ZecreyVerifier.sol\":12822:12848  NegateY(finalVksAlphaX[3]) */\n      tag_140\n        /* \"contracts/ZecreyVerifier.sol\":12830:12844  finalVksAlphaX */\n      dup3\n        /* \"contracts/ZecreyVerifier.sol\":12845:12846  3 */\n      0x03\n        /* \"contracts/ZecreyVerifier.sol\":12830:12847  finalVksAlphaX[3] */\n      jump(tag_69)\n        /* \"contracts/ZecreyVerifier.sol\":12822:12848  NegateY(finalVksAlphaX[3]) */\n    tag_140:\n        /* \"contracts/ZecreyVerifier.sol\":12793:12799  inputs */\n      dup2\n        /* \"contracts/ZecreyVerifier.sol\":12800:12810  num_proofs */\n      dup10\n        /* \"contracts/ZecreyVerifier.sol\":12813:12814  6 */\n      0x06\n        /* \"contracts/ZecreyVerifier.sol\":12800:12814  num_proofs * 6 */\n      mul\n        /* \"contracts/ZecreyVerifier.sol\":12817:12818  7 */\n      0x07\n        /* \"contracts/ZecreyVerifier.sol\":12800:12818  num_proofs * 6 + 7 */\n      add\n        /* \"contracts/ZecreyVerifier.sol\":12793:12819  inputs[num_proofs * 6 + 7] */\n      dup2\n      mload\n      dup2\n      lt\n      tag_142\n      jumpi\n      invalid\n    tag_142:\n      0x20\n      swap1\n      dup2\n      mul\n      swap2\n      swap1\n      swap2\n      add\n      add\n        /* \"contracts/ZecreyVerifier.sol\":12793:12848  inputs[num_proofs * 6 + 7] = NegateY(finalVksAlphaX[3]) */\n      mstore\n        /* \"contracts/ZecreyVerifier.sol\":12888:12893  in_vk */\n      dup6\n        /* \"contracts/ZecreyVerifier.sol\":12894:12895  6 */\n      0x06\n        /* \"contracts/ZecreyVerifier.sol\":12888:12896  in_vk[6] */\n      0x20\n      mul\n      add\n      mload\n        /* \"contracts/ZecreyVerifier.sol\":12859:12865  inputs */\n      dup2\n        /* \"contracts/ZecreyVerifier.sol\":12866:12876  num_proofs */\n      dup10\n        /* \"contracts/ZecreyVerifier.sol\":12879:12880  6 */\n      0x06\n        /* \"contracts/ZecreyVerifier.sol\":12866:12880  num_proofs * 6 */\n      mul\n        /* \"contracts/ZecreyVerifier.sol\":12883:12884  8 */\n      0x08\n        /* \"contracts/ZecreyVerifier.sol\":12866:12884  num_proofs * 6 + 8 */\n      add\n        /* \"contracts/ZecreyVerifier.sol\":12859:12885  inputs[num_proofs * 6 + 8] */\n      dup2\n      mload\n      dup2\n      lt\n      tag_144\n      jumpi\n      invalid\n    tag_144:\n      0x20\n      swap1\n      dup2\n      mul\n      swap2\n      swap1\n      swap2\n      add\n      add\n        /* \"contracts/ZecreyVerifier.sol\":12859:12896  inputs[num_proofs * 6 + 8] = in_vk[6] */\n      mstore\n        /* \"contracts/ZecreyVerifier.sol\":12936:12941  in_vk */\n      dup6\n        /* \"contracts/ZecreyVerifier.sol\":12942:12943  7 */\n      0x07\n        /* \"contracts/ZecreyVerifier.sol\":12936:12944  in_vk[7] */\n      0x20\n      mul\n      add\n      mload\n        /* \"contracts/ZecreyVerifier.sol\":12907:12913  inputs */\n      dup2\n        /* \"contracts/ZecreyVerifier.sol\":12914:12924  num_proofs */\n      dup10\n        /* \"contracts/ZecreyVerifier.sol\":12927:12928  6 */\n      0x06\n        /* \"contracts/ZecreyVerifier.sol\":12914:12928  num_proofs * 6 */\n      mul\n        /* \"contracts/ZecreyVerifier.sol\":12931:12932  9 */\n      0x09\n        /* \"contracts/ZecreyVerifier.sol\":12914:12932  num_proofs * 6 + 9 */\n      add\n        /* \"contracts/ZecreyVerifier.sol\":12907:12933  inputs[num_proofs * 6 + 9] */\n      dup2\n      mload\n      dup2\n      lt\n      tag_146\n      jumpi\n      invalid\n    tag_146:\n      0x20\n      swap1\n      dup2\n      mul\n      swap2\n      swap1\n      swap2\n      add\n      add\n        /* \"contracts/ZecreyVerifier.sol\":12907:12944  inputs[num_proofs * 6 + 9] = in_vk[7] */\n      mstore\n        /* \"contracts/ZecreyVerifier.sol\":12985:12990  in_vk */\n      dup6\n        /* \"contracts/ZecreyVerifier.sol\":12991:12992  8 */\n      0x08\n        /* \"contracts/ZecreyVerifier.sol\":12985:12993  in_vk[8] */\n      0x20\n      mul\n      add\n      mload\n        /* \"contracts/ZecreyVerifier.sol\":12955:12961  inputs */\n      dup2\n        /* \"contracts/ZecreyVerifier.sol\":12962:12972  num_proofs */\n      dup10\n        /* \"contracts/ZecreyVerifier.sol\":12975:12976  6 */\n      0x06\n        /* \"contracts/ZecreyVerifier.sol\":12962:12976  num_proofs * 6 */\n      mul\n        /* \"contracts/ZecreyVerifier.sol\":12979:12981  10 */\n      0x0a\n        /* \"contracts/ZecreyVerifier.sol\":12962:12981  num_proofs * 6 + 10 */\n      add\n        /* \"contracts/ZecreyVerifier.sol\":12955:12982  inputs[num_proofs * 6 + 10] */\n      dup2\n      mload\n      dup2\n      lt\n      tag_148\n      jumpi\n      invalid\n    tag_148:\n      0x20\n      swap1\n      dup2\n      mul\n      swap2\n      swap1\n      swap2\n      add\n      add\n        /* \"contracts/ZecreyVerifier.sol\":12955:12993  inputs[num_proofs * 6 + 10] = in_vk[8] */\n      mstore\n        /* \"contracts/ZecreyVerifier.sol\":13034:13039  in_vk */\n      dup6\n        /* \"contracts/ZecreyVerifier.sol\":13040:13041  9 */\n      0x09\n        /* \"contracts/ZecreyVerifier.sol\":13034:13042  in_vk[9] */\n      0x20\n      mul\n      add\n      mload\n        /* \"contracts/ZecreyVerifier.sol\":13004:13010  inputs */\n      dup2\n        /* \"contracts/ZecreyVerifier.sol\":13011:13021  num_proofs */\n      dup10\n        /* \"contracts/ZecreyVerifier.sol\":13024:13025  6 */\n      0x06\n        /* \"contracts/ZecreyVerifier.sol\":13011:13025  num_proofs * 6 */\n      mul\n        /* \"contracts/ZecreyVerifier.sol\":13028:13030  11 */\n      0x0b\n        /* \"contracts/ZecreyVerifier.sol\":13011:13030  num_proofs * 6 + 11 */\n      add\n        /* \"contracts/ZecreyVerifier.sol\":13004:13031  inputs[num_proofs * 6 + 11] */\n      dup2\n      mload\n      dup2\n      lt\n      tag_150\n      jumpi\n      invalid\n    tag_150:\n      0x20\n      mul\n      0x20\n      add\n      add\n        /* \"contracts/ZecreyVerifier.sol\":13004:13042  inputs[num_proofs * 6 + 11] = in_vk[9] */\n      dup2\n      dup2\n      mstore\n      pop\n      pop\n        /* \"contracts/ZecreyVerifier.sol\":13138:13149  proofsAandC */\n      dup4\n        /* \"contracts/ZecreyVerifier.sol\":13150:13160  num_proofs */\n      dup9\n        /* \"contracts/ZecreyVerifier.sol\":13163:13164  2 */\n      0x02\n        /* \"contracts/ZecreyVerifier.sol\":13150:13164  num_proofs * 2 */\n      mul\n        /* \"contracts/ZecreyVerifier.sol\":13138:13165  proofsAandC[num_proofs * 2] */\n      dup2\n      mload\n      dup2\n      lt\n      tag_151\n      jumpi\n      invalid\n    tag_151:\n      0x20\n      mul\n      0x20\n      add\n      add\n      mload\n        /* \"contracts/ZecreyVerifier.sol\":13108:13114  inputs */\n      dup2\n        /* \"contracts/ZecreyVerifier.sol\":13115:13125  num_proofs */\n      dup10\n        /* \"contracts/ZecreyVerifier.sol\":13128:13129  6 */\n      0x06\n        /* \"contracts/ZecreyVerifier.sol\":13115:13129  num_proofs * 6 */\n      mul\n        /* \"contracts/ZecreyVerifier.sol\":13132:13134  12 */\n      0x0c\n        /* \"contracts/ZecreyVerifier.sol\":13115:13134  num_proofs * 6 + 12 */\n      add\n        /* \"contracts/ZecreyVerifier.sol\":13108:13135  inputs[num_proofs * 6 + 12] */\n      dup2\n      mload\n      dup2\n      lt\n      tag_152\n      jumpi\n      invalid\n    tag_152:\n      0x20\n      mul\n      0x20\n      add\n      add\n        /* \"contracts/ZecreyVerifier.sol\":13108:13165  inputs[num_proofs * 6 + 12] = proofsAandC[num_proofs * 2] */\n      dup2\n      dup2\n      mstore\n      pop\n      pop\n        /* \"contracts/ZecreyVerifier.sol\":13206:13246  NegateY(proofsAandC[num_proofs * 2 + 1]) */\n      tag_153\n        /* \"contracts/ZecreyVerifier.sol\":13214:13225  proofsAandC */\n      dup5\n        /* \"contracts/ZecreyVerifier.sol\":13226:13236  num_proofs */\n      dup10\n        /* \"contracts/ZecreyVerifier.sol\":13239:13240  2 */\n      0x02\n        /* \"contracts/ZecreyVerifier.sol\":13226:13240  num_proofs * 2 */\n      mul\n        /* \"contracts/ZecreyVerifier.sol\":13243:13244  1 */\n      0x01\n        /* \"contracts/ZecreyVerifier.sol\":13226:13244  num_proofs * 2 + 1 */\n      add\n        /* \"contracts/ZecreyVerifier.sol\":13214:13245  proofsAandC[num_proofs * 2 + 1] */\n      dup2\n      mload\n      dup2\n      lt\n      tag_84\n      jumpi\n      invalid\n        /* \"contracts/ZecreyVerifier.sol\":13206:13246  NegateY(proofsAandC[num_proofs * 2 + 1]) */\n    tag_153:\n        /* \"contracts/ZecreyVerifier.sol\":13176:13182  inputs */\n      dup2\n        /* \"contracts/ZecreyVerifier.sol\":13183:13193  num_proofs */\n      dup10\n        /* \"contracts/ZecreyVerifier.sol\":13196:13197  6 */\n      0x06\n        /* \"contracts/ZecreyVerifier.sol\":13183:13197  num_proofs * 6 */\n      mul\n        /* \"contracts/ZecreyVerifier.sol\":13200:13202  13 */\n      0x0d\n        /* \"contracts/ZecreyVerifier.sol\":13183:13202  num_proofs * 6 + 13 */\n      add\n        /* \"contracts/ZecreyVerifier.sol\":13176:13203  inputs[num_proofs * 6 + 13] */\n      dup2\n      mload\n      dup2\n      lt\n      tag_155\n      jumpi\n      invalid\n    tag_155:\n      0x20\n      swap1\n      dup2\n      mul\n      swap2\n      swap1\n      swap2\n      add\n      add\n        /* \"contracts/ZecreyVerifier.sol\":13176:13246  inputs[num_proofs * 6 + 13] = NegateY(proofsAandC[num_proofs * 2 + 1]) */\n      mstore\n        /* \"contracts/ZecreyVerifier.sol\":13287:13292  in_vk */\n      dup6\n        /* \"contracts/ZecreyVerifier.sol\":13293:13295  10 */\n      0x0a\n        /* \"contracts/ZecreyVerifier.sol\":13287:13296  in_vk[10] */\n      0x20\n      mul\n      add\n      mload\n        /* \"contracts/ZecreyVerifier.sol\":13257:13263  inputs */\n      dup2\n        /* \"contracts/ZecreyVerifier.sol\":13264:13274  num_proofs */\n      dup10\n        /* \"contracts/ZecreyVerifier.sol\":13277:13278  6 */\n      0x06\n        /* \"contracts/ZecreyVerifier.sol\":13264:13278  num_proofs * 6 */\n      mul\n        /* \"contracts/ZecreyVerifier.sol\":13281:13283  14 */\n      0x0e\n        /* \"contracts/ZecreyVerifier.sol\":13264:13283  num_proofs * 6 + 14 */\n      add\n        /* \"contracts/ZecreyVerifier.sol\":13257:13284  inputs[num_proofs * 6 + 14] */\n      dup2\n      mload\n      dup2\n      lt\n      tag_157\n      jumpi\n      invalid\n    tag_157:\n      0x20\n      swap1\n      dup2\n      mul\n      swap2\n      swap1\n      swap2\n      add\n      add\n        /* \"contracts/ZecreyVerifier.sol\":13257:13296  inputs[num_proofs * 6 + 14] = in_vk[10] */\n      mstore\n        /* \"contracts/ZecreyVerifier.sol\":13337:13342  in_vk */\n      dup6\n        /* \"contracts/ZecreyVerifier.sol\":13343:13345  11 */\n      0x0b\n        /* \"contracts/ZecreyVerifier.sol\":13337:13346  in_vk[11] */\n      0x20\n      mul\n      add\n      mload\n        /* \"contracts/ZecreyVerifier.sol\":13307:13313  inputs */\n      dup2\n        /* \"contracts/ZecreyVerifier.sol\":13314:13324  num_proofs */\n      dup10\n        /* \"contracts/ZecreyVerifier.sol\":13327:13328  6 */\n      0x06\n        /* \"contracts/ZecreyVerifier.sol\":13314:13328  num_proofs * 6 */\n      mul\n        /* \"contracts/ZecreyVerifier.sol\":13331:13333  15 */\n      0x0f\n        /* \"contracts/ZecreyVerifier.sol\":13314:13333  num_proofs * 6 + 15 */\n      add\n        /* \"contracts/ZecreyVerifier.sol\":13307:13334  inputs[num_proofs * 6 + 15] */\n      dup2\n      mload\n      dup2\n      lt\n      tag_159\n      jumpi\n      invalid\n    tag_159:\n      0x20\n      swap1\n      dup2\n      mul\n      swap2\n      swap1\n      swap2\n      add\n      add\n        /* \"contracts/ZecreyVerifier.sol\":13307:13346  inputs[num_proofs * 6 + 15] = in_vk[11] */\n      mstore\n        /* \"contracts/ZecreyVerifier.sol\":13387:13392  in_vk */\n      dup6\n        /* \"contracts/ZecreyVerifier.sol\":13393:13395  12 */\n      0x0c\n        /* \"contracts/ZecreyVerifier.sol\":13387:13396  in_vk[12] */\n      0x20\n      mul\n      add\n      mload\n        /* \"contracts/ZecreyVerifier.sol\":13357:13363  inputs */\n      dup2\n        /* \"contracts/ZecreyVerifier.sol\":13364:13374  num_proofs */\n      dup10\n        /* \"contracts/ZecreyVerifier.sol\":13377:13378  6 */\n      0x06\n        /* \"contracts/ZecreyVerifier.sol\":13364:13378  num_proofs * 6 */\n      mul\n        /* \"contracts/ZecreyVerifier.sol\":13381:13383  16 */\n      0x10\n        /* \"contracts/ZecreyVerifier.sol\":13364:13383  num_proofs * 6 + 16 */\n      add\n        /* \"contracts/ZecreyVerifier.sol\":13357:13384  inputs[num_proofs * 6 + 16] */\n      dup2\n      mload\n      dup2\n      lt\n      tag_161\n      jumpi\n      invalid\n    tag_161:\n      0x20\n      swap1\n      dup2\n      mul\n      swap2\n      swap1\n      swap2\n      add\n      add\n        /* \"contracts/ZecreyVerifier.sol\":13357:13396  inputs[num_proofs * 6 + 16] = in_vk[12] */\n      mstore\n        /* \"contracts/ZecreyVerifier.sol\":13437:13442  in_vk */\n      dup6\n        /* \"contracts/ZecreyVerifier.sol\":13443:13445  13 */\n      0x0d\n        /* \"contracts/ZecreyVerifier.sol\":13437:13446  in_vk[13] */\n      0x20\n      mul\n      add\n      mload\n        /* \"contracts/ZecreyVerifier.sol\":13407:13413  inputs */\n      dup2\n        /* \"contracts/ZecreyVerifier.sol\":13414:13424  num_proofs */\n      dup10\n        /* \"contracts/ZecreyVerifier.sol\":13427:13428  6 */\n      0x06\n        /* \"contracts/ZecreyVerifier.sol\":13414:13428  num_proofs * 6 */\n      mul\n        /* \"contracts/ZecreyVerifier.sol\":13431:13433  17 */\n      0x11\n        /* \"contracts/ZecreyVerifier.sol\":13414:13433  num_proofs * 6 + 17 */\n      add\n        /* \"contracts/ZecreyVerifier.sol\":13407:13434  inputs[num_proofs * 6 + 17] */\n      dup2\n      mload\n      dup2\n      lt\n      tag_163\n      jumpi\n      invalid\n    tag_163:\n      0x20\n      mul\n      0x20\n      add\n      add\n        /* \"contracts/ZecreyVerifier.sol\":13407:13446  inputs[num_proofs * 6 + 17] = in_vk[13] */\n      dup2\n      dup2\n      mstore\n      pop\n      pop\n        /* \"contracts/ZecreyVerifier.sol\":13459:13479  uint256 inputsLength */\n      0x00\n        /* \"contracts/ZecreyVerifier.sol\":13482:13488  inputs */\n      dup2\n        /* \"contracts/ZecreyVerifier.sol\":13482:13495  inputs.length */\n      mload\n        /* \"contracts/ZecreyVerifier.sol\":13498:13500  32 */\n      0x20\n        /* \"contracts/ZecreyVerifier.sol\":13482:13500  inputs.length * 32 */\n      mul\n        /* \"contracts/ZecreyVerifier.sol\":13459:13500  uint256 inputsLength = inputs.length * 32 */\n      swap1\n      pop\n        /* \"contracts/ZecreyVerifier.sol\":13511:13529  uint[1] memory out */\n      tag_164\n      tag_90\n      jump\t// in\n    tag_164:\n        /* \"contracts/ZecreyVerifier.sol\":13563:13566  192 */\n      0xc0\n        /* \"contracts/ZecreyVerifier.sol\":13548:13560  inputsLength */\n      dup3\n        /* \"contracts/ZecreyVerifier.sol\":13548:13566  inputsLength % 192 */\n      mod\n        /* \"contracts/ZecreyVerifier.sol\":13548:13571  inputsLength % 192 == 0 */\n      iszero\n        /* \"contracts/ZecreyVerifier.sol\":13540:13621  require(inputsLength % 192 == 0, \"Inputs length should be multiple of 192 bytes\") */\n      tag_166\n      jumpi\n      mload(0x40)\n      shl(0xe5, 0x461bcd)\n      dup2\n      mstore\n      0x04\n      add\n      dup1\n      dup1\n      0x20\n      add\n      dup3\n      dup2\n      sub\n      dup3\n      mstore\n      0x2d\n      dup2\n      mstore\n      0x20\n      add\n      dup1\n      data_81d44f1b61032910da4ec0faa056d03a9d9cb7ced9ae32c6a17282c2614499d8\n      0x2d\n      swap2\n      codecopy\n      0x40\n      add\n      swap2\n      pop\n      pop\n      mload(0x40)\n      dup1\n      swap2\n      sub\n      swap1\n      revert\n    tag_166:\n        /* \"contracts/ZecreyVerifier.sol\":13764:13768  0x20 */\n      0x20\n        /* \"contracts/ZecreyVerifier.sol\":13759:13762  out */\n      dup2\n        /* \"contracts/ZecreyVerifier.sol\":13745:13757  inputsLength */\n      dup4\n        /* \"contracts/ZecreyVerifier.sol\":13738:13742  0x20 */\n      0x20\n        /* \"contracts/ZecreyVerifier.sol\":13730:13736  inputs */\n      dup7\n        /* \"contracts/ZecreyVerifier.sol\":13726:13743  add(inputs, 0x20) */\n      add\n        /* \"contracts/ZecreyVerifier.sol\":13723:13724  8 */\n      0x08\n        /* \"contracts/ZecreyVerifier.sol\":13716:13720  2000 */\n      0x07d0\n        /* \"contracts/ZecreyVerifier.sol\":13709:13714  gas() */\n      gas\n        /* \"contracts/ZecreyVerifier.sol\":13705:13721  sub(gas(), 2000) */\n      sub\n        /* \"contracts/ZecreyVerifier.sol\":13694:13769  staticcall(sub(gas(), 2000), 8, add(inputs, 0x20), inputsLength, out, 0x20) */\n      staticcall\n        /* \"contracts/ZecreyVerifier.sol\":13683:13769  success := staticcall(sub(gas(), 2000), 8, add(inputs, 0x20), inputsLength, out, 0x20) */\n      swap9\n      pop\n        /* \"contracts/ZecreyVerifier.sol\":13798:13805  success */\n      dup9\n        /* \"contracts/ZecreyVerifier.sol\":13790:13843  require(success, \"Failed to call pairings functions\") */\n      tag_167\n      jumpi\n      mload(0x40)\n      shl(0xe5, 0x461bcd)\n      dup2\n      mstore\n      0x04\n      add\n      dup1\n      dup1\n      0x20\n      add\n      dup3\n      dup2\n      sub\n      dup3\n      mstore\n      0x21\n      dup2\n      mstore\n      0x20\n      add\n      dup1\n      data_03f275ba3992ec27b95f6f07ec61d61b3f4b96d1d768eccfd46fa5f9bc14cf5d\n      0x21\n      swap2\n      codecopy\n      0x40\n      add\n      swap2\n      pop\n      pop\n      mload(0x40)\n      dup1\n      swap2\n      sub\n      swap1\n      revert\n    tag_167:\n        /* \"contracts/ZecreyVerifier.sol\":13861:13867  out[0] */\n      mload\n        /* \"contracts/ZecreyVerifier.sol\":13871:13872  1 */\n      0x01\n        /* \"contracts/ZecreyVerifier.sol\":13861:13872  out[0] == 1 */\n      eq\n      swap8\n      pop\n      pop\n      pop\n      pop\n      pop\n      pop\n      pop\n      pop\n        /* \"contracts/ZecreyVerifier.sol\":10218:13880  function verifyBatchProofs(\r... */\n    tag_93:\n      swap4\n      swap3\n      pop\n      pop\n      pop\n      jump\t// out\n        /* \"contracts/ZecreyVerifier.sol\":204:370  function ScalarField()\r... */\n    tag_32:\n        /* \"contracts/ZecreyVerifier.sol\":285:362  21888242871839275222246405745257275088548364400416034343698204186575808495617 */\n      0x30644e72e131a029b85045b68181585d2833e84879b9709143e1f593f0000001\n        /* \"contracts/ZecreyVerifier.sol\":204:370  function ScalarField()\r... */\n      swap1\n      jump\t// out\n        /* \"contracts/ZecreyVerifier.sol\":6663:8100  function verifyingKey() internal pure returns (uint256[14] memory vk){\r... */\n    tag_36:\n        /* \"contracts/ZecreyVerifier.sol\":6710:6731  uint256[14] memory vk */\n      tag_170\n      tag_171\n      jump\t// in\n    tag_170:\n        /* \"contracts/ZecreyVerifier.sol\":6751:6827  6917107255636887093303650743332146791176358466666868436381366966405479399724 */\n      0x0f4af1a7c696323acd6cfec8d893dfec54905c08609defe43e9c996d9f6e012c\n        /* \"contracts/ZecreyVerifier.sol\":6743:6827  vk[0] = 6917107255636887093303650743332146791176358466666868436381366966405479399724 */\n      dup2\n      mstore\n        /* \"contracts/ZecreyVerifier.sol\":6846:6923  20904040597997815600838019231383671836816128317479935219584291196435104536135 */\n      0x2e3744879a66c454913ea7289f9d007bfd04a993c8b503a0215bfea718441647\n        /* \"contracts/ZecreyVerifier.sol\":6743:6748  vk[0] */\n      0x20\n        /* \"contracts/ZecreyVerifier.sol\":6838:6843  vk[1] */\n      dup3\n      add\n        /* \"contracts/ZecreyVerifier.sol\":6838:6923  vk[1] = 20904040597997815600838019231383671836816128317479935219584291196435104536135 */\n      mstore\n        /* \"contracts/ZecreyVerifier.sol\":6942:7018  3595193939801621979181409194895218569976703410140669943275464157952029654468 */\n      0x07f2cec2be880856570ff0b07e5ac77570a6614de2d578b606bd4f7bb7327dc4\n        /* \"contracts/ZecreyVerifier.sol\":6934:6939  vk[2] */\n      0x40\n      dup3\n      add\n        /* \"contracts/ZecreyVerifier.sol\":6934:7018  vk[2] = 3595193939801621979181409194895218569976703410140669943275464157952029654468 */\n      mstore\n        /* \"contracts/ZecreyVerifier.sol\":7037:7112  749111840942676790018555442359680630148730557393537450921099943673361287016 */\n      0x01a7fb767ad27051cb79101948fa0ddc4587d559bf285204a720a5cc79434768\n        /* \"contracts/ZecreyVerifier.sol\":7029:7034  vk[3] */\n      0x60\n      dup3\n      add\n        /* \"contracts/ZecreyVerifier.sol\":7029:7112  vk[3] = 749111840942676790018555442359680630148730557393537450921099943673361287016 */\n      mstore\n        /* \"contracts/ZecreyVerifier.sol\":7131:7208  15666866707153578320911969602576938545840352947175620741824104599976564818546 */\n      0x22a321df8590c78ab3b80a7177312304b32142116d5b314c2f33688f51a90272\n        /* \"contracts/ZecreyVerifier.sol\":7123:7128  vk[4] */\n      0x80\n      dup3\n      add\n        /* \"contracts/ZecreyVerifier.sol\":7123:7208  vk[4] = 15666866707153578320911969602576938545840352947175620741824104599976564818546 */\n      mstore\n        /* \"contracts/ZecreyVerifier.sol\":7227:7304  12257813456148603719459915862268328060404428499497519976749213054522184497036 */\n      0x1b19ad32a7bec07e4ecd8a5dc4b2f0a331b50ec900b39fa9f9e54589992cf78c\n        /* \"contracts/ZecreyVerifier.sol\":7219:7224  vk[5] */\n      0xa0\n      dup3\n      add\n        /* \"contracts/ZecreyVerifier.sol\":7219:7304  vk[5] = 12257813456148603719459915862268328060404428499497519976749213054522184497036 */\n      mstore\n        /* \"contracts/ZecreyVerifier.sol\":7323:7400  13637511007925080945527625348528815437284464573788784244882028489838590897158 */\n      0x1e268ec51b4c2fa16f4480efd34924de4ef57518b34a3f284b9c23d2cbf32c06\n        /* \"contracts/ZecreyVerifier.sol\":7315:7320  vk[6] */\n      0xc0\n      dup3\n      add\n        /* \"contracts/ZecreyVerifier.sol\":7315:7400  vk[6] = 13637511007925080945527625348528815437284464573788784244882028489838590897158 */\n      mstore\n        /* \"contracts/ZecreyVerifier.sol\":7419:7496  10382078236441334532246329057152851955130673167037735239612372429724252736394 */\n      0x16f40c4c83e8385935203f81a00635fa0103593354dfecdee792f5dbf3518b8a\n        /* \"contracts/ZecreyVerifier.sol\":7411:7416  vk[7] */\n      0xe0\n      dup3\n      add\n        /* \"contracts/ZecreyVerifier.sol\":7411:7496  vk[7] = 10382078236441334532246329057152851955130673167037735239612372429724252736394 */\n      mstore\n        /* \"contracts/ZecreyVerifier.sol\":7515:7592  16582687309135540005923787467544673303730933677099873905016420621653299973551 */\n      0x24a977e99ea5d513f0d1b3320c7006f9a29c7577255e83bdea21d3d9c0a84daf\n        /* \"contracts/ZecreyVerifier.sol\":7507:7512  vk[8] */\n      0x0100\n      dup3\n      add\n        /* \"contracts/ZecreyVerifier.sol\":7507:7592  vk[8] = 16582687309135540005923787467544673303730933677099873905016420621653299973551 */\n      mstore\n        /* \"contracts/ZecreyVerifier.sol\":7611:7688  19071976777222827149475258508451543466817561331033344819506720702397039380377 */\n      0x2a2a5b37adad4f5ccbe97ad51682b12e9dd1d0dd031335cab8911b2811d60799\n        /* \"contracts/ZecreyVerifier.sol\":7603:7608  vk[9] */\n      0x0120\n      dup3\n      add\n        /* \"contracts/ZecreyVerifier.sol\":7603:7688  vk[9] = 19071976777222827149475258508451543466817561331033344819506720702397039380377 */\n      mstore\n        /* \"contracts/ZecreyVerifier.sol\":7708:7784  1495032634579254590965565922503060372609656216927149113237871145373517831203 */\n      0x034e28926fc4e179655c1857c18f88a5be2ffed63f060a1ab74857f411755c23\n        /* \"contracts/ZecreyVerifier.sol\":7699:7705  vk[10] */\n      0x0140\n      dup3\n      add\n        /* \"contracts/ZecreyVerifier.sol\":7699:7784  vk[10] = 1495032634579254590965565922503060372609656216927149113237871145373517831203 */\n      mstore\n        /* \"contracts/ZecreyVerifier.sol\":7804:7880  9961003447625730113840435338791855346278817508029824742102476714176923243751 */\n      0x1605ba688cad5256cbbf33bb812fe5861eaeea375b3e410832e664021c7f14e7\n        /* \"contracts/ZecreyVerifier.sol\":7795:7801  vk[11] */\n      0x0160\n      dup3\n      add\n        /* \"contracts/ZecreyVerifier.sol\":7795:7880  vk[11] = 9961003447625730113840435338791855346278817508029824742102476714176923243751 */\n      mstore\n        /* \"contracts/ZecreyVerifier.sol\":7900:7976  3583158216209686255321780877963569509158240535181127953422754763950006858533 */\n      0x07ebfee4f1cb7f5bca0dc1b7baa0dc164bf4d9ef678ecd7af4d536cea0e5f325\n        /* \"contracts/ZecreyVerifier.sol\":7891:7897  vk[12] */\n      0x0180\n      dup3\n      add\n        /* \"contracts/ZecreyVerifier.sol\":7891:7976  vk[12] = 3583158216209686255321780877963569509158240535181127953422754763950006858533 */\n      mstore\n        /* \"contracts/ZecreyVerifier.sol\":7996:8072  5125470873490863767642050367106777663881520210602196197915536678852020679085 */\n      0x0b54e9e8e426b1a0de04c629964aaa69e59665a72c4da2fd587ca3277cb431ad\n        /* \"contracts/ZecreyVerifier.sol\":7987:7993  vk[13] */\n      0x01a0\n      dup3\n      add\n        /* \"contracts/ZecreyVerifier.sol\":7987:8072  vk[13] = 5125470873490863767642050367106777663881520210602196197915536678852020679085 */\n      mstore\n        /* \"contracts/ZecreyVerifier.sol\":6743:6745  vk */\n      swap1\n        /* \"contracts/ZecreyVerifier.sol\":6663:8100  function verifyingKey() internal pure returns (uint256[14] memory vk){\r... */\n      jump\t// out\n        /* \"contracts/ZecreyVerifier.sol\":8108:8901  function ic() internal pure returns (uint256[] memory gammaABC){\r... */\n    tag_38:\n        /* \"contracts/ZecreyVerifier.sol\":8193:8209  new uint256[](8) */\n      0x40\n      dup1\n      mload\n        /* \"contracts/ZecreyVerifier.sol\":8207:8208  8 */\n      0x08\n        /* \"contracts/ZecreyVerifier.sol\":8193:8209  new uint256[](8) */\n      dup1\n      dup3\n      mstore\n      0x0120\n      dup3\n      add\n      swap1\n      swap3\n      mstore\n        /* \"contracts/ZecreyVerifier.sol\":8145:8170  uint256[] memory gammaABC */\n      0x60\n      swap2\n        /* \"contracts/ZecreyVerifier.sol\":8193:8209  new uint256[](8) */\n      0x20\n      dup3\n      add\n      0x0100\n      dup1\n      calldatasize\n      dup4\n      calldatacopy\n      add\n      swap1\n      pop\n      pop\n        /* \"contracts/ZecreyVerifier.sol\":8182:8209  gammaABC = new uint256[](8) */\n      swap1\n      pop\n        /* \"contracts/ZecreyVerifier.sol\":8234:8310  3089289579413595275726983039675188037123707151458270715386448624713502119614 */\n      0x06d479d71797726ba36a366ca17f26679619de916fca4c01c8f736e4996956be\n        /* \"contracts/ZecreyVerifier.sol\":8220:8228  gammaABC */\n      dup2\n        /* \"contracts/ZecreyVerifier.sol\":8229:8230  0 */\n      0x00\n        /* \"contracts/ZecreyVerifier.sol\":8220:8231  gammaABC[0] */\n      dup2\n      mload\n      dup2\n      lt\n      tag_190\n      jumpi\n      invalid\n    tag_190:\n      0x20\n      mul\n      0x20\n      add\n      add\n        /* \"contracts/ZecreyVerifier.sol\":8220:8310  gammaABC[0] = 3089289579413595275726983039675188037123707151458270715386448624713502119614 */\n      dup2\n      dup2\n      mstore\n      pop\n      pop\n        /* \"contracts/ZecreyVerifier.sol\":8335:8411  2657194133794213857961197825146138602096699944473054078389180994040239414593 */\n      0x05dfeb283f14178cecd2cac00b7d4eca893baec490107d07a786dc28b0a2dd41\n        /* \"contracts/ZecreyVerifier.sol\":8321:8329  gammaABC */\n      dup2\n        /* \"contracts/ZecreyVerifier.sol\":8330:8331  1 */\n      0x01\n        /* \"contracts/ZecreyVerifier.sol\":8321:8332  gammaABC[1] */\n      dup2\n      mload\n      dup2\n      lt\n      tag_191\n      jumpi\n      invalid\n    tag_191:\n      0x20\n      mul\n      0x20\n      add\n      add\n        /* \"contracts/ZecreyVerifier.sol\":8321:8411  gammaABC[1] = 2657194133794213857961197825146138602096699944473054078389180994040239414593 */\n      dup2\n      dup2\n      mstore\n      pop\n      pop\n        /* \"contracts/ZecreyVerifier.sol\":8436:8512  6979864205633513499655754384634754989949949759076930180567493316213969849314 */\n      0x0f6e76906ccc039d6b81518a6a73eadc525327e7f5e62ed719df754168990be2\n        /* \"contracts/ZecreyVerifier.sol\":8422:8430  gammaABC */\n      dup2\n        /* \"contracts/ZecreyVerifier.sol\":8431:8432  2 */\n      0x02\n        /* \"contracts/ZecreyVerifier.sol\":8422:8433  gammaABC[2] */\n      dup2\n      mload\n      dup2\n      lt\n      tag_192\n      jumpi\n      invalid\n    tag_192:\n      0x20\n      mul\n      0x20\n      add\n      add\n        /* \"contracts/ZecreyVerifier.sol\":8422:8512  gammaABC[2] = 6979864205633513499655754384634754989949949759076930180567493316213969849314 */\n      dup2\n      dup2\n      mstore\n      pop\n      pop\n        /* \"contracts/ZecreyVerifier.sol\":8537:8613  8354276898462258633581469586817181653888999038278026386674076502889886802609 */\n      0x12785a68902f36f49ba399b94d9c41933855a3754bf78f9e0c88b363448662b1\n        /* \"contracts/ZecreyVerifier.sol\":8523:8531  gammaABC */\n      dup2\n        /* \"contracts/ZecreyVerifier.sol\":8532:8533  3 */\n      0x03\n        /* \"contracts/ZecreyVerifier.sol\":8523:8534  gammaABC[3] */\n      dup2\n      mload\n      dup2\n      lt\n      tag_193\n      jumpi\n      invalid\n    tag_193:\n      0x20\n      mul\n      0x20\n      add\n      add\n        /* \"contracts/ZecreyVerifier.sol\":8523:8613  gammaABC[3] = 8354276898462258633581469586817181653888999038278026386674076502889886802609 */\n      dup2\n      dup2\n      mstore\n      pop\n      pop\n        /* \"contracts/ZecreyVerifier.sol\":8638:8714  9503579258295513177580157526050453489375406556130868591428373071402703630848 */\n      0x1502d5d26257bb9859272361e710b05dc7b7296673fb7e83d2a408d25491b200\n        /* \"contracts/ZecreyVerifier.sol\":8624:8632  gammaABC */\n      dup2\n        /* \"contracts/ZecreyVerifier.sol\":8633:8634  4 */\n      0x04\n        /* \"contracts/ZecreyVerifier.sol\":8624:8635  gammaABC[4] */\n      dup2\n      mload\n      dup2\n      lt\n      tag_194\n      jumpi\n      invalid\n    tag_194:\n      0x20\n      mul\n      0x20\n      add\n      add\n        /* \"contracts/ZecreyVerifier.sol\":8624:8714  gammaABC[4] = 9503579258295513177580157526050453489375406556130868591428373071402703630848 */\n      dup2\n      dup2\n      mstore\n      pop\n      pop\n        /* \"contracts/ZecreyVerifier.sol\":8739:8815  8794416498549286779812119085717315212769145851087209613701129872643850209634 */\n      0x1371769dae6705e1693eb61b017ec7217d2fdcad1f7b2329718e3d5abdaf8962\n        /* \"contracts/ZecreyVerifier.sol\":8725:8733  gammaABC */\n      dup2\n        /* \"contracts/ZecreyVerifier.sol\":8734:8735  5 */\n      0x05\n        /* \"contracts/ZecreyVerifier.sol\":8725:8736  gammaABC[5] */\n      dup2\n      mload\n      dup2\n      lt\n      tag_195\n      jumpi\n      invalid\n    tag_195:\n      0x20\n      mul\n      0x20\n      add\n      add\n        /* \"contracts/ZecreyVerifier.sol\":8725:8815  gammaABC[5] = 8794416498549286779812119085717315212769145851087209613701129872643850209634 */\n      dup2\n      dup2\n      mstore\n      pop\n      pop\n        /* \"contracts/ZecreyVerifier.sol\":8840:8841  0 */\n      0x00\n        /* \"contracts/ZecreyVerifier.sol\":8826:8834  gammaABC */\n      dup2\n        /* \"contracts/ZecreyVerifier.sol\":8835:8836  6 */\n      0x06\n        /* \"contracts/ZecreyVerifier.sol\":8826:8837  gammaABC[6] */\n      dup2\n      mload\n      dup2\n      lt\n      tag_196\n      jumpi\n      invalid\n    tag_196:\n      0x20\n      mul\n      0x20\n      add\n      add\n        /* \"contracts/ZecreyVerifier.sol\":8826:8841  gammaABC[6] = 0 */\n      dup2\n      dup2\n      mstore\n      pop\n      pop\n        /* \"contracts/ZecreyVerifier.sol\":8866:8867  0 */\n      0x00\n        /* \"contracts/ZecreyVerifier.sol\":8852:8860  gammaABC */\n      dup2\n        /* \"contracts/ZecreyVerifier.sol\":8861:8862  7 */\n      0x07\n        /* \"contracts/ZecreyVerifier.sol\":8852:8863  gammaABC[7] */\n      dup2\n      mload\n      dup2\n      lt\n      tag_197\n      jumpi\n      invalid\n    tag_197:\n      0x20\n      mul\n      0x20\n      add\n      add\n        /* \"contracts/ZecreyVerifier.sol\":8852:8867  gammaABC[7] = 0 */\n      dup2\n      dup2\n      mstore\n      pop\n      pop\n        /* \"contracts/ZecreyVerifier.sol\":8108:8901  function ic() internal pure returns (uint256[] memory gammaABC){\r... */\n      swap1\n      jump\t// out\n        /* \"contracts/ZecreyVerifier.sol\":378:582  function NegateY(uint256 Y)\r... */\n    tag_70:\n        /* \"contracts/ZecreyVerifier.sol\":468:545  21888242871839275222246405745257275088696311157297823662689037894645226208583 */\n      0x30644e72e131a029b85045b68181585d97816a916871ca8d3c208c16d87cfd47\n        /* \"contracts/ZecreyVerifier.sol\":568:573  Y % q */\n      swap1\n      dup2\n      swap1\n      mod\n        /* \"contracts/ZecreyVerifier.sol\":563:574  q - (Y % q) */\n      swap1\n      sub\n      swap1\n        /* \"contracts/ZecreyVerifier.sol\":378:582  function NegateY(uint256 Y)\r... */\n      jump\t// out\n        /* \"contracts/ZecreyVerifier.sol\":590:4531  function accumulate(\r... */\n    tag_105:\n        /* \"contracts/ZecreyVerifier.sol\":807:835  uint256[] memory proofsAandC */\n      0x60\n        /* \"contracts/ZecreyVerifier.sol\":846:880  uint256[] memory inputAccumulators */\n      dup1\n        /* \"contracts/ZecreyVerifier.sol\":899:908  uint256 q */\n      0x00\n        /* \"contracts/ZecreyVerifier.sol\":911:988  21888242871839275222246405745257275088548364400416034343698204186575808495617 */\n      0x30644e72e131a029b85045b68181585d2833e84879b9709143e1f593f0000001\n        /* \"contracts/ZecreyVerifier.sol\":899:988  uint256 q = 21888242871839275222246405745257275088548364400416034343698204186575808495617 */\n      swap1\n      pop\n        /* \"contracts/ZecreyVerifier.sol\":999:1022  uint256 numPublicInputs */\n      0x00\n        /* \"contracts/ZecreyVerifier.sol\":1047:1057  num_proofs */\n      dup5\n        /* \"contracts/ZecreyVerifier.sol\":1025:1037  proof_inputs */\n      dup7\n        /* \"contracts/ZecreyVerifier.sol\":1025:1044  proof_inputs.length */\n      mload\n        /* \"contracts/ZecreyVerifier.sol\":1025:1057  proof_inputs.length / num_proofs */\n      dup2\n      tag_201\n      jumpi\n      invalid\n    tag_201:\n      div\n        /* \"contracts/ZecreyVerifier.sol\":999:1057  uint256 numPublicInputs = proof_inputs.length / num_proofs */\n      swap1\n      pop\n        /* \"contracts/ZecreyVerifier.sol\":1068:1092  uint256[] memory entropy */\n      0x00\n        /* \"contracts/ZecreyVerifier.sol\":1109:1119  num_proofs */\n      dup6\n        /* \"contracts/ZecreyVerifier.sol\":1095:1120  new uint256[](num_proofs) */\n      0xffffffffffffffff\n      dup2\n      gt\n      dup1\n      iszero\n      tag_202\n      jumpi\n      0x00\n      dup1\n      revert\n    tag_202:\n      pop\n      mload(0x40)\n      swap1\n      dup1\n      dup3\n      mstore\n      dup1\n      0x20\n      mul\n      0x20\n      add\n      dup3\n      add\n      0x40\n      mstore\n      dup1\n      iszero\n      tag_203\n      jumpi\n      dup2\n      0x20\n      add\n      0x20\n      dup3\n      mul\n      dup1\n      calldatasize\n      dup4\n      calldatacopy\n      add\n      swap1\n      pop\n    tag_203:\n      pop\n        /* \"contracts/ZecreyVerifier.sol\":1068:1120  uint256[] memory entropy = new uint256[](num_proofs) */\n      swap1\n      pop\n        /* \"contracts/ZecreyVerifier.sol\":1165:1180  numPublicInputs */\n      dup2\n        /* \"contracts/ZecreyVerifier.sol\":1183:1184  1 */\n      0x01\n        /* \"contracts/ZecreyVerifier.sol\":1165:1184  numPublicInputs + 1 */\n      add\n        /* \"contracts/ZecreyVerifier.sol\":1151:1185  new uint256[](numPublicInputs + 1) */\n      0xffffffffffffffff\n      dup2\n      gt\n      dup1\n      iszero\n      tag_204\n      jumpi\n      0x00\n      dup1\n      revert\n    tag_204:\n      pop\n      mload(0x40)\n      swap1\n      dup1\n      dup3\n      mstore\n      dup1\n      0x20\n      mul\n      0x20\n      add\n      dup3\n      add\n      0x40\n      mstore\n      dup1\n      iszero\n      tag_205\n      jumpi\n      dup2\n      0x20\n      add\n      0x20\n      dup3\n      mul\n      dup1\n      calldatasize\n      dup4\n      calldatacopy\n      add\n      swap1\n      pop\n    tag_205:\n      pop\n        /* \"contracts/ZecreyVerifier.sol\":1131:1185  inputAccumulators = new uint256[](numPublicInputs + 1) */\n      swap4\n      pop\n        /* \"contracts/ZecreyVerifier.sol\":1203:1222  uint256 proofNumber */\n      0x00\n        /* \"contracts/ZecreyVerifier.sol\":1198:2261  for (uint256 proofNumber = 0; proofNumber < num_proofs; proofNumber++) {\r... */\n    tag_206:\n        /* \"contracts/ZecreyVerifier.sol\":1242:1252  num_proofs */\n      dup7\n        /* \"contracts/ZecreyVerifier.sol\":1228:1239  proofNumber */\n      dup2\n        /* \"contracts/ZecreyVerifier.sol\":1228:1252  proofNumber < num_proofs */\n      lt\n        /* \"contracts/ZecreyVerifier.sol\":1198:2261  for (uint256 proofNumber = 0; proofNumber < num_proofs; proofNumber++) {\r... */\n      iszero\n      tag_207\n      jumpi\n        /* \"contracts/ZecreyVerifier.sol\":1288:1304  proofNumber == 0 */\n      dup1\n        /* \"contracts/ZecreyVerifier.sol\":1284:1509  if (proofNumber == 0) {\r... */\n      tag_209\n      jumpi\n        /* \"contracts/ZecreyVerifier.sol\":1348:1349  1 */\n      0x01\n        /* \"contracts/ZecreyVerifier.sol\":1325:1332  entropy */\n      dup3\n        /* \"contracts/ZecreyVerifier.sol\":1333:1344  proofNumber */\n      dup3\n        /* \"contracts/ZecreyVerifier.sol\":1325:1345  entropy[proofNumber] */\n      dup2\n      mload\n      dup2\n      lt\n      tag_210\n      jumpi\n      invalid\n    tag_210:\n      0x20\n      mul\n      0x20\n      add\n      add\n        /* \"contracts/ZecreyVerifier.sol\":1325:1349  entropy[proofNumber] = 1 */\n      dup2\n      dup2\n      mstore\n      pop\n      pop\n        /* \"contracts/ZecreyVerifier.sol\":1284:1509  if (proofNumber == 0) {\r... */\n      jump(tag_211)\n    tag_209:\n        /* \"contracts/ZecreyVerifier.sol\":1441:1493  getProofEntropy(in_proof, proof_inputs, proofNumber) */\n      tag_212\n        /* \"contracts/ZecreyVerifier.sol\":1457:1465  in_proof */\n      dup10\n        /* \"contracts/ZecreyVerifier.sol\":1467:1479  proof_inputs */\n      dup10\n        /* \"contracts/ZecreyVerifier.sol\":1481:1492  proofNumber */\n      dup4\n        /* \"contracts/ZecreyVerifier.sol\":1441:1456  getProofEntropy */\n      tag_213\n        /* \"contracts/ZecreyVerifier.sol\":1441:1493  getProofEntropy(in_proof, proof_inputs, proofNumber) */\n      jump\t// in\n    tag_212:\n        /* \"contracts/ZecreyVerifier.sol\":1418:1425  entropy */\n      dup3\n        /* \"contracts/ZecreyVerifier.sol\":1426:1437  proofNumber */\n      dup3\n        /* \"contracts/ZecreyVerifier.sol\":1418:1438  entropy[proofNumber] */\n      dup2\n      mload\n      dup2\n      lt\n      tag_214\n      jumpi\n      invalid\n    tag_214:\n      0x20\n      mul\n      0x20\n      add\n      add\n        /* \"contracts/ZecreyVerifier.sol\":1418:1493  entropy[proofNumber] = getProofEntropy(in_proof, proof_inputs, proofNumber) */\n      dup2\n      dup2\n      mstore\n      pop\n      pop\n        /* \"contracts/ZecreyVerifier.sol\":1284:1509  if (proofNumber == 0) {\r... */\n    tag_211:\n        /* \"contracts/ZecreyVerifier.sol\":1531:1538  entropy */\n      dup2\n        /* \"contracts/ZecreyVerifier.sol\":1539:1550  proofNumber */\n      dup2\n        /* \"contracts/ZecreyVerifier.sol\":1531:1551  entropy[proofNumber] */\n      dup2\n      mload\n      dup2\n      lt\n      tag_215\n      jumpi\n      invalid\n    tag_215:\n      0x20\n      mul\n      0x20\n      add\n      add\n      mload\n        /* \"contracts/ZecreyVerifier.sol\":1555:1556  0 */\n      0x00\n        /* \"contracts/ZecreyVerifier.sol\":1531:1556  entropy[proofNumber] != 0 */\n      eq\n      iszero\n        /* \"contracts/ZecreyVerifier.sol\":1523:1587  require(entropy[proofNumber] != 0, \"Entropy should not be zero\") */\n      tag_216\n      jumpi\n      0x40\n      dup1\n      mload\n      shl(0xe5, 0x461bcd)\n      dup2\n      mstore\n      0x20\n      0x04\n      dup3\n      add\n      mstore\n      0x1a\n      0x24\n      dup3\n      add\n      mstore\n      0x456e74726f70792073686f756c64206e6f74206265207a65726f000000000000\n      0x44\n      dup3\n      add\n      mstore\n      swap1\n      mload\n      swap1\n      dup2\n      swap1\n      sub\n      0x64\n      add\n      swap1\n      revert\n    tag_216:\n        /* \"contracts/ZecreyVerifier.sol\":1761:1762  q */\n      dup4\n        /* \"contracts/ZecreyVerifier.sol\":1696:1763  addmod(inputAccumulators[0], mulmod(1, entropy[proofNumber], q), q) */\n      dup1\n      tag_217\n      jumpi\n      invalid\n    tag_217:\n        /* \"contracts/ZecreyVerifier.sol\":1757:1758  q */\n      dup5\n        /* \"contracts/ZecreyVerifier.sol\":1725:1759  mulmod(1, entropy[proofNumber], q) */\n      dup1\n      tag_218\n      jumpi\n      invalid\n    tag_218:\n        /* \"contracts/ZecreyVerifier.sol\":1735:1742  entropy */\n      dup4\n        /* \"contracts/ZecreyVerifier.sol\":1743:1754  proofNumber */\n      dup4\n        /* \"contracts/ZecreyVerifier.sol\":1735:1755  entropy[proofNumber] */\n      dup2\n      mload\n      dup2\n      lt\n      tag_219\n      jumpi\n      invalid\n    tag_219:\n      0x20\n      mul\n      0x20\n      add\n      add\n      mload\n        /* \"contracts/ZecreyVerifier.sol\":1732:1733  1 */\n      0x01\n        /* \"contracts/ZecreyVerifier.sol\":1725:1759  mulmod(1, entropy[proofNumber], q) */\n      mulmod\n        /* \"contracts/ZecreyVerifier.sol\":1703:1720  inputAccumulators */\n      dup7\n        /* \"contracts/ZecreyVerifier.sol\":1721:1722  0 */\n      0x00\n        /* \"contracts/ZecreyVerifier.sol\":1703:1723  inputAccumulators[0] */\n      dup2\n      mload\n      dup2\n      lt\n      tag_220\n      jumpi\n      invalid\n    tag_220:\n      0x20\n      mul\n      0x20\n      add\n      add\n      mload\n        /* \"contracts/ZecreyVerifier.sol\":1696:1763  addmod(inputAccumulators[0], mulmod(1, entropy[proofNumber], q), q) */\n      addmod\n        /* \"contracts/ZecreyVerifier.sol\":1673:1690  inputAccumulators */\n      dup6\n        /* \"contracts/ZecreyVerifier.sol\":1691:1692  0 */\n      0x00\n        /* \"contracts/ZecreyVerifier.sol\":1673:1693  inputAccumulators[0] */\n      dup2\n      mload\n      dup2\n      lt\n      tag_221\n      jumpi\n      invalid\n    tag_221:\n      0x20\n      mul\n      0x20\n      add\n      add\n        /* \"contracts/ZecreyVerifier.sol\":1673:1763  inputAccumulators[0] = addmod(inputAccumulators[0], mulmod(1, entropy[proofNumber], q), q) */\n      dup2\n      dup2\n      mstore\n      pop\n      pop\n        /* \"contracts/ZecreyVerifier.sol\":1783:1792  uint256 i */\n      0x00\n        /* \"contracts/ZecreyVerifier.sol\":1778:2072  for (uint256 i = 0; i < numPublicInputs; i++) {\r... */\n    tag_222:\n        /* \"contracts/ZecreyVerifier.sol\":1802:1817  numPublicInputs */\n      dup4\n        /* \"contracts/ZecreyVerifier.sol\":1798:1799  i */\n      dup2\n        /* \"contracts/ZecreyVerifier.sol\":1798:1817  i < numPublicInputs */\n      lt\n        /* \"contracts/ZecreyVerifier.sol\":1778:2072  for (uint256 i = 0; i < numPublicInputs; i++) {\r... */\n      iszero\n      tag_223\n      jumpi\n        /* \"contracts/ZecreyVerifier.sol\":2054:2055  q */\n      dup5\n        /* \"contracts/ZecreyVerifier.sol\":1939:2056  addmod(inputAccumulators[i + 1], mulmod(entropy[proofNumber], proof_inputs[proofNumber * numPublicInputs + i], q), q) */\n      dup1\n      tag_225\n      jumpi\n      invalid\n    tag_225:\n        /* \"contracts/ZecreyVerifier.sol\":2050:2051  q */\n      dup6\n        /* \"contracts/ZecreyVerifier.sol\":1972:2052  mulmod(entropy[proofNumber], proof_inputs[proofNumber * numPublicInputs + i], q) */\n      dup1\n      tag_226\n      jumpi\n      invalid\n    tag_226:\n        /* \"contracts/ZecreyVerifier.sol\":2001:2013  proof_inputs */\n      dup11\n        /* \"contracts/ZecreyVerifier.sol\":2046:2047  i */\n      dup4\n        /* \"contracts/ZecreyVerifier.sol\":2028:2043  numPublicInputs */\n      dup8\n        /* \"contracts/ZecreyVerifier.sol\":2014:2025  proofNumber */\n      dup7\n        /* \"contracts/ZecreyVerifier.sol\":2014:2043  proofNumber * numPublicInputs */\n      mul\n        /* \"contracts/ZecreyVerifier.sol\":2014:2047  proofNumber * numPublicInputs + i */\n      add\n        /* \"contracts/ZecreyVerifier.sol\":2001:2048  proof_inputs[proofNumber * numPublicInputs + i] */\n      dup2\n      mload\n      dup2\n      lt\n      tag_227\n      jumpi\n      invalid\n    tag_227:\n      0x20\n      mul\n      0x20\n      add\n      add\n      mload\n        /* \"contracts/ZecreyVerifier.sol\":1979:1986  entropy */\n      dup6\n        /* \"contracts/ZecreyVerifier.sol\":1987:1998  proofNumber */\n      dup6\n        /* \"contracts/ZecreyVerifier.sol\":1979:1999  entropy[proofNumber] */\n      dup2\n      mload\n      dup2\n      lt\n      tag_228\n      jumpi\n      invalid\n    tag_228:\n      0x20\n      mul\n      0x20\n      add\n      add\n      mload\n        /* \"contracts/ZecreyVerifier.sol\":1972:2052  mulmod(entropy[proofNumber], proof_inputs[proofNumber * numPublicInputs + i], q) */\n      mulmod\n        /* \"contracts/ZecreyVerifier.sol\":1946:1963  inputAccumulators */\n      dup8\n        /* \"contracts/ZecreyVerifier.sol\":1964:1965  i */\n      dup4\n        /* \"contracts/ZecreyVerifier.sol\":1968:1969  1 */\n      0x01\n        /* \"contracts/ZecreyVerifier.sol\":1964:1969  i + 1 */\n      add\n        /* \"contracts/ZecreyVerifier.sol\":1946:1970  inputAccumulators[i + 1] */\n      dup2\n      mload\n      dup2\n      lt\n      tag_229\n      jumpi\n      invalid\n    tag_229:\n      0x20\n      mul\n      0x20\n      add\n      add\n      mload\n        /* \"contracts/ZecreyVerifier.sol\":1939:2056  addmod(inputAccumulators[i + 1], mulmod(entropy[proofNumber], proof_inputs[proofNumber * numPublicInputs + i], q), q) */\n      addmod\n        /* \"contracts/ZecreyVerifier.sol\":1912:1929  inputAccumulators */\n      dup7\n        /* \"contracts/ZecreyVerifier.sol\":1930:1931  i */\n      dup3\n        /* \"contracts/ZecreyVerifier.sol\":1934:1935  1 */\n      0x01\n        /* \"contracts/ZecreyVerifier.sol\":1930:1935  i + 1 */\n      add\n        /* \"contracts/ZecreyVerifier.sol\":1912:1936  inputAccumulators[i + 1] */\n      dup2\n      mload\n      dup2\n      lt\n      tag_230\n      jumpi\n      invalid\n    tag_230:\n      0x20\n      swap1\n      dup2\n      mul\n      swap2\n      swap1\n      swap2\n      add\n      add\n        /* \"contracts/ZecreyVerifier.sol\":1912:2056  inputAccumulators[i + 1] = addmod(inputAccumulators[i + 1], mulmod(entropy[proofNumber], proof_inputs[proofNumber * numPublicInputs + i], q), q) */\n      mstore\n        /* \"contracts/ZecreyVerifier.sol\":1819:1822  i++ */\n      0x01\n      add\n        /* \"contracts/ZecreyVerifier.sol\":1778:2072  for (uint256 i = 0; i < numPublicInputs; i++) {\r... */\n      jump(tag_222)\n    tag_223:\n      pop\n        /* \"contracts/ZecreyVerifier.sol\":1254:1267  proofNumber++ */\n      0x01\n      add\n        /* \"contracts/ZecreyVerifier.sol\":1198:2261  for (uint256 proofNumber = 0; proofNumber < num_proofs; proofNumber++) {\r... */\n      jump(tag_206)\n    tag_207:\n      pop\n        /* \"contracts/ZecreyVerifier.sol\":2318:2345  uint256[3] memory mul_input */\n      tag_231\n      tag_43\n      jump\t// in\n    tag_231:\n        /* \"contracts/ZecreyVerifier.sol\":2356:2368  bool success */\n      0x00\n        /* \"contracts/ZecreyVerifier.sol\":2481:2491  num_proofs */\n      dup8\n        /* \"contracts/ZecreyVerifier.sol\":2494:2495  2 */\n      0x02\n        /* \"contracts/ZecreyVerifier.sol\":2481:2495  num_proofs * 2 */\n      mul\n        /* \"contracts/ZecreyVerifier.sol\":2498:2499  2 */\n      0x02\n        /* \"contracts/ZecreyVerifier.sol\":2481:2499  num_proofs * 2 + 2 */\n      add\n        /* \"contracts/ZecreyVerifier.sol\":2467:2500  new uint256[](num_proofs * 2 + 2) */\n      0xffffffffffffffff\n      dup2\n      gt\n      dup1\n      iszero\n      tag_232\n      jumpi\n      0x00\n      dup1\n      revert\n    tag_232:\n      pop\n      mload(0x40)\n      swap1\n      dup1\n      dup3\n      mstore\n      dup1\n      0x20\n      mul\n      0x20\n      add\n      dup3\n      add\n      0x40\n      mstore\n      dup1\n      iszero\n      tag_233\n      jumpi\n      dup2\n      0x20\n      add\n      0x20\n      dup3\n      mul\n      dup1\n      calldatasize\n      dup4\n      calldatacopy\n      add\n      swap1\n      pop\n    tag_233:\n      pop\n        /* \"contracts/ZecreyVerifier.sol\":2453:2500  proofsAandC = new uint256[](num_proofs * 2 + 2) */\n      swap7\n      pop\n        /* \"contracts/ZecreyVerifier.sol\":2530:2538  in_proof */\n      dup10\n        /* \"contracts/ZecreyVerifier.sol\":2539:2540  0 */\n      0x00\n        /* \"contracts/ZecreyVerifier.sol\":2530:2541  in_proof[0] */\n      dup2\n      mload\n      dup2\n      lt\n      tag_234\n      jumpi\n      invalid\n    tag_234:\n      0x20\n      mul\n      0x20\n      add\n      add\n      mload\n        /* \"contracts/ZecreyVerifier.sol\":2513:2524  proofsAandC */\n      dup8\n        /* \"contracts/ZecreyVerifier.sol\":2525:2526  0 */\n      0x00\n        /* \"contracts/ZecreyVerifier.sol\":2513:2527  proofsAandC[0] */\n      dup2\n      mload\n      dup2\n      lt\n      tag_235\n      jumpi\n      invalid\n    tag_235:\n      0x20\n      mul\n      0x20\n      add\n      add\n        /* \"contracts/ZecreyVerifier.sol\":2513:2541  proofsAandC[0] = in_proof[0] */\n      dup2\n      dup2\n      mstore\n      pop\n      pop\n        /* \"contracts/ZecreyVerifier.sol\":2569:2577  in_proof */\n      dup10\n        /* \"contracts/ZecreyVerifier.sol\":2578:2579  1 */\n      0x01\n        /* \"contracts/ZecreyVerifier.sol\":2569:2580  in_proof[1] */\n      dup2\n      mload\n      dup2\n      lt\n      tag_236\n      jumpi\n      invalid\n    tag_236:\n      0x20\n      mul\n      0x20\n      add\n      add\n      mload\n        /* \"contracts/ZecreyVerifier.sol\":2552:2563  proofsAandC */\n      dup8\n        /* \"contracts/ZecreyVerifier.sol\":2564:2565  1 */\n      0x01\n        /* \"contracts/ZecreyVerifier.sol\":2552:2566  proofsAandC[1] */\n      dup2\n      mload\n      dup2\n      lt\n      tag_237\n      jumpi\n      invalid\n    tag_237:\n      0x20\n      swap1\n      dup2\n      mul\n      swap2\n      swap1\n      swap2\n      add\n      add\n        /* \"contracts/ZecreyVerifier.sol\":2552:2580  proofsAandC[1] = in_proof[1] */\n      mstore\n        /* \"contracts/ZecreyVerifier.sol\":2620:2621  1 */\n      0x01\n        /* \"contracts/ZecreyVerifier.sol\":2593:3331  for (uint256 proofNumber = 1; proofNumber < num_proofs; proofNumber++) {\r... */\n    tag_238:\n        /* \"contracts/ZecreyVerifier.sol\":2637:2647  num_proofs */\n      dup9\n        /* \"contracts/ZecreyVerifier.sol\":2623:2634  proofNumber */\n      dup2\n        /* \"contracts/ZecreyVerifier.sol\":2623:2647  proofNumber < num_proofs */\n      lt\n        /* \"contracts/ZecreyVerifier.sol\":2593:3331  for (uint256 proofNumber = 1; proofNumber < num_proofs; proofNumber++) {\r... */\n      iszero\n      tag_239\n      jumpi\n        /* \"contracts/ZecreyVerifier.sol\":2694:2702  in_proof */\n      dup11\n        /* \"contracts/ZecreyVerifier.sol\":2703:2714  proofNumber */\n      dup2\n        /* \"contracts/ZecreyVerifier.sol\":2717:2718  8 */\n      0x08\n        /* \"contracts/ZecreyVerifier.sol\":2703:2718  proofNumber * 8 */\n      mul\n        /* \"contracts/ZecreyVerifier.sol\":2694:2719  in_proof[proofNumber * 8] */\n      dup2\n      mload\n      dup2\n      lt\n      tag_241\n      jumpi\n      invalid\n    tag_241:\n      0x20\n      mul\n      0x20\n      add\n      add\n      mload\n        /* \"contracts/ZecreyVerifier.sol\":2679:2688  mul_input */\n      dup4\n        /* \"contracts/ZecreyVerifier.sol\":2689:2690  0 */\n      0x00\n        /* \"contracts/ZecreyVerifier.sol\":2679:2691  mul_input[0] */\n      0x03\n      dup2\n      lt\n      tag_242\n      jumpi\n      invalid\n    tag_242:\n      0x20\n      mul\n      add\n        /* \"contracts/ZecreyVerifier.sol\":2679:2719  mul_input[0] = in_proof[proofNumber * 8] */\n      mstore\n        /* \"contracts/ZecreyVerifier.sol\":2749:2778  in_proof[proofNumber * 8 + 1] */\n      dup11\n      mload\n        /* \"contracts/ZecreyVerifier.sol\":2749:2757  in_proof */\n      dup12\n      swap1\n        /* \"contracts/ZecreyVerifier.sol\":2776:2777  1 */\n      0x01\n        /* \"contracts/ZecreyVerifier.sol\":2772:2773  8 */\n      0x08\n        /* \"contracts/ZecreyVerifier.sol\":2758:2773  proofNumber * 8 */\n      dup5\n      mul\n        /* \"contracts/ZecreyVerifier.sol\":2758:2777  proofNumber * 8 + 1 */\n      add\n      swap1\n        /* \"contracts/ZecreyVerifier.sol\":2749:2778  in_proof[proofNumber * 8 + 1] */\n      dup2\n      lt\n      tag_243\n      jumpi\n      invalid\n    tag_243:\n      0x20\n      mul\n      0x20\n      add\n      add\n      mload\n        /* \"contracts/ZecreyVerifier.sol\":2734:2743  mul_input */\n      dup4\n        /* \"contracts/ZecreyVerifier.sol\":2744:2745  1 */\n      0x01\n        /* \"contracts/ZecreyVerifier.sol\":2734:2746  mul_input[1] */\n      0x03\n      dup2\n      lt\n      tag_244\n      jumpi\n      invalid\n    tag_244:\n      0x20\n      mul\n      add\n        /* \"contracts/ZecreyVerifier.sol\":2734:2778  mul_input[1] = in_proof[proofNumber * 8 + 1] */\n      mstore\n        /* \"contracts/ZecreyVerifier.sol\":2808:2828  entropy[proofNumber] */\n      dup4\n      mload\n        /* \"contracts/ZecreyVerifier.sol\":2808:2815  entropy */\n      dup5\n      swap1\n        /* \"contracts/ZecreyVerifier.sol\":2816:2827  proofNumber */\n      dup3\n      swap1\n        /* \"contracts/ZecreyVerifier.sol\":2808:2828  entropy[proofNumber] */\n      dup2\n      lt\n      tag_245\n      jumpi\n      invalid\n    tag_245:\n      0x20\n      mul\n      0x20\n      add\n      add\n      mload\n        /* \"contracts/ZecreyVerifier.sol\":2793:2802  mul_input */\n      dup4\n        /* \"contracts/ZecreyVerifier.sol\":2803:2804  2 */\n      0x02\n        /* \"contracts/ZecreyVerifier.sol\":2793:2805  mul_input[2] */\n      0x03\n      dup2\n      lt\n      tag_246\n      jumpi\n      invalid\n    tag_246:\n      0x20\n      mul\n      add\n        /* \"contracts/ZecreyVerifier.sol\":2793:2828  mul_input[2] = entropy[proofNumber] */\n      mstore\n        /* \"contracts/ZecreyVerifier.sol\":3118:3122  0x40 */\n      0x40\n        /* \"contracts/ZecreyVerifier.sol\":3107:3116  mul_input */\n      dup4\n        /* \"contracts/ZecreyVerifier.sol\":3101:3105  0x60 */\n      0x60\n        /* \"contracts/ZecreyVerifier.sol\":3107:3116  mul_input */\n      dup2\n        /* \"contracts/ZecreyVerifier.sol\":3087:3088  7 */\n      0x07\n        /* \"contracts/ZecreyVerifier.sol\":3080:3084  2000 */\n      0x07d0\n        /* \"contracts/ZecreyVerifier.sol\":3073:3078  gas() */\n      gas\n        /* \"contracts/ZecreyVerifier.sol\":3069:3085  sub(gas(), 2000) */\n      sub\n        /* \"contracts/ZecreyVerifier.sol\":3058:3123  staticcall(sub(gas(), 2000), 7, mul_input, 0x60, mul_input, 0x40) */\n      staticcall\n        /* \"contracts/ZecreyVerifier.sol\":3047:3123  success := staticcall(sub(gas(), 2000), 7, mul_input, 0x60, mul_input, 0x40) */\n      swap2\n      pop\n        /* \"contracts/ZecreyVerifier.sol\":3183:3192  mul_input */\n      dup3\n        /* \"contracts/ZecreyVerifier.sol\":3193:3194  0 */\n      0x00\n        /* \"contracts/ZecreyVerifier.sol\":3183:3195  mul_input[0] */\n      0x20\n      mul\n      add\n      mload\n        /* \"contracts/ZecreyVerifier.sol\":3152:3163  proofsAandC */\n      dup9\n        /* \"contracts/ZecreyVerifier.sol\":3164:3175  proofNumber */\n      dup3\n        /* \"contracts/ZecreyVerifier.sol\":3178:3179  2 */\n      0x02\n        /* \"contracts/ZecreyVerifier.sol\":3164:3179  proofNumber * 2 */\n      mul\n        /* \"contracts/ZecreyVerifier.sol\":3152:3180  proofsAandC[proofNumber * 2] */\n      dup2\n      mload\n      dup2\n      lt\n      tag_248\n      jumpi\n      invalid\n    tag_248:\n      0x20\n      swap1\n      dup2\n      mul\n      swap2\n      swap1\n      swap2\n      add\n      add\n        /* \"contracts/ZecreyVerifier.sol\":3152:3195  proofsAandC[proofNumber * 2] = mul_input[0] */\n      mstore\n        /* \"contracts/ZecreyVerifier.sol\":3245:3254  mul_input */\n      dup3\n        /* \"contracts/ZecreyVerifier.sol\":3255:3256  1 */\n      0x01\n        /* \"contracts/ZecreyVerifier.sol\":3245:3257  mul_input[1] */\n      0x20\n      mul\n      add\n      mload\n        /* \"contracts/ZecreyVerifier.sol\":3210:3221  proofsAandC */\n      dup9\n        /* \"contracts/ZecreyVerifier.sol\":3222:3233  proofNumber */\n      dup3\n        /* \"contracts/ZecreyVerifier.sol\":3236:3237  2 */\n      0x02\n        /* \"contracts/ZecreyVerifier.sol\":3222:3237  proofNumber * 2 */\n      mul\n        /* \"contracts/ZecreyVerifier.sol\":3240:3241  1 */\n      0x01\n        /* \"contracts/ZecreyVerifier.sol\":3222:3241  proofNumber * 2 + 1 */\n      add\n        /* \"contracts/ZecreyVerifier.sol\":3210:3242  proofsAandC[proofNumber * 2 + 1] */\n      dup2\n      mload\n      dup2\n      lt\n      tag_250\n      jumpi\n      invalid\n    tag_250:\n      0x20\n      mul\n      0x20\n      add\n      add\n        /* \"contracts/ZecreyVerifier.sol\":3210:3257  proofsAandC[proofNumber * 2 + 1] = mul_input[1] */\n      dup2\n      dup2\n      mstore\n      pop\n      pop\n        /* \"contracts/ZecreyVerifier.sol\":3280:3287  success */\n      dup2\n        /* \"contracts/ZecreyVerifier.sol\":3272:3319  require(success, \"Failed to call a precompile\") */\n      tag_251\n      jumpi\n      0x40\n      dup1\n      mload\n      shl(0xe5, 0x461bcd)\n      dup2\n      mstore\n      0x20\n      0x04\n      dup3\n      add\n      mstore\n      0x1b\n      0x24\n      dup3\n      add\n      mstore\n      0x4661696c656420746f2063616c6c206120707265636f6d70696c650000000000\n      0x44\n      dup3\n      add\n      mstore\n      swap1\n      mload\n      swap1\n      dup2\n      swap1\n      sub\n      0x64\n      add\n      swap1\n      revert\n    tag_251:\n        /* \"contracts/ZecreyVerifier.sol\":2649:2662  proofNumber++ */\n      0x01\n      add\n        /* \"contracts/ZecreyVerifier.sol\":2593:3331  for (uint256 proofNumber = 1; proofNumber < num_proofs; proofNumber++) {\r... */\n      jump(tag_238)\n    tag_239:\n      pop\n        /* \"contracts/ZecreyVerifier.sol\":3432:3459  uint256[4] memory add_input */\n      tag_252\n      tag_45\n      jump\t// in\n    tag_252:\n        /* \"contracts/ZecreyVerifier.sol\":3487:3495  in_proof */\n      dup11\n        /* \"contracts/ZecreyVerifier.sol\":3496:3497  6 */\n      0x06\n        /* \"contracts/ZecreyVerifier.sol\":3487:3498  in_proof[6] */\n      dup2\n      mload\n      dup2\n      lt\n      tag_253\n      jumpi\n      invalid\n    tag_253:\n      0x20\n      mul\n      0x20\n      add\n      add\n      mload\n        /* \"contracts/ZecreyVerifier.sol\":3472:3481  add_input */\n      dup2\n        /* \"contracts/ZecreyVerifier.sol\":3482:3483  0 */\n      0x00\n        /* \"contracts/ZecreyVerifier.sol\":3472:3484  add_input[0] */\n      0x04\n      dup2\n      lt\n      tag_254\n      jumpi\n      invalid\n    tag_254:\n      0x20\n      mul\n      add\n        /* \"contracts/ZecreyVerifier.sol\":3472:3498  add_input[0] = in_proof[6] */\n      mstore\n        /* \"contracts/ZecreyVerifier.sol\":3524:3535  in_proof[7] */\n      dup11\n      mload\n        /* \"contracts/ZecreyVerifier.sol\":3524:3532  in_proof */\n      dup12\n      swap1\n        /* \"contracts/ZecreyVerifier.sol\":3533:3534  7 */\n      0x07\n      swap1\n        /* \"contracts/ZecreyVerifier.sol\":3524:3535  in_proof[7] */\n      dup2\n      lt\n      tag_255\n      jumpi\n      invalid\n    tag_255:\n      0x20\n      mul\n      0x20\n      add\n      add\n      mload\n        /* \"contracts/ZecreyVerifier.sol\":3509:3518  add_input */\n      dup2\n        /* \"contracts/ZecreyVerifier.sol\":3519:3520  1 */\n      0x01\n        /* \"contracts/ZecreyVerifier.sol\":3509:3521  add_input[1] */\n      0x04\n      dup2\n      lt\n      tag_256\n      jumpi\n      invalid\n    tag_256:\n      0x20\n      mul\n      add\n        /* \"contracts/ZecreyVerifier.sol\":3509:3535  add_input[1] = in_proof[7] */\n      mstore\n        /* \"contracts/ZecreyVerifier.sol\":3575:3576  1 */\n      0x01\n        /* \"contracts/ZecreyVerifier.sol\":3548:4412  for (uint256 proofNumber = 1; proofNumber < num_proofs; proofNumber++) {\r... */\n    tag_257:\n        /* \"contracts/ZecreyVerifier.sol\":3592:3602  num_proofs */\n      dup10\n        /* \"contracts/ZecreyVerifier.sol\":3578:3589  proofNumber */\n      dup2\n        /* \"contracts/ZecreyVerifier.sol\":3578:3602  proofNumber < num_proofs */\n      lt\n        /* \"contracts/ZecreyVerifier.sol\":3548:4412  for (uint256 proofNumber = 1; proofNumber < num_proofs; proofNumber++) {\r... */\n      iszero\n      tag_258\n      jumpi\n        /* \"contracts/ZecreyVerifier.sol\":3649:3657  in_proof */\n      dup12\n        /* \"contracts/ZecreyVerifier.sol\":3658:3669  proofNumber */\n      dup2\n        /* \"contracts/ZecreyVerifier.sol\":3672:3673  8 */\n      0x08\n        /* \"contracts/ZecreyVerifier.sol\":3658:3673  proofNumber * 8 */\n      mul\n        /* \"contracts/ZecreyVerifier.sol\":3676:3677  6 */\n      0x06\n        /* \"contracts/ZecreyVerifier.sol\":3658:3677  proofNumber * 8 + 6 */\n      add\n        /* \"contracts/ZecreyVerifier.sol\":3649:3678  in_proof[proofNumber * 8 + 6] */\n      dup2\n      mload\n      dup2\n      lt\n      tag_260\n      jumpi\n      invalid\n    tag_260:\n      0x20\n      mul\n      0x20\n      add\n      add\n      mload\n        /* \"contracts/ZecreyVerifier.sol\":3634:3643  mul_input */\n      dup5\n        /* \"contracts/ZecreyVerifier.sol\":3644:3645  0 */\n      0x00\n        /* \"contracts/ZecreyVerifier.sol\":3634:3646  mul_input[0] */\n      0x03\n      dup2\n      lt\n      tag_261\n      jumpi\n      invalid\n    tag_261:\n      0x20\n      mul\n      add\n        /* \"contracts/ZecreyVerifier.sol\":3634:3678  mul_input[0] = in_proof[proofNumber * 8 + 6] */\n      mstore\n        /* \"contracts/ZecreyVerifier.sol\":3708:3737  in_proof[proofNumber * 8 + 7] */\n      dup12\n      mload\n        /* \"contracts/ZecreyVerifier.sol\":3708:3716  in_proof */\n      dup13\n      swap1\n        /* \"contracts/ZecreyVerifier.sol\":3735:3736  7 */\n      0x07\n        /* \"contracts/ZecreyVerifier.sol\":3731:3732  8 */\n      0x08\n        /* \"contracts/ZecreyVerifier.sol\":3717:3732  proofNumber * 8 */\n      dup5\n      mul\n        /* \"contracts/ZecreyVerifier.sol\":3717:3736  proofNumber * 8 + 7 */\n      add\n      swap1\n        /* \"contracts/ZecreyVerifier.sol\":3708:3737  in_proof[proofNumber * 8 + 7] */\n      dup2\n      lt\n      tag_262\n      jumpi\n      invalid\n    tag_262:\n      0x20\n      mul\n      0x20\n      add\n      add\n      mload\n        /* \"contracts/ZecreyVerifier.sol\":3693:3702  mul_input */\n      dup5\n        /* \"contracts/ZecreyVerifier.sol\":3703:3704  1 */\n      0x01\n        /* \"contracts/ZecreyVerifier.sol\":3693:3705  mul_input[1] */\n      0x03\n      dup2\n      lt\n      tag_263\n      jumpi\n      invalid\n    tag_263:\n      0x20\n      mul\n      add\n        /* \"contracts/ZecreyVerifier.sol\":3693:3737  mul_input[1] = in_proof[proofNumber * 8 + 7] */\n      mstore\n        /* \"contracts/ZecreyVerifier.sol\":3767:3787  entropy[proofNumber] */\n      dup5\n      mload\n        /* \"contracts/ZecreyVerifier.sol\":3767:3774  entropy */\n      dup6\n      swap1\n        /* \"contracts/ZecreyVerifier.sol\":3775:3786  proofNumber */\n      dup3\n      swap1\n        /* \"contracts/ZecreyVerifier.sol\":3767:3787  entropy[proofNumber] */\n      dup2\n      lt\n      tag_264\n      jumpi\n      invalid\n    tag_264:\n      0x20\n      mul\n      0x20\n      add\n      add\n      mload\n        /* \"contracts/ZecreyVerifier.sol\":3752:3761  mul_input */\n      dup5\n        /* \"contracts/ZecreyVerifier.sol\":3762:3763  2 */\n      0x02\n        /* \"contracts/ZecreyVerifier.sol\":3752:3764  mul_input[2] */\n      0x03\n      dup2\n      lt\n      tag_265\n      jumpi\n      invalid\n    tag_265:\n      0x20\n      mul\n      add\n        /* \"contracts/ZecreyVerifier.sol\":3752:3787  mul_input[2] = entropy[proofNumber] */\n      mstore\n        /* \"contracts/ZecreyVerifier.sol\":3950:3954  0x40 */\n      0x40\n        /* \"contracts/ZecreyVerifier.sol\":3928:3948  add(add_input, 0x40) */\n      dup3\n      dup2\n      add\n        /* \"contracts/ZecreyVerifier.sol\":3922:3926  0x60 */\n      0x60\n        /* \"contracts/ZecreyVerifier.sol\":3911:3920  mul_input */\n      dup7\n        /* \"contracts/ZecreyVerifier.sol\":3908:3909  7 */\n      0x07\n        /* \"contracts/ZecreyVerifier.sol\":3901:3905  2000 */\n      0x07d0\n        /* \"contracts/ZecreyVerifier.sol\":3894:3899  gas() */\n      gas\n        /* \"contracts/ZecreyVerifier.sol\":3890:3906  sub(gas(), 2000) */\n      sub\n        /* \"contracts/ZecreyVerifier.sol\":3879:3955  staticcall(sub(gas(), 2000), 7, mul_input, 0x60, add(add_input, 0x40), 0x40) */\n      staticcall\n        /* \"contracts/ZecreyVerifier.sol\":3868:3955  success := staticcall(sub(gas(), 2000), 7, mul_input, 0x60, add(add_input, 0x40), 0x40) */\n      swap3\n      pop\n        /* \"contracts/ZecreyVerifier.sol\":3992:3999  success */\n      dup3\n        /* \"contracts/ZecreyVerifier.sol\":3984:4065  require(success, \"Failed to call a precompile for G1 multiplication for Proof C\") */\n      tag_266\n      jumpi\n      mload(0x40)\n      shl(0xe5, 0x461bcd)\n      dup2\n      mstore\n      0x04\n      add\n      dup1\n      dup1\n      0x20\n      add\n      dup3\n      dup2\n      sub\n      dup3\n      mstore\n      0x3d\n      dup2\n      mstore\n      0x20\n      add\n      dup1\n      data_1a7d0d7ebab0e5810b62a19a1665c40a8d681cb3f369c97295e93e1b7dcc90a3\n      0x3d\n      swap2\n      codecopy\n      0x40\n      add\n      swap2\n      pop\n      pop\n      mload(0x40)\n      dup1\n      swap2\n      sub\n      swap1\n      revert\n    tag_266:\n        /* \"contracts/ZecreyVerifier.sol\":4291:4295  0x40 */\n      0x40\n        /* \"contracts/ZecreyVerifier.sol\":4280:4289  add_input */\n      dup3\n        /* \"contracts/ZecreyVerifier.sol\":4274:4278  0x80 */\n      0x80\n        /* \"contracts/ZecreyVerifier.sol\":4263:4272  add_input */\n      dup5\n        /* \"contracts/ZecreyVerifier.sol\":4260:4261  6 */\n      0x06\n        /* \"contracts/ZecreyVerifier.sol\":4253:4257  2000 */\n      0x07d0\n        /* \"contracts/ZecreyVerifier.sol\":4246:4251  gas() */\n      gas\n        /* \"contracts/ZecreyVerifier.sol\":4242:4258  sub(gas(), 2000) */\n      sub\n        /* \"contracts/ZecreyVerifier.sol\":4231:4296  staticcall(sub(gas(), 2000), 6, add_input, 0x80, add_input, 0x40) */\n      staticcall\n        /* \"contracts/ZecreyVerifier.sol\":4220:4296  success := staticcall(sub(gas(), 2000), 6, add_input, 0x80, add_input, 0x40) */\n      swap3\n      pop\n        /* \"contracts/ZecreyVerifier.sol\":4333:4340  success */\n      dup3\n        /* \"contracts/ZecreyVerifier.sol\":4325:4400  require(success, \"Failed to call a precompile for G1 addition for Proof C\") */\n      tag_267\n      jumpi\n      mload(0x40)\n      shl(0xe5, 0x461bcd)\n      dup2\n      mstore\n      0x04\n      add\n      dup1\n      dup1\n      0x20\n      add\n      dup3\n      dup2\n      sub\n      dup3\n      mstore\n      0x37\n      dup2\n      mstore\n      0x20\n      add\n      dup1\n      data_b3c645f10db7b9400ba6b5cbad16bf1df9999ce1a053604ec4aa2ef19faf9f17\n      0x37\n      swap2\n      codecopy\n      0x40\n      add\n      swap2\n      pop\n      pop\n      mload(0x40)\n      dup1\n      swap2\n      sub\n      swap1\n      revert\n    tag_267:\n        /* \"contracts/ZecreyVerifier.sol\":3604:3617  proofNumber++ */\n      0x01\n      add\n        /* \"contracts/ZecreyVerifier.sol\":3548:4412  for (uint256 proofNumber = 1; proofNumber < num_proofs; proofNumber++) {\r... */\n      jump(tag_257)\n    tag_258:\n      pop\n        /* \"contracts/ZecreyVerifier.sol\":4454:4466  add_input[0] */\n      dup1\n      mload\n        /* \"contracts/ZecreyVerifier.sol\":4424:4451  proofsAandC[num_proofs * 2] */\n      dup9\n      mload\n        /* \"contracts/ZecreyVerifier.sol\":4424:4435  proofsAandC */\n      dup10\n      swap1\n        /* \"contracts/ZecreyVerifier.sol\":4449:4450  2 */\n      0x02\n        /* \"contracts/ZecreyVerifier.sol\":4436:4450  num_proofs * 2 */\n      dup13\n      mul\n      swap1\n        /* \"contracts/ZecreyVerifier.sol\":4424:4451  proofsAandC[num_proofs * 2] */\n      dup2\n      lt\n      tag_269\n      jumpi\n      invalid\n    tag_269:\n      0x20\n      swap1\n      dup2\n      mul\n      swap2\n      swap1\n      swap2\n      add\n      add\n        /* \"contracts/ZecreyVerifier.sol\":4424:4466  proofsAandC[num_proofs * 2] = add_input[0] */\n      mstore\n        /* \"contracts/ZecreyVerifier.sol\":4511:4520  add_input */\n      dup1\n        /* \"contracts/ZecreyVerifier.sol\":4521:4522  1 */\n      0x01\n        /* \"contracts/ZecreyVerifier.sol\":4511:4523  add_input[1] */\n      0x20\n      mul\n      add\n      mload\n        /* \"contracts/ZecreyVerifier.sol\":4477:4488  proofsAandC */\n      dup9\n        /* \"contracts/ZecreyVerifier.sol\":4489:4499  num_proofs */\n      dup11\n        /* \"contracts/ZecreyVerifier.sol\":4502:4503  2 */\n      0x02\n        /* \"contracts/ZecreyVerifier.sol\":4489:4503  num_proofs * 2 */\n      mul\n        /* \"contracts/ZecreyVerifier.sol\":4506:4507  1 */\n      0x01\n        /* \"contracts/ZecreyVerifier.sol\":4489:4507  num_proofs * 2 + 1 */\n      add\n        /* \"contracts/ZecreyVerifier.sol\":4477:4508  proofsAandC[num_proofs * 2 + 1] */\n      dup2\n      mload\n      dup2\n      lt\n      tag_271\n      jumpi\n      invalid\n    tag_271:\n      0x20\n      mul\n      0x20\n      add\n      add\n        /* \"contracts/ZecreyVerifier.sol\":4477:4523  proofsAandC[num_proofs * 2 + 1] = add_input[1] */\n      dup2\n      dup2\n      mstore\n      pop\n      pop\n        /* \"contracts/ZecreyVerifier.sol\":590:4531  function accumulate(\r... */\n      pop\n      pop\n      pop\n      pop\n      pop\n      pop\n      swap4\n      pop\n      swap4\n      swap2\n      pop\n      pop\n      jump\t// out\n        /* \"contracts/ZecreyVerifier.sol\":4539:6655  function prepareBatches(\r... */\n    tag_107:\n        /* \"contracts/ZecreyVerifier.sol\":4722:4754  uint256[4] memory finalVksAlphaX */\n      tag_272\n      tag_45\n      jump\t// in\n    tag_272:\n        /* \"contracts/ZecreyVerifier.sol\":4911:4938  uint256[4] memory add_input */\n      tag_274\n      tag_45\n      jump\t// in\n    tag_274:\n        /* \"contracts/ZecreyVerifier.sol\":4949:4976  uint256[3] memory mul_input */\n      tag_275\n      tag_43\n      jump\t// in\n    tag_275:\n        /* \"contracts/ZecreyVerifier.sol\":4987:4999  bool success */\n      0x00\n      dup1\n        /* \"contracts/ZecreyVerifier.sol\":5074:5957  for (uint256 i = 0; i < inputAccumulators.length; i++) {\r... */\n    tag_276:\n        /* \"contracts/ZecreyVerifier.sol\":5098:5115  inputAccumulators */\n      dup6\n        /* \"contracts/ZecreyVerifier.sol\":5098:5122  inputAccumulators.length */\n      mload\n        /* \"contracts/ZecreyVerifier.sol\":5094:5095  i */\n      dup2\n        /* \"contracts/ZecreyVerifier.sol\":5094:5122  i < inputAccumulators.length */\n      lt\n        /* \"contracts/ZecreyVerifier.sol\":5074:5957  for (uint256 i = 0; i < inputAccumulators.length; i++) {\r... */\n      iszero\n      tag_277\n      jumpi\n        /* \"contracts/ZecreyVerifier.sol\":5159:5170  vk_gammaABC */\n      dup7\n        /* \"contracts/ZecreyVerifier.sol\":5175:5176  i */\n      dup2\n        /* \"contracts/ZecreyVerifier.sol\":5171:5172  2 */\n      0x02\n        /* \"contracts/ZecreyVerifier.sol\":5171:5176  2 * i */\n      mul\n        /* \"contracts/ZecreyVerifier.sol\":5159:5177  vk_gammaABC[2 * i] */\n      dup2\n      mload\n      dup2\n      lt\n      tag_279\n      jumpi\n      invalid\n    tag_279:\n      0x20\n      mul\n      0x20\n      add\n      add\n      mload\n        /* \"contracts/ZecreyVerifier.sol\":5144:5153  mul_input */\n      dup4\n        /* \"contracts/ZecreyVerifier.sol\":5154:5155  0 */\n      0x00\n        /* \"contracts/ZecreyVerifier.sol\":5144:5156  mul_input[0] */\n      0x03\n      dup2\n      lt\n      tag_280\n      jumpi\n      invalid\n    tag_280:\n      0x20\n      mul\n      add\n        /* \"contracts/ZecreyVerifier.sol\":5144:5177  mul_input[0] = vk_gammaABC[2 * i] */\n      mstore\n        /* \"contracts/ZecreyVerifier.sol\":5207:5229  vk_gammaABC[2 * i + 1] */\n      dup7\n      mload\n        /* \"contracts/ZecreyVerifier.sol\":5207:5218  vk_gammaABC */\n      dup8\n      swap1\n        /* \"contracts/ZecreyVerifier.sol\":5227:5228  1 */\n      0x01\n        /* \"contracts/ZecreyVerifier.sol\":5219:5220  2 */\n      0x02\n        /* \"contracts/ZecreyVerifier.sol\":5219:5224  2 * i */\n      dup5\n      mul\n        /* \"contracts/ZecreyVerifier.sol\":5219:5228  2 * i + 1 */\n      add\n      swap1\n        /* \"contracts/ZecreyVerifier.sol\":5207:5229  vk_gammaABC[2 * i + 1] */\n      dup2\n      lt\n      tag_281\n      jumpi\n      invalid\n    tag_281:\n      0x20\n      mul\n      0x20\n      add\n      add\n      mload\n        /* \"contracts/ZecreyVerifier.sol\":5192:5201  mul_input */\n      dup4\n        /* \"contracts/ZecreyVerifier.sol\":5202:5203  1 */\n      0x01\n        /* \"contracts/ZecreyVerifier.sol\":5192:5204  mul_input[1] */\n      0x03\n      dup2\n      lt\n      tag_282\n      jumpi\n      invalid\n    tag_282:\n      0x20\n      mul\n      add\n        /* \"contracts/ZecreyVerifier.sol\":5192:5229  mul_input[1] = vk_gammaABC[2 * i + 1] */\n      mstore\n        /* \"contracts/ZecreyVerifier.sol\":5259:5279  inputAccumulators[i] */\n      dup6\n      mload\n        /* \"contracts/ZecreyVerifier.sol\":5259:5276  inputAccumulators */\n      dup7\n      swap1\n        /* \"contracts/ZecreyVerifier.sol\":5277:5278  i */\n      dup3\n      swap1\n        /* \"contracts/ZecreyVerifier.sol\":5259:5279  inputAccumulators[i] */\n      dup2\n      lt\n      tag_283\n      jumpi\n      invalid\n    tag_283:\n      0x20\n      mul\n      0x20\n      add\n      add\n      mload\n        /* \"contracts/ZecreyVerifier.sol\":5244:5253  mul_input */\n      dup4\n        /* \"contracts/ZecreyVerifier.sol\":5254:5255  2 */\n      0x02\n        /* \"contracts/ZecreyVerifier.sol\":5244:5256  mul_input[2] */\n      0x03\n      dup2\n      lt\n      tag_284\n      jumpi\n      invalid\n    tag_284:\n      0x20\n      mul\n      add\n        /* \"contracts/ZecreyVerifier.sol\":5244:5279  mul_input[2] = inputAccumulators[i] */\n      mstore\n        /* \"contracts/ZecreyVerifier.sol\":5474:5478  0x40 */\n      0x40\n        /* \"contracts/ZecreyVerifier.sol\":5452:5472  add(add_input, 0x40) */\n      dup5\n      dup2\n      add\n        /* \"contracts/ZecreyVerifier.sol\":5446:5450  0x60 */\n      0x60\n        /* \"contracts/ZecreyVerifier.sol\":5435:5444  mul_input */\n      dup6\n        /* \"contracts/ZecreyVerifier.sol\":5432:5433  7 */\n      0x07\n        /* \"contracts/ZecreyVerifier.sol\":5425:5429  2000 */\n      0x07d0\n        /* \"contracts/ZecreyVerifier.sol\":5418:5423  gas() */\n      gas\n        /* \"contracts/ZecreyVerifier.sol\":5414:5430  sub(gas(), 2000) */\n      sub\n        /* \"contracts/ZecreyVerifier.sol\":5403:5479  staticcall(sub(gas(), 2000), 7, mul_input, 0x60, add(add_input, 0x40), 0x40) */\n      staticcall\n        /* \"contracts/ZecreyVerifier.sol\":5392:5479  success := staticcall(sub(gas(), 2000), 7, mul_input, 0x60, add(add_input, 0x40), 0x40) */\n      swap2\n      pop\n        /* \"contracts/ZecreyVerifier.sol\":5516:5523  success */\n      dup2\n        /* \"contracts/ZecreyVerifier.sol\":5508:5599  require(success, \"Failed to call a precompile for G1 multiplication for input accumulator\") */\n      tag_285\n      jumpi\n      mload(0x40)\n      shl(0xe5, 0x461bcd)\n      dup2\n      mstore\n      0x04\n      add\n      dup1\n      dup1\n      0x20\n      add\n      dup3\n      dup2\n      sub\n      dup3\n      mstore\n      0x47\n      dup2\n      mstore\n      0x20\n      add\n      dup1\n      data_da87ce3745b0539e9d88a36a6774533cdf98d134ca3f8796231c476a85499e78\n      0x47\n      swap2\n      codecopy\n      0x60\n      add\n      swap2\n      pop\n      pop\n      mload(0x40)\n      dup1\n      swap2\n      sub\n      swap1\n      revert\n    tag_285:\n        /* \"contracts/ZecreyVerifier.sol\":5826:5830  0x40 */\n      0x40\n        /* \"contracts/ZecreyVerifier.sol\":5815:5824  add_input */\n      dup5\n        /* \"contracts/ZecreyVerifier.sol\":5809:5813  0x80 */\n      0x80\n        /* \"contracts/ZecreyVerifier.sol\":5798:5807  add_input */\n      dup7\n        /* \"contracts/ZecreyVerifier.sol\":5795:5796  6 */\n      0x06\n        /* \"contracts/ZecreyVerifier.sol\":5788:5792  2000 */\n      0x07d0\n        /* \"contracts/ZecreyVerifier.sol\":5781:5786  gas() */\n      gas\n        /* \"contracts/ZecreyVerifier.sol\":5777:5793  sub(gas(), 2000) */\n      sub\n        /* \"contracts/ZecreyVerifier.sol\":5766:5831  staticcall(sub(gas(), 2000), 6, add_input, 0x80, add_input, 0x40) */\n      staticcall\n        /* \"contracts/ZecreyVerifier.sol\":5755:5831  success := staticcall(sub(gas(), 2000), 6, add_input, 0x80, add_input, 0x40) */\n      swap2\n      pop\n        /* \"contracts/ZecreyVerifier.sol\":5868:5875  success */\n      dup2\n        /* \"contracts/ZecreyVerifier.sol\":5860:5945  require(success, \"Failed to call a precompile for G1 addition for input accumulator\") */\n      tag_286\n      jumpi\n      mload(0x40)\n      shl(0xe5, 0x461bcd)\n      dup2\n      mstore\n      0x04\n      add\n      dup1\n      dup1\n      0x20\n      add\n      dup3\n      dup2\n      sub\n      dup3\n      mstore\n      0x41\n      dup2\n      mstore\n      0x20\n      add\n      dup1\n      data_00b3a81a954a181e312d03e11afab3fecdc9ecd723ab35031187e481684f11ee\n      0x41\n      swap2\n      codecopy\n      0x60\n      add\n      swap2\n      pop\n      pop\n      mload(0x40)\n      dup1\n      swap2\n      sub\n      swap1\n      revert\n    tag_286:\n        /* \"contracts/ZecreyVerifier.sol\":5124:5127  i++ */\n      0x01\n      add\n        /* \"contracts/ZecreyVerifier.sol\":5074:5957  for (uint256 i = 0; i < inputAccumulators.length; i++) {\r... */\n      jump(tag_276)\n    tag_277:\n      pop\n        /* \"contracts/ZecreyVerifier.sol\":5989:6001  add_input[0] */\n      dup3\n      mload\n        /* \"contracts/ZecreyVerifier.sol\":5969:5986  finalVksAlphaX[2] */\n      0x40\n      dup6\n      add\n        /* \"contracts/ZecreyVerifier.sol\":5969:6001  finalVksAlphaX[2] = add_input[0] */\n      mstore\n        /* \"contracts/ZecreyVerifier.sol\":5989:6001  add_input[0] */\n      0x20\n        /* \"contracts/ZecreyVerifier.sol\":6032:6044  add_input[1] */\n      dup4\n      add\n      mload\n        /* \"contracts/ZecreyVerifier.sol\":6012:6029  finalVksAlphaX[3] */\n      0x60\n      dup6\n      add\n        /* \"contracts/ZecreyVerifier.sol\":6012:6044  finalVksAlphaX[3] = add_input[1] */\n      mstore\n        /* \"contracts/ZecreyVerifier.sol\":6131:6161  uint256[3] memory finalVKalpha */\n      tag_291\n      tag_43\n      jump\t// in\n    tag_291:\n        /* \"contracts/ZecreyVerifier.sol\":6190:6198  in_vk[0] */\n      dup8\n      mload\n        /* \"contracts/ZecreyVerifier.sol\":6172:6198  finalVKalpha[0] = in_vk[0] */\n      dup2\n      mstore\n        /* \"contracts/ZecreyVerifier.sol\":6190:6198  in_vk[0] */\n      0x20\n        /* \"contracts/ZecreyVerifier.sol\":6227:6235  in_vk[1] */\n      dup1\n      dup10\n      add\n      mload\n        /* \"contracts/ZecreyVerifier.sol\":6209:6224  finalVKalpha[1] */\n      swap1\n      dup3\n      add\n        /* \"contracts/ZecreyVerifier.sol\":6209:6235  finalVKalpha[1] = in_vk[1] */\n      mstore\n        /* \"contracts/ZecreyVerifier.sol\":6264:6284  inputAccumulators[0] */\n      dup6\n      mload\n      dup7\n      swap1\n        /* \"contracts/ZecreyVerifier.sol\":6196:6197  0 */\n      0x00\n      swap1\n        /* \"contracts/ZecreyVerifier.sol\":6264:6284  inputAccumulators[0] */\n      tag_296\n      jumpi\n      invalid\n    tag_296:\n      0x20\n      mul\n      0x20\n      add\n      add\n      mload\n        /* \"contracts/ZecreyVerifier.sol\":6246:6258  finalVKalpha */\n      dup2\n        /* \"contracts/ZecreyVerifier.sol\":6259:6260  2 */\n      0x02\n        /* \"contracts/ZecreyVerifier.sol\":6246:6261  finalVKalpha[2] */\n      0x03\n      dup2\n      lt\n      tag_297\n      jumpi\n      invalid\n    tag_297:\n      0x20\n      mul\n      add\n        /* \"contracts/ZecreyVerifier.sol\":6246:6284  finalVKalpha[2] = inputAccumulators[0] */\n      mstore\n        /* \"contracts/ZecreyVerifier.sol\":6460:6464  0x40 */\n      0x40\n        /* \"contracts/ZecreyVerifier.sol\":6446:6458  finalVKalpha */\n      dup2\n        /* \"contracts/ZecreyVerifier.sol\":6440:6444  0x60 */\n      0x60\n        /* \"contracts/ZecreyVerifier.sol\":6446:6458  finalVKalpha */\n      dup2\n        /* \"contracts/ZecreyVerifier.sol\":6423:6424  7 */\n      0x07\n        /* \"contracts/ZecreyVerifier.sol\":6416:6420  2000 */\n      0x07d0\n        /* \"contracts/ZecreyVerifier.sol\":6409:6414  gas() */\n      gas\n        /* \"contracts/ZecreyVerifier.sol\":6405:6421  sub(gas(), 2000) */\n      sub\n        /* \"contracts/ZecreyVerifier.sol\":6394:6465  staticcall(sub(gas(), 2000), 7, finalVKalpha, 0x60, finalVKalpha, 0x40) */\n      staticcall\n        /* \"contracts/ZecreyVerifier.sol\":6383:6465  success := staticcall(sub(gas(), 2000), 7, finalVKalpha, 0x60, finalVKalpha, 0x40) */\n      swap2\n      pop\n        /* \"contracts/ZecreyVerifier.sol\":6494:6501  success */\n      dup2\n        /* \"contracts/ZecreyVerifier.sol\":6486:6555  require(success, \"Failed to call a precompile for G1 multiplication\") */\n      tag_298\n      jumpi\n      mload(0x40)\n      shl(0xe5, 0x461bcd)\n      dup2\n      mstore\n      0x04\n      add\n      dup1\n      dup1\n      0x20\n      add\n      dup3\n      dup2\n      sub\n      dup3\n      mstore\n      0x31\n      dup2\n      mstore\n      0x20\n      add\n      dup1\n      data_c3f6b70e3185e20d39c3a9b5e07ebd52df348422c8b8e5d32e04c393f344d589\n      0x31\n      swap2\n      codecopy\n      0x40\n      add\n      swap2\n      pop\n      pop\n      mload(0x40)\n      dup1\n      swap2\n      sub\n      swap1\n      revert\n    tag_298:\n        /* \"contracts/ZecreyVerifier.sol\":6586:6601  finalVKalpha[0] */\n      dup1\n      mload\n        /* \"contracts/ZecreyVerifier.sol\":6566:6601  finalVksAlphaX[0] = finalVKalpha[0] */\n      dup6\n      mstore\n        /* \"contracts/ZecreyVerifier.sol\":6586:6601  finalVKalpha[0] */\n      0x20\n        /* \"contracts/ZecreyVerifier.sol\":6632:6647  finalVKalpha[1] */\n      swap1\n      dup2\n      add\n      mload\n        /* \"contracts/ZecreyVerifier.sol\":6612:6629  finalVksAlphaX[1] */\n      swap1\n      dup6\n      add\n        /* \"contracts/ZecreyVerifier.sol\":6612:6647  finalVksAlphaX[1] = finalVKalpha[1] */\n      mstore\n      pop\n        /* \"contracts/ZecreyVerifier.sol\":6566:6580  finalVksAlphaX */\n      swap2\n      swap6\n        /* \"contracts/ZecreyVerifier.sol\":4539:6655  function prepareBatches(\r... */\n      swap5\n      pop\n      pop\n      pop\n      pop\n      pop\n      jump\t// out\n        /* \"contracts/ZecreyVerifier.sol\":8909:9668  function getProofEntropy(\r... */\n    tag_213:\n        /* \"contracts/ZecreyVerifier.sol\":9072:9079  uint256 */\n      0x00\n        /* \"contracts/ZecreyVerifier.sol\":9659:9660  3 */\n      0x03\n        /* \"contracts/ZecreyVerifier.sol\":9295:9303  in_proof */\n      dup5\n        /* \"contracts/ZecreyVerifier.sol\":9304:9315  proofNumber */\n      dup4\n        /* \"contracts/ZecreyVerifier.sol\":9318:9319  8 */\n      0x08\n        /* \"contracts/ZecreyVerifier.sol\":9304:9319  proofNumber * 8 */\n      mul\n        /* \"contracts/ZecreyVerifier.sol\":9322:9323  0 */\n      0x00\n        /* \"contracts/ZecreyVerifier.sol\":9304:9323  proofNumber * 8 + 0 */\n      add\n        /* \"contracts/ZecreyVerifier.sol\":9295:9324  in_proof[proofNumber * 8 + 0] */\n      dup2\n      mload\n      dup2\n      lt\n      tag_304\n      jumpi\n      invalid\n    tag_304:\n      0x20\n      mul\n      0x20\n      add\n      add\n      mload\n        /* \"contracts/ZecreyVerifier.sol\":9326:9334  in_proof */\n      dup6\n        /* \"contracts/ZecreyVerifier.sol\":9335:9346  proofNumber */\n      dup5\n        /* \"contracts/ZecreyVerifier.sol\":9349:9350  8 */\n      0x08\n        /* \"contracts/ZecreyVerifier.sol\":9335:9350  proofNumber * 8 */\n      mul\n        /* \"contracts/ZecreyVerifier.sol\":9353:9354  1 */\n      0x01\n        /* \"contracts/ZecreyVerifier.sol\":9335:9354  proofNumber * 8 + 1 */\n      add\n        /* \"contracts/ZecreyVerifier.sol\":9326:9355  in_proof[proofNumber * 8 + 1] */\n      dup2\n      mload\n      dup2\n      lt\n      tag_305\n      jumpi\n      invalid\n    tag_305:\n      0x20\n      mul\n      0x20\n      add\n      add\n      mload\n        /* \"contracts/ZecreyVerifier.sol\":9357:9365  in_proof */\n      dup7\n        /* \"contracts/ZecreyVerifier.sol\":9366:9377  proofNumber */\n      dup6\n        /* \"contracts/ZecreyVerifier.sol\":9380:9381  8 */\n      0x08\n        /* \"contracts/ZecreyVerifier.sol\":9366:9381  proofNumber * 8 */\n      mul\n        /* \"contracts/ZecreyVerifier.sol\":9384:9385  2 */\n      0x02\n        /* \"contracts/ZecreyVerifier.sol\":9366:9385  proofNumber * 8 + 2 */\n      add\n        /* \"contracts/ZecreyVerifier.sol\":9357:9386  in_proof[proofNumber * 8 + 2] */\n      dup2\n      mload\n      dup2\n      lt\n      tag_306\n      jumpi\n      invalid\n    tag_306:\n      0x20\n      mul\n      0x20\n      add\n      add\n      mload\n        /* \"contracts/ZecreyVerifier.sol\":9388:9396  in_proof */\n      dup8\n        /* \"contracts/ZecreyVerifier.sol\":9397:9408  proofNumber */\n      dup7\n        /* \"contracts/ZecreyVerifier.sol\":9411:9412  8 */\n      0x08\n        /* \"contracts/ZecreyVerifier.sol\":9397:9412  proofNumber * 8 */\n      mul\n        /* \"contracts/ZecreyVerifier.sol\":9415:9416  3 */\n      0x03\n        /* \"contracts/ZecreyVerifier.sol\":9397:9416  proofNumber * 8 + 3 */\n      add\n        /* \"contracts/ZecreyVerifier.sol\":9388:9417  in_proof[proofNumber * 8 + 3] */\n      dup2\n      mload\n      dup2\n      lt\n      tag_307\n      jumpi\n      invalid\n    tag_307:\n      0x20\n      mul\n      0x20\n      add\n      add\n      mload\n        /* \"contracts/ZecreyVerifier.sol\":9440:9448  in_proof */\n      dup9\n        /* \"contracts/ZecreyVerifier.sol\":9449:9460  proofNumber */\n      dup8\n        /* \"contracts/ZecreyVerifier.sol\":9463:9464  8 */\n      0x08\n        /* \"contracts/ZecreyVerifier.sol\":9449:9464  proofNumber * 8 */\n      mul\n        /* \"contracts/ZecreyVerifier.sol\":9467:9468  4 */\n      0x04\n        /* \"contracts/ZecreyVerifier.sol\":9449:9468  proofNumber * 8 + 4 */\n      add\n        /* \"contracts/ZecreyVerifier.sol\":9440:9469  in_proof[proofNumber * 8 + 4] */\n      dup2\n      mload\n      dup2\n      lt\n      tag_308\n      jumpi\n      invalid\n    tag_308:\n      0x20\n      mul\n      0x20\n      add\n      add\n      mload\n        /* \"contracts/ZecreyVerifier.sol\":9471:9479  in_proof */\n      dup10\n        /* \"contracts/ZecreyVerifier.sol\":9480:9491  proofNumber */\n      dup9\n        /* \"contracts/ZecreyVerifier.sol\":9494:9495  8 */\n      0x08\n        /* \"contracts/ZecreyVerifier.sol\":9480:9495  proofNumber * 8 */\n      mul\n        /* \"contracts/ZecreyVerifier.sol\":9498:9499  5 */\n      0x05\n        /* \"contracts/ZecreyVerifier.sol\":9480:9499  proofNumber * 8 + 5 */\n      add\n        /* \"contracts/ZecreyVerifier.sol\":9471:9500  in_proof[proofNumber * 8 + 5] */\n      dup2\n      mload\n      dup2\n      lt\n      tag_309\n      jumpi\n      invalid\n    tag_309:\n      0x20\n      mul\n      0x20\n      add\n      add\n      mload\n        /* \"contracts/ZecreyVerifier.sol\":9502:9510  in_proof */\n      dup11\n        /* \"contracts/ZecreyVerifier.sol\":9511:9522  proofNumber */\n      dup10\n        /* \"contracts/ZecreyVerifier.sol\":9525:9526  8 */\n      0x08\n        /* \"contracts/ZecreyVerifier.sol\":9511:9526  proofNumber * 8 */\n      mul\n        /* \"contracts/ZecreyVerifier.sol\":9529:9530  6 */\n      0x06\n        /* \"contracts/ZecreyVerifier.sol\":9511:9530  proofNumber * 8 + 6 */\n      add\n        /* \"contracts/ZecreyVerifier.sol\":9502:9531  in_proof[proofNumber * 8 + 6] */\n      dup2\n      mload\n      dup2\n      lt\n      tag_310\n      jumpi\n      invalid\n    tag_310:\n      0x20\n      mul\n      0x20\n      add\n      add\n      mload\n        /* \"contracts/ZecreyVerifier.sol\":9533:9541  in_proof */\n      dup12\n        /* \"contracts/ZecreyVerifier.sol\":9542:9553  proofNumber */\n      dup11\n        /* \"contracts/ZecreyVerifier.sol\":9556:9557  8 */\n      0x08\n        /* \"contracts/ZecreyVerifier.sol\":9542:9557  proofNumber * 8 */\n      mul\n        /* \"contracts/ZecreyVerifier.sol\":9560:9561  7 */\n      0x07\n        /* \"contracts/ZecreyVerifier.sol\":9542:9561  proofNumber * 8 + 7 */\n      add\n        /* \"contracts/ZecreyVerifier.sol\":9533:9562  in_proof[proofNumber * 8 + 7] */\n      dup2\n      mload\n      dup2\n      lt\n      tag_311\n      jumpi\n      invalid\n    tag_311:\n      0x20\n      mul\n      0x20\n      add\n      add\n      mload\n        /* \"contracts/ZecreyVerifier.sol\":9585:9597  proof_inputs */\n      dup12\n        /* \"contracts/ZecreyVerifier.sol\":9598:9609  proofNumber */\n      dup12\n        /* \"contracts/ZecreyVerifier.sol\":9585:9610  proof_inputs[proofNumber] */\n      dup2\n      mload\n      dup2\n      lt\n      tag_312\n      jumpi\n      invalid\n    tag_312:\n      0x20\n      mul\n      0x20\n      add\n      add\n      mload\n        /* \"contracts/ZecreyVerifier.sol\":9256:9629  abi.encodePacked(\r... */\n      add(0x20, mload(0x40))\n      dup1\n      dup11\n      dup2\n      mstore\n      0x20\n      add\n      dup10\n      dup2\n      mstore\n      0x20\n      add\n      dup9\n      dup2\n      mstore\n      0x20\n      add\n      dup8\n      dup2\n      mstore\n      0x20\n      add\n      dup7\n      dup2\n      mstore\n      0x20\n      add\n      dup6\n      dup2\n      mstore\n      0x20\n      add\n      dup5\n      dup2\n      mstore\n      0x20\n      add\n      dup4\n      dup2\n      mstore\n      0x20\n      add\n      dup3\n      dup2\n      mstore\n      0x20\n      add\n      swap10\n      pop\n      pop\n      pop\n      pop\n      pop\n      pop\n      pop\n      pop\n      pop\n      pop\n      mload(0x40)\n      0x20\n      dup2\n      dup4\n      sub\n      sub\n      dup2\n      mstore\n      swap1\n      0x40\n      mstore\n        /* \"contracts/ZecreyVerifier.sol\":9228:9644  keccak256(\r... */\n      dup1\n      mload\n      swap1\n      0x20\n      add\n      keccak256\n        /* \"contracts/ZecreyVerifier.sol\":9206:9655  uint256(\r... */\n      0x00\n      shr\n        /* \"contracts/ZecreyVerifier.sol\":9206:9660  uint256(\r... */\n      swap1\n      shr\n        /* \"contracts/ZecreyVerifier.sol\":9199:9660  return uint256(\r... */\n      swap1\n      pop\n        /* \"contracts/ZecreyVerifier.sol\":8909:9668  function getProofEntropy(\r... */\n      swap4\n      swap3\n      pop\n      pop\n      pop\n      jump\t// out\n    tag_43:\n      mload(0x40)\n      dup1\n      0x60\n      add\n      0x40\n      mstore\n      dup1\n      0x03\n      swap1\n      0x20\n      dup3\n      mul\n      dup1\n      calldatasize\n      dup4\n      calldatacopy\n      pop\n      swap2\n      swap3\n      swap2\n      pop\n      pop\n      jump\t// out\n    tag_45:\n      mload(0x40)\n      dup1\n      0x80\n      add\n      0x40\n      mstore\n      dup1\n      0x04\n      swap1\n      0x20\n      dup3\n      mul\n      dup1\n      calldatasize\n      dup4\n      calldatacopy\n      pop\n      swap2\n      swap3\n      swap2\n      pop\n      pop\n      jump\t// out\n    tag_90:\n      mload(0x40)\n      dup1\n      0x20\n      add\n      0x40\n      mstore\n      dup1\n      0x01\n      swap1\n      0x20\n      dup3\n      mul\n      dup1\n      calldatasize\n      dup4\n      calldatacopy\n      pop\n      swap2\n      swap3\n      swap2\n      pop\n      pop\n      jump\t// out\n    tag_171:\n      mload(0x40)\n      dup1\n      0x01c0\n      add\n      0x40\n      mstore\n      dup1\n      0x0e\n      swap1\n      0x20\n      dup3\n      mul\n      dup1\n      calldatasize\n      dup4\n      calldatacopy\n      pop\n      swap2\n      swap3\n      swap2\n      pop\n      pop\n      jump\t// out\n    stop\n    data_00b3a81a954a181e312d03e11afab3fecdc9ecd723ab35031187e481684f11ee 4661696c656420746f2063616c6c206120707265636f6d70696c6520666f72204731206164646974696f6e20666f7220696e70757420616363756d756c61746f72\n    data_03f275ba3992ec27b95f6f07ec61d61b3f4b96d1d768eccfd46fa5f9bc14cf5d 4661696c656420746f2063616c6c2070616972696e67732066756e6374696f6e73\n    data_1a7d0d7ebab0e5810b62a19a1665c40a8d681cb3f369c97295e93e1b7dcc90a3 4661696c656420746f2063616c6c206120707265636f6d70696c6520666f72204731206d756c7469706c69636174696f6e20666f722050726f6f662043\n    data_30a927176b85b56b3deaf77e8ab2c5b8e8323b5a79eca07c339102b46ba42bf9 496e76616c69642070726f6f6673206c656e67746820666f722061206261746368\n    data_41e25ace9546ee1239eee4fafd6892f414e39dd676b90bf207e211891145f50f 496e76616c696420696e70757473206c656e67746820666f722061206261746368\n    data_6a3401c7d65725f3707de40f8566d5c3161b87fc0a74b69aaea4ffecc21d5590 4d69736d61746368696e67206e756d626572206f6620696e7075747320666f7220766572696679696e67206b6579\n    data_81d44f1b61032910da4ec0faa056d03a9d9cb7ced9ae32c6a17282c2614499d8 496e70757473206c656e6774682073686f756c64206265206d756c7469706c65206f6620313932206279746573\n    data_b3c645f10db7b9400ba6b5cbad16bf1df9999ce1a053604ec4aa2ef19faf9f17 4661696c656420746f2063616c6c206120707265636f6d70696c6520666f72204731206164646974696f6e20666f722050726f6f662043\n    data_c3f6b70e3185e20d39c3a9b5e07ebd52df348422c8b8e5d32e04c393f344d589 4661696c656420746f2063616c6c206120707265636f6d70696c6520666f72204731206d756c7469706c69636174696f6e\n    data_da87ce3745b0539e9d88a36a6774533cdf98d134ca3f8796231c476a85499e78 4661696c656420746f2063616c6c206120707265636f6d70696c6520666f72204731206d756c7469706c69636174696f6e20666f7220696e70757420616363756d756c61746f72\n\n    auxdata: 0xa2646970667358221220c7a3d314105fe01d6098a27a14e66d5afd40e4f1f4f29e93fcd85d949a6c276764736f6c63430007060033\n}\n",
				"bytecode": {
					"linkReferences": {},
					"object": "608060405234801561001057600080fd5b50611d23806100206000396000f3fe608060405234801561001057600080fd5b506004361061004c5760003560e01c80632539464514610051578063721ea4ac146100c1578063c50e8263146101f8578063daad1e631461031d575b600080fd5b6100bf6004803603602081101561006757600080fd5b810190602081018135600160201b81111561008157600080fd5b82018360208201111561009357600080fd5b803590602001918460018302840111600160201b831117156100b457600080fd5b509092509050610337565b005b6101e4600480360360408110156100d757600080fd5b810190602081018135600160201b8111156100f157600080fd5b82018360208201111561010357600080fd5b803590602001918460208302840111600160201b8311171561012457600080fd5b9190808060200260200160405190810160405280939291908181526020018383602002808284376000920191909152509295949360208101935035915050600160201b81111561017357600080fd5b82018360208201111561018557600080fd5b803590602001918460208302840111600160201b831117156101a657600080fd5b91908080602002602001604051908101604052809392919081815260200183836020028082843760009201919091525092955061033b945050505050565b604080519115158252519081900360200190f35b6101e46004803603606081101561020e57600080fd5b810190602081018135600160201b81111561022857600080fd5b82018360208201111561023a57600080fd5b803590602001918460208302840111600160201b8311171561025b57600080fd5b9190808060200260200160405190810160405280939291908181526020018383602002808284376000920191909152509295949360208101935035915050600160201b8111156102aa57600080fd5b8201836020820111156102bc57600080fd5b803590602001918460208302840111600160201b831117156102dd57600080fd5b919080806020026020016040519081016040528093929190818152602001838360200280828437600092019190915250929550509135925061069f915050565b610325610ce9565b60408051918252519081900360200190f35b5050565b600080610346610d0d565b90506000610352610f2f565b905083516001600283518161036357fe5b04031461036f57600080fd5b845160081461037d57600080fd5b610385611a89565b61038d611aa7565b60008060029050846000815181106103a157fe5b6020026020010151836000600481106103b657fe5b60200201528451859060019081106103ca57fe5b6020026020010151836001600481106103df57fe5b602002015260005b88518110156104ad57855160018301928791811061040157fe5b60200260200101518560006003811061041657fe5b6020020152855160018301928791811061042c57fe5b60200260200101518560016003811061044157fe5b6020020152885189908290811061045457fe5b60200260200101518560026003811061046957fe5b602002015260606040850160808760076107d05a03fa92508261048b57600080fd5b60608460c08660066107d05a03fa9250826104a557600080fd5b6001016103e7565b5060006040518061030001604052808b6000815181106104c957fe5b602002602001015181526020018b6001815181106104e357fe5b602002602001015181526020018b6002815181106104fd57fe5b602002602001015181526020018b60038151811061051757fe5b602002602001015181526020018b60048151811061053157fe5b602002602001015181526020018b60058151811061054b57fe5b60200260200101518152602001886000600e811061056557fe5b60200201518152602001610589896001600e811061057f57fe5b60200201516110e9565b815260408981015160208301526060808b0151918301919091526080808b01519183019190915260a0808b01519183019190915286519082015260c0016105d186600161057f565b815260c0890151602082015260e089015160408201526101008901516060820152608001886009602002015181526020018b60068151811061060f57fe5b602002602001015181526020016106398c60078151811061062c57fe5b60200260200101516110e9565b81526101408901516020820152610160890151604082015261018089015160608201526101a08901516080909101529050610672611ac5565b6020816103008460086107d05a03fa93508361068d57600080fd5b516001149a9950505050505050505050565b600081600114156106bb576106b4848461033b565b9050610ce2565b60006106c5610d0d565b905060006106d1610f2f565b9050836008028651146107155760405162461bcd60e51b8152600401808060200182810382526021815260200180611ba26021913960400191505060405180910390fd5b8385518161071f57fe5b061561075c5760405162461bcd60e51b8152600401808060200182810382526021815260200180611bc36021913960400191505060405180910390fd5b8385518161076657fe5b046001600283518161077457fe5b0403146107b25760405162461bcd60e51b815260040180806020018281038252602e815260200180611be4602e913960400191505060405180910390fd5b6060806107c0888888611113565b909250905060006107d285858461173b565b905060008760060260120167ffffffffffffffff811180156107f357600080fd5b5060405190808252806020026020018201604052801561081d578160200160208202803683370190505b50905060005b8881101561097c5784816002028151811061083a57fe5b602002602001015182826006028151811061085157fe5b60200260200101818152505084816002026001018151811061086f57fe5b602002602001015182826006026001018151811061088957fe5b6020026020010181815250508a81600802600201815181106108a757fe5b60200260200101518282600602600201815181106108c157fe5b6020026020010181815250508a81600802600301815181106108df57fe5b60200260200101518282600602600301815181106108f957fe5b6020026020010181815250508a816008026004018151811061091757fe5b602002602001015182826006026004018151811061093157fe5b6020026020010181815250508a816008026005018151811061094f57fe5b602002602001015182826006026005018151811061096957fe5b6020908102919091010152600101610823565b5081518151829060068b0290811061099057fe5b60209081029190910101526109a682600161057f565b8189600602600101815181106109b857fe5b602090810291909101015285600260200201518189600602600201815181106109dd57fe5b60209081029190910101528560036020020151818960060260030181518110610a0257fe5b60209081029190910101528560046020020151818960060260040181518110610a2757fe5b60209081029190910101528560056020020151818960060260050181518110610a4c57fe5b60209081029190910101528160026020020151818960060260060181518110610a7157fe5b6020908102919091010152610a8782600361057f565b818960060260070181518110610a9957fe5b60209081029190910101528560066020020151818960060260080181518110610abe57fe5b60209081029190910101528560076020020151818960060260090181518110610ae357fe5b602090810291909101015285600860200201518189600602600a0181518110610b0857fe5b602090810291909101015285600960200201518189600602600b0181518110610b2d57fe5b602002602001018181525050838860020281518110610b4857fe5b60200260200101518189600602600c0181518110610b6257fe5b602002602001018181525050610b8384896002026001018151811061062c57fe5b8189600602600d0181518110610b9557fe5b602090810291909101015285600a60200201518189600602600e0181518110610bba57fe5b602090810291909101015285600b60200201518189600602600f0181518110610bdf57fe5b602090810291909101015285600c6020020151818960060260100181518110610c0457fe5b602090810291909101015285600d6020020151818960060260110181518110610c2957fe5b602002602001018181525050600081516020029050610c46611ac5565b60c0820615610c865760405162461bcd60e51b815260040180806020018281038252602d815260200180611c12602d913960400191505060405180910390fd5b602081836020860160086107d05a03fa985088610cd45760405162461bcd60e51b8152600401808060200182810382526021815260200180611b446021913960400191505060405180910390fd5b516001149750505050505050505b9392505050565b7f30644e72e131a029b85045b68181585d2833e84879b9709143e1f593f000000190565b610d15611ae3565b7f0f4af1a7c696323acd6cfec8d893dfec54905c08609defe43e9c996d9f6e012c81527f2e3744879a66c454913ea7289f9d007bfd04a993c8b503a0215bfea71844164760208201527f07f2cec2be880856570ff0b07e5ac77570a6614de2d578b606bd4f7bb7327dc460408201527f01a7fb767ad27051cb79101948fa0ddc4587d559bf285204a720a5cc7943476860608201527f22a321df8590c78ab3b80a7177312304b32142116d5b314c2f33688f51a9027260808201527f1b19ad32a7bec07e4ecd8a5dc4b2f0a331b50ec900b39fa9f9e54589992cf78c60a08201527f1e268ec51b4c2fa16f4480efd34924de4ef57518b34a3f284b9c23d2cbf32c0660c08201527f16f40c4c83e8385935203f81a00635fa0103593354dfecdee792f5dbf3518b8a60e08201527f24a977e99ea5d513f0d1b3320c7006f9a29c7577255e83bdea21d3d9c0a84daf6101008201527f2a2a5b37adad4f5ccbe97ad51682b12e9dd1d0dd031335cab8911b2811d607996101208201527f034e28926fc4e179655c1857c18f88a5be2ffed63f060a1ab74857f411755c236101408201527f1605ba688cad5256cbbf33bb812fe5861eaeea375b3e410832e664021c7f14e76101608201527f07ebfee4f1cb7f5bca0dc1b7baa0dc164bf4d9ef678ecd7af4d536cea0e5f3256101808201527f0b54e9e8e426b1a0de04c629964aaa69e59665a72c4da2fd587ca3277cb431ad6101a082015290565b604080516008808252610120820190925260609160208201610100803683370190505090507f06d479d71797726ba36a366ca17f26679619de916fca4c01c8f736e4996956be81600081518110610f8257fe5b6020026020010181815250507f05dfeb283f14178cecd2cac00b7d4eca893baec490107d07a786dc28b0a2dd4181600181518110610fbc57fe5b6020026020010181815250507f0f6e76906ccc039d6b81518a6a73eadc525327e7f5e62ed719df754168990be281600281518110610ff657fe5b6020026020010181815250507f12785a68902f36f49ba399b94d9c41933855a3754bf78f9e0c88b363448662b18160038151811061103057fe5b6020026020010181815250507f1502d5d26257bb9859272361e710b05dc7b7296673fb7e83d2a408d25491b2008160048151811061106a57fe5b6020026020010181815250507f1371769dae6705e1693eb61b017ec7217d2fdcad1f7b2329718e3d5abdaf8962816005815181106110a457fe5b6020026020010181815250506000816006815181106110bf57fe5b6020026020010181815250506000816007815181106110da57fe5b60200260200101818152505090565b7f30644e72e131a029b85045b68181585d97816a916871ca8d3c208c16d87cfd4790819006900390565b60608060007f30644e72e131a029b85045b68181585d2833e84879b9709143e1f593f0000001905060008486518161114757fe5b04905060008567ffffffffffffffff8111801561116357600080fd5b5060405190808252806020026020018201604052801561118d578160200160208202803683370190505b5090508160010167ffffffffffffffff811180156111aa57600080fd5b506040519080825280602002602001820160405280156111d4578160200160208202803683370190505b50935060005b8681101561137457806112065760018282815181106111f557fe5b60200260200101818152505061122a565b611211898983611935565b82828151811061121d57fe5b6020026020010181815250505b81818151811061123657fe5b602002602001015160001415611293576040805162461bcd60e51b815260206004820152601a60248201527f456e74726f70792073686f756c64206e6f74206265207a65726f000000000000604482015290519081900360640190fd5b838061129b57fe5b84806112a357fe5b8383815181106112af57fe5b6020026020010151600109866000815181106112c757fe5b602002602001015108856000815181106112dd57fe5b60200260200101818152505060005b8381101561136b5784806112fc57fe5b858061130457fe5b8a83878602018151811061131457fe5b602002602001015185858151811061132857fe5b60200260200101510987836001018151811061134057fe5b60200260200101510886826001018151811061135857fe5b60209081029190910101526001016112ec565b506001016111da565b5061137d611a89565b60008760020260020167ffffffffffffffff8111801561139c57600080fd5b506040519080825280602002602001820160405280156113c6578160200160208202803683370190505b509650896000815181106113d657fe5b6020026020010151876000815181106113eb57fe5b6020026020010181815250508960018151811061140457fe5b60200260200101518760018151811061141957fe5b602090810291909101015260015b88811015611560578a816008028151811061143e57fe5b60200260200101518360006003811061145357fe5b60200201528a518b906001600884020190811061146c57fe5b60200260200101518360016003811061148157fe5b6020020152835184908290811061149457fe5b6020026020010151836002600381106114a957fe5b602002015260408360608160076107d05a03fa915082600060200201518882600202815181106114d557fe5b602090810291909101015282600160200201518882600202600101815181106114fa57fe5b60200260200101818152505081611558576040805162461bcd60e51b815260206004820152601b60248201527f4661696c656420746f2063616c6c206120707265636f6d70696c650000000000604482015290519081900360640190fd5b600101611427565b50611569611aa7565b8a60068151811061157657fe5b60200260200101518160006004811061158b57fe5b60200201528a518b90600790811061159f57fe5b6020026020010151816001600481106115b457fe5b602002015260015b898110156116e8578b81600802600601815181106115d657fe5b6020026020010151846000600381106115eb57fe5b60200201528b518c906007600884020190811061160457fe5b60200260200101518460016003811061161957fe5b6020020152845185908290811061162c57fe5b60200260200101518460026003811061164157fe5b6020020152604082810160608660076107d05a03fa9250826116945760405162461bcd60e51b815260040180806020018281038252603d815260200180611b65603d913960400191505060405180910390fd5b60408260808460066107d05a03fa9250826116e05760405162461bcd60e51b8152600401808060200182810382526037815260200180611c3f6037913960400191505060405180910390fd5b6001016115bc565b5080518851899060028c029081106116fc57fe5b60209081029190910101528060016020020151888a6002026001018151811061172157fe5b602002602001018181525050505050505050935093915050565b611743611aa7565b61174b611aa7565b611753611a89565b6000805b85518110156118815786816002028151811061176f57fe5b60200260200101518360006003811061178457fe5b6020020152865187906001600284020190811061179d57fe5b6020026020010151836001600381106117b257fe5b602002015285518690829081106117c557fe5b6020026020010151836002600381106117da57fe5b6020020152604084810160608560076107d05a03fa91508161182d5760405162461bcd60e51b8152600401808060200182810382526047815260200180611ca76047913960600191505060405180910390fd5b60408460808660066107d05a03fa9150816118795760405162461bcd60e51b8152600401808060200182810382526041815260200180611b036041913960600191505060405180910390fd5b600101611757565b50825160408501526020830151606085015261189b611a89565b8751815260208089015190820152855186906000906118b657fe5b6020026020010151816002600381106118cb57fe5b602002015260408160608160076107d05a03fa91508161191c5760405162461bcd60e51b8152600401808060200182810382526031815260200180611c766031913960400191505060405180910390fd5b8051855260209081015190850152509195945050505050565b6000600384836008026000018151811061194b57fe5b602002602001015185846008026001018151811061196557fe5b602002602001015186856008026002018151811061197f57fe5b602002602001015187866008026003018151811061199957fe5b60200260200101518887600802600401815181106119b357fe5b60200260200101518988600802600501815181106119cd57fe5b60200260200101518a89600802600601815181106119e757fe5b60200260200101518b8a60080260070181518110611a0157fe5b60200260200101518b8b81518110611a1557fe5b6020026020010151604051602001808a815260200189815260200188815260200187815260200186815260200185815260200184815260200183815260200182815260200199505050505050505050506040516020818303038152906040528051906020012060001c901c90509392505050565b60405180606001604052806003906020820280368337509192915050565b60405180608001604052806004906020820280368337509192915050565b60405180602001604052806001906020820280368337509192915050565b604051806101c00160405280600e90602082028036833750919291505056fe4661696c656420746f2063616c6c206120707265636f6d70696c6520666f72204731206164646974696f6e20666f7220696e70757420616363756d756c61746f724661696c656420746f2063616c6c2070616972696e67732066756e6374696f6e734661696c656420746f2063616c6c206120707265636f6d70696c6520666f72204731206d756c7469706c69636174696f6e20666f722050726f6f662043496e76616c69642070726f6f6673206c656e67746820666f722061206261746368496e76616c696420696e70757473206c656e67746820666f7220612062617463684d69736d61746368696e67206e756d626572206f6620696e7075747320666f7220766572696679696e67206b6579496e70757473206c656e6774682073686f756c64206265206d756c7469706c65206f66203139322062797465734661696c656420746f2063616c6c206120707265636f6d70696c6520666f72204731206164646974696f6e20666f722050726f6f6620434661696c656420746f2063616c6c206120707265636f6d70696c6520666f72204731206d756c7469706c69636174696f6e4661696c656420746f2063616c6c206120707265636f6d70696c6520666f72204731206d756c7469706c69636174696f6e20666f7220696e70757420616363756d756c61746f72a2646970667358221220c7a3d314105fe01d6098a27a14e66d5afd40e4f1f4f29e93fcd85d949a6c276764736f6c63430007060033",
					"opcodes": "PUSH1 0x80 PUSH1 0x40 MSTORE CALLVALUE DUP1 ISZERO PUSH2 0x10 JUMPI PUSH1 0x0 DUP1 REVERT JUMPDEST POP PUSH2 0x1D23 DUP1 PUSH2 0x20 PUSH1 0x0 CODECOPY PUSH1 0x0 RETURN INVALID PUSH1 0x80 PUSH1 0x40 MSTORE CALLVALUE DUP1 ISZERO PUSH2 0x10 JUMPI PUSH1 0x0 DUP1 REVERT JUMPDEST POP PUSH1 0x4 CALLDATASIZE LT PUSH2 0x4C JUMPI PUSH1 0x0 CALLDATALOAD PUSH1 0xE0 SHR DUP1 PUSH4 0x25394645 EQ PUSH2 0x51 JUMPI DUP1 PUSH4 0x721EA4AC EQ PUSH2 0xC1 JUMPI DUP1 PUSH4 0xC50E8263 EQ PUSH2 0x1F8 JUMPI DUP1 PUSH4 0xDAAD1E63 EQ PUSH2 0x31D JUMPI JUMPDEST PUSH1 0x0 DUP1 REVERT JUMPDEST PUSH2 0xBF PUSH1 0x4 DUP1 CALLDATASIZE SUB PUSH1 0x20 DUP2 LT ISZERO PUSH2 0x67 JUMPI PUSH1 0x0 DUP1 REVERT JUMPDEST DUP2 ADD SWAP1 PUSH1 0x20 DUP2 ADD DUP2 CALLDATALOAD PUSH1 0x1 PUSH1 0x20 SHL DUP2 GT ISZERO PUSH2 0x81 JUMPI PUSH1 0x0 DUP1 REVERT JUMPDEST DUP3 ADD DUP4 PUSH1 0x20 DUP3 ADD GT ISZERO PUSH2 0x93 JUMPI PUSH1 0x0 DUP1 REVERT JUMPDEST DUP1 CALLDATALOAD SWAP1 PUSH1 0x20 ADD SWAP2 DUP5 PUSH1 0x1 DUP4 MUL DUP5 ADD GT PUSH1 0x1 PUSH1 0x20 SHL DUP4 GT OR ISZERO PUSH2 0xB4 JUMPI PUSH1 0x0 DUP1 REVERT JUMPDEST POP SWAP1 SWAP3 POP SWAP1 POP PUSH2 0x337 JUMP JUMPDEST STOP JUMPDEST PUSH2 0x1E4 PUSH1 0x4 DUP1 CALLDATASIZE SUB PUSH1 0x40 DUP2 LT ISZERO PUSH2 0xD7 JUMPI PUSH1 0x0 DUP1 REVERT JUMPDEST DUP2 ADD SWAP1 PUSH1 0x20 DUP2 ADD DUP2 CALLDATALOAD PUSH1 0x1 PUSH1 0x20 SHL DUP2 GT ISZERO PUSH2 0xF1 JUMPI PUSH1 0x0 DUP1 REVERT JUMPDEST DUP3 ADD DUP4 PUSH1 0x20 DUP3 ADD GT ISZERO PUSH2 0x103 JUMPI PUSH1 0x0 DUP1 REVERT JUMPDEST DUP1 CALLDATALOAD SWAP1 PUSH1 0x20 ADD SWAP2 DUP5 PUSH1 0x20 DUP4 MUL DUP5 ADD GT PUSH1 0x1 PUSH1 0x20 SHL DUP4 GT OR ISZERO PUSH2 0x124 JUMPI PUSH1 0x0 DUP1 REVERT JUMPDEST SWAP2 SWAP1 DUP1 DUP1 PUSH1 0x20 MUL PUSH1 0x20 ADD PUSH1 0x40 MLOAD SWAP1 DUP2 ADD PUSH1 0x40 MSTORE DUP1 SWAP4 SWAP3 SWAP2 SWAP1 DUP2 DUP2 MSTORE PUSH1 0x20 ADD DUP4 DUP4 PUSH1 0x20 MUL DUP1 DUP3 DUP5 CALLDATACOPY PUSH1 0x0 SWAP3 ADD SWAP2 SWAP1 SWAP2 MSTORE POP SWAP3 SWAP6 SWAP5 SWAP4 PUSH1 0x20 DUP2 ADD SWAP4 POP CALLDATALOAD SWAP2 POP POP PUSH1 0x1 PUSH1 0x20 SHL DUP2 GT ISZERO PUSH2 0x173 JUMPI PUSH1 0x0 DUP1 REVERT JUMPDEST DUP3 ADD DUP4 PUSH1 0x20 DUP3 ADD GT ISZERO PUSH2 0x185 JUMPI PUSH1 0x0 DUP1 REVERT JUMPDEST DUP1 CALLDATALOAD SWAP1 PUSH1 0x20 ADD SWAP2 DUP5 PUSH1 0x20 DUP4 MUL DUP5 ADD GT PUSH1 0x1 PUSH1 0x20 SHL DUP4 GT OR ISZERO PUSH2 0x1A6 JUMPI PUSH1 0x0 DUP1 REVERT JUMPDEST SWAP2 SWAP1 DUP1 DUP1 PUSH1 0x20 MUL PUSH1 0x20 ADD PUSH1 0x40 MLOAD SWAP1 DUP2 ADD PUSH1 0x40 MSTORE DUP1 SWAP4 SWAP3 SWAP2 SWAP1 DUP2 DUP2 MSTORE PUSH1 0x20 ADD DUP4 DUP4 PUSH1 0x20 MUL DUP1 DUP3 DUP5 CALLDATACOPY PUSH1 0x0 SWAP3 ADD SWAP2 SWAP1 SWAP2 MSTORE POP SWAP3 SWAP6 POP PUSH2 0x33B SWAP5 POP POP POP POP POP JUMP JUMPDEST PUSH1 0x40 DUP1 MLOAD SWAP2 ISZERO ISZERO DUP3 MSTORE MLOAD SWAP1 DUP2 SWAP1 SUB PUSH1 0x20 ADD SWAP1 RETURN JUMPDEST PUSH2 0x1E4 PUSH1 0x4 DUP1 CALLDATASIZE SUB PUSH1 0x60 DUP2 LT ISZERO PUSH2 0x20E JUMPI PUSH1 0x0 DUP1 REVERT JUMPDEST DUP2 ADD SWAP1 PUSH1 0x20 DUP2 ADD DUP2 CALLDATALOAD PUSH1 0x1 PUSH1 0x20 SHL DUP2 GT ISZERO PUSH2 0x228 JUMPI PUSH1 0x0 DUP1 REVERT JUMPDEST DUP3 ADD DUP4 PUSH1 0x20 DUP3 ADD GT ISZERO PUSH2 0x23A JUMPI PUSH1 0x0 DUP1 REVERT JUMPDEST DUP1 CALLDATALOAD SWAP1 PUSH1 0x20 ADD SWAP2 DUP5 PUSH1 0x20 DUP4 MUL DUP5 ADD GT PUSH1 0x1 PUSH1 0x20 SHL DUP4 GT OR ISZERO PUSH2 0x25B JUMPI PUSH1 0x0 DUP1 REVERT JUMPDEST SWAP2 SWAP1 DUP1 DUP1 PUSH1 0x20 MUL PUSH1 0x20 ADD PUSH1 0x40 MLOAD SWAP1 DUP2 ADD PUSH1 0x40 MSTORE DUP1 SWAP4 SWAP3 SWAP2 SWAP1 DUP2 DUP2 MSTORE PUSH1 0x20 ADD DUP4 DUP4 PUSH1 0x20 MUL DUP1 DUP3 DUP5 CALLDATACOPY PUSH1 0x0 SWAP3 ADD SWAP2 SWAP1 SWAP2 MSTORE POP SWAP3 SWAP6 SWAP5 SWAP4 PUSH1 0x20 DUP2 ADD SWAP4 POP CALLDATALOAD SWAP2 POP POP PUSH1 0x1 PUSH1 0x20 SHL DUP2 GT ISZERO PUSH2 0x2AA JUMPI PUSH1 0x0 DUP1 REVERT JUMPDEST DUP3 ADD DUP4 PUSH1 0x20 DUP3 ADD GT ISZERO PUSH2 0x2BC JUMPI PUSH1 0x0 DUP1 REVERT JUMPDEST DUP1 CALLDATALOAD SWAP1 PUSH1 0x20 ADD SWAP2 DUP5 PUSH1 0x20 DUP4 MUL DUP5 ADD GT PUSH1 0x1 PUSH1 0x20 SHL DUP4 GT OR ISZERO PUSH2 0x2DD JUMPI PUSH1 0x0 DUP1 REVERT JUMPDEST SWAP2 SWAP1 DUP1 DUP1 PUSH1 0x20 MUL PUSH1 0x20 ADD PUSH1 0x40 MLOAD SWAP1 DUP2 ADD PUSH1 0x40 MSTORE DUP1 SWAP4 SWAP3 SWAP2 SWAP1 DUP2 DUP2 MSTORE PUSH1 0x20 ADD DUP4 DUP4 PUSH1 0x20 MUL DUP1 DUP3 DUP5 CALLDATACOPY PUSH1 0x0 SWAP3 ADD SWAP2 SWAP1 SWAP2 MSTORE POP SWAP3 SWAP6 POP POP SWAP2 CALLDATALOAD SWAP3 POP PUSH2 0x69F SWAP2 POP POP JUMP JUMPDEST PUSH2 0x325 PUSH2 0xCE9 JUMP JUMPDEST PUSH1 0x40 DUP1 MLOAD SWAP2 DUP3 MSTORE MLOAD SWAP1 DUP2 SWAP1 SUB PUSH1 0x20 ADD SWAP1 RETURN JUMPDEST POP POP JUMP JUMPDEST PUSH1 0x0 DUP1 PUSH2 0x346 PUSH2 0xD0D JUMP JUMPDEST SWAP1 POP PUSH1 0x0 PUSH2 0x352 PUSH2 0xF2F JUMP JUMPDEST SWAP1 POP DUP4 MLOAD PUSH1 0x1 PUSH1 0x2 DUP4 MLOAD DUP2 PUSH2 0x363 JUMPI INVALID JUMPDEST DIV SUB EQ PUSH2 0x36F JUMPI PUSH1 0x0 DUP1 REVERT JUMPDEST DUP5 MLOAD PUSH1 0x8 EQ PUSH2 0x37D JUMPI PUSH1 0x0 DUP1 REVERT JUMPDEST PUSH2 0x385 PUSH2 0x1A89 JUMP JUMPDEST PUSH2 0x38D PUSH2 0x1AA7 JUMP JUMPDEST PUSH1 0x0 DUP1 PUSH1 0x2 SWAP1 POP DUP5 PUSH1 0x0 DUP2 MLOAD DUP2 LT PUSH2 0x3A1 JUMPI INVALID JUMPDEST PUSH1 0x20 MUL PUSH1 0x20 ADD ADD MLOAD DUP4 PUSH1 0x0 PUSH1 0x4 DUP2 LT PUSH2 0x3B6 JUMPI INVALID JUMPDEST PUSH1 0x20 MUL ADD MSTORE DUP5 MLOAD DUP6 SWAP1 PUSH1 0x1 SWAP1 DUP2 LT PUSH2 0x3CA JUMPI INVALID JUMPDEST PUSH1 0x20 MUL PUSH1 0x20 ADD ADD MLOAD DUP4 PUSH1 0x1 PUSH1 0x4 DUP2 LT PUSH2 0x3DF JUMPI INVALID JUMPDEST PUSH1 0x20 MUL ADD MSTORE PUSH1 0x0 JUMPDEST DUP9 MLOAD DUP2 LT ISZERO PUSH2 0x4AD JUMPI DUP6 MLOAD PUSH1 0x1 DUP4 ADD SWAP3 DUP8 SWAP2 DUP2 LT PUSH2 0x401 JUMPI INVALID JUMPDEST PUSH1 0x20 MUL PUSH1 0x20 ADD ADD MLOAD DUP6 PUSH1 0x0 PUSH1 0x3 DUP2 LT PUSH2 0x416 JUMPI INVALID JUMPDEST PUSH1 0x20 MUL ADD MSTORE DUP6 MLOAD PUSH1 0x1 DUP4 ADD SWAP3 DUP8 SWAP2 DUP2 LT PUSH2 0x42C JUMPI INVALID JUMPDEST PUSH1 0x20 MUL PUSH1 0x20 ADD ADD MLOAD DUP6 PUSH1 0x1 PUSH1 0x3 DUP2 LT PUSH2 0x441 JUMPI INVALID JUMPDEST PUSH1 0x20 MUL ADD MSTORE DUP9 MLOAD DUP10 SWAP1 DUP3 SWAP1 DUP2 LT PUSH2 0x454 JUMPI INVALID JUMPDEST PUSH1 0x20 MUL PUSH1 0x20 ADD ADD MLOAD DUP6 PUSH1 0x2 PUSH1 0x3 DUP2 LT PUSH2 0x469 JUMPI INVALID JUMPDEST PUSH1 0x20 MUL ADD MSTORE PUSH1 0x60 PUSH1 0x40 DUP6 ADD PUSH1 0x80 DUP8 PUSH1 0x7 PUSH2 0x7D0 GAS SUB STATICCALL SWAP3 POP DUP3 PUSH2 0x48B JUMPI PUSH1 0x0 DUP1 REVERT JUMPDEST PUSH1 0x60 DUP5 PUSH1 0xC0 DUP7 PUSH1 0x6 PUSH2 0x7D0 GAS SUB STATICCALL SWAP3 POP DUP3 PUSH2 0x4A5 JUMPI PUSH1 0x0 DUP1 REVERT JUMPDEST PUSH1 0x1 ADD PUSH2 0x3E7 JUMP JUMPDEST POP PUSH1 0x0 PUSH1 0x40 MLOAD DUP1 PUSH2 0x300 ADD PUSH1 0x40 MSTORE DUP1 DUP12 PUSH1 0x0 DUP2 MLOAD DUP2 LT PUSH2 0x4C9 JUMPI INVALID JUMPDEST PUSH1 0x20 MUL PUSH1 0x20 ADD ADD MLOAD DUP2 MSTORE PUSH1 0x20 ADD DUP12 PUSH1 0x1 DUP2 MLOAD DUP2 LT PUSH2 0x4E3 JUMPI INVALID JUMPDEST PUSH1 0x20 MUL PUSH1 0x20 ADD ADD MLOAD DUP2 MSTORE PUSH1 0x20 ADD DUP12 PUSH1 0x2 DUP2 MLOAD DUP2 LT PUSH2 0x4FD JUMPI INVALID JUMPDEST PUSH1 0x20 MUL PUSH1 0x20 ADD ADD MLOAD DUP2 MSTORE PUSH1 0x20 ADD DUP12 PUSH1 0x3 DUP2 MLOAD DUP2 LT PUSH2 0x517 JUMPI INVALID JUMPDEST PUSH1 0x20 MUL PUSH1 0x20 ADD ADD MLOAD DUP2 MSTORE PUSH1 0x20 ADD DUP12 PUSH1 0x4 DUP2 MLOAD DUP2 LT PUSH2 0x531 JUMPI INVALID JUMPDEST PUSH1 0x20 MUL PUSH1 0x20 ADD ADD MLOAD DUP2 MSTORE PUSH1 0x20 ADD DUP12 PUSH1 0x5 DUP2 MLOAD DUP2 LT PUSH2 0x54B JUMPI INVALID JUMPDEST PUSH1 0x20 MUL PUSH1 0x20 ADD ADD MLOAD DUP2 MSTORE PUSH1 0x20 ADD DUP9 PUSH1 0x0 PUSH1 0xE DUP2 LT PUSH2 0x565 JUMPI INVALID JUMPDEST PUSH1 0x20 MUL ADD MLOAD DUP2 MSTORE PUSH1 0x20 ADD PUSH2 0x589 DUP10 PUSH1 0x1 PUSH1 0xE DUP2 LT PUSH2 0x57F JUMPI INVALID JUMPDEST PUSH1 0x20 MUL ADD MLOAD PUSH2 0x10E9 JUMP JUMPDEST DUP2 MSTORE PUSH1 0x40 DUP10 DUP2 ADD MLOAD PUSH1 0x20 DUP4 ADD MSTORE PUSH1 0x60 DUP1 DUP12 ADD MLOAD SWAP2 DUP4 ADD SWAP2 SWAP1 SWAP2 MSTORE PUSH1 0x80 DUP1 DUP12 ADD MLOAD SWAP2 DUP4 ADD SWAP2 SWAP1 SWAP2 MSTORE PUSH1 0xA0 DUP1 DUP12 ADD MLOAD SWAP2 DUP4 ADD SWAP2 SWAP1 SWAP2 MSTORE DUP7 MLOAD SWAP1 DUP3 ADD MSTORE PUSH1 0xC0 ADD PUSH2 0x5D1 DUP7 PUSH1 0x1 PUSH2 0x57F JUMP JUMPDEST DUP2 MSTORE PUSH1 0xC0 DUP10 ADD MLOAD PUSH1 0x20 DUP3 ADD MSTORE PUSH1 0xE0 DUP10 ADD MLOAD PUSH1 0x40 DUP3 ADD MSTORE PUSH2 0x100 DUP10 ADD MLOAD PUSH1 0x60 DUP3 ADD MSTORE PUSH1 0x80 ADD DUP9 PUSH1 0x9 PUSH1 0x20 MUL ADD MLOAD DUP2 MSTORE PUSH1 0x20 ADD DUP12 PUSH1 0x6 DUP2 MLOAD DUP2 LT PUSH2 0x60F JUMPI INVALID JUMPDEST PUSH1 0x20 MUL PUSH1 0x20 ADD ADD MLOAD DUP2 MSTORE PUSH1 0x20 ADD PUSH2 0x639 DUP13 PUSH1 0x7 DUP2 MLOAD DUP2 LT PUSH2 0x62C JUMPI INVALID JUMPDEST PUSH1 0x20 MUL PUSH1 0x20 ADD ADD MLOAD PUSH2 0x10E9 JUMP JUMPDEST DUP2 MSTORE PUSH2 0x140 DUP10 ADD MLOAD PUSH1 0x20 DUP3 ADD MSTORE PUSH2 0x160 DUP10 ADD MLOAD PUSH1 0x40 DUP3 ADD MSTORE PUSH2 0x180 DUP10 ADD MLOAD PUSH1 0x60 DUP3 ADD MSTORE PUSH2 0x1A0 DUP10 ADD MLOAD PUSH1 0x80 SWAP1 SWAP2 ADD MSTORE SWAP1 POP PUSH2 0x672 PUSH2 0x1AC5 JUMP JUMPDEST PUSH1 0x20 DUP2 PUSH2 0x300 DUP5 PUSH1 0x8 PUSH2 0x7D0 GAS SUB STATICCALL SWAP4 POP DUP4 PUSH2 0x68D JUMPI PUSH1 0x0 DUP1 REVERT JUMPDEST MLOAD PUSH1 0x1 EQ SWAP11 SWAP10 POP POP POP POP POP POP POP POP POP POP JUMP JUMPDEST PUSH1 0x0 DUP2 PUSH1 0x1 EQ ISZERO PUSH2 0x6BB JUMPI PUSH2 0x6B4 DUP5 DUP5 PUSH2 0x33B JUMP JUMPDEST SWAP1 POP PUSH2 0xCE2 JUMP JUMPDEST PUSH1 0x0 PUSH2 0x6C5 PUSH2 0xD0D JUMP JUMPDEST SWAP1 POP PUSH1 0x0 PUSH2 0x6D1 PUSH2 0xF2F JUMP JUMPDEST SWAP1 POP DUP4 PUSH1 0x8 MUL DUP7 MLOAD EQ PUSH2 0x715 JUMPI PUSH1 0x40 MLOAD PUSH3 0x461BCD PUSH1 0xE5 SHL DUP2 MSTORE PUSH1 0x4 ADD DUP1 DUP1 PUSH1 0x20 ADD DUP3 DUP2 SUB DUP3 MSTORE PUSH1 0x21 DUP2 MSTORE PUSH1 0x20 ADD DUP1 PUSH2 0x1BA2 PUSH1 0x21 SWAP2 CODECOPY PUSH1 0x40 ADD SWAP2 POP POP PUSH1 0x40 MLOAD DUP1 SWAP2 SUB SWAP1 REVERT JUMPDEST DUP4 DUP6 MLOAD DUP2 PUSH2 0x71F JUMPI INVALID JUMPDEST MOD ISZERO PUSH2 0x75C JUMPI PUSH1 0x40 MLOAD PUSH3 0x461BCD PUSH1 0xE5 SHL DUP2 MSTORE PUSH1 0x4 ADD DUP1 DUP1 PUSH1 0x20 ADD DUP3 DUP2 SUB DUP3 MSTORE PUSH1 0x21 DUP2 MSTORE PUSH1 0x20 ADD DUP1 PUSH2 0x1BC3 PUSH1 0x21 SWAP2 CODECOPY PUSH1 0x40 ADD SWAP2 POP POP PUSH1 0x40 MLOAD DUP1 SWAP2 SUB SWAP1 REVERT JUMPDEST DUP4 DUP6 MLOAD DUP2 PUSH2 0x766 JUMPI INVALID JUMPDEST DIV PUSH1 0x1 PUSH1 0x2 DUP4 MLOAD DUP2 PUSH2 0x774 JUMPI INVALID JUMPDEST DIV SUB EQ PUSH2 0x7B2 JUMPI PUSH1 0x40 MLOAD PUSH3 0x461BCD PUSH1 0xE5 SHL DUP2 MSTORE PUSH1 0x4 ADD DUP1 DUP1 PUSH1 0x20 ADD DUP3 DUP2 SUB DUP3 MSTORE PUSH1 0x2E DUP2 MSTORE PUSH1 0x20 ADD DUP1 PUSH2 0x1BE4 PUSH1 0x2E SWAP2 CODECOPY PUSH1 0x40 ADD SWAP2 POP POP PUSH1 0x40 MLOAD DUP1 SWAP2 SUB SWAP1 REVERT JUMPDEST PUSH1 0x60 DUP1 PUSH2 0x7C0 DUP9 DUP9 DUP9 PUSH2 0x1113 JUMP JUMPDEST SWAP1 SWAP3 POP SWAP1 POP PUSH1 0x0 PUSH2 0x7D2 DUP6 DUP6 DUP5 PUSH2 0x173B JUMP JUMPDEST SWAP1 POP PUSH1 0x0 DUP8 PUSH1 0x6 MUL PUSH1 0x12 ADD PUSH8 0xFFFFFFFFFFFFFFFF DUP2 GT DUP1 ISZERO PUSH2 0x7F3 JUMPI PUSH1 0x0 DUP1 REVERT JUMPDEST POP PUSH1 0x40 MLOAD SWAP1 DUP1 DUP3 MSTORE DUP1 PUSH1 0x20 MUL PUSH1 0x20 ADD DUP3 ADD PUSH1 0x40 MSTORE DUP1 ISZERO PUSH2 0x81D JUMPI DUP2 PUSH1 0x20 ADD PUSH1 0x20 DUP3 MUL DUP1 CALLDATASIZE DUP4 CALLDATACOPY ADD SWAP1 POP JUMPDEST POP SWAP1 POP PUSH1 0x0 JUMPDEST DUP9 DUP2 LT ISZERO PUSH2 0x97C JUMPI DUP5 DUP2 PUSH1 0x2 MUL DUP2 MLOAD DUP2 LT PUSH2 0x83A JUMPI INVALID JUMPDEST PUSH1 0x20 MUL PUSH1 0x20 ADD ADD MLOAD DUP3 DUP3 PUSH1 0x6 MUL DUP2 MLOAD DUP2 LT PUSH2 0x851 JUMPI INVALID JUMPDEST PUSH1 0x20 MUL PUSH1 0x20 ADD ADD DUP2 DUP2 MSTORE POP POP DUP5 DUP2 PUSH1 0x2 MUL PUSH1 0x1 ADD DUP2 MLOAD DUP2 LT PUSH2 0x86F JUMPI INVALID JUMPDEST PUSH1 0x20 MUL PUSH1 0x20 ADD ADD MLOAD DUP3 DUP3 PUSH1 0x6 MUL PUSH1 0x1 ADD DUP2 MLOAD DUP2 LT PUSH2 0x889 JUMPI INVALID JUMPDEST PUSH1 0x20 MUL PUSH1 0x20 ADD ADD DUP2 DUP2 MSTORE POP POP DUP11 DUP2 PUSH1 0x8 MUL PUSH1 0x2 ADD DUP2 MLOAD DUP2 LT PUSH2 0x8A7 JUMPI INVALID JUMPDEST PUSH1 0x20 MUL PUSH1 0x20 ADD ADD MLOAD DUP3 DUP3 PUSH1 0x6 MUL PUSH1 0x2 ADD DUP2 MLOAD DUP2 LT PUSH2 0x8C1 JUMPI INVALID JUMPDEST PUSH1 0x20 MUL PUSH1 0x20 ADD ADD DUP2 DUP2 MSTORE POP POP DUP11 DUP2 PUSH1 0x8 MUL PUSH1 0x3 ADD DUP2 MLOAD DUP2 LT PUSH2 0x8DF JUMPI INVALID JUMPDEST PUSH1 0x20 MUL PUSH1 0x20 ADD ADD MLOAD DUP3 DUP3 PUSH1 0x6 MUL PUSH1 0x3 ADD DUP2 MLOAD DUP2 LT PUSH2 0x8F9 JUMPI INVALID JUMPDEST PUSH1 0x20 MUL PUSH1 0x20 ADD ADD DUP2 DUP2 MSTORE POP POP DUP11 DUP2 PUSH1 0x8 MUL PUSH1 0x4 ADD DUP2 MLOAD DUP2 LT PUSH2 0x917 JUMPI INVALID JUMPDEST PUSH1 0x20 MUL PUSH1 0x20 ADD ADD MLOAD DUP3 DUP3 PUSH1 0x6 MUL PUSH1 0x4 ADD DUP2 MLOAD DUP2 LT PUSH2 0x931 JUMPI INVALID JUMPDEST PUSH1 0x20 MUL PUSH1 0x20 ADD ADD DUP2 DUP2 MSTORE POP POP DUP11 DUP2 PUSH1 0x8 MUL PUSH1 0x5 ADD DUP2 MLOAD DUP2 LT PUSH2 0x94F JUMPI INVALID JUMPDEST PUSH1 0x20 MUL PUSH1 0x20 ADD ADD MLOAD DUP3 DUP3 PUSH1 0x6 MUL PUSH1 0x5 ADD DUP2 MLOAD DUP2 LT PUSH2 0x969 JUMPI INVALID JUMPDEST PUSH1 0x20 SWAP1 DUP2 MUL SWAP2 SWAP1 SWAP2 ADD ADD MSTORE PUSH1 0x1 ADD PUSH2 0x823 JUMP JUMPDEST POP DUP2 MLOAD DUP2 MLOAD DUP3 SWAP1 PUSH1 0x6 DUP12 MUL SWAP1 DUP2 LT PUSH2 0x990 JUMPI INVALID JUMPDEST PUSH1 0x20 SWAP1 DUP2 MUL SWAP2 SWAP1 SWAP2 ADD ADD MSTORE PUSH2 0x9A6 DUP3 PUSH1 0x1 PUSH2 0x57F JUMP JUMPDEST DUP2 DUP10 PUSH1 0x6 MUL PUSH1 0x1 ADD DUP2 MLOAD DUP2 LT PUSH2 0x9B8 JUMPI INVALID JUMPDEST PUSH1 0x20 SWAP1 DUP2 MUL SWAP2 SWAP1 SWAP2 ADD ADD MSTORE DUP6 PUSH1 0x2 PUSH1 0x20 MUL ADD MLOAD DUP2 DUP10 PUSH1 0x6 MUL PUSH1 0x2 ADD DUP2 MLOAD DUP2 LT PUSH2 0x9DD JUMPI INVALID JUMPDEST PUSH1 0x20 SWAP1 DUP2 MUL SWAP2 SWAP1 SWAP2 ADD ADD MSTORE DUP6 PUSH1 0x3 PUSH1 0x20 MUL ADD MLOAD DUP2 DUP10 PUSH1 0x6 MUL PUSH1 0x3 ADD DUP2 MLOAD DUP2 LT PUSH2 0xA02 JUMPI INVALID JUMPDEST PUSH1 0x20 SWAP1 DUP2 MUL SWAP2 SWAP1 SWAP2 ADD ADD MSTORE DUP6 PUSH1 0x4 PUSH1 0x20 MUL ADD MLOAD DUP2 DUP10 PUSH1 0x6 MUL PUSH1 0x4 ADD DUP2 MLOAD DUP2 LT PUSH2 0xA27 JUMPI INVALID JUMPDEST PUSH1 0x20 SWAP1 DUP2 MUL SWAP2 SWAP1 SWAP2 ADD ADD MSTORE DUP6 PUSH1 0x5 PUSH1 0x20 MUL ADD MLOAD DUP2 DUP10 PUSH1 0x6 MUL PUSH1 0x5 ADD DUP2 MLOAD DUP2 LT PUSH2 0xA4C JUMPI INVALID JUMPDEST PUSH1 0x20 SWAP1 DUP2 MUL SWAP2 SWAP1 SWAP2 ADD ADD MSTORE DUP2 PUSH1 0x2 PUSH1 0x20 MUL ADD MLOAD DUP2 DUP10 PUSH1 0x6 MUL PUSH1 0x6 ADD DUP2 MLOAD DUP2 LT PUSH2 0xA71 JUMPI INVALID JUMPDEST PUSH1 0x20 SWAP1 DUP2 MUL SWAP2 SWAP1 SWAP2 ADD ADD MSTORE PUSH2 0xA87 DUP3 PUSH1 0x3 PUSH2 0x57F JUMP JUMPDEST DUP2 DUP10 PUSH1 0x6 MUL PUSH1 0x7 ADD DUP2 MLOAD DUP2 LT PUSH2 0xA99 JUMPI INVALID JUMPDEST PUSH1 0x20 SWAP1 DUP2 MUL SWAP2 SWAP1 SWAP2 ADD ADD MSTORE DUP6 PUSH1 0x6 PUSH1 0x20 MUL ADD MLOAD DUP2 DUP10 PUSH1 0x6 MUL PUSH1 0x8 ADD DUP2 MLOAD DUP2 LT PUSH2 0xABE JUMPI INVALID JUMPDEST PUSH1 0x20 SWAP1 DUP2 MUL SWAP2 SWAP1 SWAP2 ADD ADD MSTORE DUP6 PUSH1 0x7 PUSH1 0x20 MUL ADD MLOAD DUP2 DUP10 PUSH1 0x6 MUL PUSH1 0x9 ADD DUP2 MLOAD DUP2 LT PUSH2 0xAE3 JUMPI INVALID JUMPDEST PUSH1 0x20 SWAP1 DUP2 MUL SWAP2 SWAP1 SWAP2 ADD ADD MSTORE DUP6 PUSH1 0x8 PUSH1 0x20 MUL ADD MLOAD DUP2 DUP10 PUSH1 0x6 MUL PUSH1 0xA ADD DUP2 MLOAD DUP2 LT PUSH2 0xB08 JUMPI INVALID JUMPDEST PUSH1 0x20 SWAP1 DUP2 MUL SWAP2 SWAP1 SWAP2 ADD ADD MSTORE DUP6 PUSH1 0x9 PUSH1 0x20 MUL ADD MLOAD DUP2 DUP10 PUSH1 0x6 MUL PUSH1 0xB ADD DUP2 MLOAD DUP2 LT PUSH2 0xB2D JUMPI INVALID JUMPDEST PUSH1 0x20 MUL PUSH1 0x20 ADD ADD DUP2 DUP2 MSTORE POP POP DUP4 DUP9 PUSH1 0x2 MUL DUP2 MLOAD DUP2 LT PUSH2 0xB48 JUMPI INVALID JUMPDEST PUSH1 0x20 MUL PUSH1 0x20 ADD ADD MLOAD DUP2 DUP10 PUSH1 0x6 MUL PUSH1 0xC ADD DUP2 MLOAD DUP2 LT PUSH2 0xB62 JUMPI INVALID JUMPDEST PUSH1 0x20 MUL PUSH1 0x20 ADD ADD DUP2 DUP2 MSTORE POP POP PUSH2 0xB83 DUP5 DUP10 PUSH1 0x2 MUL PUSH1 0x1 ADD DUP2 MLOAD DUP2 LT PUSH2 0x62C JUMPI INVALID JUMPDEST DUP2 DUP10 PUSH1 0x6 MUL PUSH1 0xD ADD DUP2 MLOAD DUP2 LT PUSH2 0xB95 JUMPI INVALID JUMPDEST PUSH1 0x20 SWAP1 DUP2 MUL SWAP2 SWAP1 SWAP2 ADD ADD MSTORE DUP6 PUSH1 0xA PUSH1 0x20 MUL ADD MLOAD DUP2 DUP10 PUSH1 0x6 MUL PUSH1 0xE ADD DUP2 MLOAD DUP2 LT PUSH2 0xBBA JUMPI INVALID JUMPDEST PUSH1 0x20 SWAP1 DUP2 MUL SWAP2 SWAP1 SWAP2 ADD ADD MSTORE DUP6 PUSH1 0xB PUSH1 0x20 MUL ADD MLOAD DUP2 DUP10 PUSH1 0x6 MUL PUSH1 0xF ADD DUP2 MLOAD DUP2 LT PUSH2 0xBDF JUMPI INVALID JUMPDEST PUSH1 0x20 SWAP1 DUP2 MUL SWAP2 SWAP1 SWAP2 ADD ADD MSTORE DUP6 PUSH1 0xC PUSH1 0x20 MUL ADD MLOAD DUP2 DUP10 PUSH1 0x6 MUL PUSH1 0x10 ADD DUP2 MLOAD DUP2 LT PUSH2 0xC04 JUMPI INVALID JUMPDEST PUSH1 0x20 SWAP1 DUP2 MUL SWAP2 SWAP1 SWAP2 ADD ADD MSTORE DUP6 PUSH1 0xD PUSH1 0x20 MUL ADD MLOAD DUP2 DUP10 PUSH1 0x6 MUL PUSH1 0x11 ADD DUP2 MLOAD DUP2 LT PUSH2 0xC29 JUMPI INVALID JUMPDEST PUSH1 0x20 MUL PUSH1 0x20 ADD ADD DUP2 DUP2 MSTORE POP POP PUSH1 0x0 DUP2 MLOAD PUSH1 0x20 MUL SWAP1 POP PUSH2 0xC46 PUSH2 0x1AC5 JUMP JUMPDEST PUSH1 0xC0 DUP3 MOD ISZERO PUSH2 0xC86 JUMPI PUSH1 0x40 MLOAD PUSH3 0x461BCD PUSH1 0xE5 SHL DUP2 MSTORE PUSH1 0x4 ADD DUP1 DUP1 PUSH1 0x20 ADD DUP3 DUP2 SUB DUP3 MSTORE PUSH1 0x2D DUP2 MSTORE PUSH1 0x20 ADD DUP1 PUSH2 0x1C12 PUSH1 0x2D SWAP2 CODECOPY PUSH1 0x40 ADD SWAP2 POP POP PUSH1 0x40 MLOAD DUP1 SWAP2 SUB SWAP1 REVERT JUMPDEST PUSH1 0x20 DUP2 DUP4 PUSH1 0x20 DUP7 ADD PUSH1 0x8 PUSH2 0x7D0 GAS SUB STATICCALL SWAP9 POP DUP9 PUSH2 0xCD4 JUMPI PUSH1 0x40 MLOAD PUSH3 0x461BCD PUSH1 0xE5 SHL DUP2 MSTORE PUSH1 0x4 ADD DUP1 DUP1 PUSH1 0x20 ADD DUP3 DUP2 SUB DUP3 MSTORE PUSH1 0x21 DUP2 MSTORE PUSH1 0x20 ADD DUP1 PUSH2 0x1B44 PUSH1 0x21 SWAP2 CODECOPY PUSH1 0x40 ADD SWAP2 POP POP PUSH1 0x40 MLOAD DUP1 SWAP2 SUB SWAP1 REVERT JUMPDEST MLOAD PUSH1 0x1 EQ SWAP8 POP POP POP POP POP POP POP POP JUMPDEST SWAP4 SWAP3 POP POP POP JUMP JUMPDEST PUSH32 0x30644E72E131A029B85045B68181585D2833E84879B9709143E1F593F0000001 SWAP1 JUMP JUMPDEST PUSH2 0xD15 PUSH2 0x1AE3 JUMP JUMPDEST PUSH32 0xF4AF1A7C696323ACD6CFEC8D893DFEC54905C08609DEFE43E9C996D9F6E012C DUP2 MSTORE PUSH32 0x2E3744879A66C454913EA7289F9D007BFD04A993C8B503A0215BFEA718441647 PUSH1 0x20 DUP3 ADD MSTORE PUSH32 0x7F2CEC2BE880856570FF0B07E5AC77570A6614DE2D578B606BD4F7BB7327DC4 PUSH1 0x40 DUP3 ADD MSTORE PUSH32 0x1A7FB767AD27051CB79101948FA0DDC4587D559BF285204A720A5CC79434768 PUSH1 0x60 DUP3 ADD MSTORE PUSH32 0x22A321DF8590C78AB3B80A7177312304B32142116D5B314C2F33688F51A90272 PUSH1 0x80 DUP3 ADD MSTORE PUSH32 0x1B19AD32A7BEC07E4ECD8A5DC4B2F0A331B50EC900B39FA9F9E54589992CF78C PUSH1 0xA0 DUP3 ADD MSTORE PUSH32 0x1E268EC51B4C2FA16F4480EFD34924DE4EF57518B34A3F284B9C23D2CBF32C06 PUSH1 0xC0 DUP3 ADD MSTORE PUSH32 0x16F40C4C83E8385935203F81A00635FA0103593354DFECDEE792F5DBF3518B8A PUSH1 0xE0 DUP3 ADD MSTORE PUSH32 0x24A977E99EA5D513F0D1B3320C7006F9A29C7577255E83BDEA21D3D9C0A84DAF PUSH2 0x100 DUP3 ADD MSTORE PUSH32 0x2A2A5B37ADAD4F5CCBE97AD51682B12E9DD1D0DD031335CAB8911B2811D60799 PUSH2 0x120 DUP3 ADD MSTORE PUSH32 0x34E28926FC4E179655C1857C18F88A5BE2FFED63F060A1AB74857F411755C23 PUSH2 0x140 DUP3 ADD MSTORE PUSH32 0x1605BA688CAD5256CBBF33BB812FE5861EAEEA375B3E410832E664021C7F14E7 PUSH2 0x160 DUP3 ADD MSTORE PUSH32 0x7EBFEE4F1CB7F5BCA0DC1B7BAA0DC164BF4D9EF678ECD7AF4D536CEA0E5F325 PUSH2 0x180 DUP3 ADD MSTORE PUSH32 0xB54E9E8E426B1A0DE04C629964AAA69E59665A72C4DA2FD587CA3277CB431AD PUSH2 0x1A0 DUP3 ADD MSTORE SWAP1 JUMP JUMPDEST PUSH1 0x40 DUP1 MLOAD PUSH1 0x8 DUP1 DUP3 MSTORE PUSH2 0x120 DUP3 ADD SWAP1 SWAP3 MSTORE PUSH1 0x60 SWAP2 PUSH1 0x20 DUP3 ADD PUSH2 0x100 DUP1 CALLDATASIZE DUP4 CALLDATACOPY ADD SWAP1 POP POP SWAP1 POP PUSH32 0x6D479D71797726BA36A366CA17F26679619DE916FCA4C01C8F736E4996956BE DUP2 PUSH1 0x0 DUP2 MLOAD DUP2 LT PUSH2 0xF82 JUMPI INVALID JUMPDEST PUSH1 0x20 MUL PUSH1 0x20 ADD ADD DUP2 DUP2 MSTORE POP POP PUSH32 0x5DFEB283F14178CECD2CAC00B7D4ECA893BAEC490107D07A786DC28B0A2DD41 DUP2 PUSH1 0x1 DUP2 MLOAD DUP2 LT PUSH2 0xFBC JUMPI INVALID JUMPDEST PUSH1 0x20 MUL PUSH1 0x20 ADD ADD DUP2 DUP2 MSTORE POP POP PUSH32 0xF6E76906CCC039D6B81518A6A73EADC525327E7F5E62ED719DF754168990BE2 DUP2 PUSH1 0x2 DUP2 MLOAD DUP2 LT PUSH2 0xFF6 JUMPI INVALID JUMPDEST PUSH1 0x20 MUL PUSH1 0x20 ADD ADD DUP2 DUP2 MSTORE POP POP PUSH32 0x12785A68902F36F49BA399B94D9C41933855A3754BF78F9E0C88B363448662B1 DUP2 PUSH1 0x3 DUP2 MLOAD DUP2 LT PUSH2 0x1030 JUMPI INVALID JUMPDEST PUSH1 0x20 MUL PUSH1 0x20 ADD ADD DUP2 DUP2 MSTORE POP POP PUSH32 0x1502D5D26257BB9859272361E710B05DC7B7296673FB7E83D2A408D25491B200 DUP2 PUSH1 0x4 DUP2 MLOAD DUP2 LT PUSH2 0x106A JUMPI INVALID JUMPDEST PUSH1 0x20 MUL PUSH1 0x20 ADD ADD DUP2 DUP2 MSTORE POP POP PUSH32 0x1371769DAE6705E1693EB61B017EC7217D2FDCAD1F7B2329718E3D5ABDAF8962 DUP2 PUSH1 0x5 DUP2 MLOAD DUP2 LT PUSH2 0x10A4 JUMPI INVALID JUMPDEST PUSH1 0x20 MUL PUSH1 0x20 ADD ADD DUP2 DUP2 MSTORE POP POP PUSH1 0x0 DUP2 PUSH1 0x6 DUP2 MLOAD DUP2 LT PUSH2 0x10BF JUMPI INVALID JUMPDEST PUSH1 0x20 MUL PUSH1 0x20 ADD ADD DUP2 DUP2 MSTORE POP POP PUSH1 0x0 DUP2 PUSH1 0x7 DUP2 MLOAD DUP2 LT PUSH2 0x10DA JUMPI INVALID JUMPDEST PUSH1 0x20 MUL PUSH1 0x20 ADD ADD DUP2 DUP2 MSTORE POP POP SWAP1 JUMP JUMPDEST PUSH32 0x30644E72E131A029B85045B68181585D97816A916871CA8D3C208C16D87CFD47 SWAP1 DUP2 SWAP1 MOD SWAP1 SUB SWAP1 JUMP JUMPDEST PUSH1 0x60 DUP1 PUSH1 0x0 PUSH32 0x30644E72E131A029B85045B68181585D2833E84879B9709143E1F593F0000001 SWAP1 POP PUSH1 0x0 DUP5 DUP7 MLOAD DUP2 PUSH2 0x1147 JUMPI INVALID JUMPDEST DIV SWAP1 POP PUSH1 0x0 DUP6 PUSH8 0xFFFFFFFFFFFFFFFF DUP2 GT DUP1 ISZERO PUSH2 0x1163 JUMPI PUSH1 0x0 DUP1 REVERT JUMPDEST POP PUSH1 0x40 MLOAD SWAP1 DUP1 DUP3 MSTORE DUP1 PUSH1 0x20 MUL PUSH1 0x20 ADD DUP3 ADD PUSH1 0x40 MSTORE DUP1 ISZERO PUSH2 0x118D JUMPI DUP2 PUSH1 0x20 ADD PUSH1 0x20 DUP3 MUL DUP1 CALLDATASIZE DUP4 CALLDATACOPY ADD SWAP1 POP JUMPDEST POP SWAP1 POP DUP2 PUSH1 0x1 ADD PUSH8 0xFFFFFFFFFFFFFFFF DUP2 GT DUP1 ISZERO PUSH2 0x11AA JUMPI PUSH1 0x0 DUP1 REVERT JUMPDEST POP PUSH1 0x40 MLOAD SWAP1 DUP1 DUP3 MSTORE DUP1 PUSH1 0x20 MUL PUSH1 0x20 ADD DUP3 ADD PUSH1 0x40 MSTORE DUP1 ISZERO PUSH2 0x11D4 JUMPI DUP2 PUSH1 0x20 ADD PUSH1 0x20 DUP3 MUL DUP1 CALLDATASIZE DUP4 CALLDATACOPY ADD SWAP1 POP JUMPDEST POP SWAP4 POP PUSH1 0x0 JUMPDEST DUP7 DUP2 LT ISZERO PUSH2 0x1374 JUMPI DUP1 PUSH2 0x1206 JUMPI PUSH1 0x1 DUP3 DUP3 DUP2 MLOAD DUP2 LT PUSH2 0x11F5 JUMPI INVALID JUMPDEST PUSH1 0x20 MUL PUSH1 0x20 ADD ADD DUP2 DUP2 MSTORE POP POP PUSH2 0x122A JUMP JUMPDEST PUSH2 0x1211 DUP10 DUP10 DUP4 PUSH2 0x1935 JUMP JUMPDEST DUP3 DUP3 DUP2 MLOAD DUP2 LT PUSH2 0x121D JUMPI INVALID JUMPDEST PUSH1 0x20 MUL PUSH1 0x20 ADD ADD DUP2 DUP2 MSTORE POP POP JUMPDEST DUP2 DUP2 DUP2 MLOAD DUP2 LT PUSH2 0x1236 JUMPI INVALID JUMPDEST PUSH1 0x20 MUL PUSH1 0x20 ADD ADD MLOAD PUSH1 0x0 EQ ISZERO PUSH2 0x1293 JUMPI PUSH1 0x40 DUP1 MLOAD PUSH3 0x461BCD PUSH1 0xE5 SHL DUP2 MSTORE PUSH1 0x20 PUSH1 0x4 DUP3 ADD MSTORE PUSH1 0x1A PUSH1 0x24 DUP3 ADD MSTORE PUSH32 0x456E74726F70792073686F756C64206E6F74206265207A65726F000000000000 PUSH1 0x44 DUP3 ADD MSTORE SWAP1 MLOAD SWAP1 DUP2 SWAP1 SUB PUSH1 0x64 ADD SWAP1 REVERT JUMPDEST DUP4 DUP1 PUSH2 0x129B JUMPI INVALID JUMPDEST DUP5 DUP1 PUSH2 0x12A3 JUMPI INVALID JUMPDEST DUP4 DUP4 DUP2 MLOAD DUP2 LT PUSH2 0x12AF JUMPI INVALID JUMPDEST PUSH1 0x20 MUL PUSH1 0x20 ADD ADD MLOAD PUSH1 0x1 MULMOD DUP7 PUSH1 0x0 DUP2 MLOAD DUP2 LT PUSH2 0x12C7 JUMPI INVALID JUMPDEST PUSH1 0x20 MUL PUSH1 0x20 ADD ADD MLOAD ADDMOD DUP6 PUSH1 0x0 DUP2 MLOAD DUP2 LT PUSH2 0x12DD JUMPI INVALID JUMPDEST PUSH1 0x20 MUL PUSH1 0x20 ADD ADD DUP2 DUP2 MSTORE POP POP PUSH1 0x0 JUMPDEST DUP4 DUP2 LT ISZERO PUSH2 0x136B JUMPI DUP5 DUP1 PUSH2 0x12FC JUMPI INVALID JUMPDEST DUP6 DUP1 PUSH2 0x1304 JUMPI INVALID JUMPDEST DUP11 DUP4 DUP8 DUP7 MUL ADD DUP2 MLOAD DUP2 LT PUSH2 0x1314 JUMPI INVALID JUMPDEST PUSH1 0x20 MUL PUSH1 0x20 ADD ADD MLOAD DUP6 DUP6 DUP2 MLOAD DUP2 LT PUSH2 0x1328 JUMPI INVALID JUMPDEST PUSH1 0x20 MUL PUSH1 0x20 ADD ADD MLOAD MULMOD DUP8 DUP4 PUSH1 0x1 ADD DUP2 MLOAD DUP2 LT PUSH2 0x1340 JUMPI INVALID JUMPDEST PUSH1 0x20 MUL PUSH1 0x20 ADD ADD MLOAD ADDMOD DUP7 DUP3 PUSH1 0x1 ADD DUP2 MLOAD DUP2 LT PUSH2 0x1358 JUMPI INVALID JUMPDEST PUSH1 0x20 SWAP1 DUP2 MUL SWAP2 SWAP1 SWAP2 ADD ADD MSTORE PUSH1 0x1 ADD PUSH2 0x12EC JUMP JUMPDEST POP PUSH1 0x1 ADD PUSH2 0x11DA JUMP JUMPDEST POP PUSH2 0x137D PUSH2 0x1A89 JUMP JUMPDEST PUSH1 0x0 DUP8 PUSH1 0x2 MUL PUSH1 0x2 ADD PUSH8 0xFFFFFFFFFFFFFFFF DUP2 GT DUP1 ISZERO PUSH2 0x139C JUMPI PUSH1 0x0 DUP1 REVERT JUMPDEST POP PUSH1 0x40 MLOAD SWAP1 DUP1 DUP3 MSTORE DUP1 PUSH1 0x20 MUL PUSH1 0x20 ADD DUP3 ADD PUSH1 0x40 MSTORE DUP1 ISZERO PUSH2 0x13C6 JUMPI DUP2 PUSH1 0x20 ADD PUSH1 0x20 DUP3 MUL DUP1 CALLDATASIZE DUP4 CALLDATACOPY ADD SWAP1 POP JUMPDEST POP SWAP7 POP DUP10 PUSH1 0x0 DUP2 MLOAD DUP2 LT PUSH2 0x13D6 JUMPI INVALID JUMPDEST PUSH1 0x20 MUL PUSH1 0x20 ADD ADD MLOAD DUP8 PUSH1 0x0 DUP2 MLOAD DUP2 LT PUSH2 0x13EB JUMPI INVALID JUMPDEST PUSH1 0x20 MUL PUSH1 0x20 ADD ADD DUP2 DUP2 MSTORE POP POP DUP10 PUSH1 0x1 DUP2 MLOAD DUP2 LT PUSH2 0x1404 JUMPI INVALID JUMPDEST PUSH1 0x20 MUL PUSH1 0x20 ADD ADD MLOAD DUP8 PUSH1 0x1 DUP2 MLOAD DUP2 LT PUSH2 0x1419 JUMPI INVALID JUMPDEST PUSH1 0x20 SWAP1 DUP2 MUL SWAP2 SWAP1 SWAP2 ADD ADD MSTORE PUSH1 0x1 JUMPDEST DUP9 DUP2 LT ISZERO PUSH2 0x1560 JUMPI DUP11 DUP2 PUSH1 0x8 MUL DUP2 MLOAD DUP2 LT PUSH2 0x143E JUMPI INVALID JUMPDEST PUSH1 0x20 MUL PUSH1 0x20 ADD ADD MLOAD DUP4 PUSH1 0x0 PUSH1 0x3 DUP2 LT PUSH2 0x1453 JUMPI INVALID JUMPDEST PUSH1 0x20 MUL ADD MSTORE DUP11 MLOAD DUP12 SWAP1 PUSH1 0x1 PUSH1 0x8 DUP5 MUL ADD SWAP1 DUP2 LT PUSH2 0x146C JUMPI INVALID JUMPDEST PUSH1 0x20 MUL PUSH1 0x20 ADD ADD MLOAD DUP4 PUSH1 0x1 PUSH1 0x3 DUP2 LT PUSH2 0x1481 JUMPI INVALID JUMPDEST PUSH1 0x20 MUL ADD MSTORE DUP4 MLOAD DUP5 SWAP1 DUP3 SWAP1 DUP2 LT PUSH2 0x1494 JUMPI INVALID JUMPDEST PUSH1 0x20 MUL PUSH1 0x20 ADD ADD MLOAD DUP4 PUSH1 0x2 PUSH1 0x3 DUP2 LT PUSH2 0x14A9 JUMPI INVALID JUMPDEST PUSH1 0x20 MUL ADD MSTORE PUSH1 0x40 DUP4 PUSH1 0x60 DUP2 PUSH1 0x7 PUSH2 0x7D0 GAS SUB STATICCALL SWAP2 POP DUP3 PUSH1 0x0 PUSH1 0x20 MUL ADD MLOAD DUP9 DUP3 PUSH1 0x2 MUL DUP2 MLOAD DUP2 LT PUSH2 0x14D5 JUMPI INVALID JUMPDEST PUSH1 0x20 SWAP1 DUP2 MUL SWAP2 SWAP1 SWAP2 ADD ADD MSTORE DUP3 PUSH1 0x1 PUSH1 0x20 MUL ADD MLOAD DUP9 DUP3 PUSH1 0x2 MUL PUSH1 0x1 ADD DUP2 MLOAD DUP2 LT PUSH2 0x14FA JUMPI INVALID JUMPDEST PUSH1 0x20 MUL PUSH1 0x20 ADD ADD DUP2 DUP2 MSTORE POP POP DUP2 PUSH2 0x1558 JUMPI PUSH1 0x40 DUP1 MLOAD PUSH3 0x461BCD PUSH1 0xE5 SHL DUP2 MSTORE PUSH1 0x20 PUSH1 0x4 DUP3 ADD MSTORE PUSH1 0x1B PUSH1 0x24 DUP3 ADD MSTORE PUSH32 0x4661696C656420746F2063616C6C206120707265636F6D70696C650000000000 PUSH1 0x44 DUP3 ADD MSTORE SWAP1 MLOAD SWAP1 DUP2 SWAP1 SUB PUSH1 0x64 ADD SWAP1 REVERT JUMPDEST PUSH1 0x1 ADD PUSH2 0x1427 JUMP JUMPDEST POP PUSH2 0x1569 PUSH2 0x1AA7 JUMP JUMPDEST DUP11 PUSH1 0x6 DUP2 MLOAD DUP2 LT PUSH2 0x1576 JUMPI INVALID JUMPDEST PUSH1 0x20 MUL PUSH1 0x20 ADD ADD MLOAD DUP2 PUSH1 0x0 PUSH1 0x4 DUP2 LT PUSH2 0x158B JUMPI INVALID JUMPDEST PUSH1 0x20 MUL ADD MSTORE DUP11 MLOAD DUP12 SWAP1 PUSH1 0x7 SWAP1 DUP2 LT PUSH2 0x159F JUMPI INVALID JUMPDEST PUSH1 0x20 MUL PUSH1 0x20 ADD ADD MLOAD DUP2 PUSH1 0x1 PUSH1 0x4 DUP2 LT PUSH2 0x15B4 JUMPI INVALID JUMPDEST PUSH1 0x20 MUL ADD MSTORE PUSH1 0x1 JUMPDEST DUP10 DUP2 LT ISZERO PUSH2 0x16E8 JUMPI DUP12 DUP2 PUSH1 0x8 MUL PUSH1 0x6 ADD DUP2 MLOAD DUP2 LT PUSH2 0x15D6 JUMPI INVALID JUMPDEST PUSH1 0x20 MUL PUSH1 0x20 ADD ADD MLOAD DUP5 PUSH1 0x0 PUSH1 0x3 DUP2 LT PUSH2 0x15EB JUMPI INVALID JUMPDEST PUSH1 0x20 MUL ADD MSTORE DUP12 MLOAD DUP13 SWAP1 PUSH1 0x7 PUSH1 0x8 DUP5 MUL ADD SWAP1 DUP2 LT PUSH2 0x1604 JUMPI INVALID JUMPDEST PUSH1 0x20 MUL PUSH1 0x20 ADD ADD MLOAD DUP5 PUSH1 0x1 PUSH1 0x3 DUP2 LT PUSH2 0x1619 JUMPI INVALID JUMPDEST PUSH1 0x20 MUL ADD MSTORE DUP5 MLOAD DUP6 SWAP1 DUP3 SWAP1 DUP2 LT PUSH2 0x162C JUMPI INVALID JUMPDEST PUSH1 0x20 MUL PUSH1 0x20 ADD ADD MLOAD DUP5 PUSH1 0x2 PUSH1 0x3 DUP2 LT PUSH2 0x1641 JUMPI INVALID JUMPDEST PUSH1 0x20 MUL ADD MSTORE PUSH1 0x40 DUP3 DUP2 ADD PUSH1 0x60 DUP7 PUSH1 0x7 PUSH2 0x7D0 GAS SUB STATICCALL SWAP3 POP DUP3 PUSH2 0x1694 JUMPI PUSH1 0x40 MLOAD PUSH3 0x461BCD PUSH1 0xE5 SHL DUP2 MSTORE PUSH1 0x4 ADD DUP1 DUP1 PUSH1 0x20 ADD DUP3 DUP2 SUB DUP3 MSTORE PUSH1 0x3D DUP2 MSTORE PUSH1 0x20 ADD DUP1 PUSH2 0x1B65 PUSH1 0x3D SWAP2 CODECOPY PUSH1 0x40 ADD SWAP2 POP POP PUSH1 0x40 MLOAD DUP1 SWAP2 SUB SWAP1 REVERT JUMPDEST PUSH1 0x40 DUP3 PUSH1 0x80 DUP5 PUSH1 0x6 PUSH2 0x7D0 GAS SUB STATICCALL SWAP3 POP DUP3 PUSH2 0x16E0 JUMPI PUSH1 0x40 MLOAD PUSH3 0x461BCD PUSH1 0xE5 SHL DUP2 MSTORE PUSH1 0x4 ADD DUP1 DUP1 PUSH1 0x20 ADD DUP3 DUP2 SUB DUP3 MSTORE PUSH1 0x37 DUP2 MSTORE PUSH1 0x20 ADD DUP1 PUSH2 0x1C3F PUSH1 0x37 SWAP2 CODECOPY PUSH1 0x40 ADD SWAP2 POP POP PUSH1 0x40 MLOAD DUP1 SWAP2 SUB SWAP1 REVERT JUMPDEST PUSH1 0x1 ADD PUSH2 0x15BC JUMP JUMPDEST POP DUP1 MLOAD DUP9 MLOAD DUP10 SWAP1 PUSH1 0x2 DUP13 MUL SWAP1 DUP2 LT PUSH2 0x16FC JUMPI INVALID JUMPDEST PUSH1 0x20 SWAP1 DUP2 MUL SWAP2 SWAP1 SWAP2 ADD ADD MSTORE DUP1 PUSH1 0x1 PUSH1 0x20 MUL ADD MLOAD DUP9 DUP11 PUSH1 0x2 MUL PUSH1 0x1 ADD DUP2 MLOAD DUP2 LT PUSH2 0x1721 JUMPI INVALID JUMPDEST PUSH1 0x20 MUL PUSH1 0x20 ADD ADD DUP2 DUP2 MSTORE POP POP POP POP POP POP POP POP SWAP4 POP SWAP4 SWAP2 POP POP JUMP JUMPDEST PUSH2 0x1743 PUSH2 0x1AA7 JUMP JUMPDEST PUSH2 0x174B PUSH2 0x1AA7 JUMP JUMPDEST PUSH2 0x1753 PUSH2 0x1A89 JUMP JUMPDEST PUSH1 0x0 DUP1 JUMPDEST DUP6 MLOAD DUP2 LT ISZERO PUSH2 0x1881 JUMPI DUP7 DUP2 PUSH1 0x2 MUL DUP2 MLOAD DUP2 LT PUSH2 0x176F JUMPI INVALID JUMPDEST PUSH1 0x20 MUL PUSH1 0x20 ADD ADD MLOAD DUP4 PUSH1 0x0 PUSH1 0x3 DUP2 LT PUSH2 0x1784 JUMPI INVALID JUMPDEST PUSH1 0x20 MUL ADD MSTORE DUP7 MLOAD DUP8 SWAP1 PUSH1 0x1 PUSH1 0x2 DUP5 MUL ADD SWAP1 DUP2 LT PUSH2 0x179D JUMPI INVALID JUMPDEST PUSH1 0x20 MUL PUSH1 0x20 ADD ADD MLOAD DUP4 PUSH1 0x1 PUSH1 0x3 DUP2 LT PUSH2 0x17B2 JUMPI INVALID JUMPDEST PUSH1 0x20 MUL ADD MSTORE DUP6 MLOAD DUP7 SWAP1 DUP3 SWAP1 DUP2 LT PUSH2 0x17C5 JUMPI INVALID JUMPDEST PUSH1 0x20 MUL PUSH1 0x20 ADD ADD MLOAD DUP4 PUSH1 0x2 PUSH1 0x3 DUP2 LT PUSH2 0x17DA JUMPI INVALID JUMPDEST PUSH1 0x20 MUL ADD MSTORE PUSH1 0x40 DUP5 DUP2 ADD PUSH1 0x60 DUP6 PUSH1 0x7 PUSH2 0x7D0 GAS SUB STATICCALL SWAP2 POP DUP2 PUSH2 0x182D JUMPI PUSH1 0x40 MLOAD PUSH3 0x461BCD PUSH1 0xE5 SHL DUP2 MSTORE PUSH1 0x4 ADD DUP1 DUP1 PUSH1 0x20 ADD DUP3 DUP2 SUB DUP3 MSTORE PUSH1 0x47 DUP2 MSTORE PUSH1 0x20 ADD DUP1 PUSH2 0x1CA7 PUSH1 0x47 SWAP2 CODECOPY PUSH1 0x60 ADD SWAP2 POP POP PUSH1 0x40 MLOAD DUP1 SWAP2 SUB SWAP1 REVERT JUMPDEST PUSH1 0x40 DUP5 PUSH1 0x80 DUP7 PUSH1 0x6 PUSH2 0x7D0 GAS SUB STATICCALL SWAP2 POP DUP2 PUSH2 0x1879 JUMPI PUSH1 0x40 MLOAD PUSH3 0x461BCD PUSH1 0xE5 SHL DUP2 MSTORE PUSH1 0x4 ADD DUP1 DUP1 PUSH1 0x20 ADD DUP3 DUP2 SUB DUP3 MSTORE PUSH1 0x41 DUP2 MSTORE PUSH1 0x20 ADD DUP1 PUSH2 0x1B03 PUSH1 0x41 SWAP2 CODECOPY PUSH1 0x60 ADD SWAP2 POP POP PUSH1 0x40 MLOAD DUP1 SWAP2 SUB SWAP1 REVERT JUMPDEST PUSH1 0x1 ADD PUSH2 0x1757 JUMP JUMPDEST POP DUP3 MLOAD PUSH1 0x40 DUP6 ADD MSTORE PUSH1 0x20 DUP4 ADD MLOAD PUSH1 0x60 DUP6 ADD MSTORE PUSH2 0x189B PUSH2 0x1A89 JUMP JUMPDEST DUP8 MLOAD DUP2 MSTORE PUSH1 0x20 DUP1 DUP10 ADD MLOAD SWAP1 DUP3 ADD MSTORE DUP6 MLOAD DUP7 SWAP1 PUSH1 0x0 SWAP1 PUSH2 0x18B6 JUMPI INVALID JUMPDEST PUSH1 0x20 MUL PUSH1 0x20 ADD ADD MLOAD DUP2 PUSH1 0x2 PUSH1 0x3 DUP2 LT PUSH2 0x18CB JUMPI INVALID JUMPDEST PUSH1 0x20 MUL ADD MSTORE PUSH1 0x40 DUP2 PUSH1 0x60 DUP2 PUSH1 0x7 PUSH2 0x7D0 GAS SUB STATICCALL SWAP2 POP DUP2 PUSH2 0x191C JUMPI PUSH1 0x40 MLOAD PUSH3 0x461BCD PUSH1 0xE5 SHL DUP2 MSTORE PUSH1 0x4 ADD DUP1 DUP1 PUSH1 0x20 ADD DUP3 DUP2 SUB DUP3 MSTORE PUSH1 0x31 DUP2 MSTORE PUSH1 0x20 ADD DUP1 PUSH2 0x1C76 PUSH1 0x31 SWAP2 CODECOPY PUSH1 0x40 ADD SWAP2 POP POP PUSH1 0x40 MLOAD DUP1 SWAP2 SUB SWAP1 REVERT JUMPDEST DUP1 MLOAD DUP6 MSTORE PUSH1 0x20 SWAP1 DUP2 ADD MLOAD SWAP1 DUP6 ADD MSTORE POP SWAP2 SWAP6 SWAP5 POP POP POP POP POP JUMP JUMPDEST PUSH1 0x0 PUSH1 0x3 DUP5 DUP4 PUSH1 0x8 MUL PUSH1 0x0 ADD DUP2 MLOAD DUP2 LT PUSH2 0x194B JUMPI INVALID JUMPDEST PUSH1 0x20 MUL PUSH1 0x20 ADD ADD MLOAD DUP6 DUP5 PUSH1 0x8 MUL PUSH1 0x1 ADD DUP2 MLOAD DUP2 LT PUSH2 0x1965 JUMPI INVALID JUMPDEST PUSH1 0x20 MUL PUSH1 0x20 ADD ADD MLOAD DUP7 DUP6 PUSH1 0x8 MUL PUSH1 0x2 ADD DUP2 MLOAD DUP2 LT PUSH2 0x197F JUMPI INVALID JUMPDEST PUSH1 0x20 MUL PUSH1 0x20 ADD ADD MLOAD DUP8 DUP7 PUSH1 0x8 MUL PUSH1 0x3 ADD DUP2 MLOAD DUP2 LT PUSH2 0x1999 JUMPI INVALID JUMPDEST PUSH1 0x20 MUL PUSH1 0x20 ADD ADD MLOAD DUP9 DUP8 PUSH1 0x8 MUL PUSH1 0x4 ADD DUP2 MLOAD DUP2 LT PUSH2 0x19B3 JUMPI INVALID JUMPDEST PUSH1 0x20 MUL PUSH1 0x20 ADD ADD MLOAD DUP10 DUP9 PUSH1 0x8 MUL PUSH1 0x5 ADD DUP2 MLOAD DUP2 LT PUSH2 0x19CD JUMPI INVALID JUMPDEST PUSH1 0x20 MUL PUSH1 0x20 ADD ADD MLOAD DUP11 DUP10 PUSH1 0x8 MUL PUSH1 0x6 ADD DUP2 MLOAD DUP2 LT PUSH2 0x19E7 JUMPI INVALID JUMPDEST PUSH1 0x20 MUL PUSH1 0x20 ADD ADD MLOAD DUP12 DUP11 PUSH1 0x8 MUL PUSH1 0x7 ADD DUP2 MLOAD DUP2 LT PUSH2 0x1A01 JUMPI INVALID JUMPDEST PUSH1 0x20 MUL PUSH1 0x20 ADD ADD MLOAD DUP12 DUP12 DUP2 MLOAD DUP2 LT PUSH2 0x1A15 JUMPI INVALID JUMPDEST PUSH1 0x20 MUL PUSH1 0x20 ADD ADD MLOAD PUSH1 0x40 MLOAD PUSH1 0x20 ADD DUP1 DUP11 DUP2 MSTORE PUSH1 0x20 ADD DUP10 DUP2 MSTORE PUSH1 0x20 ADD DUP9 DUP2 MSTORE PUSH1 0x20 ADD DUP8 DUP2 MSTORE PUSH1 0x20 ADD DUP7 DUP2 MSTORE PUSH1 0x20 ADD DUP6 DUP2 MSTORE PUSH1 0x20 ADD DUP5 DUP2 MSTORE PUSH1 0x20 ADD DUP4 DUP2 MSTORE PUSH1 0x20 ADD DUP3 DUP2 MSTORE PUSH1 0x20 ADD SWAP10 POP POP POP POP POP POP POP POP POP POP PUSH1 0x40 MLOAD PUSH1 0x20 DUP2 DUP4 SUB SUB DUP2 MSTORE SWAP1 PUSH1 0x40 MSTORE DUP1 MLOAD SWAP1 PUSH1 0x20 ADD KECCAK256 PUSH1 0x0 SHR SWAP1 SHR SWAP1 POP SWAP4 SWAP3 POP POP POP JUMP JUMPDEST PUSH1 0x40 MLOAD DUP1 PUSH1 0x60 ADD PUSH1 0x40 MSTORE DUP1 PUSH1 0x3 SWAP1 PUSH1 0x20 DUP3 MUL DUP1 CALLDATASIZE DUP4 CALLDATACOPY POP SWAP2 SWAP3 SWAP2 POP POP JUMP JUMPDEST PUSH1 0x40 MLOAD DUP1 PUSH1 0x80 ADD PUSH1 0x40 MSTORE DUP1 PUSH1 0x4 SWAP1 PUSH1 0x20 DUP3 MUL DUP1 CALLDATASIZE DUP4 CALLDATACOPY POP SWAP2 SWAP3 SWAP2 POP POP JUMP JUMPDEST PUSH1 0x40 MLOAD DUP1 PUSH1 0x20 ADD PUSH1 0x40 MSTORE DUP1 PUSH1 0x1 SWAP1 PUSH1 0x20 DUP3 MUL DUP1 CALLDATASIZE DUP4 CALLDATACOPY POP SWAP2 SWAP3 SWAP2 POP POP JUMP JUMPDEST PUSH1 0x40 MLOAD DUP1 PUSH2 0x1C0 ADD PUSH1 0x40 MSTORE DUP1 PUSH1 0xE SWAP1 PUSH1 0x20 DUP3 MUL DUP1 CALLDATASIZE DUP4 CALLDATACOPY POP SWAP2 SWAP3 SWAP2 POP POP JUMP INVALID CHAINID PUSH2 0x696C PUSH6 0x6420746F2063 PUSH2 0x6C6C KECCAK256 PUSH2 0x2070 PUSH19 0x65636F6D70696C6520666F7220473120616464 PUSH10 0x74696F6E20666F722069 PUSH15 0x70757420616363756D756C61746F72 CHAINID PUSH2 0x696C PUSH6 0x6420746F2063 PUSH2 0x6C6C KECCAK256 PUSH17 0x616972696E67732066756E6374696F6E73 CHAINID PUSH2 0x696C PUSH6 0x6420746F2063 PUSH2 0x6C6C KECCAK256 PUSH2 0x2070 PUSH19 0x65636F6D70696C6520666F72204731206D756C PUSH21 0x69706C69636174696F6E20666F722050726F6F6620 NUMBER 0x49 PUSH15 0x76616C69642070726F6F6673206C65 PUSH15 0x67746820666F722061206261746368 0x49 PUSH15 0x76616C696420696E70757473206C65 PUSH15 0x67746820666F722061206261746368 0x4D PUSH10 0x736D61746368696E6720 PUSH15 0x756D626572206F6620696E70757473 KECCAK256 PUSH7 0x6F722076657269 PUSH7 0x79696E67206B65 PUSH26 0x496E70757473206C656E6774682073686F756C64206265206D75 PUSH13 0x7469706C65206F662031393220 PUSH3 0x797465 PUSH20 0x4661696C656420746F2063616C6C206120707265 PUSH4 0x6F6D7069 PUSH13 0x6520666F722047312061646469 PUSH21 0x696F6E20666F722050726F6F6620434661696C6564 KECCAK256 PUSH21 0x6F2063616C6C206120707265636F6D70696C652066 PUSH16 0x72204731206D756C7469706C69636174 PUSH10 0x6F6E4661696C65642074 PUSH16 0x2063616C6C206120707265636F6D7069 PUSH13 0x6520666F72204731206D756C74 PUSH10 0x706C69636174696F6E20 PUSH7 0x6F7220696E7075 PUSH21 0x20616363756D756C61746F72A26469706673582212 KECCAK256 0xC7 LOG3 0xD3 EQ LT 0x5F 0xE0 SAR PUSH1 0x98 LOG2 PUSH27 0x14E66D5AFD40E4F1F4F29E93FCD85D949A6C276764736F6C634300 SMOD MOD STOP CALLER "
				},
				"gasEstimates": {
					"creation": {
						"codeDepositCost": "1491800",
						"executionCost": "1561",
						"totalCost": "1493361"
					},
					"external": {
						"ScalarField()": "242",
						"upgrade(bytes)": "348",
						"verifyBatchProofs(uint256[],uint256[],uint256)": "infinite",
						"verifyProof(uint256[],uint256[])": "infinite"
					},
					"internal": {
						"NegateY(uint256)": "35",
						"accumulate(uint256[] memory,uint256[] memory,uint256)": "infinite",
						"getProofEntropy(uint256[] memory,uint256[] memory,uint256)": "infinite",
						"ic()": "infinite",
						"prepareBatches(uint256[14] memory,uint256[] memory,uint256[] memory)": "infinite",
						"verifyingKey()": "infinite"
					}
				},
				"methodIdentifiers": {
					"ScalarField()": "daad1e63",
					"upgrade(bytes)": "25394645",
					"verifyBatchProofs(uint256[],uint256[],uint256)": "c50e8263",
					"verifyProof(uint256[],uint256[])": "721ea4ac"
				}
			},
			"storageLayout": {
				"storage": [],
				"types": null
			},
			"userdoc": {
				"kind": "user",
				"methods": {
					"upgrade(bytes)": {
						"notice": "Governance contract upgrade. Can be external because Proxy contract intercepts illegal calls of this function."
					}
				},
				"version": 1
			}
		}
	}
}