{
	"contracts/ZNSFIFSRegistrar.sol": {
		"ZNSFIFSRegistrar": {
			"abi": [
				{
					"anonymous": false,
					"inputs": [
						{
							"indexed": true,
							"internalType": "address",
							"name": "controller",
							"type": "address"
						}
					],
					"name": "ControllerAdded",
					"type": "event"
				},
				{
					"anonymous": false,
					"inputs": [
						{
							"indexed": true,
							"internalType": "address",
							"name": "controller",
							"type": "address"
						}
					],
					"name": "ControllerRemoved",
					"type": "event"
				},
				{
					"anonymous": false,
					"inputs": [
						{
							"indexed": true,
							"internalType": "address",
							"name": "previousOwner",
							"type": "address"
						},
						{
							"indexed": true,
							"internalType": "address",
							"name": "newOwner",
							"type": "address"
						}
					],
					"name": "OwnershipTransferred",
					"type": "event"
				},
				{
					"anonymous": false,
					"inputs": [
						{
							"indexed": false,
							"internalType": "string",
							"name": "name",
							"type": "string"
						},
						{
							"indexed": false,
							"internalType": "bytes32",
							"name": "node",
							"type": "bytes32"
						},
						{
							"indexed": false,
							"internalType": "address",
							"name": "owner",
							"type": "address"
						},
						{
							"indexed": false,
							"internalType": "bytes32",
							"name": "L2Owner",
							"type": "bytes32"
						}
					],
					"name": "ZNSRegistered",
					"type": "event"
				},
				{
					"inputs": [
						{
							"internalType": "address",
							"name": "_controller",
							"type": "address"
						}
					],
					"name": "addController",
					"outputs": [],
					"stateMutability": "nonpayable",
					"type": "function"
				},
				{
					"inputs": [],
					"name": "baseNode",
					"outputs": [
						{
							"internalType": "bytes32",
							"name": "",
							"type": "bytes32"
						}
					],
					"stateMutability": "view",
					"type": "function"
				},
				{
					"inputs": [
						{
							"internalType": "address",
							"name": "",
							"type": "address"
						}
					],
					"name": "controllers",
					"outputs": [
						{
							"internalType": "bool",
							"name": "",
							"type": "bool"
						}
					],
					"stateMutability": "view",
					"type": "function"
				},
				{
					"inputs": [
						{
							"internalType": "bytes32",
							"name": "node",
							"type": "bytes32"
						}
					],
					"name": "getOwner",
					"outputs": [
						{
							"internalType": "address",
							"name": "",
							"type": "address"
						}
					],
					"stateMutability": "view",
					"type": "function"
				},
				{
					"inputs": [
						{
							"internalType": "bytes",
							"name": "initializationParameters",
							"type": "bytes"
						}
					],
					"name": "initialize",
					"outputs": [],
					"stateMutability": "nonpayable",
					"type": "function"
				},
				{
					"inputs": [
						{
							"internalType": "address",
							"name": "addr",
							"type": "address"
						}
					],
					"name": "isOwner",
					"outputs": [
						{
							"internalType": "bool",
							"name": "",
							"type": "bool"
						}
					],
					"stateMutability": "view",
					"type": "function"
				},
				{
					"inputs": [],
					"name": "owner",
					"outputs": [
						{
							"internalType": "address",
							"name": "",
							"type": "address"
						}
					],
					"stateMutability": "view",
					"type": "function"
				},
				{
					"inputs": [
						{
							"internalType": "string",
							"name": "_name",
							"type": "string"
						},
						{
							"internalType": "address",
							"name": "_owner",
							"type": "address"
						},
						{
							"internalType": "bytes32",
							"name": "_zecreyPubKey",
							"type": "bytes32"
						}
					],
					"name": "registerZNS",
					"outputs": [],
					"stateMutability": "nonpayable",
					"type": "function"
				},
				{
					"inputs": [
						{
							"internalType": "address",
							"name": "_controller",
							"type": "address"
						}
					],
					"name": "removeController",
					"outputs": [],
					"stateMutability": "nonpayable",
					"type": "function"
				},
				{
					"inputs": [
						{
							"internalType": "address",
							"name": "_resolver",
							"type": "address"
						}
					],
					"name": "setThisResolver",
					"outputs": [],
					"stateMutability": "nonpayable",
					"type": "function"
				},
				{
					"inputs": [
						{
							"internalType": "bytes32",
							"name": "_zecreyPubKey",
							"type": "bytes32"
						}
					],
					"name": "setZecreyPubKey",
					"outputs": [],
					"stateMutability": "nonpayable",
					"type": "function"
				},
				{
					"inputs": [
						{
							"internalType": "address",
							"name": "newOwner",
							"type": "address"
						}
					],
					"name": "transferOwnership",
					"outputs": [],
					"stateMutability": "nonpayable",
					"type": "function"
				},
				{
					"inputs": [],
					"name": "zns",
					"outputs": [
						{
							"internalType": "contract ZNS",
							"name": "",
							"type": "address"
						}
					],
					"stateMutability": "view",
					"type": "function"
				}
			],
			"devdoc": {
				"kind": "dev",
				"methods": {
					"registerZNS(string,address,bytes32)": {
						"details": "Register a new node under base node if it not exists.",
						"params": {
							"_name": "The plaintext of the name to register",
							"_owner": "The address to receive this name",
							"_zecreyPubKey": "The L2 owner to receive this name"
						}
					}
				},
				"version": 1
			},
			"evm": {
				"assembly": "    /* \"contracts/ZNSFIFSRegistrar.sol\":287:4155  contract ZNSFIFSRegistrar is IBaseRegistrar, Ownable {... */\n  mstore(0x40, 0x80)\n  callvalue\n  dup1\n  iszero\n  tag_1\n  jumpi\n  0x00\n  dup1\n  revert\ntag_1:\n  pop\n    /* \"contracts/Ownable.sol\":318:323  owner */\n  0x00\n    /* \"contracts/Ownable.sol\":318:336  owner = msg.sender */\n  dup1\n  sload\n  not(sub(shl(0xa0, 0x01), 0x01))\n  and\n    /* \"contracts/Ownable.sol\":326:336  msg.sender */\n  caller\n    /* \"contracts/Ownable.sol\":318:336  owner = msg.sender */\n  or\n  swap1\n  sstore\n    /* \"contracts/ZNSFIFSRegistrar.sol\":287:4155  contract ZNSFIFSRegistrar is IBaseRegistrar, Ownable {... */\n  dataSize(sub_0)\n  dup1\n  dataOffset(sub_0)\n  0x00\n  codecopy\n  0x00\n  return\nstop\n\nsub_0: assembly {\n        /* \"contracts/ZNSFIFSRegistrar.sol\":287:4155  contract ZNSFIFSRegistrar is IBaseRegistrar, Ownable {... */\n      mstore(0x40, 0x80)\n      callvalue\n      dup1\n      iszero\n      tag_1\n      jumpi\n      0x00\n      dup1\n      revert\n    tag_1:\n      pop\n      jumpi(tag_2, lt(calldatasize, 0x04))\n      shr(0xe0, calldataload(0x00))\n      dup1\n      0xa7fc7a07\n      gt\n      tag_16\n      jumpi\n      dup1\n      0xddf7fcb0\n      gt\n      tag_17\n      jumpi\n      dup1\n      0xddf7fcb0\n      eq\n      tag_12\n      jumpi\n      dup1\n      0xdeb931a2\n      eq\n      tag_13\n      jumpi\n      dup1\n      0xf2fde38b\n      eq\n      tag_14\n      jumpi\n      dup1\n      0xf6a74ed7\n      eq\n      tag_15\n      jumpi\n      jump(tag_2)\n    tag_17:\n      dup1\n      0xa7fc7a07\n      eq\n      tag_9\n      jumpi\n      dup1\n      0xd7757da1\n      eq\n      tag_10\n      jumpi\n      dup1\n      0xda8c229e\n      eq\n      tag_11\n      jumpi\n      jump(tag_2)\n    tag_16:\n      dup1\n      0x2f54bf6e\n      eq\n      tag_3\n      jumpi\n      dup1\n      0x439fab91\n      eq\n      tag_4\n      jumpi\n      dup1\n      0x58ffb7fd\n      eq\n      tag_5\n      jumpi\n      dup1\n      0x5b817475\n      eq\n      tag_6\n      jumpi\n      dup1\n      0x7a0d942b\n      eq\n      tag_7\n      jumpi\n      dup1\n      0x8da5cb5b\n      eq\n      tag_8\n      jumpi\n    tag_2:\n      0x00\n      dup1\n      revert\n        /* \"contracts/Ownable.sol\":502:597  function isOwner(address addr) public view returns (bool) {... */\n    tag_3:\n      tag_18\n      0x04\n      dup1\n      calldatasize\n      sub\n      0x20\n      dup2\n      lt\n      iszero\n      tag_19\n      jumpi\n      0x00\n      dup1\n      revert\n    tag_19:\n      pop\n      calldataload\n      sub(shl(0xa0, 0x01), 0x01)\n      and\n      tag_20\n      jump\t// in\n    tag_18:\n      0x40\n      dup1\n      mload\n      swap2\n      iszero\n      iszero\n      dup3\n      mstore\n      mload\n      swap1\n      dup2\n      swap1\n      sub\n      0x20\n      add\n      swap1\n      return\n        /* \"contracts/ZNSFIFSRegistrar.sol\":1192:1466  function initialize(bytes calldata initializationParameters) external {... */\n    tag_4:\n      tag_21\n      0x04\n      dup1\n      calldatasize\n      sub\n      0x20\n      dup2\n      lt\n      iszero\n      tag_22\n      jumpi\n      0x00\n      dup1\n      revert\n    tag_22:\n      dup2\n      add\n      swap1\n      0x20\n      dup2\n      add\n      dup2\n      calldataload\n      0x0100000000\n      dup2\n      gt\n      iszero\n      tag_23\n      jumpi\n      0x00\n      dup1\n      revert\n    tag_23:\n      dup3\n      add\n      dup4\n      0x20\n      dup3\n      add\n      gt\n      iszero\n      tag_24\n      jumpi\n      0x00\n      dup1\n      revert\n    tag_24:\n      dup1\n      calldataload\n      swap1\n      0x20\n      add\n      swap2\n      dup5\n      0x01\n      dup4\n      mul\n      dup5\n      add\n      gt\n      0x0100000000\n      dup4\n      gt\n      or\n      iszero\n      tag_25\n      jumpi\n      0x00\n      dup1\n      revert\n    tag_25:\n      pop\n      swap1\n      swap3\n      pop\n      swap1\n      pop\n      tag_26\n      jump\t// in\n    tag_21:\n      stop\n        /* \"contracts/ZNSFIFSRegistrar.sol\":396:410  ZNS public zns */\n    tag_5:\n      tag_27\n      tag_28\n      jump\t// in\n    tag_27:\n      0x40\n      dup1\n      mload\n      sub(shl(0xa0, 0x01), 0x01)\n      swap1\n      swap3\n      and\n      dup3\n      mstore\n      mload\n      swap1\n      dup2\n      swap1\n      sub\n      0x20\n      add\n      swap1\n      return\n        /* \"contracts/ZNSFIFSRegistrar.sol\":2287:2424  function setZecreyPubKey(bytes32 _zecreyPubKey) external override onlyOwner {... */\n    tag_6:\n      tag_21\n      0x04\n      dup1\n      calldatasize\n      sub\n      0x20\n      dup2\n      lt\n      iszero\n      tag_30\n      jumpi\n      0x00\n      dup1\n      revert\n    tag_30:\n      pop\n      calldataload\n      tag_31\n      jump\t// in\n        /* \"contracts/ZNSFIFSRegistrar.sol\":2044:2169  function setThisResolver(address _resolver) external override onlyOwner {... */\n    tag_7:\n      tag_21\n      0x04\n      dup1\n      calldatasize\n      sub\n      0x20\n      dup2\n      lt\n      iszero\n      tag_33\n      jumpi\n      0x00\n      dup1\n      revert\n    tag_33:\n      pop\n      calldataload\n      sub(shl(0xa0, 0x01), 0x01)\n      and\n      tag_34\n      jump\t// in\n        /* \"contracts/Ownable.sol\":96:116  address public owner */\n    tag_8:\n      tag_27\n      tag_36\n      jump\t// in\n        /* \"contracts/ZNSFIFSRegistrar.sol\":1536:1699  function addController(address _controller) external override onlyOwner {... */\n    tag_9:\n      tag_21\n      0x04\n      dup1\n      calldatasize\n      sub\n      0x20\n      dup2\n      lt\n      iszero\n      tag_38\n      jumpi\n      0x00\n      dup1\n      revert\n    tag_38:\n      pop\n      calldataload\n      sub(shl(0xa0, 0x01), 0x01)\n      and\n      tag_39\n      jump\t// in\n        /* \"contracts/ZNSFIFSRegistrar.sol\":2794:3593  function registerZNS(string calldata _name, address _owner, bytes32 _zecreyPubKey) external override onlyController {... */\n    tag_10:\n      tag_21\n      0x04\n      dup1\n      calldatasize\n      sub\n      0x60\n      dup2\n      lt\n      iszero\n      tag_41\n      jumpi\n      0x00\n      dup1\n      revert\n    tag_41:\n      dup2\n      add\n      swap1\n      0x20\n      dup2\n      add\n      dup2\n      calldataload\n      0x0100000000\n      dup2\n      gt\n      iszero\n      tag_42\n      jumpi\n      0x00\n      dup1\n      revert\n    tag_42:\n      dup3\n      add\n      dup4\n      0x20\n      dup3\n      add\n      gt\n      iszero\n      tag_43\n      jumpi\n      0x00\n      dup1\n      revert\n    tag_43:\n      dup1\n      calldataload\n      swap1\n      0x20\n      add\n      swap2\n      dup5\n      0x01\n      dup4\n      mul\n      dup5\n      add\n      gt\n      0x0100000000\n      dup4\n      gt\n      or\n      iszero\n      tag_44\n      jumpi\n      0x00\n      dup1\n      revert\n    tag_44:\n      swap2\n      swap4\n      pop\n      swap2\n      pop\n      sub(shl(0xa0, 0x01), 0x01)\n      dup2\n      calldataload\n      and\n      swap1\n      0x20\n      add\n      calldataload\n      tag_45\n      jump\t// in\n        /* \"contracts/ZNSFIFSRegistrar.sol\":617:660  mapping(address => bool) public controllers */\n    tag_11:\n      tag_18\n      0x04\n      dup1\n      calldatasize\n      sub\n      0x20\n      dup2\n      lt\n      iszero\n      tag_47\n      jumpi\n      0x00\n      dup1\n      revert\n    tag_47:\n      pop\n      calldataload\n      sub(shl(0xa0, 0x01), 0x01)\n      and\n      tag_48\n      jump\t// in\n        /* \"contracts/ZNSFIFSRegistrar.sol\":496:519  bytes32 public baseNode */\n    tag_12:\n      tag_49\n      tag_50\n      jump\t// in\n    tag_49:\n      0x40\n      dup1\n      mload\n      swap2\n      dup3\n      mstore\n      mload\n      swap1\n      dup2\n      swap1\n      sub\n      0x20\n      add\n      swap1\n      return\n        /* \"contracts/ZNSFIFSRegistrar.sol\":2430:2532  function getOwner(bytes32 node) external view returns (address){... */\n    tag_13:\n      tag_27\n      0x04\n      dup1\n      calldatasize\n      sub\n      0x20\n      dup2\n      lt\n      iszero\n      tag_52\n      jumpi\n      0x00\n      dup1\n      revert\n    tag_52:\n      pop\n      calldataload\n      tag_53\n      jump\t// in\n        /* \"contracts/Ownable.sol\":349:496  function transferOwnership(address newOwner) public onlyOwner {... */\n    tag_14:\n      tag_21\n      0x04\n      dup1\n      calldatasize\n      sub\n      0x20\n      dup2\n      lt\n      iszero\n      tag_55\n      jumpi\n      0x00\n      dup1\n      revert\n    tag_55:\n      pop\n      calldataload\n      sub(shl(0xa0, 0x01), 0x01)\n      and\n      tag_56\n      jump\t// in\n        /* \"contracts/ZNSFIFSRegistrar.sol\":1757:1926  function removeController(address _controller) external override onlyOwner {... */\n    tag_15:\n      tag_21\n      0x04\n      dup1\n      calldatasize\n      sub\n      0x20\n      dup2\n      lt\n      iszero\n      tag_58\n      jumpi\n      0x00\n      dup1\n      revert\n    tag_58:\n      pop\n      calldataload\n      sub(shl(0xa0, 0x01), 0x01)\n      and\n      tag_59\n      jump\t// in\n        /* \"contracts/Ownable.sol\":502:597  function isOwner(address addr) public view returns (bool) {... */\n    tag_20:\n        /* \"contracts/Ownable.sol\":554:558  bool */\n      0x00\n        /* \"contracts/Ownable.sol\":577:582  owner */\n      sload\n      sub(shl(0xa0, 0x01), 0x01)\n        /* \"contracts/Ownable.sol\":577:590  owner == addr */\n      dup3\n      dup2\n      and\n        /* \"contracts/Ownable.sol\":577:582  owner */\n      swap2\n      and\n        /* \"contracts/Ownable.sol\":577:590  owner == addr */\n      eq\n        /* \"contracts/Ownable.sol\":502:597  function isOwner(address addr) public view returns (bool) {... */\n    tag_60:\n      swap2\n      swap1\n      pop\n      jump\t// out\n        /* \"contracts/ZNSFIFSRegistrar.sol\":1192:1466  function initialize(bytes calldata initializationParameters) external {... */\n    tag_26:\n        /* \"contracts/ZNSFIFSRegistrar.sol\":1273:1289  address _znsAddr */\n      0x00\n        /* \"contracts/ZNSFIFSRegistrar.sol\":1291:1304  bytes32 _node */\n      dup1\n        /* \"contracts/ZNSFIFSRegistrar.sol\":1319:1343  initializationParameters */\n      dup4\n      dup4\n        /* \"contracts/ZNSFIFSRegistrar.sol\":1308:1364  abi.decode(initializationParameters, (address, bytes32)) */\n      0x40\n      dup2\n      lt\n      iszero\n      tag_62\n      jumpi\n      0x00\n      dup1\n      revert\n    tag_62:\n      pop\n        /* \"contracts/ZNSFIFSRegistrar.sol\":1374:1377  zns */\n      0x01\n        /* \"contracts/ZNSFIFSRegistrar.sol\":1374:1393  zns = ZNS(_znsAddr) */\n      dup1\n      sload\n      not(sub(shl(0xa0, 0x01), 0x01))\n      and\n      sub(shl(0xa0, 0x01), 0x01)\n        /* \"contracts/ZNSFIFSRegistrar.sol\":1308:1364  abi.decode(initializationParameters, (address, bytes32)) */\n      dup4\n      calldataload\n      and\n        /* \"contracts/ZNSFIFSRegistrar.sol\":1374:1393  zns = ZNS(_znsAddr) */\n      or\n      dup2\n      sstore\n        /* \"contracts/ZNSFIFSRegistrar.sol\":1308:1364  abi.decode(initializationParameters, (address, bytes32)) */\n      0x20\n      swap2\n      dup3\n      add\n      calldataload\n        /* \"contracts/ZNSFIFSRegistrar.sol\":1403:1411  baseNode */\n      0x02\n        /* \"contracts/ZNSFIFSRegistrar.sol\":1403:1419  baseNode = _node */\n      sstore\n        /* \"contracts/ZNSFIFSRegistrar.sol\":1441:1451  msg.sender */\n      caller\n        /* \"contracts/ZNSFIFSRegistrar.sol\":1374:1377  zns */\n      0x00\n        /* \"contracts/ZNSFIFSRegistrar.sol\":1429:1452  controllers[msg.sender] */\n      swap1\n      dup2\n      mstore\n        /* \"contracts/ZNSFIFSRegistrar.sol\":1429:1440  controllers */\n      0x03\n        /* \"contracts/ZNSFIFSRegistrar.sol\":1429:1452  controllers[msg.sender] */\n      swap1\n      swap3\n      mstore\n        /* \"contracts/ZNSFIFSRegistrar.sol\":1308:1364  abi.decode(initializationParameters, (address, bytes32)) */\n      0x40\n        /* \"contracts/ZNSFIFSRegistrar.sol\":1429:1452  controllers[msg.sender] */\n      swap1\n      swap2\n      keccak256\n        /* \"contracts/ZNSFIFSRegistrar.sol\":1429:1459  controllers[msg.sender] = true */\n      dup1\n      sload\n      not(0xff)\n      and\n      swap1\n      swap2\n      or\n      swap1\n      sstore\n      pop\n      pop\n      pop\n      pop\n        /* \"contracts/ZNSFIFSRegistrar.sol\":1192:1466  function initialize(bytes calldata initializationParameters) external {... */\n      jump\t// out\n        /* \"contracts/ZNSFIFSRegistrar.sol\":396:410  ZNS public zns */\n    tag_28:\n      and(sub(shl(0xa0, 0x01), 0x01), sload(0x01))\n      dup2\n      jump\t// out\n        /* \"contracts/ZNSFIFSRegistrar.sol\":2287:2424  function setZecreyPubKey(bytes32 _zecreyPubKey) external override onlyOwner {... */\n    tag_31:\n        /* \"contracts/Ownable.sol\":250:269  isOwner(msg.sender) */\n      tag_64\n        /* \"contracts/Ownable.sol\":258:268  msg.sender */\n      caller\n        /* \"contracts/Ownable.sol\":250:257  isOwner */\n      tag_20\n        /* \"contracts/Ownable.sol\":250:269  isOwner(msg.sender) */\n      jump\t// in\n    tag_64:\n        /* \"contracts/Ownable.sol\":242:270  require(isOwner(msg.sender)) */\n      tag_65\n      jumpi\n      0x00\n      dup1\n      revert\n    tag_65:\n        /* \"contracts/ZNSFIFSRegistrar.sol\":2373:2376  zns */\n      sload(0x01)\n        /* \"contracts/ZNSFIFSRegistrar.sol\":2393:2401  baseNode */\n      sload(0x02)\n        /* \"contracts/ZNSFIFSRegistrar.sol\":2373:2417  zns.setZecreyPubKey(baseNode, _zecreyPubKey) */\n      0x40\n      dup1\n      mload\n      shl(0xe0, 0x86d5f0d9)\n      dup2\n      mstore\n      0x04\n      dup2\n      add\n      swap3\n      swap1\n      swap3\n      mstore\n      0x24\n      dup3\n      add\n      dup5\n      swap1\n      mstore\n      mload\n      sub(shl(0xa0, 0x01), 0x01)\n        /* \"contracts/ZNSFIFSRegistrar.sol\":2373:2376  zns */\n      swap1\n      swap3\n      and\n      swap2\n        /* \"contracts/ZNSFIFSRegistrar.sol\":2373:2392  zns.setZecreyPubKey */\n      0x86d5f0d9\n      swap2\n        /* \"contracts/ZNSFIFSRegistrar.sol\":2373:2417  zns.setZecreyPubKey(baseNode, _zecreyPubKey) */\n      0x44\n      dup1\n      dup3\n      add\n      swap3\n        /* \"contracts/ZNSFIFSRegistrar.sol\":2373:2376  zns */\n      0x00\n      swap3\n        /* \"contracts/ZNSFIFSRegistrar.sol\":2373:2417  zns.setZecreyPubKey(baseNode, _zecreyPubKey) */\n      swap1\n      swap2\n      swap1\n      dup3\n      swap1\n      sub\n      add\n      dup2\n        /* \"contracts/ZNSFIFSRegistrar.sol\":2373:2376  zns */\n      dup4\n      dup8\n        /* \"contracts/ZNSFIFSRegistrar.sol\":2373:2417  zns.setZecreyPubKey(baseNode, _zecreyPubKey) */\n      dup1\n      extcodesize\n      iszero\n      dup1\n      iszero\n      tag_67\n      jumpi\n      0x00\n      dup1\n      revert\n    tag_67:\n      pop\n      gas\n      call\n      iszero\n      dup1\n      iszero\n      tag_69\n      jumpi\n      returndatasize\n      0x00\n      dup1\n      returndatacopy\n      revert(0x00, returndatasize)\n    tag_69:\n      pop\n      pop\n      pop\n      pop\n        /* \"contracts/ZNSFIFSRegistrar.sol\":2287:2424  function setZecreyPubKey(bytes32 _zecreyPubKey) external override onlyOwner {... */\n      pop\n      jump\t// out\n        /* \"contracts/ZNSFIFSRegistrar.sol\":2044:2169  function setThisResolver(address _resolver) external override onlyOwner {... */\n    tag_34:\n        /* \"contracts/Ownable.sol\":250:269  isOwner(msg.sender) */\n      tag_71\n        /* \"contracts/Ownable.sol\":258:268  msg.sender */\n      caller\n        /* \"contracts/Ownable.sol\":250:257  isOwner */\n      tag_20\n        /* \"contracts/Ownable.sol\":250:269  isOwner(msg.sender) */\n      jump\t// in\n    tag_71:\n        /* \"contracts/Ownable.sol\":242:270  require(isOwner(msg.sender)) */\n      tag_72\n      jumpi\n      0x00\n      dup1\n      revert\n    tag_72:\n        /* \"contracts/ZNSFIFSRegistrar.sol\":2126:2129  zns */\n      sload(0x01)\n        /* \"contracts/ZNSFIFSRegistrar.sol\":2142:2150  baseNode */\n      sload(0x02)\n        /* \"contracts/ZNSFIFSRegistrar.sol\":2126:2162  zns.setResolver(baseNode, _resolver) */\n      0x40\n      dup1\n      mload\n      shl(0xe1, 0x0c4b7b85)\n      dup2\n      mstore\n      0x04\n      dup2\n      add\n      swap3\n      swap1\n      swap3\n      mstore\n      sub(shl(0xa0, 0x01), 0x01)\n      dup5\n      dup2\n      and\n      0x24\n      dup5\n      add\n      mstore\n      swap1\n      mload\n        /* \"contracts/ZNSFIFSRegistrar.sol\":2126:2129  zns */\n      swap3\n      and\n      swap2\n        /* \"contracts/ZNSFIFSRegistrar.sol\":2126:2141  zns.setResolver */\n      0x1896f70a\n      swap2\n        /* \"contracts/ZNSFIFSRegistrar.sol\":2126:2162  zns.setResolver(baseNode, _resolver) */\n      0x44\n      dup1\n      dup3\n      add\n      swap3\n        /* \"contracts/ZNSFIFSRegistrar.sol\":2126:2129  zns */\n      0x00\n      swap3\n        /* \"contracts/ZNSFIFSRegistrar.sol\":2126:2162  zns.setResolver(baseNode, _resolver) */\n      swap1\n      swap2\n      swap1\n      dup3\n      swap1\n      sub\n      add\n      dup2\n        /* \"contracts/ZNSFIFSRegistrar.sol\":2126:2129  zns */\n      dup4\n      dup8\n        /* \"contracts/ZNSFIFSRegistrar.sol\":2126:2162  zns.setResolver(baseNode, _resolver) */\n      dup1\n      extcodesize\n      iszero\n      dup1\n      iszero\n      tag_67\n      jumpi\n      0x00\n      dup1\n      revert\n        /* \"contracts/Ownable.sol\":96:116  address public owner */\n    tag_36:\n      and(sub(shl(0xa0, 0x01), 0x01), sload(0x00))\n      dup2\n      jump\t// out\n        /* \"contracts/ZNSFIFSRegistrar.sol\":1536:1699  function addController(address _controller) external override onlyOwner {... */\n    tag_39:\n        /* \"contracts/Ownable.sol\":250:269  isOwner(msg.sender) */\n      tag_78\n        /* \"contracts/Ownable.sol\":258:268  msg.sender */\n      caller\n        /* \"contracts/Ownable.sol\":250:257  isOwner */\n      tag_20\n        /* \"contracts/Ownable.sol\":250:269  isOwner(msg.sender) */\n      jump\t// in\n    tag_78:\n        /* \"contracts/Ownable.sol\":242:270  require(isOwner(msg.sender)) */\n      tag_79\n      jumpi\n      0x00\n      dup1\n      revert\n    tag_79:\n      sub(shl(0xa0, 0x01), 0x01)\n        /* \"contracts/ZNSFIFSRegistrar.sol\":1618:1642  controllers[_controller] */\n      dup2\n      and\n      0x00\n      dup2\n      dup2\n      mstore\n        /* \"contracts/ZNSFIFSRegistrar.sol\":1618:1629  controllers */\n      0x03\n        /* \"contracts/ZNSFIFSRegistrar.sol\":1618:1642  controllers[_controller] */\n      0x20\n      mstore\n      0x40\n      dup1\n      dup3\n      keccak256\n        /* \"contracts/ZNSFIFSRegistrar.sol\":1618:1649  controllers[_controller] = true */\n      dup1\n      sload\n      not(0xff)\n      and\n        /* \"contracts/ZNSFIFSRegistrar.sol\":1645:1649  true */\n      0x01\n        /* \"contracts/ZNSFIFSRegistrar.sol\":1618:1649  controllers[_controller] = true */\n      or\n      swap1\n      sstore\n        /* \"contracts/ZNSFIFSRegistrar.sol\":1664:1692  ControllerAdded(_controller) */\n      mload\n      0x0a8bb31534c0ed46f380cb867bd5c803a189ced9a764e30b3a4991a9901d7474\n      swap2\n        /* \"contracts/ZNSFIFSRegistrar.sol\":1618:1642  controllers[_controller] */\n      swap1\n        /* \"contracts/ZNSFIFSRegistrar.sol\":1664:1692  ControllerAdded(_controller) */\n      log2\n        /* \"contracts/ZNSFIFSRegistrar.sol\":1536:1699  function addController(address _controller) external override onlyOwner {... */\n      pop\n      jump\t// out\n        /* \"contracts/ZNSFIFSRegistrar.sol\":2794:3593  function registerZNS(string calldata _name, address _owner, bytes32 _zecreyPubKey) external override onlyController {... */\n    tag_45:\n        /* \"contracts/ZNSFIFSRegistrar.sol\":890:900  msg.sender */\n      caller\n        /* \"contracts/ZNSFIFSRegistrar.sol\":878:901  controllers[msg.sender] */\n      0x00\n      swap1\n      dup2\n      mstore\n        /* \"contracts/ZNSFIFSRegistrar.sol\":878:889  controllers */\n      0x03\n        /* \"contracts/ZNSFIFSRegistrar.sol\":878:901  controllers[msg.sender] */\n      0x20\n      mstore\n      0x40\n      swap1\n      keccak256\n      sload\n      0xff\n      and\n        /* \"contracts/ZNSFIFSRegistrar.sol\":870:902  require(controllers[msg.sender]) */\n      tag_82\n      jumpi\n      0x00\n      dup1\n      revert\n    tag_82:\n        /* \"contracts/ZNSFIFSRegistrar.sol\":2967:2980  _valid(_name) */\n      tag_84\n        /* \"contracts/ZNSFIFSRegistrar.sol\":2974:2979  _name */\n      dup5\n      dup5\n        /* \"contracts/ZNSFIFSRegistrar.sol\":2967:2980  _valid(_name) */\n      dup1\n      dup1\n      0x1f\n      add\n      0x20\n      dup1\n      swap2\n      div\n      mul\n      0x20\n      add\n      mload(0x40)\n      swap1\n      dup2\n      add\n      0x40\n      mstore\n      dup1\n      swap4\n      swap3\n      swap2\n      swap1\n      dup2\n      dup2\n      mstore\n      0x20\n      add\n      dup4\n      dup4\n      dup1\n      dup3\n      dup5\n      calldatacopy\n      0x00\n      swap3\n      add\n      swap2\n      swap1\n      swap2\n      mstore\n      pop\n        /* \"contracts/ZNSFIFSRegistrar.sol\":2967:2973  _valid */\n      tag_85\n      swap3\n      pop\n      pop\n      pop\n        /* \"contracts/ZNSFIFSRegistrar.sol\":2967:2980  _valid(_name) */\n      jump\t// in\n    tag_84:\n        /* \"contracts/ZNSFIFSRegistrar.sol\":2959:2997  require(_valid(_name), \"invalid name\") */\n      tag_86\n      jumpi\n      0x40\n      dup1\n      mload\n      shl(0xe5, 0x461bcd)\n      dup2\n      mstore\n      0x20\n      0x04\n      dup3\n      add\n      mstore\n      0x0c\n      0x24\n      dup3\n      add\n      mstore\n      shl(0xa0, 0x696e76616c6964206e616d65)\n      0x44\n      dup3\n      add\n      mstore\n      swap1\n      mload\n      swap1\n      dup2\n      swap1\n      sub\n      0x64\n      add\n      swap1\n      revert\n    tag_86:\n        /* \"contracts/ZNSFIFSRegistrar.sol\":3071:3104  _validZecreyPubKey(_zecreyPubKey) */\n      tag_87\n        /* \"contracts/ZNSFIFSRegistrar.sol\":3090:3103  _zecreyPubKey */\n      dup2\n        /* \"contracts/ZNSFIFSRegistrar.sol\":3071:3089  _validZecreyPubKey */\n      tag_88\n        /* \"contracts/ZNSFIFSRegistrar.sol\":3071:3104  _validZecreyPubKey(_zecreyPubKey) */\n      jump\t// in\n    tag_87:\n        /* \"contracts/ZNSFIFSRegistrar.sol\":3063:3125  require(_validZecreyPubKey(_zecreyPubKey), \"L2 owner existed\") */\n      tag_89\n      jumpi\n      0x40\n      dup1\n      mload\n      shl(0xe5, 0x461bcd)\n      dup2\n      mstore\n      0x20\n      0x04\n      dup3\n      add\n      mstore\n      0x10\n      0x24\n      dup3\n      add\n      mstore\n      shl(0x82, 0x130c881bdddb995c88195e1a5cdd1959)\n      0x44\n      dup3\n      add\n      mstore\n      swap1\n      mload\n      swap1\n      dup2\n      swap1\n      sub\n      0x64\n      add\n      swap1\n      revert\n    tag_89:\n        /* \"contracts/ZNSFIFSRegistrar.sol\":3165:3178  bytes32 label */\n      0x00\n        /* \"contracts/ZNSFIFSRegistrar.sol\":3197:3202  _name */\n      dup5\n      dup5\n        /* \"contracts/ZNSFIFSRegistrar.sol\":3181:3204  keccak256(bytes(_name)) */\n      mload(0x40)\n      dup1\n      dup4\n      dup4\n      dup1\n      dup3\n      dup5\n      calldatacopy\n      0x40\n      dup1\n      mload\n      swap2\n      swap1\n      swap4\n      add\n      dup2\n      swap1\n      sub\n      dup2\n      keccak256\n        /* \"contracts/ZNSFIFSRegistrar.sol\":3279:3282  zns */\n      sload(0x01)\n        /* \"contracts/ZNSFIFSRegistrar.sol\":3303:3311  baseNode */\n      sload(0x02)\n      shl(0xe0, 0x212a6bcd)\n        /* \"contracts/ZNSFIFSRegistrar.sol\":3279:3319  zns.subNodeRecordExists(baseNode, label) */\n      dup5\n      mstore\n      0x04\n      dup5\n      add\n      mstore\n      0x24\n      dup4\n      add\n      dup3\n      swap1\n      mstore\n      swap4\n      mload\n        /* \"contracts/ZNSFIFSRegistrar.sol\":3181:3204  keccak256(bytes(_name)) */\n      swap1\n      swap8\n      pop\n      sub(shl(0xa0, 0x01), 0x01)\n        /* \"contracts/ZNSFIFSRegistrar.sol\":3279:3282  zns */\n      swap1\n      swap4\n      and\n      swap6\n      pop\n        /* \"contracts/ZNSFIFSRegistrar.sol\":3279:3302  zns.subNodeRecordExists */\n      0x212a6bcd\n      swap5\n      pop\n        /* \"contracts/ZNSFIFSRegistrar.sol\":3279:3319  zns.subNodeRecordExists(baseNode, label) */\n      0x44\n      dup1\n      dup3\n      add\n      swap5\n      pop\n      0x20\n      swap4\n      swap3\n      pop\n      swap1\n      dup3\n      swap1\n      sub\n      add\n      dup2\n        /* \"contracts/ZNSFIFSRegistrar.sol\":3279:3282  zns */\n      dup7\n        /* \"contracts/ZNSFIFSRegistrar.sol\":3279:3319  zns.subNodeRecordExists(baseNode, label) */\n      dup1\n      extcodesize\n      iszero\n      dup1\n      iszero\n      tag_90\n      jumpi\n      0x00\n      dup1\n      revert\n    tag_90:\n      pop\n      gas\n      staticcall\n      iszero\n      dup1\n      iszero\n      tag_92\n      jumpi\n      returndatasize\n      0x00\n      dup1\n      returndatacopy\n      revert(0x00, returndatasize)\n    tag_92:\n      pop\n      pop\n      pop\n      pop\n      mload(0x40)\n      returndatasize\n      0x20\n      dup2\n      lt\n      iszero\n      tag_93\n      jumpi\n      0x00\n      dup1\n      revert\n    tag_93:\n      pop\n      mload\n        /* \"contracts/ZNSFIFSRegistrar.sol\":3278:3319  !zns.subNodeRecordExists(baseNode, label) */\n      iszero\n        /* \"contracts/ZNSFIFSRegistrar.sol\":3270:3339  require(!zns.subNodeRecordExists(baseNode, label), \"subnode existed\") */\n      tag_94\n      jumpi\n      0x40\n      dup1\n      mload\n      shl(0xe5, 0x461bcd)\n      dup2\n      mstore\n      0x20\n      0x04\n      dup3\n      add\n      mstore\n      0x0f\n      0x24\n      dup3\n      add\n      mstore\n      shl(0x8a, 0x1cdd589b9bd91948195e1a5cdd1959)\n      0x44\n      dup3\n      add\n      mstore\n      swap1\n      mload\n      swap1\n      dup2\n      swap1\n      sub\n      0x64\n      add\n      swap1\n      revert\n    tag_94:\n        /* \"contracts/ZNSFIFSRegistrar.sol\":3368:3371  zns */\n      sload(0x01)\n        /* \"contracts/ZNSFIFSRegistrar.sol\":3388:3396  baseNode */\n      sload(0x02)\n        /* \"contracts/ZNSFIFSRegistrar.sol\":3368:3427  zns.setSubnodeOwner(baseNode, label, _owner, _zecreyPubKey) */\n      0x40\n      dup1\n      mload\n      shl(0xe3, 0x1c98504f)\n      dup2\n      mstore\n      0x04\n      dup2\n      add\n      swap3\n      swap1\n      swap3\n      mstore\n      0x24\n      dup3\n      add\n      dup5\n      swap1\n      mstore\n      sub(shl(0xa0, 0x01), 0x01)\n      dup7\n      dup2\n      and\n      0x44\n      dup5\n      add\n      mstore\n      0x64\n      dup4\n      add\n      dup7\n      swap1\n      mstore\n      swap1\n      mload\n        /* \"contracts/ZNSFIFSRegistrar.sol\":3350:3365  bytes32 subnode */\n      0x00\n      swap4\n        /* \"contracts/ZNSFIFSRegistrar.sol\":3368:3371  zns */\n      swap2\n      swap1\n      swap2\n      and\n      swap2\n        /* \"contracts/ZNSFIFSRegistrar.sol\":3368:3387  zns.setSubnodeOwner */\n      0xe4c28278\n      swap2\n        /* \"contracts/ZNSFIFSRegistrar.sol\":3368:3427  zns.setSubnodeOwner(baseNode, label, _owner, _zecreyPubKey) */\n      0x84\n      dup1\n      dup4\n      add\n      swap3\n      0x20\n      swap3\n      swap2\n      swap1\n      dup3\n      swap1\n      sub\n      add\n      dup2\n        /* \"contracts/ZNSFIFSRegistrar.sol\":3350:3365  bytes32 subnode */\n      dup8\n        /* \"contracts/ZNSFIFSRegistrar.sol\":3368:3371  zns */\n      dup8\n        /* \"contracts/ZNSFIFSRegistrar.sol\":3368:3427  zns.setSubnodeOwner(baseNode, label, _owner, _zecreyPubKey) */\n      dup1\n      extcodesize\n      iszero\n      dup1\n      iszero\n      tag_95\n      jumpi\n      0x00\n      dup1\n      revert\n    tag_95:\n      pop\n      gas\n      call\n      iszero\n      dup1\n      iszero\n      tag_97\n      jumpi\n      returndatasize\n      0x00\n      dup1\n      returndatacopy\n      revert(0x00, returndatasize)\n    tag_97:\n      pop\n      pop\n      pop\n      pop\n      mload(0x40)\n      returndatasize\n      0x20\n      dup2\n      lt\n      iszero\n      tag_98\n      jumpi\n      0x00\n      dup1\n      revert\n    tag_98:\n      pop\n      mload\n        /* \"contracts/ZNSFIFSRegistrar.sol\":3472:3508  ZNSZecreyPubKeyMapper[_zecreyPubKey] */\n      0x00\n      dup5\n      dup2\n      mstore\n        /* \"contracts/ZNSFIFSRegistrar.sol\":3472:3493  ZNSZecreyPubKeyMapper */\n      0x04\n        /* \"contracts/ZNSFIFSRegistrar.sol\":3368:3427  zns.setSubnodeOwner(baseNode, label, _owner, _zecreyPubKey) */\n      0x20\n        /* \"contracts/ZNSFIFSRegistrar.sol\":3472:3508  ZNSZecreyPubKeyMapper[_zecreyPubKey] */\n      swap1\n      dup2\n      mstore\n      0x40\n      swap2\n      dup3\n      swap1\n      keccak256\n        /* \"contracts/ZNSFIFSRegistrar.sol\":3472:3518  ZNSZecreyPubKeyMapper[_zecreyPubKey] = subnode */\n      dup4\n      swap1\n      sstore\n        /* \"contracts/ZNSFIFSRegistrar.sol\":3534:3586  ZNSRegistered(_name, subnode, _owner, _zecreyPubKey) */\n      dup2\n      mload\n      swap1\n      dup2\n      add\n      dup4\n      swap1\n      mstore\n      sub(shl(0xa0, 0x01), 0x01)\n      dup8\n      and\n      swap2\n      dup2\n      add\n      swap2\n      swap1\n      swap2\n      mstore\n      0x60\n      dup2\n      add\n      dup6\n      swap1\n      mstore\n      0x80\n      dup1\n      dup3\n      mstore\n      dup2\n      add\n      dup8\n      swap1\n      mstore\n        /* \"contracts/ZNSFIFSRegistrar.sol\":3368:3427  zns.setSubnodeOwner(baseNode, label, _owner, _zecreyPubKey) */\n      swap1\n      swap2\n      pop\n        /* \"contracts/ZNSFIFSRegistrar.sol\":3534:3586  ZNSRegistered(_name, subnode, _owner, _zecreyPubKey) */\n      0x36e1387993e62301c322576ae290f9934f5eb108709972fb6a5892e18544a08b\n      swap1\n        /* \"contracts/ZNSFIFSRegistrar.sol\":3548:3553  _name */\n      dup8\n      swap1\n      dup8\n      swap1\n        /* \"contracts/ZNSFIFSRegistrar.sol\":3368:3427  zns.setSubnodeOwner(baseNode, label, _owner, _zecreyPubKey) */\n      dup5\n      swap1\n        /* \"contracts/ZNSFIFSRegistrar.sol\":3564:3570  _owner */\n      dup9\n      swap1\n        /* \"contracts/ZNSFIFSRegistrar.sol\":3494:3507  _zecreyPubKey */\n      dup9\n      swap1\n        /* \"contracts/ZNSFIFSRegistrar.sol\":3534:3586  ZNSRegistered(_name, subnode, _owner, _zecreyPubKey) */\n      dup1\n      0xa0\n      dup2\n      add\n        /* \"contracts/ZNSFIFSRegistrar.sol\":3548:3553  _name */\n      dup8\n      dup8\n      dup1\n      dup3\n        /* \"contracts/ZNSFIFSRegistrar.sol\":3534:3586  ZNSRegistered(_name, subnode, _owner, _zecreyPubKey) */\n      dup5\n      calldatacopy\n      0x00\n      dup4\n      dup3\n      add\n      mstore\n      mload(0x40)\n      0x1f\n      swap1\n      swap2\n      add\n      not(0x1f)\n      and\n      swap1\n      swap3\n      add\n      dup3\n      swap1\n      sub\n      swap9\n      pop\n      swap1\n      swap7\n      pop\n      pop\n      pop\n      pop\n      pop\n      pop\n      pop\n      log1\n        /* \"contracts/ZNSFIFSRegistrar.sol\":912:913  _ */\n      pop\n      pop\n        /* \"contracts/ZNSFIFSRegistrar.sol\":2794:3593  function registerZNS(string calldata _name, address _owner, bytes32 _zecreyPubKey) external override onlyController {... */\n      pop\n      pop\n      pop\n      pop\n      jump\t// out\n        /* \"contracts/ZNSFIFSRegistrar.sol\":617:660  mapping(address => bool) public controllers */\n    tag_48:\n      mstore(0x20, 0x03)\n      0x00\n      swap1\n      dup2\n      mstore\n      0x40\n      swap1\n      keccak256\n      sload\n      0xff\n      and\n      dup2\n      jump\t// out\n        /* \"contracts/ZNSFIFSRegistrar.sol\":496:519  bytes32 public baseNode */\n    tag_50:\n      sload(0x02)\n      dup2\n      jump\t// out\n        /* \"contracts/ZNSFIFSRegistrar.sol\":2430:2532  function getOwner(bytes32 node) external view returns (address){... */\n    tag_53:\n        /* \"contracts/ZNSFIFSRegistrar.sol\":2510:2513  zns */\n      sload(0x01)\n        /* \"contracts/ZNSFIFSRegistrar.sol\":2510:2525  zns.owner(node) */\n      0x40\n      dup1\n      mload\n      shl(0xe0, 0x02571be3)\n      dup2\n      mstore\n      0x04\n      dup2\n      add\n      dup5\n      swap1\n      mstore\n      swap1\n      mload\n        /* \"contracts/ZNSFIFSRegistrar.sol\":2485:2492  address */\n      0x00\n      swap3\n      sub(shl(0xa0, 0x01), 0x01)\n        /* \"contracts/ZNSFIFSRegistrar.sol\":2510:2513  zns */\n      and\n      swap2\n        /* \"contracts/ZNSFIFSRegistrar.sol\":2510:2519  zns.owner */\n      0x02571be3\n      swap2\n        /* \"contracts/ZNSFIFSRegistrar.sol\":2510:2525  zns.owner(node) */\n      0x24\n      dup1\n      dup4\n      add\n      swap3\n      0x20\n      swap3\n      swap2\n      swap1\n      dup3\n      swap1\n      sub\n      add\n      dup2\n        /* \"contracts/ZNSFIFSRegistrar.sol\":2510:2513  zns */\n      dup7\n        /* \"contracts/ZNSFIFSRegistrar.sol\":2510:2525  zns.owner(node) */\n      dup1\n      extcodesize\n      iszero\n      dup1\n      iszero\n      tag_100\n      jumpi\n      0x00\n      dup1\n      revert\n    tag_100:\n      pop\n      gas\n      staticcall\n      iszero\n      dup1\n      iszero\n      tag_102\n      jumpi\n      returndatasize\n      0x00\n      dup1\n      returndatacopy\n      revert(0x00, returndatasize)\n    tag_102:\n      pop\n      pop\n      pop\n      pop\n      mload(0x40)\n      returndatasize\n      0x20\n      dup2\n      lt\n      iszero\n      tag_103\n      jumpi\n      0x00\n      dup1\n      revert\n    tag_103:\n      pop\n      mload\n      swap3\n        /* \"contracts/ZNSFIFSRegistrar.sol\":2430:2532  function getOwner(bytes32 node) external view returns (address){... */\n      swap2\n      pop\n      pop\n      jump\t// out\n        /* \"contracts/Ownable.sol\":349:496  function transferOwnership(address newOwner) public onlyOwner {... */\n    tag_56:\n        /* \"contracts/Ownable.sol\":250:269  isOwner(msg.sender) */\n      tag_105\n        /* \"contracts/Ownable.sol\":258:268  msg.sender */\n      caller\n        /* \"contracts/Ownable.sol\":250:257  isOwner */\n      tag_20\n        /* \"contracts/Ownable.sol\":250:269  isOwner(msg.sender) */\n      jump\t// in\n    tag_105:\n        /* \"contracts/Ownable.sol\":242:270  require(isOwner(msg.sender)) */\n      tag_106\n      jumpi\n      0x00\n      dup1\n      revert\n    tag_106:\n        /* \"contracts/Ownable.sol\":447:452  owner */\n      0x00\n      dup1\n      sload\n        /* \"contracts/Ownable.sol\":426:463  OwnershipTransferred(owner, newOwner) */\n      mload(0x40)\n      sub(shl(0xa0, 0x01), 0x01)\n      dup1\n      dup6\n      and\n      swap4\n        /* \"contracts/Ownable.sol\":447:452  owner */\n      swap3\n      and\n      swap2\n        /* \"contracts/Ownable.sol\":426:463  OwnershipTransferred(owner, newOwner) */\n      0x8be0079c531659141344cd1fd0a4f28419497f9722a3daafe3b4186f6b6457e0\n      swap2\n      log3\n        /* \"contracts/Ownable.sol\":473:478  owner */\n      0x00\n        /* \"contracts/Ownable.sol\":473:489  owner = newOwner */\n      dup1\n      sload\n      not(sub(shl(0xa0, 0x01), 0x01))\n      and\n      sub(shl(0xa0, 0x01), 0x01)\n      swap3\n      swap1\n      swap3\n      and\n      swap2\n      swap1\n      swap2\n      or\n      swap1\n      sstore\n        /* \"contracts/Ownable.sol\":349:496  function transferOwnership(address newOwner) public onlyOwner {... */\n      jump\t// out\n        /* \"contracts/ZNSFIFSRegistrar.sol\":1757:1926  function removeController(address _controller) external override onlyOwner {... */\n    tag_59:\n        /* \"contracts/Ownable.sol\":250:269  isOwner(msg.sender) */\n      tag_109\n        /* \"contracts/Ownable.sol\":258:268  msg.sender */\n      caller\n        /* \"contracts/Ownable.sol\":250:257  isOwner */\n      tag_20\n        /* \"contracts/Ownable.sol\":250:269  isOwner(msg.sender) */\n      jump\t// in\n    tag_109:\n        /* \"contracts/Ownable.sol\":242:270  require(isOwner(msg.sender)) */\n      tag_110\n      jumpi\n      0x00\n      dup1\n      revert\n    tag_110:\n      sub(shl(0xa0, 0x01), 0x01)\n        /* \"contracts/ZNSFIFSRegistrar.sol\":1842:1866  controllers[_controller] */\n      dup2\n      and\n        /* \"contracts/ZNSFIFSRegistrar.sol\":1869:1874  false */\n      0x00\n        /* \"contracts/ZNSFIFSRegistrar.sol\":1842:1866  controllers[_controller] */\n      dup2\n      dup2\n      mstore\n        /* \"contracts/ZNSFIFSRegistrar.sol\":1842:1853  controllers */\n      0x03\n        /* \"contracts/ZNSFIFSRegistrar.sol\":1842:1866  controllers[_controller] */\n      0x20\n      mstore\n      0x40\n      dup1\n      dup3\n      keccak256\n        /* \"contracts/ZNSFIFSRegistrar.sol\":1842:1874  controllers[_controller] = false */\n      dup1\n      sload\n      not(0xff)\n      and\n      swap1\n      sstore\n        /* \"contracts/ZNSFIFSRegistrar.sol\":1889:1919  ControllerRemoved(_controller) */\n      mload\n      0x33d83959be2573f5453b12eb9d43b3499bc57d96bd2f067ba44803c859e81113\n      swap2\n        /* \"contracts/ZNSFIFSRegistrar.sol\":1869:1874  false */\n      swap1\n        /* \"contracts/ZNSFIFSRegistrar.sol\":1889:1919  ControllerRemoved(_controller) */\n      log2\n        /* \"contracts/ZNSFIFSRegistrar.sol\":1757:1926  function removeController(address _controller) external override onlyOwner {... */\n      pop\n      jump\t// out\n        /* \"contracts/ZNSFIFSRegistrar.sol\":3599:3732  function _valid(string memory _name) internal pure returns (bool) {... */\n    tag_85:\n        /* \"contracts/ZNSFIFSRegistrar.sol\":3659:3663  bool */\n      0x00\n        /* \"contracts/ZNSFIFSRegistrar.sol\":3682:3702  _validCharset(_name) */\n      tag_113\n        /* \"contracts/ZNSFIFSRegistrar.sol\":3696:3701  _name */\n      dup3\n        /* \"contracts/ZNSFIFSRegistrar.sol\":3682:3695  _validCharset */\n      tag_114\n        /* \"contracts/ZNSFIFSRegistrar.sol\":3682:3702  _validCharset(_name) */\n      jump\t// in\n    tag_113:\n        /* \"contracts/ZNSFIFSRegistrar.sol\":3682:3725  _validCharset(_name) && _validLength(_name) */\n      dup1\n      iszero\n      tag_116\n      jumpi\n      pop\n        /* \"contracts/ZNSFIFSRegistrar.sol\":3706:3725  _validLength(_name) */\n      tag_116\n        /* \"contracts/ZNSFIFSRegistrar.sol\":3719:3724  _name */\n      dup3\n        /* \"contracts/ZNSFIFSRegistrar.sol\":3706:3718  _validLength */\n      tag_117\n        /* \"contracts/ZNSFIFSRegistrar.sol\":3706:3725  _validLength(_name) */\n      jump\t// in\n    tag_116:\n        /* \"contracts/ZNSFIFSRegistrar.sol\":3675:3725  return _validCharset(_name) && _validLength(_name) */\n      swap3\n        /* \"contracts/ZNSFIFSRegistrar.sol\":3599:3732  function _valid(string memory _name) internal pure returns (bool) {... */\n      swap2\n      pop\n      pop\n      jump\t// out\n        /* \"contracts/ZNSFIFSRegistrar.sol\":4006:4153  function _validZecreyPubKey(bytes32 _zecreyPubKey) internal view returns (bool) {... */\n    tag_88:\n        /* \"contracts/ZNSFIFSRegistrar.sol\":4080:4084  bool */\n      0x00\n        /* \"contracts/ZNSFIFSRegistrar.sol\":4103:4139  ZNSZecreyPubKeyMapper[_zecreyPubKey] */\n      swap1\n      dup2\n      mstore\n        /* \"contracts/ZNSFIFSRegistrar.sol\":4103:4124  ZNSZecreyPubKeyMapper */\n      0x04\n        /* \"contracts/ZNSFIFSRegistrar.sol\":4103:4139  ZNSZecreyPubKeyMapper[_zecreyPubKey] */\n      0x20\n      mstore\n      0x40\n      swap1\n      keccak256\n      sload\n        /* \"contracts/ZNSFIFSRegistrar.sol\":4103:4146  ZNSZecreyPubKeyMapper[_zecreyPubKey] == 0x0 */\n      iszero\n      swap1\n        /* \"contracts/ZNSFIFSRegistrar.sol\":4006:4153  function _validZecreyPubKey(bytes32 _zecreyPubKey) internal view returns (bool) {... */\n      jump\t// out\n        /* \"contracts/ZNSFIFSRegistrar.sol\":3738:3855  function _validCharset(string memory _name) internal pure returns (bool) {... */\n    tag_114:\n        /* \"contracts/ZNSFIFSRegistrar.sol\":3805:3809  bool */\n      0x00\n        /* \"contracts/ZNSFIFSRegistrar.sol\":3828:3848  _name.charsetValid() */\n      tag_116\n        /* \"contracts/ZNSFIFSRegistrar.sol\":3828:3833  _name */\n      dup3\n        /* \"contracts/ZNSFIFSRegistrar.sol\":3828:3846  _name.charsetValid */\n      tag_121\n        /* \"contracts/ZNSFIFSRegistrar.sol\":3828:3848  _name.charsetValid() */\n      jump\t// in\n        /* \"contracts/ZNSFIFSRegistrar.sol\":3861:4000  function _validLength(string memory _name) internal pure returns (bool) {... */\n    tag_117:\n        /* \"contracts/ZNSFIFSRegistrar.sol\":3927:3931  bool */\n      0x00\n        /* \"contracts/ZNSFIFSRegistrar.sol\":3968:3969  3 */\n      0x03\n        /* \"contracts/ZNSFIFSRegistrar.sol\":3950:3964  _name.strlen() */\n      tag_123\n        /* \"contracts/ZNSFIFSRegistrar.sol\":3950:3955  _name */\n      dup4\n        /* \"contracts/ZNSFIFSRegistrar.sol\":3950:3962  _name.strlen */\n      tag_124\n        /* \"contracts/ZNSFIFSRegistrar.sol\":3950:3964  _name.strlen() */\n      jump\t// in\n    tag_123:\n        /* \"contracts/ZNSFIFSRegistrar.sol\":3950:3969  _name.strlen() >= 3 */\n      lt\n      iszero\n        /* \"contracts/ZNSFIFSRegistrar.sol\":3950:3993  _name.strlen() >= 3 && _name.strlen() <= 32 */\n      dup1\n      iszero\n      tag_116\n      jumpi\n      pop\n        /* \"contracts/ZNSFIFSRegistrar.sol\":3991:3993  32 */\n      0x20\n        /* \"contracts/ZNSFIFSRegistrar.sol\":3973:3987  _name.strlen() */\n      tag_126\n        /* \"contracts/ZNSFIFSRegistrar.sol\":3973:3978  _name */\n      dup4\n        /* \"contracts/ZNSFIFSRegistrar.sol\":3973:3985  _name.strlen */\n      tag_124\n        /* \"contracts/ZNSFIFSRegistrar.sol\":3973:3987  _name.strlen() */\n      jump\t// in\n    tag_126:\n        /* \"contracts/ZNSFIFSRegistrar.sol\":3973:3993  _name.strlen() <= 32 */\n      gt\n      iszero\n      swap3\n        /* \"contracts/ZNSFIFSRegistrar.sol\":3861:4000  function _validLength(string memory _name) internal pure returns (bool) {... */\n      swap2\n      pop\n      pop\n      jump\t// out\n        /* \"contracts/utils/Names.sol\":1105:1420  function charsetValid(string memory s) internal pure returns (bool) {... */\n    tag_121:\n        /* \"contracts/utils/Names.sol\":1201:1216  bytes(s).length */\n      dup1\n      mload\n        /* \"contracts/utils/Names.sol\":1167:1171  bool */\n      0x00\n      swap1\n      dup2\n        /* \"contracts/utils/Names.sol\":1226:1393  for(uint i = 0; i < bytelength; i++) {... */\n    tag_128:\n        /* \"contracts/utils/Names.sol\":1246:1256  bytelength */\n      dup2\n        /* \"contracts/utils/Names.sol\":1242:1243  i */\n      dup2\n        /* \"contracts/utils/Names.sol\":1242:1256  i < bytelength */\n      lt\n        /* \"contracts/utils/Names.sol\":1226:1393  for(uint i = 0; i < bytelength; i++) {... */\n      iszero\n      tag_129\n      jumpi\n        /* \"contracts/utils/Names.sol\":1277:1285  bytes1 b */\n      0x00\n        /* \"contracts/utils/Names.sol\":1294:1295  s */\n      dup5\n        /* \"contracts/utils/Names.sol\":1297:1298  i */\n      dup3\n        /* \"contracts/utils/Names.sol\":1288:1299  bytes(s)[i] */\n      dup2\n      mload\n      dup2\n      lt\n      tag_131\n      jumpi\n      invalid\n    tag_131:\n      add\n      0x20\n      add\n      mload\n      not(sub(shl(0xf8, 0x01), 0x01))\n      and\n      swap1\n      pop\n        /* \"contracts/utils/Names.sol\":1317:1336  isValidCharacter(b) */\n      tag_132\n        /* \"contracts/utils/Names.sol\":1288:1299  bytes(s)[i] */\n      dup2\n        /* \"contracts/utils/Names.sol\":1317:1333  isValidCharacter */\n      tag_133\n        /* \"contracts/utils/Names.sol\":1317:1336  isValidCharacter(b) */\n      jump\t// in\n    tag_132:\n        /* \"contracts/utils/Names.sol\":1313:1383  if(!isValidCharacter(b)) {... */\n      tag_134\n      jumpi\n        /* \"contracts/utils/Names.sol\":1363:1368  false */\n      0x00\n        /* \"contracts/utils/Names.sol\":1356:1368  return false */\n      swap4\n      pop\n      pop\n      pop\n      pop\n      jump(tag_60)\n        /* \"contracts/utils/Names.sol\":1313:1383  if(!isValidCharacter(b)) {... */\n    tag_134:\n      pop\n        /* \"contracts/utils/Names.sol\":1258:1261  i++ */\n      0x01\n      add\n        /* \"contracts/utils/Names.sol\":1226:1393  for(uint i = 0; i < bytelength; i++) {... */\n      jump(tag_128)\n    tag_129:\n      pop\n        /* \"contracts/utils/Names.sol\":1409:1413  true */\n      0x01\n      swap4\n        /* \"contracts/utils/Names.sol\":1105:1420  function charsetValid(string memory s) internal pure returns (bool) {... */\n      swap3\n      pop\n      pop\n      pop\n      jump\t// out\n        /* \"contracts/utils/Names.sol\":297:906  function strlen(string memory s) internal pure returns (uint) {... */\n    tag_124:\n        /* \"contracts/utils/Names.sol\":425:440  bytes(s).length */\n      dup1\n      mload\n        /* \"contracts/utils/Names.sol\":353:357  uint */\n      0x00\n      swap1\n      dup2\n      swap1\n      dup2\n      swap1\n        /* \"contracts/utils/Names.sol\":450:880  for(len = 0; i < bytelength; len++) {... */\n    tag_136:\n        /* \"contracts/utils/Names.sol\":467:477  bytelength */\n      dup1\n        /* \"contracts/utils/Names.sol\":463:464  i */\n      dup3\n        /* \"contracts/utils/Names.sol\":463:477  i < bytelength */\n      lt\n        /* \"contracts/utils/Names.sol\":450:880  for(len = 0; i < bytelength; len++) {... */\n      iszero\n      tag_137\n      jumpi\n        /* \"contracts/utils/Names.sol\":500:508  bytes1 b */\n      0x00\n        /* \"contracts/utils/Names.sol\":517:518  s */\n      dup6\n        /* \"contracts/utils/Names.sol\":520:521  i */\n      dup4\n        /* \"contracts/utils/Names.sol\":511:522  bytes(s)[i] */\n      dup2\n      mload\n      dup2\n      lt\n      tag_139\n      jumpi\n      invalid\n    tag_139:\n      add\n      0x20\n      add\n      mload\n      not(sub(shl(0xf8, 0x01), 0x01))\n      and\n      swap1\n      pop\n      shl(0xff, 0x01)\n        /* \"contracts/utils/Names.sol\":539:548  b <= 0x80 */\n      dup2\n      gt\n        /* \"contracts/utils/Names.sol\":536:870  if(b <= 0x80) {... */\n      tag_140\n      jumpi\n        /* \"contracts/utils/Names.sol\":573:574  1 */\n      0x01\n        /* \"contracts/utils/Names.sol\":568:574  i += 1 */\n      dup4\n      add\n      swap3\n      pop\n        /* \"contracts/utils/Names.sol\":536:870  if(b <= 0x80) {... */\n      jump(tag_149)\n    tag_140:\n      shl(0xfd, 0x07)\n      not(sub(shl(0xf8, 0x01), 0x01))\n        /* \"contracts/utils/Names.sol\":599:607  b < 0xE0 */\n      dup3\n      and\n      lt\n        /* \"contracts/utils/Names.sol\":595:870  if (b < 0xE0) {... */\n      iszero\n      tag_142\n      jumpi\n        /* \"contracts/utils/Names.sol\":632:633  2 */\n      0x02\n        /* \"contracts/utils/Names.sol\":627:633  i += 2 */\n      dup4\n      add\n      swap3\n      pop\n        /* \"contracts/utils/Names.sol\":595:870  if (b < 0xE0) {... */\n      jump(tag_149)\n    tag_142:\n      shl(0xfc, 0x0f)\n      not(sub(shl(0xf8, 0x01), 0x01))\n        /* \"contracts/utils/Names.sol\":658:666  b < 0xF0 */\n      dup3\n      and\n      lt\n        /* \"contracts/utils/Names.sol\":654:870  if (b < 0xF0) {... */\n      iszero\n      tag_144\n      jumpi\n        /* \"contracts/utils/Names.sol\":691:692  3 */\n      0x03\n        /* \"contracts/utils/Names.sol\":686:692  i += 3 */\n      dup4\n      add\n      swap3\n      pop\n        /* \"contracts/utils/Names.sol\":654:870  if (b < 0xF0) {... */\n      jump(tag_149)\n    tag_144:\n      shl(0xfb, 0x1f)\n      not(sub(shl(0xf8, 0x01), 0x01))\n        /* \"contracts/utils/Names.sol\":717:725  b < 0xF8 */\n      dup3\n      and\n      lt\n        /* \"contracts/utils/Names.sol\":713:870  if (b < 0xF8) {... */\n      iszero\n      tag_146\n      jumpi\n        /* \"contracts/utils/Names.sol\":750:751  4 */\n      0x04\n        /* \"contracts/utils/Names.sol\":745:751  i += 4 */\n      dup4\n      add\n      swap3\n      pop\n        /* \"contracts/utils/Names.sol\":713:870  if (b < 0xF8) {... */\n      jump(tag_149)\n    tag_146:\n      shl(0xfa, 0x3f)\n      not(sub(shl(0xf8, 0x01), 0x01))\n        /* \"contracts/utils/Names.sol\":776:784  b < 0xFC */\n      dup3\n      and\n      lt\n        /* \"contracts/utils/Names.sol\":772:870  if (b < 0xFC) {... */\n      iszero\n      tag_148\n      jumpi\n        /* \"contracts/utils/Names.sol\":809:810  5 */\n      0x05\n        /* \"contracts/utils/Names.sol\":804:810  i += 5 */\n      dup4\n      add\n      swap3\n      pop\n        /* \"contracts/utils/Names.sol\":772:870  if (b < 0xFC) {... */\n      jump(tag_149)\n    tag_148:\n        /* \"contracts/utils/Names.sol\":854:855  6 */\n      0x06\n        /* \"contracts/utils/Names.sol\":849:855  i += 6 */\n      dup4\n      add\n      swap3\n      pop\n        /* \"contracts/utils/Names.sol\":772:870  if (b < 0xFC) {... */\n    tag_149:\n      pop\n        /* \"contracts/utils/Names.sol\":479:484  len++ */\n      0x01\n      swap1\n      swap3\n      add\n      swap2\n        /* \"contracts/utils/Names.sol\":450:880  for(len = 0; i < bytelength; len++) {... */\n      jump(tag_136)\n    tag_137:\n      pop\n        /* \"contracts/utils/Names.sol\":896:899  len */\n      swap1\n      swap4\n        /* \"contracts/utils/Names.sol\":297:906  function strlen(string memory s) internal pure returns (uint) {... */\n      swap3\n      pop\n      pop\n      pop\n      jump\t// out\n        /* \"contracts/utils/Names.sol\":1484:1683  function isValidCharacter(bytes1 bs) internal pure returns (bool) {... */\n    tag_133:\n        /* \"contracts/utils/Names.sol\":1544:1548  bool */\n      0x00\n      shl(0xf8, 0x39)\n      not(sub(shl(0xf8, 0x01), 0x01))\n        /* \"contracts/utils/Names.sol\":1568:1578  bs <= 0x39 */\n      dup4\n      and\n      gt\n      dup1\n      iszero\n      swap1\n        /* \"contracts/utils/Names.sol\":1568:1592  bs <= 0x39 && bs >= 0x30 */\n      tag_151\n      jumpi\n      pop\n      shl(0xfc, 0x03)\n      not(sub(shl(0xf8, 0x01), 0x01))\n        /* \"contracts/utils/Names.sol\":1582:1592  bs >= 0x30 */\n      dup4\n      and\n      lt\n      iszero\n        /* \"contracts/utils/Names.sol\":1568:1592  bs <= 0x39 && bs >= 0x30 */\n    tag_151:\n        /* \"contracts/utils/Names.sol\":1567:1655  (bs <= 0x39 && bs >= 0x30)       // number... */\n      dup1\n      tag_116\n      jumpi\n      pop\n      shl(0xf9, 0x3d)\n      not(sub(shl(0xf8, 0x01), 0x01))\n        /* \"contracts/utils/Names.sol\":1630:1640  bs <= 0x7A */\n      dup4\n      and\n      gt\n      dup1\n      iszero\n      swap1\n        /* \"contracts/utils/Names.sol\":1630:1654  bs <= 0x7A && bs >= 0x61 */\n      tag_116\n      jumpi\n      pop\n      pop\n      shl(0xf8, 0x61)\n      not(sub(shl(0xf8, 0x01), 0x01))\n        /* \"contracts/utils/Names.sol\":1644:1654  bs >= 0x61 */\n      swap2\n      swap1\n      swap2\n      and\n      lt\n      iszero\n      swap1\n        /* \"contracts/utils/Names.sol\":1484:1683  function isValidCharacter(bytes1 bs) internal pure returns (bool) {... */\n      jump\t// out\n\n    auxdata: 0xa26469706673582212209b348fcbc436e1d6282bb4914fed0732da43ceba31d431f90354342ded8aa2c064736f6c63430007060033\n}\n",
				"bytecode": {
					"linkReferences": {},
					"object": "608060405234801561001057600080fd5b50600080546001600160a01b03191633179055610bc1806100326000396000f3fe608060405234801561001057600080fd5b50600436106100cf5760003560e01c8063a7fc7a071161008c578063ddf7fcb011610066578063ddf7fcb0146102ba578063deb931a2146102d4578063f2fde38b146102f1578063f6a74ed714610317576100cf565b8063a7fc7a07146101ef578063d7757da114610215578063da8c229e14610294576100cf565b80632f54bf6e146100d4578063439fab911461010e57806358ffb7fd146101805780635b817475146101a45780637a0d942b146101c15780638da5cb5b146101e7575b600080fd5b6100fa600480360360208110156100ea57600080fd5b50356001600160a01b031661033d565b604080519115158252519081900360200190f35b61017e6004803603602081101561012457600080fd5b81019060208101813564010000000081111561013f57600080fd5b82018360208201111561015157600080fd5b8035906020019184600183028401116401000000008311171561017357600080fd5b509092509050610354565b005b6101886103ae565b604080516001600160a01b039092168252519081900360200190f35b61017e600480360360208110156101ba57600080fd5b50356103bd565b61017e600480360360208110156101d757600080fd5b50356001600160a01b0316610441565b6101886104ab565b61017e6004803603602081101561020557600080fd5b50356001600160a01b03166104ba565b61017e6004803603606081101561022b57600080fd5b81019060208101813564010000000081111561024657600080fd5b82018360208201111561025857600080fd5b8035906020019184600183028401116401000000008311171561027a57600080fd5b91935091506001600160a01b038135169060200135610518565b6100fa600480360360208110156102aa57600080fd5b50356001600160a01b031661081c565b6102c2610831565b60408051918252519081900360200190f35b610188600480360360208110156102ea57600080fd5b5035610837565b61017e6004803603602081101561030757600080fd5b50356001600160a01b03166108b5565b61017e6004803603602081101561032d57600080fd5b50356001600160a01b0316610922565b6000546001600160a01b038281169116145b919050565b6000808383604081101561036757600080fd5b50600180546001600160a01b0319166001600160a01b0383351617815560209182013560025533600090815260039092526040909120805460ff1916909117905550505050565b6001546001600160a01b031681565b6103c63361033d565b6103cf57600080fd5b600154600254604080516386d5f0d960e01b8152600481019290925260248201849052516001600160a01b03909216916386d5f0d99160448082019260009290919082900301818387803b15801561042657600080fd5b505af115801561043a573d6000803e3d6000fd5b5050505050565b61044a3361033d565b61045357600080fd5b60015460025460408051630c4b7b8560e11b815260048101929092526001600160a01b0384811660248401529051921691631896f70a9160448082019260009290919082900301818387803b15801561042657600080fd5b6000546001600160a01b031681565b6104c33361033d565b6104cc57600080fd5b6001600160a01b038116600081815260036020526040808220805460ff19166001179055517f0a8bb31534c0ed46f380cb867bd5c803a189ced9a764e30b3a4991a9901d74749190a250565b3360009081526003602052604090205460ff1661053457600080fd5b61057384848080601f01602080910402602001604051908101604052809392919081815260200183838082843760009201919091525061097d92505050565b6105b3576040805162461bcd60e51b815260206004820152600c60248201526b696e76616c6964206e616d6560a01b604482015290519081900360640190fd5b6105bc8161099e565b610600576040805162461bcd60e51b815260206004820152601060248201526f130c881bdddb995c88195e1a5cdd195960821b604482015290519081900360640190fd5b60008484604051808383808284376040805191909301819003812060015460025463212a6bcd60e01b845260048401526024830182905293519097506001600160a01b03909316955063212a6bcd945060448082019450602093925090829003018186803b15801561067157600080fd5b505afa158015610685573d6000803e3d6000fd5b505050506040513d602081101561069b57600080fd5b5051156106e1576040805162461bcd60e51b815260206004820152600f60248201526e1cdd589b9bd91948195e1a5cdd1959608a1b604482015290519081900360640190fd5b60015460025460408051631c98504f60e31b81526004810192909252602482018490526001600160a01b038681166044840152606483018690529051600093919091169163e4c2827891608480830192602092919082900301818787803b15801561074b57600080fd5b505af115801561075f573d6000803e3d6000fd5b505050506040513d602081101561077557600080fd5b505160008481526004602090815260409182902083905581519081018390526001600160a01b0387169181019190915260608101859052608080825281018790529091507f36e1387993e62301c322576ae290f9934f5eb108709972fb6a5892e18544a08b90879087908490889088908060a08101878780828437600083820152604051601f909101601f19169092018290039850909650505050505050a1505050505050565b60036020526000908152604090205460ff1681565b60025481565b600154604080516302571be360e01b81526004810184905290516000926001600160a01b0316916302571be3916024808301926020929190829003018186803b15801561088357600080fd5b505afa158015610897573d6000803e3d6000fd5b505050506040513d60208110156108ad57600080fd5b505192915050565b6108be3361033d565b6108c757600080fd5b600080546040516001600160a01b03808516939216917f8be0079c531659141344cd1fd0a4f28419497f9722a3daafe3b4186f6b6457e091a3600080546001600160a01b0319166001600160a01b0392909216919091179055565b61092b3361033d565b61093457600080fd5b6001600160a01b038116600081815260036020526040808220805460ff19169055517f33d83959be2573f5453b12eb9d43b3499bc57d96bd2f067ba44803c859e811139190a250565b6000610988826109b1565b80156109985750610998826109bc565b92915050565b6000908152600460205260409020541590565b6000610998826109e5565b600060036109c983610a3f565b10158015610998575060206109dd83610a3f565b111592915050565b8051600090815b81811015610a35576000848281518110610a0257fe5b01602001516001600160f81b0319169050610a1c81610b26565b610a2c576000935050505061034f565b506001016109ec565b5060019392505050565b8051600090819081905b80821015610b1d576000858381518110610a5f57fe5b01602001516001600160f81b0319169050600160ff1b8111610a8657600183019250610b11565b600760fd1b6001600160f81b031982161015610aa757600283019250610b11565b600f60fc1b6001600160f81b031982161015610ac857600383019250610b11565b601f60fb1b6001600160f81b031982161015610ae957600483019250610b11565b603f60fa1b6001600160f81b031982161015610b0a57600583019250610b11565b6006830192505b50600190920191610a49565b50909392505050565b6000603960f81b6001600160f81b0319831611801590610b545750600360fc1b6001600160f81b0319831610155b806109985750603d60f91b6001600160f81b0319831611801590610998575050606160f81b6001600160f81b03199190911610159056fea26469706673582212209b348fcbc436e1d6282bb4914fed0732da43ceba31d431f90354342ded8aa2c064736f6c63430007060033",
					"opcodes": "PUSH1 0x80 PUSH1 0x40 MSTORE CALLVALUE DUP1 ISZERO PUSH2 0x10 JUMPI PUSH1 0x0 DUP1 REVERT JUMPDEST POP PUSH1 0x0 DUP1 SLOAD PUSH1 0x1 PUSH1 0x1 PUSH1 0xA0 SHL SUB NOT AND CALLER OR SWAP1 SSTORE PUSH2 0xBC1 DUP1 PUSH2 0x32 PUSH1 0x0 CODECOPY PUSH1 0x0 RETURN INVALID PUSH1 0x80 PUSH1 0x40 MSTORE CALLVALUE DUP1 ISZERO PUSH2 0x10 JUMPI PUSH1 0x0 DUP1 REVERT JUMPDEST POP PUSH1 0x4 CALLDATASIZE LT PUSH2 0xCF JUMPI PUSH1 0x0 CALLDATALOAD PUSH1 0xE0 SHR DUP1 PUSH4 0xA7FC7A07 GT PUSH2 0x8C JUMPI DUP1 PUSH4 0xDDF7FCB0 GT PUSH2 0x66 JUMPI DUP1 PUSH4 0xDDF7FCB0 EQ PUSH2 0x2BA JUMPI DUP1 PUSH4 0xDEB931A2 EQ PUSH2 0x2D4 JUMPI DUP1 PUSH4 0xF2FDE38B EQ PUSH2 0x2F1 JUMPI DUP1 PUSH4 0xF6A74ED7 EQ PUSH2 0x317 JUMPI PUSH2 0xCF JUMP JUMPDEST DUP1 PUSH4 0xA7FC7A07 EQ PUSH2 0x1EF JUMPI DUP1 PUSH4 0xD7757DA1 EQ PUSH2 0x215 JUMPI DUP1 PUSH4 0xDA8C229E EQ PUSH2 0x294 JUMPI PUSH2 0xCF JUMP JUMPDEST DUP1 PUSH4 0x2F54BF6E EQ PUSH2 0xD4 JUMPI DUP1 PUSH4 0x439FAB91 EQ PUSH2 0x10E JUMPI DUP1 PUSH4 0x58FFB7FD EQ PUSH2 0x180 JUMPI DUP1 PUSH4 0x5B817475 EQ PUSH2 0x1A4 JUMPI DUP1 PUSH4 0x7A0D942B EQ PUSH2 0x1C1 JUMPI DUP1 PUSH4 0x8DA5CB5B EQ PUSH2 0x1E7 JUMPI JUMPDEST PUSH1 0x0 DUP1 REVERT JUMPDEST PUSH2 0xFA PUSH1 0x4 DUP1 CALLDATASIZE SUB PUSH1 0x20 DUP2 LT ISZERO PUSH2 0xEA JUMPI PUSH1 0x0 DUP1 REVERT JUMPDEST POP CALLDATALOAD PUSH1 0x1 PUSH1 0x1 PUSH1 0xA0 SHL SUB AND PUSH2 0x33D JUMP JUMPDEST PUSH1 0x40 DUP1 MLOAD SWAP2 ISZERO ISZERO DUP3 MSTORE MLOAD SWAP1 DUP2 SWAP1 SUB PUSH1 0x20 ADD SWAP1 RETURN JUMPDEST PUSH2 0x17E PUSH1 0x4 DUP1 CALLDATASIZE SUB PUSH1 0x20 DUP2 LT ISZERO PUSH2 0x124 JUMPI PUSH1 0x0 DUP1 REVERT JUMPDEST DUP2 ADD SWAP1 PUSH1 0x20 DUP2 ADD DUP2 CALLDATALOAD PUSH5 0x100000000 DUP2 GT ISZERO PUSH2 0x13F JUMPI PUSH1 0x0 DUP1 REVERT JUMPDEST DUP3 ADD DUP4 PUSH1 0x20 DUP3 ADD GT ISZERO PUSH2 0x151 JUMPI PUSH1 0x0 DUP1 REVERT JUMPDEST DUP1 CALLDATALOAD SWAP1 PUSH1 0x20 ADD SWAP2 DUP5 PUSH1 0x1 DUP4 MUL DUP5 ADD GT PUSH5 0x100000000 DUP4 GT OR ISZERO PUSH2 0x173 JUMPI PUSH1 0x0 DUP1 REVERT JUMPDEST POP SWAP1 SWAP3 POP SWAP1 POP PUSH2 0x354 JUMP JUMPDEST STOP JUMPDEST PUSH2 0x188 PUSH2 0x3AE JUMP JUMPDEST PUSH1 0x40 DUP1 MLOAD PUSH1 0x1 PUSH1 0x1 PUSH1 0xA0 SHL SUB SWAP1 SWAP3 AND DUP3 MSTORE MLOAD SWAP1 DUP2 SWAP1 SUB PUSH1 0x20 ADD SWAP1 RETURN JUMPDEST PUSH2 0x17E PUSH1 0x4 DUP1 CALLDATASIZE SUB PUSH1 0x20 DUP2 LT ISZERO PUSH2 0x1BA JUMPI PUSH1 0x0 DUP1 REVERT JUMPDEST POP CALLDATALOAD PUSH2 0x3BD JUMP JUMPDEST PUSH2 0x17E PUSH1 0x4 DUP1 CALLDATASIZE SUB PUSH1 0x20 DUP2 LT ISZERO PUSH2 0x1D7 JUMPI PUSH1 0x0 DUP1 REVERT JUMPDEST POP CALLDATALOAD PUSH1 0x1 PUSH1 0x1 PUSH1 0xA0 SHL SUB AND PUSH2 0x441 JUMP JUMPDEST PUSH2 0x188 PUSH2 0x4AB JUMP JUMPDEST PUSH2 0x17E PUSH1 0x4 DUP1 CALLDATASIZE SUB PUSH1 0x20 DUP2 LT ISZERO PUSH2 0x205 JUMPI PUSH1 0x0 DUP1 REVERT JUMPDEST POP CALLDATALOAD PUSH1 0x1 PUSH1 0x1 PUSH1 0xA0 SHL SUB AND PUSH2 0x4BA JUMP JUMPDEST PUSH2 0x17E PUSH1 0x4 DUP1 CALLDATASIZE SUB PUSH1 0x60 DUP2 LT ISZERO PUSH2 0x22B JUMPI PUSH1 0x0 DUP1 REVERT JUMPDEST DUP2 ADD SWAP1 PUSH1 0x20 DUP2 ADD DUP2 CALLDATALOAD PUSH5 0x100000000 DUP2 GT ISZERO PUSH2 0x246 JUMPI PUSH1 0x0 DUP1 REVERT JUMPDEST DUP3 ADD DUP4 PUSH1 0x20 DUP3 ADD GT ISZERO PUSH2 0x258 JUMPI PUSH1 0x0 DUP1 REVERT JUMPDEST DUP1 CALLDATALOAD SWAP1 PUSH1 0x20 ADD SWAP2 DUP5 PUSH1 0x1 DUP4 MUL DUP5 ADD GT PUSH5 0x100000000 DUP4 GT OR ISZERO PUSH2 0x27A JUMPI PUSH1 0x0 DUP1 REVERT JUMPDEST SWAP2 SWAP4 POP SWAP2 POP PUSH1 0x1 PUSH1 0x1 PUSH1 0xA0 SHL SUB DUP2 CALLDATALOAD AND SWAP1 PUSH1 0x20 ADD CALLDATALOAD PUSH2 0x518 JUMP JUMPDEST PUSH2 0xFA PUSH1 0x4 DUP1 CALLDATASIZE SUB PUSH1 0x20 DUP2 LT ISZERO PUSH2 0x2AA JUMPI PUSH1 0x0 DUP1 REVERT JUMPDEST POP CALLDATALOAD PUSH1 0x1 PUSH1 0x1 PUSH1 0xA0 SHL SUB AND PUSH2 0x81C JUMP JUMPDEST PUSH2 0x2C2 PUSH2 0x831 JUMP JUMPDEST PUSH1 0x40 DUP1 MLOAD SWAP2 DUP3 MSTORE MLOAD SWAP1 DUP2 SWAP1 SUB PUSH1 0x20 ADD SWAP1 RETURN JUMPDEST PUSH2 0x188 PUSH1 0x4 DUP1 CALLDATASIZE SUB PUSH1 0x20 DUP2 LT ISZERO PUSH2 0x2EA JUMPI PUSH1 0x0 DUP1 REVERT JUMPDEST POP CALLDATALOAD PUSH2 0x837 JUMP JUMPDEST PUSH2 0x17E PUSH1 0x4 DUP1 CALLDATASIZE SUB PUSH1 0x20 DUP2 LT ISZERO PUSH2 0x307 JUMPI PUSH1 0x0 DUP1 REVERT JUMPDEST POP CALLDATALOAD PUSH1 0x1 PUSH1 0x1 PUSH1 0xA0 SHL SUB AND PUSH2 0x8B5 JUMP JUMPDEST PUSH2 0x17E PUSH1 0x4 DUP1 CALLDATASIZE SUB PUSH1 0x20 DUP2 LT ISZERO PUSH2 0x32D JUMPI PUSH1 0x0 DUP1 REVERT JUMPDEST POP CALLDATALOAD PUSH1 0x1 PUSH1 0x1 PUSH1 0xA0 SHL SUB AND PUSH2 0x922 JUMP JUMPDEST PUSH1 0x0 SLOAD PUSH1 0x1 PUSH1 0x1 PUSH1 0xA0 SHL SUB DUP3 DUP2 AND SWAP2 AND EQ JUMPDEST SWAP2 SWAP1 POP JUMP JUMPDEST PUSH1 0x0 DUP1 DUP4 DUP4 PUSH1 0x40 DUP2 LT ISZERO PUSH2 0x367 JUMPI PUSH1 0x0 DUP1 REVERT JUMPDEST POP PUSH1 0x1 DUP1 SLOAD PUSH1 0x1 PUSH1 0x1 PUSH1 0xA0 SHL SUB NOT AND PUSH1 0x1 PUSH1 0x1 PUSH1 0xA0 SHL SUB DUP4 CALLDATALOAD AND OR DUP2 SSTORE PUSH1 0x20 SWAP2 DUP3 ADD CALLDATALOAD PUSH1 0x2 SSTORE CALLER PUSH1 0x0 SWAP1 DUP2 MSTORE PUSH1 0x3 SWAP1 SWAP3 MSTORE PUSH1 0x40 SWAP1 SWAP2 KECCAK256 DUP1 SLOAD PUSH1 0xFF NOT AND SWAP1 SWAP2 OR SWAP1 SSTORE POP POP POP POP JUMP JUMPDEST PUSH1 0x1 SLOAD PUSH1 0x1 PUSH1 0x1 PUSH1 0xA0 SHL SUB AND DUP2 JUMP JUMPDEST PUSH2 0x3C6 CALLER PUSH2 0x33D JUMP JUMPDEST PUSH2 0x3CF JUMPI PUSH1 0x0 DUP1 REVERT JUMPDEST PUSH1 0x1 SLOAD PUSH1 0x2 SLOAD PUSH1 0x40 DUP1 MLOAD PUSH4 0x86D5F0D9 PUSH1 0xE0 SHL DUP2 MSTORE PUSH1 0x4 DUP2 ADD SWAP3 SWAP1 SWAP3 MSTORE PUSH1 0x24 DUP3 ADD DUP5 SWAP1 MSTORE MLOAD PUSH1 0x1 PUSH1 0x1 PUSH1 0xA0 SHL SUB SWAP1 SWAP3 AND SWAP2 PUSH4 0x86D5F0D9 SWAP2 PUSH1 0x44 DUP1 DUP3 ADD SWAP3 PUSH1 0x0 SWAP3 SWAP1 SWAP2 SWAP1 DUP3 SWAP1 SUB ADD DUP2 DUP4 DUP8 DUP1 EXTCODESIZE ISZERO DUP1 ISZERO PUSH2 0x426 JUMPI PUSH1 0x0 DUP1 REVERT JUMPDEST POP GAS CALL ISZERO DUP1 ISZERO PUSH2 0x43A JUMPI RETURNDATASIZE PUSH1 0x0 DUP1 RETURNDATACOPY RETURNDATASIZE PUSH1 0x0 REVERT JUMPDEST POP POP POP POP POP JUMP JUMPDEST PUSH2 0x44A CALLER PUSH2 0x33D JUMP JUMPDEST PUSH2 0x453 JUMPI PUSH1 0x0 DUP1 REVERT JUMPDEST PUSH1 0x1 SLOAD PUSH1 0x2 SLOAD PUSH1 0x40 DUP1 MLOAD PUSH4 0xC4B7B85 PUSH1 0xE1 SHL DUP2 MSTORE PUSH1 0x4 DUP2 ADD SWAP3 SWAP1 SWAP3 MSTORE PUSH1 0x1 PUSH1 0x1 PUSH1 0xA0 SHL SUB DUP5 DUP2 AND PUSH1 0x24 DUP5 ADD MSTORE SWAP1 MLOAD SWAP3 AND SWAP2 PUSH4 0x1896F70A SWAP2 PUSH1 0x44 DUP1 DUP3 ADD SWAP3 PUSH1 0x0 SWAP3 SWAP1 SWAP2 SWAP1 DUP3 SWAP1 SUB ADD DUP2 DUP4 DUP8 DUP1 EXTCODESIZE ISZERO DUP1 ISZERO PUSH2 0x426 JUMPI PUSH1 0x0 DUP1 REVERT JUMPDEST PUSH1 0x0 SLOAD PUSH1 0x1 PUSH1 0x1 PUSH1 0xA0 SHL SUB AND DUP2 JUMP JUMPDEST PUSH2 0x4C3 CALLER PUSH2 0x33D JUMP JUMPDEST PUSH2 0x4CC JUMPI PUSH1 0x0 DUP1 REVERT JUMPDEST PUSH1 0x1 PUSH1 0x1 PUSH1 0xA0 SHL SUB DUP2 AND PUSH1 0x0 DUP2 DUP2 MSTORE PUSH1 0x3 PUSH1 0x20 MSTORE PUSH1 0x40 DUP1 DUP3 KECCAK256 DUP1 SLOAD PUSH1 0xFF NOT AND PUSH1 0x1 OR SWAP1 SSTORE MLOAD PUSH32 0xA8BB31534C0ED46F380CB867BD5C803A189CED9A764E30B3A4991A9901D7474 SWAP2 SWAP1 LOG2 POP JUMP JUMPDEST CALLER PUSH1 0x0 SWAP1 DUP2 MSTORE PUSH1 0x3 PUSH1 0x20 MSTORE PUSH1 0x40 SWAP1 KECCAK256 SLOAD PUSH1 0xFF AND PUSH2 0x534 JUMPI PUSH1 0x0 DUP1 REVERT JUMPDEST PUSH2 0x573 DUP5 DUP5 DUP1 DUP1 PUSH1 0x1F ADD PUSH1 0x20 DUP1 SWAP2 DIV MUL PUSH1 0x20 ADD PUSH1 0x40 MLOAD SWAP1 DUP2 ADD PUSH1 0x40 MSTORE DUP1 SWAP4 SWAP3 SWAP2 SWAP1 DUP2 DUP2 MSTORE PUSH1 0x20 ADD DUP4 DUP4 DUP1 DUP3 DUP5 CALLDATACOPY PUSH1 0x0 SWAP3 ADD SWAP2 SWAP1 SWAP2 MSTORE POP PUSH2 0x97D SWAP3 POP POP POP JUMP JUMPDEST PUSH2 0x5B3 JUMPI PUSH1 0x40 DUP1 MLOAD PUSH3 0x461BCD PUSH1 0xE5 SHL DUP2 MSTORE PUSH1 0x20 PUSH1 0x4 DUP3 ADD MSTORE PUSH1 0xC PUSH1 0x24 DUP3 ADD MSTORE PUSH12 0x696E76616C6964206E616D65 PUSH1 0xA0 SHL PUSH1 0x44 DUP3 ADD MSTORE SWAP1 MLOAD SWAP1 DUP2 SWAP1 SUB PUSH1 0x64 ADD SWAP1 REVERT JUMPDEST PUSH2 0x5BC DUP2 PUSH2 0x99E JUMP JUMPDEST PUSH2 0x600 JUMPI PUSH1 0x40 DUP1 MLOAD PUSH3 0x461BCD PUSH1 0xE5 SHL DUP2 MSTORE PUSH1 0x20 PUSH1 0x4 DUP3 ADD MSTORE PUSH1 0x10 PUSH1 0x24 DUP3 ADD MSTORE PUSH16 0x130C881BDDDB995C88195E1A5CDD1959 PUSH1 0x82 SHL PUSH1 0x44 DUP3 ADD MSTORE SWAP1 MLOAD SWAP1 DUP2 SWAP1 SUB PUSH1 0x64 ADD SWAP1 REVERT JUMPDEST PUSH1 0x0 DUP5 DUP5 PUSH1 0x40 MLOAD DUP1 DUP4 DUP4 DUP1 DUP3 DUP5 CALLDATACOPY PUSH1 0x40 DUP1 MLOAD SWAP2 SWAP1 SWAP4 ADD DUP2 SWAP1 SUB DUP2 KECCAK256 PUSH1 0x1 SLOAD PUSH1 0x2 SLOAD PUSH4 0x212A6BCD PUSH1 0xE0 SHL DUP5 MSTORE PUSH1 0x4 DUP5 ADD MSTORE PUSH1 0x24 DUP4 ADD DUP3 SWAP1 MSTORE SWAP4 MLOAD SWAP1 SWAP8 POP PUSH1 0x1 PUSH1 0x1 PUSH1 0xA0 SHL SUB SWAP1 SWAP4 AND SWAP6 POP PUSH4 0x212A6BCD SWAP5 POP PUSH1 0x44 DUP1 DUP3 ADD SWAP5 POP PUSH1 0x20 SWAP4 SWAP3 POP SWAP1 DUP3 SWAP1 SUB ADD DUP2 DUP7 DUP1 EXTCODESIZE ISZERO DUP1 ISZERO PUSH2 0x671 JUMPI PUSH1 0x0 DUP1 REVERT JUMPDEST POP GAS STATICCALL ISZERO DUP1 ISZERO PUSH2 0x685 JUMPI RETURNDATASIZE PUSH1 0x0 DUP1 RETURNDATACOPY RETURNDATASIZE PUSH1 0x0 REVERT JUMPDEST POP POP POP POP PUSH1 0x40 MLOAD RETURNDATASIZE PUSH1 0x20 DUP2 LT ISZERO PUSH2 0x69B JUMPI PUSH1 0x0 DUP1 REVERT JUMPDEST POP MLOAD ISZERO PUSH2 0x6E1 JUMPI PUSH1 0x40 DUP1 MLOAD PUSH3 0x461BCD PUSH1 0xE5 SHL DUP2 MSTORE PUSH1 0x20 PUSH1 0x4 DUP3 ADD MSTORE PUSH1 0xF PUSH1 0x24 DUP3 ADD MSTORE PUSH15 0x1CDD589B9BD91948195E1A5CDD1959 PUSH1 0x8A SHL PUSH1 0x44 DUP3 ADD MSTORE SWAP1 MLOAD SWAP1 DUP2 SWAP1 SUB PUSH1 0x64 ADD SWAP1 REVERT JUMPDEST PUSH1 0x1 SLOAD PUSH1 0x2 SLOAD PUSH1 0x40 DUP1 MLOAD PUSH4 0x1C98504F PUSH1 0xE3 SHL DUP2 MSTORE PUSH1 0x4 DUP2 ADD SWAP3 SWAP1 SWAP3 MSTORE PUSH1 0x24 DUP3 ADD DUP5 SWAP1 MSTORE PUSH1 0x1 PUSH1 0x1 PUSH1 0xA0 SHL SUB DUP7 DUP2 AND PUSH1 0x44 DUP5 ADD MSTORE PUSH1 0x64 DUP4 ADD DUP7 SWAP1 MSTORE SWAP1 MLOAD PUSH1 0x0 SWAP4 SWAP2 SWAP1 SWAP2 AND SWAP2 PUSH4 0xE4C28278 SWAP2 PUSH1 0x84 DUP1 DUP4 ADD SWAP3 PUSH1 0x20 SWAP3 SWAP2 SWAP1 DUP3 SWAP1 SUB ADD DUP2 DUP8 DUP8 DUP1 EXTCODESIZE ISZERO DUP1 ISZERO PUSH2 0x74B JUMPI PUSH1 0x0 DUP1 REVERT JUMPDEST POP GAS CALL ISZERO DUP1 ISZERO PUSH2 0x75F JUMPI RETURNDATASIZE PUSH1 0x0 DUP1 RETURNDATACOPY RETURNDATASIZE PUSH1 0x0 REVERT JUMPDEST POP POP POP POP PUSH1 0x40 MLOAD RETURNDATASIZE PUSH1 0x20 DUP2 LT ISZERO PUSH2 0x775 JUMPI PUSH1 0x0 DUP1 REVERT JUMPDEST POP MLOAD PUSH1 0x0 DUP5 DUP2 MSTORE PUSH1 0x4 PUSH1 0x20 SWAP1 DUP2 MSTORE PUSH1 0x40 SWAP2 DUP3 SWAP1 KECCAK256 DUP4 SWAP1 SSTORE DUP2 MLOAD SWAP1 DUP2 ADD DUP4 SWAP1 MSTORE PUSH1 0x1 PUSH1 0x1 PUSH1 0xA0 SHL SUB DUP8 AND SWAP2 DUP2 ADD SWAP2 SWAP1 SWAP2 MSTORE PUSH1 0x60 DUP2 ADD DUP6 SWAP1 MSTORE PUSH1 0x80 DUP1 DUP3 MSTORE DUP2 ADD DUP8 SWAP1 MSTORE SWAP1 SWAP2 POP PUSH32 0x36E1387993E62301C322576AE290F9934F5EB108709972FB6A5892E18544A08B SWAP1 DUP8 SWAP1 DUP8 SWAP1 DUP5 SWAP1 DUP9 SWAP1 DUP9 SWAP1 DUP1 PUSH1 0xA0 DUP2 ADD DUP8 DUP8 DUP1 DUP3 DUP5 CALLDATACOPY PUSH1 0x0 DUP4 DUP3 ADD MSTORE PUSH1 0x40 MLOAD PUSH1 0x1F SWAP1 SWAP2 ADD PUSH1 0x1F NOT AND SWAP1 SWAP3 ADD DUP3 SWAP1 SUB SWAP9 POP SWAP1 SWAP7 POP POP POP POP POP POP POP LOG1 POP POP POP POP POP POP JUMP JUMPDEST PUSH1 0x3 PUSH1 0x20 MSTORE PUSH1 0x0 SWAP1 DUP2 MSTORE PUSH1 0x40 SWAP1 KECCAK256 SLOAD PUSH1 0xFF AND DUP2 JUMP JUMPDEST PUSH1 0x2 SLOAD DUP2 JUMP JUMPDEST PUSH1 0x1 SLOAD PUSH1 0x40 DUP1 MLOAD PUSH4 0x2571BE3 PUSH1 0xE0 SHL DUP2 MSTORE PUSH1 0x4 DUP2 ADD DUP5 SWAP1 MSTORE SWAP1 MLOAD PUSH1 0x0 SWAP3 PUSH1 0x1 PUSH1 0x1 PUSH1 0xA0 SHL SUB AND SWAP2 PUSH4 0x2571BE3 SWAP2 PUSH1 0x24 DUP1 DUP4 ADD SWAP3 PUSH1 0x20 SWAP3 SWAP2 SWAP1 DUP3 SWAP1 SUB ADD DUP2 DUP7 DUP1 EXTCODESIZE ISZERO DUP1 ISZERO PUSH2 0x883 JUMPI PUSH1 0x0 DUP1 REVERT JUMPDEST POP GAS STATICCALL ISZERO DUP1 ISZERO PUSH2 0x897 JUMPI RETURNDATASIZE PUSH1 0x0 DUP1 RETURNDATACOPY RETURNDATASIZE PUSH1 0x0 REVERT JUMPDEST POP POP POP POP PUSH1 0x40 MLOAD RETURNDATASIZE PUSH1 0x20 DUP2 LT ISZERO PUSH2 0x8AD JUMPI PUSH1 0x0 DUP1 REVERT JUMPDEST POP MLOAD SWAP3 SWAP2 POP POP JUMP JUMPDEST PUSH2 0x8BE CALLER PUSH2 0x33D JUMP JUMPDEST PUSH2 0x8C7 JUMPI PUSH1 0x0 DUP1 REVERT JUMPDEST PUSH1 0x0 DUP1 SLOAD PUSH1 0x40 MLOAD PUSH1 0x1 PUSH1 0x1 PUSH1 0xA0 SHL SUB DUP1 DUP6 AND SWAP4 SWAP3 AND SWAP2 PUSH32 0x8BE0079C531659141344CD1FD0A4F28419497F9722A3DAAFE3B4186F6B6457E0 SWAP2 LOG3 PUSH1 0x0 DUP1 SLOAD PUSH1 0x1 PUSH1 0x1 PUSH1 0xA0 SHL SUB NOT AND PUSH1 0x1 PUSH1 0x1 PUSH1 0xA0 SHL SUB SWAP3 SWAP1 SWAP3 AND SWAP2 SWAP1 SWAP2 OR SWAP1 SSTORE JUMP JUMPDEST PUSH2 0x92B CALLER PUSH2 0x33D JUMP JUMPDEST PUSH2 0x934 JUMPI PUSH1 0x0 DUP1 REVERT JUMPDEST PUSH1 0x1 PUSH1 0x1 PUSH1 0xA0 SHL SUB DUP2 AND PUSH1 0x0 DUP2 DUP2 MSTORE PUSH1 0x3 PUSH1 0x20 MSTORE PUSH1 0x40 DUP1 DUP3 KECCAK256 DUP1 SLOAD PUSH1 0xFF NOT AND SWAP1 SSTORE MLOAD PUSH32 0x33D83959BE2573F5453B12EB9D43B3499BC57D96BD2F067BA44803C859E81113 SWAP2 SWAP1 LOG2 POP JUMP JUMPDEST PUSH1 0x0 PUSH2 0x988 DUP3 PUSH2 0x9B1 JUMP JUMPDEST DUP1 ISZERO PUSH2 0x998 JUMPI POP PUSH2 0x998 DUP3 PUSH2 0x9BC JUMP JUMPDEST SWAP3 SWAP2 POP POP JUMP JUMPDEST PUSH1 0x0 SWAP1 DUP2 MSTORE PUSH1 0x4 PUSH1 0x20 MSTORE PUSH1 0x40 SWAP1 KECCAK256 SLOAD ISZERO SWAP1 JUMP JUMPDEST PUSH1 0x0 PUSH2 0x998 DUP3 PUSH2 0x9E5 JUMP JUMPDEST PUSH1 0x0 PUSH1 0x3 PUSH2 0x9C9 DUP4 PUSH2 0xA3F JUMP JUMPDEST LT ISZERO DUP1 ISZERO PUSH2 0x998 JUMPI POP PUSH1 0x20 PUSH2 0x9DD DUP4 PUSH2 0xA3F JUMP JUMPDEST GT ISZERO SWAP3 SWAP2 POP POP JUMP JUMPDEST DUP1 MLOAD PUSH1 0x0 SWAP1 DUP2 JUMPDEST DUP2 DUP2 LT ISZERO PUSH2 0xA35 JUMPI PUSH1 0x0 DUP5 DUP3 DUP2 MLOAD DUP2 LT PUSH2 0xA02 JUMPI INVALID JUMPDEST ADD PUSH1 0x20 ADD MLOAD PUSH1 0x1 PUSH1 0x1 PUSH1 0xF8 SHL SUB NOT AND SWAP1 POP PUSH2 0xA1C DUP2 PUSH2 0xB26 JUMP JUMPDEST PUSH2 0xA2C JUMPI PUSH1 0x0 SWAP4 POP POP POP POP PUSH2 0x34F JUMP JUMPDEST POP PUSH1 0x1 ADD PUSH2 0x9EC JUMP JUMPDEST POP PUSH1 0x1 SWAP4 SWAP3 POP POP POP JUMP JUMPDEST DUP1 MLOAD PUSH1 0x0 SWAP1 DUP2 SWAP1 DUP2 SWAP1 JUMPDEST DUP1 DUP3 LT ISZERO PUSH2 0xB1D JUMPI PUSH1 0x0 DUP6 DUP4 DUP2 MLOAD DUP2 LT PUSH2 0xA5F JUMPI INVALID JUMPDEST ADD PUSH1 0x20 ADD MLOAD PUSH1 0x1 PUSH1 0x1 PUSH1 0xF8 SHL SUB NOT AND SWAP1 POP PUSH1 0x1 PUSH1 0xFF SHL DUP2 GT PUSH2 0xA86 JUMPI PUSH1 0x1 DUP4 ADD SWAP3 POP PUSH2 0xB11 JUMP JUMPDEST PUSH1 0x7 PUSH1 0xFD SHL PUSH1 0x1 PUSH1 0x1 PUSH1 0xF8 SHL SUB NOT DUP3 AND LT ISZERO PUSH2 0xAA7 JUMPI PUSH1 0x2 DUP4 ADD SWAP3 POP PUSH2 0xB11 JUMP JUMPDEST PUSH1 0xF PUSH1 0xFC SHL PUSH1 0x1 PUSH1 0x1 PUSH1 0xF8 SHL SUB NOT DUP3 AND LT ISZERO PUSH2 0xAC8 JUMPI PUSH1 0x3 DUP4 ADD SWAP3 POP PUSH2 0xB11 JUMP JUMPDEST PUSH1 0x1F PUSH1 0xFB SHL PUSH1 0x1 PUSH1 0x1 PUSH1 0xF8 SHL SUB NOT DUP3 AND LT ISZERO PUSH2 0xAE9 JUMPI PUSH1 0x4 DUP4 ADD SWAP3 POP PUSH2 0xB11 JUMP JUMPDEST PUSH1 0x3F PUSH1 0xFA SHL PUSH1 0x1 PUSH1 0x1 PUSH1 0xF8 SHL SUB NOT DUP3 AND LT ISZERO PUSH2 0xB0A JUMPI PUSH1 0x5 DUP4 ADD SWAP3 POP PUSH2 0xB11 JUMP JUMPDEST PUSH1 0x6 DUP4 ADD SWAP3 POP JUMPDEST POP PUSH1 0x1 SWAP1 SWAP3 ADD SWAP2 PUSH2 0xA49 JUMP JUMPDEST POP SWAP1 SWAP4 SWAP3 POP POP POP JUMP JUMPDEST PUSH1 0x0 PUSH1 0x39 PUSH1 0xF8 SHL PUSH1 0x1 PUSH1 0x1 PUSH1 0xF8 SHL SUB NOT DUP4 AND GT DUP1 ISZERO SWAP1 PUSH2 0xB54 JUMPI POP PUSH1 0x3 PUSH1 0xFC SHL PUSH1 0x1 PUSH1 0x1 PUSH1 0xF8 SHL SUB NOT DUP4 AND LT ISZERO JUMPDEST DUP1 PUSH2 0x998 JUMPI POP PUSH1 0x3D PUSH1 0xF9 SHL PUSH1 0x1 PUSH1 0x1 PUSH1 0xF8 SHL SUB NOT DUP4 AND GT DUP1 ISZERO SWAP1 PUSH2 0x998 JUMPI POP POP PUSH1 0x61 PUSH1 0xF8 SHL PUSH1 0x1 PUSH1 0x1 PUSH1 0xF8 SHL SUB NOT SWAP2 SWAP1 SWAP2 AND LT ISZERO SWAP1 JUMP INVALID LOG2 PUSH5 0x6970667358 0x22 SLT KECCAK256 SWAP12 CALLVALUE DUP16 0xCB 0xC4 CALLDATASIZE 0xE1 0xD6 0x28 0x2B 0xB4 SWAP2 0x4F 0xED SMOD ORIGIN 0xDA NUMBER 0xCE 0xBA BALANCE 0xD4 BALANCE 0xF9 SUB SLOAD CALLVALUE 0x2D 0xED DUP11 LOG2 0xC0 PUSH5 0x736F6C6343 STOP SMOD MOD STOP CALLER "
				},
				"gasEstimates": {
					"creation": {
						"codeDepositCost": "601800",
						"executionCost": "21473",
						"totalCost": "623273"
					},
					"external": {
						"addController(address)": "23165",
						"baseNode()": "1020",
						"controllers(address)": "1203",
						"getOwner(bytes32)": "infinite",
						"initialize(bytes)": "62201",
						"isOwner(address)": "1104",
						"owner()": "1148",
						"registerZNS(string,address,bytes32)": "infinite",
						"removeController(address)": "23224",
						"setThisResolver(address)": "infinite",
						"setZecreyPubKey(bytes32)": "infinite",
						"transferOwnership(address)": "24378",
						"zns()": "1082"
					},
					"internal": {
						"_valid(string memory)": "infinite",
						"_validCharset(string memory)": "infinite",
						"_validLength(string memory)": "infinite",
						"_validZecreyPubKey(bytes32)": "890"
					}
				},
				"methodIdentifiers": {
					"addController(address)": "a7fc7a07",
					"baseNode()": "ddf7fcb0",
					"controllers(address)": "da8c229e",
					"getOwner(bytes32)": "deb931a2",
					"initialize(bytes)": "439fab91",
					"isOwner(address)": "2f54bf6e",
					"owner()": "8da5cb5b",
					"registerZNS(string,address,bytes32)": "d7757da1",
					"removeController(address)": "f6a74ed7",
					"setThisResolver(address)": "7a0d942b",
					"setZecreyPubKey(bytes32)": "5b817475",
					"transferOwnership(address)": "f2fde38b",
					"zns()": "58ffb7fd"
				}
			},
			"storageLayout": {
				"storage": [
					{
						"astId": 53,
						"contract": "contracts/ZNSFIFSRegistrar.sol:ZNSFIFSRegistrar",
						"label": "owner",
						"offset": 0,
						"slot": "0",
						"type": "t_address"
					},
					{
						"astId": 243,
						"contract": "contracts/ZNSFIFSRegistrar.sol:ZNSFIFSRegistrar",
						"label": "zns",
						"offset": 0,
						"slot": "1",
						"type": "t_contract(ZNS)227"
					},
					{
						"astId": 245,
						"contract": "contracts/ZNSFIFSRegistrar.sol:ZNSFIFSRegistrar",
						"label": "baseNode",
						"offset": 0,
						"slot": "2",
						"type": "t_bytes32"
					},
					{
						"astId": 249,
						"contract": "contracts/ZNSFIFSRegistrar.sol:ZNSFIFSRegistrar",
						"label": "controllers",
						"offset": 0,
						"slot": "3",
						"type": "t_mapping(t_address,t_bool)"
					},
					{
						"astId": 253,
						"contract": "contracts/ZNSFIFSRegistrar.sol:ZNSFIFSRegistrar",
						"label": "ZNSZecreyPubKeyMapper",
						"offset": 0,
						"slot": "4",
						"type": "t_mapping(t_bytes32,t_bytes32)"
					}
				],
				"types": {
					"t_address": {
						"encoding": "inplace",
						"label": "address",
						"numberOfBytes": "20"
					},
					"t_bool": {
						"encoding": "inplace",
						"label": "bool",
						"numberOfBytes": "1"
					},
					"t_bytes32": {
						"encoding": "inplace",
						"label": "bytes32",
						"numberOfBytes": "32"
					},
					"t_contract(ZNS)227": {
						"encoding": "inplace",
						"label": "contract ZNS",
						"numberOfBytes": "20"
					},
					"t_mapping(t_address,t_bool)": {
						"encoding": "mapping",
						"key": "t_address",
						"label": "mapping(address => bool)",
						"numberOfBytes": "32",
						"value": "t_bool"
					},
					"t_mapping(t_bytes32,t_bytes32)": {
						"encoding": "mapping",
						"key": "t_bytes32",
						"label": "mapping(bytes32 => bytes32)",
						"numberOfBytes": "32",
						"value": "t_bytes32"
					}
				}
			},
			"userdoc": {
				"kind": "user",
				"methods": {},
				"notice": "ZNSFIFSRegistrar is a registrar allocating subdomain names to users in Zecrey-Legend in a FIFS way.",
				"version": 1
			}
		}
	}
}