{
	"data": {
		"bytecode": {
			"linkReferences": {},
			"object": "608060405234801561001057600080fd5b5061146c806100206000396000f3fe608060405234801561001057600080fd5b506004361061012c5760003560e01c806367708dae116100ad578063c57b22be11610071578063c57b22be14610230578063c701f95514610238578063cc375fb714610240578063f74ba75f14610248578063faf4d8cb1461025b5761012c565b806367708dae146101d85780637ea399c1146101ed5780637efcfe8514610202578063a7ccec2f14610215578063b4a8498c1461021d5761012c565b80634242d5b3116100f45780634242d5b3146101a3578063437545f9146101ab578063437da02f146101b35780634a51a71f146101bb5780634c34a982146101c35761012c565b806302cfb563146101315780630d360b7f1461014f5780632d24006c146101645780633e71e1e7146101795780634167d00214610183575b600080fd5b610139610263565b60405161014691906111b4565b60405180910390f35b61015761026c565b604051610146919061138e565b61016c610272565b60405161014691906113ba565b610181610285565b005b61019661019136600461109f565b610436565b60405161014691906111bf565b61016c610448565b61016c61044d565b61016c61026c565b610196610455565b6101cb61045a565b604051610146919061137a565b6101e061046b565b60405161014691906113e2565b6101f561047a565b60405161014691906111a0565b6101816102103660046110b9565b610485565b6101966106d4565b61018161022b366004610f79565b6106da565b6101e06108f2565b610196610908565b61019661090f565b61018161025636600461101b565b610916565b61016c610af2565b600f5460ff1681565b61ffff81565b600c54600160c01b900463ffffffff1681565b61028d610b05565b60408051606081018252600080825260208201819052918101829052905b600381101561043257338282600381106102c157fe5b60200201516001600160a01b0316141561042a576003546102e157600080fd5b60008181526004602052604090205460ff16156102fd57600080fd5b6000818152600460205260409020805460ff1916600190811790915560058054909101908190556003141561037e57621275006002541115610379576212750060028190556040517ff2b18f8abbd8a0d0c1fb8245146eedf5304887b12f6395b548ca238e054a148391610370916111bf565b60405180910390a15b610425565b600260055414156103cd5762093a8060025411156103795762093a8060028190556040517ff2b18f8abbd8a0d0c1fb8245146eedf5304887b12f6395b548ca238e054a148391610370916111bf565b60016005541415610425576203f4806002541115610425576203f48060028190556040517ff2b18f8abbd8a0d0c1fb8245146eedf5304887b12f6395b548ca238e054a14839161041c916111bf565b60405180910390a15b610432565b6001016102ab565b5050565b600e6020526000908152604090205481565b600081565b63ffffffff81565b600381565b6cffffffffffffffffffffffffff81565b600d546001600160401b031681565b6001600160a01b0381565b600f5460ff166104b05760405162461bcd60e51b81526004016104a79061130c565b60405180910390fd5b600d546000906104d090600160401b90046001600160401b031684610b2a565b90506000816001600160401b0316116104fb5760405162461bcd60e51b81526004016104a7906112f1565b600d546000906001600160401b03165b600d546001600160401b039081168401811690821610156106805760026001600160401b038216600090815260076020526040902054600160e01b900460ff16600f81111561055657fe5b141561065257600084836001600160401b03168151811061057357fe5b6020908102919091018101516001600160401b0384166000908152600790925260409091205490915060601b6bffffffffffffffffffffffff19166105b782610b54565b6bffffffffffffffffffffffff1916146105e35760405162461bcd60e51b81526004016104a7906111e3565b8260010192506000806105f583610b64565b90506000610607838360600151610beb565b6080929092015169ffffffffffffffffffff199092166000908152600b6020526040902080546001600160801b031981166001600160801b0391821690940116929092179091555050505b6001600160401b038116600090815260076020526040902080546001600160e81b031916905560010161050b565b5050600d80546fffffffffffffffff00000000000000001967ffffffffffffffff1982166001600160401b039283168501831617908116600160401b91829004831694909403909116029190911790555050565b60065481565b6106e2610b05565b600954604051634b18bd0f60e01b81526001600160a01b0390911690634b18bd0f906107129033906004016111a0565b60006040518083038186803b15801561072a57600080fd5b505afa15801561073e573d6000803e3d6000fd5b5050600c54835163ffffffff600160a01b8304811694506000935061076c92600160c01b9004168403610c08565b90506000805b8263ffffffff168163ffffffff161015610811576000858263ffffffff168151811061079a57fe5b602002602001015190506107ad81610c23565b63ffffffff86166000908152600e6020526040902054146107e05760405162461bcd60e51b81526004016104a7906111fe565b63ffffffff85166000908152600e602090815260408220919091550151600019909401939190910190600101610772565b50600c805463ffffffff60a01b1916600160a01b63ffffffff86811682029290921792839055600d805467ffffffffffffffff60801b198116600160801b918290046001600160401b0390811688900316909102179055600160c01b8304821692041610156108a157600c8054600160c01b63ffffffff600160a01b8304160263ffffffff60c01b199091161790555b7f6f3a8259cce1ea2680115053d21c971aa1764295a45850f520525f2bfdf3c9d3600c60189054906101000a900463ffffffff16846040516108e49291906113cb565b60405180910390a150505050565b600d54600160401b90046001600160401b031681565b620186a081565b6224ea0081565b63ffffffff838116111561093c5760405162461bcd60e51b81526004016104a7906112bb565b63ffffffff831661095f5760405162461bcd60e51b81526004016104a7906112a0565b637ffffffe63ffffffff8316106109885760405162461bcd60e51b81526004016104a79061126a565b600f5460ff166109aa5760405162461bcd60e51b81526004016104a790611219565b63ffffffff80841660009081526010602090815260408083209386168352929052205460ff16156109ed5760405162461bcd60e51b81526004016104a7906112d6565b6109f685610c23565b600c54600160c01b900463ffffffff166000908152600e602052604090205414610a325760405162461bcd60e51b81526004016104a7906111c8565b61ffff63ffffffff831611610a98576000610a4d8584610beb565b9050610a598183610c53565b7fd19cf67bbb6c320849f41b650b1179fb06a3f104451c75109c3b006a385c16888383604051610a8a92919061139d565b60405180910390a150610abe565b6001600160801b038116610abe5760405162461bcd60e51b81526004016104a79061124f565b5063ffffffff91821660009081526010602090815260408083209390941682529190915220805460ff191660011790555050565b600c54600160a01b900463ffffffff1681565b600f5460ff1615610b285760405162461bcd60e51b81526004016104a790611285565b565b6000816001600160401b0316836001600160401b031610610b4b5781610b4d565b825b9392505050565b8051602082012060601b5b919050565b610b6c610ea2565b6001610b788382610cf7565b63ffffffff1660208401529050610b8f8382610d10565b60408401529050610ba08382610d20565b61ffff1660608401529050610bb58382610d30565b6001600160801b03166080840152905060378114610be55760405162461bcd60e51b81526004016104a790611234565b50919050565b60a01b61ffff60a01b166001600160a01b03919091161760501b90565b60008163ffffffff168363ffffffff1610610b4b5781610b4d565b600081604051602001610c369190611327565b604051602081830303815290604052805190602001209050919050565b69ffffffffffffffffffff1982166000908152600b6020526040908190205481518083019092526001600160801b03169080610c8f8385610d40565b6001600160801b03908116825260ff602092830181905269ffffffffffffffffffff199096166000908152600b835260409020835181549490930151909616600160801b0260ff60801b19929091166001600160801b03199093169290921716179092555050565b600481016000610d078484610d8b565b90509250929050565b602081016000610d078484610dd9565b600281016000610d078484610e1c565b601081016000610d078484610e5f565b60008282016001600160801b038085169082161015610b4d576040805162461bcd60e51b8152602060048201526002602482015261189960f11b604482015290519081900360640190fd5b6000808260040190508084511015610dce576040805162461bcd60e51b81526020600482015260016024820152602b60f91b604482015290519081900360640190fd5b929092015192915050565b6000808260200190508084511015610dce576040805162461bcd60e51b81526020600482015260016024820152605960f81b604482015290519081900360640190fd5b6000808260020190508084511015610dce576040805162461bcd60e51b81526020600482015260016024820152601560fa1b604482015290519081900360640190fd5b6000808260100190508084511015610dce576040805162461bcd60e51b81526020600482015260016024820152605760f81b604482015290519081900360640190fd5b6040805160a08101825260008082526020820181905291810182905260608101829052608081019190915290565b600060c08284031215610ee1578081fd5b60405160c081018181106001600160401b0382111715610efd57fe5b604052905080610f0c83610f4e565b8152610f1a60208401610f62565b602082015260408301356040820152606083013560608201526080830135608082015260a083013560a08201525092915050565b803563ffffffff81168114610b5f57600080fd5b80356001600160401b0381168114610b5f57600080fd5b60006020808385031215610f8b578182fd5b82356001600160401b03811115610fa0578283fd5b8301601f81018513610fb0578283fd5b8035610fc3610fbe82611419565b6113f6565b8181528381019083850160c0808502860187018a1015610fe1578788fd5b8795505b8486101561100d57610ff78a83610ed0565b8452600195909501949286019290810190610fe5565b509098975050505050505050565b60008060008060006101408688031215611033578081fd5b61103d8787610ed0565b945060c08601356001600160a01b0381168114611058578182fd5b935061106660e08701610f4e565b92506110756101008701610f4e565b91506101208601356001600160801b0381168114611091578182fd5b809150509295509295909350565b6000602082840312156110b0578081fd5b610b4d82610f4e565b60008060408084860312156110cc578283fd5b6110d584610f62565b92506020808501356001600160401b03808211156110f1578485fd5b818701915087601f830112611104578485fd5b8135611112610fbe82611419565b81815284810190848601885b8481101561118e57813587018d603f820112611138578a8bfd5b888101358781111561114657fe5b611158601f8201601f19168b016113f6565b8181528f8c83850101111561116b578c8dfd5b818c84018c8301379081018a018c9052855250928701929087019060010161111e565b50989b909a5098505050505050505050565b6001600160a01b0391909116815260200190565b901515815260200190565b90815260200190565b6020808252600190820152607560f81b604082015260600190565b6020808252600190820152606160f81b604082015260600190565b6020808252600190820152603960f91b604082015260600190565b6020808252600190820152607360f81b604082015260600190565b6020808252600190820152602760f91b604082015260600190565b6020808252600190820152602d60f91b604082015260600190565b6020808252600190820152601560fa1b604082015260600190565b6020808252600190820152601360fa1b604082015260600190565b6020808252600190820152603b60f91b604082015260600190565b6020808252600190820152606560f81b604082015260600190565b6020808252600190820152601d60fa1b604082015260600190565b6020808252600190820152603960f81b604082015260600190565b6020808252600190820152600760fb1b604082015260600190565b600060c08201905063ffffffff83511682526001600160401b03602084015116602083015260408301516040830152606083015160608301526080830151608083015260a083015160a083015292915050565b6001600160801b0391909116815260200190565b61ffff91909116815260200190565b61ffff9290921682526001600160801b0316602082015260400190565b63ffffffff91909116815260200190565b63ffffffff92831681529116602082015260400190565b6001600160401b0391909116815260200190565b6040518181016001600160401b038111828210171561141157fe5b604052919050565b60006001600160401b0382111561142c57fe5b506020908102019056fea2646970667358221220698761c27ddf3abb6bd29f2846480b99994316c2e3a5c90bcbbfec19d5655ef664736f6c63430007060033",
			"opcodes": "PUSH1 0x80 PUSH1 0x40 MSTORE CALLVALUE DUP1 ISZERO PUSH2 0x10 JUMPI PUSH1 0x0 DUP1 REVERT JUMPDEST POP PUSH2 0x146C DUP1 PUSH2 0x20 PUSH1 0x0 CODECOPY PUSH1 0x0 RETURN INVALID PUSH1 0x80 PUSH1 0x40 MSTORE CALLVALUE DUP1 ISZERO PUSH2 0x10 JUMPI PUSH1 0x0 DUP1 REVERT JUMPDEST POP PUSH1 0x4 CALLDATASIZE LT PUSH2 0x12C JUMPI PUSH1 0x0 CALLDATALOAD PUSH1 0xE0 SHR DUP1 PUSH4 0x67708DAE GT PUSH2 0xAD JUMPI DUP1 PUSH4 0xC57B22BE GT PUSH2 0x71 JUMPI DUP1 PUSH4 0xC57B22BE EQ PUSH2 0x230 JUMPI DUP1 PUSH4 0xC701F955 EQ PUSH2 0x238 JUMPI DUP1 PUSH4 0xCC375FB7 EQ PUSH2 0x240 JUMPI DUP1 PUSH4 0xF74BA75F EQ PUSH2 0x248 JUMPI DUP1 PUSH4 0xFAF4D8CB EQ PUSH2 0x25B JUMPI PUSH2 0x12C JUMP JUMPDEST DUP1 PUSH4 0x67708DAE EQ PUSH2 0x1D8 JUMPI DUP1 PUSH4 0x7EA399C1 EQ PUSH2 0x1ED JUMPI DUP1 PUSH4 0x7EFCFE85 EQ PUSH2 0x202 JUMPI DUP1 PUSH4 0xA7CCEC2F EQ PUSH2 0x215 JUMPI DUP1 PUSH4 0xB4A8498C EQ PUSH2 0x21D JUMPI PUSH2 0x12C JUMP JUMPDEST DUP1 PUSH4 0x4242D5B3 GT PUSH2 0xF4 JUMPI DUP1 PUSH4 0x4242D5B3 EQ PUSH2 0x1A3 JUMPI DUP1 PUSH4 0x437545F9 EQ PUSH2 0x1AB JUMPI DUP1 PUSH4 0x437DA02F EQ PUSH2 0x1B3 JUMPI DUP1 PUSH4 0x4A51A71F EQ PUSH2 0x1BB JUMPI DUP1 PUSH4 0x4C34A982 EQ PUSH2 0x1C3 JUMPI PUSH2 0x12C JUMP JUMPDEST DUP1 PUSH4 0x2CFB563 EQ PUSH2 0x131 JUMPI DUP1 PUSH4 0xD360B7F EQ PUSH2 0x14F JUMPI DUP1 PUSH4 0x2D24006C EQ PUSH2 0x164 JUMPI DUP1 PUSH4 0x3E71E1E7 EQ PUSH2 0x179 JUMPI DUP1 PUSH4 0x4167D002 EQ PUSH2 0x183 JUMPI JUMPDEST PUSH1 0x0 DUP1 REVERT JUMPDEST PUSH2 0x139 PUSH2 0x263 JUMP JUMPDEST PUSH1 0x40 MLOAD PUSH2 0x146 SWAP2 SWAP1 PUSH2 0x11B4 JUMP JUMPDEST PUSH1 0x40 MLOAD DUP1 SWAP2 SUB SWAP1 RETURN JUMPDEST PUSH2 0x157 PUSH2 0x26C JUMP JUMPDEST PUSH1 0x40 MLOAD PUSH2 0x146 SWAP2 SWAP1 PUSH2 0x138E JUMP JUMPDEST PUSH2 0x16C PUSH2 0x272 JUMP JUMPDEST PUSH1 0x40 MLOAD PUSH2 0x146 SWAP2 SWAP1 PUSH2 0x13BA JUMP JUMPDEST PUSH2 0x181 PUSH2 0x285 JUMP JUMPDEST STOP JUMPDEST PUSH2 0x196 PUSH2 0x191 CALLDATASIZE PUSH1 0x4 PUSH2 0x109F JUMP JUMPDEST PUSH2 0x436 JUMP JUMPDEST PUSH1 0x40 MLOAD PUSH2 0x146 SWAP2 SWAP1 PUSH2 0x11BF JUMP JUMPDEST PUSH2 0x16C PUSH2 0x448 JUMP JUMPDEST PUSH2 0x16C PUSH2 0x44D JUMP JUMPDEST PUSH2 0x16C PUSH2 0x26C JUMP JUMPDEST PUSH2 0x196 PUSH2 0x455 JUMP JUMPDEST PUSH2 0x1CB PUSH2 0x45A JUMP JUMPDEST PUSH1 0x40 MLOAD PUSH2 0x146 SWAP2 SWAP1 PUSH2 0x137A JUMP JUMPDEST PUSH2 0x1E0 PUSH2 0x46B JUMP JUMPDEST PUSH1 0x40 MLOAD PUSH2 0x146 SWAP2 SWAP1 PUSH2 0x13E2 JUMP JUMPDEST PUSH2 0x1F5 PUSH2 0x47A JUMP JUMPDEST PUSH1 0x40 MLOAD PUSH2 0x146 SWAP2 SWAP1 PUSH2 0x11A0 JUMP JUMPDEST PUSH2 0x181 PUSH2 0x210 CALLDATASIZE PUSH1 0x4 PUSH2 0x10B9 JUMP JUMPDEST PUSH2 0x485 JUMP JUMPDEST PUSH2 0x196 PUSH2 0x6D4 JUMP JUMPDEST PUSH2 0x181 PUSH2 0x22B CALLDATASIZE PUSH1 0x4 PUSH2 0xF79 JUMP JUMPDEST PUSH2 0x6DA JUMP JUMPDEST PUSH2 0x1E0 PUSH2 0x8F2 JUMP JUMPDEST PUSH2 0x196 PUSH2 0x908 JUMP JUMPDEST PUSH2 0x196 PUSH2 0x90F JUMP JUMPDEST PUSH2 0x181 PUSH2 0x256 CALLDATASIZE PUSH1 0x4 PUSH2 0x101B JUMP JUMPDEST PUSH2 0x916 JUMP JUMPDEST PUSH2 0x16C PUSH2 0xAF2 JUMP JUMPDEST PUSH1 0xF SLOAD PUSH1 0xFF AND DUP2 JUMP JUMPDEST PUSH2 0xFFFF DUP2 JUMP JUMPDEST PUSH1 0xC SLOAD PUSH1 0x1 PUSH1 0xC0 SHL SWAP1 DIV PUSH4 0xFFFFFFFF AND DUP2 JUMP JUMPDEST PUSH2 0x28D PUSH2 0xB05 JUMP JUMPDEST PUSH1 0x40 DUP1 MLOAD PUSH1 0x60 DUP2 ADD DUP3 MSTORE PUSH1 0x0 DUP1 DUP3 MSTORE PUSH1 0x20 DUP3 ADD DUP2 SWAP1 MSTORE SWAP2 DUP2 ADD DUP3 SWAP1 MSTORE SWAP1 JUMPDEST PUSH1 0x3 DUP2 LT ISZERO PUSH2 0x432 JUMPI CALLER DUP3 DUP3 PUSH1 0x3 DUP2 LT PUSH2 0x2C1 JUMPI INVALID JUMPDEST PUSH1 0x20 MUL ADD MLOAD PUSH1 0x1 PUSH1 0x1 PUSH1 0xA0 SHL SUB AND EQ ISZERO PUSH2 0x42A JUMPI PUSH1 0x3 SLOAD PUSH2 0x2E1 JUMPI PUSH1 0x0 DUP1 REVERT JUMPDEST PUSH1 0x0 DUP2 DUP2 MSTORE PUSH1 0x4 PUSH1 0x20 MSTORE PUSH1 0x40 SWAP1 KECCAK256 SLOAD PUSH1 0xFF AND ISZERO PUSH2 0x2FD JUMPI PUSH1 0x0 DUP1 REVERT JUMPDEST PUSH1 0x0 DUP2 DUP2 MSTORE PUSH1 0x4 PUSH1 0x20 MSTORE PUSH1 0x40 SWAP1 KECCAK256 DUP1 SLOAD PUSH1 0xFF NOT AND PUSH1 0x1 SWAP1 DUP2 OR SWAP1 SWAP2 SSTORE PUSH1 0x5 DUP1 SLOAD SWAP1 SWAP2 ADD SWAP1 DUP2 SWAP1 SSTORE PUSH1 0x3 EQ ISZERO PUSH2 0x37E JUMPI PUSH3 0x127500 PUSH1 0x2 SLOAD GT ISZERO PUSH2 0x379 JUMPI PUSH3 0x127500 PUSH1 0x2 DUP2 SWAP1 SSTORE PUSH1 0x40 MLOAD PUSH32 0xF2B18F8ABBD8A0D0C1FB8245146EEDF5304887B12F6395B548CA238E054A1483 SWAP2 PUSH2 0x370 SWAP2 PUSH2 0x11BF JUMP JUMPDEST PUSH1 0x40 MLOAD DUP1 SWAP2 SUB SWAP1 LOG1 JUMPDEST PUSH2 0x425 JUMP JUMPDEST PUSH1 0x2 PUSH1 0x5 SLOAD EQ ISZERO PUSH2 0x3CD JUMPI PUSH3 0x93A80 PUSH1 0x2 SLOAD GT ISZERO PUSH2 0x379 JUMPI PUSH3 0x93A80 PUSH1 0x2 DUP2 SWAP1 SSTORE PUSH1 0x40 MLOAD PUSH32 0xF2B18F8ABBD8A0D0C1FB8245146EEDF5304887B12F6395B548CA238E054A1483 SWAP2 PUSH2 0x370 SWAP2 PUSH2 0x11BF JUMP JUMPDEST PUSH1 0x1 PUSH1 0x5 SLOAD EQ ISZERO PUSH2 0x425 JUMPI PUSH3 0x3F480 PUSH1 0x2 SLOAD GT ISZERO PUSH2 0x425 JUMPI PUSH3 0x3F480 PUSH1 0x2 DUP2 SWAP1 SSTORE PUSH1 0x40 MLOAD PUSH32 0xF2B18F8ABBD8A0D0C1FB8245146EEDF5304887B12F6395B548CA238E054A1483 SWAP2 PUSH2 0x41C SWAP2 PUSH2 0x11BF JUMP JUMPDEST PUSH1 0x40 MLOAD DUP1 SWAP2 SUB SWAP1 LOG1 JUMPDEST PUSH2 0x432 JUMP JUMPDEST PUSH1 0x1 ADD PUSH2 0x2AB JUMP JUMPDEST POP POP JUMP JUMPDEST PUSH1 0xE PUSH1 0x20 MSTORE PUSH1 0x0 SWAP1 DUP2 MSTORE PUSH1 0x40 SWAP1 KECCAK256 SLOAD DUP2 JUMP JUMPDEST PUSH1 0x0 DUP2 JUMP JUMPDEST PUSH4 0xFFFFFFFF DUP2 JUMP JUMPDEST PUSH1 0x3 DUP2 JUMP JUMPDEST PUSH13 0xFFFFFFFFFFFFFFFFFFFFFFFFFF DUP2 JUMP JUMPDEST PUSH1 0xD SLOAD PUSH1 0x1 PUSH1 0x1 PUSH1 0x40 SHL SUB AND DUP2 JUMP JUMPDEST PUSH1 0x1 PUSH1 0x1 PUSH1 0xA0 SHL SUB DUP2 JUMP JUMPDEST PUSH1 0xF SLOAD PUSH1 0xFF AND PUSH2 0x4B0 JUMPI PUSH1 0x40 MLOAD PUSH3 0x461BCD PUSH1 0xE5 SHL DUP2 MSTORE PUSH1 0x4 ADD PUSH2 0x4A7 SWAP1 PUSH2 0x130C JUMP JUMPDEST PUSH1 0x40 MLOAD DUP1 SWAP2 SUB SWAP1 REVERT JUMPDEST PUSH1 0xD SLOAD PUSH1 0x0 SWAP1 PUSH2 0x4D0 SWAP1 PUSH1 0x1 PUSH1 0x40 SHL SWAP1 DIV PUSH1 0x1 PUSH1 0x1 PUSH1 0x40 SHL SUB AND DUP5 PUSH2 0xB2A JUMP JUMPDEST SWAP1 POP PUSH1 0x0 DUP2 PUSH1 0x1 PUSH1 0x1 PUSH1 0x40 SHL SUB AND GT PUSH2 0x4FB JUMPI PUSH1 0x40 MLOAD PUSH3 0x461BCD PUSH1 0xE5 SHL DUP2 MSTORE PUSH1 0x4 ADD PUSH2 0x4A7 SWAP1 PUSH2 0x12F1 JUMP JUMPDEST PUSH1 0xD SLOAD PUSH1 0x0 SWAP1 PUSH1 0x1 PUSH1 0x1 PUSH1 0x40 SHL SUB AND JUMPDEST PUSH1 0xD SLOAD PUSH1 0x1 PUSH1 0x1 PUSH1 0x40 SHL SUB SWAP1 DUP2 AND DUP5 ADD DUP2 AND SWAP1 DUP3 AND LT ISZERO PUSH2 0x680 JUMPI PUSH1 0x2 PUSH1 0x1 PUSH1 0x1 PUSH1 0x40 SHL SUB DUP3 AND PUSH1 0x0 SWAP1 DUP2 MSTORE PUSH1 0x7 PUSH1 0x20 MSTORE PUSH1 0x40 SWAP1 KECCAK256 SLOAD PUSH1 0x1 PUSH1 0xE0 SHL SWAP1 DIV PUSH1 0xFF AND PUSH1 0xF DUP2 GT ISZERO PUSH2 0x556 JUMPI INVALID JUMPDEST EQ ISZERO PUSH2 0x652 JUMPI PUSH1 0x0 DUP5 DUP4 PUSH1 0x1 PUSH1 0x1 PUSH1 0x40 SHL SUB AND DUP2 MLOAD DUP2 LT PUSH2 0x573 JUMPI INVALID JUMPDEST PUSH1 0x20 SWAP1 DUP2 MUL SWAP2 SWAP1 SWAP2 ADD DUP2 ADD MLOAD PUSH1 0x1 PUSH1 0x1 PUSH1 0x40 SHL SUB DUP5 AND PUSH1 0x0 SWAP1 DUP2 MSTORE PUSH1 0x7 SWAP1 SWAP3 MSTORE PUSH1 0x40 SWAP1 SWAP2 KECCAK256 SLOAD SWAP1 SWAP2 POP PUSH1 0x60 SHL PUSH12 0xFFFFFFFFFFFFFFFFFFFFFFFF NOT AND PUSH2 0x5B7 DUP3 PUSH2 0xB54 JUMP JUMPDEST PUSH12 0xFFFFFFFFFFFFFFFFFFFFFFFF NOT AND EQ PUSH2 0x5E3 JUMPI PUSH1 0x40 MLOAD PUSH3 0x461BCD PUSH1 0xE5 SHL DUP2 MSTORE PUSH1 0x4 ADD PUSH2 0x4A7 SWAP1 PUSH2 0x11E3 JUMP JUMPDEST DUP3 PUSH1 0x1 ADD SWAP3 POP PUSH1 0x0 DUP1 PUSH2 0x5F5 DUP4 PUSH2 0xB64 JUMP JUMPDEST SWAP1 POP PUSH1 0x0 PUSH2 0x607 DUP4 DUP4 PUSH1 0x60 ADD MLOAD PUSH2 0xBEB JUMP JUMPDEST PUSH1 0x80 SWAP3 SWAP1 SWAP3 ADD MLOAD PUSH10 0xFFFFFFFFFFFFFFFFFFFF NOT SWAP1 SWAP3 AND PUSH1 0x0 SWAP1 DUP2 MSTORE PUSH1 0xB PUSH1 0x20 MSTORE PUSH1 0x40 SWAP1 KECCAK256 DUP1 SLOAD PUSH1 0x1 PUSH1 0x1 PUSH1 0x80 SHL SUB NOT DUP2 AND PUSH1 0x1 PUSH1 0x1 PUSH1 0x80 SHL SUB SWAP2 DUP3 AND SWAP1 SWAP5 ADD AND SWAP3 SWAP1 SWAP3 OR SWAP1 SWAP2 SSTORE POP POP POP JUMPDEST PUSH1 0x1 PUSH1 0x1 PUSH1 0x40 SHL SUB DUP2 AND PUSH1 0x0 SWAP1 DUP2 MSTORE PUSH1 0x7 PUSH1 0x20 MSTORE PUSH1 0x40 SWAP1 KECCAK256 DUP1 SLOAD PUSH1 0x1 PUSH1 0x1 PUSH1 0xE8 SHL SUB NOT AND SWAP1 SSTORE PUSH1 0x1 ADD PUSH2 0x50B JUMP JUMPDEST POP POP PUSH1 0xD DUP1 SLOAD PUSH16 0xFFFFFFFFFFFFFFFF0000000000000000 NOT PUSH8 0xFFFFFFFFFFFFFFFF NOT DUP3 AND PUSH1 0x1 PUSH1 0x1 PUSH1 0x40 SHL SUB SWAP3 DUP4 AND DUP6 ADD DUP4 AND OR SWAP1 DUP2 AND PUSH1 0x1 PUSH1 0x40 SHL SWAP2 DUP3 SWAP1 DIV DUP4 AND SWAP5 SWAP1 SWAP5 SUB SWAP1 SWAP2 AND MUL SWAP2 SWAP1 SWAP2 OR SWAP1 SSTORE POP POP JUMP JUMPDEST PUSH1 0x6 SLOAD DUP2 JUMP JUMPDEST PUSH2 0x6E2 PUSH2 0xB05 JUMP JUMPDEST PUSH1 0x9 SLOAD PUSH1 0x40 MLOAD PUSH4 0x4B18BD0F PUSH1 0xE0 SHL DUP2 MSTORE PUSH1 0x1 PUSH1 0x1 PUSH1 0xA0 SHL SUB SWAP1 SWAP2 AND SWAP1 PUSH4 0x4B18BD0F SWAP1 PUSH2 0x712 SWAP1 CALLER SWAP1 PUSH1 0x4 ADD PUSH2 0x11A0 JUMP JUMPDEST PUSH1 0x0 PUSH1 0x40 MLOAD DUP1 DUP4 SUB DUP2 DUP7 DUP1 EXTCODESIZE ISZERO DUP1 ISZERO PUSH2 0x72A JUMPI PUSH1 0x0 DUP1 REVERT JUMPDEST POP GAS STATICCALL ISZERO DUP1 ISZERO PUSH2 0x73E JUMPI RETURNDATASIZE PUSH1 0x0 DUP1 RETURNDATACOPY RETURNDATASIZE PUSH1 0x0 REVERT JUMPDEST POP POP PUSH1 0xC SLOAD DUP4 MLOAD PUSH4 0xFFFFFFFF PUSH1 0x1 PUSH1 0xA0 SHL DUP4 DIV DUP2 AND SWAP5 POP PUSH1 0x0 SWAP4 POP PUSH2 0x76C SWAP3 PUSH1 0x1 PUSH1 0xC0 SHL SWAP1 DIV AND DUP5 SUB PUSH2 0xC08 JUMP JUMPDEST SWAP1 POP PUSH1 0x0 DUP1 JUMPDEST DUP3 PUSH4 0xFFFFFFFF AND DUP2 PUSH4 0xFFFFFFFF AND LT ISZERO PUSH2 0x811 JUMPI PUSH1 0x0 DUP6 DUP3 PUSH4 0xFFFFFFFF AND DUP2 MLOAD DUP2 LT PUSH2 0x79A JUMPI INVALID JUMPDEST PUSH1 0x20 MUL PUSH1 0x20 ADD ADD MLOAD SWAP1 POP PUSH2 0x7AD DUP2 PUSH2 0xC23 JUMP JUMPDEST PUSH4 0xFFFFFFFF DUP7 AND PUSH1 0x0 SWAP1 DUP2 MSTORE PUSH1 0xE PUSH1 0x20 MSTORE PUSH1 0x40 SWAP1 KECCAK256 SLOAD EQ PUSH2 0x7E0 JUMPI PUSH1 0x40 MLOAD PUSH3 0x461BCD PUSH1 0xE5 SHL DUP2 MSTORE PUSH1 0x4 ADD PUSH2 0x4A7 SWAP1 PUSH2 0x11FE JUMP JUMPDEST PUSH4 0xFFFFFFFF DUP6 AND PUSH1 0x0 SWAP1 DUP2 MSTORE PUSH1 0xE PUSH1 0x20 SWAP1 DUP2 MSTORE PUSH1 0x40 DUP3 KECCAK256 SWAP2 SWAP1 SWAP2 SSTORE ADD MLOAD PUSH1 0x0 NOT SWAP1 SWAP5 ADD SWAP4 SWAP2 SWAP1 SWAP2 ADD SWAP1 PUSH1 0x1 ADD PUSH2 0x772 JUMP JUMPDEST POP PUSH1 0xC DUP1 SLOAD PUSH4 0xFFFFFFFF PUSH1 0xA0 SHL NOT AND PUSH1 0x1 PUSH1 0xA0 SHL PUSH4 0xFFFFFFFF DUP7 DUP2 AND DUP3 MUL SWAP3 SWAP1 SWAP3 OR SWAP3 DUP4 SWAP1 SSTORE PUSH1 0xD DUP1 SLOAD PUSH8 0xFFFFFFFFFFFFFFFF PUSH1 0x80 SHL NOT DUP2 AND PUSH1 0x1 PUSH1 0x80 SHL SWAP2 DUP3 SWAP1 DIV PUSH1 0x1 PUSH1 0x1 PUSH1 0x40 SHL SUB SWAP1 DUP2 AND DUP9 SWAP1 SUB AND SWAP1 SWAP2 MUL OR SWAP1 SSTORE PUSH1 0x1 PUSH1 0xC0 SHL DUP4 DIV DUP3 AND SWAP3 DIV AND LT ISZERO PUSH2 0x8A1 JUMPI PUSH1 0xC DUP1 SLOAD PUSH1 0x1 PUSH1 0xC0 SHL PUSH4 0xFFFFFFFF PUSH1 0x1 PUSH1 0xA0 SHL DUP4 DIV AND MUL PUSH4 0xFFFFFFFF PUSH1 0xC0 SHL NOT SWAP1 SWAP2 AND OR SWAP1 SSTORE JUMPDEST PUSH32 0x6F3A8259CCE1EA2680115053D21C971AA1764295A45850F520525F2BFDF3C9D3 PUSH1 0xC PUSH1 0x18 SWAP1 SLOAD SWAP1 PUSH2 0x100 EXP SWAP1 DIV PUSH4 0xFFFFFFFF AND DUP5 PUSH1 0x40 MLOAD PUSH2 0x8E4 SWAP3 SWAP2 SWAP1 PUSH2 0x13CB JUMP JUMPDEST PUSH1 0x40 MLOAD DUP1 SWAP2 SUB SWAP1 LOG1 POP POP POP POP JUMP JUMPDEST PUSH1 0xD SLOAD PUSH1 0x1 PUSH1 0x40 SHL SWAP1 DIV PUSH1 0x1 PUSH1 0x1 PUSH1 0x40 SHL SUB AND DUP2 JUMP JUMPDEST PUSH3 0x186A0 DUP2 JUMP JUMPDEST PUSH3 0x24EA00 DUP2 JUMP JUMPDEST PUSH4 0xFFFFFFFF DUP4 DUP2 AND GT ISZERO PUSH2 0x93C JUMPI PUSH1 0x40 MLOAD PUSH3 0x461BCD PUSH1 0xE5 SHL DUP2 MSTORE PUSH1 0x4 ADD PUSH2 0x4A7 SWAP1 PUSH2 0x12BB JUMP JUMPDEST PUSH4 0xFFFFFFFF DUP4 AND PUSH2 0x95F JUMPI PUSH1 0x40 MLOAD PUSH3 0x461BCD PUSH1 0xE5 SHL DUP2 MSTORE PUSH1 0x4 ADD PUSH2 0x4A7 SWAP1 PUSH2 0x12A0 JUMP JUMPDEST PUSH4 0x7FFFFFFE PUSH4 0xFFFFFFFF DUP4 AND LT PUSH2 0x988 JUMPI PUSH1 0x40 MLOAD PUSH3 0x461BCD PUSH1 0xE5 SHL DUP2 MSTORE PUSH1 0x4 ADD PUSH2 0x4A7 SWAP1 PUSH2 0x126A JUMP JUMPDEST PUSH1 0xF SLOAD PUSH1 0xFF AND PUSH2 0x9AA JUMPI PUSH1 0x40 MLOAD PUSH3 0x461BCD PUSH1 0xE5 SHL DUP2 MSTORE PUSH1 0x4 ADD PUSH2 0x4A7 SWAP1 PUSH2 0x1219 JUMP JUMPDEST PUSH4 0xFFFFFFFF DUP1 DUP5 AND PUSH1 0x0 SWAP1 DUP2 MSTORE PUSH1 0x10 PUSH1 0x20 SWAP1 DUP2 MSTORE PUSH1 0x40 DUP1 DUP4 KECCAK256 SWAP4 DUP7 AND DUP4 MSTORE SWAP3 SWAP1 MSTORE KECCAK256 SLOAD PUSH1 0xFF AND ISZERO PUSH2 0x9ED JUMPI PUSH1 0x40 MLOAD PUSH3 0x461BCD PUSH1 0xE5 SHL DUP2 MSTORE PUSH1 0x4 ADD PUSH2 0x4A7 SWAP1 PUSH2 0x12D6 JUMP JUMPDEST PUSH2 0x9F6 DUP6 PUSH2 0xC23 JUMP JUMPDEST PUSH1 0xC SLOAD PUSH1 0x1 PUSH1 0xC0 SHL SWAP1 DIV PUSH4 0xFFFFFFFF AND PUSH1 0x0 SWAP1 DUP2 MSTORE PUSH1 0xE PUSH1 0x20 MSTORE PUSH1 0x40 SWAP1 KECCAK256 SLOAD EQ PUSH2 0xA32 JUMPI PUSH1 0x40 MLOAD PUSH3 0x461BCD PUSH1 0xE5 SHL DUP2 MSTORE PUSH1 0x4 ADD PUSH2 0x4A7 SWAP1 PUSH2 0x11C8 JUMP JUMPDEST PUSH2 0xFFFF PUSH4 0xFFFFFFFF DUP4 AND GT PUSH2 0xA98 JUMPI PUSH1 0x0 PUSH2 0xA4D DUP6 DUP5 PUSH2 0xBEB JUMP JUMPDEST SWAP1 POP PUSH2 0xA59 DUP2 DUP4 PUSH2 0xC53 JUMP JUMPDEST PUSH32 0xD19CF67BBB6C320849F41B650B1179FB06A3F104451C75109C3B006A385C1688 DUP4 DUP4 PUSH1 0x40 MLOAD PUSH2 0xA8A SWAP3 SWAP2 SWAP1 PUSH2 0x139D JUMP JUMPDEST PUSH1 0x40 MLOAD DUP1 SWAP2 SUB SWAP1 LOG1 POP PUSH2 0xABE JUMP JUMPDEST PUSH1 0x1 PUSH1 0x1 PUSH1 0x80 SHL SUB DUP2 AND PUSH2 0xABE JUMPI PUSH1 0x40 MLOAD PUSH3 0x461BCD PUSH1 0xE5 SHL DUP2 MSTORE PUSH1 0x4 ADD PUSH2 0x4A7 SWAP1 PUSH2 0x124F JUMP JUMPDEST POP PUSH4 0xFFFFFFFF SWAP2 DUP3 AND PUSH1 0x0 SWAP1 DUP2 MSTORE PUSH1 0x10 PUSH1 0x20 SWAP1 DUP2 MSTORE PUSH1 0x40 DUP1 DUP4 KECCAK256 SWAP4 SWAP1 SWAP5 AND DUP3 MSTORE SWAP2 SWAP1 SWAP2 MSTORE KECCAK256 DUP1 SLOAD PUSH1 0xFF NOT AND PUSH1 0x1 OR SWAP1 SSTORE POP POP JUMP JUMPDEST PUSH1 0xC SLOAD PUSH1 0x1 PUSH1 0xA0 SHL SWAP1 DIV PUSH4 0xFFFFFFFF AND DUP2 JUMP JUMPDEST PUSH1 0xF SLOAD PUSH1 0xFF AND ISZERO PUSH2 0xB28 JUMPI PUSH1 0x40 MLOAD PUSH3 0x461BCD PUSH1 0xE5 SHL DUP2 MSTORE PUSH1 0x4 ADD PUSH2 0x4A7 SWAP1 PUSH2 0x1285 JUMP JUMPDEST JUMP JUMPDEST PUSH1 0x0 DUP2 PUSH1 0x1 PUSH1 0x1 PUSH1 0x40 SHL SUB AND DUP4 PUSH1 0x1 PUSH1 0x1 PUSH1 0x40 SHL SUB AND LT PUSH2 0xB4B JUMPI DUP2 PUSH2 0xB4D JUMP JUMPDEST DUP3 JUMPDEST SWAP4 SWAP3 POP POP POP JUMP JUMPDEST DUP1 MLOAD PUSH1 0x20 DUP3 ADD KECCAK256 PUSH1 0x60 SHL JUMPDEST SWAP2 SWAP1 POP JUMP JUMPDEST PUSH2 0xB6C PUSH2 0xEA2 JUMP JUMPDEST PUSH1 0x1 PUSH2 0xB78 DUP4 DUP3 PUSH2 0xCF7 JUMP JUMPDEST PUSH4 0xFFFFFFFF AND PUSH1 0x20 DUP5 ADD MSTORE SWAP1 POP PUSH2 0xB8F DUP4 DUP3 PUSH2 0xD10 JUMP JUMPDEST PUSH1 0x40 DUP5 ADD MSTORE SWAP1 POP PUSH2 0xBA0 DUP4 DUP3 PUSH2 0xD20 JUMP JUMPDEST PUSH2 0xFFFF AND PUSH1 0x60 DUP5 ADD MSTORE SWAP1 POP PUSH2 0xBB5 DUP4 DUP3 PUSH2 0xD30 JUMP JUMPDEST PUSH1 0x1 PUSH1 0x1 PUSH1 0x80 SHL SUB AND PUSH1 0x80 DUP5 ADD MSTORE SWAP1 POP PUSH1 0x37 DUP2 EQ PUSH2 0xBE5 JUMPI PUSH1 0x40 MLOAD PUSH3 0x461BCD PUSH1 0xE5 SHL DUP2 MSTORE PUSH1 0x4 ADD PUSH2 0x4A7 SWAP1 PUSH2 0x1234 JUMP JUMPDEST POP SWAP2 SWAP1 POP JUMP JUMPDEST PUSH1 0xA0 SHL PUSH2 0xFFFF PUSH1 0xA0 SHL AND PUSH1 0x1 PUSH1 0x1 PUSH1 0xA0 SHL SUB SWAP2 SWAP1 SWAP2 AND OR PUSH1 0x50 SHL SWAP1 JUMP JUMPDEST PUSH1 0x0 DUP2 PUSH4 0xFFFFFFFF AND DUP4 PUSH4 0xFFFFFFFF AND LT PUSH2 0xB4B JUMPI DUP2 PUSH2 0xB4D JUMP JUMPDEST PUSH1 0x0 DUP2 PUSH1 0x40 MLOAD PUSH1 0x20 ADD PUSH2 0xC36 SWAP2 SWAP1 PUSH2 0x1327 JUMP JUMPDEST PUSH1 0x40 MLOAD PUSH1 0x20 DUP2 DUP4 SUB SUB DUP2 MSTORE SWAP1 PUSH1 0x40 MSTORE DUP1 MLOAD SWAP1 PUSH1 0x20 ADD KECCAK256 SWAP1 POP SWAP2 SWAP1 POP JUMP JUMPDEST PUSH10 0xFFFFFFFFFFFFFFFFFFFF NOT DUP3 AND PUSH1 0x0 SWAP1 DUP2 MSTORE PUSH1 0xB PUSH1 0x20 MSTORE PUSH1 0x40 SWAP1 DUP2 SWAP1 KECCAK256 SLOAD DUP2 MLOAD DUP1 DUP4 ADD SWAP1 SWAP3 MSTORE PUSH1 0x1 PUSH1 0x1 PUSH1 0x80 SHL SUB AND SWAP1 DUP1 PUSH2 0xC8F DUP4 DUP6 PUSH2 0xD40 JUMP JUMPDEST PUSH1 0x1 PUSH1 0x1 PUSH1 0x80 SHL SUB SWAP1 DUP2 AND DUP3 MSTORE PUSH1 0xFF PUSH1 0x20 SWAP3 DUP4 ADD DUP2 SWAP1 MSTORE PUSH10 0xFFFFFFFFFFFFFFFFFFFF NOT SWAP1 SWAP7 AND PUSH1 0x0 SWAP1 DUP2 MSTORE PUSH1 0xB DUP4 MSTORE PUSH1 0x40 SWAP1 KECCAK256 DUP4 MLOAD DUP2 SLOAD SWAP5 SWAP1 SWAP4 ADD MLOAD SWAP1 SWAP7 AND PUSH1 0x1 PUSH1 0x80 SHL MUL PUSH1 0xFF PUSH1 0x80 SHL NOT SWAP3 SWAP1 SWAP2 AND PUSH1 0x1 PUSH1 0x1 PUSH1 0x80 SHL SUB NOT SWAP1 SWAP4 AND SWAP3 SWAP1 SWAP3 OR AND OR SWAP1 SWAP3 SSTORE POP POP JUMP JUMPDEST PUSH1 0x4 DUP2 ADD PUSH1 0x0 PUSH2 0xD07 DUP5 DUP5 PUSH2 0xD8B JUMP JUMPDEST SWAP1 POP SWAP3 POP SWAP3 SWAP1 POP JUMP JUMPDEST PUSH1 0x20 DUP2 ADD PUSH1 0x0 PUSH2 0xD07 DUP5 DUP5 PUSH2 0xDD9 JUMP JUMPDEST PUSH1 0x2 DUP2 ADD PUSH1 0x0 PUSH2 0xD07 DUP5 DUP5 PUSH2 0xE1C JUMP JUMPDEST PUSH1 0x10 DUP2 ADD PUSH1 0x0 PUSH2 0xD07 DUP5 DUP5 PUSH2 0xE5F JUMP JUMPDEST PUSH1 0x0 DUP3 DUP3 ADD PUSH1 0x1 PUSH1 0x1 PUSH1 0x80 SHL SUB DUP1 DUP6 AND SWAP1 DUP3 AND LT ISZERO PUSH2 0xB4D JUMPI PUSH1 0x40 DUP1 MLOAD PUSH3 0x461BCD PUSH1 0xE5 SHL DUP2 MSTORE PUSH1 0x20 PUSH1 0x4 DUP3 ADD MSTORE PUSH1 0x2 PUSH1 0x24 DUP3 ADD MSTORE PUSH2 0x1899 PUSH1 0xF1 SHL PUSH1 0x44 DUP3 ADD MSTORE SWAP1 MLOAD SWAP1 DUP2 SWAP1 SUB PUSH1 0x64 ADD SWAP1 REVERT JUMPDEST PUSH1 0x0 DUP1 DUP3 PUSH1 0x4 ADD SWAP1 POP DUP1 DUP5 MLOAD LT ISZERO PUSH2 0xDCE JUMPI PUSH1 0x40 DUP1 MLOAD PUSH3 0x461BCD PUSH1 0xE5 SHL DUP2 MSTORE PUSH1 0x20 PUSH1 0x4 DUP3 ADD MSTORE PUSH1 0x1 PUSH1 0x24 DUP3 ADD MSTORE PUSH1 0x2B PUSH1 0xF9 SHL PUSH1 0x44 DUP3 ADD MSTORE SWAP1 MLOAD SWAP1 DUP2 SWAP1 SUB PUSH1 0x64 ADD SWAP1 REVERT JUMPDEST SWAP3 SWAP1 SWAP3 ADD MLOAD SWAP3 SWAP2 POP POP JUMP JUMPDEST PUSH1 0x0 DUP1 DUP3 PUSH1 0x20 ADD SWAP1 POP DUP1 DUP5 MLOAD LT ISZERO PUSH2 0xDCE JUMPI PUSH1 0x40 DUP1 MLOAD PUSH3 0x461BCD PUSH1 0xE5 SHL DUP2 MSTORE PUSH1 0x20 PUSH1 0x4 DUP3 ADD MSTORE PUSH1 0x1 PUSH1 0x24 DUP3 ADD MSTORE PUSH1 0x59 PUSH1 0xF8 SHL PUSH1 0x44 DUP3 ADD MSTORE SWAP1 MLOAD SWAP1 DUP2 SWAP1 SUB PUSH1 0x64 ADD SWAP1 REVERT JUMPDEST PUSH1 0x0 DUP1 DUP3 PUSH1 0x2 ADD SWAP1 POP DUP1 DUP5 MLOAD LT ISZERO PUSH2 0xDCE JUMPI PUSH1 0x40 DUP1 MLOAD PUSH3 0x461BCD PUSH1 0xE5 SHL DUP2 MSTORE PUSH1 0x20 PUSH1 0x4 DUP3 ADD MSTORE PUSH1 0x1 PUSH1 0x24 DUP3 ADD MSTORE PUSH1 0x15 PUSH1 0xFA SHL PUSH1 0x44 DUP3 ADD MSTORE SWAP1 MLOAD SWAP1 DUP2 SWAP1 SUB PUSH1 0x64 ADD SWAP1 REVERT JUMPDEST PUSH1 0x0 DUP1 DUP3 PUSH1 0x10 ADD SWAP1 POP DUP1 DUP5 MLOAD LT ISZERO PUSH2 0xDCE JUMPI PUSH1 0x40 DUP1 MLOAD PUSH3 0x461BCD PUSH1 0xE5 SHL DUP2 MSTORE PUSH1 0x20 PUSH1 0x4 DUP3 ADD MSTORE PUSH1 0x1 PUSH1 0x24 DUP3 ADD MSTORE PUSH1 0x57 PUSH1 0xF8 SHL PUSH1 0x44 DUP3 ADD MSTORE SWAP1 MLOAD SWAP1 DUP2 SWAP1 SUB PUSH1 0x64 ADD SWAP1 REVERT JUMPDEST PUSH1 0x40 DUP1 MLOAD PUSH1 0xA0 DUP2 ADD DUP3 MSTORE PUSH1 0x0 DUP1 DUP3 MSTORE PUSH1 0x20 DUP3 ADD DUP2 SWAP1 MSTORE SWAP2 DUP2 ADD DUP3 SWAP1 MSTORE PUSH1 0x60 DUP2 ADD DUP3 SWAP1 MSTORE PUSH1 0x80 DUP2 ADD SWAP2 SWAP1 SWAP2 MSTORE SWAP1 JUMP JUMPDEST PUSH1 0x0 PUSH1 0xC0 DUP3 DUP5 SUB SLT ISZERO PUSH2 0xEE1 JUMPI DUP1 DUP2 REVERT JUMPDEST PUSH1 0x40 MLOAD PUSH1 0xC0 DUP2 ADD DUP2 DUP2 LT PUSH1 0x1 PUSH1 0x1 PUSH1 0x40 SHL SUB DUP3 GT OR ISZERO PUSH2 0xEFD JUMPI INVALID JUMPDEST PUSH1 0x40 MSTORE SWAP1 POP DUP1 PUSH2 0xF0C DUP4 PUSH2 0xF4E JUMP JUMPDEST DUP2 MSTORE PUSH2 0xF1A PUSH1 0x20 DUP5 ADD PUSH2 0xF62 JUMP JUMPDEST PUSH1 0x20 DUP3 ADD MSTORE PUSH1 0x40 DUP4 ADD CALLDATALOAD PUSH1 0x40 DUP3 ADD MSTORE PUSH1 0x60 DUP4 ADD CALLDATALOAD PUSH1 0x60 DUP3 ADD MSTORE PUSH1 0x80 DUP4 ADD CALLDATALOAD PUSH1 0x80 DUP3 ADD MSTORE PUSH1 0xA0 DUP4 ADD CALLDATALOAD PUSH1 0xA0 DUP3 ADD MSTORE POP SWAP3 SWAP2 POP POP JUMP JUMPDEST DUP1 CALLDATALOAD PUSH4 0xFFFFFFFF DUP2 AND DUP2 EQ PUSH2 0xB5F JUMPI PUSH1 0x0 DUP1 REVERT JUMPDEST DUP1 CALLDATALOAD PUSH1 0x1 PUSH1 0x1 PUSH1 0x40 SHL SUB DUP2 AND DUP2 EQ PUSH2 0xB5F JUMPI PUSH1 0x0 DUP1 REVERT JUMPDEST PUSH1 0x0 PUSH1 0x20 DUP1 DUP4 DUP6 SUB SLT ISZERO PUSH2 0xF8B JUMPI DUP2 DUP3 REVERT JUMPDEST DUP3 CALLDATALOAD PUSH1 0x1 PUSH1 0x1 PUSH1 0x40 SHL SUB DUP2 GT ISZERO PUSH2 0xFA0 JUMPI DUP3 DUP4 REVERT JUMPDEST DUP4 ADD PUSH1 0x1F DUP2 ADD DUP6 SGT PUSH2 0xFB0 JUMPI DUP3 DUP4 REVERT JUMPDEST DUP1 CALLDATALOAD PUSH2 0xFC3 PUSH2 0xFBE DUP3 PUSH2 0x1419 JUMP JUMPDEST PUSH2 0x13F6 JUMP JUMPDEST DUP2 DUP2 MSTORE DUP4 DUP2 ADD SWAP1 DUP4 DUP6 ADD PUSH1 0xC0 DUP1 DUP6 MUL DUP7 ADD DUP8 ADD DUP11 LT ISZERO PUSH2 0xFE1 JUMPI DUP8 DUP9 REVERT JUMPDEST DUP8 SWAP6 POP JUMPDEST DUP5 DUP7 LT ISZERO PUSH2 0x100D JUMPI PUSH2 0xFF7 DUP11 DUP4 PUSH2 0xED0 JUMP JUMPDEST DUP5 MSTORE PUSH1 0x1 SWAP6 SWAP1 SWAP6 ADD SWAP5 SWAP3 DUP7 ADD SWAP3 SWAP1 DUP2 ADD SWAP1 PUSH2 0xFE5 JUMP JUMPDEST POP SWAP1 SWAP9 SWAP8 POP POP POP POP POP POP POP POP JUMP JUMPDEST PUSH1 0x0 DUP1 PUSH1 0x0 DUP1 PUSH1 0x0 PUSH2 0x140 DUP7 DUP9 SUB SLT ISZERO PUSH2 0x1033 JUMPI DUP1 DUP2 REVERT JUMPDEST PUSH2 0x103D DUP8 DUP8 PUSH2 0xED0 JUMP JUMPDEST SWAP5 POP PUSH1 0xC0 DUP7 ADD CALLDATALOAD PUSH1 0x1 PUSH1 0x1 PUSH1 0xA0 SHL SUB DUP2 AND DUP2 EQ PUSH2 0x1058 JUMPI DUP2 DUP3 REVERT JUMPDEST SWAP4 POP PUSH2 0x1066 PUSH1 0xE0 DUP8 ADD PUSH2 0xF4E JUMP JUMPDEST SWAP3 POP PUSH2 0x1075 PUSH2 0x100 DUP8 ADD PUSH2 0xF4E JUMP JUMPDEST SWAP2 POP PUSH2 0x120 DUP7 ADD CALLDATALOAD PUSH1 0x1 PUSH1 0x1 PUSH1 0x80 SHL SUB DUP2 AND DUP2 EQ PUSH2 0x1091 JUMPI DUP2 DUP3 REVERT JUMPDEST DUP1 SWAP2 POP POP SWAP3 SWAP6 POP SWAP3 SWAP6 SWAP1 SWAP4 POP JUMP JUMPDEST PUSH1 0x0 PUSH1 0x20 DUP3 DUP5 SUB SLT ISZERO PUSH2 0x10B0 JUMPI DUP1 DUP2 REVERT JUMPDEST PUSH2 0xB4D DUP3 PUSH2 0xF4E JUMP JUMPDEST PUSH1 0x0 DUP1 PUSH1 0x40 DUP1 DUP5 DUP7 SUB SLT ISZERO PUSH2 0x10CC JUMPI DUP3 DUP4 REVERT JUMPDEST PUSH2 0x10D5 DUP5 PUSH2 0xF62 JUMP JUMPDEST SWAP3 POP PUSH1 0x20 DUP1 DUP6 ADD CALLDATALOAD PUSH1 0x1 PUSH1 0x1 PUSH1 0x40 SHL SUB DUP1 DUP3 GT ISZERO PUSH2 0x10F1 JUMPI DUP5 DUP6 REVERT JUMPDEST DUP2 DUP8 ADD SWAP2 POP DUP8 PUSH1 0x1F DUP4 ADD SLT PUSH2 0x1104 JUMPI DUP5 DUP6 REVERT JUMPDEST DUP2 CALLDATALOAD PUSH2 0x1112 PUSH2 0xFBE DUP3 PUSH2 0x1419 JUMP JUMPDEST DUP2 DUP2 MSTORE DUP5 DUP2 ADD SWAP1 DUP5 DUP7 ADD DUP9 JUMPDEST DUP5 DUP2 LT ISZERO PUSH2 0x118E JUMPI DUP2 CALLDATALOAD DUP8 ADD DUP14 PUSH1 0x3F DUP3 ADD SLT PUSH2 0x1138 JUMPI DUP11 DUP12 REVERT JUMPDEST DUP9 DUP2 ADD CALLDATALOAD DUP8 DUP2 GT ISZERO PUSH2 0x1146 JUMPI INVALID JUMPDEST PUSH2 0x1158 PUSH1 0x1F DUP3 ADD PUSH1 0x1F NOT AND DUP12 ADD PUSH2 0x13F6 JUMP JUMPDEST DUP2 DUP2 MSTORE DUP16 DUP13 DUP4 DUP6 ADD ADD GT ISZERO PUSH2 0x116B JUMPI DUP13 DUP14 REVERT JUMPDEST DUP2 DUP13 DUP5 ADD DUP13 DUP4 ADD CALLDATACOPY SWAP1 DUP2 ADD DUP11 ADD DUP13 SWAP1 MSTORE DUP6 MSTORE POP SWAP3 DUP8 ADD SWAP3 SWAP1 DUP8 ADD SWAP1 PUSH1 0x1 ADD PUSH2 0x111E JUMP JUMPDEST POP SWAP9 SWAP12 SWAP1 SWAP11 POP SWAP9 POP POP POP POP POP POP POP POP POP JUMP JUMPDEST PUSH1 0x1 PUSH1 0x1 PUSH1 0xA0 SHL SUB SWAP2 SWAP1 SWAP2 AND DUP2 MSTORE PUSH1 0x20 ADD SWAP1 JUMP JUMPDEST SWAP1 ISZERO ISZERO DUP2 MSTORE PUSH1 0x20 ADD SWAP1 JUMP JUMPDEST SWAP1 DUP2 MSTORE PUSH1 0x20 ADD SWAP1 JUMP JUMPDEST PUSH1 0x20 DUP1 DUP3 MSTORE PUSH1 0x1 SWAP1 DUP3 ADD MSTORE PUSH1 0x75 PUSH1 0xF8 SHL PUSH1 0x40 DUP3 ADD MSTORE PUSH1 0x60 ADD SWAP1 JUMP JUMPDEST PUSH1 0x20 DUP1 DUP3 MSTORE PUSH1 0x1 SWAP1 DUP3 ADD MSTORE PUSH1 0x61 PUSH1 0xF8 SHL PUSH1 0x40 DUP3 ADD MSTORE PUSH1 0x60 ADD SWAP1 JUMP JUMPDEST PUSH1 0x20 DUP1 DUP3 MSTORE PUSH1 0x1 SWAP1 DUP3 ADD MSTORE PUSH1 0x39 PUSH1 0xF9 SHL PUSH1 0x40 DUP3 ADD MSTORE PUSH1 0x60 ADD SWAP1 JUMP JUMPDEST PUSH1 0x20 DUP1 DUP3 MSTORE PUSH1 0x1 SWAP1 DUP3 ADD MSTORE PUSH1 0x73 PUSH1 0xF8 SHL PUSH1 0x40 DUP3 ADD MSTORE PUSH1 0x60 ADD SWAP1 JUMP JUMPDEST PUSH1 0x20 DUP1 DUP3 MSTORE PUSH1 0x1 SWAP1 DUP3 ADD MSTORE PUSH1 0x27 PUSH1 0xF9 SHL PUSH1 0x40 DUP3 ADD MSTORE PUSH1 0x60 ADD SWAP1 JUMP JUMPDEST PUSH1 0x20 DUP1 DUP3 MSTORE PUSH1 0x1 SWAP1 DUP3 ADD MSTORE PUSH1 0x2D PUSH1 0xF9 SHL PUSH1 0x40 DUP3 ADD MSTORE PUSH1 0x60 ADD SWAP1 JUMP JUMPDEST PUSH1 0x20 DUP1 DUP3 MSTORE PUSH1 0x1 SWAP1 DUP3 ADD MSTORE PUSH1 0x15 PUSH1 0xFA SHL PUSH1 0x40 DUP3 ADD MSTORE PUSH1 0x60 ADD SWAP1 JUMP JUMPDEST PUSH1 0x20 DUP1 DUP3 MSTORE PUSH1 0x1 SWAP1 DUP3 ADD MSTORE PUSH1 0x13 PUSH1 0xFA SHL PUSH1 0x40 DUP3 ADD MSTORE PUSH1 0x60 ADD SWAP1 JUMP JUMPDEST PUSH1 0x20 DUP1 DUP3 MSTORE PUSH1 0x1 SWAP1 DUP3 ADD MSTORE PUSH1 0x3B PUSH1 0xF9 SHL PUSH1 0x40 DUP3 ADD MSTORE PUSH1 0x60 ADD SWAP1 JUMP JUMPDEST PUSH1 0x20 DUP1 DUP3 MSTORE PUSH1 0x1 SWAP1 DUP3 ADD MSTORE PUSH1 0x65 PUSH1 0xF8 SHL PUSH1 0x40 DUP3 ADD MSTORE PUSH1 0x60 ADD SWAP1 JUMP JUMPDEST PUSH1 0x20 DUP1 DUP3 MSTORE PUSH1 0x1 SWAP1 DUP3 ADD MSTORE PUSH1 0x1D PUSH1 0xFA SHL PUSH1 0x40 DUP3 ADD MSTORE PUSH1 0x60 ADD SWAP1 JUMP JUMPDEST PUSH1 0x20 DUP1 DUP3 MSTORE PUSH1 0x1 SWAP1 DUP3 ADD MSTORE PUSH1 0x39 PUSH1 0xF8 SHL PUSH1 0x40 DUP3 ADD MSTORE PUSH1 0x60 ADD SWAP1 JUMP JUMPDEST PUSH1 0x20 DUP1 DUP3 MSTORE PUSH1 0x1 SWAP1 DUP3 ADD MSTORE PUSH1 0x7 PUSH1 0xFB SHL PUSH1 0x40 DUP3 ADD MSTORE PUSH1 0x60 ADD SWAP1 JUMP JUMPDEST PUSH1 0x0 PUSH1 0xC0 DUP3 ADD SWAP1 POP PUSH4 0xFFFFFFFF DUP4 MLOAD AND DUP3 MSTORE PUSH1 0x1 PUSH1 0x1 PUSH1 0x40 SHL SUB PUSH1 0x20 DUP5 ADD MLOAD AND PUSH1 0x20 DUP4 ADD MSTORE PUSH1 0x40 DUP4 ADD MLOAD PUSH1 0x40 DUP4 ADD MSTORE PUSH1 0x60 DUP4 ADD MLOAD PUSH1 0x60 DUP4 ADD MSTORE PUSH1 0x80 DUP4 ADD MLOAD PUSH1 0x80 DUP4 ADD MSTORE PUSH1 0xA0 DUP4 ADD MLOAD PUSH1 0xA0 DUP4 ADD MSTORE SWAP3 SWAP2 POP POP JUMP JUMPDEST PUSH1 0x1 PUSH1 0x1 PUSH1 0x80 SHL SUB SWAP2 SWAP1 SWAP2 AND DUP2 MSTORE PUSH1 0x20 ADD SWAP1 JUMP JUMPDEST PUSH2 0xFFFF SWAP2 SWAP1 SWAP2 AND DUP2 MSTORE PUSH1 0x20 ADD SWAP1 JUMP JUMPDEST PUSH2 0xFFFF SWAP3 SWAP1 SWAP3 AND DUP3 MSTORE PUSH1 0x1 PUSH1 0x1 PUSH1 0x80 SHL SUB AND PUSH1 0x20 DUP3 ADD MSTORE PUSH1 0x40 ADD SWAP1 JUMP JUMPDEST PUSH4 0xFFFFFFFF SWAP2 SWAP1 SWAP2 AND DUP2 MSTORE PUSH1 0x20 ADD SWAP1 JUMP JUMPDEST PUSH4 0xFFFFFFFF SWAP3 DUP4 AND DUP2 MSTORE SWAP2 AND PUSH1 0x20 DUP3 ADD MSTORE PUSH1 0x40 ADD SWAP1 JUMP JUMPDEST PUSH1 0x1 PUSH1 0x1 PUSH1 0x40 SHL SUB SWAP2 SWAP1 SWAP2 AND DUP2 MSTORE PUSH1 0x20 ADD SWAP1 JUMP JUMPDEST PUSH1 0x40 MLOAD DUP2 DUP2 ADD PUSH1 0x1 PUSH1 0x1 PUSH1 0x40 SHL SUB DUP2 GT DUP3 DUP3 LT OR ISZERO PUSH2 0x1411 JUMPI INVALID JUMPDEST PUSH1 0x40 MSTORE SWAP2 SWAP1 POP JUMP JUMPDEST PUSH1 0x0 PUSH1 0x1 PUSH1 0x1 PUSH1 0x40 SHL SUB DUP3 GT ISZERO PUSH2 0x142C JUMPI INVALID JUMPDEST POP PUSH1 0x20 SWAP1 DUP2 MUL ADD SWAP1 JUMP INVALID LOG2 PUSH5 0x6970667358 0x22 SLT KECCAK256 PUSH10 0x8761C27DDF3ABB6BD29F 0x28 CHAINID 0x48 SIGNEXTEND SWAP10 SWAP10 NUMBER AND 0xC2 0xE3 0xA5 0xC9 SIGNEXTEND 0xCB 0xBF 0xEC NOT 0xD5 PUSH6 0x5EF664736F6C PUSH4 0x43000706 STOP CALLER "
		},
		"gasEstimates": {
			"creation": {
				"codeDepositCost": "1045600",
				"executionCost": "1087",
				"totalCost": "1046687"
			},
			"external": {
				"MAX_ACCOUNT_INDEX()": "285",
				"MAX_AMOUNT_OF_REGISTERED_ASSETS()": "286",
				"MAX_DEPOSIT_AMOUNT()": "363",
				"MAX_FUNGIBLE_ASSET_ID()": "307",
				"SECURITY_COUNCIL_MEMBERS_NUMBER()": "317",
				"SPECIAL_ACCOUNT_ADDRESS()": "309",
				"SPECIAL_ACCOUNT_ID()": "263",
				"UPGRADE_NOTICE_PERIOD()": "294",
				"WITHDRAWAL_GAS_LIMIT()": "272",
				"accountRoot()": "1117",
				"cancelOutstandingDepositsForExodusMode(uint64,bytes[])": "infinite",
				"cutUpgradeNoticePeriod()": "infinite",
				"desertMode()": "1064",
				"firstPriorityRequestId()": "1093",
				"performDesert((uint32,uint64,bytes32,uint256,bytes32,bytes32),address,uint32,uint32,uint128)": "infinite",
				"revertBlocks((uint32,uint64,bytes32,uint256,bytes32,bytes32)[])": "infinite",
				"storedBlockHeaderHashes(uint32)": "1352",
				"totalBlocksCommitted()": "1173",
				"totalBlocksVerified()": "1131",
				"totalOpenPriorityRequests()": "1109"
			},
			"internal": {
				"increaseBalanceToWithdraw(bytes22,uint128)": "infinite"
			}
		},
		"methodIdentifiers": {
			"MAX_ACCOUNT_INDEX()": "437545f9",
			"MAX_AMOUNT_OF_REGISTERED_ASSETS()": "0d360b7f",
			"MAX_DEPOSIT_AMOUNT()": "4c34a982",
			"MAX_FUNGIBLE_ASSET_ID()": "437da02f",
			"SECURITY_COUNCIL_MEMBERS_NUMBER()": "4a51a71f",
			"SPECIAL_ACCOUNT_ADDRESS()": "7ea399c1",
			"SPECIAL_ACCOUNT_ID()": "4242d5b3",
			"UPGRADE_NOTICE_PERIOD()": "cc375fb7",
			"WITHDRAWAL_GAS_LIMIT()": "c701f955",
			"accountRoot()": "a7ccec2f",
			"cancelOutstandingDepositsForExodusMode(uint64,bytes[])": "7efcfe85",
			"cutUpgradeNoticePeriod()": "3e71e1e7",
			"desertMode()": "02cfb563",
			"firstPriorityRequestId()": "67708dae",
			"performDesert((uint32,uint64,bytes32,uint256,bytes32,bytes32),address,uint32,uint32,uint128)": "f74ba75f",
			"revertBlocks((uint32,uint64,bytes32,uint256,bytes32,bytes32)[])": "b4a8498c",
			"storedBlockHeaderHashes(uint32)": "4167d002",
			"totalBlocksCommitted()": "faf4d8cb",
			"totalBlocksVerified()": "2d24006c",
			"totalOpenPriorityRequests()": "c57b22be"
		}
	},
	"abi": [
		{
			"anonymous": false,
			"inputs": [
				{
					"indexed": false,
					"internalType": "uint32",
					"name": "blockNumber",
					"type": "uint32"
				}
			],
			"name": "BlockCommit",
			"type": "event"
		},
		{
			"anonymous": false,
			"inputs": [
				{
					"indexed": false,
					"internalType": "uint32",
					"name": "blockNumber",
					"type": "uint32"
				}
			],
			"name": "BlockExecution",
			"type": "event"
		},
		{
			"anonymous": false,
			"inputs": [
				{
					"indexed": false,
					"internalType": "uint32",
					"name": "blockNumber",
					"type": "uint32"
				}
			],
			"name": "BlockVerification",
			"type": "event"
		},
		{
			"anonymous": false,
			"inputs": [
				{
					"indexed": false,
					"internalType": "uint32",
					"name": "totalBlocksVerified",
					"type": "uint32"
				},
				{
					"indexed": false,
					"internalType": "uint32",
					"name": "totalBlocksCommitted",
					"type": "uint32"
				}
			],
			"name": "BlocksRevert",
			"type": "event"
		},
		{
			"anonymous": false,
			"inputs": [
				{
					"indexed": false,
					"internalType": "uint16",
					"name": "assetId",
					"type": "uint16"
				},
				{
					"indexed": false,
					"internalType": "bytes32",
					"name": "accountName",
					"type": "bytes32"
				},
				{
					"indexed": false,
					"internalType": "uint128",
					"name": "amount",
					"type": "uint128"
				}
			],
			"name": "Deposit",
			"type": "event"
		},
		{
			"anonymous": false,
			"inputs": [
				{
					"indexed": true,
					"internalType": "uint32",
					"name": "zecreyBlockNumber",
					"type": "uint32"
				},
				{
					"indexed": true,
					"internalType": "uint32",
					"name": "accountIndex",
					"type": "uint32"
				},
				{
					"indexed": false,
					"internalType": "bytes32",
					"name": "accountName",
					"type": "bytes32"
				},
				{
					"indexed": true,
					"internalType": "uint16",
					"name": "assetId",
					"type": "uint16"
				},
				{
					"indexed": false,
					"internalType": "uint128",
					"name": "amount",
					"type": "uint128"
				}
			],
			"name": "DepositCommit",
			"type": "event"
		},
		{
			"anonymous": false,
			"inputs": [
				{
					"indexed": false,
					"internalType": "bytes32",
					"name": "accountNameHash",
					"type": "bytes32"
				},
				{
					"indexed": false,
					"internalType": "address",
					"name": "tokenAddress",
					"type": "address"
				},
				{
					"indexed": false,
					"internalType": "uint8",
					"name": "nftType",
					"type": "uint8"
				},
				{
					"indexed": false,
					"internalType": "uint256",
					"name": "nftTokenId",
					"type": "uint256"
				},
				{
					"indexed": false,
					"internalType": "uint32",
					"name": "amount",
					"type": "uint32"
				}
			],
			"name": "DepositNFT",
			"type": "event"
		},
		{
			"anonymous": false,
			"inputs": [],
			"name": "DesertMode",
			"type": "event"
		},
		{
			"anonymous": false,
			"inputs": [
				{
					"indexed": true,
					"internalType": "uint32",
					"name": "zecreyBlockId",
					"type": "uint32"
				},
				{
					"indexed": true,
					"internalType": "uint32",
					"name": "accountId",
					"type": "uint32"
				},
				{
					"indexed": false,
					"internalType": "address",
					"name": "owner",
					"type": "address"
				},
				{
					"indexed": true,
					"internalType": "uint16",
					"name": "tokenId",
					"type": "uint16"
				},
				{
					"indexed": false,
					"internalType": "uint128",
					"name": "amount",
					"type": "uint128"
				}
			],
			"name": "FullExitCommit",
			"type": "event"
		},
		{
			"anonymous": false,
			"inputs": [
				{
					"indexed": false,
					"internalType": "address",
					"name": "sender",
					"type": "address"
				},
				{
					"indexed": false,
					"internalType": "uint64",
					"name": "serialId",
					"type": "uint64"
				},
				{
					"indexed": false,
					"internalType": "enum TxTypes.TxType",
					"name": "txType",
					"type": "uint8"
				},
				{
					"indexed": false,
					"internalType": "bytes",
					"name": "pubData",
					"type": "bytes"
				},
				{
					"indexed": false,
					"internalType": "uint256",
					"name": "expirationBlock",
					"type": "uint256"
				}
			],
			"name": "NewPriorityRequest",
			"type": "event"
		},
		{
			"anonymous": false,
			"inputs": [
				{
					"indexed": false,
					"internalType": "uint256",
					"name": "newNoticePeriod",
					"type": "uint256"
				}
			],
			"name": "NoticePeriodChange",
			"type": "event"
		},
		{
			"anonymous": false,
			"inputs": [
				{
					"indexed": false,
					"internalType": "string",
					"name": "name",
					"type": "string"
				},
				{
					"indexed": false,
					"internalType": "address",
					"name": "owner",
					"type": "address"
				},
				{
					"indexed": false,
					"internalType": "bytes32",
					"name": "zecreyPubKey",
					"type": "bytes32"
				}
			],
			"name": "RegisterZNS",
			"type": "event"
		},
		{
			"anonymous": false,
			"inputs": [
				{
					"indexed": false,
					"internalType": "bytes32",
					"name": "accountNameHash",
					"type": "bytes32"
				},
				{
					"indexed": false,
					"internalType": "address",
					"name": "tokenAddress",
					"type": "address"
				},
				{
					"indexed": false,
					"internalType": "address",
					"name": "toAddress",
					"type": "address"
				},
				{
					"indexed": false,
					"internalType": "address",
					"name": "proxyAddress",
					"type": "address"
				},
				{
					"indexed": false,
					"internalType": "uint8",
					"name": "nftType",
					"type": "uint8"
				},
				{
					"indexed": false,
					"internalType": "uint256",
					"name": "nftTokenId",
					"type": "uint256"
				},
				{
					"indexed": false,
					"internalType": "uint256",
					"name": "amount",
					"type": "uint256"
				}
			],
			"name": "WithdrawNFT",
			"type": "event"
		},
		{
			"anonymous": false,
			"inputs": [
				{
					"indexed": false,
					"internalType": "uint16",
					"name": "assetId",
					"type": "uint16"
				},
				{
					"indexed": false,
					"internalType": "uint128",
					"name": "amount",
					"type": "uint128"
				}
			],
			"name": "Withdrawal",
			"type": "event"
		},
		{
			"anonymous": false,
			"inputs": [
				{
					"indexed": false,
					"internalType": "uint16",
					"name": "assetId",
					"type": "uint16"
				},
				{
					"indexed": false,
					"internalType": "uint128",
					"name": "amount",
					"type": "uint128"
				}
			],
			"name": "WithdrawalPending",
			"type": "event"
		},
		{
			"inputs": [],
			"name": "MAX_ACCOUNT_INDEX",
			"outputs": [
				{
					"internalType": "uint32",
					"name": "",
					"type": "uint32"
				}
			],
			"stateMutability": "view",
			"type": "function"
		},
		{
			"inputs": [],
			"name": "MAX_AMOUNT_OF_REGISTERED_ASSETS",
			"outputs": [
				{
					"internalType": "uint16",
					"name": "",
					"type": "uint16"
				}
			],
			"stateMutability": "view",
			"type": "function"
		},
		{
			"inputs": [],
			"name": "MAX_DEPOSIT_AMOUNT",
			"outputs": [
				{
					"internalType": "uint128",
					"name": "",
					"type": "uint128"
				}
			],
			"stateMutability": "view",
			"type": "function"
		},
		{
			"inputs": [],
			"name": "MAX_FUNGIBLE_ASSET_ID",
			"outputs": [
				{
					"internalType": "uint32",
					"name": "",
					"type": "uint32"
				}
			],
			"stateMutability": "view",
			"type": "function"
		},
		{
			"inputs": [],
			"name": "SECURITY_COUNCIL_MEMBERS_NUMBER",
			"outputs": [
				{
					"internalType": "uint256",
					"name": "",
					"type": "uint256"
				}
			],
			"stateMutability": "view",
			"type": "function"
		},
		{
			"inputs": [],
			"name": "SPECIAL_ACCOUNT_ADDRESS",
			"outputs": [
				{
					"internalType": "address",
					"name": "",
					"type": "address"
				}
			],
			"stateMutability": "view",
			"type": "function"
		},
		{
			"inputs": [],
			"name": "SPECIAL_ACCOUNT_ID",
			"outputs": [
				{
					"internalType": "uint32",
					"name": "",
					"type": "uint32"
				}
			],
			"stateMutability": "view",
			"type": "function"
		},
		{
			"inputs": [],
			"name": "UPGRADE_NOTICE_PERIOD",
			"outputs": [
				{
					"internalType": "uint256",
					"name": "",
					"type": "uint256"
				}
			],
			"stateMutability": "view",
			"type": "function"
		},
		{
			"inputs": [],
			"name": "WITHDRAWAL_GAS_LIMIT",
			"outputs": [
				{
					"internalType": "uint256",
					"name": "",
					"type": "uint256"
				}
			],
			"stateMutability": "view",
			"type": "function"
		},
		{
			"inputs": [],
			"name": "accountRoot",
			"outputs": [
				{
					"internalType": "bytes32",
					"name": "",
					"type": "bytes32"
				}
			],
			"stateMutability": "view",
			"type": "function"
		},
		{
			"inputs": [
				{
					"internalType": "uint64",
					"name": "_n",
					"type": "uint64"
				},
				{
					"internalType": "bytes[]",
					"name": "_depositsPubdata",
					"type": "bytes[]"
				}
			],
			"name": "cancelOutstandingDepositsForExodusMode",
			"outputs": [],
			"stateMutability": "nonpayable",
			"type": "function"
		},
		{
			"inputs": [],
			"name": "cutUpgradeNoticePeriod",
			"outputs": [],
			"stateMutability": "nonpayable",
			"type": "function"
		},
		{
			"inputs": [],
			"name": "desertMode",
			"outputs": [
				{
					"internalType": "bool",
					"name": "",
					"type": "bool"
				}
			],
			"stateMutability": "view",
			"type": "function"
		},
		{
			"inputs": [],
			"name": "firstPriorityRequestId",
			"outputs": [
				{
					"internalType": "uint64",
					"name": "",
					"type": "uint64"
				}
			],
			"stateMutability": "view",
			"type": "function"
		},
		{
			"inputs": [
				{
					"components": [
						{
							"internalType": "uint32",
							"name": "blockNumber",
							"type": "uint32"
						},
						{
							"internalType": "uint64",
							"name": "priorityOperations",
							"type": "uint64"
						},
						{
							"internalType": "bytes32",
							"name": "pendingOnchainOperationsHash",
							"type": "bytes32"
						},
						{
							"internalType": "uint256",
							"name": "timestamp",
							"type": "uint256"
						},
						{
							"internalType": "bytes32",
							"name": "accountRoot",
							"type": "bytes32"
						},
						{
							"internalType": "bytes32",
							"name": "commitment",
							"type": "bytes32"
						}
					],
					"internalType": "struct Storage.BlockHeader",
					"name": "_storedBlockHeader",
					"type": "tuple"
				},
				{
					"internalType": "address",
					"name": "_owner",
					"type": "address"
				},
				{
					"internalType": "uint32",
					"name": "_accountId",
					"type": "uint32"
				},
				{
					"internalType": "uint32",
					"name": "_tokenId",
					"type": "uint32"
				},
				{
					"internalType": "uint128",
					"name": "_amount",
					"type": "uint128"
				}
			],
			"name": "performDesert",
			"outputs": [],
			"stateMutability": "nonpayable",
			"type": "function"
		},
		{
			"inputs": [
				{
					"components": [
						{
							"internalType": "uint32",
							"name": "blockNumber",
							"type": "uint32"
						},
						{
							"internalType": "uint64",
							"name": "priorityOperations",
							"type": "uint64"
						},
						{
							"internalType": "bytes32",
							"name": "pendingOnchainOperationsHash",
							"type": "bytes32"
						},
						{
							"internalType": "uint256",
							"name": "timestamp",
							"type": "uint256"
						},
						{
							"internalType": "bytes32",
							"name": "accountRoot",
							"type": "bytes32"
						},
						{
							"internalType": "bytes32",
							"name": "commitment",
							"type": "bytes32"
						}
					],
					"internalType": "struct Storage.BlockHeader[]",
					"name": "_blocksToRevert",
					"type": "tuple[]"
				}
			],
			"name": "revertBlocks",
			"outputs": [],
			"stateMutability": "nonpayable",
			"type": "function"
		},
		{
			"inputs": [
				{
					"internalType": "uint32",
					"name": "",
					"type": "uint32"
				}
			],
			"name": "storedBlockHeaderHashes",
			"outputs": [
				{
					"internalType": "bytes32",
					"name": "",
					"type": "bytes32"
				}
			],
			"stateMutability": "view",
			"type": "function"
		},
		{
			"inputs": [],
			"name": "totalBlocksCommitted",
			"outputs": [
				{
					"internalType": "uint32",
					"name": "",
					"type": "uint32"
				}
			],
			"stateMutability": "view",
			"type": "function"
		},
		{
			"inputs": [],
			"name": "totalBlocksVerified",
			"outputs": [
				{
					"internalType": "uint32",
					"name": "",
					"type": "uint32"
				}
			],
			"stateMutability": "view",
			"type": "function"
		},
		{
			"inputs": [],
			"name": "totalOpenPriorityRequests",
			"outputs": [
				{
					"internalType": "uint64",
					"name": "",
					"type": "uint64"
				}
			],
			"stateMutability": "view",
			"type": "function"
		}
	]
}