{
	"data": {
		"bytecode": {
			"linkReferences": {},
			"object": "608060405234801561001057600080fd5b50610bba806100206000396000f3fe608060405234801561001057600080fd5b50600436106100ea5760003560e01c8063719c150c1161008c578063af3d414b11610066578063af3d414b146102b5578063b42a9d80146102ef578063d0d552dd14610310578063f0f4426014610336576100ea565b8063719c150c146102605780639b4539451461028e578063a1a18c38146102ad576100ea565b80635aa6e675116100c85780635aa6e675146101ee57806361d027b3146102125780636a1b7ecc1461021a57806370de40b014610234576100ea565b8063131dbd09146100ef578063253946451461010e578063439fab911461017e575b600080fd5b61010c6004803603602081101561010557600080fd5b503561035c565b005b61010c6004803603602081101561012457600080fd5b81019060208101813564010000000081111561013f57600080fd5b82018360208201111561015157600080fd5b8035906020019184600183028401116401000000008311171561017357600080fd5b5090925090506103f5565b61010c6004803603602081101561019457600080fd5b8101906020810181356401000000008111156101af57600080fd5b8201836020820111156101c157600080fd5b803590602001918460018302840111640100000000831117156101e357600080fd5b5090925090506103f9565b6101f661055a565b604080516001600160a01b039092168252519081900360200190f35b6101f6610569565b610222610578565b60408051918252519081900360200190f35b61010c6004803603604081101561024a57600080fd5b506001600160a01b03813516906020013561057e565b61010c6004803603604081101561027657600080fd5b506001600160a01b038135169060200135151561062e565b610296610713565b6040805161ffff9092168252519081900360200190f35b6101f661071d565b6102db600480360360208110156102cb57600080fd5b50356001600160a01b031661072c565b604080519115158252519081900360200190f35b61010c6004803603602081101561030557600080fd5b503561ffff16610741565b61010c6004803603602081101561032657600080fd5b50356001600160a01b03166107ea565b61010c6004803603602081101561034c57600080fd5b50356001600160a01b03166109a2565b6000805460408051633d7e13b560e21b815233600482015290516001600160a01b039092169263f5f84ed492602480840193829003018186803b1580156103a257600080fd5b505afa1580156103b6573d6000803e3d6000fd5b5050506002829055506040805182815290517fa0951033a9fa04df3877d5fdba9b43d00127caf3d6ff546d0bc633f122844ee69181900360200190a150565b5050565b6000806000806000868660a081101561041157600080fd5b50600080546001600160a01b03199081166001600160a01b0384358116918217808555600180548516602080890135851691821790925560408089013560028190556003805461ffff191661ffff60608d013516908117909155600580549099166080909b013587169a8b17909855815163f39349ef60e01b81529151969e50919c50909a50949850959650939493169263f39349ef9260048082019391829003018186803b1580156104c357600080fd5b505afa1580156104d7573d6000803e3d6000fd5b505050506040513d60208110156104ed57600080fd5b50516001600160a01b038116600081815260046020908152604091829020805460ff191660019081179091558251908152915193945091927f947516bb7f07e641084b9d05943fb1c89e05da3d4d17f707ab4efd6ab58f0910929181900390910190a25050505050505050565b6000546001600160a01b031681565b6005546001600160a01b031681565b60025481565b6000805460408051633d7e13b560e21b815233600482015290516001600160a01b039092169263f5f84ed492602480840193829003018186803b1580156105c457600080fd5b505afa1580156105d8573d6000803e3d6000fd5b5050600180546001600160a01b0319166001600160a01b03861690811790915560028490556040519092507f3246cb0d7c19b6340b39fa43b91e3b663fb1eb1a2f5eb747c8f09646f63005559150600090a25050565b6000805460408051633d7e13b560e21b815233600482015290516001600160a01b039092169263f5f84ed492602480840193829003018186803b15801561067457600080fd5b505afa158015610688573d6000803e3d6000fd5b5050506001600160a01b03831660009081526004602052604090205460ff1615158215151490506103f5576001600160a01b038216600081815260046020908152604091829020805460ff1916851515908117909155825190815291517f947516bb7f07e641084b9d05943fb1c89e05da3d4d17f707ab4efd6ab58f09109281900390910190a25050565b60035461ffff1681565b6001546001600160a01b031681565b60046020526000908152604090205460ff1681565b6000805460408051633d7e13b560e21b815233600482015290516001600160a01b039092169263f5f84ed492602480840193829003018186803b15801561078757600080fd5b505afa15801561079b573d6000803e3d6000fd5b50506003805461ffff851661ffff19909116811790915560408051918252517fd07b88b359bb918e12349b2779862f7c6954810991cfcf664e36bd2168f17b0d9350908190036020019150a150565b600354600054604080516278744560e21b8152905161ffff909316926001600160a01b03909216916301e1d11491600480820192602092909190829003018186803b15801561083857600080fd5b505afa15801561084c573d6000803e3d6000fd5b505050506040513d602081101561086257600080fd5b505161ffff16106108b2576040805162461bcd60e51b815260206004820152601560248201527463616e277420616464206d6f726520746f6b656e7360581b604482015290519081900360640190fd5b3360009081526004602052604090205460ff1661093c576001546005546002546000926108f0926001600160a01b0391821692339290911690610a55565b90508061093a576040805162461bcd60e51b8152602060048201526013602482015272199959481d1c985b9cd9995c8819985a5b1959606a1b604482015290519081900360640190fd5b505b600080546040805163298410e560e01b81526001600160a01b0385811660048301529151919092169263298410e5926024808201939182900301818387803b15801561098757600080fd5b505af115801561099b573d6000803e3d6000fd5b5050505050565b6000805460408051633d7e13b560e21b815233600482015290516001600160a01b039092169263f5f84ed492602480840193829003018186803b1580156109e857600080fd5b505afa1580156109fc573d6000803e3d6000fd5b5050600580546001600160a01b0385166001600160a01b0319909116811790915560408051918252517f8a3509a4057c89a5993a4a3140c2ebf7e829d325d8998eaa6c48adcff98b2cef9350908190036020019150a150565b604080516001600160a01b0385811660248301528481166044830152606480830185905283518084039091018152608490920183526020820180516001600160e01b03166323b872dd60e01b17815292518251600094859485948b16939092909182918083835b60208310610adb5780518252601f199092019160209182019101610abc565b6001836020036101000a0380198251168184511680821785525050505050509050019150506000604051808303816000865af19150503d8060008114610b3d576040519150601f19603f3d011682016040523d82523d6000602084013e610b42565b606091505b50915091506000815160001480610b6c5750818060200190516020811015610b6957600080fd5b50515b9050828015610b785750805b9897505050505050505056fea2646970667358221220f2a10584c1e4f34f4d1515ceab0f842d8c2e71a9c41f00166a0fc4a8f12ac7f964736f6c63430007060033",
			"opcodes": "PUSH1 0x80 PUSH1 0x40 MSTORE CALLVALUE DUP1 ISZERO PUSH2 0x10 JUMPI PUSH1 0x0 DUP1 REVERT JUMPDEST POP PUSH2 0xBBA DUP1 PUSH2 0x20 PUSH1 0x0 CODECOPY PUSH1 0x0 RETURN INVALID PUSH1 0x80 PUSH1 0x40 MSTORE CALLVALUE DUP1 ISZERO PUSH2 0x10 JUMPI PUSH1 0x0 DUP1 REVERT JUMPDEST POP PUSH1 0x4 CALLDATASIZE LT PUSH2 0xEA JUMPI PUSH1 0x0 CALLDATALOAD PUSH1 0xE0 SHR DUP1 PUSH4 0x719C150C GT PUSH2 0x8C JUMPI DUP1 PUSH4 0xAF3D414B GT PUSH2 0x66 JUMPI DUP1 PUSH4 0xAF3D414B EQ PUSH2 0x2B5 JUMPI DUP1 PUSH4 0xB42A9D80 EQ PUSH2 0x2EF JUMPI DUP1 PUSH4 0xD0D552DD EQ PUSH2 0x310 JUMPI DUP1 PUSH4 0xF0F44260 EQ PUSH2 0x336 JUMPI PUSH2 0xEA JUMP JUMPDEST DUP1 PUSH4 0x719C150C EQ PUSH2 0x260 JUMPI DUP1 PUSH4 0x9B453945 EQ PUSH2 0x28E JUMPI DUP1 PUSH4 0xA1A18C38 EQ PUSH2 0x2AD JUMPI PUSH2 0xEA JUMP JUMPDEST DUP1 PUSH4 0x5AA6E675 GT PUSH2 0xC8 JUMPI DUP1 PUSH4 0x5AA6E675 EQ PUSH2 0x1EE JUMPI DUP1 PUSH4 0x61D027B3 EQ PUSH2 0x212 JUMPI DUP1 PUSH4 0x6A1B7ECC EQ PUSH2 0x21A JUMPI DUP1 PUSH4 0x70DE40B0 EQ PUSH2 0x234 JUMPI PUSH2 0xEA JUMP JUMPDEST DUP1 PUSH4 0x131DBD09 EQ PUSH2 0xEF JUMPI DUP1 PUSH4 0x25394645 EQ PUSH2 0x10E JUMPI DUP1 PUSH4 0x439FAB91 EQ PUSH2 0x17E JUMPI JUMPDEST PUSH1 0x0 DUP1 REVERT JUMPDEST PUSH2 0x10C PUSH1 0x4 DUP1 CALLDATASIZE SUB PUSH1 0x20 DUP2 LT ISZERO PUSH2 0x105 JUMPI PUSH1 0x0 DUP1 REVERT JUMPDEST POP CALLDATALOAD PUSH2 0x35C JUMP JUMPDEST STOP JUMPDEST PUSH2 0x10C PUSH1 0x4 DUP1 CALLDATASIZE SUB PUSH1 0x20 DUP2 LT ISZERO PUSH2 0x124 JUMPI PUSH1 0x0 DUP1 REVERT JUMPDEST DUP2 ADD SWAP1 PUSH1 0x20 DUP2 ADD DUP2 CALLDATALOAD PUSH5 0x100000000 DUP2 GT ISZERO PUSH2 0x13F JUMPI PUSH1 0x0 DUP1 REVERT JUMPDEST DUP3 ADD DUP4 PUSH1 0x20 DUP3 ADD GT ISZERO PUSH2 0x151 JUMPI PUSH1 0x0 DUP1 REVERT JUMPDEST DUP1 CALLDATALOAD SWAP1 PUSH1 0x20 ADD SWAP2 DUP5 PUSH1 0x1 DUP4 MUL DUP5 ADD GT PUSH5 0x100000000 DUP4 GT OR ISZERO PUSH2 0x173 JUMPI PUSH1 0x0 DUP1 REVERT JUMPDEST POP SWAP1 SWAP3 POP SWAP1 POP PUSH2 0x3F5 JUMP JUMPDEST PUSH2 0x10C PUSH1 0x4 DUP1 CALLDATASIZE SUB PUSH1 0x20 DUP2 LT ISZERO PUSH2 0x194 JUMPI PUSH1 0x0 DUP1 REVERT JUMPDEST DUP2 ADD SWAP1 PUSH1 0x20 DUP2 ADD DUP2 CALLDATALOAD PUSH5 0x100000000 DUP2 GT ISZERO PUSH2 0x1AF JUMPI PUSH1 0x0 DUP1 REVERT JUMPDEST DUP3 ADD DUP4 PUSH1 0x20 DUP3 ADD GT ISZERO PUSH2 0x1C1 JUMPI PUSH1 0x0 DUP1 REVERT JUMPDEST DUP1 CALLDATALOAD SWAP1 PUSH1 0x20 ADD SWAP2 DUP5 PUSH1 0x1 DUP4 MUL DUP5 ADD GT PUSH5 0x100000000 DUP4 GT OR ISZERO PUSH2 0x1E3 JUMPI PUSH1 0x0 DUP1 REVERT JUMPDEST POP SWAP1 SWAP3 POP SWAP1 POP PUSH2 0x3F9 JUMP JUMPDEST PUSH2 0x1F6 PUSH2 0x55A JUMP JUMPDEST PUSH1 0x40 DUP1 MLOAD PUSH1 0x1 PUSH1 0x1 PUSH1 0xA0 SHL SUB SWAP1 SWAP3 AND DUP3 MSTORE MLOAD SWAP1 DUP2 SWAP1 SUB PUSH1 0x20 ADD SWAP1 RETURN JUMPDEST PUSH2 0x1F6 PUSH2 0x569 JUMP JUMPDEST PUSH2 0x222 PUSH2 0x578 JUMP JUMPDEST PUSH1 0x40 DUP1 MLOAD SWAP2 DUP3 MSTORE MLOAD SWAP1 DUP2 SWAP1 SUB PUSH1 0x20 ADD SWAP1 RETURN JUMPDEST PUSH2 0x10C PUSH1 0x4 DUP1 CALLDATASIZE SUB PUSH1 0x40 DUP2 LT ISZERO PUSH2 0x24A JUMPI PUSH1 0x0 DUP1 REVERT JUMPDEST POP PUSH1 0x1 PUSH1 0x1 PUSH1 0xA0 SHL SUB DUP2 CALLDATALOAD AND SWAP1 PUSH1 0x20 ADD CALLDATALOAD PUSH2 0x57E JUMP JUMPDEST PUSH2 0x10C PUSH1 0x4 DUP1 CALLDATASIZE SUB PUSH1 0x40 DUP2 LT ISZERO PUSH2 0x276 JUMPI PUSH1 0x0 DUP1 REVERT JUMPDEST POP PUSH1 0x1 PUSH1 0x1 PUSH1 0xA0 SHL SUB DUP2 CALLDATALOAD AND SWAP1 PUSH1 0x20 ADD CALLDATALOAD ISZERO ISZERO PUSH2 0x62E JUMP JUMPDEST PUSH2 0x296 PUSH2 0x713 JUMP JUMPDEST PUSH1 0x40 DUP1 MLOAD PUSH2 0xFFFF SWAP1 SWAP3 AND DUP3 MSTORE MLOAD SWAP1 DUP2 SWAP1 SUB PUSH1 0x20 ADD SWAP1 RETURN JUMPDEST PUSH2 0x1F6 PUSH2 0x71D JUMP JUMPDEST PUSH2 0x2DB PUSH1 0x4 DUP1 CALLDATASIZE SUB PUSH1 0x20 DUP2 LT ISZERO PUSH2 0x2CB JUMPI PUSH1 0x0 DUP1 REVERT JUMPDEST POP CALLDATALOAD PUSH1 0x1 PUSH1 0x1 PUSH1 0xA0 SHL SUB AND PUSH2 0x72C JUMP JUMPDEST PUSH1 0x40 DUP1 MLOAD SWAP2 ISZERO ISZERO DUP3 MSTORE MLOAD SWAP1 DUP2 SWAP1 SUB PUSH1 0x20 ADD SWAP1 RETURN JUMPDEST PUSH2 0x10C PUSH1 0x4 DUP1 CALLDATASIZE SUB PUSH1 0x20 DUP2 LT ISZERO PUSH2 0x305 JUMPI PUSH1 0x0 DUP1 REVERT JUMPDEST POP CALLDATALOAD PUSH2 0xFFFF AND PUSH2 0x741 JUMP JUMPDEST PUSH2 0x10C PUSH1 0x4 DUP1 CALLDATASIZE SUB PUSH1 0x20 DUP2 LT ISZERO PUSH2 0x326 JUMPI PUSH1 0x0 DUP1 REVERT JUMPDEST POP CALLDATALOAD PUSH1 0x1 PUSH1 0x1 PUSH1 0xA0 SHL SUB AND PUSH2 0x7EA JUMP JUMPDEST PUSH2 0x10C PUSH1 0x4 DUP1 CALLDATASIZE SUB PUSH1 0x20 DUP2 LT ISZERO PUSH2 0x34C JUMPI PUSH1 0x0 DUP1 REVERT JUMPDEST POP CALLDATALOAD PUSH1 0x1 PUSH1 0x1 PUSH1 0xA0 SHL SUB AND PUSH2 0x9A2 JUMP JUMPDEST PUSH1 0x0 DUP1 SLOAD PUSH1 0x40 DUP1 MLOAD PUSH4 0x3D7E13B5 PUSH1 0xE2 SHL DUP2 MSTORE CALLER PUSH1 0x4 DUP3 ADD MSTORE SWAP1 MLOAD PUSH1 0x1 PUSH1 0x1 PUSH1 0xA0 SHL SUB SWAP1 SWAP3 AND SWAP3 PUSH4 0xF5F84ED4 SWAP3 PUSH1 0x24 DUP1 DUP5 ADD SWAP4 DUP3 SWAP1 SUB ADD DUP2 DUP7 DUP1 EXTCODESIZE ISZERO DUP1 ISZERO PUSH2 0x3A2 JUMPI PUSH1 0x0 DUP1 REVERT JUMPDEST POP GAS STATICCALL ISZERO DUP1 ISZERO PUSH2 0x3B6 JUMPI RETURNDATASIZE PUSH1 0x0 DUP1 RETURNDATACOPY RETURNDATASIZE PUSH1 0x0 REVERT JUMPDEST POP POP POP PUSH1 0x2 DUP3 SWAP1 SSTORE POP PUSH1 0x40 DUP1 MLOAD DUP3 DUP2 MSTORE SWAP1 MLOAD PUSH32 0xA0951033A9FA04DF3877D5FDBA9B43D00127CAF3D6FF546D0BC633F122844EE6 SWAP2 DUP2 SWAP1 SUB PUSH1 0x20 ADD SWAP1 LOG1 POP JUMP JUMPDEST POP POP JUMP JUMPDEST PUSH1 0x0 DUP1 PUSH1 0x0 DUP1 PUSH1 0x0 DUP7 DUP7 PUSH1 0xA0 DUP2 LT ISZERO PUSH2 0x411 JUMPI PUSH1 0x0 DUP1 REVERT JUMPDEST POP PUSH1 0x0 DUP1 SLOAD PUSH1 0x1 PUSH1 0x1 PUSH1 0xA0 SHL SUB NOT SWAP1 DUP2 AND PUSH1 0x1 PUSH1 0x1 PUSH1 0xA0 SHL SUB DUP5 CALLDATALOAD DUP2 AND SWAP2 DUP3 OR DUP1 DUP6 SSTORE PUSH1 0x1 DUP1 SLOAD DUP6 AND PUSH1 0x20 DUP1 DUP10 ADD CALLDATALOAD DUP6 AND SWAP2 DUP3 OR SWAP1 SWAP3 SSTORE PUSH1 0x40 DUP1 DUP10 ADD CALLDATALOAD PUSH1 0x2 DUP2 SWAP1 SSTORE PUSH1 0x3 DUP1 SLOAD PUSH2 0xFFFF NOT AND PUSH2 0xFFFF PUSH1 0x60 DUP14 ADD CALLDATALOAD AND SWAP1 DUP2 OR SWAP1 SWAP2 SSTORE PUSH1 0x5 DUP1 SLOAD SWAP1 SWAP10 AND PUSH1 0x80 SWAP1 SWAP12 ADD CALLDATALOAD DUP8 AND SWAP11 DUP12 OR SWAP1 SWAP9 SSTORE DUP2 MLOAD PUSH4 0xF39349EF PUSH1 0xE0 SHL DUP2 MSTORE SWAP2 MLOAD SWAP7 SWAP15 POP SWAP2 SWAP13 POP SWAP1 SWAP11 POP SWAP5 SWAP9 POP SWAP6 SWAP7 POP SWAP4 SWAP5 SWAP4 AND SWAP3 PUSH4 0xF39349EF SWAP3 PUSH1 0x4 DUP1 DUP3 ADD SWAP4 SWAP2 DUP3 SWAP1 SUB ADD DUP2 DUP7 DUP1 EXTCODESIZE ISZERO DUP1 ISZERO PUSH2 0x4C3 JUMPI PUSH1 0x0 DUP1 REVERT JUMPDEST POP GAS STATICCALL ISZERO DUP1 ISZERO PUSH2 0x4D7 JUMPI RETURNDATASIZE PUSH1 0x0 DUP1 RETURNDATACOPY RETURNDATASIZE PUSH1 0x0 REVERT JUMPDEST POP POP POP POP PUSH1 0x40 MLOAD RETURNDATASIZE PUSH1 0x20 DUP2 LT ISZERO PUSH2 0x4ED JUMPI PUSH1 0x0 DUP1 REVERT JUMPDEST POP MLOAD PUSH1 0x1 PUSH1 0x1 PUSH1 0xA0 SHL SUB DUP2 AND PUSH1 0x0 DUP2 DUP2 MSTORE PUSH1 0x4 PUSH1 0x20 SWAP1 DUP2 MSTORE PUSH1 0x40 SWAP2 DUP3 SWAP1 KECCAK256 DUP1 SLOAD PUSH1 0xFF NOT AND PUSH1 0x1 SWAP1 DUP2 OR SWAP1 SWAP2 SSTORE DUP3 MLOAD SWAP1 DUP2 MSTORE SWAP2 MLOAD SWAP4 SWAP5 POP SWAP2 SWAP3 PUSH32 0x947516BB7F07E641084B9D05943FB1C89E05DA3D4D17F707AB4EFD6AB58F0910 SWAP3 SWAP2 DUP2 SWAP1 SUB SWAP1 SWAP2 ADD SWAP1 LOG2 POP POP POP POP POP POP POP POP JUMP JUMPDEST PUSH1 0x0 SLOAD PUSH1 0x1 PUSH1 0x1 PUSH1 0xA0 SHL SUB AND DUP2 JUMP JUMPDEST PUSH1 0x5 SLOAD PUSH1 0x1 PUSH1 0x1 PUSH1 0xA0 SHL SUB AND DUP2 JUMP JUMPDEST PUSH1 0x2 SLOAD DUP2 JUMP JUMPDEST PUSH1 0x0 DUP1 SLOAD PUSH1 0x40 DUP1 MLOAD PUSH4 0x3D7E13B5 PUSH1 0xE2 SHL DUP2 MSTORE CALLER PUSH1 0x4 DUP3 ADD MSTORE SWAP1 MLOAD PUSH1 0x1 PUSH1 0x1 PUSH1 0xA0 SHL SUB SWAP1 SWAP3 AND SWAP3 PUSH4 0xF5F84ED4 SWAP3 PUSH1 0x24 DUP1 DUP5 ADD SWAP4 DUP3 SWAP1 SUB ADD DUP2 DUP7 DUP1 EXTCODESIZE ISZERO DUP1 ISZERO PUSH2 0x5C4 JUMPI PUSH1 0x0 DUP1 REVERT JUMPDEST POP GAS STATICCALL ISZERO DUP1 ISZERO PUSH2 0x5D8 JUMPI RETURNDATASIZE PUSH1 0x0 DUP1 RETURNDATACOPY RETURNDATASIZE PUSH1 0x0 REVERT JUMPDEST POP POP PUSH1 0x1 DUP1 SLOAD PUSH1 0x1 PUSH1 0x1 PUSH1 0xA0 SHL SUB NOT AND PUSH1 0x1 PUSH1 0x1 PUSH1 0xA0 SHL SUB DUP7 AND SWAP1 DUP2 OR SWAP1 SWAP2 SSTORE PUSH1 0x2 DUP5 SWAP1 SSTORE PUSH1 0x40 MLOAD SWAP1 SWAP3 POP PUSH32 0x3246CB0D7C19B6340B39FA43B91E3B663FB1EB1A2F5EB747C8F09646F6300555 SWAP2 POP PUSH1 0x0 SWAP1 LOG2 POP POP JUMP JUMPDEST PUSH1 0x0 DUP1 SLOAD PUSH1 0x40 DUP1 MLOAD PUSH4 0x3D7E13B5 PUSH1 0xE2 SHL DUP2 MSTORE CALLER PUSH1 0x4 DUP3 ADD MSTORE SWAP1 MLOAD PUSH1 0x1 PUSH1 0x1 PUSH1 0xA0 SHL SUB SWAP1 SWAP3 AND SWAP3 PUSH4 0xF5F84ED4 SWAP3 PUSH1 0x24 DUP1 DUP5 ADD SWAP4 DUP3 SWAP1 SUB ADD DUP2 DUP7 DUP1 EXTCODESIZE ISZERO DUP1 ISZERO PUSH2 0x674 JUMPI PUSH1 0x0 DUP1 REVERT JUMPDEST POP GAS STATICCALL ISZERO DUP1 ISZERO PUSH2 0x688 JUMPI RETURNDATASIZE PUSH1 0x0 DUP1 RETURNDATACOPY RETURNDATASIZE PUSH1 0x0 REVERT JUMPDEST POP POP POP PUSH1 0x1 PUSH1 0x1 PUSH1 0xA0 SHL SUB DUP4 AND PUSH1 0x0 SWAP1 DUP2 MSTORE PUSH1 0x4 PUSH1 0x20 MSTORE PUSH1 0x40 SWAP1 KECCAK256 SLOAD PUSH1 0xFF AND ISZERO ISZERO DUP3 ISZERO ISZERO EQ SWAP1 POP PUSH2 0x3F5 JUMPI PUSH1 0x1 PUSH1 0x1 PUSH1 0xA0 SHL SUB DUP3 AND PUSH1 0x0 DUP2 DUP2 MSTORE PUSH1 0x4 PUSH1 0x20 SWAP1 DUP2 MSTORE PUSH1 0x40 SWAP2 DUP3 SWAP1 KECCAK256 DUP1 SLOAD PUSH1 0xFF NOT AND DUP6 ISZERO ISZERO SWAP1 DUP2 OR SWAP1 SWAP2 SSTORE DUP3 MLOAD SWAP1 DUP2 MSTORE SWAP2 MLOAD PUSH32 0x947516BB7F07E641084B9D05943FB1C89E05DA3D4D17F707AB4EFD6AB58F0910 SWAP3 DUP2 SWAP1 SUB SWAP1 SWAP2 ADD SWAP1 LOG2 POP POP JUMP JUMPDEST PUSH1 0x3 SLOAD PUSH2 0xFFFF AND DUP2 JUMP JUMPDEST PUSH1 0x1 SLOAD PUSH1 0x1 PUSH1 0x1 PUSH1 0xA0 SHL SUB AND DUP2 JUMP JUMPDEST PUSH1 0x4 PUSH1 0x20 MSTORE PUSH1 0x0 SWAP1 DUP2 MSTORE PUSH1 0x40 SWAP1 KECCAK256 SLOAD PUSH1 0xFF AND DUP2 JUMP JUMPDEST PUSH1 0x0 DUP1 SLOAD PUSH1 0x40 DUP1 MLOAD PUSH4 0x3D7E13B5 PUSH1 0xE2 SHL DUP2 MSTORE CALLER PUSH1 0x4 DUP3 ADD MSTORE SWAP1 MLOAD PUSH1 0x1 PUSH1 0x1 PUSH1 0xA0 SHL SUB SWAP1 SWAP3 AND SWAP3 PUSH4 0xF5F84ED4 SWAP3 PUSH1 0x24 DUP1 DUP5 ADD SWAP4 DUP3 SWAP1 SUB ADD DUP2 DUP7 DUP1 EXTCODESIZE ISZERO DUP1 ISZERO PUSH2 0x787 JUMPI PUSH1 0x0 DUP1 REVERT JUMPDEST POP GAS STATICCALL ISZERO DUP1 ISZERO PUSH2 0x79B JUMPI RETURNDATASIZE PUSH1 0x0 DUP1 RETURNDATACOPY RETURNDATASIZE PUSH1 0x0 REVERT JUMPDEST POP POP PUSH1 0x3 DUP1 SLOAD PUSH2 0xFFFF DUP6 AND PUSH2 0xFFFF NOT SWAP1 SWAP2 AND DUP2 OR SWAP1 SWAP2 SSTORE PUSH1 0x40 DUP1 MLOAD SWAP2 DUP3 MSTORE MLOAD PUSH32 0xD07B88B359BB918E12349B2779862F7C6954810991CFCF664E36BD2168F17B0D SWAP4 POP SWAP1 DUP2 SWAP1 SUB PUSH1 0x20 ADD SWAP2 POP LOG1 POP JUMP JUMPDEST PUSH1 0x3 SLOAD PUSH1 0x0 SLOAD PUSH1 0x40 DUP1 MLOAD PUSH3 0x787445 PUSH1 0xE2 SHL DUP2 MSTORE SWAP1 MLOAD PUSH2 0xFFFF SWAP1 SWAP4 AND SWAP3 PUSH1 0x1 PUSH1 0x1 PUSH1 0xA0 SHL SUB SWAP1 SWAP3 AND SWAP2 PUSH4 0x1E1D114 SWAP2 PUSH1 0x4 DUP1 DUP3 ADD SWAP3 PUSH1 0x20 SWAP3 SWAP1 SWAP2 SWAP1 DUP3 SWAP1 SUB ADD DUP2 DUP7 DUP1 EXTCODESIZE ISZERO DUP1 ISZERO PUSH2 0x838 JUMPI PUSH1 0x0 DUP1 REVERT JUMPDEST POP GAS STATICCALL ISZERO DUP1 ISZERO PUSH2 0x84C JUMPI RETURNDATASIZE PUSH1 0x0 DUP1 RETURNDATACOPY RETURNDATASIZE PUSH1 0x0 REVERT JUMPDEST POP POP POP POP PUSH1 0x40 MLOAD RETURNDATASIZE PUSH1 0x20 DUP2 LT ISZERO PUSH2 0x862 JUMPI PUSH1 0x0 DUP1 REVERT JUMPDEST POP MLOAD PUSH2 0xFFFF AND LT PUSH2 0x8B2 JUMPI PUSH1 0x40 DUP1 MLOAD PUSH3 0x461BCD PUSH1 0xE5 SHL DUP2 MSTORE PUSH1 0x20 PUSH1 0x4 DUP3 ADD MSTORE PUSH1 0x15 PUSH1 0x24 DUP3 ADD MSTORE PUSH21 0x63616E277420616464206D6F726520746F6B656E73 PUSH1 0x58 SHL PUSH1 0x44 DUP3 ADD MSTORE SWAP1 MLOAD SWAP1 DUP2 SWAP1 SUB PUSH1 0x64 ADD SWAP1 REVERT JUMPDEST CALLER PUSH1 0x0 SWAP1 DUP2 MSTORE PUSH1 0x4 PUSH1 0x20 MSTORE PUSH1 0x40 SWAP1 KECCAK256 SLOAD PUSH1 0xFF AND PUSH2 0x93C JUMPI PUSH1 0x1 SLOAD PUSH1 0x5 SLOAD PUSH1 0x2 SLOAD PUSH1 0x0 SWAP3 PUSH2 0x8F0 SWAP3 PUSH1 0x1 PUSH1 0x1 PUSH1 0xA0 SHL SUB SWAP2 DUP3 AND SWAP3 CALLER SWAP3 SWAP1 SWAP2 AND SWAP1 PUSH2 0xA55 JUMP JUMPDEST SWAP1 POP DUP1 PUSH2 0x93A JUMPI PUSH1 0x40 DUP1 MLOAD PUSH3 0x461BCD PUSH1 0xE5 SHL DUP2 MSTORE PUSH1 0x20 PUSH1 0x4 DUP3 ADD MSTORE PUSH1 0x13 PUSH1 0x24 DUP3 ADD MSTORE PUSH19 0x199959481D1C985B9CD9995C8819985A5B1959 PUSH1 0x6A SHL PUSH1 0x44 DUP3 ADD MSTORE SWAP1 MLOAD SWAP1 DUP2 SWAP1 SUB PUSH1 0x64 ADD SWAP1 REVERT JUMPDEST POP JUMPDEST PUSH1 0x0 DUP1 SLOAD PUSH1 0x40 DUP1 MLOAD PUSH4 0x298410E5 PUSH1 0xE0 SHL DUP2 MSTORE PUSH1 0x1 PUSH1 0x1 PUSH1 0xA0 SHL SUB DUP6 DUP2 AND PUSH1 0x4 DUP4 ADD MSTORE SWAP2 MLOAD SWAP2 SWAP1 SWAP3 AND SWAP3 PUSH4 0x298410E5 SWAP3 PUSH1 0x24 DUP1 DUP3 ADD SWAP4 SWAP2 DUP3 SWAP1 SUB ADD DUP2 DUP4 DUP8 DUP1 EXTCODESIZE ISZERO DUP1 ISZERO PUSH2 0x987 JUMPI PUSH1 0x0 DUP1 REVERT JUMPDEST POP GAS CALL ISZERO DUP1 ISZERO PUSH2 0x99B JUMPI RETURNDATASIZE PUSH1 0x0 DUP1 RETURNDATACOPY RETURNDATASIZE PUSH1 0x0 REVERT JUMPDEST POP POP POP POP POP JUMP JUMPDEST PUSH1 0x0 DUP1 SLOAD PUSH1 0x40 DUP1 MLOAD PUSH4 0x3D7E13B5 PUSH1 0xE2 SHL DUP2 MSTORE CALLER PUSH1 0x4 DUP3 ADD MSTORE SWAP1 MLOAD PUSH1 0x1 PUSH1 0x1 PUSH1 0xA0 SHL SUB SWAP1 SWAP3 AND SWAP3 PUSH4 0xF5F84ED4 SWAP3 PUSH1 0x24 DUP1 DUP5 ADD SWAP4 DUP3 SWAP1 SUB ADD DUP2 DUP7 DUP1 EXTCODESIZE ISZERO DUP1 ISZERO PUSH2 0x9E8 JUMPI PUSH1 0x0 DUP1 REVERT JUMPDEST POP GAS STATICCALL ISZERO DUP1 ISZERO PUSH2 0x9FC JUMPI RETURNDATASIZE PUSH1 0x0 DUP1 RETURNDATACOPY RETURNDATASIZE PUSH1 0x0 REVERT JUMPDEST POP POP PUSH1 0x5 DUP1 SLOAD PUSH1 0x1 PUSH1 0x1 PUSH1 0xA0 SHL SUB DUP6 AND PUSH1 0x1 PUSH1 0x1 PUSH1 0xA0 SHL SUB NOT SWAP1 SWAP2 AND DUP2 OR SWAP1 SWAP2 SSTORE PUSH1 0x40 DUP1 MLOAD SWAP2 DUP3 MSTORE MLOAD PUSH32 0x8A3509A4057C89A5993A4A3140C2EBF7E829D325D8998EAA6C48ADCFF98B2CEF SWAP4 POP SWAP1 DUP2 SWAP1 SUB PUSH1 0x20 ADD SWAP2 POP LOG1 POP JUMP JUMPDEST PUSH1 0x40 DUP1 MLOAD PUSH1 0x1 PUSH1 0x1 PUSH1 0xA0 SHL SUB DUP6 DUP2 AND PUSH1 0x24 DUP4 ADD MSTORE DUP5 DUP2 AND PUSH1 0x44 DUP4 ADD MSTORE PUSH1 0x64 DUP1 DUP4 ADD DUP6 SWAP1 MSTORE DUP4 MLOAD DUP1 DUP5 SUB SWAP1 SWAP2 ADD DUP2 MSTORE PUSH1 0x84 SWAP1 SWAP3 ADD DUP4 MSTORE PUSH1 0x20 DUP3 ADD DUP1 MLOAD PUSH1 0x1 PUSH1 0x1 PUSH1 0xE0 SHL SUB AND PUSH4 0x23B872DD PUSH1 0xE0 SHL OR DUP2 MSTORE SWAP3 MLOAD DUP3 MLOAD PUSH1 0x0 SWAP5 DUP6 SWAP5 DUP6 SWAP5 DUP12 AND SWAP4 SWAP1 SWAP3 SWAP1 SWAP2 DUP3 SWAP2 DUP1 DUP4 DUP4 JUMPDEST PUSH1 0x20 DUP4 LT PUSH2 0xADB JUMPI DUP1 MLOAD DUP3 MSTORE PUSH1 0x1F NOT SWAP1 SWAP3 ADD SWAP2 PUSH1 0x20 SWAP2 DUP3 ADD SWAP2 ADD PUSH2 0xABC JUMP JUMPDEST PUSH1 0x1 DUP4 PUSH1 0x20 SUB PUSH2 0x100 EXP SUB DUP1 NOT DUP3 MLOAD AND DUP2 DUP5 MLOAD AND DUP1 DUP3 OR DUP6 MSTORE POP POP POP POP POP POP SWAP1 POP ADD SWAP2 POP POP PUSH1 0x0 PUSH1 0x40 MLOAD DUP1 DUP4 SUB DUP2 PUSH1 0x0 DUP7 GAS CALL SWAP2 POP POP RETURNDATASIZE DUP1 PUSH1 0x0 DUP2 EQ PUSH2 0xB3D JUMPI PUSH1 0x40 MLOAD SWAP2 POP PUSH1 0x1F NOT PUSH1 0x3F RETURNDATASIZE ADD AND DUP3 ADD PUSH1 0x40 MSTORE RETURNDATASIZE DUP3 MSTORE RETURNDATASIZE PUSH1 0x0 PUSH1 0x20 DUP5 ADD RETURNDATACOPY PUSH2 0xB42 JUMP JUMPDEST PUSH1 0x60 SWAP2 POP JUMPDEST POP SWAP2 POP SWAP2 POP PUSH1 0x0 DUP2 MLOAD PUSH1 0x0 EQ DUP1 PUSH2 0xB6C JUMPI POP DUP2 DUP1 PUSH1 0x20 ADD SWAP1 MLOAD PUSH1 0x20 DUP2 LT ISZERO PUSH2 0xB69 JUMPI PUSH1 0x0 DUP1 REVERT JUMPDEST POP MLOAD JUMPDEST SWAP1 POP DUP3 DUP1 ISZERO PUSH2 0xB78 JUMPI POP DUP1 JUMPDEST SWAP9 SWAP8 POP POP POP POP POP POP POP POP JUMP INVALID LOG2 PUSH5 0x6970667358 0x22 SLT KECCAK256 CALLCODE LOG1 SDIV DUP5 0xC1 0xE4 RETURN 0x4F 0x4D ISZERO ISZERO 0xCE 0xAB 0xF DUP5 0x2D DUP13 0x2E PUSH18 0xA9C41F00166A0FC4A8F12AC7F964736F6C63 NUMBER STOP SMOD MOD STOP CALLER "
		},
		"gasEstimates": {
			"creation": {
				"codeDepositCost": "600400",
				"executionCost": "632",
				"totalCost": "601032"
			},
			"external": {
				"governance()": "1060",
				"initialize(bytes)": "infinite",
				"listingCap()": "1058",
				"listingFee()": "1065",
				"listingFeeToken()": "1104",
				"setAsset(address)": "infinite",
				"setLister(address,bool)": "infinite",
				"setListingCap(uint16)": "infinite",
				"setListingFee(uint256)": "infinite",
				"setListingFeeToken(address,uint256)": "infinite",
				"setTreasury(address)": "infinite",
				"tokenLister(address)": "1158",
				"treasury()": "1082",
				"upgrade(bytes)": "404"
			}
		},
		"methodIdentifiers": {
			"governance()": "5aa6e675",
			"initialize(bytes)": "439fab91",
			"listingCap()": "9b453945",
			"listingFee()": "6a1b7ecc",
			"listingFeeToken()": "a1a18c38",
			"setAsset(address)": "d0d552dd",
			"setLister(address,bool)": "719c150c",
			"setListingCap(uint16)": "b42a9d80",
			"setListingFee(uint256)": "131dbd09",
			"setListingFeeToken(address,uint256)": "70de40b0",
			"setTreasury(address)": "f0f44260",
			"tokenLister(address)": "af3d414b",
			"treasury()": "61d027b3",
			"upgrade(bytes)": "25394645"
		}
	},
	"abi": [
		{
			"anonymous": false,
			"inputs": [
				{
					"indexed": false,
					"internalType": "uint16",
					"name": "newListingCap",
					"type": "uint16"
				}
			],
			"name": "ListingCapUpdate",
			"type": "event"
		},
		{
			"anonymous": false,
			"inputs": [
				{
					"indexed": true,
					"internalType": "contract IERC20",
					"name": "newListingFeeToken",
					"type": "address"
				}
			],
			"name": "ListingFeeTokenUpdate",
			"type": "event"
		},
		{
			"anonymous": false,
			"inputs": [
				{
					"indexed": false,
					"internalType": "uint256",
					"name": "newListingFee",
					"type": "uint256"
				}
			],
			"name": "ListingFeeUpdate",
			"type": "event"
		},
		{
			"anonymous": false,
			"inputs": [
				{
					"indexed": true,
					"internalType": "address",
					"name": "tokenLister",
					"type": "address"
				},
				{
					"indexed": false,
					"internalType": "bool",
					"name": "isActive",
					"type": "bool"
				}
			],
			"name": "TokenListerUpdate",
			"type": "event"
		},
		{
			"anonymous": false,
			"inputs": [
				{
					"indexed": false,
					"internalType": "address",
					"name": "newTreasury",
					"type": "address"
				}
			],
			"name": "TreasuryUpdate",
			"type": "event"
		},
		{
			"inputs": [],
			"name": "governance",
			"outputs": [
				{
					"internalType": "contract Governance",
					"name": "",
					"type": "address"
				}
			],
			"stateMutability": "view",
			"type": "function"
		},
		{
			"inputs": [
				{
					"internalType": "bytes",
					"name": "initializationParameters",
					"type": "bytes"
				}
			],
			"name": "initialize",
			"outputs": [],
			"stateMutability": "nonpayable",
			"type": "function"
		},
		{
			"inputs": [],
			"name": "listingCap",
			"outputs": [
				{
					"internalType": "uint16",
					"name": "",
					"type": "uint16"
				}
			],
			"stateMutability": "view",
			"type": "function"
		},
		{
			"inputs": [],
			"name": "listingFee",
			"outputs": [
				{
					"internalType": "uint256",
					"name": "",
					"type": "uint256"
				}
			],
			"stateMutability": "view",
			"type": "function"
		},
		{
			"inputs": [],
			"name": "listingFeeToken",
			"outputs": [
				{
					"internalType": "contract IERC20",
					"name": "",
					"type": "address"
				}
			],
			"stateMutability": "view",
			"type": "function"
		},
		{
			"inputs": [
				{
					"internalType": "address",
					"name": "_assetAddress",
					"type": "address"
				}
			],
			"name": "setAsset",
			"outputs": [],
			"stateMutability": "nonpayable",
			"type": "function"
		},
		{
			"inputs": [
				{
					"internalType": "address",
					"name": "_listerAddress",
					"type": "address"
				},
				{
					"internalType": "bool",
					"name": "_active",
					"type": "bool"
				}
			],
			"name": "setLister",
			"outputs": [],
			"stateMutability": "nonpayable",
			"type": "function"
		},
		{
			"inputs": [
				{
					"internalType": "uint16",
					"name": "_newListingCap",
					"type": "uint16"
				}
			],
			"name": "setListingCap",
			"outputs": [],
			"stateMutability": "nonpayable",
			"type": "function"
		},
		{
			"inputs": [
				{
					"internalType": "uint256",
					"name": "_newListingFee",
					"type": "uint256"
				}
			],
			"name": "setListingFee",
			"outputs": [],
			"stateMutability": "nonpayable",
			"type": "function"
		},
		{
			"inputs": [
				{
					"internalType": "contract IERC20",
					"name": "_newListingFeeToken",
					"type": "address"
				},
				{
					"internalType": "uint256",
					"name": "_newListingFee",
					"type": "uint256"
				}
			],
			"name": "setListingFeeToken",
			"outputs": [],
			"stateMutability": "nonpayable",
			"type": "function"
		},
		{
			"inputs": [
				{
					"internalType": "address",
					"name": "_newTreasury",
					"type": "address"
				}
			],
			"name": "setTreasury",
			"outputs": [],
			"stateMutability": "nonpayable",
			"type": "function"
		},
		{
			"inputs": [
				{
					"internalType": "address",
					"name": "",
					"type": "address"
				}
			],
			"name": "tokenLister",
			"outputs": [
				{
					"internalType": "bool",
					"name": "",
					"type": "bool"
				}
			],
			"stateMutability": "view",
			"type": "function"
		},
		{
			"inputs": [],
			"name": "treasury",
			"outputs": [
				{
					"internalType": "address",
					"name": "",
					"type": "address"
				}
			],
			"stateMutability": "view",
			"type": "function"
		},
		{
			"inputs": [
				{
					"internalType": "bytes",
					"name": "upgradeParameters",
					"type": "bytes"
				}
			],
			"name": "upgrade",
			"outputs": [],
			"stateMutability": "nonpayable",
			"type": "function"
		}
	]
}