{
	"data": {
		"bytecode": {
			"linkReferences": {
				"contracts/Utils.sol": {
					"Utils": [
						{
							"length": 20,
							"start": 6681
						}
					]
				}
			},
			"object": "608060405234801561001057600080fd5b50614e22806100206000396000f3fe6080604052600436106102255760003560e01c80635aca41f611610123578063a7ccec2f116100ab578063c701f9551161006f578063c701f955146105b2578063cc375fb7146105c7578063d514da50146105dc578063d7757da1146105fc578063faf4d8cb1461061c57610225565b8063a7ccec2f14610548578063aad1820e1461055d578063b269b9ae146104de578063b77a1ef51461057d578063c57b22be1461059d57610225565b80637ea399c1116100f25780637ea399c1146104c9578063871b8ff1146104de5780638773334c146104f35780638c8ebc52146105085780638ee1a74e1461052857610225565b80635aca41f61461045257806367708dae146104725780636cc089081461049457806378b91e70146104b457610225565b80633b154b73116101b1578063437545f911610175578063437545f9146103d1578063437da02f146103e6578063439fab91146103fb5780634a51a71f1461041b5780634c34a9821461043057610225565b80633b154b731461035f5780633d002926146103745780633e71e1e7146103875780634167d0021461039c5780634242d5b3146103bc57610225565b8063200a7d20116101f8578063200a7d20146102c657806322b22256146102e657806325394645146102fb5780632a3174f41461031b5780632d24006c1461033d57610225565b806302cfb5631461022a57806303892c3c146102555780630b8f1c0c146102775780630d360b7f146102a4575b600080fd5b34801561023657600080fd5b5061023f610631565b60405161024c9190614834565b60405180910390f35b34801561026157600080fd5b506102756102703660046143cb565b61063a565b005b34801561028357600080fd5b50610297610292366004614272565b610968565b60405161024c919061473c565b3480156102b057600080fd5b506102b96109f1565b60405161024c9190614cec565b3480156102d257600080fd5b506102756102e1366004614095565b6109f7565b3480156102f257600080fd5b5061023f610a02565b34801561030757600080fd5b506102756103163660046142ff565b610aba565b34801561032757600080fd5b50610330610aee565b60405161024c919061483f565b34801561034957600080fd5b50610352610af3565b60405161024c9190614d3d565b34801561036b57600080fd5b50610275610b06565b610275610382366004614272565b610b0c565b34801561039357600080fd5b50610275610b45565b3480156103a857600080fd5b506103306103b73660046144fa565b610b4f565b3480156103c857600080fd5b50610352610b61565b3480156103dd57600080fd5b50610352610b66565b3480156103f257600080fd5b506103526109f1565b34801561040757600080fd5b506102756104163660046142ff565b610b6e565b34801561042757600080fd5b50610330610cb0565b34801561043c57600080fd5b50610445610cb5565b60405161024c9190614cd8565b34801561045e57600080fd5b5061044561046d36600461405d565b610cc0565b34801561047e57600080fd5b50610487610d8f565b60405161024c9190614d4e565b3480156104a057600080fd5b506102756104af3660046142a2565b610d9e565b3480156104c057600080fd5b50610275610ecf565b3480156104d557600080fd5b50610297610efd565b3480156104ea57600080fd5b50610275610f08565b3480156104ff57600080fd5b5061023f610f10565b34801561051457600080fd5b5061033061052336600461433e565b610f1a565b34801561053457600080fd5b50610445610543366004614370565b610f25565b34801561055457600080fd5b506103306110c4565b34801561056957600080fd5b50610275610578366004614470565b6110ca565b34801561058957600080fd5b506102756105983660046140c7565b6112fa565b3480156105a957600080fd5b506104876116f0565b3480156105be57600080fd5b50610330611706565b3480156105d357600080fd5b5061033061170d565b3480156105e857600080fd5b506102756105f7366004614013565b611714565b34801561060857600080fd5b50610275610617366004614416565b61193e565b34801561062857600080fd5b50610352611afa565b600f5460ff1681565b600080516020614dcd833981519152546001811461065757600080fd5b6002600080516020614dcd833981519152556001600160681b0383166106985760405162461bcd60e51b815260040161068f906149bb565b60405180910390fd5b600954604051639bd7760960e01b81526000916001600160a01b031690639bd77609906106c990889060040161473c565b60206040518083038186803b1580156106e157600080fd5b505afa1580156106f5573d6000803e3d6000fd5b505050506040513d601f19601f8201168201806040525081019061071991906144d8565b6009546040516331d8687b60e01b81529192506001600160a01b0316906331d8687b9061074a908490600401614cec565b60206040518083038186803b15801561076257600080fd5b505afa158015610776573d6000803e3d6000fd5b505050506040513d601f19601f8201168201806040525081019061079a9190614252565b156107b75760405162461bcd60e51b815260040161068f90614b6b565b6040516370a0823160e01b81526000906001600160a01b038716906370a08231906107e690309060040161473c565b60206040518083038186803b1580156107fe57600080fd5b505afa158015610812573d6000803e3d6000fd5b505050506040513d601f19601f82011682018060405250810190610836919061428a565b905061085e863330610850896001600160681b0316611b0d565b6001600160801b0316611b50565b61087a5760405162461bcd60e51b815260040161068f90614985565b6040516370a0823160e01b81526000906001600160a01b038816906370a08231906108a990309060040161473c565b60206040518083038186803b1580156108c157600080fd5b505afa1580156108d5573d6000803e3d6000fd5b505050506040513d601f19601f820116820180604052508101906108f9919061428a565b9050600061090f61090a8385611c7c565b611b0d565b90506001600160681b036001600160801b03821611156109415760405162461bcd60e51b815260040161068f9061496a565b61094c848288611ca9565b505050506001600080516020614dcd8339815191525550505050565b600a54604051636f5c98d160e11b81526000916001600160a01b03169063deb931a29061099990859060040161483f565b60206040518083038186803b1580156109b157600080fd5b505afa1580156109c5573d6000803e3d6000fd5b505050506040513d601f19601f820116820180604052508101906109e99190613f94565b90505b919050565b61ffff81565b6109ff611d38565b50565b600d546001600160401b039081166000908152600760205260408120549091600191600160a01b9004164310801590610a5e5750600d546001600160401b03908116600090815260076020526040902054600160a01b90041615155b90508015610ab157600f5460ff16610aa757600f805460ff191660011790556040517f9f7e400a81dddbf1c18b1c37f82aa303d166295ca4b577eb2a7c23d4b704ba8990600090a15b6001915050610ab7565b60009150505b90565b600080516020614dcd8339815191525460018114610ad757600080fd5b50506001600080516020614dcd8339815191525550565b600090565b600c54600160c01b900463ffffffff1681565b42600355565b34610b295760405162461bcd60e51b815260040161068f906149bb565b610b31611d73565b6109ff6000610b3f34611b0d565b83611ca9565b610b4d611d38565b565b600e6020526000908152604090205481565b600081565b63ffffffff81565b610b76611d96565b600080808080610b8886880188613fb0565b600880546001600160a01b038087166001600160a01b03199283161790925560098054838916908316179055600c8054838716908316179055600a8054928516929091169190911790556040805160c0810182526000808252602082018190527fc5d2460186f7233c927e7db2dcc703c0e500b653ca82273b7bfad8045d85a47092820192909252606081018290526080810183905260a081019190915294995092975090955093509150610c3c81611de4565b60008052600e6020527fe710864318d4a32f37d6ce54cb3fadbef648dd12d8dbdf53973564d56b7f881c556224ea0060028190556040517ff2b18f8abbd8a0d0c1fb8245146eedf5304887b12f6395b548ca238e054a148391610c9e9161483f565b60405180910390a15050505050505050565b600381565b6001600160681b0381565b6000806001600160a01b03831615610d5557600954604051639bd7760960e01b81526001600160a01b0390911690639bd7760990610d0290869060040161473c565b60206040518083038186803b158015610d1a57600080fd5b505afa158015610d2e573d6000803e3d6000fd5b505050506040513d601f19601f82011682018060405250810190610d5291906144d8565b90505b600b6000610d638684611e14565b6001600160501b03191681526020810191909152604001600020546001600160801b0316949350505050565b600d546001600160401b031681565b600080516020614dcd8339815191525460018114610dbb57600080fd5b6002600080516020614dcd833981519152556000610ddd333087898888611e31565b905080610dfc5760405162461bcd60e51b815260040161068f90614b22565b6040805160c0810190915260009080600360ff168152602001898152602001886001600160a01b03168152602001876001811115610e3657fe5b60ff1681526020018681526020018563ffffffff1681525090506000610e5b826120a1565b9050610e686004826120ec565b7fe3e733a7166bd1d00bf0b2de13986638d450cf81e56507e3e3365c9df77065c08989896001811115610e9757fe5b8989604051610eaa95949392919061488f565b60405180910390a15050506001600080516020614dcd83398151915255505050505050565b6000805460ff19166001908117909155429055600254600354610ef191612254565b421015610b4d57600080fd5b6001600160a01b0381565b610b4d612293565b600f5460ff161590565b805160209091012090565b6000333014610f465760405162461bcd60e51b815260040161068f90614b86565b6040516370a0823160e01b81526000906001600160a01b038716906370a0823190610f7590309060040161473c565b60206040518083038186803b158015610f8d57600080fd5b505afa158015610fa1573d6000803e3d6000fd5b505050506040513d601f19601f82011682018060405250810190610fc5919061428a565b9050610fdb8686866001600160801b0316612316565b610ff75760405162461bcd60e51b815260040161068f90614bfe565b6040516370a0823160e01b81526000906001600160a01b038816906370a082319061102690309060040161473c565b60206040518083038186803b15801561103e57600080fd5b505afa158015611052573d6000803e3d6000fd5b505050506040513d601f19601f82011682018060405250810190611076919061428a565b905060006110848383611c7c565b9050846001600160801b03168111156110af5760405162461bcd60e51b815260040161068f90614a29565b6110b881611b0d565b98975050505050505050565b60065481565b600080516020614dcd83398151915254600181146110e757600080fd5b6002600080516020614dcd83398151915255611101611d73565b600954604051634b18bd0f60e01b81526001600160a01b0390911690634b18bd0f9061113190339060040161473c565b60006040518083038186803b15801561114957600080fd5b505afa15801561115d573d6000803e3d6000fd5b5050505061116a83611de4565b600c54600160a01b900463ffffffff166000908152600e6020526040902054146111a65760405162461bcd60e51b815260040161068f90614c34565b60005b82518163ffffffff161015611279576111db84848363ffffffff16815181106111ce57fe5b602002602001015161243c565b6020810151600d80546001600160401b03600160801b80830482169094011690920267ffffffffffffffff60801b19909216919091179055935061121e84611de4565b845163ffffffff166000908152600e60205260409081902091909155845190517f81a92942d0f9c33b897a438384c9c3d88be397776138efa3ba1a4fc8b62684249161126991614d3d565b60405180910390a16001016111a9565b508151600c805463ffffffff600160a01b80830482169094011690920263ffffffff60a01b19909216919091179055600d546001600160401b03600160401b82048116600160801b9092041611156112e35760405162461bcd60e51b815260040161068f90614b50565b6001600080516020614dcd83398151915255505050565b600080516020614dcd833981519152546001811461131757600080fd5b6002600080516020614dcd83398151915255611331611d73565b600954604051634b18bd0f60e01b81526001600160a01b0390911690634b18bd0f9061136190339060040161473c565b60006040518083038186803b15801561137957600080fd5b505afa15801561138d573d6000803e3d6000fd5b5050845160009250905081600382026001600160401b03811180156113b157600080fd5b506040519080825280602002602001820160405280156113db578160200160208202803683370190505b50905060005b86518161ffff16101561156a57611413878261ffff168151811061140157fe5b60200260200101518261ffff1661250c565b868161ffff168151811061142357fe5b602002602001015160000151602001518401935060065460001c828260030261ffff168151811061145057fe5b602002602001018181525050868161ffff168151811061146c57fe5b6020026020010151600001516080015160001c828260030260010161ffff168151811061149557fe5b602002602001018181525050868161ffff16815181106114b157fe5b60200260200101516000015160a0015160001c828260030260020161ffff16815181106114da57fe5b602002602001018181525050868161ffff16815181106114f657fe5b602002602001015160000151608001516006819055507f0cdbd8bd7813095001c5fe7917bd69d834dc01db7c1dfcf52ca135bd20384413878261ffff168151811061153d57fe5b6020026020010151600001516000015160405161155a9190614d3d565b60405180910390a16001016113e1565b50600854865160405163c50e826360e01b81526000926001600160a01b03169163c50e8263916115a1918a918791906004016147fe565b60206040518083038186803b1580156115b957600080fd5b505afa1580156115cd573d6000803e3d6000fd5b505050506040513d601f19601f820116820180604052508101906115f19190614252565b9050806116105760405162461bcd60e51b815260040161068f90614ba1565b600d805467ffffffffffffffff60401b1967ffffffffffffffff60801b1967ffffffffffffffff1983166001600160401b039384168901841617908116600160801b918290048416899003841690910217908116600160401b91829004831688900390921602179055600c805463ffffffff60c01b198116600160c01b9182900463ffffffff9081168701811683029190911792839055600160a01b830481169190920490911611156116d55760405162461bcd60e51b815260040161068f90614a0e565b505050506001600080516020614dcd83398151915255505050565b600d54600160401b90046001600160401b031681565b620186a081565b6224ea0081565b600080516020614dcd833981519152546001811461173157600080fd5b6002600080516020614dcd833981519152556001600160a01b0383166117e85761175d600083866127ca565b6000846001600160a01b0316836001600160801b031660405161177f90610ab7565b60006040518083038185875af1925050503d80600081146117bc576040519150601f19603f3d011682016040523d82523d6000602084013e6117c1565b606091505b50509050806117e25760405162461bcd60e51b815260040161068f90614c4f565b50611926565b600954604051639bd7760960e01b81526000916001600160a01b031690639bd776099061181990879060040161473c565b60206040518083038186803b15801561183157600080fd5b505afa158015611845573d6000803e3d6000fd5b505050506040513d601f19601f8201168201806040525081019061186991906144d8565b905060006118778683611e14565b6001600160501b031981166000908152600b6020526040808220549051634770d3a760e11b81529293506001600160801b0316913090638ee1a74e906118c7908a908c908b9088906004016148f2565b602060405180830381600087803b1580156118e157600080fd5b505af11580156118f5573d6000803e3d6000fd5b505050506040513d601f19601f8201168201806040525081019061191991906144bc565b905061094c84828a6127ca565b6001600080516020614dcd8339815191525550505050565b600080516020614dcd833981519152546001811461195b57600080fd5b6002600080516020614dcd83398151915255600a5460405163d7757da160e01b81526001600160a01b039091169063d7757da1906119a390889088908890889060040161493a565b600060405180830381600087803b1580156119bd57600080fd5b505af11580156119d1573d6000803e3d6000fd5b50505050600060405180606001604052806001600f8111156119ef57fe5b60ff16815260200173__$1c41232b8c3f9382c4bdca1a05a1ab00e7$__63cfb5192889896040518363ffffffff1660e01b8152600401611a30929190614926565b60206040518083038186803b158015611a4857600080fd5b505af4158015611a5c573d6000803e3d6000fd5b505050506040513d601f19601f82011682018060405250810190611a80919061428a565b815260200184905290506000611a9582612870565b9050611aa26001826120ec565b7fc1576c10fb2080868c7b255f20167c9d06b6069f0b5b93c8cd591280bbe3dd9087878787604051611ad7949392919061493a565b60405180910390a150506001600080516020614dcd833981519152555050505050565b600c54600160a01b900463ffffffff1681565b6000600160801b8210611b4c576040805162461bcd60e51b8152602060048201526002602482015261189b60f11b604482015290519081900360640190fd5b5090565b604080516001600160a01b0385811660248301528481166044830152606480830185905283518084039091018152608490920183526020820180516001600160e01b03166323b872dd60e01b17815292518251600094859485948b16939092909182918083835b60208310611bd65780518252601f199092019160209182019101611bb7565b6001836020036101000a0380198251168184511680821785525050505050509050019150506000604051808303816000865af19150503d8060008114611c38576040519150601f19603f3d011682016040523d82523d6000602084013e611c3d565b606091505b50915091506000815160001480611c675750818060200190516020811015611c6457600080fd5b50515b90508280156110b85750979650505050505050565b6000611ca28383604051806040016040528060018152602001603b60f91b815250612893565b9392505050565b6040805160a0810182526002815260006020820181905291810183905261ffff851660608201526001600160801b038416608082015290611ce98261292a565b9050611cf66002826120ec565b7faa46d46658f805449ac7eaaf11d3eaebb6f508930128d276dfefcc8dc02a13c7858486604051611d2993929190614cfb565b60405180910390a15050505050565b600c546040516001600160a01b039091169036600082376000803683855af43d806000843e818015611d68578184f35b8184fd5b5050505050565b600f5460ff1615610b4d5760405162461bcd60e51b815260040161068f90614a99565b600080516020614dcd8339815191528054600190915580156109ff576040805162461bcd60e51b815260206004820152600260248201526118a160f11b604482015290519081900360640190fd5b600081604051602001611df79190614c85565b604051602081830303815290604052805190602001209050919050565b60a01b61ffff60a01b166001600160a01b03919091161760501b90565b600063ffffffff8216611e4657506000612097565b6000856001811115611e5457fe5b1415611f65576060846001600160a01b031663f242432a89898787866040518663ffffffff1660e01b815260040180866001600160a01b03168152602001856001600160a01b031681526020018481526020018363ffffffff16815260200180602001828103825283818151815260200191508051906020019080838360005b83811015611eec578181015183820152602001611ed4565b50505050905090810190601f168015611f195780820380516001836020036101000a031916815260200191505b509650505050505050600060405180830381600087803b158015611f3c57600080fd5b505af1925050508015611f4d575060015b611f5a5760009150611f5f565b600191505b50612097565b6001856001811115611f7357fe5b1415612057578163ffffffff16600114611fc9576040805162461bcd60e51b81526020600482015260126024820152711a5b9d985b1a59081b999d08185b5bdd5b9d60721b604482015290519081900360640190fd5b836001600160a01b03166342842e0e8888866040518463ffffffff1660e01b815260040180846001600160a01b03168152602001836001600160a01b031681526020018281526020019350505050600060405180830381600087803b15801561203157600080fd5b505af1925050508015612042575060015b61204e57506000612052565b5060015b612097565b6040805162461bcd60e51b815260206004820152601060248201526f696e76616c6964206e6674207479706560801b604482015290519081900360640190fd5b9695505050505050565b6060816000015182602001518360400151846060015185608001518660a001516040516020016120d6969594939291906145d4565b6040516020818303038152906040529050919050565b600d5443619d8001906001600160401b03808216600160401b9092041601600061211584612959565b90506040518060600160405280826bffffffffffffffffffffffff19168152602001846001600160401b0316815260200186600f81111561215257fe5b90526001600160401b038084166000908152600760209081526040918290208451815492860151909416600160a01b0267ffffffffffffffff60a01b1960609590951c6001600160a01b03199093169290921793909316178083559083015190829060ff60e01b1916600160e01b83600f8111156121cc57fe5b02179055509050507fd0943372c08b438a88d4b39d77216901079eda9ca59d45349841c099083b683033838787876001600160401b0316604051612214959493929190614750565b60405180910390a15050600d805460016001600160401b03600160401b808404821692909201160267ffffffffffffffff60401b19909116179055505050565b600082820183811015611ca2576040805162461bcd60e51b81526020600482015260026024820152610c4d60f21b604482015290519081900360640190fd5b6000805460ff191681556001556224ea0060028190556040517ff2b18f8abbd8a0d0c1fb8245146eedf5304887b12f6395b548ca238e054a1483916122d79161483f565b60405180910390a1600060038190555b600381101561230e576000818152600460205260409020805460ff191690556001016122e7565b506000600555565b604080516001600160a01b038481166024830152604480830185905283518084039091018152606490920183526020820180516001600160e01b031663a9059cbb60e01b17815292518251600094859485948a16939092909182918083835b602083106123945780518252601f199092019160209182019101612375565b6001836020036101000a0380198251168184511680821785525050505050509050019150506000604051808303816000865af19150503d80600081146123f6576040519150601f19603f3d011682016040523d82523d6000602084013e6123fb565b606091505b50915091506000815160001480612425575081806020019051602081101561242257600080fd5b50515b90508280156124315750805b979650505050505050565b612444613af7565b826000015160010163ffffffff16826080015163ffffffff161461247a5760405162461bcd60e51b815260040161068f90614bc8565b8260600151826040015110156124a25760405162461bcd60e51b815260040161068f906149a0565b6000806124ae84612967565b9150915060006124be8686612bd9565b6040805160c08101825260808089015163ffffffff1682526001600160401b0390951660208201528082019590955286015160608501528551928401929092525060a0820152905092915050565b81515163ffffffff166000908152600e6020526040902054825161252f90611de4565b1461254c5760405162461bcd60e51b815260040161068f90614a44565b600c54825151600160c01b90910463ffffffff908116830160010181169116146125885760405162461bcd60e51b815260040161068f90614c6a565b7fc5d2460186f7233c927e7db2dcc703c0e500b653ca82273b7bfad8045d85a47060005b8360200151518163ffffffff1610156127a057600084602001518263ffffffff16815181106125d757fe5b602002602001015190506000816000815181106125f057fe5b016020015160f81c600f81111561260357fe5b9050600981600f81111561261357fe5b141561267357600061262483612c2a565b905061ffff63ffffffff16816060015161ffff1611156126565760405162461bcd60e51b815260040161068f90614ab4565b61266d816060015182604001518360800151612cfb565b50612787565b600e81600f81111561268157fe5b14156126ef57600061269283612ec1565b905061ffff63ffffffff16816060015161ffff1611156126c45760405162461bcd60e51b815260040161068f90614ab4565b60006126d38260400151610968565b90506126e88260600151828460800151612cfb565b5050612787565b600f81600f8111156126fd57fe5b141561275057600061270e83612f42565b905061266d8160400151826060015183608001518460a001518560c0015160ff16600181111561273a57fe5b8660e00151876101000151886101200151613035565b600d81600f81111561275e57fe5b141561276f57600061270e83613130565b60405162461bcd60e51b815260040161068f90614a63565b612791848361327b565b935050508060010190506125ac565b5082516040015181146127c55760405162461bcd60e51b815260040161068f90614be3565b505050565b60006127d68285611e14565b6001600160501b031981166000908152600b60205260409020549091506001600160801b0316612806818561328a565b6001600160501b031983166000908152600b60205260409081902080546001600160801b0319166001600160801b039390931692909217909155517ff4bf32c167ee6e782944cd1db8174729b46adcd3bc732e282cc4a8079393315490611d299087908790614d20565b60608160000151826020015183604001516040516020016120d693929190614630565b600081848411156129225760405162461bcd60e51b81526004018080602001828103825283818151815260200191508051906020019080838360005b838110156128e75781810151838201526020016128cf565b50505050905090810190601f1680156129145780820380516001836020036101000a031916815260200191505b509250505060405180910390fd5b505050900390565b6060816000015182602001518360400151846060015185608001516040516020016120d69594939291906146e3565b805160209091012060601b90565b6020810151600d547fc5d2460186f7233c927e7db2dcc703c0e500b653ca82273b7bfad8045d85a470916000916001600160401b03808216600160801b9092041601825b8560600151518161ffff161015612bd157600086606001518261ffff16815181106129d257fe5b6020026020010151905083518163ffffffff1610612a025760405162461bcd60e51b815260040161068f906149f2565b6000848263ffffffff1681518110612a1657fe5b016020015160f81c600f811115612a2957fe5b9050600181600f811115612a3957fe5b1415612a7b576000612a538663ffffffff851660416132b1565b90506000612a608261336d565b9050612a6e818988016133b9565b5050600190950194612bc7565b600281600f811115612a8957fe5b1415612abe576000612aa38663ffffffff851660376132b1565b90506000612ab082612ec1565b9050612a6e8189880161344f565b6060600982600f811115612ace57fe5b1415612aed57612ae68663ffffffff851660336132b1565b9050612bb9565b600d82600f811115612afb57fe5b1415612b1357612ae68663ffffffff851660b26132b1565b600e82600f811115612b2157fe5b1415612b6057612b398663ffffffff851660376132b1565b90506000612b4682612ec1565b9050612b54818988016134c3565b50600190960195612bb9565b600f82600f811115612b6e57fe5b1415612ba157612b868663ffffffff851660aa6132b1565b90506000612b9382612f42565b9050612b5481898801613553565b60405162461bcd60e51b815260040161068f90614c19565b612bc3888261327b565b9750505b50506001016129ab565b505050915091565b815163ffffffff166000908152600e60209081526040808320546080850151858401519251612c0c9492939192016148c4565b60405160208183030381529060405280519060200120905092915050565b612c32613b2c565b6001612c3e83826135c7565b63ffffffff1660208401529050612c5583826135e0565b6001600160a01b031660408401529050612c6f83826135f0565b61ffff1660608401529050612c848382613600565b6001600160801b031660808401529050612c9e83826135c7565b63ffffffff1660a08401529050612cb583826135f0565b61ffff1660c08401529050612cca83826135f0565b61ffff1660e0840152905060338114612cf55760405162461bcd60e51b815260040161068f90614a7e565b50919050565b6000612d078385611e14565b9050600061ffff8516612d305783612d28816001600160801b038616613610565b915050612e42565b60095460405163dbfc296760e01b81526000916001600160a01b03169063dbfc296790612d61908990600401614cec565b60206040518083038186803b158015612d7957600080fd5b505afa158015612d8d573d6000803e3d6000fd5b505050506040513d601f19601f82011682018060405250810190612db19190613f94565b604051634770d3a760e11b81529091503090638ee1a74e90620186a090612de29085908a908a9081906004016148f2565b602060405180830381600088803b158015612dfc57600080fd5b5087f193505050508015612e2d575060408051601f3d908101601f19168201909252612e2a918101906144bc565b60015b612e3a5760009150612e40565b50600191505b505b8015612e86577ff4bf32c167ee6e782944cd1db8174729b46adcd3bc732e282cc4a807939331548584604051612e79929190614d20565b60405180910390a1611d6c565b612e90828461367c565b7fd19cf67bbb6c320849f41b650b1179fb06a3f104451c75109c3b006a385c16888584604051611d29929190614d20565b612ec9613b70565b6001612ed583826135c7565b63ffffffff1660208401529050612eec838261371a565b60408401529050612efd83826135f0565b61ffff1660608401529050612f128382613600565b6001600160801b03166080840152905060378114612cf55760405162461bcd60e51b815260040161068f90614a7e565b612f4a613b9e565b6001612f5683826135c7565b63ffffffff1660208401529050612f6d838261371a565b60408401529050612f7e83826135e0565b6001600160a01b031660608401529050612f9883826135e0565b6001600160a01b031660808401529050612fb283826135e0565b6001600160a01b031660a08401529050612fcc838261372a565b60e08401529050612fdd83826135c7565b63ffffffff166101008401529050612ff5838261371a565b610120840152905061300783826135c7565b63ffffffff16610140840152905060aa8114612cf55760405162461bcd60e51b815260040161068f90614a7e565b600061304089610968565b9050606060006001600160a01b038a161561306a57613063838a898d8a8a611e31565b90506130b8565b6001600160a01b0388161561308857613063838a8a8989898861373a565b8463ffffffff16600114156130a657613063838a8a8989898861373a565b6130b5838a8a8989898861373a565b90505b806130d55760405162461bcd60e51b815260040161068f90614b22565b7fbdfffb78607d94f197dcb7d6db768a952b833cec21822eaade053a657b0b84ef8b8b8b8b8b600181111561310657fe5b8b8b60405161311b9796959493929190614848565b60405180910390a15050505050505050505050565b613138613bfa565b600161314483826135c7565b63ffffffff166020840152905061315b838261371a565b6040840152905061316c83826135e0565b6001600160a01b03166060840152905061318683826135e0565b6001600160a01b0316608084015290506131a083826135e0565b6001600160a01b031660a084015290506131ba83826135c7565b63ffffffff1661010084015290506131d2838261371a565b61012084015290506131e483826137cc565b60ff1660c084015290506131f8838261372a565b60e0840152905061320983826135c7565b63ffffffff16610140840152905061322183826135c7565b63ffffffff16610160840152905061323983826135f0565b61ffff16610180840152905061324f83826135f0565b61ffff166101a0840152905060b28114612cf55760405162461bcd60e51b815260040161068f90614a7e565b80519181526020909101902090565b6000611ca2838360405180604001604052806002815260200161616160f01b8152506137f8565b6060818301845110156132ef576040805162461bcd60e51b81526020600482015260016024820152602d60f91b604482015290519081900360640190fd5b6000826001600160401b038111801561330757600080fd5b506040519080825280601f01601f191660200182016040528015613332576020820181803683370190505b509050821561336557602081018381016020860187015b81831015613361578051835260209283019201613349565b5050505b949350505050565b613375613c6e565b6001613381838261371a565b60208401529050613392838261371a565b6040840152905060418114612cf55760405162461bcd60e51b815260040161068f90614a7e565b6001600160401b038116600090815260076020526040902054600160e01b900460ff16600181600f8111156133ea57fe5b146134075760405162461bcd60e51b815260040161068f906149d7565b6001600160401b03821660009081526007602052604090205460601b61342d848261385d565b6134495760405162461bcd60e51b815260040161068f90614ad1565b50505050565b6001600160401b038116600090815260076020526040902054600160e01b900460ff16600281600f81111561348057fe5b1461349d5760405162461bcd60e51b815260040161068f906149d7565b6001600160401b03821660009081526007602052604090205460601b61342d848261388d565b6001600160401b038116600090815260076020526040902054600160e01b900460ff16600e81600f8111156134f457fe5b146135115760405162461bcd60e51b815260040161068f90614aec565b6001600160401b03821660009081526007602052604090205460601b613537848261388d565b6134495760405162461bcd60e51b815260040161068f90614b07565b6001600160401b038116600090815260076020526040902054600160e01b900460ff16600f81600f81111561358457fe5b146135a15760405162461bcd60e51b815260040161068f90614aec565b6001600160401b03821660009081526007602052604090205460601b61353784826138a6565b6004810160006135d784846138bf565b90509250929050565b6014810160006135d7848461390d565b6002810160006135d78484613950565b6010810160006135d78484613993565b600080836001600160a01b0316620186a08460405161362e90610ab7565b600060405180830381858888f193505050503d806000811461366c576040519150601f19603f3d011682016040523d82523d6000602084013e613671565b606091505b509095945050505050565b6001600160501b031982166000908152600b6020526040908190205481518083019092526001600160801b031690806136b583856139d6565b6001600160801b03908116825260ff60209283018190526001600160501b03199096166000908152600b835260409020835181549490930151909616600160801b0260ff60801b19929091166001600160801b03199093169290921716179092555050565b6020810160006135d78484613a21565b6020810160006135d78484613a64565b600063ffffffff841661374f57506001612431565b604051632a7c58a960e11b81526001600160a01b038716906354f8b15290613787908b908b908b908b908b908b908b906004016147a3565b600060405180830381600087803b1580156137a157600080fd5b505af19250505080156137b2575060015b6137be57506000612431565b506001979650505050505050565b6000808260010191508383815181106137e157fe5b602001015160f81c60f81b60f81c90509250929050565b6000836001600160801b0316836001600160801b0316111582906129225760405162461bcd60e51b81526020600482018181528351602484015283519092839260449091019190850190808383600083156128e75781810151838201526020016128cf565b60006001600160601b0319821661387b61387685612870565b612959565b6001600160601b031916149392505050565b60006001600160601b0319821661387b6138768561292a565b60006001600160601b0319821661387b61387685613aa7565b6000808260040190508084511015613902576040805162461bcd60e51b81526020600482015260016024820152602b60f91b604482015290519081900360640190fd5b929092015192915050565b6000808260140190508084511015613902576040805162461bcd60e51b81526020600482015260016024820152602960f91b604482015290519081900360640190fd5b6000808260020190508084511015613902576040805162461bcd60e51b81526020600482015260016024820152601560fa1b604482015290519081900360640190fd5b6000808260100190508084511015613902576040805162461bcd60e51b81526020600482015260016024820152605760f81b604482015290519081900360640190fd5b60008282016001600160801b038085169082161015611ca2576040805162461bcd60e51b8152602060048201526002602482015261189960f11b604482015290519081900360640190fd5b6000808260200190508084511015613902576040805162461bcd60e51b81526020600482015260016024820152605960f81b604482015290519081900360640190fd5b6000808260200190508084511015613902576040805162461bcd60e51b81526020600482015260016024820152605760f81b604482015290519081900360640190fd5b6060816000015182602001518360400151846060015185608001518660a001518760e001518861010001518961012001518a61014001516040516020016120d69a99989796959493929190614655565b6040805160c081018252600080825260208201819052918101829052606081018290526080810182905260a081019190915290565b6040805161010081018252600080825260208201819052918101829052606081018290526080810182905260a0810182905260c0810182905260e081019190915290565b6040805160a08101825260008082526020820181905291810182905260608101829052608081019190915290565b6040805161016081018252600080825260208201819052918101829052606081018290526080810182905260a0810182905260c0810182905260e081018290526101008101829052610120810182905261014081019190915290565b604080516101c081018252600080825260208201819052918101829052606081018290526080810182905260a0810182905260c0810182905260e08101829052610100810182905261012081018290526101408101829052610160810182905261018081018290526101a081019190915290565b604080516060810182526000808252602082018190529181019190915290565b600082601f830112613c9e578081fd5b81356020613cb3613cae83614d85565b614d62565b82815281810190858301855b85811015613d82578135880160a080601f19838d03011215613cdf578889fd5b604080518281016001600160401b038282108183111715613cfc57fe5b908352848a01358252848301359080821115613d16578c8dfd5b613d248f8c84890101613e90565b8b8401526060860135848401526080935083860135915080821115613d47578c8dfd5b50613d568e8b83880101613de9565b606083015250613d67838501613f80565b91810191909152865250509284019290840190600101613cbf565b5090979650505050505050565b600082601f830112613d9f578081fd5b81356020613daf613cae83614d85565b8281528181019085830183850287018401881015613dcb578586fd5b855b85811015613d8257813584529284019290840190600101613dcd565b600082601f830112613df9578081fd5b81356020613e09613cae83614d85565b8281528181019085830183850287018401881015613e25578586fd5b855b85811015613d8257613e3882613f80565b84529284019290840190600101613e27565b60008083601f840112613e5b578182fd5b5081356001600160401b03811115613e71578182fd5b602083019150836020828501011115613e8957600080fd5b9250929050565b600082601f830112613ea0578081fd5b81356001600160401b03811115613eb357fe5b613ec6601f8201601f1916602001614d62565b818152846020838601011115613eda578283fd5b816020850160208301379081016020019190915292915050565b600060c08284031215613f05578081fd5b60405160c081016001600160401b038282108183111715613f2257fe5b81604052829350613f3285613f80565b8352602085013591508082168214613f4957600080fd5b508060208301525060408301356040820152606083013560608201526080830135608082015260a083013560a08201525092915050565b803563ffffffff811681146109ec57600080fd5b600060208284031215613fa5578081fd5b8151611ca281614da2565b600080600080600060a08688031215613fc7578081fd5b8535613fd281614da2565b94506020860135613fe281614da2565b93506040860135613ff281614da2565b9250606086013561400281614da2565b949793965091946080013592915050565b600080600060608486031215614027578081fd5b833561403281614da2565b9250602084013561404281614da2565b9150604084013561405281614db7565b809150509250925092565b6000806040838503121561406f578182fd5b823561407a81614da2565b9150602083013561408a81614da2565b809150509250929050565b6000602082840312156140a6578081fd5b81356001600160401b038111156140bb578182fd5b61336584828501613c8e565b600080604083850312156140d9578182fd5b6001600160401b03833511156140ed578182fd5b83601f8435850101126140fe578182fd5b61410e613cae8435850135614d85565b83358401803582526020808301929101845b8635870135811015614225578635870182350160e0818a03601f19011215614146578687fd5b6040518060408201106001600160401b036040830111171561416457fe5b604081016040526141788a60208401613ef4565b81526001600160401b0360e08301351115614191578788fd5b89603f60e0840135840101126141a5578788fd5b602060e0830135830101356141bc613cae82614d85565b818152602081019060e085013585016040018b5b84811015614203576141ee8f6040843560e08b01358b010101613e90565b845260209384019391909101906001016141d0565b5050602084810191909152928852505094850194929092019150600101614120565b5090935050506001600160401b0360208401351115614242578081fd5b6135d78460208501358501613d8f565b600060208284031215614263578081fd5b81518015158114611ca2578182fd5b600060208284031215614283578081fd5b5035919050565b60006020828403121561429b578081fd5b5051919050565b600080600080600060a086880312156142b9578283fd5b8535945060208601356142cb81614da2565b93506040860135600281106142de578384fd5b9250606086013591506142f360808701613f80565b90509295509295909350565b60008060208385031215614311578182fd5b82356001600160401b03811115614326578283fd5b61433285828601613e4a565b90969095509350505050565b60006020828403121561434f578081fd5b81356001600160401b03811115614364578182fd5b61336584828501613e90565b60008060008060808587031215614385578182fd5b843561439081614da2565b935060208501356143a081614da2565b925060408501356143b081614db7565b915060608501356143c081614db7565b939692955090935050565b6000806000606084860312156143df578081fd5b83356143ea81614da2565b925060208401356001600160681b0381168114614405578182fd5b929592945050506040919091013590565b6000806000806060858703121561442b578182fd5b84356001600160401b03811115614440578283fd5b61444c87828801613e4a565b909550935050602085013561446081614da2565b9396929550929360400135925050565b60008060e08385031215614482578182fd5b61448c8484613ef4565b915060c08301356001600160401b038111156144a6578182fd5b6144b285828601613c8e565b9150509250929050565b6000602082840312156144cd578081fd5b8151611ca281614db7565b6000602082840312156144e9578081fd5b815161ffff81168114611ca2578182fd5b60006020828403121561450b578081fd5b611ca282613f80565b6000815180845260208085019450808401835b8381101561454357815187529582019590820190600101614527565b509495945050505050565b60008151808452815b8181101561457357602081850181015186830182015201614557565b818111156145845782602083870101525b50601f01601f19169290920160200192915050565b60008284528282602086013780602084860101526020601f19601f85011685010190509392505050565b60e01b6001600160e01b0319169052565b60f896871b6001600160f81b03199081168252600182019690965260609490941b6001600160601b03191660218501529190941b9092166035820152603681019290925260e01b6001600160e01b0319166056820152605a0190565b60f89390931b6001600160f81b03191683526001830191909152602182015260410190565b600060ff60f81b8c60f81b16825263ffffffff60e01b8b60e01b1660018301528960058301526bffffffffffffffffffffffff19808a60601b166025840152808960601b166039840152808860601b16604d840152508560618301526146be60818301866145c3565b8360858301526146d160a58301846145c3565b5060a9019a9950505050505050505050565b60f89590951b6001600160f81b031916855260e09390931b6001600160e01b0319166001850152600584019190915260f01b6001600160f01b031916602583015260801b6001600160801b031916602782015260370190565b6001600160a01b0391909116815260200190565b6001600160a01b03861681526001600160401b038516602082015260006010851061477757fe5b84604083015260a0606083015261479160a083018561454e565b90508260808301529695505050505050565b6001600160a01b0388811682528781166020830152861660408201526060810185905263ffffffff8416608082015260a0810183905260e060c082018190526000906147f19083018461454e565b9998505050505050505050565b6000606082526148116060830186614514565b82810360208401526148238186614514565b915050826040830152949350505050565b901515815260200190565b90815260200190565b9687526001600160a01b039586166020880152938516604087015291909316606085015260ff909216608084015260a083019190915263ffffffff1660c082015260e00190565b9485526001600160a01b0393909316602085015260ff919091166040840152606083015263ffffffff16608082015260a00190565b600084825263ffffffff84166020830152606060408301526148e9606083018461454e565b95945050505050565b6001600160a01b0394851681529290931660208301526001600160801b039081166040830152909116606082015260800190565b600060208252613365602083018486614599565b60006060825261494e606083018688614599565b6001600160a01b03949094166020830152506040015292915050565b6020808252600190820152604360f81b604082015260600190565b6020808252600190820152606360f81b604082015260600190565b6020808252600190820152606760f81b604082015260600190565b602080825260029082015261696160f01b604082015260600190565b6020808252600190820152600960fb1b604082015260600190565b602080825260029082015261413160f01b604082015260600190565b6020808252600190820152603760f91b604082015260600190565b6020808252600190820152603760f81b604082015260600190565b602080825260059082015264065786531360dc1b604082015260600190565b6020808252600190820152601b60fa1b604082015260600190565b6020808252600190820152602760f91b604082015260600190565b6020808252600190820152601360fa1b604082015260600190565b6020808252600390820152626d663160e81b604082015260600190565b6020808252600190820152604960f81b604082015260600190565b6020808252600190820152602560f91b604082015260600190565b6020808252600190820152604b60f81b604082015260600190565b6020808252601490820152736e6674207472616e73666572206661696c75726560601b604082015260600190565b6020808252600190820152603560f91b604082015260600190565b6020808252600190820152603160f91b604082015260600190565b6020808252600190820152603560f81b604082015260600190565b6020808252600d908201526c34b73b30b634b210383937b7b360991b604082015260600190565b6020808252600190820152603360f91b604082015260600190565b6020808252600190820152606d60f81b604082015260600190565b6020808252600190820152601b60f91b604082015260600190565b6020808252600190820152602360f91b604082015260600190565b6020808252600190820152606960f81b604082015260600190565b6020808252600190820152601960fa1b604082015260600190565b6020808252600190820152606b60f81b604082015260600190565b600060c08201905063ffffffff83511682526001600160401b03602084015116602083015260408301516040830152606083015160608301526080830151608083015260a083015160a083015292915050565b6001600160801b0391909116815260200190565b61ffff91909116815260200190565b61ffff93909316835260208301919091526001600160801b0316604082015260600190565b61ffff9290921682526001600160801b0316602082015260400190565b63ffffffff91909116815260200190565b6001600160401b0391909116815260200190565b6040518181016001600160401b0381118282101715614d7d57fe5b604052919050565b60006001600160401b03821115614d9857fe5b5060209081020190565b6001600160a01b03811681146109ff57600080fd5b6001600160801b03811681146109ff57600080fdfe8e94fed44239eb2314ab7a406345e6c5a8f0ccedf3b600de3d004e672c33abf4a264697066735822122064790bfdecdcb55bf6c34a5dc963b2fb9114eaa9c12bfe42e7ddb1f9021edee464736f6c63430007060033",
			"opcodes": "PUSH1 0x80 PUSH1 0x40 MSTORE CALLVALUE DUP1 ISZERO PUSH2 0x10 JUMPI PUSH1 0x0 DUP1 REVERT JUMPDEST POP PUSH2 0x4E22 DUP1 PUSH2 0x20 PUSH1 0x0 CODECOPY PUSH1 0x0 RETURN INVALID PUSH1 0x80 PUSH1 0x40 MSTORE PUSH1 0x4 CALLDATASIZE LT PUSH2 0x225 JUMPI PUSH1 0x0 CALLDATALOAD PUSH1 0xE0 SHR DUP1 PUSH4 0x5ACA41F6 GT PUSH2 0x123 JUMPI DUP1 PUSH4 0xA7CCEC2F GT PUSH2 0xAB JUMPI DUP1 PUSH4 0xC701F955 GT PUSH2 0x6F JUMPI DUP1 PUSH4 0xC701F955 EQ PUSH2 0x5B2 JUMPI DUP1 PUSH4 0xCC375FB7 EQ PUSH2 0x5C7 JUMPI DUP1 PUSH4 0xD514DA50 EQ PUSH2 0x5DC JUMPI DUP1 PUSH4 0xD7757DA1 EQ PUSH2 0x5FC JUMPI DUP1 PUSH4 0xFAF4D8CB EQ PUSH2 0x61C JUMPI PUSH2 0x225 JUMP JUMPDEST DUP1 PUSH4 0xA7CCEC2F EQ PUSH2 0x548 JUMPI DUP1 PUSH4 0xAAD1820E EQ PUSH2 0x55D JUMPI DUP1 PUSH4 0xB269B9AE EQ PUSH2 0x4DE JUMPI DUP1 PUSH4 0xB77A1EF5 EQ PUSH2 0x57D JUMPI DUP1 PUSH4 0xC57B22BE EQ PUSH2 0x59D JUMPI PUSH2 0x225 JUMP JUMPDEST DUP1 PUSH4 0x7EA399C1 GT PUSH2 0xF2 JUMPI DUP1 PUSH4 0x7EA399C1 EQ PUSH2 0x4C9 JUMPI DUP1 PUSH4 0x871B8FF1 EQ PUSH2 0x4DE JUMPI DUP1 PUSH4 0x8773334C EQ PUSH2 0x4F3 JUMPI DUP1 PUSH4 0x8C8EBC52 EQ PUSH2 0x508 JUMPI DUP1 PUSH4 0x8EE1A74E EQ PUSH2 0x528 JUMPI PUSH2 0x225 JUMP JUMPDEST DUP1 PUSH4 0x5ACA41F6 EQ PUSH2 0x452 JUMPI DUP1 PUSH4 0x67708DAE EQ PUSH2 0x472 JUMPI DUP1 PUSH4 0x6CC08908 EQ PUSH2 0x494 JUMPI DUP1 PUSH4 0x78B91E70 EQ PUSH2 0x4B4 JUMPI PUSH2 0x225 JUMP JUMPDEST DUP1 PUSH4 0x3B154B73 GT PUSH2 0x1B1 JUMPI DUP1 PUSH4 0x437545F9 GT PUSH2 0x175 JUMPI DUP1 PUSH4 0x437545F9 EQ PUSH2 0x3D1 JUMPI DUP1 PUSH4 0x437DA02F EQ PUSH2 0x3E6 JUMPI DUP1 PUSH4 0x439FAB91 EQ PUSH2 0x3FB JUMPI DUP1 PUSH4 0x4A51A71F EQ PUSH2 0x41B JUMPI DUP1 PUSH4 0x4C34A982 EQ PUSH2 0x430 JUMPI PUSH2 0x225 JUMP JUMPDEST DUP1 PUSH4 0x3B154B73 EQ PUSH2 0x35F JUMPI DUP1 PUSH4 0x3D002926 EQ PUSH2 0x374 JUMPI DUP1 PUSH4 0x3E71E1E7 EQ PUSH2 0x387 JUMPI DUP1 PUSH4 0x4167D002 EQ PUSH2 0x39C JUMPI DUP1 PUSH4 0x4242D5B3 EQ PUSH2 0x3BC JUMPI PUSH2 0x225 JUMP JUMPDEST DUP1 PUSH4 0x200A7D20 GT PUSH2 0x1F8 JUMPI DUP1 PUSH4 0x200A7D20 EQ PUSH2 0x2C6 JUMPI DUP1 PUSH4 0x22B22256 EQ PUSH2 0x2E6 JUMPI DUP1 PUSH4 0x25394645 EQ PUSH2 0x2FB JUMPI DUP1 PUSH4 0x2A3174F4 EQ PUSH2 0x31B JUMPI DUP1 PUSH4 0x2D24006C EQ PUSH2 0x33D JUMPI PUSH2 0x225 JUMP JUMPDEST DUP1 PUSH4 0x2CFB563 EQ PUSH2 0x22A JUMPI DUP1 PUSH4 0x3892C3C EQ PUSH2 0x255 JUMPI DUP1 PUSH4 0xB8F1C0C EQ PUSH2 0x277 JUMPI DUP1 PUSH4 0xD360B7F EQ PUSH2 0x2A4 JUMPI JUMPDEST PUSH1 0x0 DUP1 REVERT JUMPDEST CALLVALUE DUP1 ISZERO PUSH2 0x236 JUMPI PUSH1 0x0 DUP1 REVERT JUMPDEST POP PUSH2 0x23F PUSH2 0x631 JUMP JUMPDEST PUSH1 0x40 MLOAD PUSH2 0x24C SWAP2 SWAP1 PUSH2 0x4834 JUMP JUMPDEST PUSH1 0x40 MLOAD DUP1 SWAP2 SUB SWAP1 RETURN JUMPDEST CALLVALUE DUP1 ISZERO PUSH2 0x261 JUMPI PUSH1 0x0 DUP1 REVERT JUMPDEST POP PUSH2 0x275 PUSH2 0x270 CALLDATASIZE PUSH1 0x4 PUSH2 0x43CB JUMP JUMPDEST PUSH2 0x63A JUMP JUMPDEST STOP JUMPDEST CALLVALUE DUP1 ISZERO PUSH2 0x283 JUMPI PUSH1 0x0 DUP1 REVERT JUMPDEST POP PUSH2 0x297 PUSH2 0x292 CALLDATASIZE PUSH1 0x4 PUSH2 0x4272 JUMP JUMPDEST PUSH2 0x968 JUMP JUMPDEST PUSH1 0x40 MLOAD PUSH2 0x24C SWAP2 SWAP1 PUSH2 0x473C JUMP JUMPDEST CALLVALUE DUP1 ISZERO PUSH2 0x2B0 JUMPI PUSH1 0x0 DUP1 REVERT JUMPDEST POP PUSH2 0x2B9 PUSH2 0x9F1 JUMP JUMPDEST PUSH1 0x40 MLOAD PUSH2 0x24C SWAP2 SWAP1 PUSH2 0x4CEC JUMP JUMPDEST CALLVALUE DUP1 ISZERO PUSH2 0x2D2 JUMPI PUSH1 0x0 DUP1 REVERT JUMPDEST POP PUSH2 0x275 PUSH2 0x2E1 CALLDATASIZE PUSH1 0x4 PUSH2 0x4095 JUMP JUMPDEST PUSH2 0x9F7 JUMP JUMPDEST CALLVALUE DUP1 ISZERO PUSH2 0x2F2 JUMPI PUSH1 0x0 DUP1 REVERT JUMPDEST POP PUSH2 0x23F PUSH2 0xA02 JUMP JUMPDEST CALLVALUE DUP1 ISZERO PUSH2 0x307 JUMPI PUSH1 0x0 DUP1 REVERT JUMPDEST POP PUSH2 0x275 PUSH2 0x316 CALLDATASIZE PUSH1 0x4 PUSH2 0x42FF JUMP JUMPDEST PUSH2 0xABA JUMP JUMPDEST CALLVALUE DUP1 ISZERO PUSH2 0x327 JUMPI PUSH1 0x0 DUP1 REVERT JUMPDEST POP PUSH2 0x330 PUSH2 0xAEE JUMP JUMPDEST PUSH1 0x40 MLOAD PUSH2 0x24C SWAP2 SWAP1 PUSH2 0x483F JUMP JUMPDEST CALLVALUE DUP1 ISZERO PUSH2 0x349 JUMPI PUSH1 0x0 DUP1 REVERT JUMPDEST POP PUSH2 0x352 PUSH2 0xAF3 JUMP JUMPDEST PUSH1 0x40 MLOAD PUSH2 0x24C SWAP2 SWAP1 PUSH2 0x4D3D JUMP JUMPDEST CALLVALUE DUP1 ISZERO PUSH2 0x36B JUMPI PUSH1 0x0 DUP1 REVERT JUMPDEST POP PUSH2 0x275 PUSH2 0xB06 JUMP JUMPDEST PUSH2 0x275 PUSH2 0x382 CALLDATASIZE PUSH1 0x4 PUSH2 0x4272 JUMP JUMPDEST PUSH2 0xB0C JUMP JUMPDEST CALLVALUE DUP1 ISZERO PUSH2 0x393 JUMPI PUSH1 0x0 DUP1 REVERT JUMPDEST POP PUSH2 0x275 PUSH2 0xB45 JUMP JUMPDEST CALLVALUE DUP1 ISZERO PUSH2 0x3A8 JUMPI PUSH1 0x0 DUP1 REVERT JUMPDEST POP PUSH2 0x330 PUSH2 0x3B7 CALLDATASIZE PUSH1 0x4 PUSH2 0x44FA JUMP JUMPDEST PUSH2 0xB4F JUMP JUMPDEST CALLVALUE DUP1 ISZERO PUSH2 0x3C8 JUMPI PUSH1 0x0 DUP1 REVERT JUMPDEST POP PUSH2 0x352 PUSH2 0xB61 JUMP JUMPDEST CALLVALUE DUP1 ISZERO PUSH2 0x3DD JUMPI PUSH1 0x0 DUP1 REVERT JUMPDEST POP PUSH2 0x352 PUSH2 0xB66 JUMP JUMPDEST CALLVALUE DUP1 ISZERO PUSH2 0x3F2 JUMPI PUSH1 0x0 DUP1 REVERT JUMPDEST POP PUSH2 0x352 PUSH2 0x9F1 JUMP JUMPDEST CALLVALUE DUP1 ISZERO PUSH2 0x407 JUMPI PUSH1 0x0 DUP1 REVERT JUMPDEST POP PUSH2 0x275 PUSH2 0x416 CALLDATASIZE PUSH1 0x4 PUSH2 0x42FF JUMP JUMPDEST PUSH2 0xB6E JUMP JUMPDEST CALLVALUE DUP1 ISZERO PUSH2 0x427 JUMPI PUSH1 0x0 DUP1 REVERT JUMPDEST POP PUSH2 0x330 PUSH2 0xCB0 JUMP JUMPDEST CALLVALUE DUP1 ISZERO PUSH2 0x43C JUMPI PUSH1 0x0 DUP1 REVERT JUMPDEST POP PUSH2 0x445 PUSH2 0xCB5 JUMP JUMPDEST PUSH1 0x40 MLOAD PUSH2 0x24C SWAP2 SWAP1 PUSH2 0x4CD8 JUMP JUMPDEST CALLVALUE DUP1 ISZERO PUSH2 0x45E JUMPI PUSH1 0x0 DUP1 REVERT JUMPDEST POP PUSH2 0x445 PUSH2 0x46D CALLDATASIZE PUSH1 0x4 PUSH2 0x405D JUMP JUMPDEST PUSH2 0xCC0 JUMP JUMPDEST CALLVALUE DUP1 ISZERO PUSH2 0x47E JUMPI PUSH1 0x0 DUP1 REVERT JUMPDEST POP PUSH2 0x487 PUSH2 0xD8F JUMP JUMPDEST PUSH1 0x40 MLOAD PUSH2 0x24C SWAP2 SWAP1 PUSH2 0x4D4E JUMP JUMPDEST CALLVALUE DUP1 ISZERO PUSH2 0x4A0 JUMPI PUSH1 0x0 DUP1 REVERT JUMPDEST POP PUSH2 0x275 PUSH2 0x4AF CALLDATASIZE PUSH1 0x4 PUSH2 0x42A2 JUMP JUMPDEST PUSH2 0xD9E JUMP JUMPDEST CALLVALUE DUP1 ISZERO PUSH2 0x4C0 JUMPI PUSH1 0x0 DUP1 REVERT JUMPDEST POP PUSH2 0x275 PUSH2 0xECF JUMP JUMPDEST CALLVALUE DUP1 ISZERO PUSH2 0x4D5 JUMPI PUSH1 0x0 DUP1 REVERT JUMPDEST POP PUSH2 0x297 PUSH2 0xEFD JUMP JUMPDEST CALLVALUE DUP1 ISZERO PUSH2 0x4EA JUMPI PUSH1 0x0 DUP1 REVERT JUMPDEST POP PUSH2 0x275 PUSH2 0xF08 JUMP JUMPDEST CALLVALUE DUP1 ISZERO PUSH2 0x4FF JUMPI PUSH1 0x0 DUP1 REVERT JUMPDEST POP PUSH2 0x23F PUSH2 0xF10 JUMP JUMPDEST CALLVALUE DUP1 ISZERO PUSH2 0x514 JUMPI PUSH1 0x0 DUP1 REVERT JUMPDEST POP PUSH2 0x330 PUSH2 0x523 CALLDATASIZE PUSH1 0x4 PUSH2 0x433E JUMP JUMPDEST PUSH2 0xF1A JUMP JUMPDEST CALLVALUE DUP1 ISZERO PUSH2 0x534 JUMPI PUSH1 0x0 DUP1 REVERT JUMPDEST POP PUSH2 0x445 PUSH2 0x543 CALLDATASIZE PUSH1 0x4 PUSH2 0x4370 JUMP JUMPDEST PUSH2 0xF25 JUMP JUMPDEST CALLVALUE DUP1 ISZERO PUSH2 0x554 JUMPI PUSH1 0x0 DUP1 REVERT JUMPDEST POP PUSH2 0x330 PUSH2 0x10C4 JUMP JUMPDEST CALLVALUE DUP1 ISZERO PUSH2 0x569 JUMPI PUSH1 0x0 DUP1 REVERT JUMPDEST POP PUSH2 0x275 PUSH2 0x578 CALLDATASIZE PUSH1 0x4 PUSH2 0x4470 JUMP JUMPDEST PUSH2 0x10CA JUMP JUMPDEST CALLVALUE DUP1 ISZERO PUSH2 0x589 JUMPI PUSH1 0x0 DUP1 REVERT JUMPDEST POP PUSH2 0x275 PUSH2 0x598 CALLDATASIZE PUSH1 0x4 PUSH2 0x40C7 JUMP JUMPDEST PUSH2 0x12FA JUMP JUMPDEST CALLVALUE DUP1 ISZERO PUSH2 0x5A9 JUMPI PUSH1 0x0 DUP1 REVERT JUMPDEST POP PUSH2 0x487 PUSH2 0x16F0 JUMP JUMPDEST CALLVALUE DUP1 ISZERO PUSH2 0x5BE JUMPI PUSH1 0x0 DUP1 REVERT JUMPDEST POP PUSH2 0x330 PUSH2 0x1706 JUMP JUMPDEST CALLVALUE DUP1 ISZERO PUSH2 0x5D3 JUMPI PUSH1 0x0 DUP1 REVERT JUMPDEST POP PUSH2 0x330 PUSH2 0x170D JUMP JUMPDEST CALLVALUE DUP1 ISZERO PUSH2 0x5E8 JUMPI PUSH1 0x0 DUP1 REVERT JUMPDEST POP PUSH2 0x275 PUSH2 0x5F7 CALLDATASIZE PUSH1 0x4 PUSH2 0x4013 JUMP JUMPDEST PUSH2 0x1714 JUMP JUMPDEST CALLVALUE DUP1 ISZERO PUSH2 0x608 JUMPI PUSH1 0x0 DUP1 REVERT JUMPDEST POP PUSH2 0x275 PUSH2 0x617 CALLDATASIZE PUSH1 0x4 PUSH2 0x4416 JUMP JUMPDEST PUSH2 0x193E JUMP JUMPDEST CALLVALUE DUP1 ISZERO PUSH2 0x628 JUMPI PUSH1 0x0 DUP1 REVERT JUMPDEST POP PUSH2 0x352 PUSH2 0x1AFA JUMP JUMPDEST PUSH1 0xF SLOAD PUSH1 0xFF AND DUP2 JUMP JUMPDEST PUSH1 0x0 DUP1 MLOAD PUSH1 0x20 PUSH2 0x4DCD DUP4 CODECOPY DUP2 MLOAD SWAP2 MSTORE SLOAD PUSH1 0x1 DUP2 EQ PUSH2 0x657 JUMPI PUSH1 0x0 DUP1 REVERT JUMPDEST PUSH1 0x2 PUSH1 0x0 DUP1 MLOAD PUSH1 0x20 PUSH2 0x4DCD DUP4 CODECOPY DUP2 MLOAD SWAP2 MSTORE SSTORE PUSH1 0x1 PUSH1 0x1 PUSH1 0x68 SHL SUB DUP4 AND PUSH2 0x698 JUMPI PUSH1 0x40 MLOAD PUSH3 0x461BCD PUSH1 0xE5 SHL DUP2 MSTORE PUSH1 0x4 ADD PUSH2 0x68F SWAP1 PUSH2 0x49BB JUMP JUMPDEST PUSH1 0x40 MLOAD DUP1 SWAP2 SUB SWAP1 REVERT JUMPDEST PUSH1 0x9 SLOAD PUSH1 0x40 MLOAD PUSH4 0x9BD77609 PUSH1 0xE0 SHL DUP2 MSTORE PUSH1 0x0 SWAP2 PUSH1 0x1 PUSH1 0x1 PUSH1 0xA0 SHL SUB AND SWAP1 PUSH4 0x9BD77609 SWAP1 PUSH2 0x6C9 SWAP1 DUP9 SWAP1 PUSH1 0x4 ADD PUSH2 0x473C JUMP JUMPDEST PUSH1 0x20 PUSH1 0x40 MLOAD DUP1 DUP4 SUB DUP2 DUP7 DUP1 EXTCODESIZE ISZERO DUP1 ISZERO PUSH2 0x6E1 JUMPI PUSH1 0x0 DUP1 REVERT JUMPDEST POP GAS STATICCALL ISZERO DUP1 ISZERO PUSH2 0x6F5 JUMPI RETURNDATASIZE PUSH1 0x0 DUP1 RETURNDATACOPY RETURNDATASIZE PUSH1 0x0 REVERT JUMPDEST POP POP POP POP PUSH1 0x40 MLOAD RETURNDATASIZE PUSH1 0x1F NOT PUSH1 0x1F DUP3 ADD AND DUP3 ADD DUP1 PUSH1 0x40 MSTORE POP DUP2 ADD SWAP1 PUSH2 0x719 SWAP2 SWAP1 PUSH2 0x44D8 JUMP JUMPDEST PUSH1 0x9 SLOAD PUSH1 0x40 MLOAD PUSH4 0x31D8687B PUSH1 0xE0 SHL DUP2 MSTORE SWAP2 SWAP3 POP PUSH1 0x1 PUSH1 0x1 PUSH1 0xA0 SHL SUB AND SWAP1 PUSH4 0x31D8687B SWAP1 PUSH2 0x74A SWAP1 DUP5 SWAP1 PUSH1 0x4 ADD PUSH2 0x4CEC JUMP JUMPDEST PUSH1 0x20 PUSH1 0x40 MLOAD DUP1 DUP4 SUB DUP2 DUP7 DUP1 EXTCODESIZE ISZERO DUP1 ISZERO PUSH2 0x762 JUMPI PUSH1 0x0 DUP1 REVERT JUMPDEST POP GAS STATICCALL ISZERO DUP1 ISZERO PUSH2 0x776 JUMPI RETURNDATASIZE PUSH1 0x0 DUP1 RETURNDATACOPY RETURNDATASIZE PUSH1 0x0 REVERT JUMPDEST POP POP POP POP PUSH1 0x40 MLOAD RETURNDATASIZE PUSH1 0x1F NOT PUSH1 0x1F DUP3 ADD AND DUP3 ADD DUP1 PUSH1 0x40 MSTORE POP DUP2 ADD SWAP1 PUSH2 0x79A SWAP2 SWAP1 PUSH2 0x4252 JUMP JUMPDEST ISZERO PUSH2 0x7B7 JUMPI PUSH1 0x40 MLOAD PUSH3 0x461BCD PUSH1 0xE5 SHL DUP2 MSTORE PUSH1 0x4 ADD PUSH2 0x68F SWAP1 PUSH2 0x4B6B JUMP JUMPDEST PUSH1 0x40 MLOAD PUSH4 0x70A08231 PUSH1 0xE0 SHL DUP2 MSTORE PUSH1 0x0 SWAP1 PUSH1 0x1 PUSH1 0x1 PUSH1 0xA0 SHL SUB DUP8 AND SWAP1 PUSH4 0x70A08231 SWAP1 PUSH2 0x7E6 SWAP1 ADDRESS SWAP1 PUSH1 0x4 ADD PUSH2 0x473C JUMP JUMPDEST PUSH1 0x20 PUSH1 0x40 MLOAD DUP1 DUP4 SUB DUP2 DUP7 DUP1 EXTCODESIZE ISZERO DUP1 ISZERO PUSH2 0x7FE JUMPI PUSH1 0x0 DUP1 REVERT JUMPDEST POP GAS STATICCALL ISZERO DUP1 ISZERO PUSH2 0x812 JUMPI RETURNDATASIZE PUSH1 0x0 DUP1 RETURNDATACOPY RETURNDATASIZE PUSH1 0x0 REVERT JUMPDEST POP POP POP POP PUSH1 0x40 MLOAD RETURNDATASIZE PUSH1 0x1F NOT PUSH1 0x1F DUP3 ADD AND DUP3 ADD DUP1 PUSH1 0x40 MSTORE POP DUP2 ADD SWAP1 PUSH2 0x836 SWAP2 SWAP1 PUSH2 0x428A JUMP JUMPDEST SWAP1 POP PUSH2 0x85E DUP7 CALLER ADDRESS PUSH2 0x850 DUP10 PUSH1 0x1 PUSH1 0x1 PUSH1 0x68 SHL SUB AND PUSH2 0x1B0D JUMP JUMPDEST PUSH1 0x1 PUSH1 0x1 PUSH1 0x80 SHL SUB AND PUSH2 0x1B50 JUMP JUMPDEST PUSH2 0x87A JUMPI PUSH1 0x40 MLOAD PUSH3 0x461BCD PUSH1 0xE5 SHL DUP2 MSTORE PUSH1 0x4 ADD PUSH2 0x68F SWAP1 PUSH2 0x4985 JUMP JUMPDEST PUSH1 0x40 MLOAD PUSH4 0x70A08231 PUSH1 0xE0 SHL DUP2 MSTORE PUSH1 0x0 SWAP1 PUSH1 0x1 PUSH1 0x1 PUSH1 0xA0 SHL SUB DUP9 AND SWAP1 PUSH4 0x70A08231 SWAP1 PUSH2 0x8A9 SWAP1 ADDRESS SWAP1 PUSH1 0x4 ADD PUSH2 0x473C JUMP JUMPDEST PUSH1 0x20 PUSH1 0x40 MLOAD DUP1 DUP4 SUB DUP2 DUP7 DUP1 EXTCODESIZE ISZERO DUP1 ISZERO PUSH2 0x8C1 JUMPI PUSH1 0x0 DUP1 REVERT JUMPDEST POP GAS STATICCALL ISZERO DUP1 ISZERO PUSH2 0x8D5 JUMPI RETURNDATASIZE PUSH1 0x0 DUP1 RETURNDATACOPY RETURNDATASIZE PUSH1 0x0 REVERT JUMPDEST POP POP POP POP PUSH1 0x40 MLOAD RETURNDATASIZE PUSH1 0x1F NOT PUSH1 0x1F DUP3 ADD AND DUP3 ADD DUP1 PUSH1 0x40 MSTORE POP DUP2 ADD SWAP1 PUSH2 0x8F9 SWAP2 SWAP1 PUSH2 0x428A JUMP JUMPDEST SWAP1 POP PUSH1 0x0 PUSH2 0x90F PUSH2 0x90A DUP4 DUP6 PUSH2 0x1C7C JUMP JUMPDEST PUSH2 0x1B0D JUMP JUMPDEST SWAP1 POP PUSH1 0x1 PUSH1 0x1 PUSH1 0x68 SHL SUB PUSH1 0x1 PUSH1 0x1 PUSH1 0x80 SHL SUB DUP3 AND GT ISZERO PUSH2 0x941 JUMPI PUSH1 0x40 MLOAD PUSH3 0x461BCD PUSH1 0xE5 SHL DUP2 MSTORE PUSH1 0x4 ADD PUSH2 0x68F SWAP1 PUSH2 0x496A JUMP JUMPDEST PUSH2 0x94C DUP5 DUP3 DUP9 PUSH2 0x1CA9 JUMP JUMPDEST POP POP POP POP PUSH1 0x1 PUSH1 0x0 DUP1 MLOAD PUSH1 0x20 PUSH2 0x4DCD DUP4 CODECOPY DUP2 MLOAD SWAP2 MSTORE SSTORE POP POP POP POP JUMP JUMPDEST PUSH1 0xA SLOAD PUSH1 0x40 MLOAD PUSH4 0x6F5C98D1 PUSH1 0xE1 SHL DUP2 MSTORE PUSH1 0x0 SWAP2 PUSH1 0x1 PUSH1 0x1 PUSH1 0xA0 SHL SUB AND SWAP1 PUSH4 0xDEB931A2 SWAP1 PUSH2 0x999 SWAP1 DUP6 SWAP1 PUSH1 0x4 ADD PUSH2 0x483F JUMP JUMPDEST PUSH1 0x20 PUSH1 0x40 MLOAD DUP1 DUP4 SUB DUP2 DUP7 DUP1 EXTCODESIZE ISZERO DUP1 ISZERO PUSH2 0x9B1 JUMPI PUSH1 0x0 DUP1 REVERT JUMPDEST POP GAS STATICCALL ISZERO DUP1 ISZERO PUSH2 0x9C5 JUMPI RETURNDATASIZE PUSH1 0x0 DUP1 RETURNDATACOPY RETURNDATASIZE PUSH1 0x0 REVERT JUMPDEST POP POP POP POP PUSH1 0x40 MLOAD RETURNDATASIZE PUSH1 0x1F NOT PUSH1 0x1F DUP3 ADD AND DUP3 ADD DUP1 PUSH1 0x40 MSTORE POP DUP2 ADD SWAP1 PUSH2 0x9E9 SWAP2 SWAP1 PUSH2 0x3F94 JUMP JUMPDEST SWAP1 POP JUMPDEST SWAP2 SWAP1 POP JUMP JUMPDEST PUSH2 0xFFFF DUP2 JUMP JUMPDEST PUSH2 0x9FF PUSH2 0x1D38 JUMP JUMPDEST POP JUMP JUMPDEST PUSH1 0xD SLOAD PUSH1 0x1 PUSH1 0x1 PUSH1 0x40 SHL SUB SWAP1 DUP2 AND PUSH1 0x0 SWAP1 DUP2 MSTORE PUSH1 0x7 PUSH1 0x20 MSTORE PUSH1 0x40 DUP2 KECCAK256 SLOAD SWAP1 SWAP2 PUSH1 0x1 SWAP2 PUSH1 0x1 PUSH1 0xA0 SHL SWAP1 DIV AND NUMBER LT DUP1 ISZERO SWAP1 PUSH2 0xA5E JUMPI POP PUSH1 0xD SLOAD PUSH1 0x1 PUSH1 0x1 PUSH1 0x40 SHL SUB SWAP1 DUP2 AND PUSH1 0x0 SWAP1 DUP2 MSTORE PUSH1 0x7 PUSH1 0x20 MSTORE PUSH1 0x40 SWAP1 KECCAK256 SLOAD PUSH1 0x1 PUSH1 0xA0 SHL SWAP1 DIV AND ISZERO ISZERO JUMPDEST SWAP1 POP DUP1 ISZERO PUSH2 0xAB1 JUMPI PUSH1 0xF SLOAD PUSH1 0xFF AND PUSH2 0xAA7 JUMPI PUSH1 0xF DUP1 SLOAD PUSH1 0xFF NOT AND PUSH1 0x1 OR SWAP1 SSTORE PUSH1 0x40 MLOAD PUSH32 0x9F7E400A81DDDBF1C18B1C37F82AA303D166295CA4B577EB2A7C23D4B704BA89 SWAP1 PUSH1 0x0 SWAP1 LOG1 JUMPDEST PUSH1 0x1 SWAP2 POP POP PUSH2 0xAB7 JUMP JUMPDEST PUSH1 0x0 SWAP2 POP POP JUMPDEST SWAP1 JUMP JUMPDEST PUSH1 0x0 DUP1 MLOAD PUSH1 0x20 PUSH2 0x4DCD DUP4 CODECOPY DUP2 MLOAD SWAP2 MSTORE SLOAD PUSH1 0x1 DUP2 EQ PUSH2 0xAD7 JUMPI PUSH1 0x0 DUP1 REVERT JUMPDEST POP POP PUSH1 0x1 PUSH1 0x0 DUP1 MLOAD PUSH1 0x20 PUSH2 0x4DCD DUP4 CODECOPY DUP2 MLOAD SWAP2 MSTORE SSTORE POP JUMP JUMPDEST PUSH1 0x0 SWAP1 JUMP JUMPDEST PUSH1 0xC SLOAD PUSH1 0x1 PUSH1 0xC0 SHL SWAP1 DIV PUSH4 0xFFFFFFFF AND DUP2 JUMP JUMPDEST TIMESTAMP PUSH1 0x3 SSTORE JUMP JUMPDEST CALLVALUE PUSH2 0xB29 JUMPI PUSH1 0x40 MLOAD PUSH3 0x461BCD PUSH1 0xE5 SHL DUP2 MSTORE PUSH1 0x4 ADD PUSH2 0x68F SWAP1 PUSH2 0x49BB JUMP JUMPDEST PUSH2 0xB31 PUSH2 0x1D73 JUMP JUMPDEST PUSH2 0x9FF PUSH1 0x0 PUSH2 0xB3F CALLVALUE PUSH2 0x1B0D JUMP JUMPDEST DUP4 PUSH2 0x1CA9 JUMP JUMPDEST PUSH2 0xB4D PUSH2 0x1D38 JUMP JUMPDEST JUMP JUMPDEST PUSH1 0xE PUSH1 0x20 MSTORE PUSH1 0x0 SWAP1 DUP2 MSTORE PUSH1 0x40 SWAP1 KECCAK256 SLOAD DUP2 JUMP JUMPDEST PUSH1 0x0 DUP2 JUMP JUMPDEST PUSH4 0xFFFFFFFF DUP2 JUMP JUMPDEST PUSH2 0xB76 PUSH2 0x1D96 JUMP JUMPDEST PUSH1 0x0 DUP1 DUP1 DUP1 DUP1 PUSH2 0xB88 DUP7 DUP9 ADD DUP9 PUSH2 0x3FB0 JUMP JUMPDEST PUSH1 0x8 DUP1 SLOAD PUSH1 0x1 PUSH1 0x1 PUSH1 0xA0 SHL SUB DUP1 DUP8 AND PUSH1 0x1 PUSH1 0x1 PUSH1 0xA0 SHL SUB NOT SWAP3 DUP4 AND OR SWAP1 SWAP3 SSTORE PUSH1 0x9 DUP1 SLOAD DUP4 DUP10 AND SWAP1 DUP4 AND OR SWAP1 SSTORE PUSH1 0xC DUP1 SLOAD DUP4 DUP8 AND SWAP1 DUP4 AND OR SWAP1 SSTORE PUSH1 0xA DUP1 SLOAD SWAP3 DUP6 AND SWAP3 SWAP1 SWAP2 AND SWAP2 SWAP1 SWAP2 OR SWAP1 SSTORE PUSH1 0x40 DUP1 MLOAD PUSH1 0xC0 DUP2 ADD DUP3 MSTORE PUSH1 0x0 DUP1 DUP3 MSTORE PUSH1 0x20 DUP3 ADD DUP2 SWAP1 MSTORE PUSH32 0xC5D2460186F7233C927E7DB2DCC703C0E500B653CA82273B7BFAD8045D85A470 SWAP3 DUP3 ADD SWAP3 SWAP1 SWAP3 MSTORE PUSH1 0x60 DUP2 ADD DUP3 SWAP1 MSTORE PUSH1 0x80 DUP2 ADD DUP4 SWAP1 MSTORE PUSH1 0xA0 DUP2 ADD SWAP2 SWAP1 SWAP2 MSTORE SWAP5 SWAP10 POP SWAP3 SWAP8 POP SWAP1 SWAP6 POP SWAP4 POP SWAP2 POP PUSH2 0xC3C DUP2 PUSH2 0x1DE4 JUMP JUMPDEST PUSH1 0x0 DUP1 MSTORE PUSH1 0xE PUSH1 0x20 MSTORE PUSH32 0xE710864318D4A32F37D6CE54CB3FADBEF648DD12D8DBDF53973564D56B7F881C SSTORE PUSH3 0x24EA00 PUSH1 0x2 DUP2 SWAP1 SSTORE PUSH1 0x40 MLOAD PUSH32 0xF2B18F8ABBD8A0D0C1FB8245146EEDF5304887B12F6395B548CA238E054A1483 SWAP2 PUSH2 0xC9E SWAP2 PUSH2 0x483F JUMP JUMPDEST PUSH1 0x40 MLOAD DUP1 SWAP2 SUB SWAP1 LOG1 POP POP POP POP POP POP POP POP JUMP JUMPDEST PUSH1 0x3 DUP2 JUMP JUMPDEST PUSH1 0x1 PUSH1 0x1 PUSH1 0x68 SHL SUB DUP2 JUMP JUMPDEST PUSH1 0x0 DUP1 PUSH1 0x1 PUSH1 0x1 PUSH1 0xA0 SHL SUB DUP4 AND ISZERO PUSH2 0xD55 JUMPI PUSH1 0x9 SLOAD PUSH1 0x40 MLOAD PUSH4 0x9BD77609 PUSH1 0xE0 SHL DUP2 MSTORE PUSH1 0x1 PUSH1 0x1 PUSH1 0xA0 SHL SUB SWAP1 SWAP2 AND SWAP1 PUSH4 0x9BD77609 SWAP1 PUSH2 0xD02 SWAP1 DUP7 SWAP1 PUSH1 0x4 ADD PUSH2 0x473C JUMP JUMPDEST PUSH1 0x20 PUSH1 0x40 MLOAD DUP1 DUP4 SUB DUP2 DUP7 DUP1 EXTCODESIZE ISZERO DUP1 ISZERO PUSH2 0xD1A JUMPI PUSH1 0x0 DUP1 REVERT JUMPDEST POP GAS STATICCALL ISZERO DUP1 ISZERO PUSH2 0xD2E JUMPI RETURNDATASIZE PUSH1 0x0 DUP1 RETURNDATACOPY RETURNDATASIZE PUSH1 0x0 REVERT JUMPDEST POP POP POP POP PUSH1 0x40 MLOAD RETURNDATASIZE PUSH1 0x1F NOT PUSH1 0x1F DUP3 ADD AND DUP3 ADD DUP1 PUSH1 0x40 MSTORE POP DUP2 ADD SWAP1 PUSH2 0xD52 SWAP2 SWAP1 PUSH2 0x44D8 JUMP JUMPDEST SWAP1 POP JUMPDEST PUSH1 0xB PUSH1 0x0 PUSH2 0xD63 DUP7 DUP5 PUSH2 0x1E14 JUMP JUMPDEST PUSH1 0x1 PUSH1 0x1 PUSH1 0x50 SHL SUB NOT AND DUP2 MSTORE PUSH1 0x20 DUP2 ADD SWAP2 SWAP1 SWAP2 MSTORE PUSH1 0x40 ADD PUSH1 0x0 KECCAK256 SLOAD PUSH1 0x1 PUSH1 0x1 PUSH1 0x80 SHL SUB AND SWAP5 SWAP4 POP POP POP POP JUMP JUMPDEST PUSH1 0xD SLOAD PUSH1 0x1 PUSH1 0x1 PUSH1 0x40 SHL SUB AND DUP2 JUMP JUMPDEST PUSH1 0x0 DUP1 MLOAD PUSH1 0x20 PUSH2 0x4DCD DUP4 CODECOPY DUP2 MLOAD SWAP2 MSTORE SLOAD PUSH1 0x1 DUP2 EQ PUSH2 0xDBB JUMPI PUSH1 0x0 DUP1 REVERT JUMPDEST PUSH1 0x2 PUSH1 0x0 DUP1 MLOAD PUSH1 0x20 PUSH2 0x4DCD DUP4 CODECOPY DUP2 MLOAD SWAP2 MSTORE SSTORE PUSH1 0x0 PUSH2 0xDDD CALLER ADDRESS DUP8 DUP10 DUP9 DUP9 PUSH2 0x1E31 JUMP JUMPDEST SWAP1 POP DUP1 PUSH2 0xDFC JUMPI PUSH1 0x40 MLOAD PUSH3 0x461BCD PUSH1 0xE5 SHL DUP2 MSTORE PUSH1 0x4 ADD PUSH2 0x68F SWAP1 PUSH2 0x4B22 JUMP JUMPDEST PUSH1 0x40 DUP1 MLOAD PUSH1 0xC0 DUP2 ADD SWAP1 SWAP2 MSTORE PUSH1 0x0 SWAP1 DUP1 PUSH1 0x3 PUSH1 0xFF AND DUP2 MSTORE PUSH1 0x20 ADD DUP10 DUP2 MSTORE PUSH1 0x20 ADD DUP9 PUSH1 0x1 PUSH1 0x1 PUSH1 0xA0 SHL SUB AND DUP2 MSTORE PUSH1 0x20 ADD DUP8 PUSH1 0x1 DUP2 GT ISZERO PUSH2 0xE36 JUMPI INVALID JUMPDEST PUSH1 0xFF AND DUP2 MSTORE PUSH1 0x20 ADD DUP7 DUP2 MSTORE PUSH1 0x20 ADD DUP6 PUSH4 0xFFFFFFFF AND DUP2 MSTORE POP SWAP1 POP PUSH1 0x0 PUSH2 0xE5B DUP3 PUSH2 0x20A1 JUMP JUMPDEST SWAP1 POP PUSH2 0xE68 PUSH1 0x4 DUP3 PUSH2 0x20EC JUMP JUMPDEST PUSH32 0xE3E733A7166BD1D00BF0B2DE13986638D450CF81E56507E3E3365C9DF77065C0 DUP10 DUP10 DUP10 PUSH1 0x1 DUP2 GT ISZERO PUSH2 0xE97 JUMPI INVALID JUMPDEST DUP10 DUP10 PUSH1 0x40 MLOAD PUSH2 0xEAA SWAP6 SWAP5 SWAP4 SWAP3 SWAP2 SWAP1 PUSH2 0x488F JUMP JUMPDEST PUSH1 0x40 MLOAD DUP1 SWAP2 SUB SWAP1 LOG1 POP POP POP PUSH1 0x1 PUSH1 0x0 DUP1 MLOAD PUSH1 0x20 PUSH2 0x4DCD DUP4 CODECOPY DUP2 MLOAD SWAP2 MSTORE SSTORE POP POP POP POP POP POP JUMP JUMPDEST PUSH1 0x0 DUP1 SLOAD PUSH1 0xFF NOT AND PUSH1 0x1 SWAP1 DUP2 OR SWAP1 SWAP2 SSTORE TIMESTAMP SWAP1 SSTORE PUSH1 0x2 SLOAD PUSH1 0x3 SLOAD PUSH2 0xEF1 SWAP2 PUSH2 0x2254 JUMP JUMPDEST TIMESTAMP LT ISZERO PUSH2 0xB4D JUMPI PUSH1 0x0 DUP1 REVERT JUMPDEST PUSH1 0x1 PUSH1 0x1 PUSH1 0xA0 SHL SUB DUP2 JUMP JUMPDEST PUSH2 0xB4D PUSH2 0x2293 JUMP JUMPDEST PUSH1 0xF SLOAD PUSH1 0xFF AND ISZERO SWAP1 JUMP JUMPDEST DUP1 MLOAD PUSH1 0x20 SWAP1 SWAP2 ADD KECCAK256 SWAP1 JUMP JUMPDEST PUSH1 0x0 CALLER ADDRESS EQ PUSH2 0xF46 JUMPI PUSH1 0x40 MLOAD PUSH3 0x461BCD PUSH1 0xE5 SHL DUP2 MSTORE PUSH1 0x4 ADD PUSH2 0x68F SWAP1 PUSH2 0x4B86 JUMP JUMPDEST PUSH1 0x40 MLOAD PUSH4 0x70A08231 PUSH1 0xE0 SHL DUP2 MSTORE PUSH1 0x0 SWAP1 PUSH1 0x1 PUSH1 0x1 PUSH1 0xA0 SHL SUB DUP8 AND SWAP1 PUSH4 0x70A08231 SWAP1 PUSH2 0xF75 SWAP1 ADDRESS SWAP1 PUSH1 0x4 ADD PUSH2 0x473C JUMP JUMPDEST PUSH1 0x20 PUSH1 0x40 MLOAD DUP1 DUP4 SUB DUP2 DUP7 DUP1 EXTCODESIZE ISZERO DUP1 ISZERO PUSH2 0xF8D JUMPI PUSH1 0x0 DUP1 REVERT JUMPDEST POP GAS STATICCALL ISZERO DUP1 ISZERO PUSH2 0xFA1 JUMPI RETURNDATASIZE PUSH1 0x0 DUP1 RETURNDATACOPY RETURNDATASIZE PUSH1 0x0 REVERT JUMPDEST POP POP POP POP PUSH1 0x40 MLOAD RETURNDATASIZE PUSH1 0x1F NOT PUSH1 0x1F DUP3 ADD AND DUP3 ADD DUP1 PUSH1 0x40 MSTORE POP DUP2 ADD SWAP1 PUSH2 0xFC5 SWAP2 SWAP1 PUSH2 0x428A JUMP JUMPDEST SWAP1 POP PUSH2 0xFDB DUP7 DUP7 DUP7 PUSH1 0x1 PUSH1 0x1 PUSH1 0x80 SHL SUB AND PUSH2 0x2316 JUMP JUMPDEST PUSH2 0xFF7 JUMPI PUSH1 0x40 MLOAD PUSH3 0x461BCD PUSH1 0xE5 SHL DUP2 MSTORE PUSH1 0x4 ADD PUSH2 0x68F SWAP1 PUSH2 0x4BFE JUMP JUMPDEST PUSH1 0x40 MLOAD PUSH4 0x70A08231 PUSH1 0xE0 SHL DUP2 MSTORE PUSH1 0x0 SWAP1 PUSH1 0x1 PUSH1 0x1 PUSH1 0xA0 SHL SUB DUP9 AND SWAP1 PUSH4 0x70A08231 SWAP1 PUSH2 0x1026 SWAP1 ADDRESS SWAP1 PUSH1 0x4 ADD PUSH2 0x473C JUMP JUMPDEST PUSH1 0x20 PUSH1 0x40 MLOAD DUP1 DUP4 SUB DUP2 DUP7 DUP1 EXTCODESIZE ISZERO DUP1 ISZERO PUSH2 0x103E JUMPI PUSH1 0x0 DUP1 REVERT JUMPDEST POP GAS STATICCALL ISZERO DUP1 ISZERO PUSH2 0x1052 JUMPI RETURNDATASIZE PUSH1 0x0 DUP1 RETURNDATACOPY RETURNDATASIZE PUSH1 0x0 REVERT JUMPDEST POP POP POP POP PUSH1 0x40 MLOAD RETURNDATASIZE PUSH1 0x1F NOT PUSH1 0x1F DUP3 ADD AND DUP3 ADD DUP1 PUSH1 0x40 MSTORE POP DUP2 ADD SWAP1 PUSH2 0x1076 SWAP2 SWAP1 PUSH2 0x428A JUMP JUMPDEST SWAP1 POP PUSH1 0x0 PUSH2 0x1084 DUP4 DUP4 PUSH2 0x1C7C JUMP JUMPDEST SWAP1 POP DUP5 PUSH1 0x1 PUSH1 0x1 PUSH1 0x80 SHL SUB AND DUP2 GT ISZERO PUSH2 0x10AF JUMPI PUSH1 0x40 MLOAD PUSH3 0x461BCD PUSH1 0xE5 SHL DUP2 MSTORE PUSH1 0x4 ADD PUSH2 0x68F SWAP1 PUSH2 0x4A29 JUMP JUMPDEST PUSH2 0x10B8 DUP2 PUSH2 0x1B0D JUMP JUMPDEST SWAP9 SWAP8 POP POP POP POP POP POP POP POP JUMP JUMPDEST PUSH1 0x6 SLOAD DUP2 JUMP JUMPDEST PUSH1 0x0 DUP1 MLOAD PUSH1 0x20 PUSH2 0x4DCD DUP4 CODECOPY DUP2 MLOAD SWAP2 MSTORE SLOAD PUSH1 0x1 DUP2 EQ PUSH2 0x10E7 JUMPI PUSH1 0x0 DUP1 REVERT JUMPDEST PUSH1 0x2 PUSH1 0x0 DUP1 MLOAD PUSH1 0x20 PUSH2 0x4DCD DUP4 CODECOPY DUP2 MLOAD SWAP2 MSTORE SSTORE PUSH2 0x1101 PUSH2 0x1D73 JUMP JUMPDEST PUSH1 0x9 SLOAD PUSH1 0x40 MLOAD PUSH4 0x4B18BD0F PUSH1 0xE0 SHL DUP2 MSTORE PUSH1 0x1 PUSH1 0x1 PUSH1 0xA0 SHL SUB SWAP1 SWAP2 AND SWAP1 PUSH4 0x4B18BD0F SWAP1 PUSH2 0x1131 SWAP1 CALLER SWAP1 PUSH1 0x4 ADD PUSH2 0x473C JUMP JUMPDEST PUSH1 0x0 PUSH1 0x40 MLOAD DUP1 DUP4 SUB DUP2 DUP7 DUP1 EXTCODESIZE ISZERO DUP1 ISZERO PUSH2 0x1149 JUMPI PUSH1 0x0 DUP1 REVERT JUMPDEST POP GAS STATICCALL ISZERO DUP1 ISZERO PUSH2 0x115D JUMPI RETURNDATASIZE PUSH1 0x0 DUP1 RETURNDATACOPY RETURNDATASIZE PUSH1 0x0 REVERT JUMPDEST POP POP POP POP PUSH2 0x116A DUP4 PUSH2 0x1DE4 JUMP JUMPDEST PUSH1 0xC SLOAD PUSH1 0x1 PUSH1 0xA0 SHL SWAP1 DIV PUSH4 0xFFFFFFFF AND PUSH1 0x0 SWAP1 DUP2 MSTORE PUSH1 0xE PUSH1 0x20 MSTORE PUSH1 0x40 SWAP1 KECCAK256 SLOAD EQ PUSH2 0x11A6 JUMPI PUSH1 0x40 MLOAD PUSH3 0x461BCD PUSH1 0xE5 SHL DUP2 MSTORE PUSH1 0x4 ADD PUSH2 0x68F SWAP1 PUSH2 0x4C34 JUMP JUMPDEST PUSH1 0x0 JUMPDEST DUP3 MLOAD DUP2 PUSH4 0xFFFFFFFF AND LT ISZERO PUSH2 0x1279 JUMPI PUSH2 0x11DB DUP5 DUP5 DUP4 PUSH4 0xFFFFFFFF AND DUP2 MLOAD DUP2 LT PUSH2 0x11CE JUMPI INVALID JUMPDEST PUSH1 0x20 MUL PUSH1 0x20 ADD ADD MLOAD PUSH2 0x243C JUMP JUMPDEST PUSH1 0x20 DUP2 ADD MLOAD PUSH1 0xD DUP1 SLOAD PUSH1 0x1 PUSH1 0x1 PUSH1 0x40 SHL SUB PUSH1 0x1 PUSH1 0x80 SHL DUP1 DUP4 DIV DUP3 AND SWAP1 SWAP5 ADD AND SWAP1 SWAP3 MUL PUSH8 0xFFFFFFFFFFFFFFFF PUSH1 0x80 SHL NOT SWAP1 SWAP3 AND SWAP2 SWAP1 SWAP2 OR SWAP1 SSTORE SWAP4 POP PUSH2 0x121E DUP5 PUSH2 0x1DE4 JUMP JUMPDEST DUP5 MLOAD PUSH4 0xFFFFFFFF AND PUSH1 0x0 SWAP1 DUP2 MSTORE PUSH1 0xE PUSH1 0x20 MSTORE PUSH1 0x40 SWAP1 DUP2 SWAP1 KECCAK256 SWAP2 SWAP1 SWAP2 SSTORE DUP5 MLOAD SWAP1 MLOAD PUSH32 0x81A92942D0F9C33B897A438384C9C3D88BE397776138EFA3BA1A4FC8B6268424 SWAP2 PUSH2 0x1269 SWAP2 PUSH2 0x4D3D JUMP JUMPDEST PUSH1 0x40 MLOAD DUP1 SWAP2 SUB SWAP1 LOG1 PUSH1 0x1 ADD PUSH2 0x11A9 JUMP JUMPDEST POP DUP2 MLOAD PUSH1 0xC DUP1 SLOAD PUSH4 0xFFFFFFFF PUSH1 0x1 PUSH1 0xA0 SHL DUP1 DUP4 DIV DUP3 AND SWAP1 SWAP5 ADD AND SWAP1 SWAP3 MUL PUSH4 0xFFFFFFFF PUSH1 0xA0 SHL NOT SWAP1 SWAP3 AND SWAP2 SWAP1 SWAP2 OR SWAP1 SSTORE PUSH1 0xD SLOAD PUSH1 0x1 PUSH1 0x1 PUSH1 0x40 SHL SUB PUSH1 0x1 PUSH1 0x40 SHL DUP3 DIV DUP2 AND PUSH1 0x1 PUSH1 0x80 SHL SWAP1 SWAP3 DIV AND GT ISZERO PUSH2 0x12E3 JUMPI PUSH1 0x40 MLOAD PUSH3 0x461BCD PUSH1 0xE5 SHL DUP2 MSTORE PUSH1 0x4 ADD PUSH2 0x68F SWAP1 PUSH2 0x4B50 JUMP JUMPDEST PUSH1 0x1 PUSH1 0x0 DUP1 MLOAD PUSH1 0x20 PUSH2 0x4DCD DUP4 CODECOPY DUP2 MLOAD SWAP2 MSTORE SSTORE POP POP POP JUMP JUMPDEST PUSH1 0x0 DUP1 MLOAD PUSH1 0x20 PUSH2 0x4DCD DUP4 CODECOPY DUP2 MLOAD SWAP2 MSTORE SLOAD PUSH1 0x1 DUP2 EQ PUSH2 0x1317 JUMPI PUSH1 0x0 DUP1 REVERT JUMPDEST PUSH1 0x2 PUSH1 0x0 DUP1 MLOAD PUSH1 0x20 PUSH2 0x4DCD DUP4 CODECOPY DUP2 MLOAD SWAP2 MSTORE SSTORE PUSH2 0x1331 PUSH2 0x1D73 JUMP JUMPDEST PUSH1 0x9 SLOAD PUSH1 0x40 MLOAD PUSH4 0x4B18BD0F PUSH1 0xE0 SHL DUP2 MSTORE PUSH1 0x1 PUSH1 0x1 PUSH1 0xA0 SHL SUB SWAP1 SWAP2 AND SWAP1 PUSH4 0x4B18BD0F SWAP1 PUSH2 0x1361 SWAP1 CALLER SWAP1 PUSH1 0x4 ADD PUSH2 0x473C JUMP JUMPDEST PUSH1 0x0 PUSH1 0x40 MLOAD DUP1 DUP4 SUB DUP2 DUP7 DUP1 EXTCODESIZE ISZERO DUP1 ISZERO PUSH2 0x1379 JUMPI PUSH1 0x0 DUP1 REVERT JUMPDEST POP GAS STATICCALL ISZERO DUP1 ISZERO PUSH2 0x138D JUMPI RETURNDATASIZE PUSH1 0x0 DUP1 RETURNDATACOPY RETURNDATASIZE PUSH1 0x0 REVERT JUMPDEST POP POP DUP5 MLOAD PUSH1 0x0 SWAP3 POP SWAP1 POP DUP2 PUSH1 0x3 DUP3 MUL PUSH1 0x1 PUSH1 0x1 PUSH1 0x40 SHL SUB DUP2 GT DUP1 ISZERO PUSH2 0x13B1 JUMPI PUSH1 0x0 DUP1 REVERT JUMPDEST POP PUSH1 0x40 MLOAD SWAP1 DUP1 DUP3 MSTORE DUP1 PUSH1 0x20 MUL PUSH1 0x20 ADD DUP3 ADD PUSH1 0x40 MSTORE DUP1 ISZERO PUSH2 0x13DB JUMPI DUP2 PUSH1 0x20 ADD PUSH1 0x20 DUP3 MUL DUP1 CALLDATASIZE DUP4 CALLDATACOPY ADD SWAP1 POP JUMPDEST POP SWAP1 POP PUSH1 0x0 JUMPDEST DUP7 MLOAD DUP2 PUSH2 0xFFFF AND LT ISZERO PUSH2 0x156A JUMPI PUSH2 0x1413 DUP8 DUP3 PUSH2 0xFFFF AND DUP2 MLOAD DUP2 LT PUSH2 0x1401 JUMPI INVALID JUMPDEST PUSH1 0x20 MUL PUSH1 0x20 ADD ADD MLOAD DUP3 PUSH2 0xFFFF AND PUSH2 0x250C JUMP JUMPDEST DUP7 DUP2 PUSH2 0xFFFF AND DUP2 MLOAD DUP2 LT PUSH2 0x1423 JUMPI INVALID JUMPDEST PUSH1 0x20 MUL PUSH1 0x20 ADD ADD MLOAD PUSH1 0x0 ADD MLOAD PUSH1 0x20 ADD MLOAD DUP5 ADD SWAP4 POP PUSH1 0x6 SLOAD PUSH1 0x0 SHR DUP3 DUP3 PUSH1 0x3 MUL PUSH2 0xFFFF AND DUP2 MLOAD DUP2 LT PUSH2 0x1450 JUMPI INVALID JUMPDEST PUSH1 0x20 MUL PUSH1 0x20 ADD ADD DUP2 DUP2 MSTORE POP POP DUP7 DUP2 PUSH2 0xFFFF AND DUP2 MLOAD DUP2 LT PUSH2 0x146C JUMPI INVALID JUMPDEST PUSH1 0x20 MUL PUSH1 0x20 ADD ADD MLOAD PUSH1 0x0 ADD MLOAD PUSH1 0x80 ADD MLOAD PUSH1 0x0 SHR DUP3 DUP3 PUSH1 0x3 MUL PUSH1 0x1 ADD PUSH2 0xFFFF AND DUP2 MLOAD DUP2 LT PUSH2 0x1495 JUMPI INVALID JUMPDEST PUSH1 0x20 MUL PUSH1 0x20 ADD ADD DUP2 DUP2 MSTORE POP POP DUP7 DUP2 PUSH2 0xFFFF AND DUP2 MLOAD DUP2 LT PUSH2 0x14B1 JUMPI INVALID JUMPDEST PUSH1 0x20 MUL PUSH1 0x20 ADD ADD MLOAD PUSH1 0x0 ADD MLOAD PUSH1 0xA0 ADD MLOAD PUSH1 0x0 SHR DUP3 DUP3 PUSH1 0x3 MUL PUSH1 0x2 ADD PUSH2 0xFFFF AND DUP2 MLOAD DUP2 LT PUSH2 0x14DA JUMPI INVALID JUMPDEST PUSH1 0x20 MUL PUSH1 0x20 ADD ADD DUP2 DUP2 MSTORE POP POP DUP7 DUP2 PUSH2 0xFFFF AND DUP2 MLOAD DUP2 LT PUSH2 0x14F6 JUMPI INVALID JUMPDEST PUSH1 0x20 MUL PUSH1 0x20 ADD ADD MLOAD PUSH1 0x0 ADD MLOAD PUSH1 0x80 ADD MLOAD PUSH1 0x6 DUP2 SWAP1 SSTORE POP PUSH32 0xCDBD8BD7813095001C5FE7917BD69D834DC01DB7C1DFCF52CA135BD20384413 DUP8 DUP3 PUSH2 0xFFFF AND DUP2 MLOAD DUP2 LT PUSH2 0x153D JUMPI INVALID JUMPDEST PUSH1 0x20 MUL PUSH1 0x20 ADD ADD MLOAD PUSH1 0x0 ADD MLOAD PUSH1 0x0 ADD MLOAD PUSH1 0x40 MLOAD PUSH2 0x155A SWAP2 SWAP1 PUSH2 0x4D3D JUMP JUMPDEST PUSH1 0x40 MLOAD DUP1 SWAP2 SUB SWAP1 LOG1 PUSH1 0x1 ADD PUSH2 0x13E1 JUMP JUMPDEST POP PUSH1 0x8 SLOAD DUP7 MLOAD PUSH1 0x40 MLOAD PUSH4 0xC50E8263 PUSH1 0xE0 SHL DUP2 MSTORE PUSH1 0x0 SWAP3 PUSH1 0x1 PUSH1 0x1 PUSH1 0xA0 SHL SUB AND SWAP2 PUSH4 0xC50E8263 SWAP2 PUSH2 0x15A1 SWAP2 DUP11 SWAP2 DUP8 SWAP2 SWAP1 PUSH1 0x4 ADD PUSH2 0x47FE JUMP JUMPDEST PUSH1 0x20 PUSH1 0x40 MLOAD DUP1 DUP4 SUB DUP2 DUP7 DUP1 EXTCODESIZE ISZERO DUP1 ISZERO PUSH2 0x15B9 JUMPI PUSH1 0x0 DUP1 REVERT JUMPDEST POP GAS STATICCALL ISZERO DUP1 ISZERO PUSH2 0x15CD JUMPI RETURNDATASIZE PUSH1 0x0 DUP1 RETURNDATACOPY RETURNDATASIZE PUSH1 0x0 REVERT JUMPDEST POP POP POP POP PUSH1 0x40 MLOAD RETURNDATASIZE PUSH1 0x1F NOT PUSH1 0x1F DUP3 ADD AND DUP3 ADD DUP1 PUSH1 0x40 MSTORE POP DUP2 ADD SWAP1 PUSH2 0x15F1 SWAP2 SWAP1 PUSH2 0x4252 JUMP JUMPDEST SWAP1 POP DUP1 PUSH2 0x1610 JUMPI PUSH1 0x40 MLOAD PUSH3 0x461BCD PUSH1 0xE5 SHL DUP2 MSTORE PUSH1 0x4 ADD PUSH2 0x68F SWAP1 PUSH2 0x4BA1 JUMP JUMPDEST PUSH1 0xD DUP1 SLOAD PUSH8 0xFFFFFFFFFFFFFFFF PUSH1 0x40 SHL NOT PUSH8 0xFFFFFFFFFFFFFFFF PUSH1 0x80 SHL NOT PUSH8 0xFFFFFFFFFFFFFFFF NOT DUP4 AND PUSH1 0x1 PUSH1 0x1 PUSH1 0x40 SHL SUB SWAP4 DUP5 AND DUP10 ADD DUP5 AND OR SWAP1 DUP2 AND PUSH1 0x1 PUSH1 0x80 SHL SWAP2 DUP3 SWAP1 DIV DUP5 AND DUP10 SWAP1 SUB DUP5 AND SWAP1 SWAP2 MUL OR SWAP1 DUP2 AND PUSH1 0x1 PUSH1 0x40 SHL SWAP2 DUP3 SWAP1 DIV DUP4 AND DUP9 SWAP1 SUB SWAP1 SWAP3 AND MUL OR SWAP1 SSTORE PUSH1 0xC DUP1 SLOAD PUSH4 0xFFFFFFFF PUSH1 0xC0 SHL NOT DUP2 AND PUSH1 0x1 PUSH1 0xC0 SHL SWAP2 DUP3 SWAP1 DIV PUSH4 0xFFFFFFFF SWAP1 DUP2 AND DUP8 ADD DUP2 AND DUP4 MUL SWAP2 SWAP1 SWAP2 OR SWAP3 DUP4 SWAP1 SSTORE PUSH1 0x1 PUSH1 0xA0 SHL DUP4 DIV DUP2 AND SWAP2 SWAP1 SWAP3 DIV SWAP1 SWAP2 AND GT ISZERO PUSH2 0x16D5 JUMPI PUSH1 0x40 MLOAD PUSH3 0x461BCD PUSH1 0xE5 SHL DUP2 MSTORE PUSH1 0x4 ADD PUSH2 0x68F SWAP1 PUSH2 0x4A0E JUMP JUMPDEST POP POP POP POP PUSH1 0x1 PUSH1 0x0 DUP1 MLOAD PUSH1 0x20 PUSH2 0x4DCD DUP4 CODECOPY DUP2 MLOAD SWAP2 MSTORE SSTORE POP POP POP JUMP JUMPDEST PUSH1 0xD SLOAD PUSH1 0x1 PUSH1 0x40 SHL SWAP1 DIV PUSH1 0x1 PUSH1 0x1 PUSH1 0x40 SHL SUB AND DUP2 JUMP JUMPDEST PUSH3 0x186A0 DUP2 JUMP JUMPDEST PUSH3 0x24EA00 DUP2 JUMP JUMPDEST PUSH1 0x0 DUP1 MLOAD PUSH1 0x20 PUSH2 0x4DCD DUP4 CODECOPY DUP2 MLOAD SWAP2 MSTORE SLOAD PUSH1 0x1 DUP2 EQ PUSH2 0x1731 JUMPI PUSH1 0x0 DUP1 REVERT JUMPDEST PUSH1 0x2 PUSH1 0x0 DUP1 MLOAD PUSH1 0x20 PUSH2 0x4DCD DUP4 CODECOPY DUP2 MLOAD SWAP2 MSTORE SSTORE PUSH1 0x1 PUSH1 0x1 PUSH1 0xA0 SHL SUB DUP4 AND PUSH2 0x17E8 JUMPI PUSH2 0x175D PUSH1 0x0 DUP4 DUP7 PUSH2 0x27CA JUMP JUMPDEST PUSH1 0x0 DUP5 PUSH1 0x1 PUSH1 0x1 PUSH1 0xA0 SHL SUB AND DUP4 PUSH1 0x1 PUSH1 0x1 PUSH1 0x80 SHL SUB AND PUSH1 0x40 MLOAD PUSH2 0x177F SWAP1 PUSH2 0xAB7 JUMP JUMPDEST PUSH1 0x0 PUSH1 0x40 MLOAD DUP1 DUP4 SUB DUP2 DUP6 DUP8 GAS CALL SWAP3 POP POP POP RETURNDATASIZE DUP1 PUSH1 0x0 DUP2 EQ PUSH2 0x17BC JUMPI PUSH1 0x40 MLOAD SWAP2 POP PUSH1 0x1F NOT PUSH1 0x3F RETURNDATASIZE ADD AND DUP3 ADD PUSH1 0x40 MSTORE RETURNDATASIZE DUP3 MSTORE RETURNDATASIZE PUSH1 0x0 PUSH1 0x20 DUP5 ADD RETURNDATACOPY PUSH2 0x17C1 JUMP JUMPDEST PUSH1 0x60 SWAP2 POP JUMPDEST POP POP SWAP1 POP DUP1 PUSH2 0x17E2 JUMPI PUSH1 0x40 MLOAD PUSH3 0x461BCD PUSH1 0xE5 SHL DUP2 MSTORE PUSH1 0x4 ADD PUSH2 0x68F SWAP1 PUSH2 0x4C4F JUMP JUMPDEST POP PUSH2 0x1926 JUMP JUMPDEST PUSH1 0x9 SLOAD PUSH1 0x40 MLOAD PUSH4 0x9BD77609 PUSH1 0xE0 SHL DUP2 MSTORE PUSH1 0x0 SWAP2 PUSH1 0x1 PUSH1 0x1 PUSH1 0xA0 SHL SUB AND SWAP1 PUSH4 0x9BD77609 SWAP1 PUSH2 0x1819 SWAP1 DUP8 SWAP1 PUSH1 0x4 ADD PUSH2 0x473C JUMP JUMPDEST PUSH1 0x20 PUSH1 0x40 MLOAD DUP1 DUP4 SUB DUP2 DUP7 DUP1 EXTCODESIZE ISZERO DUP1 ISZERO PUSH2 0x1831 JUMPI PUSH1 0x0 DUP1 REVERT JUMPDEST POP GAS STATICCALL ISZERO DUP1 ISZERO PUSH2 0x1845 JUMPI RETURNDATASIZE PUSH1 0x0 DUP1 RETURNDATACOPY RETURNDATASIZE PUSH1 0x0 REVERT JUMPDEST POP POP POP POP PUSH1 0x40 MLOAD RETURNDATASIZE PUSH1 0x1F NOT PUSH1 0x1F DUP3 ADD AND DUP3 ADD DUP1 PUSH1 0x40 MSTORE POP DUP2 ADD SWAP1 PUSH2 0x1869 SWAP2 SWAP1 PUSH2 0x44D8 JUMP JUMPDEST SWAP1 POP PUSH1 0x0 PUSH2 0x1877 DUP7 DUP4 PUSH2 0x1E14 JUMP JUMPDEST PUSH1 0x1 PUSH1 0x1 PUSH1 0x50 SHL SUB NOT DUP2 AND PUSH1 0x0 SWAP1 DUP2 MSTORE PUSH1 0xB PUSH1 0x20 MSTORE PUSH1 0x40 DUP1 DUP3 KECCAK256 SLOAD SWAP1 MLOAD PUSH4 0x4770D3A7 PUSH1 0xE1 SHL DUP2 MSTORE SWAP3 SWAP4 POP PUSH1 0x1 PUSH1 0x1 PUSH1 0x80 SHL SUB AND SWAP2 ADDRESS SWAP1 PUSH4 0x8EE1A74E SWAP1 PUSH2 0x18C7 SWAP1 DUP11 SWAP1 DUP13 SWAP1 DUP12 SWAP1 DUP9 SWAP1 PUSH1 0x4 ADD PUSH2 0x48F2 JUMP JUMPDEST PUSH1 0x20 PUSH1 0x40 MLOAD DUP1 DUP4 SUB DUP2 PUSH1 0x0 DUP8 DUP1 EXTCODESIZE ISZERO DUP1 ISZERO PUSH2 0x18E1 JUMPI PUSH1 0x0 DUP1 REVERT JUMPDEST POP GAS CALL ISZERO DUP1 ISZERO PUSH2 0x18F5 JUMPI RETURNDATASIZE PUSH1 0x0 DUP1 RETURNDATACOPY RETURNDATASIZE PUSH1 0x0 REVERT JUMPDEST POP POP POP POP PUSH1 0x40 MLOAD RETURNDATASIZE PUSH1 0x1F NOT PUSH1 0x1F DUP3 ADD AND DUP3 ADD DUP1 PUSH1 0x40 MSTORE POP DUP2 ADD SWAP1 PUSH2 0x1919 SWAP2 SWAP1 PUSH2 0x44BC JUMP JUMPDEST SWAP1 POP PUSH2 0x94C DUP5 DUP3 DUP11 PUSH2 0x27CA JUMP JUMPDEST PUSH1 0x1 PUSH1 0x0 DUP1 MLOAD PUSH1 0x20 PUSH2 0x4DCD DUP4 CODECOPY DUP2 MLOAD SWAP2 MSTORE SSTORE POP POP POP POP JUMP JUMPDEST PUSH1 0x0 DUP1 MLOAD PUSH1 0x20 PUSH2 0x4DCD DUP4 CODECOPY DUP2 MLOAD SWAP2 MSTORE SLOAD PUSH1 0x1 DUP2 EQ PUSH2 0x195B JUMPI PUSH1 0x0 DUP1 REVERT JUMPDEST PUSH1 0x2 PUSH1 0x0 DUP1 MLOAD PUSH1 0x20 PUSH2 0x4DCD DUP4 CODECOPY DUP2 MLOAD SWAP2 MSTORE SSTORE PUSH1 0xA SLOAD PUSH1 0x40 MLOAD PUSH4 0xD7757DA1 PUSH1 0xE0 SHL DUP2 MSTORE PUSH1 0x1 PUSH1 0x1 PUSH1 0xA0 SHL SUB SWAP1 SWAP2 AND SWAP1 PUSH4 0xD7757DA1 SWAP1 PUSH2 0x19A3 SWAP1 DUP9 SWAP1 DUP9 SWAP1 DUP9 SWAP1 DUP9 SWAP1 PUSH1 0x4 ADD PUSH2 0x493A JUMP JUMPDEST PUSH1 0x0 PUSH1 0x40 MLOAD DUP1 DUP4 SUB DUP2 PUSH1 0x0 DUP8 DUP1 EXTCODESIZE ISZERO DUP1 ISZERO PUSH2 0x19BD JUMPI PUSH1 0x0 DUP1 REVERT JUMPDEST POP GAS CALL ISZERO DUP1 ISZERO PUSH2 0x19D1 JUMPI RETURNDATASIZE PUSH1 0x0 DUP1 RETURNDATACOPY RETURNDATASIZE PUSH1 0x0 REVERT JUMPDEST POP POP POP POP PUSH1 0x0 PUSH1 0x40 MLOAD DUP1 PUSH1 0x60 ADD PUSH1 0x40 MSTORE DUP1 PUSH1 0x1 PUSH1 0xF DUP2 GT ISZERO PUSH2 0x19EF JUMPI INVALID JUMPDEST PUSH1 0xFF AND DUP2 MSTORE PUSH1 0x20 ADD PUSH20 0x0 PUSH4 0xCFB51928 DUP10 DUP10 PUSH1 0x40 MLOAD DUP4 PUSH4 0xFFFFFFFF AND PUSH1 0xE0 SHL DUP2 MSTORE PUSH1 0x4 ADD PUSH2 0x1A30 SWAP3 SWAP2 SWAP1 PUSH2 0x4926 JUMP JUMPDEST PUSH1 0x20 PUSH1 0x40 MLOAD DUP1 DUP4 SUB DUP2 DUP7 DUP1 EXTCODESIZE ISZERO DUP1 ISZERO PUSH2 0x1A48 JUMPI PUSH1 0x0 DUP1 REVERT JUMPDEST POP GAS DELEGATECALL ISZERO DUP1 ISZERO PUSH2 0x1A5C JUMPI RETURNDATASIZE PUSH1 0x0 DUP1 RETURNDATACOPY RETURNDATASIZE PUSH1 0x0 REVERT JUMPDEST POP POP POP POP PUSH1 0x40 MLOAD RETURNDATASIZE PUSH1 0x1F NOT PUSH1 0x1F DUP3 ADD AND DUP3 ADD DUP1 PUSH1 0x40 MSTORE POP DUP2 ADD SWAP1 PUSH2 0x1A80 SWAP2 SWAP1 PUSH2 0x428A JUMP JUMPDEST DUP2 MSTORE PUSH1 0x20 ADD DUP5 SWAP1 MSTORE SWAP1 POP PUSH1 0x0 PUSH2 0x1A95 DUP3 PUSH2 0x2870 JUMP JUMPDEST SWAP1 POP PUSH2 0x1AA2 PUSH1 0x1 DUP3 PUSH2 0x20EC JUMP JUMPDEST PUSH32 0xC1576C10FB2080868C7B255F20167C9D06B6069F0B5B93C8CD591280BBE3DD90 DUP8 DUP8 DUP8 DUP8 PUSH1 0x40 MLOAD PUSH2 0x1AD7 SWAP5 SWAP4 SWAP3 SWAP2 SWAP1 PUSH2 0x493A JUMP JUMPDEST PUSH1 0x40 MLOAD DUP1 SWAP2 SUB SWAP1 LOG1 POP POP PUSH1 0x1 PUSH1 0x0 DUP1 MLOAD PUSH1 0x20 PUSH2 0x4DCD DUP4 CODECOPY DUP2 MLOAD SWAP2 MSTORE SSTORE POP POP POP POP POP JUMP JUMPDEST PUSH1 0xC SLOAD PUSH1 0x1 PUSH1 0xA0 SHL SWAP1 DIV PUSH4 0xFFFFFFFF AND DUP2 JUMP JUMPDEST PUSH1 0x0 PUSH1 0x1 PUSH1 0x80 SHL DUP3 LT PUSH2 0x1B4C JUMPI PUSH1 0x40 DUP1 MLOAD PUSH3 0x461BCD PUSH1 0xE5 SHL DUP2 MSTORE PUSH1 0x20 PUSH1 0x4 DUP3 ADD MSTORE PUSH1 0x2 PUSH1 0x24 DUP3 ADD MSTORE PUSH2 0x189B PUSH1 0xF1 SHL PUSH1 0x44 DUP3 ADD MSTORE SWAP1 MLOAD SWAP1 DUP2 SWAP1 SUB PUSH1 0x64 ADD SWAP1 REVERT JUMPDEST POP SWAP1 JUMP JUMPDEST PUSH1 0x40 DUP1 MLOAD PUSH1 0x1 PUSH1 0x1 PUSH1 0xA0 SHL SUB DUP6 DUP2 AND PUSH1 0x24 DUP4 ADD MSTORE DUP5 DUP2 AND PUSH1 0x44 DUP4 ADD MSTORE PUSH1 0x64 DUP1 DUP4 ADD DUP6 SWAP1 MSTORE DUP4 MLOAD DUP1 DUP5 SUB SWAP1 SWAP2 ADD DUP2 MSTORE PUSH1 0x84 SWAP1 SWAP3 ADD DUP4 MSTORE PUSH1 0x20 DUP3 ADD DUP1 MLOAD PUSH1 0x1 PUSH1 0x1 PUSH1 0xE0 SHL SUB AND PUSH4 0x23B872DD PUSH1 0xE0 SHL OR DUP2 MSTORE SWAP3 MLOAD DUP3 MLOAD PUSH1 0x0 SWAP5 DUP6 SWAP5 DUP6 SWAP5 DUP12 AND SWAP4 SWAP1 SWAP3 SWAP1 SWAP2 DUP3 SWAP2 DUP1 DUP4 DUP4 JUMPDEST PUSH1 0x20 DUP4 LT PUSH2 0x1BD6 JUMPI DUP1 MLOAD DUP3 MSTORE PUSH1 0x1F NOT SWAP1 SWAP3 ADD SWAP2 PUSH1 0x20 SWAP2 DUP3 ADD SWAP2 ADD PUSH2 0x1BB7 JUMP JUMPDEST PUSH1 0x1 DUP4 PUSH1 0x20 SUB PUSH2 0x100 EXP SUB DUP1 NOT DUP3 MLOAD AND DUP2 DUP5 MLOAD AND DUP1 DUP3 OR DUP6 MSTORE POP POP POP POP POP POP SWAP1 POP ADD SWAP2 POP POP PUSH1 0x0 PUSH1 0x40 MLOAD DUP1 DUP4 SUB DUP2 PUSH1 0x0 DUP7 GAS CALL SWAP2 POP POP RETURNDATASIZE DUP1 PUSH1 0x0 DUP2 EQ PUSH2 0x1C38 JUMPI PUSH1 0x40 MLOAD SWAP2 POP PUSH1 0x1F NOT PUSH1 0x3F RETURNDATASIZE ADD AND DUP3 ADD PUSH1 0x40 MSTORE RETURNDATASIZE DUP3 MSTORE RETURNDATASIZE PUSH1 0x0 PUSH1 0x20 DUP5 ADD RETURNDATACOPY PUSH2 0x1C3D JUMP JUMPDEST PUSH1 0x60 SWAP2 POP JUMPDEST POP SWAP2 POP SWAP2 POP PUSH1 0x0 DUP2 MLOAD PUSH1 0x0 EQ DUP1 PUSH2 0x1C67 JUMPI POP DUP2 DUP1 PUSH1 0x20 ADD SWAP1 MLOAD PUSH1 0x20 DUP2 LT ISZERO PUSH2 0x1C64 JUMPI PUSH1 0x0 DUP1 REVERT JUMPDEST POP MLOAD JUMPDEST SWAP1 POP DUP3 DUP1 ISZERO PUSH2 0x10B8 JUMPI POP SWAP8 SWAP7 POP POP POP POP POP POP POP JUMP JUMPDEST PUSH1 0x0 PUSH2 0x1CA2 DUP4 DUP4 PUSH1 0x40 MLOAD DUP1 PUSH1 0x40 ADD PUSH1 0x40 MSTORE DUP1 PUSH1 0x1 DUP2 MSTORE PUSH1 0x20 ADD PUSH1 0x3B PUSH1 0xF9 SHL DUP2 MSTORE POP PUSH2 0x2893 JUMP JUMPDEST SWAP4 SWAP3 POP POP POP JUMP JUMPDEST PUSH1 0x40 DUP1 MLOAD PUSH1 0xA0 DUP2 ADD DUP3 MSTORE PUSH1 0x2 DUP2 MSTORE PUSH1 0x0 PUSH1 0x20 DUP3 ADD DUP2 SWAP1 MSTORE SWAP2 DUP2 ADD DUP4 SWAP1 MSTORE PUSH2 0xFFFF DUP6 AND PUSH1 0x60 DUP3 ADD MSTORE PUSH1 0x1 PUSH1 0x1 PUSH1 0x80 SHL SUB DUP5 AND PUSH1 0x80 DUP3 ADD MSTORE SWAP1 PUSH2 0x1CE9 DUP3 PUSH2 0x292A JUMP JUMPDEST SWAP1 POP PUSH2 0x1CF6 PUSH1 0x2 DUP3 PUSH2 0x20EC JUMP JUMPDEST PUSH32 0xAA46D46658F805449AC7EAAF11D3EAEBB6F508930128D276DFEFCC8DC02A13C7 DUP6 DUP5 DUP7 PUSH1 0x40 MLOAD PUSH2 0x1D29 SWAP4 SWAP3 SWAP2 SWAP1 PUSH2 0x4CFB JUMP JUMPDEST PUSH1 0x40 MLOAD DUP1 SWAP2 SUB SWAP1 LOG1 POP POP POP POP POP JUMP JUMPDEST PUSH1 0xC SLOAD PUSH1 0x40 MLOAD PUSH1 0x1 PUSH1 0x1 PUSH1 0xA0 SHL SUB SWAP1 SWAP2 AND SWAP1 CALLDATASIZE PUSH1 0x0 DUP3 CALLDATACOPY PUSH1 0x0 DUP1 CALLDATASIZE DUP4 DUP6 GAS DELEGATECALL RETURNDATASIZE DUP1 PUSH1 0x0 DUP5 RETURNDATACOPY DUP2 DUP1 ISZERO PUSH2 0x1D68 JUMPI DUP2 DUP5 RETURN JUMPDEST DUP2 DUP5 REVERT JUMPDEST POP POP POP POP POP JUMP JUMPDEST PUSH1 0xF SLOAD PUSH1 0xFF AND ISZERO PUSH2 0xB4D JUMPI PUSH1 0x40 MLOAD PUSH3 0x461BCD PUSH1 0xE5 SHL DUP2 MSTORE PUSH1 0x4 ADD PUSH2 0x68F SWAP1 PUSH2 0x4A99 JUMP JUMPDEST PUSH1 0x0 DUP1 MLOAD PUSH1 0x20 PUSH2 0x4DCD DUP4 CODECOPY DUP2 MLOAD SWAP2 MSTORE DUP1 SLOAD PUSH1 0x1 SWAP1 SWAP2 SSTORE DUP1 ISZERO PUSH2 0x9FF JUMPI PUSH1 0x40 DUP1 MLOAD PUSH3 0x461BCD PUSH1 0xE5 SHL DUP2 MSTORE PUSH1 0x20 PUSH1 0x4 DUP3 ADD MSTORE PUSH1 0x2 PUSH1 0x24 DUP3 ADD MSTORE PUSH2 0x18A1 PUSH1 0xF1 SHL PUSH1 0x44 DUP3 ADD MSTORE SWAP1 MLOAD SWAP1 DUP2 SWAP1 SUB PUSH1 0x64 ADD SWAP1 REVERT JUMPDEST PUSH1 0x0 DUP2 PUSH1 0x40 MLOAD PUSH1 0x20 ADD PUSH2 0x1DF7 SWAP2 SWAP1 PUSH2 0x4C85 JUMP JUMPDEST PUSH1 0x40 MLOAD PUSH1 0x20 DUP2 DUP4 SUB SUB DUP2 MSTORE SWAP1 PUSH1 0x40 MSTORE DUP1 MLOAD SWAP1 PUSH1 0x20 ADD KECCAK256 SWAP1 POP SWAP2 SWAP1 POP JUMP JUMPDEST PUSH1 0xA0 SHL PUSH2 0xFFFF PUSH1 0xA0 SHL AND PUSH1 0x1 PUSH1 0x1 PUSH1 0xA0 SHL SUB SWAP2 SWAP1 SWAP2 AND OR PUSH1 0x50 SHL SWAP1 JUMP JUMPDEST PUSH1 0x0 PUSH4 0xFFFFFFFF DUP3 AND PUSH2 0x1E46 JUMPI POP PUSH1 0x0 PUSH2 0x2097 JUMP JUMPDEST PUSH1 0x0 DUP6 PUSH1 0x1 DUP2 GT ISZERO PUSH2 0x1E54 JUMPI INVALID JUMPDEST EQ ISZERO PUSH2 0x1F65 JUMPI PUSH1 0x60 DUP5 PUSH1 0x1 PUSH1 0x1 PUSH1 0xA0 SHL SUB AND PUSH4 0xF242432A DUP10 DUP10 DUP8 DUP8 DUP7 PUSH1 0x40 MLOAD DUP7 PUSH4 0xFFFFFFFF AND PUSH1 0xE0 SHL DUP2 MSTORE PUSH1 0x4 ADD DUP1 DUP7 PUSH1 0x1 PUSH1 0x1 PUSH1 0xA0 SHL SUB AND DUP2 MSTORE PUSH1 0x20 ADD DUP6 PUSH1 0x1 PUSH1 0x1 PUSH1 0xA0 SHL SUB AND DUP2 MSTORE PUSH1 0x20 ADD DUP5 DUP2 MSTORE PUSH1 0x20 ADD DUP4 PUSH4 0xFFFFFFFF AND DUP2 MSTORE PUSH1 0x20 ADD DUP1 PUSH1 0x20 ADD DUP3 DUP2 SUB DUP3 MSTORE DUP4 DUP2 DUP2 MLOAD DUP2 MSTORE PUSH1 0x20 ADD SWAP2 POP DUP1 MLOAD SWAP1 PUSH1 0x20 ADD SWAP1 DUP1 DUP4 DUP4 PUSH1 0x0 JUMPDEST DUP4 DUP2 LT ISZERO PUSH2 0x1EEC JUMPI DUP2 DUP2 ADD MLOAD DUP4 DUP3 ADD MSTORE PUSH1 0x20 ADD PUSH2 0x1ED4 JUMP JUMPDEST POP POP POP POP SWAP1 POP SWAP1 DUP2 ADD SWAP1 PUSH1 0x1F AND DUP1 ISZERO PUSH2 0x1F19 JUMPI DUP1 DUP3 SUB DUP1 MLOAD PUSH1 0x1 DUP4 PUSH1 0x20 SUB PUSH2 0x100 EXP SUB NOT AND DUP2 MSTORE PUSH1 0x20 ADD SWAP2 POP JUMPDEST POP SWAP7 POP POP POP POP POP POP POP PUSH1 0x0 PUSH1 0x40 MLOAD DUP1 DUP4 SUB DUP2 PUSH1 0x0 DUP8 DUP1 EXTCODESIZE ISZERO DUP1 ISZERO PUSH2 0x1F3C JUMPI PUSH1 0x0 DUP1 REVERT JUMPDEST POP GAS CALL SWAP3 POP POP POP DUP1 ISZERO PUSH2 0x1F4D JUMPI POP PUSH1 0x1 JUMPDEST PUSH2 0x1F5A JUMPI PUSH1 0x0 SWAP2 POP PUSH2 0x1F5F JUMP JUMPDEST PUSH1 0x1 SWAP2 POP JUMPDEST POP PUSH2 0x2097 JUMP JUMPDEST PUSH1 0x1 DUP6 PUSH1 0x1 DUP2 GT ISZERO PUSH2 0x1F73 JUMPI INVALID JUMPDEST EQ ISZERO PUSH2 0x2057 JUMPI DUP2 PUSH4 0xFFFFFFFF AND PUSH1 0x1 EQ PUSH2 0x1FC9 JUMPI PUSH1 0x40 DUP1 MLOAD PUSH3 0x461BCD PUSH1 0xE5 SHL DUP2 MSTORE PUSH1 0x20 PUSH1 0x4 DUP3 ADD MSTORE PUSH1 0x12 PUSH1 0x24 DUP3 ADD MSTORE PUSH18 0x1A5B9D985B1A59081B999D08185B5BDD5B9D PUSH1 0x72 SHL PUSH1 0x44 DUP3 ADD MSTORE SWAP1 MLOAD SWAP1 DUP2 SWAP1 SUB PUSH1 0x64 ADD SWAP1 REVERT JUMPDEST DUP4 PUSH1 0x1 PUSH1 0x1 PUSH1 0xA0 SHL SUB AND PUSH4 0x42842E0E DUP9 DUP9 DUP7 PUSH1 0x40 MLOAD DUP5 PUSH4 0xFFFFFFFF AND PUSH1 0xE0 SHL DUP2 MSTORE PUSH1 0x4 ADD DUP1 DUP5 PUSH1 0x1 PUSH1 0x1 PUSH1 0xA0 SHL SUB AND DUP2 MSTORE PUSH1 0x20 ADD DUP4 PUSH1 0x1 PUSH1 0x1 PUSH1 0xA0 SHL SUB AND DUP2 MSTORE PUSH1 0x20 ADD DUP3 DUP2 MSTORE PUSH1 0x20 ADD SWAP4 POP POP POP POP PUSH1 0x0 PUSH1 0x40 MLOAD DUP1 DUP4 SUB DUP2 PUSH1 0x0 DUP8 DUP1 EXTCODESIZE ISZERO DUP1 ISZERO PUSH2 0x2031 JUMPI PUSH1 0x0 DUP1 REVERT JUMPDEST POP GAS CALL SWAP3 POP POP POP DUP1 ISZERO PUSH2 0x2042 JUMPI POP PUSH1 0x1 JUMPDEST PUSH2 0x204E JUMPI POP PUSH1 0x0 PUSH2 0x2052 JUMP JUMPDEST POP PUSH1 0x1 JUMPDEST PUSH2 0x2097 JUMP JUMPDEST PUSH1 0x40 DUP1 MLOAD PUSH3 0x461BCD PUSH1 0xE5 SHL DUP2 MSTORE PUSH1 0x20 PUSH1 0x4 DUP3 ADD MSTORE PUSH1 0x10 PUSH1 0x24 DUP3 ADD MSTORE PUSH16 0x696E76616C6964206E66742074797065 PUSH1 0x80 SHL PUSH1 0x44 DUP3 ADD MSTORE SWAP1 MLOAD SWAP1 DUP2 SWAP1 SUB PUSH1 0x64 ADD SWAP1 REVERT JUMPDEST SWAP7 SWAP6 POP POP POP POP POP POP JUMP JUMPDEST PUSH1 0x60 DUP2 PUSH1 0x0 ADD MLOAD DUP3 PUSH1 0x20 ADD MLOAD DUP4 PUSH1 0x40 ADD MLOAD DUP5 PUSH1 0x60 ADD MLOAD DUP6 PUSH1 0x80 ADD MLOAD DUP7 PUSH1 0xA0 ADD MLOAD PUSH1 0x40 MLOAD PUSH1 0x20 ADD PUSH2 0x20D6 SWAP7 SWAP6 SWAP5 SWAP4 SWAP3 SWAP2 SWAP1 PUSH2 0x45D4 JUMP JUMPDEST PUSH1 0x40 MLOAD PUSH1 0x20 DUP2 DUP4 SUB SUB DUP2 MSTORE SWAP1 PUSH1 0x40 MSTORE SWAP1 POP SWAP2 SWAP1 POP JUMP JUMPDEST PUSH1 0xD SLOAD NUMBER PUSH2 0x9D80 ADD SWAP1 PUSH1 0x1 PUSH1 0x1 PUSH1 0x40 SHL SUB DUP1 DUP3 AND PUSH1 0x1 PUSH1 0x40 SHL SWAP1 SWAP3 DIV AND ADD PUSH1 0x0 PUSH2 0x2115 DUP5 PUSH2 0x2959 JUMP JUMPDEST SWAP1 POP PUSH1 0x40 MLOAD DUP1 PUSH1 0x60 ADD PUSH1 0x40 MSTORE DUP1 DUP3 PUSH12 0xFFFFFFFFFFFFFFFFFFFFFFFF NOT AND DUP2 MSTORE PUSH1 0x20 ADD DUP5 PUSH1 0x1 PUSH1 0x1 PUSH1 0x40 SHL SUB AND DUP2 MSTORE PUSH1 0x20 ADD DUP7 PUSH1 0xF DUP2 GT ISZERO PUSH2 0x2152 JUMPI INVALID JUMPDEST SWAP1 MSTORE PUSH1 0x1 PUSH1 0x1 PUSH1 0x40 SHL SUB DUP1 DUP5 AND PUSH1 0x0 SWAP1 DUP2 MSTORE PUSH1 0x7 PUSH1 0x20 SWAP1 DUP2 MSTORE PUSH1 0x40 SWAP2 DUP3 SWAP1 KECCAK256 DUP5 MLOAD DUP2 SLOAD SWAP3 DUP7 ADD MLOAD SWAP1 SWAP5 AND PUSH1 0x1 PUSH1 0xA0 SHL MUL PUSH8 0xFFFFFFFFFFFFFFFF PUSH1 0xA0 SHL NOT PUSH1 0x60 SWAP6 SWAP1 SWAP6 SHR PUSH1 0x1 PUSH1 0x1 PUSH1 0xA0 SHL SUB NOT SWAP1 SWAP4 AND SWAP3 SWAP1 SWAP3 OR SWAP4 SWAP1 SWAP4 AND OR DUP1 DUP4 SSTORE SWAP1 DUP4 ADD MLOAD SWAP1 DUP3 SWAP1 PUSH1 0xFF PUSH1 0xE0 SHL NOT AND PUSH1 0x1 PUSH1 0xE0 SHL DUP4 PUSH1 0xF DUP2 GT ISZERO PUSH2 0x21CC JUMPI INVALID JUMPDEST MUL OR SWAP1 SSTORE POP SWAP1 POP POP PUSH32 0xD0943372C08B438A88D4B39D77216901079EDA9CA59D45349841C099083B6830 CALLER DUP4 DUP8 DUP8 DUP8 PUSH1 0x1 PUSH1 0x1 PUSH1 0x40 SHL SUB AND PUSH1 0x40 MLOAD PUSH2 0x2214 SWAP6 SWAP5 SWAP4 SWAP3 SWAP2 SWAP1 PUSH2 0x4750 JUMP JUMPDEST PUSH1 0x40 MLOAD DUP1 SWAP2 SUB SWAP1 LOG1 POP POP PUSH1 0xD DUP1 SLOAD PUSH1 0x1 PUSH1 0x1 PUSH1 0x1 PUSH1 0x40 SHL SUB PUSH1 0x1 PUSH1 0x40 SHL DUP1 DUP5 DIV DUP3 AND SWAP3 SWAP1 SWAP3 ADD AND MUL PUSH8 0xFFFFFFFFFFFFFFFF PUSH1 0x40 SHL NOT SWAP1 SWAP2 AND OR SWAP1 SSTORE POP POP POP JUMP JUMPDEST PUSH1 0x0 DUP3 DUP3 ADD DUP4 DUP2 LT ISZERO PUSH2 0x1CA2 JUMPI PUSH1 0x40 DUP1 MLOAD PUSH3 0x461BCD PUSH1 0xE5 SHL DUP2 MSTORE PUSH1 0x20 PUSH1 0x4 DUP3 ADD MSTORE PUSH1 0x2 PUSH1 0x24 DUP3 ADD MSTORE PUSH2 0xC4D PUSH1 0xF2 SHL PUSH1 0x44 DUP3 ADD MSTORE SWAP1 MLOAD SWAP1 DUP2 SWAP1 SUB PUSH1 0x64 ADD SWAP1 REVERT JUMPDEST PUSH1 0x0 DUP1 SLOAD PUSH1 0xFF NOT AND DUP2 SSTORE PUSH1 0x1 SSTORE PUSH3 0x24EA00 PUSH1 0x2 DUP2 SWAP1 SSTORE PUSH1 0x40 MLOAD PUSH32 0xF2B18F8ABBD8A0D0C1FB8245146EEDF5304887B12F6395B548CA238E054A1483 SWAP2 PUSH2 0x22D7 SWAP2 PUSH2 0x483F JUMP JUMPDEST PUSH1 0x40 MLOAD DUP1 SWAP2 SUB SWAP1 LOG1 PUSH1 0x0 PUSH1 0x3 DUP2 SWAP1 SSTORE JUMPDEST PUSH1 0x3 DUP2 LT ISZERO PUSH2 0x230E JUMPI PUSH1 0x0 DUP2 DUP2 MSTORE PUSH1 0x4 PUSH1 0x20 MSTORE PUSH1 0x40 SWAP1 KECCAK256 DUP1 SLOAD PUSH1 0xFF NOT AND SWAP1 SSTORE PUSH1 0x1 ADD PUSH2 0x22E7 JUMP JUMPDEST POP PUSH1 0x0 PUSH1 0x5 SSTORE JUMP JUMPDEST PUSH1 0x40 DUP1 MLOAD PUSH1 0x1 PUSH1 0x1 PUSH1 0xA0 SHL SUB DUP5 DUP2 AND PUSH1 0x24 DUP4 ADD MSTORE PUSH1 0x44 DUP1 DUP4 ADD DUP6 SWAP1 MSTORE DUP4 MLOAD DUP1 DUP5 SUB SWAP1 SWAP2 ADD DUP2 MSTORE PUSH1 0x64 SWAP1 SWAP3 ADD DUP4 MSTORE PUSH1 0x20 DUP3 ADD DUP1 MLOAD PUSH1 0x1 PUSH1 0x1 PUSH1 0xE0 SHL SUB AND PUSH4 0xA9059CBB PUSH1 0xE0 SHL OR DUP2 MSTORE SWAP3 MLOAD DUP3 MLOAD PUSH1 0x0 SWAP5 DUP6 SWAP5 DUP6 SWAP5 DUP11 AND SWAP4 SWAP1 SWAP3 SWAP1 SWAP2 DUP3 SWAP2 DUP1 DUP4 DUP4 JUMPDEST PUSH1 0x20 DUP4 LT PUSH2 0x2394 JUMPI DUP1 MLOAD DUP3 MSTORE PUSH1 0x1F NOT SWAP1 SWAP3 ADD SWAP2 PUSH1 0x20 SWAP2 DUP3 ADD SWAP2 ADD PUSH2 0x2375 JUMP JUMPDEST PUSH1 0x1 DUP4 PUSH1 0x20 SUB PUSH2 0x100 EXP SUB DUP1 NOT DUP3 MLOAD AND DUP2 DUP5 MLOAD AND DUP1 DUP3 OR DUP6 MSTORE POP POP POP POP POP POP SWAP1 POP ADD SWAP2 POP POP PUSH1 0x0 PUSH1 0x40 MLOAD DUP1 DUP4 SUB DUP2 PUSH1 0x0 DUP7 GAS CALL SWAP2 POP POP RETURNDATASIZE DUP1 PUSH1 0x0 DUP2 EQ PUSH2 0x23F6 JUMPI PUSH1 0x40 MLOAD SWAP2 POP PUSH1 0x1F NOT PUSH1 0x3F RETURNDATASIZE ADD AND DUP3 ADD PUSH1 0x40 MSTORE RETURNDATASIZE DUP3 MSTORE RETURNDATASIZE PUSH1 0x0 PUSH1 0x20 DUP5 ADD RETURNDATACOPY PUSH2 0x23FB JUMP JUMPDEST PUSH1 0x60 SWAP2 POP JUMPDEST POP SWAP2 POP SWAP2 POP PUSH1 0x0 DUP2 MLOAD PUSH1 0x0 EQ DUP1 PUSH2 0x2425 JUMPI POP DUP2 DUP1 PUSH1 0x20 ADD SWAP1 MLOAD PUSH1 0x20 DUP2 LT ISZERO PUSH2 0x2422 JUMPI PUSH1 0x0 DUP1 REVERT JUMPDEST POP MLOAD JUMPDEST SWAP1 POP DUP3 DUP1 ISZERO PUSH2 0x2431 JUMPI POP DUP1 JUMPDEST SWAP8 SWAP7 POP POP POP POP POP POP POP JUMP JUMPDEST PUSH2 0x2444 PUSH2 0x3AF7 JUMP JUMPDEST DUP3 PUSH1 0x0 ADD MLOAD PUSH1 0x1 ADD PUSH4 0xFFFFFFFF AND DUP3 PUSH1 0x80 ADD MLOAD PUSH4 0xFFFFFFFF AND EQ PUSH2 0x247A JUMPI PUSH1 0x40 MLOAD PUSH3 0x461BCD PUSH1 0xE5 SHL DUP2 MSTORE PUSH1 0x4 ADD PUSH2 0x68F SWAP1 PUSH2 0x4BC8 JUMP JUMPDEST DUP3 PUSH1 0x60 ADD MLOAD DUP3 PUSH1 0x40 ADD MLOAD LT ISZERO PUSH2 0x24A2 JUMPI PUSH1 0x40 MLOAD PUSH3 0x461BCD PUSH1 0xE5 SHL DUP2 MSTORE PUSH1 0x4 ADD PUSH2 0x68F SWAP1 PUSH2 0x49A0 JUMP JUMPDEST PUSH1 0x0 DUP1 PUSH2 0x24AE DUP5 PUSH2 0x2967 JUMP JUMPDEST SWAP2 POP SWAP2 POP PUSH1 0x0 PUSH2 0x24BE DUP7 DUP7 PUSH2 0x2BD9 JUMP JUMPDEST PUSH1 0x40 DUP1 MLOAD PUSH1 0xC0 DUP2 ADD DUP3 MSTORE PUSH1 0x80 DUP1 DUP10 ADD MLOAD PUSH4 0xFFFFFFFF AND DUP3 MSTORE PUSH1 0x1 PUSH1 0x1 PUSH1 0x40 SHL SUB SWAP1 SWAP6 AND PUSH1 0x20 DUP3 ADD MSTORE DUP1 DUP3 ADD SWAP6 SWAP1 SWAP6 MSTORE DUP7 ADD MLOAD PUSH1 0x60 DUP6 ADD MSTORE DUP6 MLOAD SWAP3 DUP5 ADD SWAP3 SWAP1 SWAP3 MSTORE POP PUSH1 0xA0 DUP3 ADD MSTORE SWAP1 POP SWAP3 SWAP2 POP POP JUMP JUMPDEST DUP2 MLOAD MLOAD PUSH4 0xFFFFFFFF AND PUSH1 0x0 SWAP1 DUP2 MSTORE PUSH1 0xE PUSH1 0x20 MSTORE PUSH1 0x40 SWAP1 KECCAK256 SLOAD DUP3 MLOAD PUSH2 0x252F SWAP1 PUSH2 0x1DE4 JUMP JUMPDEST EQ PUSH2 0x254C JUMPI PUSH1 0x40 MLOAD PUSH3 0x461BCD PUSH1 0xE5 SHL DUP2 MSTORE PUSH1 0x4 ADD PUSH2 0x68F SWAP1 PUSH2 0x4A44 JUMP JUMPDEST PUSH1 0xC SLOAD DUP3 MLOAD MLOAD PUSH1 0x1 PUSH1 0xC0 SHL SWAP1 SWAP2 DIV PUSH4 0xFFFFFFFF SWAP1 DUP2 AND DUP4 ADD PUSH1 0x1 ADD DUP2 AND SWAP2 AND EQ PUSH2 0x2588 JUMPI PUSH1 0x40 MLOAD PUSH3 0x461BCD PUSH1 0xE5 SHL DUP2 MSTORE PUSH1 0x4 ADD PUSH2 0x68F SWAP1 PUSH2 0x4C6A JUMP JUMPDEST PUSH32 0xC5D2460186F7233C927E7DB2DCC703C0E500B653CA82273B7BFAD8045D85A470 PUSH1 0x0 JUMPDEST DUP4 PUSH1 0x20 ADD MLOAD MLOAD DUP2 PUSH4 0xFFFFFFFF AND LT ISZERO PUSH2 0x27A0 JUMPI PUSH1 0x0 DUP5 PUSH1 0x20 ADD MLOAD DUP3 PUSH4 0xFFFFFFFF AND DUP2 MLOAD DUP2 LT PUSH2 0x25D7 JUMPI INVALID JUMPDEST PUSH1 0x20 MUL PUSH1 0x20 ADD ADD MLOAD SWAP1 POP PUSH1 0x0 DUP2 PUSH1 0x0 DUP2 MLOAD DUP2 LT PUSH2 0x25F0 JUMPI INVALID JUMPDEST ADD PUSH1 0x20 ADD MLOAD PUSH1 0xF8 SHR PUSH1 0xF DUP2 GT ISZERO PUSH2 0x2603 JUMPI INVALID JUMPDEST SWAP1 POP PUSH1 0x9 DUP2 PUSH1 0xF DUP2 GT ISZERO PUSH2 0x2613 JUMPI INVALID JUMPDEST EQ ISZERO PUSH2 0x2673 JUMPI PUSH1 0x0 PUSH2 0x2624 DUP4 PUSH2 0x2C2A JUMP JUMPDEST SWAP1 POP PUSH2 0xFFFF PUSH4 0xFFFFFFFF AND DUP2 PUSH1 0x60 ADD MLOAD PUSH2 0xFFFF AND GT ISZERO PUSH2 0x2656 JUMPI PUSH1 0x40 MLOAD PUSH3 0x461BCD PUSH1 0xE5 SHL DUP2 MSTORE PUSH1 0x4 ADD PUSH2 0x68F SWAP1 PUSH2 0x4AB4 JUMP JUMPDEST PUSH2 0x266D DUP2 PUSH1 0x60 ADD MLOAD DUP3 PUSH1 0x40 ADD MLOAD DUP4 PUSH1 0x80 ADD MLOAD PUSH2 0x2CFB JUMP JUMPDEST POP PUSH2 0x2787 JUMP JUMPDEST PUSH1 0xE DUP2 PUSH1 0xF DUP2 GT ISZERO PUSH2 0x2681 JUMPI INVALID JUMPDEST EQ ISZERO PUSH2 0x26EF JUMPI PUSH1 0x0 PUSH2 0x2692 DUP4 PUSH2 0x2EC1 JUMP JUMPDEST SWAP1 POP PUSH2 0xFFFF PUSH4 0xFFFFFFFF AND DUP2 PUSH1 0x60 ADD MLOAD PUSH2 0xFFFF AND GT ISZERO PUSH2 0x26C4 JUMPI PUSH1 0x40 MLOAD PUSH3 0x461BCD PUSH1 0xE5 SHL DUP2 MSTORE PUSH1 0x4 ADD PUSH2 0x68F SWAP1 PUSH2 0x4AB4 JUMP JUMPDEST PUSH1 0x0 PUSH2 0x26D3 DUP3 PUSH1 0x40 ADD MLOAD PUSH2 0x968 JUMP JUMPDEST SWAP1 POP PUSH2 0x26E8 DUP3 PUSH1 0x60 ADD MLOAD DUP3 DUP5 PUSH1 0x80 ADD MLOAD PUSH2 0x2CFB JUMP JUMPDEST POP POP PUSH2 0x2787 JUMP JUMPDEST PUSH1 0xF DUP2 PUSH1 0xF DUP2 GT ISZERO PUSH2 0x26FD JUMPI INVALID JUMPDEST EQ ISZERO PUSH2 0x2750 JUMPI PUSH1 0x0 PUSH2 0x270E DUP4 PUSH2 0x2F42 JUMP JUMPDEST SWAP1 POP PUSH2 0x266D DUP2 PUSH1 0x40 ADD MLOAD DUP3 PUSH1 0x60 ADD MLOAD DUP4 PUSH1 0x80 ADD MLOAD DUP5 PUSH1 0xA0 ADD MLOAD DUP6 PUSH1 0xC0 ADD MLOAD PUSH1 0xFF AND PUSH1 0x1 DUP2 GT ISZERO PUSH2 0x273A JUMPI INVALID JUMPDEST DUP7 PUSH1 0xE0 ADD MLOAD DUP8 PUSH2 0x100 ADD MLOAD DUP9 PUSH2 0x120 ADD MLOAD PUSH2 0x3035 JUMP JUMPDEST PUSH1 0xD DUP2 PUSH1 0xF DUP2 GT ISZERO PUSH2 0x275E JUMPI INVALID JUMPDEST EQ ISZERO PUSH2 0x276F JUMPI PUSH1 0x0 PUSH2 0x270E DUP4 PUSH2 0x3130 JUMP JUMPDEST PUSH1 0x40 MLOAD PUSH3 0x461BCD PUSH1 0xE5 SHL DUP2 MSTORE PUSH1 0x4 ADD PUSH2 0x68F SWAP1 PUSH2 0x4A63 JUMP JUMPDEST PUSH2 0x2791 DUP5 DUP4 PUSH2 0x327B JUMP JUMPDEST SWAP4 POP POP POP DUP1 PUSH1 0x1 ADD SWAP1 POP PUSH2 0x25AC JUMP JUMPDEST POP DUP3 MLOAD PUSH1 0x40 ADD MLOAD DUP2 EQ PUSH2 0x27C5 JUMPI PUSH1 0x40 MLOAD PUSH3 0x461BCD PUSH1 0xE5 SHL DUP2 MSTORE PUSH1 0x4 ADD PUSH2 0x68F SWAP1 PUSH2 0x4BE3 JUMP JUMPDEST POP POP POP JUMP JUMPDEST PUSH1 0x0 PUSH2 0x27D6 DUP3 DUP6 PUSH2 0x1E14 JUMP JUMPDEST PUSH1 0x1 PUSH1 0x1 PUSH1 0x50 SHL SUB NOT DUP2 AND PUSH1 0x0 SWAP1 DUP2 MSTORE PUSH1 0xB PUSH1 0x20 MSTORE PUSH1 0x40 SWAP1 KECCAK256 SLOAD SWAP1 SWAP2 POP PUSH1 0x1 PUSH1 0x1 PUSH1 0x80 SHL SUB AND PUSH2 0x2806 DUP2 DUP6 PUSH2 0x328A JUMP JUMPDEST PUSH1 0x1 PUSH1 0x1 PUSH1 0x50 SHL SUB NOT DUP4 AND PUSH1 0x0 SWAP1 DUP2 MSTORE PUSH1 0xB PUSH1 0x20 MSTORE PUSH1 0x40 SWAP1 DUP2 SWAP1 KECCAK256 DUP1 SLOAD PUSH1 0x1 PUSH1 0x1 PUSH1 0x80 SHL SUB NOT AND PUSH1 0x1 PUSH1 0x1 PUSH1 0x80 SHL SUB SWAP4 SWAP1 SWAP4 AND SWAP3 SWAP1 SWAP3 OR SWAP1 SWAP2 SSTORE MLOAD PUSH32 0xF4BF32C167EE6E782944CD1DB8174729B46ADCD3BC732E282CC4A80793933154 SWAP1 PUSH2 0x1D29 SWAP1 DUP8 SWAP1 DUP8 SWAP1 PUSH2 0x4D20 JUMP JUMPDEST PUSH1 0x60 DUP2 PUSH1 0x0 ADD MLOAD DUP3 PUSH1 0x20 ADD MLOAD DUP4 PUSH1 0x40 ADD MLOAD PUSH1 0x40 MLOAD PUSH1 0x20 ADD PUSH2 0x20D6 SWAP4 SWAP3 SWAP2 SWAP1 PUSH2 0x4630 JUMP JUMPDEST PUSH1 0x0 DUP2 DUP5 DUP5 GT ISZERO PUSH2 0x2922 JUMPI PUSH1 0x40 MLOAD PUSH3 0x461BCD PUSH1 0xE5 SHL DUP2 MSTORE PUSH1 0x4 ADD DUP1 DUP1 PUSH1 0x20 ADD DUP3 DUP2 SUB DUP3 MSTORE DUP4 DUP2 DUP2 MLOAD DUP2 MSTORE PUSH1 0x20 ADD SWAP2 POP DUP1 MLOAD SWAP1 PUSH1 0x20 ADD SWAP1 DUP1 DUP4 DUP4 PUSH1 0x0 JUMPDEST DUP4 DUP2 LT ISZERO PUSH2 0x28E7 JUMPI DUP2 DUP2 ADD MLOAD DUP4 DUP3 ADD MSTORE PUSH1 0x20 ADD PUSH2 0x28CF JUMP JUMPDEST POP POP POP POP SWAP1 POP SWAP1 DUP2 ADD SWAP1 PUSH1 0x1F AND DUP1 ISZERO PUSH2 0x2914 JUMPI DUP1 DUP3 SUB DUP1 MLOAD PUSH1 0x1 DUP4 PUSH1 0x20 SUB PUSH2 0x100 EXP SUB NOT AND DUP2 MSTORE PUSH1 0x20 ADD SWAP2 POP JUMPDEST POP SWAP3 POP POP POP PUSH1 0x40 MLOAD DUP1 SWAP2 SUB SWAP1 REVERT JUMPDEST POP POP POP SWAP1 SUB SWAP1 JUMP JUMPDEST PUSH1 0x60 DUP2 PUSH1 0x0 ADD MLOAD DUP3 PUSH1 0x20 ADD MLOAD DUP4 PUSH1 0x40 ADD MLOAD DUP5 PUSH1 0x60 ADD MLOAD DUP6 PUSH1 0x80 ADD MLOAD PUSH1 0x40 MLOAD PUSH1 0x20 ADD PUSH2 0x20D6 SWAP6 SWAP5 SWAP4 SWAP3 SWAP2 SWAP1 PUSH2 0x46E3 JUMP JUMPDEST DUP1 MLOAD PUSH1 0x20 SWAP1 SWAP2 ADD KECCAK256 PUSH1 0x60 SHL SWAP1 JUMP JUMPDEST PUSH1 0x20 DUP2 ADD MLOAD PUSH1 0xD SLOAD PUSH32 0xC5D2460186F7233C927E7DB2DCC703C0E500B653CA82273B7BFAD8045D85A470 SWAP2 PUSH1 0x0 SWAP2 PUSH1 0x1 PUSH1 0x1 PUSH1 0x40 SHL SUB DUP1 DUP3 AND PUSH1 0x1 PUSH1 0x80 SHL SWAP1 SWAP3 DIV AND ADD DUP3 JUMPDEST DUP6 PUSH1 0x60 ADD MLOAD MLOAD DUP2 PUSH2 0xFFFF AND LT ISZERO PUSH2 0x2BD1 JUMPI PUSH1 0x0 DUP7 PUSH1 0x60 ADD MLOAD DUP3 PUSH2 0xFFFF AND DUP2 MLOAD DUP2 LT PUSH2 0x29D2 JUMPI INVALID JUMPDEST PUSH1 0x20 MUL PUSH1 0x20 ADD ADD MLOAD SWAP1 POP DUP4 MLOAD DUP2 PUSH4 0xFFFFFFFF AND LT PUSH2 0x2A02 JUMPI PUSH1 0x40 MLOAD PUSH3 0x461BCD PUSH1 0xE5 SHL DUP2 MSTORE PUSH1 0x4 ADD PUSH2 0x68F SWAP1 PUSH2 0x49F2 JUMP JUMPDEST PUSH1 0x0 DUP5 DUP3 PUSH4 0xFFFFFFFF AND DUP2 MLOAD DUP2 LT PUSH2 0x2A16 JUMPI INVALID JUMPDEST ADD PUSH1 0x20 ADD MLOAD PUSH1 0xF8 SHR PUSH1 0xF DUP2 GT ISZERO PUSH2 0x2A29 JUMPI INVALID JUMPDEST SWAP1 POP PUSH1 0x1 DUP2 PUSH1 0xF DUP2 GT ISZERO PUSH2 0x2A39 JUMPI INVALID JUMPDEST EQ ISZERO PUSH2 0x2A7B JUMPI PUSH1 0x0 PUSH2 0x2A53 DUP7 PUSH4 0xFFFFFFFF DUP6 AND PUSH1 0x41 PUSH2 0x32B1 JUMP JUMPDEST SWAP1 POP PUSH1 0x0 PUSH2 0x2A60 DUP3 PUSH2 0x336D JUMP JUMPDEST SWAP1 POP PUSH2 0x2A6E DUP2 DUP10 DUP9 ADD PUSH2 0x33B9 JUMP JUMPDEST POP POP PUSH1 0x1 SWAP1 SWAP6 ADD SWAP5 PUSH2 0x2BC7 JUMP JUMPDEST PUSH1 0x2 DUP2 PUSH1 0xF DUP2 GT ISZERO PUSH2 0x2A89 JUMPI INVALID JUMPDEST EQ ISZERO PUSH2 0x2ABE JUMPI PUSH1 0x0 PUSH2 0x2AA3 DUP7 PUSH4 0xFFFFFFFF DUP6 AND PUSH1 0x37 PUSH2 0x32B1 JUMP JUMPDEST SWAP1 POP PUSH1 0x0 PUSH2 0x2AB0 DUP3 PUSH2 0x2EC1 JUMP JUMPDEST SWAP1 POP PUSH2 0x2A6E DUP2 DUP10 DUP9 ADD PUSH2 0x344F JUMP JUMPDEST PUSH1 0x60 PUSH1 0x9 DUP3 PUSH1 0xF DUP2 GT ISZERO PUSH2 0x2ACE JUMPI INVALID JUMPDEST EQ ISZERO PUSH2 0x2AED JUMPI PUSH2 0x2AE6 DUP7 PUSH4 0xFFFFFFFF DUP6 AND PUSH1 0x33 PUSH2 0x32B1 JUMP JUMPDEST SWAP1 POP PUSH2 0x2BB9 JUMP JUMPDEST PUSH1 0xD DUP3 PUSH1 0xF DUP2 GT ISZERO PUSH2 0x2AFB JUMPI INVALID JUMPDEST EQ ISZERO PUSH2 0x2B13 JUMPI PUSH2 0x2AE6 DUP7 PUSH4 0xFFFFFFFF DUP6 AND PUSH1 0xB2 PUSH2 0x32B1 JUMP JUMPDEST PUSH1 0xE DUP3 PUSH1 0xF DUP2 GT ISZERO PUSH2 0x2B21 JUMPI INVALID JUMPDEST EQ ISZERO PUSH2 0x2B60 JUMPI PUSH2 0x2B39 DUP7 PUSH4 0xFFFFFFFF DUP6 AND PUSH1 0x37 PUSH2 0x32B1 JUMP JUMPDEST SWAP1 POP PUSH1 0x0 PUSH2 0x2B46 DUP3 PUSH2 0x2EC1 JUMP JUMPDEST SWAP1 POP PUSH2 0x2B54 DUP2 DUP10 DUP9 ADD PUSH2 0x34C3 JUMP JUMPDEST POP PUSH1 0x1 SWAP1 SWAP7 ADD SWAP6 PUSH2 0x2BB9 JUMP JUMPDEST PUSH1 0xF DUP3 PUSH1 0xF DUP2 GT ISZERO PUSH2 0x2B6E JUMPI INVALID JUMPDEST EQ ISZERO PUSH2 0x2BA1 JUMPI PUSH2 0x2B86 DUP7 PUSH4 0xFFFFFFFF DUP6 AND PUSH1 0xAA PUSH2 0x32B1 JUMP JUMPDEST SWAP1 POP PUSH1 0x0 PUSH2 0x2B93 DUP3 PUSH2 0x2F42 JUMP JUMPDEST SWAP1 POP PUSH2 0x2B54 DUP2 DUP10 DUP9 ADD PUSH2 0x3553 JUMP JUMPDEST PUSH1 0x40 MLOAD PUSH3 0x461BCD PUSH1 0xE5 SHL DUP2 MSTORE PUSH1 0x4 ADD PUSH2 0x68F SWAP1 PUSH2 0x4C19 JUMP JUMPDEST PUSH2 0x2BC3 DUP9 DUP3 PUSH2 0x327B JUMP JUMPDEST SWAP8 POP POP JUMPDEST POP POP PUSH1 0x1 ADD PUSH2 0x29AB JUMP JUMPDEST POP POP POP SWAP2 POP SWAP2 JUMP JUMPDEST DUP2 MLOAD PUSH4 0xFFFFFFFF AND PUSH1 0x0 SWAP1 DUP2 MSTORE PUSH1 0xE PUSH1 0x20 SWAP1 DUP2 MSTORE PUSH1 0x40 DUP1 DUP4 KECCAK256 SLOAD PUSH1 0x80 DUP6 ADD MLOAD DUP6 DUP5 ADD MLOAD SWAP3 MLOAD PUSH2 0x2C0C SWAP5 SWAP3 SWAP4 SWAP2 SWAP3 ADD PUSH2 0x48C4 JUMP JUMPDEST PUSH1 0x40 MLOAD PUSH1 0x20 DUP2 DUP4 SUB SUB DUP2 MSTORE SWAP1 PUSH1 0x40 MSTORE DUP1 MLOAD SWAP1 PUSH1 0x20 ADD KECCAK256 SWAP1 POP SWAP3 SWAP2 POP POP JUMP JUMPDEST PUSH2 0x2C32 PUSH2 0x3B2C JUMP JUMPDEST PUSH1 0x1 PUSH2 0x2C3E DUP4 DUP3 PUSH2 0x35C7 JUMP JUMPDEST PUSH4 0xFFFFFFFF AND PUSH1 0x20 DUP5 ADD MSTORE SWAP1 POP PUSH2 0x2C55 DUP4 DUP3 PUSH2 0x35E0 JUMP JUMPDEST PUSH1 0x1 PUSH1 0x1 PUSH1 0xA0 SHL SUB AND PUSH1 0x40 DUP5 ADD MSTORE SWAP1 POP PUSH2 0x2C6F DUP4 DUP3 PUSH2 0x35F0 JUMP JUMPDEST PUSH2 0xFFFF AND PUSH1 0x60 DUP5 ADD MSTORE SWAP1 POP PUSH2 0x2C84 DUP4 DUP3 PUSH2 0x3600 JUMP JUMPDEST PUSH1 0x1 PUSH1 0x1 PUSH1 0x80 SHL SUB AND PUSH1 0x80 DUP5 ADD MSTORE SWAP1 POP PUSH2 0x2C9E DUP4 DUP3 PUSH2 0x35C7 JUMP JUMPDEST PUSH4 0xFFFFFFFF AND PUSH1 0xA0 DUP5 ADD MSTORE SWAP1 POP PUSH2 0x2CB5 DUP4 DUP3 PUSH2 0x35F0 JUMP JUMPDEST PUSH2 0xFFFF AND PUSH1 0xC0 DUP5 ADD MSTORE SWAP1 POP PUSH2 0x2CCA DUP4 DUP3 PUSH2 0x35F0 JUMP JUMPDEST PUSH2 0xFFFF AND PUSH1 0xE0 DUP5 ADD MSTORE SWAP1 POP PUSH1 0x33 DUP2 EQ PUSH2 0x2CF5 JUMPI PUSH1 0x40 MLOAD PUSH3 0x461BCD PUSH1 0xE5 SHL DUP2 MSTORE PUSH1 0x4 ADD PUSH2 0x68F SWAP1 PUSH2 0x4A7E JUMP JUMPDEST POP SWAP2 SWAP1 POP JUMP JUMPDEST PUSH1 0x0 PUSH2 0x2D07 DUP4 DUP6 PUSH2 0x1E14 JUMP JUMPDEST SWAP1 POP PUSH1 0x0 PUSH2 0xFFFF DUP6 AND PUSH2 0x2D30 JUMPI DUP4 PUSH2 0x2D28 DUP2 PUSH1 0x1 PUSH1 0x1 PUSH1 0x80 SHL SUB DUP7 AND PUSH2 0x3610 JUMP JUMPDEST SWAP2 POP POP PUSH2 0x2E42 JUMP JUMPDEST PUSH1 0x9 SLOAD PUSH1 0x40 MLOAD PUSH4 0xDBFC2967 PUSH1 0xE0 SHL DUP2 MSTORE PUSH1 0x0 SWAP2 PUSH1 0x1 PUSH1 0x1 PUSH1 0xA0 SHL SUB AND SWAP1 PUSH4 0xDBFC2967 SWAP1 PUSH2 0x2D61 SWAP1 DUP10 SWAP1 PUSH1 0x4 ADD PUSH2 0x4CEC JUMP JUMPDEST PUSH1 0x20 PUSH1 0x40 MLOAD DUP1 DUP4 SUB DUP2 DUP7 DUP1 EXTCODESIZE ISZERO DUP1 ISZERO PUSH2 0x2D79 JUMPI PUSH1 0x0 DUP1 REVERT JUMPDEST POP GAS STATICCALL ISZERO DUP1 ISZERO PUSH2 0x2D8D JUMPI RETURNDATASIZE PUSH1 0x0 DUP1 RETURNDATACOPY RETURNDATASIZE PUSH1 0x0 REVERT JUMPDEST POP POP POP POP PUSH1 0x40 MLOAD RETURNDATASIZE PUSH1 0x1F NOT PUSH1 0x1F DUP3 ADD AND DUP3 ADD DUP1 PUSH1 0x40 MSTORE POP DUP2 ADD SWAP1 PUSH2 0x2DB1 SWAP2 SWAP1 PUSH2 0x3F94 JUMP JUMPDEST PUSH1 0x40 MLOAD PUSH4 0x4770D3A7 PUSH1 0xE1 SHL DUP2 MSTORE SWAP1 SWAP2 POP ADDRESS SWAP1 PUSH4 0x8EE1A74E SWAP1 PUSH3 0x186A0 SWAP1 PUSH2 0x2DE2 SWAP1 DUP6 SWAP1 DUP11 SWAP1 DUP11 SWAP1 DUP2 SWAP1 PUSH1 0x4 ADD PUSH2 0x48F2 JUMP JUMPDEST PUSH1 0x20 PUSH1 0x40 MLOAD DUP1 DUP4 SUB DUP2 PUSH1 0x0 DUP9 DUP1 EXTCODESIZE ISZERO DUP1 ISZERO PUSH2 0x2DFC JUMPI PUSH1 0x0 DUP1 REVERT JUMPDEST POP DUP8 CALL SWAP4 POP POP POP POP DUP1 ISZERO PUSH2 0x2E2D JUMPI POP PUSH1 0x40 DUP1 MLOAD PUSH1 0x1F RETURNDATASIZE SWAP1 DUP2 ADD PUSH1 0x1F NOT AND DUP3 ADD SWAP1 SWAP3 MSTORE PUSH2 0x2E2A SWAP2 DUP2 ADD SWAP1 PUSH2 0x44BC JUMP JUMPDEST PUSH1 0x1 JUMPDEST PUSH2 0x2E3A JUMPI PUSH1 0x0 SWAP2 POP PUSH2 0x2E40 JUMP JUMPDEST POP PUSH1 0x1 SWAP2 POP JUMPDEST POP JUMPDEST DUP1 ISZERO PUSH2 0x2E86 JUMPI PUSH32 0xF4BF32C167EE6E782944CD1DB8174729B46ADCD3BC732E282CC4A80793933154 DUP6 DUP5 PUSH1 0x40 MLOAD PUSH2 0x2E79 SWAP3 SWAP2 SWAP1 PUSH2 0x4D20 JUMP JUMPDEST PUSH1 0x40 MLOAD DUP1 SWAP2 SUB SWAP1 LOG1 PUSH2 0x1D6C JUMP JUMPDEST PUSH2 0x2E90 DUP3 DUP5 PUSH2 0x367C JUMP JUMPDEST PUSH32 0xD19CF67BBB6C320849F41B650B1179FB06A3F104451C75109C3B006A385C1688 DUP6 DUP5 PUSH1 0x40 MLOAD PUSH2 0x1D29 SWAP3 SWAP2 SWAP1 PUSH2 0x4D20 JUMP JUMPDEST PUSH2 0x2EC9 PUSH2 0x3B70 JUMP JUMPDEST PUSH1 0x1 PUSH2 0x2ED5 DUP4 DUP3 PUSH2 0x35C7 JUMP JUMPDEST PUSH4 0xFFFFFFFF AND PUSH1 0x20 DUP5 ADD MSTORE SWAP1 POP PUSH2 0x2EEC DUP4 DUP3 PUSH2 0x371A JUMP JUMPDEST PUSH1 0x40 DUP5 ADD MSTORE SWAP1 POP PUSH2 0x2EFD DUP4 DUP3 PUSH2 0x35F0 JUMP JUMPDEST PUSH2 0xFFFF AND PUSH1 0x60 DUP5 ADD MSTORE SWAP1 POP PUSH2 0x2F12 DUP4 DUP3 PUSH2 0x3600 JUMP JUMPDEST PUSH1 0x1 PUSH1 0x1 PUSH1 0x80 SHL SUB AND PUSH1 0x80 DUP5 ADD MSTORE SWAP1 POP PUSH1 0x37 DUP2 EQ PUSH2 0x2CF5 JUMPI PUSH1 0x40 MLOAD PUSH3 0x461BCD PUSH1 0xE5 SHL DUP2 MSTORE PUSH1 0x4 ADD PUSH2 0x68F SWAP1 PUSH2 0x4A7E JUMP JUMPDEST PUSH2 0x2F4A PUSH2 0x3B9E JUMP JUMPDEST PUSH1 0x1 PUSH2 0x2F56 DUP4 DUP3 PUSH2 0x35C7 JUMP JUMPDEST PUSH4 0xFFFFFFFF AND PUSH1 0x20 DUP5 ADD MSTORE SWAP1 POP PUSH2 0x2F6D DUP4 DUP3 PUSH2 0x371A JUMP JUMPDEST PUSH1 0x40 DUP5 ADD MSTORE SWAP1 POP PUSH2 0x2F7E DUP4 DUP3 PUSH2 0x35E0 JUMP JUMPDEST PUSH1 0x1 PUSH1 0x1 PUSH1 0xA0 SHL SUB AND PUSH1 0x60 DUP5 ADD MSTORE SWAP1 POP PUSH2 0x2F98 DUP4 DUP3 PUSH2 0x35E0 JUMP JUMPDEST PUSH1 0x1 PUSH1 0x1 PUSH1 0xA0 SHL SUB AND PUSH1 0x80 DUP5 ADD MSTORE SWAP1 POP PUSH2 0x2FB2 DUP4 DUP3 PUSH2 0x35E0 JUMP JUMPDEST PUSH1 0x1 PUSH1 0x1 PUSH1 0xA0 SHL SUB AND PUSH1 0xA0 DUP5 ADD MSTORE SWAP1 POP PUSH2 0x2FCC DUP4 DUP3 PUSH2 0x372A JUMP JUMPDEST PUSH1 0xE0 DUP5 ADD MSTORE SWAP1 POP PUSH2 0x2FDD DUP4 DUP3 PUSH2 0x35C7 JUMP JUMPDEST PUSH4 0xFFFFFFFF AND PUSH2 0x100 DUP5 ADD MSTORE SWAP1 POP PUSH2 0x2FF5 DUP4 DUP3 PUSH2 0x371A JUMP JUMPDEST PUSH2 0x120 DUP5 ADD MSTORE SWAP1 POP PUSH2 0x3007 DUP4 DUP3 PUSH2 0x35C7 JUMP JUMPDEST PUSH4 0xFFFFFFFF AND PUSH2 0x140 DUP5 ADD MSTORE SWAP1 POP PUSH1 0xAA DUP2 EQ PUSH2 0x2CF5 JUMPI PUSH1 0x40 MLOAD PUSH3 0x461BCD PUSH1 0xE5 SHL DUP2 MSTORE PUSH1 0x4 ADD PUSH2 0x68F SWAP1 PUSH2 0x4A7E JUMP JUMPDEST PUSH1 0x0 PUSH2 0x3040 DUP10 PUSH2 0x968 JUMP JUMPDEST SWAP1 POP PUSH1 0x60 PUSH1 0x0 PUSH1 0x1 PUSH1 0x1 PUSH1 0xA0 SHL SUB DUP11 AND ISZERO PUSH2 0x306A JUMPI PUSH2 0x3063 DUP4 DUP11 DUP10 DUP14 DUP11 DUP11 PUSH2 0x1E31 JUMP JUMPDEST SWAP1 POP PUSH2 0x30B8 JUMP JUMPDEST PUSH1 0x1 PUSH1 0x1 PUSH1 0xA0 SHL SUB DUP9 AND ISZERO PUSH2 0x3088 JUMPI PUSH2 0x3063 DUP4 DUP11 DUP11 DUP10 DUP10 DUP10 DUP9 PUSH2 0x373A JUMP JUMPDEST DUP5 PUSH4 0xFFFFFFFF AND PUSH1 0x1 EQ ISZERO PUSH2 0x30A6 JUMPI PUSH2 0x3063 DUP4 DUP11 DUP11 DUP10 DUP10 DUP10 DUP9 PUSH2 0x373A JUMP JUMPDEST PUSH2 0x30B5 DUP4 DUP11 DUP11 DUP10 DUP10 DUP10 DUP9 PUSH2 0x373A JUMP JUMPDEST SWAP1 POP JUMPDEST DUP1 PUSH2 0x30D5 JUMPI PUSH1 0x40 MLOAD PUSH3 0x461BCD PUSH1 0xE5 SHL DUP2 MSTORE PUSH1 0x4 ADD PUSH2 0x68F SWAP1 PUSH2 0x4B22 JUMP JUMPDEST PUSH32 0xBDFFFB78607D94F197DCB7D6DB768A952B833CEC21822EAADE053A657B0B84EF DUP12 DUP12 DUP12 DUP12 DUP12 PUSH1 0x1 DUP2 GT ISZERO PUSH2 0x3106 JUMPI INVALID JUMPDEST DUP12 DUP12 PUSH1 0x40 MLOAD PUSH2 0x311B SWAP8 SWAP7 SWAP6 SWAP5 SWAP4 SWAP3 SWAP2 SWAP1 PUSH2 0x4848 JUMP JUMPDEST PUSH1 0x40 MLOAD DUP1 SWAP2 SUB SWAP1 LOG1 POP POP POP POP POP POP POP POP POP POP POP JUMP JUMPDEST PUSH2 0x3138 PUSH2 0x3BFA JUMP JUMPDEST PUSH1 0x1 PUSH2 0x3144 DUP4 DUP3 PUSH2 0x35C7 JUMP JUMPDEST PUSH4 0xFFFFFFFF AND PUSH1 0x20 DUP5 ADD MSTORE SWAP1 POP PUSH2 0x315B DUP4 DUP3 PUSH2 0x371A JUMP JUMPDEST PUSH1 0x40 DUP5 ADD MSTORE SWAP1 POP PUSH2 0x316C DUP4 DUP3 PUSH2 0x35E0 JUMP JUMPDEST PUSH1 0x1 PUSH1 0x1 PUSH1 0xA0 SHL SUB AND PUSH1 0x60 DUP5 ADD MSTORE SWAP1 POP PUSH2 0x3186 DUP4 DUP3 PUSH2 0x35E0 JUMP JUMPDEST PUSH1 0x1 PUSH1 0x1 PUSH1 0xA0 SHL SUB AND PUSH1 0x80 DUP5 ADD MSTORE SWAP1 POP PUSH2 0x31A0 DUP4 DUP3 PUSH2 0x35E0 JUMP JUMPDEST PUSH1 0x1 PUSH1 0x1 PUSH1 0xA0 SHL SUB AND PUSH1 0xA0 DUP5 ADD MSTORE SWAP1 POP PUSH2 0x31BA DUP4 DUP3 PUSH2 0x35C7 JUMP JUMPDEST PUSH4 0xFFFFFFFF AND PUSH2 0x100 DUP5 ADD MSTORE SWAP1 POP PUSH2 0x31D2 DUP4 DUP3 PUSH2 0x371A JUMP JUMPDEST PUSH2 0x120 DUP5 ADD MSTORE SWAP1 POP PUSH2 0x31E4 DUP4 DUP3 PUSH2 0x37CC JUMP JUMPDEST PUSH1 0xFF AND PUSH1 0xC0 DUP5 ADD MSTORE SWAP1 POP PUSH2 0x31F8 DUP4 DUP3 PUSH2 0x372A JUMP JUMPDEST PUSH1 0xE0 DUP5 ADD MSTORE SWAP1 POP PUSH2 0x3209 DUP4 DUP3 PUSH2 0x35C7 JUMP JUMPDEST PUSH4 0xFFFFFFFF AND PUSH2 0x140 DUP5 ADD MSTORE SWAP1 POP PUSH2 0x3221 DUP4 DUP3 PUSH2 0x35C7 JUMP JUMPDEST PUSH4 0xFFFFFFFF AND PUSH2 0x160 DUP5 ADD MSTORE SWAP1 POP PUSH2 0x3239 DUP4 DUP3 PUSH2 0x35F0 JUMP JUMPDEST PUSH2 0xFFFF AND PUSH2 0x180 DUP5 ADD MSTORE SWAP1 POP PUSH2 0x324F DUP4 DUP3 PUSH2 0x35F0 JUMP JUMPDEST PUSH2 0xFFFF AND PUSH2 0x1A0 DUP5 ADD MSTORE SWAP1 POP PUSH1 0xB2 DUP2 EQ PUSH2 0x2CF5 JUMPI PUSH1 0x40 MLOAD PUSH3 0x461BCD PUSH1 0xE5 SHL DUP2 MSTORE PUSH1 0x4 ADD PUSH2 0x68F SWAP1 PUSH2 0x4A7E JUMP JUMPDEST DUP1 MLOAD SWAP2 DUP2 MSTORE PUSH1 0x20 SWAP1 SWAP2 ADD SWAP1 KECCAK256 SWAP1 JUMP JUMPDEST PUSH1 0x0 PUSH2 0x1CA2 DUP4 DUP4 PUSH1 0x40 MLOAD DUP1 PUSH1 0x40 ADD PUSH1 0x40 MSTORE DUP1 PUSH1 0x2 DUP2 MSTORE PUSH1 0x20 ADD PUSH2 0x6161 PUSH1 0xF0 SHL DUP2 MSTORE POP PUSH2 0x37F8 JUMP JUMPDEST PUSH1 0x60 DUP2 DUP4 ADD DUP5 MLOAD LT ISZERO PUSH2 0x32EF JUMPI PUSH1 0x40 DUP1 MLOAD PUSH3 0x461BCD PUSH1 0xE5 SHL DUP2 MSTORE PUSH1 0x20 PUSH1 0x4 DUP3 ADD MSTORE PUSH1 0x1 PUSH1 0x24 DUP3 ADD MSTORE PUSH1 0x2D PUSH1 0xF9 SHL PUSH1 0x44 DUP3 ADD MSTORE SWAP1 MLOAD SWAP1 DUP2 SWAP1 SUB PUSH1 0x64 ADD SWAP1 REVERT JUMPDEST PUSH1 0x0 DUP3 PUSH1 0x1 PUSH1 0x1 PUSH1 0x40 SHL SUB DUP2 GT DUP1 ISZERO PUSH2 0x3307 JUMPI PUSH1 0x0 DUP1 REVERT JUMPDEST POP PUSH1 0x40 MLOAD SWAP1 DUP1 DUP3 MSTORE DUP1 PUSH1 0x1F ADD PUSH1 0x1F NOT AND PUSH1 0x20 ADD DUP3 ADD PUSH1 0x40 MSTORE DUP1 ISZERO PUSH2 0x3332 JUMPI PUSH1 0x20 DUP3 ADD DUP2 DUP1 CALLDATASIZE DUP4 CALLDATACOPY ADD SWAP1 POP JUMPDEST POP SWAP1 POP DUP3 ISZERO PUSH2 0x3365 JUMPI PUSH1 0x20 DUP2 ADD DUP4 DUP2 ADD PUSH1 0x20 DUP7 ADD DUP8 ADD JUMPDEST DUP2 DUP4 LT ISZERO PUSH2 0x3361 JUMPI DUP1 MLOAD DUP4 MSTORE PUSH1 0x20 SWAP3 DUP4 ADD SWAP3 ADD PUSH2 0x3349 JUMP JUMPDEST POP POP POP JUMPDEST SWAP5 SWAP4 POP POP POP POP JUMP JUMPDEST PUSH2 0x3375 PUSH2 0x3C6E JUMP JUMPDEST PUSH1 0x1 PUSH2 0x3381 DUP4 DUP3 PUSH2 0x371A JUMP JUMPDEST PUSH1 0x20 DUP5 ADD MSTORE SWAP1 POP PUSH2 0x3392 DUP4 DUP3 PUSH2 0x371A JUMP JUMPDEST PUSH1 0x40 DUP5 ADD MSTORE SWAP1 POP PUSH1 0x41 DUP2 EQ PUSH2 0x2CF5 JUMPI PUSH1 0x40 MLOAD PUSH3 0x461BCD PUSH1 0xE5 SHL DUP2 MSTORE PUSH1 0x4 ADD PUSH2 0x68F SWAP1 PUSH2 0x4A7E JUMP JUMPDEST PUSH1 0x1 PUSH1 0x1 PUSH1 0x40 SHL SUB DUP2 AND PUSH1 0x0 SWAP1 DUP2 MSTORE PUSH1 0x7 PUSH1 0x20 MSTORE PUSH1 0x40 SWAP1 KECCAK256 SLOAD PUSH1 0x1 PUSH1 0xE0 SHL SWAP1 DIV PUSH1 0xFF AND PUSH1 0x1 DUP2 PUSH1 0xF DUP2 GT ISZERO PUSH2 0x33EA JUMPI INVALID JUMPDEST EQ PUSH2 0x3407 JUMPI PUSH1 0x40 MLOAD PUSH3 0x461BCD PUSH1 0xE5 SHL DUP2 MSTORE PUSH1 0x4 ADD PUSH2 0x68F SWAP1 PUSH2 0x49D7 JUMP JUMPDEST PUSH1 0x1 PUSH1 0x1 PUSH1 0x40 SHL SUB DUP3 AND PUSH1 0x0 SWAP1 DUP2 MSTORE PUSH1 0x7 PUSH1 0x20 MSTORE PUSH1 0x40 SWAP1 KECCAK256 SLOAD PUSH1 0x60 SHL PUSH2 0x342D DUP5 DUP3 PUSH2 0x385D JUMP JUMPDEST PUSH2 0x3449 JUMPI PUSH1 0x40 MLOAD PUSH3 0x461BCD PUSH1 0xE5 SHL DUP2 MSTORE PUSH1 0x4 ADD PUSH2 0x68F SWAP1 PUSH2 0x4AD1 JUMP JUMPDEST POP POP POP POP JUMP JUMPDEST PUSH1 0x1 PUSH1 0x1 PUSH1 0x40 SHL SUB DUP2 AND PUSH1 0x0 SWAP1 DUP2 MSTORE PUSH1 0x7 PUSH1 0x20 MSTORE PUSH1 0x40 SWAP1 KECCAK256 SLOAD PUSH1 0x1 PUSH1 0xE0 SHL SWAP1 DIV PUSH1 0xFF AND PUSH1 0x2 DUP2 PUSH1 0xF DUP2 GT ISZERO PUSH2 0x3480 JUMPI INVALID JUMPDEST EQ PUSH2 0x349D JUMPI PUSH1 0x40 MLOAD PUSH3 0x461BCD PUSH1 0xE5 SHL DUP2 MSTORE PUSH1 0x4 ADD PUSH2 0x68F SWAP1 PUSH2 0x49D7 JUMP JUMPDEST PUSH1 0x1 PUSH1 0x1 PUSH1 0x40 SHL SUB DUP3 AND PUSH1 0x0 SWAP1 DUP2 MSTORE PUSH1 0x7 PUSH1 0x20 MSTORE PUSH1 0x40 SWAP1 KECCAK256 SLOAD PUSH1 0x60 SHL PUSH2 0x342D DUP5 DUP3 PUSH2 0x388D JUMP JUMPDEST PUSH1 0x1 PUSH1 0x1 PUSH1 0x40 SHL SUB DUP2 AND PUSH1 0x0 SWAP1 DUP2 MSTORE PUSH1 0x7 PUSH1 0x20 MSTORE PUSH1 0x40 SWAP1 KECCAK256 SLOAD PUSH1 0x1 PUSH1 0xE0 SHL SWAP1 DIV PUSH1 0xFF AND PUSH1 0xE DUP2 PUSH1 0xF DUP2 GT ISZERO PUSH2 0x34F4 JUMPI INVALID JUMPDEST EQ PUSH2 0x3511 JUMPI PUSH1 0x40 MLOAD PUSH3 0x461BCD PUSH1 0xE5 SHL DUP2 MSTORE PUSH1 0x4 ADD PUSH2 0x68F SWAP1 PUSH2 0x4AEC JUMP JUMPDEST PUSH1 0x1 PUSH1 0x1 PUSH1 0x40 SHL SUB DUP3 AND PUSH1 0x0 SWAP1 DUP2 MSTORE PUSH1 0x7 PUSH1 0x20 MSTORE PUSH1 0x40 SWAP1 KECCAK256 SLOAD PUSH1 0x60 SHL PUSH2 0x3537 DUP5 DUP3 PUSH2 0x388D JUMP JUMPDEST PUSH2 0x3449 JUMPI PUSH1 0x40 MLOAD PUSH3 0x461BCD PUSH1 0xE5 SHL DUP2 MSTORE PUSH1 0x4 ADD PUSH2 0x68F SWAP1 PUSH2 0x4B07 JUMP JUMPDEST PUSH1 0x1 PUSH1 0x1 PUSH1 0x40 SHL SUB DUP2 AND PUSH1 0x0 SWAP1 DUP2 MSTORE PUSH1 0x7 PUSH1 0x20 MSTORE PUSH1 0x40 SWAP1 KECCAK256 SLOAD PUSH1 0x1 PUSH1 0xE0 SHL SWAP1 DIV PUSH1 0xFF AND PUSH1 0xF DUP2 PUSH1 0xF DUP2 GT ISZERO PUSH2 0x3584 JUMPI INVALID JUMPDEST EQ PUSH2 0x35A1 JUMPI PUSH1 0x40 MLOAD PUSH3 0x461BCD PUSH1 0xE5 SHL DUP2 MSTORE PUSH1 0x4 ADD PUSH2 0x68F SWAP1 PUSH2 0x4AEC JUMP JUMPDEST PUSH1 0x1 PUSH1 0x1 PUSH1 0x40 SHL SUB DUP3 AND PUSH1 0x0 SWAP1 DUP2 MSTORE PUSH1 0x7 PUSH1 0x20 MSTORE PUSH1 0x40 SWAP1 KECCAK256 SLOAD PUSH1 0x60 SHL PUSH2 0x3537 DUP5 DUP3 PUSH2 0x38A6 JUMP JUMPDEST PUSH1 0x4 DUP2 ADD PUSH1 0x0 PUSH2 0x35D7 DUP5 DUP5 PUSH2 0x38BF JUMP JUMPDEST SWAP1 POP SWAP3 POP SWAP3 SWAP1 POP JUMP JUMPDEST PUSH1 0x14 DUP2 ADD PUSH1 0x0 PUSH2 0x35D7 DUP5 DUP5 PUSH2 0x390D JUMP JUMPDEST PUSH1 0x2 DUP2 ADD PUSH1 0x0 PUSH2 0x35D7 DUP5 DUP5 PUSH2 0x3950 JUMP JUMPDEST PUSH1 0x10 DUP2 ADD PUSH1 0x0 PUSH2 0x35D7 DUP5 DUP5 PUSH2 0x3993 JUMP JUMPDEST PUSH1 0x0 DUP1 DUP4 PUSH1 0x1 PUSH1 0x1 PUSH1 0xA0 SHL SUB AND PUSH3 0x186A0 DUP5 PUSH1 0x40 MLOAD PUSH2 0x362E SWAP1 PUSH2 0xAB7 JUMP JUMPDEST PUSH1 0x0 PUSH1 0x40 MLOAD DUP1 DUP4 SUB DUP2 DUP6 DUP9 DUP9 CALL SWAP4 POP POP POP POP RETURNDATASIZE DUP1 PUSH1 0x0 DUP2 EQ PUSH2 0x366C JUMPI PUSH1 0x40 MLOAD SWAP2 POP PUSH1 0x1F NOT PUSH1 0x3F RETURNDATASIZE ADD AND DUP3 ADD PUSH1 0x40 MSTORE RETURNDATASIZE DUP3 MSTORE RETURNDATASIZE PUSH1 0x0 PUSH1 0x20 DUP5 ADD RETURNDATACOPY PUSH2 0x3671 JUMP JUMPDEST PUSH1 0x60 SWAP2 POP JUMPDEST POP SWAP1 SWAP6 SWAP5 POP POP POP POP POP JUMP JUMPDEST PUSH1 0x1 PUSH1 0x1 PUSH1 0x50 SHL SUB NOT DUP3 AND PUSH1 0x0 SWAP1 DUP2 MSTORE PUSH1 0xB PUSH1 0x20 MSTORE PUSH1 0x40 SWAP1 DUP2 SWAP1 KECCAK256 SLOAD DUP2 MLOAD DUP1 DUP4 ADD SWAP1 SWAP3 MSTORE PUSH1 0x1 PUSH1 0x1 PUSH1 0x80 SHL SUB AND SWAP1 DUP1 PUSH2 0x36B5 DUP4 DUP6 PUSH2 0x39D6 JUMP JUMPDEST PUSH1 0x1 PUSH1 0x1 PUSH1 0x80 SHL SUB SWAP1 DUP2 AND DUP3 MSTORE PUSH1 0xFF PUSH1 0x20 SWAP3 DUP4 ADD DUP2 SWAP1 MSTORE PUSH1 0x1 PUSH1 0x1 PUSH1 0x50 SHL SUB NOT SWAP1 SWAP7 AND PUSH1 0x0 SWAP1 DUP2 MSTORE PUSH1 0xB DUP4 MSTORE PUSH1 0x40 SWAP1 KECCAK256 DUP4 MLOAD DUP2 SLOAD SWAP5 SWAP1 SWAP4 ADD MLOAD SWAP1 SWAP7 AND PUSH1 0x1 PUSH1 0x80 SHL MUL PUSH1 0xFF PUSH1 0x80 SHL NOT SWAP3 SWAP1 SWAP2 AND PUSH1 0x1 PUSH1 0x1 PUSH1 0x80 SHL SUB NOT SWAP1 SWAP4 AND SWAP3 SWAP1 SWAP3 OR AND OR SWAP1 SWAP3 SSTORE POP POP JUMP JUMPDEST PUSH1 0x20 DUP2 ADD PUSH1 0x0 PUSH2 0x35D7 DUP5 DUP5 PUSH2 0x3A21 JUMP JUMPDEST PUSH1 0x20 DUP2 ADD PUSH1 0x0 PUSH2 0x35D7 DUP5 DUP5 PUSH2 0x3A64 JUMP JUMPDEST PUSH1 0x0 PUSH4 0xFFFFFFFF DUP5 AND PUSH2 0x374F JUMPI POP PUSH1 0x1 PUSH2 0x2431 JUMP JUMPDEST PUSH1 0x40 MLOAD PUSH4 0x2A7C58A9 PUSH1 0xE1 SHL DUP2 MSTORE PUSH1 0x1 PUSH1 0x1 PUSH1 0xA0 SHL SUB DUP8 AND SWAP1 PUSH4 0x54F8B152 SWAP1 PUSH2 0x3787 SWAP1 DUP12 SWAP1 DUP12 SWAP1 DUP12 SWAP1 DUP12 SWAP1 DUP12 SWAP1 DUP12 SWAP1 DUP12 SWAP1 PUSH1 0x4 ADD PUSH2 0x47A3 JUMP JUMPDEST PUSH1 0x0 PUSH1 0x40 MLOAD DUP1 DUP4 SUB DUP2 PUSH1 0x0 DUP8 DUP1 EXTCODESIZE ISZERO DUP1 ISZERO PUSH2 0x37A1 JUMPI PUSH1 0x0 DUP1 REVERT JUMPDEST POP GAS CALL SWAP3 POP POP POP DUP1 ISZERO PUSH2 0x37B2 JUMPI POP PUSH1 0x1 JUMPDEST PUSH2 0x37BE JUMPI POP PUSH1 0x0 PUSH2 0x2431 JUMP JUMPDEST POP PUSH1 0x1 SWAP8 SWAP7 POP POP POP POP POP POP POP JUMP JUMPDEST PUSH1 0x0 DUP1 DUP3 PUSH1 0x1 ADD SWAP2 POP DUP4 DUP4 DUP2 MLOAD DUP2 LT PUSH2 0x37E1 JUMPI INVALID JUMPDEST PUSH1 0x20 ADD ADD MLOAD PUSH1 0xF8 SHR PUSH1 0xF8 SHL PUSH1 0xF8 SHR SWAP1 POP SWAP3 POP SWAP3 SWAP1 POP JUMP JUMPDEST PUSH1 0x0 DUP4 PUSH1 0x1 PUSH1 0x1 PUSH1 0x80 SHL SUB AND DUP4 PUSH1 0x1 PUSH1 0x1 PUSH1 0x80 SHL SUB AND GT ISZERO DUP3 SWAP1 PUSH2 0x2922 JUMPI PUSH1 0x40 MLOAD PUSH3 0x461BCD PUSH1 0xE5 SHL DUP2 MSTORE PUSH1 0x20 PUSH1 0x4 DUP3 ADD DUP2 DUP2 MSTORE DUP4 MLOAD PUSH1 0x24 DUP5 ADD MSTORE DUP4 MLOAD SWAP1 SWAP3 DUP4 SWAP3 PUSH1 0x44 SWAP1 SWAP2 ADD SWAP2 SWAP1 DUP6 ADD SWAP1 DUP1 DUP4 DUP4 PUSH1 0x0 DUP4 ISZERO PUSH2 0x28E7 JUMPI DUP2 DUP2 ADD MLOAD DUP4 DUP3 ADD MSTORE PUSH1 0x20 ADD PUSH2 0x28CF JUMP JUMPDEST PUSH1 0x0 PUSH1 0x1 PUSH1 0x1 PUSH1 0x60 SHL SUB NOT DUP3 AND PUSH2 0x387B PUSH2 0x3876 DUP6 PUSH2 0x2870 JUMP JUMPDEST PUSH2 0x2959 JUMP JUMPDEST PUSH1 0x1 PUSH1 0x1 PUSH1 0x60 SHL SUB NOT AND EQ SWAP4 SWAP3 POP POP POP JUMP JUMPDEST PUSH1 0x0 PUSH1 0x1 PUSH1 0x1 PUSH1 0x60 SHL SUB NOT DUP3 AND PUSH2 0x387B PUSH2 0x3876 DUP6 PUSH2 0x292A JUMP JUMPDEST PUSH1 0x0 PUSH1 0x1 PUSH1 0x1 PUSH1 0x60 SHL SUB NOT DUP3 AND PUSH2 0x387B PUSH2 0x3876 DUP6 PUSH2 0x3AA7 JUMP JUMPDEST PUSH1 0x0 DUP1 DUP3 PUSH1 0x4 ADD SWAP1 POP DUP1 DUP5 MLOAD LT ISZERO PUSH2 0x3902 JUMPI PUSH1 0x40 DUP1 MLOAD PUSH3 0x461BCD PUSH1 0xE5 SHL DUP2 MSTORE PUSH1 0x20 PUSH1 0x4 DUP3 ADD MSTORE PUSH1 0x1 PUSH1 0x24 DUP3 ADD MSTORE PUSH1 0x2B PUSH1 0xF9 SHL PUSH1 0x44 DUP3 ADD MSTORE SWAP1 MLOAD SWAP1 DUP2 SWAP1 SUB PUSH1 0x64 ADD SWAP1 REVERT JUMPDEST SWAP3 SWAP1 SWAP3 ADD MLOAD SWAP3 SWAP2 POP POP JUMP JUMPDEST PUSH1 0x0 DUP1 DUP3 PUSH1 0x14 ADD SWAP1 POP DUP1 DUP5 MLOAD LT ISZERO PUSH2 0x3902 JUMPI PUSH1 0x40 DUP1 MLOAD PUSH3 0x461BCD PUSH1 0xE5 SHL DUP2 MSTORE PUSH1 0x20 PUSH1 0x4 DUP3 ADD MSTORE PUSH1 0x1 PUSH1 0x24 DUP3 ADD MSTORE PUSH1 0x29 PUSH1 0xF9 SHL PUSH1 0x44 DUP3 ADD MSTORE SWAP1 MLOAD SWAP1 DUP2 SWAP1 SUB PUSH1 0x64 ADD SWAP1 REVERT JUMPDEST PUSH1 0x0 DUP1 DUP3 PUSH1 0x2 ADD SWAP1 POP DUP1 DUP5 MLOAD LT ISZERO PUSH2 0x3902 JUMPI PUSH1 0x40 DUP1 MLOAD PUSH3 0x461BCD PUSH1 0xE5 SHL DUP2 MSTORE PUSH1 0x20 PUSH1 0x4 DUP3 ADD MSTORE PUSH1 0x1 PUSH1 0x24 DUP3 ADD MSTORE PUSH1 0x15 PUSH1 0xFA SHL PUSH1 0x44 DUP3 ADD MSTORE SWAP1 MLOAD SWAP1 DUP2 SWAP1 SUB PUSH1 0x64 ADD SWAP1 REVERT JUMPDEST PUSH1 0x0 DUP1 DUP3 PUSH1 0x10 ADD SWAP1 POP DUP1 DUP5 MLOAD LT ISZERO PUSH2 0x3902 JUMPI PUSH1 0x40 DUP1 MLOAD PUSH3 0x461BCD PUSH1 0xE5 SHL DUP2 MSTORE PUSH1 0x20 PUSH1 0x4 DUP3 ADD MSTORE PUSH1 0x1 PUSH1 0x24 DUP3 ADD MSTORE PUSH1 0x57 PUSH1 0xF8 SHL PUSH1 0x44 DUP3 ADD MSTORE SWAP1 MLOAD SWAP1 DUP2 SWAP1 SUB PUSH1 0x64 ADD SWAP1 REVERT JUMPDEST PUSH1 0x0 DUP3 DUP3 ADD PUSH1 0x1 PUSH1 0x1 PUSH1 0x80 SHL SUB DUP1 DUP6 AND SWAP1 DUP3 AND LT ISZERO PUSH2 0x1CA2 JUMPI PUSH1 0x40 DUP1 MLOAD PUSH3 0x461BCD PUSH1 0xE5 SHL DUP2 MSTORE PUSH1 0x20 PUSH1 0x4 DUP3 ADD MSTORE PUSH1 0x2 PUSH1 0x24 DUP3 ADD MSTORE PUSH2 0x1899 PUSH1 0xF1 SHL PUSH1 0x44 DUP3 ADD MSTORE SWAP1 MLOAD SWAP1 DUP2 SWAP1 SUB PUSH1 0x64 ADD SWAP1 REVERT JUMPDEST PUSH1 0x0 DUP1 DUP3 PUSH1 0x20 ADD SWAP1 POP DUP1 DUP5 MLOAD LT ISZERO PUSH2 0x3902 JUMPI PUSH1 0x40 DUP1 MLOAD PUSH3 0x461BCD PUSH1 0xE5 SHL DUP2 MSTORE PUSH1 0x20 PUSH1 0x4 DUP3 ADD MSTORE PUSH1 0x1 PUSH1 0x24 DUP3 ADD MSTORE PUSH1 0x59 PUSH1 0xF8 SHL PUSH1 0x44 DUP3 ADD MSTORE SWAP1 MLOAD SWAP1 DUP2 SWAP1 SUB PUSH1 0x64 ADD SWAP1 REVERT JUMPDEST PUSH1 0x0 DUP1 DUP3 PUSH1 0x20 ADD SWAP1 POP DUP1 DUP5 MLOAD LT ISZERO PUSH2 0x3902 JUMPI PUSH1 0x40 DUP1 MLOAD PUSH3 0x461BCD PUSH1 0xE5 SHL DUP2 MSTORE PUSH1 0x20 PUSH1 0x4 DUP3 ADD MSTORE PUSH1 0x1 PUSH1 0x24 DUP3 ADD MSTORE PUSH1 0x57 PUSH1 0xF8 SHL PUSH1 0x44 DUP3 ADD MSTORE SWAP1 MLOAD SWAP1 DUP2 SWAP1 SUB PUSH1 0x64 ADD SWAP1 REVERT JUMPDEST PUSH1 0x60 DUP2 PUSH1 0x0 ADD MLOAD DUP3 PUSH1 0x20 ADD MLOAD DUP4 PUSH1 0x40 ADD MLOAD DUP5 PUSH1 0x60 ADD MLOAD DUP6 PUSH1 0x80 ADD MLOAD DUP7 PUSH1 0xA0 ADD MLOAD DUP8 PUSH1 0xE0 ADD MLOAD DUP9 PUSH2 0x100 ADD MLOAD DUP10 PUSH2 0x120 ADD MLOAD DUP11 PUSH2 0x140 ADD MLOAD PUSH1 0x40 MLOAD PUSH1 0x20 ADD PUSH2 0x20D6 SWAP11 SWAP10 SWAP9 SWAP8 SWAP7 SWAP6 SWAP5 SWAP4 SWAP3 SWAP2 SWAP1 PUSH2 0x4655 JUMP JUMPDEST PUSH1 0x40 DUP1 MLOAD PUSH1 0xC0 DUP2 ADD DUP3 MSTORE PUSH1 0x0 DUP1 DUP3 MSTORE PUSH1 0x20 DUP3 ADD DUP2 SWAP1 MSTORE SWAP2 DUP2 ADD DUP3 SWAP1 MSTORE PUSH1 0x60 DUP2 ADD DUP3 SWAP1 MSTORE PUSH1 0x80 DUP2 ADD DUP3 SWAP1 MSTORE PUSH1 0xA0 DUP2 ADD SWAP2 SWAP1 SWAP2 MSTORE SWAP1 JUMP JUMPDEST PUSH1 0x40 DUP1 MLOAD PUSH2 0x100 DUP2 ADD DUP3 MSTORE PUSH1 0x0 DUP1 DUP3 MSTORE PUSH1 0x20 DUP3 ADD DUP2 SWAP1 MSTORE SWAP2 DUP2 ADD DUP3 SWAP1 MSTORE PUSH1 0x60 DUP2 ADD DUP3 SWAP1 MSTORE PUSH1 0x80 DUP2 ADD DUP3 SWAP1 MSTORE PUSH1 0xA0 DUP2 ADD DUP3 SWAP1 MSTORE PUSH1 0xC0 DUP2 ADD DUP3 SWAP1 MSTORE PUSH1 0xE0 DUP2 ADD SWAP2 SWAP1 SWAP2 MSTORE SWAP1 JUMP JUMPDEST PUSH1 0x40 DUP1 MLOAD PUSH1 0xA0 DUP2 ADD DUP3 MSTORE PUSH1 0x0 DUP1 DUP3 MSTORE PUSH1 0x20 DUP3 ADD DUP2 SWAP1 MSTORE SWAP2 DUP2 ADD DUP3 SWAP1 MSTORE PUSH1 0x60 DUP2 ADD DUP3 SWAP1 MSTORE PUSH1 0x80 DUP2 ADD SWAP2 SWAP1 SWAP2 MSTORE SWAP1 JUMP JUMPDEST PUSH1 0x40 DUP1 MLOAD PUSH2 0x160 DUP2 ADD DUP3 MSTORE PUSH1 0x0 DUP1 DUP3 MSTORE PUSH1 0x20 DUP3 ADD DUP2 SWAP1 MSTORE SWAP2 DUP2 ADD DUP3 SWAP1 MSTORE PUSH1 0x60 DUP2 ADD DUP3 SWAP1 MSTORE PUSH1 0x80 DUP2 ADD DUP3 SWAP1 MSTORE PUSH1 0xA0 DUP2 ADD DUP3 SWAP1 MSTORE PUSH1 0xC0 DUP2 ADD DUP3 SWAP1 MSTORE PUSH1 0xE0 DUP2 ADD DUP3 SWAP1 MSTORE PUSH2 0x100 DUP2 ADD DUP3 SWAP1 MSTORE PUSH2 0x120 DUP2 ADD DUP3 SWAP1 MSTORE PUSH2 0x140 DUP2 ADD SWAP2 SWAP1 SWAP2 MSTORE SWAP1 JUMP JUMPDEST PUSH1 0x40 DUP1 MLOAD PUSH2 0x1C0 DUP2 ADD DUP3 MSTORE PUSH1 0x0 DUP1 DUP3 MSTORE PUSH1 0x20 DUP3 ADD DUP2 SWAP1 MSTORE SWAP2 DUP2 ADD DUP3 SWAP1 MSTORE PUSH1 0x60 DUP2 ADD DUP3 SWAP1 MSTORE PUSH1 0x80 DUP2 ADD DUP3 SWAP1 MSTORE PUSH1 0xA0 DUP2 ADD DUP3 SWAP1 MSTORE PUSH1 0xC0 DUP2 ADD DUP3 SWAP1 MSTORE PUSH1 0xE0 DUP2 ADD DUP3 SWAP1 MSTORE PUSH2 0x100 DUP2 ADD DUP3 SWAP1 MSTORE PUSH2 0x120 DUP2 ADD DUP3 SWAP1 MSTORE PUSH2 0x140 DUP2 ADD DUP3 SWAP1 MSTORE PUSH2 0x160 DUP2 ADD DUP3 SWAP1 MSTORE PUSH2 0x180 DUP2 ADD DUP3 SWAP1 MSTORE PUSH2 0x1A0 DUP2 ADD SWAP2 SWAP1 SWAP2 MSTORE SWAP1 JUMP JUMPDEST PUSH1 0x40 DUP1 MLOAD PUSH1 0x60 DUP2 ADD DUP3 MSTORE PUSH1 0x0 DUP1 DUP3 MSTORE PUSH1 0x20 DUP3 ADD DUP2 SWAP1 MSTORE SWAP2 DUP2 ADD SWAP2 SWAP1 SWAP2 MSTORE SWAP1 JUMP JUMPDEST PUSH1 0x0 DUP3 PUSH1 0x1F DUP4 ADD SLT PUSH2 0x3C9E JUMPI DUP1 DUP2 REVERT JUMPDEST DUP2 CALLDATALOAD PUSH1 0x20 PUSH2 0x3CB3 PUSH2 0x3CAE DUP4 PUSH2 0x4D85 JUMP JUMPDEST PUSH2 0x4D62 JUMP JUMPDEST DUP3 DUP2 MSTORE DUP2 DUP2 ADD SWAP1 DUP6 DUP4 ADD DUP6 JUMPDEST DUP6 DUP2 LT ISZERO PUSH2 0x3D82 JUMPI DUP2 CALLDATALOAD DUP9 ADD PUSH1 0xA0 DUP1 PUSH1 0x1F NOT DUP4 DUP14 SUB ADD SLT ISZERO PUSH2 0x3CDF JUMPI DUP9 DUP10 REVERT JUMPDEST PUSH1 0x40 DUP1 MLOAD DUP3 DUP2 ADD PUSH1 0x1 PUSH1 0x1 PUSH1 0x40 SHL SUB DUP3 DUP3 LT DUP2 DUP4 GT OR ISZERO PUSH2 0x3CFC JUMPI INVALID JUMPDEST SWAP1 DUP4 MSTORE DUP5 DUP11 ADD CALLDATALOAD DUP3 MSTORE DUP5 DUP4 ADD CALLDATALOAD SWAP1 DUP1 DUP3 GT ISZERO PUSH2 0x3D16 JUMPI DUP13 DUP14 REVERT JUMPDEST PUSH2 0x3D24 DUP16 DUP13 DUP5 DUP10 ADD ADD PUSH2 0x3E90 JUMP JUMPDEST DUP12 DUP5 ADD MSTORE PUSH1 0x60 DUP7 ADD CALLDATALOAD DUP5 DUP5 ADD MSTORE PUSH1 0x80 SWAP4 POP DUP4 DUP7 ADD CALLDATALOAD SWAP2 POP DUP1 DUP3 GT ISZERO PUSH2 0x3D47 JUMPI DUP13 DUP14 REVERT JUMPDEST POP PUSH2 0x3D56 DUP15 DUP12 DUP4 DUP9 ADD ADD PUSH2 0x3DE9 JUMP JUMPDEST PUSH1 0x60 DUP4 ADD MSTORE POP PUSH2 0x3D67 DUP4 DUP6 ADD PUSH2 0x3F80 JUMP JUMPDEST SWAP2 DUP2 ADD SWAP2 SWAP1 SWAP2 MSTORE DUP7 MSTORE POP POP SWAP3 DUP5 ADD SWAP3 SWAP1 DUP5 ADD SWAP1 PUSH1 0x1 ADD PUSH2 0x3CBF JUMP JUMPDEST POP SWAP1 SWAP8 SWAP7 POP POP POP POP POP POP POP JUMP JUMPDEST PUSH1 0x0 DUP3 PUSH1 0x1F DUP4 ADD SLT PUSH2 0x3D9F JUMPI DUP1 DUP2 REVERT JUMPDEST DUP2 CALLDATALOAD PUSH1 0x20 PUSH2 0x3DAF PUSH2 0x3CAE DUP4 PUSH2 0x4D85 JUMP JUMPDEST DUP3 DUP2 MSTORE DUP2 DUP2 ADD SWAP1 DUP6 DUP4 ADD DUP4 DUP6 MUL DUP8 ADD DUP5 ADD DUP9 LT ISZERO PUSH2 0x3DCB JUMPI DUP6 DUP7 REVERT JUMPDEST DUP6 JUMPDEST DUP6 DUP2 LT ISZERO PUSH2 0x3D82 JUMPI DUP2 CALLDATALOAD DUP5 MSTORE SWAP3 DUP5 ADD SWAP3 SWAP1 DUP5 ADD SWAP1 PUSH1 0x1 ADD PUSH2 0x3DCD JUMP JUMPDEST PUSH1 0x0 DUP3 PUSH1 0x1F DUP4 ADD SLT PUSH2 0x3DF9 JUMPI DUP1 DUP2 REVERT JUMPDEST DUP2 CALLDATALOAD PUSH1 0x20 PUSH2 0x3E09 PUSH2 0x3CAE DUP4 PUSH2 0x4D85 JUMP JUMPDEST DUP3 DUP2 MSTORE DUP2 DUP2 ADD SWAP1 DUP6 DUP4 ADD DUP4 DUP6 MUL DUP8 ADD DUP5 ADD DUP9 LT ISZERO PUSH2 0x3E25 JUMPI DUP6 DUP7 REVERT JUMPDEST DUP6 JUMPDEST DUP6 DUP2 LT ISZERO PUSH2 0x3D82 JUMPI PUSH2 0x3E38 DUP3 PUSH2 0x3F80 JUMP JUMPDEST DUP5 MSTORE SWAP3 DUP5 ADD SWAP3 SWAP1 DUP5 ADD SWAP1 PUSH1 0x1 ADD PUSH2 0x3E27 JUMP JUMPDEST PUSH1 0x0 DUP1 DUP4 PUSH1 0x1F DUP5 ADD SLT PUSH2 0x3E5B JUMPI DUP2 DUP3 REVERT JUMPDEST POP DUP2 CALLDATALOAD PUSH1 0x1 PUSH1 0x1 PUSH1 0x40 SHL SUB DUP2 GT ISZERO PUSH2 0x3E71 JUMPI DUP2 DUP3 REVERT JUMPDEST PUSH1 0x20 DUP4 ADD SWAP2 POP DUP4 PUSH1 0x20 DUP3 DUP6 ADD ADD GT ISZERO PUSH2 0x3E89 JUMPI PUSH1 0x0 DUP1 REVERT JUMPDEST SWAP3 POP SWAP3 SWAP1 POP JUMP JUMPDEST PUSH1 0x0 DUP3 PUSH1 0x1F DUP4 ADD SLT PUSH2 0x3EA0 JUMPI DUP1 DUP2 REVERT JUMPDEST DUP2 CALLDATALOAD PUSH1 0x1 PUSH1 0x1 PUSH1 0x40 SHL SUB DUP2 GT ISZERO PUSH2 0x3EB3 JUMPI INVALID JUMPDEST PUSH2 0x3EC6 PUSH1 0x1F DUP3 ADD PUSH1 0x1F NOT AND PUSH1 0x20 ADD PUSH2 0x4D62 JUMP JUMPDEST DUP2 DUP2 MSTORE DUP5 PUSH1 0x20 DUP4 DUP7 ADD ADD GT ISZERO PUSH2 0x3EDA JUMPI DUP3 DUP4 REVERT JUMPDEST DUP2 PUSH1 0x20 DUP6 ADD PUSH1 0x20 DUP4 ADD CALLDATACOPY SWAP1 DUP2 ADD PUSH1 0x20 ADD SWAP2 SWAP1 SWAP2 MSTORE SWAP3 SWAP2 POP POP JUMP JUMPDEST PUSH1 0x0 PUSH1 0xC0 DUP3 DUP5 SUB SLT ISZERO PUSH2 0x3F05 JUMPI DUP1 DUP2 REVERT JUMPDEST PUSH1 0x40 MLOAD PUSH1 0xC0 DUP2 ADD PUSH1 0x1 PUSH1 0x1 PUSH1 0x40 SHL SUB DUP3 DUP3 LT DUP2 DUP4 GT OR ISZERO PUSH2 0x3F22 JUMPI INVALID JUMPDEST DUP2 PUSH1 0x40 MSTORE DUP3 SWAP4 POP PUSH2 0x3F32 DUP6 PUSH2 0x3F80 JUMP JUMPDEST DUP4 MSTORE PUSH1 0x20 DUP6 ADD CALLDATALOAD SWAP2 POP DUP1 DUP3 AND DUP3 EQ PUSH2 0x3F49 JUMPI PUSH1 0x0 DUP1 REVERT JUMPDEST POP DUP1 PUSH1 0x20 DUP4 ADD MSTORE POP PUSH1 0x40 DUP4 ADD CALLDATALOAD PUSH1 0x40 DUP3 ADD MSTORE PUSH1 0x60 DUP4 ADD CALLDATALOAD PUSH1 0x60 DUP3 ADD MSTORE PUSH1 0x80 DUP4 ADD CALLDATALOAD PUSH1 0x80 DUP3 ADD MSTORE PUSH1 0xA0 DUP4 ADD CALLDATALOAD PUSH1 0xA0 DUP3 ADD MSTORE POP SWAP3 SWAP2 POP POP JUMP JUMPDEST DUP1 CALLDATALOAD PUSH4 0xFFFFFFFF DUP2 AND DUP2 EQ PUSH2 0x9EC JUMPI PUSH1 0x0 DUP1 REVERT JUMPDEST PUSH1 0x0 PUSH1 0x20 DUP3 DUP5 SUB SLT ISZERO PUSH2 0x3FA5 JUMPI DUP1 DUP2 REVERT JUMPDEST DUP2 MLOAD PUSH2 0x1CA2 DUP2 PUSH2 0x4DA2 JUMP JUMPDEST PUSH1 0x0 DUP1 PUSH1 0x0 DUP1 PUSH1 0x0 PUSH1 0xA0 DUP7 DUP9 SUB SLT ISZERO PUSH2 0x3FC7 JUMPI DUP1 DUP2 REVERT JUMPDEST DUP6 CALLDATALOAD PUSH2 0x3FD2 DUP2 PUSH2 0x4DA2 JUMP JUMPDEST SWAP5 POP PUSH1 0x20 DUP7 ADD CALLDATALOAD PUSH2 0x3FE2 DUP2 PUSH2 0x4DA2 JUMP JUMPDEST SWAP4 POP PUSH1 0x40 DUP7 ADD CALLDATALOAD PUSH2 0x3FF2 DUP2 PUSH2 0x4DA2 JUMP JUMPDEST SWAP3 POP PUSH1 0x60 DUP7 ADD CALLDATALOAD PUSH2 0x4002 DUP2 PUSH2 0x4DA2 JUMP JUMPDEST SWAP5 SWAP8 SWAP4 SWAP7 POP SWAP2 SWAP5 PUSH1 0x80 ADD CALLDATALOAD SWAP3 SWAP2 POP POP JUMP JUMPDEST PUSH1 0x0 DUP1 PUSH1 0x0 PUSH1 0x60 DUP5 DUP7 SUB SLT ISZERO PUSH2 0x4027 JUMPI DUP1 DUP2 REVERT JUMPDEST DUP4 CALLDATALOAD PUSH2 0x4032 DUP2 PUSH2 0x4DA2 JUMP JUMPDEST SWAP3 POP PUSH1 0x20 DUP5 ADD CALLDATALOAD PUSH2 0x4042 DUP2 PUSH2 0x4DA2 JUMP JUMPDEST SWAP2 POP PUSH1 0x40 DUP5 ADD CALLDATALOAD PUSH2 0x4052 DUP2 PUSH2 0x4DB7 JUMP JUMPDEST DUP1 SWAP2 POP POP SWAP3 POP SWAP3 POP SWAP3 JUMP JUMPDEST PUSH1 0x0 DUP1 PUSH1 0x40 DUP4 DUP6 SUB SLT ISZERO PUSH2 0x406F JUMPI DUP2 DUP3 REVERT JUMPDEST DUP3 CALLDATALOAD PUSH2 0x407A DUP2 PUSH2 0x4DA2 JUMP JUMPDEST SWAP2 POP PUSH1 0x20 DUP4 ADD CALLDATALOAD PUSH2 0x408A DUP2 PUSH2 0x4DA2 JUMP JUMPDEST DUP1 SWAP2 POP POP SWAP3 POP SWAP3 SWAP1 POP JUMP JUMPDEST PUSH1 0x0 PUSH1 0x20 DUP3 DUP5 SUB SLT ISZERO PUSH2 0x40A6 JUMPI DUP1 DUP2 REVERT JUMPDEST DUP2 CALLDATALOAD PUSH1 0x1 PUSH1 0x1 PUSH1 0x40 SHL SUB DUP2 GT ISZERO PUSH2 0x40BB JUMPI DUP2 DUP3 REVERT JUMPDEST PUSH2 0x3365 DUP5 DUP3 DUP6 ADD PUSH2 0x3C8E JUMP JUMPDEST PUSH1 0x0 DUP1 PUSH1 0x40 DUP4 DUP6 SUB SLT ISZERO PUSH2 0x40D9 JUMPI DUP2 DUP3 REVERT JUMPDEST PUSH1 0x1 PUSH1 0x1 PUSH1 0x40 SHL SUB DUP4 CALLDATALOAD GT ISZERO PUSH2 0x40ED JUMPI DUP2 DUP3 REVERT JUMPDEST DUP4 PUSH1 0x1F DUP5 CALLDATALOAD DUP6 ADD ADD SLT PUSH2 0x40FE JUMPI DUP2 DUP3 REVERT JUMPDEST PUSH2 0x410E PUSH2 0x3CAE DUP5 CALLDATALOAD DUP6 ADD CALLDATALOAD PUSH2 0x4D85 JUMP JUMPDEST DUP4 CALLDATALOAD DUP5 ADD DUP1 CALLDATALOAD DUP3 MSTORE PUSH1 0x20 DUP1 DUP4 ADD SWAP3 SWAP2 ADD DUP5 JUMPDEST DUP7 CALLDATALOAD DUP8 ADD CALLDATALOAD DUP2 LT ISZERO PUSH2 0x4225 JUMPI DUP7 CALLDATALOAD DUP8 ADD DUP3 CALLDATALOAD ADD PUSH1 0xE0 DUP2 DUP11 SUB PUSH1 0x1F NOT ADD SLT ISZERO PUSH2 0x4146 JUMPI DUP7 DUP8 REVERT JUMPDEST PUSH1 0x40 MLOAD DUP1 PUSH1 0x40 DUP3 ADD LT PUSH1 0x1 PUSH1 0x1 PUSH1 0x40 SHL SUB PUSH1 0x40 DUP4 ADD GT OR ISZERO PUSH2 0x4164 JUMPI INVALID JUMPDEST PUSH1 0x40 DUP2 ADD PUSH1 0x40 MSTORE PUSH2 0x4178 DUP11 PUSH1 0x20 DUP5 ADD PUSH2 0x3EF4 JUMP JUMPDEST DUP2 MSTORE PUSH1 0x1 PUSH1 0x1 PUSH1 0x40 SHL SUB PUSH1 0xE0 DUP4 ADD CALLDATALOAD GT ISZERO PUSH2 0x4191 JUMPI DUP8 DUP9 REVERT JUMPDEST DUP10 PUSH1 0x3F PUSH1 0xE0 DUP5 ADD CALLDATALOAD DUP5 ADD ADD SLT PUSH2 0x41A5 JUMPI DUP8 DUP9 REVERT JUMPDEST PUSH1 0x20 PUSH1 0xE0 DUP4 ADD CALLDATALOAD DUP4 ADD ADD CALLDATALOAD PUSH2 0x41BC PUSH2 0x3CAE DUP3 PUSH2 0x4D85 JUMP JUMPDEST DUP2 DUP2 MSTORE PUSH1 0x20 DUP2 ADD SWAP1 PUSH1 0xE0 DUP6 ADD CALLDATALOAD DUP6 ADD PUSH1 0x40 ADD DUP12 JUMPDEST DUP5 DUP2 LT ISZERO PUSH2 0x4203 JUMPI PUSH2 0x41EE DUP16 PUSH1 0x40 DUP5 CALLDATALOAD PUSH1 0xE0 DUP12 ADD CALLDATALOAD DUP12 ADD ADD ADD PUSH2 0x3E90 JUMP JUMPDEST DUP5 MSTORE PUSH1 0x20 SWAP4 DUP5 ADD SWAP4 SWAP2 SWAP1 SWAP2 ADD SWAP1 PUSH1 0x1 ADD PUSH2 0x41D0 JUMP JUMPDEST POP POP PUSH1 0x20 DUP5 DUP2 ADD SWAP2 SWAP1 SWAP2 MSTORE SWAP3 DUP9 MSTORE POP POP SWAP5 DUP6 ADD SWAP5 SWAP3 SWAP1 SWAP3 ADD SWAP2 POP PUSH1 0x1 ADD PUSH2 0x4120 JUMP JUMPDEST POP SWAP1 SWAP4 POP POP POP PUSH1 0x1 PUSH1 0x1 PUSH1 0x40 SHL SUB PUSH1 0x20 DUP5 ADD CALLDATALOAD GT ISZERO PUSH2 0x4242 JUMPI DUP1 DUP2 REVERT JUMPDEST PUSH2 0x35D7 DUP5 PUSH1 0x20 DUP6 ADD CALLDATALOAD DUP6 ADD PUSH2 0x3D8F JUMP JUMPDEST PUSH1 0x0 PUSH1 0x20 DUP3 DUP5 SUB SLT ISZERO PUSH2 0x4263 JUMPI DUP1 DUP2 REVERT JUMPDEST DUP2 MLOAD DUP1 ISZERO ISZERO DUP2 EQ PUSH2 0x1CA2 JUMPI DUP2 DUP3 REVERT JUMPDEST PUSH1 0x0 PUSH1 0x20 DUP3 DUP5 SUB SLT ISZERO PUSH2 0x4283 JUMPI DUP1 DUP2 REVERT JUMPDEST POP CALLDATALOAD SWAP2 SWAP1 POP JUMP JUMPDEST PUSH1 0x0 PUSH1 0x20 DUP3 DUP5 SUB SLT ISZERO PUSH2 0x429B JUMPI DUP1 DUP2 REVERT JUMPDEST POP MLOAD SWAP2 SWAP1 POP JUMP JUMPDEST PUSH1 0x0 DUP1 PUSH1 0x0 DUP1 PUSH1 0x0 PUSH1 0xA0 DUP7 DUP9 SUB SLT ISZERO PUSH2 0x42B9 JUMPI DUP3 DUP4 REVERT JUMPDEST DUP6 CALLDATALOAD SWAP5 POP PUSH1 0x20 DUP7 ADD CALLDATALOAD PUSH2 0x42CB DUP2 PUSH2 0x4DA2 JUMP JUMPDEST SWAP4 POP PUSH1 0x40 DUP7 ADD CALLDATALOAD PUSH1 0x2 DUP2 LT PUSH2 0x42DE JUMPI DUP4 DUP5 REVERT JUMPDEST SWAP3 POP PUSH1 0x60 DUP7 ADD CALLDATALOAD SWAP2 POP PUSH2 0x42F3 PUSH1 0x80 DUP8 ADD PUSH2 0x3F80 JUMP JUMPDEST SWAP1 POP SWAP3 SWAP6 POP SWAP3 SWAP6 SWAP1 SWAP4 POP JUMP JUMPDEST PUSH1 0x0 DUP1 PUSH1 0x20 DUP4 DUP6 SUB SLT ISZERO PUSH2 0x4311 JUMPI DUP2 DUP3 REVERT JUMPDEST DUP3 CALLDATALOAD PUSH1 0x1 PUSH1 0x1 PUSH1 0x40 SHL SUB DUP2 GT ISZERO PUSH2 0x4326 JUMPI DUP3 DUP4 REVERT JUMPDEST PUSH2 0x4332 DUP6 DUP3 DUP7 ADD PUSH2 0x3E4A JUMP JUMPDEST SWAP1 SWAP7 SWAP1 SWAP6 POP SWAP4 POP POP POP POP JUMP JUMPDEST PUSH1 0x0 PUSH1 0x20 DUP3 DUP5 SUB SLT ISZERO PUSH2 0x434F JUMPI DUP1 DUP2 REVERT JUMPDEST DUP2 CALLDATALOAD PUSH1 0x1 PUSH1 0x1 PUSH1 0x40 SHL SUB DUP2 GT ISZERO PUSH2 0x4364 JUMPI DUP2 DUP3 REVERT JUMPDEST PUSH2 0x3365 DUP5 DUP3 DUP6 ADD PUSH2 0x3E90 JUMP JUMPDEST PUSH1 0x0 DUP1 PUSH1 0x0 DUP1 PUSH1 0x80 DUP6 DUP8 SUB SLT ISZERO PUSH2 0x4385 JUMPI DUP2 DUP3 REVERT JUMPDEST DUP5 CALLDATALOAD PUSH2 0x4390 DUP2 PUSH2 0x4DA2 JUMP JUMPDEST SWAP4 POP PUSH1 0x20 DUP6 ADD CALLDATALOAD PUSH2 0x43A0 DUP2 PUSH2 0x4DA2 JUMP JUMPDEST SWAP3 POP PUSH1 0x40 DUP6 ADD CALLDATALOAD PUSH2 0x43B0 DUP2 PUSH2 0x4DB7 JUMP JUMPDEST SWAP2 POP PUSH1 0x60 DUP6 ADD CALLDATALOAD PUSH2 0x43C0 DUP2 PUSH2 0x4DB7 JUMP JUMPDEST SWAP4 SWAP7 SWAP3 SWAP6 POP SWAP1 SWAP4 POP POP JUMP JUMPDEST PUSH1 0x0 DUP1 PUSH1 0x0 PUSH1 0x60 DUP5 DUP7 SUB SLT ISZERO PUSH2 0x43DF JUMPI DUP1 DUP2 REVERT JUMPDEST DUP4 CALLDATALOAD PUSH2 0x43EA DUP2 PUSH2 0x4DA2 JUMP JUMPDEST SWAP3 POP PUSH1 0x20 DUP5 ADD CALLDATALOAD PUSH1 0x1 PUSH1 0x1 PUSH1 0x68 SHL SUB DUP2 AND DUP2 EQ PUSH2 0x4405 JUMPI DUP2 DUP3 REVERT JUMPDEST SWAP3 SWAP6 SWAP3 SWAP5 POP POP POP PUSH1 0x40 SWAP2 SWAP1 SWAP2 ADD CALLDATALOAD SWAP1 JUMP JUMPDEST PUSH1 0x0 DUP1 PUSH1 0x0 DUP1 PUSH1 0x60 DUP6 DUP8 SUB SLT ISZERO PUSH2 0x442B JUMPI DUP2 DUP3 REVERT JUMPDEST DUP5 CALLDATALOAD PUSH1 0x1 PUSH1 0x1 PUSH1 0x40 SHL SUB DUP2 GT ISZERO PUSH2 0x4440 JUMPI DUP3 DUP4 REVERT JUMPDEST PUSH2 0x444C DUP8 DUP3 DUP9 ADD PUSH2 0x3E4A JUMP JUMPDEST SWAP1 SWAP6 POP SWAP4 POP POP PUSH1 0x20 DUP6 ADD CALLDATALOAD PUSH2 0x4460 DUP2 PUSH2 0x4DA2 JUMP JUMPDEST SWAP4 SWAP7 SWAP3 SWAP6 POP SWAP3 SWAP4 PUSH1 0x40 ADD CALLDATALOAD SWAP3 POP POP JUMP JUMPDEST PUSH1 0x0 DUP1 PUSH1 0xE0 DUP4 DUP6 SUB SLT ISZERO PUSH2 0x4482 JUMPI DUP2 DUP3 REVERT JUMPDEST PUSH2 0x448C DUP5 DUP5 PUSH2 0x3EF4 JUMP JUMPDEST SWAP2 POP PUSH1 0xC0 DUP4 ADD CALLDATALOAD PUSH1 0x1 PUSH1 0x1 PUSH1 0x40 SHL SUB DUP2 GT ISZERO PUSH2 0x44A6 JUMPI DUP2 DUP3 REVERT JUMPDEST PUSH2 0x44B2 DUP6 DUP3 DUP7 ADD PUSH2 0x3C8E JUMP JUMPDEST SWAP2 POP POP SWAP3 POP SWAP3 SWAP1 POP JUMP JUMPDEST PUSH1 0x0 PUSH1 0x20 DUP3 DUP5 SUB SLT ISZERO PUSH2 0x44CD JUMPI DUP1 DUP2 REVERT JUMPDEST DUP2 MLOAD PUSH2 0x1CA2 DUP2 PUSH2 0x4DB7 JUMP JUMPDEST PUSH1 0x0 PUSH1 0x20 DUP3 DUP5 SUB SLT ISZERO PUSH2 0x44E9 JUMPI DUP1 DUP2 REVERT JUMPDEST DUP2 MLOAD PUSH2 0xFFFF DUP2 AND DUP2 EQ PUSH2 0x1CA2 JUMPI DUP2 DUP3 REVERT JUMPDEST PUSH1 0x0 PUSH1 0x20 DUP3 DUP5 SUB SLT ISZERO PUSH2 0x450B JUMPI DUP1 DUP2 REVERT JUMPDEST PUSH2 0x1CA2 DUP3 PUSH2 0x3F80 JUMP JUMPDEST PUSH1 0x0 DUP2 MLOAD DUP1 DUP5 MSTORE PUSH1 0x20 DUP1 DUP6 ADD SWAP5 POP DUP1 DUP5 ADD DUP4 JUMPDEST DUP4 DUP2 LT ISZERO PUSH2 0x4543 JUMPI DUP2 MLOAD DUP8 MSTORE SWAP6 DUP3 ADD SWAP6 SWAP1 DUP3 ADD SWAP1 PUSH1 0x1 ADD PUSH2 0x4527 JUMP JUMPDEST POP SWAP5 SWAP6 SWAP5 POP POP POP POP POP JUMP JUMPDEST PUSH1 0x0 DUP2 MLOAD DUP1 DUP5 MSTORE DUP2 JUMPDEST DUP2 DUP2 LT ISZERO PUSH2 0x4573 JUMPI PUSH1 0x20 DUP2 DUP6 ADD DUP2 ADD MLOAD DUP7 DUP4 ADD DUP3 ADD MSTORE ADD PUSH2 0x4557 JUMP JUMPDEST DUP2 DUP2 GT ISZERO PUSH2 0x4584 JUMPI DUP3 PUSH1 0x20 DUP4 DUP8 ADD ADD MSTORE JUMPDEST POP PUSH1 0x1F ADD PUSH1 0x1F NOT AND SWAP3 SWAP1 SWAP3 ADD PUSH1 0x20 ADD SWAP3 SWAP2 POP POP JUMP JUMPDEST PUSH1 0x0 DUP3 DUP5 MSTORE DUP3 DUP3 PUSH1 0x20 DUP7 ADD CALLDATACOPY DUP1 PUSH1 0x20 DUP5 DUP7 ADD ADD MSTORE PUSH1 0x20 PUSH1 0x1F NOT PUSH1 0x1F DUP6 ADD AND DUP6 ADD ADD SWAP1 POP SWAP4 SWAP3 POP POP POP JUMP JUMPDEST PUSH1 0xE0 SHL PUSH1 0x1 PUSH1 0x1 PUSH1 0xE0 SHL SUB NOT AND SWAP1 MSTORE JUMP JUMPDEST PUSH1 0xF8 SWAP7 DUP8 SHL PUSH1 0x1 PUSH1 0x1 PUSH1 0xF8 SHL SUB NOT SWAP1 DUP2 AND DUP3 MSTORE PUSH1 0x1 DUP3 ADD SWAP7 SWAP1 SWAP7 MSTORE PUSH1 0x60 SWAP5 SWAP1 SWAP5 SHL PUSH1 0x1 PUSH1 0x1 PUSH1 0x60 SHL SUB NOT AND PUSH1 0x21 DUP6 ADD MSTORE SWAP2 SWAP1 SWAP5 SHL SWAP1 SWAP3 AND PUSH1 0x35 DUP3 ADD MSTORE PUSH1 0x36 DUP2 ADD SWAP3 SWAP1 SWAP3 MSTORE PUSH1 0xE0 SHL PUSH1 0x1 PUSH1 0x1 PUSH1 0xE0 SHL SUB NOT AND PUSH1 0x56 DUP3 ADD MSTORE PUSH1 0x5A ADD SWAP1 JUMP JUMPDEST PUSH1 0xF8 SWAP4 SWAP1 SWAP4 SHL PUSH1 0x1 PUSH1 0x1 PUSH1 0xF8 SHL SUB NOT AND DUP4 MSTORE PUSH1 0x1 DUP4 ADD SWAP2 SWAP1 SWAP2 MSTORE PUSH1 0x21 DUP3 ADD MSTORE PUSH1 0x41 ADD SWAP1 JUMP JUMPDEST PUSH1 0x0 PUSH1 0xFF PUSH1 0xF8 SHL DUP13 PUSH1 0xF8 SHL AND DUP3 MSTORE PUSH4 0xFFFFFFFF PUSH1 0xE0 SHL DUP12 PUSH1 0xE0 SHL AND PUSH1 0x1 DUP4 ADD MSTORE DUP10 PUSH1 0x5 DUP4 ADD MSTORE PUSH12 0xFFFFFFFFFFFFFFFFFFFFFFFF NOT DUP1 DUP11 PUSH1 0x60 SHL AND PUSH1 0x25 DUP5 ADD MSTORE DUP1 DUP10 PUSH1 0x60 SHL AND PUSH1 0x39 DUP5 ADD MSTORE DUP1 DUP9 PUSH1 0x60 SHL AND PUSH1 0x4D DUP5 ADD MSTORE POP DUP6 PUSH1 0x61 DUP4 ADD MSTORE PUSH2 0x46BE PUSH1 0x81 DUP4 ADD DUP7 PUSH2 0x45C3 JUMP JUMPDEST DUP4 PUSH1 0x85 DUP4 ADD MSTORE PUSH2 0x46D1 PUSH1 0xA5 DUP4 ADD DUP5 PUSH2 0x45C3 JUMP JUMPDEST POP PUSH1 0xA9 ADD SWAP11 SWAP10 POP POP POP POP POP POP POP POP POP POP JUMP JUMPDEST PUSH1 0xF8 SWAP6 SWAP1 SWAP6 SHL PUSH1 0x1 PUSH1 0x1 PUSH1 0xF8 SHL SUB NOT AND DUP6 MSTORE PUSH1 0xE0 SWAP4 SWAP1 SWAP4 SHL PUSH1 0x1 PUSH1 0x1 PUSH1 0xE0 SHL SUB NOT AND PUSH1 0x1 DUP6 ADD MSTORE PUSH1 0x5 DUP5 ADD SWAP2 SWAP1 SWAP2 MSTORE PUSH1 0xF0 SHL PUSH1 0x1 PUSH1 0x1 PUSH1 0xF0 SHL SUB NOT AND PUSH1 0x25 DUP4 ADD MSTORE PUSH1 0x80 SHL PUSH1 0x1 PUSH1 0x1 PUSH1 0x80 SHL SUB NOT AND PUSH1 0x27 DUP3 ADD MSTORE PUSH1 0x37 ADD SWAP1 JUMP JUMPDEST PUSH1 0x1 PUSH1 0x1 PUSH1 0xA0 SHL SUB SWAP2 SWAP1 SWAP2 AND DUP2 MSTORE PUSH1 0x20 ADD SWAP1 JUMP JUMPDEST PUSH1 0x1 PUSH1 0x1 PUSH1 0xA0 SHL SUB DUP7 AND DUP2 MSTORE PUSH1 0x1 PUSH1 0x1 PUSH1 0x40 SHL SUB DUP6 AND PUSH1 0x20 DUP3 ADD MSTORE PUSH1 0x0 PUSH1 0x10 DUP6 LT PUSH2 0x4777 JUMPI INVALID JUMPDEST DUP5 PUSH1 0x40 DUP4 ADD MSTORE PUSH1 0xA0 PUSH1 0x60 DUP4 ADD MSTORE PUSH2 0x4791 PUSH1 0xA0 DUP4 ADD DUP6 PUSH2 0x454E JUMP JUMPDEST SWAP1 POP DUP3 PUSH1 0x80 DUP4 ADD MSTORE SWAP7 SWAP6 POP POP POP POP POP POP JUMP JUMPDEST PUSH1 0x1 PUSH1 0x1 PUSH1 0xA0 SHL SUB DUP9 DUP2 AND DUP3 MSTORE DUP8 DUP2 AND PUSH1 0x20 DUP4 ADD MSTORE DUP7 AND PUSH1 0x40 DUP3 ADD MSTORE PUSH1 0x60 DUP2 ADD DUP6 SWAP1 MSTORE PUSH4 0xFFFFFFFF DUP5 AND PUSH1 0x80 DUP3 ADD MSTORE PUSH1 0xA0 DUP2 ADD DUP4 SWAP1 MSTORE PUSH1 0xE0 PUSH1 0xC0 DUP3 ADD DUP2 SWAP1 MSTORE PUSH1 0x0 SWAP1 PUSH2 0x47F1 SWAP1 DUP4 ADD DUP5 PUSH2 0x454E JUMP JUMPDEST SWAP10 SWAP9 POP POP POP POP POP POP POP POP POP JUMP JUMPDEST PUSH1 0x0 PUSH1 0x60 DUP3 MSTORE PUSH2 0x4811 PUSH1 0x60 DUP4 ADD DUP7 PUSH2 0x4514 JUMP JUMPDEST DUP3 DUP2 SUB PUSH1 0x20 DUP5 ADD MSTORE PUSH2 0x4823 DUP2 DUP7 PUSH2 0x4514 JUMP JUMPDEST SWAP2 POP POP DUP3 PUSH1 0x40 DUP4 ADD MSTORE SWAP5 SWAP4 POP POP POP POP JUMP JUMPDEST SWAP1 ISZERO ISZERO DUP2 MSTORE PUSH1 0x20 ADD SWAP1 JUMP JUMPDEST SWAP1 DUP2 MSTORE PUSH1 0x20 ADD SWAP1 JUMP JUMPDEST SWAP7 DUP8 MSTORE PUSH1 0x1 PUSH1 0x1 PUSH1 0xA0 SHL SUB SWAP6 DUP7 AND PUSH1 0x20 DUP9 ADD MSTORE SWAP4 DUP6 AND PUSH1 0x40 DUP8 ADD MSTORE SWAP2 SWAP1 SWAP4 AND PUSH1 0x60 DUP6 ADD MSTORE PUSH1 0xFF SWAP1 SWAP3 AND PUSH1 0x80 DUP5 ADD MSTORE PUSH1 0xA0 DUP4 ADD SWAP2 SWAP1 SWAP2 MSTORE PUSH4 0xFFFFFFFF AND PUSH1 0xC0 DUP3 ADD MSTORE PUSH1 0xE0 ADD SWAP1 JUMP JUMPDEST SWAP5 DUP6 MSTORE PUSH1 0x1 PUSH1 0x1 PUSH1 0xA0 SHL SUB SWAP4 SWAP1 SWAP4 AND PUSH1 0x20 DUP6 ADD MSTORE PUSH1 0xFF SWAP2 SWAP1 SWAP2 AND PUSH1 0x40 DUP5 ADD MSTORE PUSH1 0x60 DUP4 ADD MSTORE PUSH4 0xFFFFFFFF AND PUSH1 0x80 DUP3 ADD MSTORE PUSH1 0xA0 ADD SWAP1 JUMP JUMPDEST PUSH1 0x0 DUP5 DUP3 MSTORE PUSH4 0xFFFFFFFF DUP5 AND PUSH1 0x20 DUP4 ADD MSTORE PUSH1 0x60 PUSH1 0x40 DUP4 ADD MSTORE PUSH2 0x48E9 PUSH1 0x60 DUP4 ADD DUP5 PUSH2 0x454E JUMP JUMPDEST SWAP6 SWAP5 POP POP POP POP POP JUMP JUMPDEST PUSH1 0x1 PUSH1 0x1 PUSH1 0xA0 SHL SUB SWAP5 DUP6 AND DUP2 MSTORE SWAP3 SWAP1 SWAP4 AND PUSH1 0x20 DUP4 ADD MSTORE PUSH1 0x1 PUSH1 0x1 PUSH1 0x80 SHL SUB SWAP1 DUP2 AND PUSH1 0x40 DUP4 ADD MSTORE SWAP1 SWAP2 AND PUSH1 0x60 DUP3 ADD MSTORE PUSH1 0x80 ADD SWAP1 JUMP JUMPDEST PUSH1 0x0 PUSH1 0x20 DUP3 MSTORE PUSH2 0x3365 PUSH1 0x20 DUP4 ADD DUP5 DUP7 PUSH2 0x4599 JUMP JUMPDEST PUSH1 0x0 PUSH1 0x60 DUP3 MSTORE PUSH2 0x494E PUSH1 0x60 DUP4 ADD DUP7 DUP9 PUSH2 0x4599 JUMP JUMPDEST PUSH1 0x1 PUSH1 0x1 PUSH1 0xA0 SHL SUB SWAP5 SWAP1 SWAP5 AND PUSH1 0x20 DUP4 ADD MSTORE POP PUSH1 0x40 ADD MSTORE SWAP3 SWAP2 POP POP JUMP JUMPDEST PUSH1 0x20 DUP1 DUP3 MSTORE PUSH1 0x1 SWAP1 DUP3 ADD MSTORE PUSH1 0x43 PUSH1 0xF8 SHL PUSH1 0x40 DUP3 ADD MSTORE PUSH1 0x60 ADD SWAP1 JUMP JUMPDEST PUSH1 0x20 DUP1 DUP3 MSTORE PUSH1 0x1 SWAP1 DUP3 ADD MSTORE PUSH1 0x63 PUSH1 0xF8 SHL PUSH1 0x40 DUP3 ADD MSTORE PUSH1 0x60 ADD SWAP1 JUMP JUMPDEST PUSH1 0x20 DUP1 DUP3 MSTORE PUSH1 0x1 SWAP1 DUP3 ADD MSTORE PUSH1 0x67 PUSH1 0xF8 SHL PUSH1 0x40 DUP3 ADD MSTORE PUSH1 0x60 ADD SWAP1 JUMP JUMPDEST PUSH1 0x20 DUP1 DUP3 MSTORE PUSH1 0x2 SWAP1 DUP3 ADD MSTORE PUSH2 0x6961 PUSH1 0xF0 SHL PUSH1 0x40 DUP3 ADD MSTORE PUSH1 0x60 ADD SWAP1 JUMP JUMPDEST PUSH1 0x20 DUP1 DUP3 MSTORE PUSH1 0x1 SWAP1 DUP3 ADD MSTORE PUSH1 0x9 PUSH1 0xFB SHL PUSH1 0x40 DUP3 ADD MSTORE PUSH1 0x60 ADD SWAP1 JUMP JUMPDEST PUSH1 0x20 DUP1 DUP3 MSTORE PUSH1 0x2 SWAP1 DUP3 ADD MSTORE PUSH2 0x4131 PUSH1 0xF0 SHL PUSH1 0x40 DUP3 ADD MSTORE PUSH1 0x60 ADD SWAP1 JUMP JUMPDEST PUSH1 0x20 DUP1 DUP3 MSTORE PUSH1 0x1 SWAP1 DUP3 ADD MSTORE PUSH1 0x37 PUSH1 0xF9 SHL PUSH1 0x40 DUP3 ADD MSTORE PUSH1 0x60 ADD SWAP1 JUMP JUMPDEST PUSH1 0x20 DUP1 DUP3 MSTORE PUSH1 0x1 SWAP1 DUP3 ADD MSTORE PUSH1 0x37 PUSH1 0xF8 SHL PUSH1 0x40 DUP3 ADD MSTORE PUSH1 0x60 ADD SWAP1 JUMP JUMPDEST PUSH1 0x20 DUP1 DUP3 MSTORE PUSH1 0x5 SWAP1 DUP3 ADD MSTORE PUSH5 0x657865313 PUSH1 0xDC SHL PUSH1 0x40 DUP3 ADD MSTORE PUSH1 0x60 ADD SWAP1 JUMP JUMPDEST PUSH1 0x20 DUP1 DUP3 MSTORE PUSH1 0x1 SWAP1 DUP3 ADD MSTORE PUSH1 0x1B PUSH1 0xFA SHL PUSH1 0x40 DUP3 ADD MSTORE PUSH1 0x60 ADD SWAP1 JUMP JUMPDEST PUSH1 0x20 DUP1 DUP3 MSTORE PUSH1 0x1 SWAP1 DUP3 ADD MSTORE PUSH1 0x27 PUSH1 0xF9 SHL PUSH1 0x40 DUP3 ADD MSTORE PUSH1 0x60 ADD SWAP1 JUMP JUMPDEST PUSH1 0x20 DUP1 DUP3 MSTORE PUSH1 0x1 SWAP1 DUP3 ADD MSTORE PUSH1 0x13 PUSH1 0xFA SHL PUSH1 0x40 DUP3 ADD MSTORE PUSH1 0x60 ADD SWAP1 JUMP JUMPDEST PUSH1 0x20 DUP1 DUP3 MSTORE PUSH1 0x3 SWAP1 DUP3 ADD MSTORE PUSH3 0x6D6631 PUSH1 0xE8 SHL PUSH1 0x40 DUP3 ADD MSTORE PUSH1 0x60 ADD SWAP1 JUMP JUMPDEST PUSH1 0x20 DUP1 DUP3 MSTORE PUSH1 0x1 SWAP1 DUP3 ADD MSTORE PUSH1 0x49 PUSH1 0xF8 SHL PUSH1 0x40 DUP3 ADD MSTORE PUSH1 0x60 ADD SWAP1 JUMP JUMPDEST PUSH1 0x20 DUP1 DUP3 MSTORE PUSH1 0x1 SWAP1 DUP3 ADD MSTORE PUSH1 0x25 PUSH1 0xF9 SHL PUSH1 0x40 DUP3 ADD MSTORE PUSH1 0x60 ADD SWAP1 JUMP JUMPDEST PUSH1 0x20 DUP1 DUP3 MSTORE PUSH1 0x1 SWAP1 DUP3 ADD MSTORE PUSH1 0x4B PUSH1 0xF8 SHL PUSH1 0x40 DUP3 ADD MSTORE PUSH1 0x60 ADD SWAP1 JUMP JUMPDEST PUSH1 0x20 DUP1 DUP3 MSTORE PUSH1 0x14 SWAP1 DUP3 ADD MSTORE PUSH20 0x6E6674207472616E73666572206661696C757265 PUSH1 0x60 SHL PUSH1 0x40 DUP3 ADD MSTORE PUSH1 0x60 ADD SWAP1 JUMP JUMPDEST PUSH1 0x20 DUP1 DUP3 MSTORE PUSH1 0x1 SWAP1 DUP3 ADD MSTORE PUSH1 0x35 PUSH1 0xF9 SHL PUSH1 0x40 DUP3 ADD MSTORE PUSH1 0x60 ADD SWAP1 JUMP JUMPDEST PUSH1 0x20 DUP1 DUP3 MSTORE PUSH1 0x1 SWAP1 DUP3 ADD MSTORE PUSH1 0x31 PUSH1 0xF9 SHL PUSH1 0x40 DUP3 ADD MSTORE PUSH1 0x60 ADD SWAP1 JUMP JUMPDEST PUSH1 0x20 DUP1 DUP3 MSTORE PUSH1 0x1 SWAP1 DUP3 ADD MSTORE PUSH1 0x35 PUSH1 0xF8 SHL PUSH1 0x40 DUP3 ADD MSTORE PUSH1 0x60 ADD SWAP1 JUMP JUMPDEST PUSH1 0x20 DUP1 DUP3 MSTORE PUSH1 0xD SWAP1 DUP3 ADD MSTORE PUSH13 0x34B73B30B634B210383937B7B3 PUSH1 0x99 SHL PUSH1 0x40 DUP3 ADD MSTORE PUSH1 0x60 ADD SWAP1 JUMP JUMPDEST PUSH1 0x20 DUP1 DUP3 MSTORE PUSH1 0x1 SWAP1 DUP3 ADD MSTORE PUSH1 0x33 PUSH1 0xF9 SHL PUSH1 0x40 DUP3 ADD MSTORE PUSH1 0x60 ADD SWAP1 JUMP JUMPDEST PUSH1 0x20 DUP1 DUP3 MSTORE PUSH1 0x1 SWAP1 DUP3 ADD MSTORE PUSH1 0x6D PUSH1 0xF8 SHL PUSH1 0x40 DUP3 ADD MSTORE PUSH1 0x60 ADD SWAP1 JUMP JUMPDEST PUSH1 0x20 DUP1 DUP3 MSTORE PUSH1 0x1 SWAP1 DUP3 ADD MSTORE PUSH1 0x1B PUSH1 0xF9 SHL PUSH1 0x40 DUP3 ADD MSTORE PUSH1 0x60 ADD SWAP1 JUMP JUMPDEST PUSH1 0x20 DUP1 DUP3 MSTORE PUSH1 0x1 SWAP1 DUP3 ADD MSTORE PUSH1 0x23 PUSH1 0xF9 SHL PUSH1 0x40 DUP3 ADD MSTORE PUSH1 0x60 ADD SWAP1 JUMP JUMPDEST PUSH1 0x20 DUP1 DUP3 MSTORE PUSH1 0x1 SWAP1 DUP3 ADD MSTORE PUSH1 0x69 PUSH1 0xF8 SHL PUSH1 0x40 DUP3 ADD MSTORE PUSH1 0x60 ADD SWAP1 JUMP JUMPDEST PUSH1 0x20 DUP1 DUP3 MSTORE PUSH1 0x1 SWAP1 DUP3 ADD MSTORE PUSH1 0x19 PUSH1 0xFA SHL PUSH1 0x40 DUP3 ADD MSTORE PUSH1 0x60 ADD SWAP1 JUMP JUMPDEST PUSH1 0x20 DUP1 DUP3 MSTORE PUSH1 0x1 SWAP1 DUP3 ADD MSTORE PUSH1 0x6B PUSH1 0xF8 SHL PUSH1 0x40 DUP3 ADD MSTORE PUSH1 0x60 ADD SWAP1 JUMP JUMPDEST PUSH1 0x0 PUSH1 0xC0 DUP3 ADD SWAP1 POP PUSH4 0xFFFFFFFF DUP4 MLOAD AND DUP3 MSTORE PUSH1 0x1 PUSH1 0x1 PUSH1 0x40 SHL SUB PUSH1 0x20 DUP5 ADD MLOAD AND PUSH1 0x20 DUP4 ADD MSTORE PUSH1 0x40 DUP4 ADD MLOAD PUSH1 0x40 DUP4 ADD MSTORE PUSH1 0x60 DUP4 ADD MLOAD PUSH1 0x60 DUP4 ADD MSTORE PUSH1 0x80 DUP4 ADD MLOAD PUSH1 0x80 DUP4 ADD MSTORE PUSH1 0xA0 DUP4 ADD MLOAD PUSH1 0xA0 DUP4 ADD MSTORE SWAP3 SWAP2 POP POP JUMP JUMPDEST PUSH1 0x1 PUSH1 0x1 PUSH1 0x80 SHL SUB SWAP2 SWAP1 SWAP2 AND DUP2 MSTORE PUSH1 0x20 ADD SWAP1 JUMP JUMPDEST PUSH2 0xFFFF SWAP2 SWAP1 SWAP2 AND DUP2 MSTORE PUSH1 0x20 ADD SWAP1 JUMP JUMPDEST PUSH2 0xFFFF SWAP4 SWAP1 SWAP4 AND DUP4 MSTORE PUSH1 0x20 DUP4 ADD SWAP2 SWAP1 SWAP2 MSTORE PUSH1 0x1 PUSH1 0x1 PUSH1 0x80 SHL SUB AND PUSH1 0x40 DUP3 ADD MSTORE PUSH1 0x60 ADD SWAP1 JUMP JUMPDEST PUSH2 0xFFFF SWAP3 SWAP1 SWAP3 AND DUP3 MSTORE PUSH1 0x1 PUSH1 0x1 PUSH1 0x80 SHL SUB AND PUSH1 0x20 DUP3 ADD MSTORE PUSH1 0x40 ADD SWAP1 JUMP JUMPDEST PUSH4 0xFFFFFFFF SWAP2 SWAP1 SWAP2 AND DUP2 MSTORE PUSH1 0x20 ADD SWAP1 JUMP JUMPDEST PUSH1 0x1 PUSH1 0x1 PUSH1 0x40 SHL SUB SWAP2 SWAP1 SWAP2 AND DUP2 MSTORE PUSH1 0x20 ADD SWAP1 JUMP JUMPDEST PUSH1 0x40 MLOAD DUP2 DUP2 ADD PUSH1 0x1 PUSH1 0x1 PUSH1 0x40 SHL SUB DUP2 GT DUP3 DUP3 LT OR ISZERO PUSH2 0x4D7D JUMPI INVALID JUMPDEST PUSH1 0x40 MSTORE SWAP2 SWAP1 POP JUMP JUMPDEST PUSH1 0x0 PUSH1 0x1 PUSH1 0x1 PUSH1 0x40 SHL SUB DUP3 GT ISZERO PUSH2 0x4D98 JUMPI INVALID JUMPDEST POP PUSH1 0x20 SWAP1 DUP2 MUL ADD SWAP1 JUMP JUMPDEST PUSH1 0x1 PUSH1 0x1 PUSH1 0xA0 SHL SUB DUP2 AND DUP2 EQ PUSH2 0x9FF JUMPI PUSH1 0x0 DUP1 REVERT JUMPDEST PUSH1 0x1 PUSH1 0x1 PUSH1 0x80 SHL SUB DUP2 AND DUP2 EQ PUSH2 0x9FF JUMPI PUSH1 0x0 DUP1 REVERT INVALID DUP15 SWAP5 INVALID 0xD4 TIMESTAMP CODECOPY 0xEB 0x23 EQ 0xAB PUSH27 0x406345E6C5A8F0CCEDF3B600DE3D004E672C33ABF4A26469706673 PC 0x22 SLT KECCAK256 PUSH5 0x790BFDECDC 0xB5 JUMPDEST 0xF6 0xC3 0x4A 0x5D 0xC9 PUSH4 0xB2FB9114 0xEA 0xA9 0xC1 0x2B INVALID TIMESTAMP 0xE7 0xDD 0xB1 0xF9 MUL 0x1E 0xDE 0xE4 PUSH5 0x736F6C6343 STOP SMOD MOD STOP CALLER "
		},
		"gasEstimates": {
			"creation": {
				"codeDepositCost": "4000400",
				"executionCost": "4572",
				"totalCost": "4004972"
			},
			"external": {
				"MAX_ACCOUNT_INDEX()": "285",
				"MAX_AMOUNT_OF_REGISTERED_ASSETS()": "353",
				"MAX_DEPOSIT_AMOUNT()": "397",
				"MAX_FUNGIBLE_ASSET_ID()": "307",
				"SECURITY_COUNCIL_MEMBERS_NUMBER()": "339",
				"SPECIAL_ACCOUNT_ADDRESS()": "309",
				"SPECIAL_ACCOUNT_ID()": "374",
				"UPGRADE_NOTICE_PERIOD()": "294",
				"WITHDRAWAL_GAS_LIMIT()": "272",
				"_transferERC20(address,address,uint128,uint128)": "infinite",
				"accountRoot()": "1073",
				"activateDesertMode()": "26240",
				"commitBlocks((uint32,uint64,bytes32,uint256,bytes32,bytes32),(bytes32,bytes,uint256,uint32[],uint32)[])": "infinite",
				"computeOnchainOpsHash(bytes)": "infinite",
				"cutUpgradeNoticePeriod()": "infinite",
				"depositBEP20(address,uint104,bytes32)": "infinite",
				"depositBNB(bytes32)": "infinite",
				"depositNFT(bytes32,address,uint8,uint256,uint32)": "infinite",
				"desertMode()": "1087",
				"firstPriorityRequestId()": "1138",
				"getAddressByAccountNameHash(bytes32)": "infinite",
				"getNoticePeriod()": "340",
				"getPendingBalance(address,address)": "infinite",
				"initialize(bytes)": "infinite",
				"isReadyForUpgrade()": "1132",
				"registerZNS(string,address,bytes32)": "infinite",
				"revertBlocks((bytes32,bytes,uint256,uint32[],uint32)[])": "infinite",
				"storedBlockHeaderHashes(uint32)": "1352",
				"totalBlocksCommitted()": "1195",
				"totalBlocksVerified()": "1197",
				"totalOpenPriorityRequests()": "1220",
				"upgrade(bytes)": "21456",
				"upgradeCanceled()": "infinite",
				"upgradeFinishes()": "infinite",
				"upgradeNoticePeriodStarted()": "20195",
				"upgradePreparationStarted()": "42863",
				"verifyBlocks(((uint32,uint64,bytes32,uint256,bytes32,bytes32),bytes[])[],uint256[])": "infinite",
				"withdrawPendingBalance(address,address,uint128)": "infinite"
			},
			"internal": {
				"addPriorityRequest(enum TxTypes.TxType,bytes memory)": "infinite",
				"checkPriorityOperation(struct TxTypes.Deposit memory,uint64)": "infinite",
				"checkPriorityOperation(struct TxTypes.FullExit memory,uint64)": "infinite",
				"checkPriorityOperation(struct TxTypes.FullExitNFT memory,uint64)": "infinite",
				"checkPriorityOperation(struct TxTypes.RegisterZNS memory,uint64)": "infinite",
				"clearUpgradeStatus()": "infinite",
				"collectOnchainOps(struct Zecrey.CommitBlockInfo memory)": "infinite",
				"commitOneBlock(struct Storage.BlockHeader memory,struct Zecrey.CommitBlockInfo memory)": "infinite",
				"createBlockCommitment(struct Storage.BlockHeader memory,struct Zecrey.CommitBlockInfo memory)": "infinite",
				"delegateAdditional()": "infinite",
				"increaseBalanceToWithdraw(bytes22,uint128)": "infinite",
				"mintFromZecrey(address,address,address,uint256,uint32,bytes32,bytes memory)": "infinite",
				"registerDeposit(uint16,uint128,bytes32)": "infinite",
				"registerWithdrawal(uint16,uint128,address payable)": "infinite",
				"sendBNBNoRevert(address payable,uint256)": "infinite",
				"verifyOneBlock(struct Zecrey.VerifyBlockInfo memory,uint32)": "infinite",
				"withdrawNFT(bytes32,address,address,address,enum TxTypes.NftType,uint256,uint32,bytes32)": "infinite",
				"withdrawOrStore(uint16,address,uint128)": "infinite"
			}
		},
		"methodIdentifiers": {
			"MAX_ACCOUNT_INDEX()": "437545f9",
			"MAX_AMOUNT_OF_REGISTERED_ASSETS()": "0d360b7f",
			"MAX_DEPOSIT_AMOUNT()": "4c34a982",
			"MAX_FUNGIBLE_ASSET_ID()": "437da02f",
			"SECURITY_COUNCIL_MEMBERS_NUMBER()": "4a51a71f",
			"SPECIAL_ACCOUNT_ADDRESS()": "7ea399c1",
			"SPECIAL_ACCOUNT_ID()": "4242d5b3",
			"UPGRADE_NOTICE_PERIOD()": "cc375fb7",
			"WITHDRAWAL_GAS_LIMIT()": "c701f955",
			"_transferERC20(address,address,uint128,uint128)": "8ee1a74e",
			"accountRoot()": "a7ccec2f",
			"activateDesertMode()": "22b22256",
			"commitBlocks((uint32,uint64,bytes32,uint256,bytes32,bytes32),(bytes32,bytes,uint256,uint32[],uint32)[])": "aad1820e",
			"computeOnchainOpsHash(bytes)": "8c8ebc52",
			"cutUpgradeNoticePeriod()": "3e71e1e7",
			"depositBEP20(address,uint104,bytes32)": "03892c3c",
			"depositBNB(bytes32)": "3d002926",
			"depositNFT(bytes32,address,uint8,uint256,uint32)": "6cc08908",
			"desertMode()": "02cfb563",
			"firstPriorityRequestId()": "67708dae",
			"getAddressByAccountNameHash(bytes32)": "0b8f1c0c",
			"getNoticePeriod()": "2a3174f4",
			"getPendingBalance(address,address)": "5aca41f6",
			"initialize(bytes)": "439fab91",
			"isReadyForUpgrade()": "8773334c",
			"registerZNS(string,address,bytes32)": "d7757da1",
			"revertBlocks((bytes32,bytes,uint256,uint32[],uint32)[])": "200a7d20",
			"storedBlockHeaderHashes(uint32)": "4167d002",
			"totalBlocksCommitted()": "faf4d8cb",
			"totalBlocksVerified()": "2d24006c",
			"totalOpenPriorityRequests()": "c57b22be",
			"upgrade(bytes)": "25394645",
			"upgradeCanceled()": "871b8ff1",
			"upgradeFinishes()": "b269b9ae",
			"upgradeNoticePeriodStarted()": "3b154b73",
			"upgradePreparationStarted()": "78b91e70",
			"verifyBlocks(((uint32,uint64,bytes32,uint256,bytes32,bytes32),bytes[])[],uint256[])": "b77a1ef5",
			"withdrawPendingBalance(address,address,uint128)": "d514da50"
		}
	},
	"abi": [
		{
			"anonymous": false,
			"inputs": [
				{
					"indexed": false,
					"internalType": "uint32",
					"name": "blockNumber",
					"type": "uint32"
				}
			],
			"name": "BlockCommit",
			"type": "event"
		},
		{
			"anonymous": false,
			"inputs": [
				{
					"indexed": false,
					"internalType": "uint32",
					"name": "blockNumber",
					"type": "uint32"
				}
			],
			"name": "BlockExecution",
			"type": "event"
		},
		{
			"anonymous": false,
			"inputs": [
				{
					"indexed": false,
					"internalType": "uint32",
					"name": "blockNumber",
					"type": "uint32"
				}
			],
			"name": "BlockVerification",
			"type": "event"
		},
		{
			"anonymous": false,
			"inputs": [
				{
					"indexed": false,
					"internalType": "uint32",
					"name": "totalBlocksVerified",
					"type": "uint32"
				},
				{
					"indexed": false,
					"internalType": "uint32",
					"name": "totalBlocksCommitted",
					"type": "uint32"
				}
			],
			"name": "BlocksRevert",
			"type": "event"
		},
		{
			"anonymous": false,
			"inputs": [
				{
					"indexed": false,
					"internalType": "uint16",
					"name": "assetId",
					"type": "uint16"
				},
				{
					"indexed": false,
					"internalType": "bytes32",
					"name": "accountName",
					"type": "bytes32"
				},
				{
					"indexed": false,
					"internalType": "uint128",
					"name": "amount",
					"type": "uint128"
				}
			],
			"name": "Deposit",
			"type": "event"
		},
		{
			"anonymous": false,
			"inputs": [
				{
					"indexed": true,
					"internalType": "uint32",
					"name": "zecreyBlockNumber",
					"type": "uint32"
				},
				{
					"indexed": true,
					"internalType": "uint32",
					"name": "accountIndex",
					"type": "uint32"
				},
				{
					"indexed": false,
					"internalType": "bytes32",
					"name": "accountName",
					"type": "bytes32"
				},
				{
					"indexed": true,
					"internalType": "uint16",
					"name": "assetId",
					"type": "uint16"
				},
				{
					"indexed": false,
					"internalType": "uint128",
					"name": "amount",
					"type": "uint128"
				}
			],
			"name": "DepositCommit",
			"type": "event"
		},
		{
			"anonymous": false,
			"inputs": [
				{
					"indexed": false,
					"internalType": "bytes32",
					"name": "accountNameHash",
					"type": "bytes32"
				},
				{
					"indexed": false,
					"internalType": "address",
					"name": "tokenAddress",
					"type": "address"
				},
				{
					"indexed": false,
					"internalType": "uint8",
					"name": "nftType",
					"type": "uint8"
				},
				{
					"indexed": false,
					"internalType": "uint256",
					"name": "nftTokenId",
					"type": "uint256"
				},
				{
					"indexed": false,
					"internalType": "uint32",
					"name": "amount",
					"type": "uint32"
				}
			],
			"name": "DepositNFT",
			"type": "event"
		},
		{
			"anonymous": false,
			"inputs": [],
			"name": "DesertMode",
			"type": "event"
		},
		{
			"anonymous": false,
			"inputs": [
				{
					"indexed": true,
					"internalType": "uint32",
					"name": "zecreyBlockId",
					"type": "uint32"
				},
				{
					"indexed": true,
					"internalType": "uint32",
					"name": "accountId",
					"type": "uint32"
				},
				{
					"indexed": false,
					"internalType": "address",
					"name": "owner",
					"type": "address"
				},
				{
					"indexed": true,
					"internalType": "uint16",
					"name": "tokenId",
					"type": "uint16"
				},
				{
					"indexed": false,
					"internalType": "uint128",
					"name": "amount",
					"type": "uint128"
				}
			],
			"name": "FullExitCommit",
			"type": "event"
		},
		{
			"anonymous": false,
			"inputs": [
				{
					"indexed": false,
					"internalType": "address",
					"name": "sender",
					"type": "address"
				},
				{
					"indexed": false,
					"internalType": "uint64",
					"name": "serialId",
					"type": "uint64"
				},
				{
					"indexed": false,
					"internalType": "enum TxTypes.TxType",
					"name": "txType",
					"type": "uint8"
				},
				{
					"indexed": false,
					"internalType": "bytes",
					"name": "pubData",
					"type": "bytes"
				},
				{
					"indexed": false,
					"internalType": "uint256",
					"name": "expirationBlock",
					"type": "uint256"
				}
			],
			"name": "NewPriorityRequest",
			"type": "event"
		},
		{
			"anonymous": false,
			"inputs": [
				{
					"indexed": false,
					"internalType": "uint256",
					"name": "newNoticePeriod",
					"type": "uint256"
				}
			],
			"name": "NoticePeriodChange",
			"type": "event"
		},
		{
			"anonymous": false,
			"inputs": [
				{
					"indexed": false,
					"internalType": "string",
					"name": "name",
					"type": "string"
				},
				{
					"indexed": false,
					"internalType": "address",
					"name": "owner",
					"type": "address"
				},
				{
					"indexed": false,
					"internalType": "bytes32",
					"name": "zecreyPubKey",
					"type": "bytes32"
				}
			],
			"name": "RegisterZNS",
			"type": "event"
		},
		{
			"anonymous": false,
			"inputs": [
				{
					"indexed": false,
					"internalType": "bytes32",
					"name": "accountNameHash",
					"type": "bytes32"
				},
				{
					"indexed": false,
					"internalType": "address",
					"name": "tokenAddress",
					"type": "address"
				},
				{
					"indexed": false,
					"internalType": "address",
					"name": "toAddress",
					"type": "address"
				},
				{
					"indexed": false,
					"internalType": "address",
					"name": "proxyAddress",
					"type": "address"
				},
				{
					"indexed": false,
					"internalType": "uint8",
					"name": "nftType",
					"type": "uint8"
				},
				{
					"indexed": false,
					"internalType": "uint256",
					"name": "nftTokenId",
					"type": "uint256"
				},
				{
					"indexed": false,
					"internalType": "uint256",
					"name": "amount",
					"type": "uint256"
				}
			],
			"name": "WithdrawNFT",
			"type": "event"
		},
		{
			"anonymous": false,
			"inputs": [
				{
					"indexed": false,
					"internalType": "uint16",
					"name": "assetId",
					"type": "uint16"
				},
				{
					"indexed": false,
					"internalType": "uint128",
					"name": "amount",
					"type": "uint128"
				}
			],
			"name": "Withdrawal",
			"type": "event"
		},
		{
			"anonymous": false,
			"inputs": [
				{
					"indexed": false,
					"internalType": "uint16",
					"name": "assetId",
					"type": "uint16"
				},
				{
					"indexed": false,
					"internalType": "uint128",
					"name": "amount",
					"type": "uint128"
				}
			],
			"name": "WithdrawalPending",
			"type": "event"
		},
		{
			"inputs": [],
			"name": "MAX_ACCOUNT_INDEX",
			"outputs": [
				{
					"internalType": "uint32",
					"name": "",
					"type": "uint32"
				}
			],
			"stateMutability": "view",
			"type": "function"
		},
		{
			"inputs": [],
			"name": "MAX_AMOUNT_OF_REGISTERED_ASSETS",
			"outputs": [
				{
					"internalType": "uint16",
					"name": "",
					"type": "uint16"
				}
			],
			"stateMutability": "view",
			"type": "function"
		},
		{
			"inputs": [],
			"name": "MAX_DEPOSIT_AMOUNT",
			"outputs": [
				{
					"internalType": "uint128",
					"name": "",
					"type": "uint128"
				}
			],
			"stateMutability": "view",
			"type": "function"
		},
		{
			"inputs": [],
			"name": "MAX_FUNGIBLE_ASSET_ID",
			"outputs": [
				{
					"internalType": "uint32",
					"name": "",
					"type": "uint32"
				}
			],
			"stateMutability": "view",
			"type": "function"
		},
		{
			"inputs": [],
			"name": "SECURITY_COUNCIL_MEMBERS_NUMBER",
			"outputs": [
				{
					"internalType": "uint256",
					"name": "",
					"type": "uint256"
				}
			],
			"stateMutability": "view",
			"type": "function"
		},
		{
			"inputs": [],
			"name": "SPECIAL_ACCOUNT_ADDRESS",
			"outputs": [
				{
					"internalType": "address",
					"name": "",
					"type": "address"
				}
			],
			"stateMutability": "view",
			"type": "function"
		},
		{
			"inputs": [],
			"name": "SPECIAL_ACCOUNT_ID",
			"outputs": [
				{
					"internalType": "uint32",
					"name": "",
					"type": "uint32"
				}
			],
			"stateMutability": "view",
			"type": "function"
		},
		{
			"inputs": [],
			"name": "UPGRADE_NOTICE_PERIOD",
			"outputs": [
				{
					"internalType": "uint256",
					"name": "",
					"type": "uint256"
				}
			],
			"stateMutability": "view",
			"type": "function"
		},
		{
			"inputs": [],
			"name": "WITHDRAWAL_GAS_LIMIT",
			"outputs": [
				{
					"internalType": "uint256",
					"name": "",
					"type": "uint256"
				}
			],
			"stateMutability": "view",
			"type": "function"
		},
		{
			"inputs": [
				{
					"internalType": "contract IERC20",
					"name": "_token",
					"type": "address"
				},
				{
					"internalType": "address",
					"name": "_to",
					"type": "address"
				},
				{
					"internalType": "uint128",
					"name": "_amount",
					"type": "uint128"
				},
				{
					"internalType": "uint128",
					"name": "_maxAmount",
					"type": "uint128"
				}
			],
			"name": "_transferERC20",
			"outputs": [
				{
					"internalType": "uint128",
					"name": "withdrawnAmount",
					"type": "uint128"
				}
			],
			"stateMutability": "nonpayable",
			"type": "function"
		},
		{
			"inputs": [],
			"name": "accountRoot",
			"outputs": [
				{
					"internalType": "bytes32",
					"name": "",
					"type": "bytes32"
				}
			],
			"stateMutability": "view",
			"type": "function"
		},
		{
			"inputs": [],
			"name": "activateDesertMode",
			"outputs": [
				{
					"internalType": "bool",
					"name": "",
					"type": "bool"
				}
			],
			"stateMutability": "nonpayable",
			"type": "function"
		},
		{
			"inputs": [
				{
					"components": [
						{
							"internalType": "uint32",
							"name": "blockNumber",
							"type": "uint32"
						},
						{
							"internalType": "uint64",
							"name": "priorityOperations",
							"type": "uint64"
						},
						{
							"internalType": "bytes32",
							"name": "pendingOnchainOperationsHash",
							"type": "bytes32"
						},
						{
							"internalType": "uint256",
							"name": "timestamp",
							"type": "uint256"
						},
						{
							"internalType": "bytes32",
							"name": "accountRoot",
							"type": "bytes32"
						},
						{
							"internalType": "bytes32",
							"name": "commitment",
							"type": "bytes32"
						}
					],
					"internalType": "struct Storage.BlockHeader",
					"name": "_lastCommittedBlockData",
					"type": "tuple"
				},
				{
					"components": [
						{
							"internalType": "bytes32",
							"name": "newAccountRoot",
							"type": "bytes32"
						},
						{
							"internalType": "bytes",
							"name": "publicData",
							"type": "bytes"
						},
						{
							"internalType": "uint256",
							"name": "timestamp",
							"type": "uint256"
						},
						{
							"internalType": "uint32[]",
							"name": "publicDataOffsets",
							"type": "uint32[]"
						},
						{
							"internalType": "uint32",
							"name": "blockNumber",
							"type": "uint32"
						}
					],
					"internalType": "struct Zecrey.CommitBlockInfo[]",
					"name": "_newBlocksData",
					"type": "tuple[]"
				}
			],
			"name": "commitBlocks",
			"outputs": [],
			"stateMutability": "nonpayable",
			"type": "function"
		},
		{
			"inputs": [
				{
					"internalType": "bytes",
					"name": "_onchainOpsPubData",
					"type": "bytes"
				}
			],
			"name": "computeOnchainOpsHash",
			"outputs": [
				{
					"internalType": "bytes32",
					"name": "onchainOpsDataHash",
					"type": "bytes32"
				}
			],
			"stateMutability": "pure",
			"type": "function"
		},
		{
			"inputs": [],
			"name": "cutUpgradeNoticePeriod",
			"outputs": [],
			"stateMutability": "nonpayable",
			"type": "function"
		},
		{
			"inputs": [
				{
					"internalType": "contract IERC20",
					"name": "_token",
					"type": "address"
				},
				{
					"internalType": "uint104",
					"name": "_amount",
					"type": "uint104"
				},
				{
					"internalType": "bytes32",
					"name": "_accountName",
					"type": "bytes32"
				}
			],
			"name": "depositBEP20",
			"outputs": [],
			"stateMutability": "nonpayable",
			"type": "function"
		},
		{
			"inputs": [
				{
					"internalType": "bytes32",
					"name": "_accountNameHash",
					"type": "bytes32"
				}
			],
			"name": "depositBNB",
			"outputs": [],
			"stateMutability": "payable",
			"type": "function"
		},
		{
			"inputs": [
				{
					"internalType": "bytes32",
					"name": "_accountNameHash",
					"type": "bytes32"
				},
				{
					"internalType": "address",
					"name": "_tokenAddress",
					"type": "address"
				},
				{
					"internalType": "enum TxTypes.NftType",
					"name": "_nftType",
					"type": "uint8"
				},
				{
					"internalType": "uint256",
					"name": "_nftTokenId",
					"type": "uint256"
				},
				{
					"internalType": "uint32",
					"name": "_amount",
					"type": "uint32"
				}
			],
			"name": "depositNFT",
			"outputs": [],
			"stateMutability": "nonpayable",
			"type": "function"
		},
		{
			"inputs": [],
			"name": "desertMode",
			"outputs": [
				{
					"internalType": "bool",
					"name": "",
					"type": "bool"
				}
			],
			"stateMutability": "view",
			"type": "function"
		},
		{
			"inputs": [],
			"name": "firstPriorityRequestId",
			"outputs": [
				{
					"internalType": "uint64",
					"name": "",
					"type": "uint64"
				}
			],
			"stateMutability": "view",
			"type": "function"
		},
		{
			"inputs": [
				{
					"internalType": "bytes32",
					"name": "accountNameHash",
					"type": "bytes32"
				}
			],
			"name": "getAddressByAccountNameHash",
			"outputs": [
				{
					"internalType": "address",
					"name": "",
					"type": "address"
				}
			],
			"stateMutability": "view",
			"type": "function"
		},
		{
			"inputs": [],
			"name": "getNoticePeriod",
			"outputs": [
				{
					"internalType": "uint256",
					"name": "",
					"type": "uint256"
				}
			],
			"stateMutability": "pure",
			"type": "function"
		},
		{
			"inputs": [
				{
					"internalType": "address",
					"name": "_address",
					"type": "address"
				},
				{
					"internalType": "address",
					"name": "_assetAddr",
					"type": "address"
				}
			],
			"name": "getPendingBalance",
			"outputs": [
				{
					"internalType": "uint128",
					"name": "",
					"type": "uint128"
				}
			],
			"stateMutability": "view",
			"type": "function"
		},
		{
			"inputs": [
				{
					"internalType": "bytes",
					"name": "initializationParameters",
					"type": "bytes"
				}
			],
			"name": "initialize",
			"outputs": [],
			"stateMutability": "nonpayable",
			"type": "function"
		},
		{
			"inputs": [],
			"name": "isReadyForUpgrade",
			"outputs": [
				{
					"internalType": "bool",
					"name": "",
					"type": "bool"
				}
			],
			"stateMutability": "view",
			"type": "function"
		},
		{
			"inputs": [
				{
					"internalType": "string",
					"name": "_name",
					"type": "string"
				},
				{
					"internalType": "address",
					"name": "_owner",
					"type": "address"
				},
				{
					"internalType": "bytes32",
					"name": "_zecreyPubKey",
					"type": "bytes32"
				}
			],
			"name": "registerZNS",
			"outputs": [],
			"stateMutability": "nonpayable",
			"type": "function"
		},
		{
			"inputs": [
				{
					"components": [
						{
							"internalType": "bytes32",
							"name": "newAccountRoot",
							"type": "bytes32"
						},
						{
							"internalType": "bytes",
							"name": "publicData",
							"type": "bytes"
						},
						{
							"internalType": "uint256",
							"name": "timestamp",
							"type": "uint256"
						},
						{
							"internalType": "uint32[]",
							"name": "publicDataOffsets",
							"type": "uint32[]"
						},
						{
							"internalType": "uint32",
							"name": "blockNumber",
							"type": "uint32"
						}
					],
					"internalType": "struct Zecrey.CommitBlockInfo[]",
					"name": "_blocksToRevert",
					"type": "tuple[]"
				}
			],
			"name": "revertBlocks",
			"outputs": [],
			"stateMutability": "nonpayable",
			"type": "function"
		},
		{
			"inputs": [
				{
					"internalType": "uint32",
					"name": "",
					"type": "uint32"
				}
			],
			"name": "storedBlockHeaderHashes",
			"outputs": [
				{
					"internalType": "bytes32",
					"name": "",
					"type": "bytes32"
				}
			],
			"stateMutability": "view",
			"type": "function"
		},
		{
			"inputs": [],
			"name": "totalBlocksCommitted",
			"outputs": [
				{
					"internalType": "uint32",
					"name": "",
					"type": "uint32"
				}
			],
			"stateMutability": "view",
			"type": "function"
		},
		{
			"inputs": [],
			"name": "totalBlocksVerified",
			"outputs": [
				{
					"internalType": "uint32",
					"name": "",
					"type": "uint32"
				}
			],
			"stateMutability": "view",
			"type": "function"
		},
		{
			"inputs": [],
			"name": "totalOpenPriorityRequests",
			"outputs": [
				{
					"internalType": "uint64",
					"name": "",
					"type": "uint64"
				}
			],
			"stateMutability": "view",
			"type": "function"
		},
		{
			"inputs": [
				{
					"internalType": "bytes",
					"name": "upgradeParameters",
					"type": "bytes"
				}
			],
			"name": "upgrade",
			"outputs": [],
			"stateMutability": "nonpayable",
			"type": "function"
		},
		{
			"inputs": [],
			"name": "upgradeCanceled",
			"outputs": [],
			"stateMutability": "nonpayable",
			"type": "function"
		},
		{
			"inputs": [],
			"name": "upgradeFinishes",
			"outputs": [],
			"stateMutability": "nonpayable",
			"type": "function"
		},
		{
			"inputs": [],
			"name": "upgradeNoticePeriodStarted",
			"outputs": [],
			"stateMutability": "nonpayable",
			"type": "function"
		},
		{
			"inputs": [],
			"name": "upgradePreparationStarted",
			"outputs": [],
			"stateMutability": "nonpayable",
			"type": "function"
		},
		{
			"inputs": [
				{
					"components": [
						{
							"components": [
								{
									"internalType": "uint32",
									"name": "blockNumber",
									"type": "uint32"
								},
								{
									"internalType": "uint64",
									"name": "priorityOperations",
									"type": "uint64"
								},
								{
									"internalType": "bytes32",
									"name": "pendingOnchainOperationsHash",
									"type": "bytes32"
								},
								{
									"internalType": "uint256",
									"name": "timestamp",
									"type": "uint256"
								},
								{
									"internalType": "bytes32",
									"name": "accountRoot",
									"type": "bytes32"
								},
								{
									"internalType": "bytes32",
									"name": "commitment",
									"type": "bytes32"
								}
							],
							"internalType": "struct Storage.BlockHeader",
							"name": "blockHeader",
							"type": "tuple"
						},
						{
							"internalType": "bytes[]",
							"name": "pendingOnchainOpsPubdata",
							"type": "bytes[]"
						}
					],
					"internalType": "struct Zecrey.VerifyBlockInfo[]",
					"name": "_blocks",
					"type": "tuple[]"
				},
				{
					"internalType": "uint256[]",
					"name": "_proofs",
					"type": "uint256[]"
				}
			],
			"name": "verifyBlocks",
			"outputs": [],
			"stateMutability": "nonpayable",
			"type": "function"
		},
		{
			"inputs": [
				{
					"internalType": "address payable",
					"name": "_owner",
					"type": "address"
				},
				{
					"internalType": "address",
					"name": "_token",
					"type": "address"
				},
				{
					"internalType": "uint128",
					"name": "_amount",
					"type": "uint128"
				}
			],
			"name": "withdrawPendingBalance",
			"outputs": [],
			"stateMutability": "nonpayable",
			"type": "function"
		}
	]
}