{
	"data": {
		"bytecode": {
			"linkReferences": {},
			"object": "608060405234801561001057600080fd5b50611d23806100206000396000f3fe608060405234801561001057600080fd5b506004361061004c5760003560e01c80632539464514610051578063721ea4ac146100c1578063c50e8263146101f8578063daad1e631461031d575b600080fd5b6100bf6004803603602081101561006757600080fd5b810190602081018135600160201b81111561008157600080fd5b82018360208201111561009357600080fd5b803590602001918460018302840111600160201b831117156100b457600080fd5b509092509050610337565b005b6101e4600480360360408110156100d757600080fd5b810190602081018135600160201b8111156100f157600080fd5b82018360208201111561010357600080fd5b803590602001918460208302840111600160201b8311171561012457600080fd5b9190808060200260200160405190810160405280939291908181526020018383602002808284376000920191909152509295949360208101935035915050600160201b81111561017357600080fd5b82018360208201111561018557600080fd5b803590602001918460208302840111600160201b831117156101a657600080fd5b91908080602002602001604051908101604052809392919081815260200183836020028082843760009201919091525092955061033b945050505050565b604080519115158252519081900360200190f35b6101e46004803603606081101561020e57600080fd5b810190602081018135600160201b81111561022857600080fd5b82018360208201111561023a57600080fd5b803590602001918460208302840111600160201b8311171561025b57600080fd5b9190808060200260200160405190810160405280939291908181526020018383602002808284376000920191909152509295949360208101935035915050600160201b8111156102aa57600080fd5b8201836020820111156102bc57600080fd5b803590602001918460208302840111600160201b831117156102dd57600080fd5b919080806020026020016040519081016040528093929190818152602001838360200280828437600092019190915250929550509135925061069f915050565b610325610ce9565b60408051918252519081900360200190f35b5050565b600080610346610d0d565b90506000610352610f2f565b905083516001600283518161036357fe5b04031461036f57600080fd5b845160081461037d57600080fd5b610385611a89565b61038d611aa7565b60008060029050846000815181106103a157fe5b6020026020010151836000600481106103b657fe5b60200201528451859060019081106103ca57fe5b6020026020010151836001600481106103df57fe5b602002015260005b88518110156104ad57855160018301928791811061040157fe5b60200260200101518560006003811061041657fe5b6020020152855160018301928791811061042c57fe5b60200260200101518560016003811061044157fe5b6020020152885189908290811061045457fe5b60200260200101518560026003811061046957fe5b602002015260606040850160808760076107d05a03fa92508261048b57600080fd5b60608460c08660066107d05a03fa9250826104a557600080fd5b6001016103e7565b5060006040518061030001604052808b6000815181106104c957fe5b602002602001015181526020018b6001815181106104e357fe5b602002602001015181526020018b6002815181106104fd57fe5b602002602001015181526020018b60038151811061051757fe5b602002602001015181526020018b60048151811061053157fe5b602002602001015181526020018b60058151811061054b57fe5b60200260200101518152602001886000600e811061056557fe5b60200201518152602001610589896001600e811061057f57fe5b60200201516110e9565b815260408981015160208301526060808b0151918301919091526080808b01519183019190915260a0808b01519183019190915286519082015260c0016105d186600161057f565b815260c0890151602082015260e089015160408201526101008901516060820152608001886009602002015181526020018b60068151811061060f57fe5b602002602001015181526020016106398c60078151811061062c57fe5b60200260200101516110e9565b81526101408901516020820152610160890151604082015261018089015160608201526101a08901516080909101529050610672611ac5565b6020816103008460086107d05a03fa93508361068d57600080fd5b516001149a9950505050505050505050565b600081600114156106bb576106b4848461033b565b9050610ce2565b60006106c5610d0d565b905060006106d1610f2f565b9050836008028651146107155760405162461bcd60e51b8152600401808060200182810382526021815260200180611ba26021913960400191505060405180910390fd5b8385518161071f57fe5b061561075c5760405162461bcd60e51b8152600401808060200182810382526021815260200180611bc36021913960400191505060405180910390fd5b8385518161076657fe5b046001600283518161077457fe5b0403146107b25760405162461bcd60e51b815260040180806020018281038252602e815260200180611be4602e913960400191505060405180910390fd5b6060806107c0888888611113565b909250905060006107d285858461173b565b905060008760060260120167ffffffffffffffff811180156107f357600080fd5b5060405190808252806020026020018201604052801561081d578160200160208202803683370190505b50905060005b8881101561097c5784816002028151811061083a57fe5b602002602001015182826006028151811061085157fe5b60200260200101818152505084816002026001018151811061086f57fe5b602002602001015182826006026001018151811061088957fe5b6020026020010181815250508a81600802600201815181106108a757fe5b60200260200101518282600602600201815181106108c157fe5b6020026020010181815250508a81600802600301815181106108df57fe5b60200260200101518282600602600301815181106108f957fe5b6020026020010181815250508a816008026004018151811061091757fe5b602002602001015182826006026004018151811061093157fe5b6020026020010181815250508a816008026005018151811061094f57fe5b602002602001015182826006026005018151811061096957fe5b6020908102919091010152600101610823565b5081518151829060068b0290811061099057fe5b60209081029190910101526109a682600161057f565b8189600602600101815181106109b857fe5b602090810291909101015285600260200201518189600602600201815181106109dd57fe5b60209081029190910101528560036020020151818960060260030181518110610a0257fe5b60209081029190910101528560046020020151818960060260040181518110610a2757fe5b60209081029190910101528560056020020151818960060260050181518110610a4c57fe5b60209081029190910101528160026020020151818960060260060181518110610a7157fe5b6020908102919091010152610a8782600361057f565b818960060260070181518110610a9957fe5b60209081029190910101528560066020020151818960060260080181518110610abe57fe5b60209081029190910101528560076020020151818960060260090181518110610ae357fe5b602090810291909101015285600860200201518189600602600a0181518110610b0857fe5b602090810291909101015285600960200201518189600602600b0181518110610b2d57fe5b602002602001018181525050838860020281518110610b4857fe5b60200260200101518189600602600c0181518110610b6257fe5b602002602001018181525050610b8384896002026001018151811061062c57fe5b8189600602600d0181518110610b9557fe5b602090810291909101015285600a60200201518189600602600e0181518110610bba57fe5b602090810291909101015285600b60200201518189600602600f0181518110610bdf57fe5b602090810291909101015285600c6020020151818960060260100181518110610c0457fe5b602090810291909101015285600d6020020151818960060260110181518110610c2957fe5b602002602001018181525050600081516020029050610c46611ac5565b60c0820615610c865760405162461bcd60e51b815260040180806020018281038252602d815260200180611c12602d913960400191505060405180910390fd5b602081836020860160086107d05a03fa985088610cd45760405162461bcd60e51b8152600401808060200182810382526021815260200180611b446021913960400191505060405180910390fd5b516001149750505050505050505b9392505050565b7f30644e72e131a029b85045b68181585d2833e84879b9709143e1f593f000000190565b610d15611ae3565b7f0f4af1a7c696323acd6cfec8d893dfec54905c08609defe43e9c996d9f6e012c81527f2e3744879a66c454913ea7289f9d007bfd04a993c8b503a0215bfea71844164760208201527f07f2cec2be880856570ff0b07e5ac77570a6614de2d578b606bd4f7bb7327dc460408201527f01a7fb767ad27051cb79101948fa0ddc4587d559bf285204a720a5cc7943476860608201527f22a321df8590c78ab3b80a7177312304b32142116d5b314c2f33688f51a9027260808201527f1b19ad32a7bec07e4ecd8a5dc4b2f0a331b50ec900b39fa9f9e54589992cf78c60a08201527f1e268ec51b4c2fa16f4480efd34924de4ef57518b34a3f284b9c23d2cbf32c0660c08201527f16f40c4c83e8385935203f81a00635fa0103593354dfecdee792f5dbf3518b8a60e08201527f24a977e99ea5d513f0d1b3320c7006f9a29c7577255e83bdea21d3d9c0a84daf6101008201527f2a2a5b37adad4f5ccbe97ad51682b12e9dd1d0dd031335cab8911b2811d607996101208201527f034e28926fc4e179655c1857c18f88a5be2ffed63f060a1ab74857f411755c236101408201527f1605ba688cad5256cbbf33bb812fe5861eaeea375b3e410832e664021c7f14e76101608201527f07ebfee4f1cb7f5bca0dc1b7baa0dc164bf4d9ef678ecd7af4d536cea0e5f3256101808201527f0b54e9e8e426b1a0de04c629964aaa69e59665a72c4da2fd587ca3277cb431ad6101a082015290565b604080516008808252610120820190925260609160208201610100803683370190505090507f06d479d71797726ba36a366ca17f26679619de916fca4c01c8f736e4996956be81600081518110610f8257fe5b6020026020010181815250507f05dfeb283f14178cecd2cac00b7d4eca893baec490107d07a786dc28b0a2dd4181600181518110610fbc57fe5b6020026020010181815250507f0f6e76906ccc039d6b81518a6a73eadc525327e7f5e62ed719df754168990be281600281518110610ff657fe5b6020026020010181815250507f12785a68902f36f49ba399b94d9c41933855a3754bf78f9e0c88b363448662b18160038151811061103057fe5b6020026020010181815250507f1502d5d26257bb9859272361e710b05dc7b7296673fb7e83d2a408d25491b2008160048151811061106a57fe5b6020026020010181815250507f1371769dae6705e1693eb61b017ec7217d2fdcad1f7b2329718e3d5abdaf8962816005815181106110a457fe5b6020026020010181815250506000816006815181106110bf57fe5b6020026020010181815250506000816007815181106110da57fe5b60200260200101818152505090565b7f30644e72e131a029b85045b68181585d97816a916871ca8d3c208c16d87cfd4790819006900390565b60608060007f30644e72e131a029b85045b68181585d2833e84879b9709143e1f593f0000001905060008486518161114757fe5b04905060008567ffffffffffffffff8111801561116357600080fd5b5060405190808252806020026020018201604052801561118d578160200160208202803683370190505b5090508160010167ffffffffffffffff811180156111aa57600080fd5b506040519080825280602002602001820160405280156111d4578160200160208202803683370190505b50935060005b8681101561137457806112065760018282815181106111f557fe5b60200260200101818152505061122a565b611211898983611935565b82828151811061121d57fe5b6020026020010181815250505b81818151811061123657fe5b602002602001015160001415611293576040805162461bcd60e51b815260206004820152601a60248201527f456e74726f70792073686f756c64206e6f74206265207a65726f000000000000604482015290519081900360640190fd5b838061129b57fe5b84806112a357fe5b8383815181106112af57fe5b6020026020010151600109866000815181106112c757fe5b602002602001015108856000815181106112dd57fe5b60200260200101818152505060005b8381101561136b5784806112fc57fe5b858061130457fe5b8a83878602018151811061131457fe5b602002602001015185858151811061132857fe5b60200260200101510987836001018151811061134057fe5b60200260200101510886826001018151811061135857fe5b60209081029190910101526001016112ec565b506001016111da565b5061137d611a89565b60008760020260020167ffffffffffffffff8111801561139c57600080fd5b506040519080825280602002602001820160405280156113c6578160200160208202803683370190505b509650896000815181106113d657fe5b6020026020010151876000815181106113eb57fe5b6020026020010181815250508960018151811061140457fe5b60200260200101518760018151811061141957fe5b602090810291909101015260015b88811015611560578a816008028151811061143e57fe5b60200260200101518360006003811061145357fe5b60200201528a518b906001600884020190811061146c57fe5b60200260200101518360016003811061148157fe5b6020020152835184908290811061149457fe5b6020026020010151836002600381106114a957fe5b602002015260408360608160076107d05a03fa915082600060200201518882600202815181106114d557fe5b602090810291909101015282600160200201518882600202600101815181106114fa57fe5b60200260200101818152505081611558576040805162461bcd60e51b815260206004820152601b60248201527f4661696c656420746f2063616c6c206120707265636f6d70696c650000000000604482015290519081900360640190fd5b600101611427565b50611569611aa7565b8a60068151811061157657fe5b60200260200101518160006004811061158b57fe5b60200201528a518b90600790811061159f57fe5b6020026020010151816001600481106115b457fe5b602002015260015b898110156116e8578b81600802600601815181106115d657fe5b6020026020010151846000600381106115eb57fe5b60200201528b518c906007600884020190811061160457fe5b60200260200101518460016003811061161957fe5b6020020152845185908290811061162c57fe5b60200260200101518460026003811061164157fe5b6020020152604082810160608660076107d05a03fa9250826116945760405162461bcd60e51b815260040180806020018281038252603d815260200180611b65603d913960400191505060405180910390fd5b60408260808460066107d05a03fa9250826116e05760405162461bcd60e51b8152600401808060200182810382526037815260200180611c3f6037913960400191505060405180910390fd5b6001016115bc565b5080518851899060028c029081106116fc57fe5b60209081029190910101528060016020020151888a6002026001018151811061172157fe5b602002602001018181525050505050505050935093915050565b611743611aa7565b61174b611aa7565b611753611a89565b6000805b85518110156118815786816002028151811061176f57fe5b60200260200101518360006003811061178457fe5b6020020152865187906001600284020190811061179d57fe5b6020026020010151836001600381106117b257fe5b602002015285518690829081106117c557fe5b6020026020010151836002600381106117da57fe5b6020020152604084810160608560076107d05a03fa91508161182d5760405162461bcd60e51b8152600401808060200182810382526047815260200180611ca76047913960600191505060405180910390fd5b60408460808660066107d05a03fa9150816118795760405162461bcd60e51b8152600401808060200182810382526041815260200180611b036041913960600191505060405180910390fd5b600101611757565b50825160408501526020830151606085015261189b611a89565b8751815260208089015190820152855186906000906118b657fe5b6020026020010151816002600381106118cb57fe5b602002015260408160608160076107d05a03fa91508161191c5760405162461bcd60e51b8152600401808060200182810382526031815260200180611c766031913960400191505060405180910390fd5b8051855260209081015190850152509195945050505050565b6000600384836008026000018151811061194b57fe5b602002602001015185846008026001018151811061196557fe5b602002602001015186856008026002018151811061197f57fe5b602002602001015187866008026003018151811061199957fe5b60200260200101518887600802600401815181106119b357fe5b60200260200101518988600802600501815181106119cd57fe5b60200260200101518a89600802600601815181106119e757fe5b60200260200101518b8a60080260070181518110611a0157fe5b60200260200101518b8b81518110611a1557fe5b6020026020010151604051602001808a815260200189815260200188815260200187815260200186815260200185815260200184815260200183815260200182815260200199505050505050505050506040516020818303038152906040528051906020012060001c901c90509392505050565b60405180606001604052806003906020820280368337509192915050565b60405180608001604052806004906020820280368337509192915050565b60405180602001604052806001906020820280368337509192915050565b604051806101c00160405280600e90602082028036833750919291505056fe4661696c656420746f2063616c6c206120707265636f6d70696c6520666f72204731206164646974696f6e20666f7220696e70757420616363756d756c61746f724661696c656420746f2063616c6c2070616972696e67732066756e6374696f6e734661696c656420746f2063616c6c206120707265636f6d70696c6520666f72204731206d756c7469706c69636174696f6e20666f722050726f6f662043496e76616c69642070726f6f6673206c656e67746820666f722061206261746368496e76616c696420696e70757473206c656e67746820666f7220612062617463684d69736d61746368696e67206e756d626572206f6620696e7075747320666f7220766572696679696e67206b6579496e70757473206c656e6774682073686f756c64206265206d756c7469706c65206f66203139322062797465734661696c656420746f2063616c6c206120707265636f6d70696c6520666f72204731206164646974696f6e20666f722050726f6f6620434661696c656420746f2063616c6c206120707265636f6d70696c6520666f72204731206d756c7469706c69636174696f6e4661696c656420746f2063616c6c206120707265636f6d70696c6520666f72204731206d756c7469706c69636174696f6e20666f7220696e70757420616363756d756c61746f72a2646970667358221220c7a3d314105fe01d6098a27a14e66d5afd40e4f1f4f29e93fcd85d949a6c276764736f6c63430007060033",
			"opcodes": "PUSH1 0x80 PUSH1 0x40 MSTORE CALLVALUE DUP1 ISZERO PUSH2 0x10 JUMPI PUSH1 0x0 DUP1 REVERT JUMPDEST POP PUSH2 0x1D23 DUP1 PUSH2 0x20 PUSH1 0x0 CODECOPY PUSH1 0x0 RETURN INVALID PUSH1 0x80 PUSH1 0x40 MSTORE CALLVALUE DUP1 ISZERO PUSH2 0x10 JUMPI PUSH1 0x0 DUP1 REVERT JUMPDEST POP PUSH1 0x4 CALLDATASIZE LT PUSH2 0x4C JUMPI PUSH1 0x0 CALLDATALOAD PUSH1 0xE0 SHR DUP1 PUSH4 0x25394645 EQ PUSH2 0x51 JUMPI DUP1 PUSH4 0x721EA4AC EQ PUSH2 0xC1 JUMPI DUP1 PUSH4 0xC50E8263 EQ PUSH2 0x1F8 JUMPI DUP1 PUSH4 0xDAAD1E63 EQ PUSH2 0x31D JUMPI JUMPDEST PUSH1 0x0 DUP1 REVERT JUMPDEST PUSH2 0xBF PUSH1 0x4 DUP1 CALLDATASIZE SUB PUSH1 0x20 DUP2 LT ISZERO PUSH2 0x67 JUMPI PUSH1 0x0 DUP1 REVERT JUMPDEST DUP2 ADD SWAP1 PUSH1 0x20 DUP2 ADD DUP2 CALLDATALOAD PUSH1 0x1 PUSH1 0x20 SHL DUP2 GT ISZERO PUSH2 0x81 JUMPI PUSH1 0x0 DUP1 REVERT JUMPDEST DUP3 ADD DUP4 PUSH1 0x20 DUP3 ADD GT ISZERO PUSH2 0x93 JUMPI PUSH1 0x0 DUP1 REVERT JUMPDEST DUP1 CALLDATALOAD SWAP1 PUSH1 0x20 ADD SWAP2 DUP5 PUSH1 0x1 DUP4 MUL DUP5 ADD GT PUSH1 0x1 PUSH1 0x20 SHL DUP4 GT OR ISZERO PUSH2 0xB4 JUMPI PUSH1 0x0 DUP1 REVERT JUMPDEST POP SWAP1 SWAP3 POP SWAP1 POP PUSH2 0x337 JUMP JUMPDEST STOP JUMPDEST PUSH2 0x1E4 PUSH1 0x4 DUP1 CALLDATASIZE SUB PUSH1 0x40 DUP2 LT ISZERO PUSH2 0xD7 JUMPI PUSH1 0x0 DUP1 REVERT JUMPDEST DUP2 ADD SWAP1 PUSH1 0x20 DUP2 ADD DUP2 CALLDATALOAD PUSH1 0x1 PUSH1 0x20 SHL DUP2 GT ISZERO PUSH2 0xF1 JUMPI PUSH1 0x0 DUP1 REVERT JUMPDEST DUP3 ADD DUP4 PUSH1 0x20 DUP3 ADD GT ISZERO PUSH2 0x103 JUMPI PUSH1 0x0 DUP1 REVERT JUMPDEST DUP1 CALLDATALOAD SWAP1 PUSH1 0x20 ADD SWAP2 DUP5 PUSH1 0x20 DUP4 MUL DUP5 ADD GT PUSH1 0x1 PUSH1 0x20 SHL DUP4 GT OR ISZERO PUSH2 0x124 JUMPI PUSH1 0x0 DUP1 REVERT JUMPDEST SWAP2 SWAP1 DUP1 DUP1 PUSH1 0x20 MUL PUSH1 0x20 ADD PUSH1 0x40 MLOAD SWAP1 DUP2 ADD PUSH1 0x40 MSTORE DUP1 SWAP4 SWAP3 SWAP2 SWAP1 DUP2 DUP2 MSTORE PUSH1 0x20 ADD DUP4 DUP4 PUSH1 0x20 MUL DUP1 DUP3 DUP5 CALLDATACOPY PUSH1 0x0 SWAP3 ADD SWAP2 SWAP1 SWAP2 MSTORE POP SWAP3 SWAP6 SWAP5 SWAP4 PUSH1 0x20 DUP2 ADD SWAP4 POP CALLDATALOAD SWAP2 POP POP PUSH1 0x1 PUSH1 0x20 SHL DUP2 GT ISZERO PUSH2 0x173 JUMPI PUSH1 0x0 DUP1 REVERT JUMPDEST DUP3 ADD DUP4 PUSH1 0x20 DUP3 ADD GT ISZERO PUSH2 0x185 JUMPI PUSH1 0x0 DUP1 REVERT JUMPDEST DUP1 CALLDATALOAD SWAP1 PUSH1 0x20 ADD SWAP2 DUP5 PUSH1 0x20 DUP4 MUL DUP5 ADD GT PUSH1 0x1 PUSH1 0x20 SHL DUP4 GT OR ISZERO PUSH2 0x1A6 JUMPI PUSH1 0x0 DUP1 REVERT JUMPDEST SWAP2 SWAP1 DUP1 DUP1 PUSH1 0x20 MUL PUSH1 0x20 ADD PUSH1 0x40 MLOAD SWAP1 DUP2 ADD PUSH1 0x40 MSTORE DUP1 SWAP4 SWAP3 SWAP2 SWAP1 DUP2 DUP2 MSTORE PUSH1 0x20 ADD DUP4 DUP4 PUSH1 0x20 MUL DUP1 DUP3 DUP5 CALLDATACOPY PUSH1 0x0 SWAP3 ADD SWAP2 SWAP1 SWAP2 MSTORE POP SWAP3 SWAP6 POP PUSH2 0x33B SWAP5 POP POP POP POP POP JUMP JUMPDEST PUSH1 0x40 DUP1 MLOAD SWAP2 ISZERO ISZERO DUP3 MSTORE MLOAD SWAP1 DUP2 SWAP1 SUB PUSH1 0x20 ADD SWAP1 RETURN JUMPDEST PUSH2 0x1E4 PUSH1 0x4 DUP1 CALLDATASIZE SUB PUSH1 0x60 DUP2 LT ISZERO PUSH2 0x20E JUMPI PUSH1 0x0 DUP1 REVERT JUMPDEST DUP2 ADD SWAP1 PUSH1 0x20 DUP2 ADD DUP2 CALLDATALOAD PUSH1 0x1 PUSH1 0x20 SHL DUP2 GT ISZERO PUSH2 0x228 JUMPI PUSH1 0x0 DUP1 REVERT JUMPDEST DUP3 ADD DUP4 PUSH1 0x20 DUP3 ADD GT ISZERO PUSH2 0x23A JUMPI PUSH1 0x0 DUP1 REVERT JUMPDEST DUP1 CALLDATALOAD SWAP1 PUSH1 0x20 ADD SWAP2 DUP5 PUSH1 0x20 DUP4 MUL DUP5 ADD GT PUSH1 0x1 PUSH1 0x20 SHL DUP4 GT OR ISZERO PUSH2 0x25B JUMPI PUSH1 0x0 DUP1 REVERT JUMPDEST SWAP2 SWAP1 DUP1 DUP1 PUSH1 0x20 MUL PUSH1 0x20 ADD PUSH1 0x40 MLOAD SWAP1 DUP2 ADD PUSH1 0x40 MSTORE DUP1 SWAP4 SWAP3 SWAP2 SWAP1 DUP2 DUP2 MSTORE PUSH1 0x20 ADD DUP4 DUP4 PUSH1 0x20 MUL DUP1 DUP3 DUP5 CALLDATACOPY PUSH1 0x0 SWAP3 ADD SWAP2 SWAP1 SWAP2 MSTORE POP SWAP3 SWAP6 SWAP5 SWAP4 PUSH1 0x20 DUP2 ADD SWAP4 POP CALLDATALOAD SWAP2 POP POP PUSH1 0x1 PUSH1 0x20 SHL DUP2 GT ISZERO PUSH2 0x2AA JUMPI PUSH1 0x0 DUP1 REVERT JUMPDEST DUP3 ADD DUP4 PUSH1 0x20 DUP3 ADD GT ISZERO PUSH2 0x2BC JUMPI PUSH1 0x0 DUP1 REVERT JUMPDEST DUP1 CALLDATALOAD SWAP1 PUSH1 0x20 ADD SWAP2 DUP5 PUSH1 0x20 DUP4 MUL DUP5 ADD GT PUSH1 0x1 PUSH1 0x20 SHL DUP4 GT OR ISZERO PUSH2 0x2DD JUMPI PUSH1 0x0 DUP1 REVERT JUMPDEST SWAP2 SWAP1 DUP1 DUP1 PUSH1 0x20 MUL PUSH1 0x20 ADD PUSH1 0x40 MLOAD SWAP1 DUP2 ADD PUSH1 0x40 MSTORE DUP1 SWAP4 SWAP3 SWAP2 SWAP1 DUP2 DUP2 MSTORE PUSH1 0x20 ADD DUP4 DUP4 PUSH1 0x20 MUL DUP1 DUP3 DUP5 CALLDATACOPY PUSH1 0x0 SWAP3 ADD SWAP2 SWAP1 SWAP2 MSTORE POP SWAP3 SWAP6 POP POP SWAP2 CALLDATALOAD SWAP3 POP PUSH2 0x69F SWAP2 POP POP JUMP JUMPDEST PUSH2 0x325 PUSH2 0xCE9 JUMP JUMPDEST PUSH1 0x40 DUP1 MLOAD SWAP2 DUP3 MSTORE MLOAD SWAP1 DUP2 SWAP1 SUB PUSH1 0x20 ADD SWAP1 RETURN JUMPDEST POP POP JUMP JUMPDEST PUSH1 0x0 DUP1 PUSH2 0x346 PUSH2 0xD0D JUMP JUMPDEST SWAP1 POP PUSH1 0x0 PUSH2 0x352 PUSH2 0xF2F JUMP JUMPDEST SWAP1 POP DUP4 MLOAD PUSH1 0x1 PUSH1 0x2 DUP4 MLOAD DUP2 PUSH2 0x363 JUMPI INVALID JUMPDEST DIV SUB EQ PUSH2 0x36F JUMPI PUSH1 0x0 DUP1 REVERT JUMPDEST DUP5 MLOAD PUSH1 0x8 EQ PUSH2 0x37D JUMPI PUSH1 0x0 DUP1 REVERT JUMPDEST PUSH2 0x385 PUSH2 0x1A89 JUMP JUMPDEST PUSH2 0x38D PUSH2 0x1AA7 JUMP JUMPDEST PUSH1 0x0 DUP1 PUSH1 0x2 SWAP1 POP DUP5 PUSH1 0x0 DUP2 MLOAD DUP2 LT PUSH2 0x3A1 JUMPI INVALID JUMPDEST PUSH1 0x20 MUL PUSH1 0x20 ADD ADD MLOAD DUP4 PUSH1 0x0 PUSH1 0x4 DUP2 LT PUSH2 0x3B6 JUMPI INVALID JUMPDEST PUSH1 0x20 MUL ADD MSTORE DUP5 MLOAD DUP6 SWAP1 PUSH1 0x1 SWAP1 DUP2 LT PUSH2 0x3CA JUMPI INVALID JUMPDEST PUSH1 0x20 MUL PUSH1 0x20 ADD ADD MLOAD DUP4 PUSH1 0x1 PUSH1 0x4 DUP2 LT PUSH2 0x3DF JUMPI INVALID JUMPDEST PUSH1 0x20 MUL ADD MSTORE PUSH1 0x0 JUMPDEST DUP9 MLOAD DUP2 LT ISZERO PUSH2 0x4AD JUMPI DUP6 MLOAD PUSH1 0x1 DUP4 ADD SWAP3 DUP8 SWAP2 DUP2 LT PUSH2 0x401 JUMPI INVALID JUMPDEST PUSH1 0x20 MUL PUSH1 0x20 ADD ADD MLOAD DUP6 PUSH1 0x0 PUSH1 0x3 DUP2 LT PUSH2 0x416 JUMPI INVALID JUMPDEST PUSH1 0x20 MUL ADD MSTORE DUP6 MLOAD PUSH1 0x1 DUP4 ADD SWAP3 DUP8 SWAP2 DUP2 LT PUSH2 0x42C JUMPI INVALID JUMPDEST PUSH1 0x20 MUL PUSH1 0x20 ADD ADD MLOAD DUP6 PUSH1 0x1 PUSH1 0x3 DUP2 LT PUSH2 0x441 JUMPI INVALID JUMPDEST PUSH1 0x20 MUL ADD MSTORE DUP9 MLOAD DUP10 SWAP1 DUP3 SWAP1 DUP2 LT PUSH2 0x454 JUMPI INVALID JUMPDEST PUSH1 0x20 MUL PUSH1 0x20 ADD ADD MLOAD DUP6 PUSH1 0x2 PUSH1 0x3 DUP2 LT PUSH2 0x469 JUMPI INVALID JUMPDEST PUSH1 0x20 MUL ADD MSTORE PUSH1 0x60 PUSH1 0x40 DUP6 ADD PUSH1 0x80 DUP8 PUSH1 0x7 PUSH2 0x7D0 GAS SUB STATICCALL SWAP3 POP DUP3 PUSH2 0x48B JUMPI PUSH1 0x0 DUP1 REVERT JUMPDEST PUSH1 0x60 DUP5 PUSH1 0xC0 DUP7 PUSH1 0x6 PUSH2 0x7D0 GAS SUB STATICCALL SWAP3 POP DUP3 PUSH2 0x4A5 JUMPI PUSH1 0x0 DUP1 REVERT JUMPDEST PUSH1 0x1 ADD PUSH2 0x3E7 JUMP JUMPDEST POP PUSH1 0x0 PUSH1 0x40 MLOAD DUP1 PUSH2 0x300 ADD PUSH1 0x40 MSTORE DUP1 DUP12 PUSH1 0x0 DUP2 MLOAD DUP2 LT PUSH2 0x4C9 JUMPI INVALID JUMPDEST PUSH1 0x20 MUL PUSH1 0x20 ADD ADD MLOAD DUP2 MSTORE PUSH1 0x20 ADD DUP12 PUSH1 0x1 DUP2 MLOAD DUP2 LT PUSH2 0x4E3 JUMPI INVALID JUMPDEST PUSH1 0x20 MUL PUSH1 0x20 ADD ADD MLOAD DUP2 MSTORE PUSH1 0x20 ADD DUP12 PUSH1 0x2 DUP2 MLOAD DUP2 LT PUSH2 0x4FD JUMPI INVALID JUMPDEST PUSH1 0x20 MUL PUSH1 0x20 ADD ADD MLOAD DUP2 MSTORE PUSH1 0x20 ADD DUP12 PUSH1 0x3 DUP2 MLOAD DUP2 LT PUSH2 0x517 JUMPI INVALID JUMPDEST PUSH1 0x20 MUL PUSH1 0x20 ADD ADD MLOAD DUP2 MSTORE PUSH1 0x20 ADD DUP12 PUSH1 0x4 DUP2 MLOAD DUP2 LT PUSH2 0x531 JUMPI INVALID JUMPDEST PUSH1 0x20 MUL PUSH1 0x20 ADD ADD MLOAD DUP2 MSTORE PUSH1 0x20 ADD DUP12 PUSH1 0x5 DUP2 MLOAD DUP2 LT PUSH2 0x54B JUMPI INVALID JUMPDEST PUSH1 0x20 MUL PUSH1 0x20 ADD ADD MLOAD DUP2 MSTORE PUSH1 0x20 ADD DUP9 PUSH1 0x0 PUSH1 0xE DUP2 LT PUSH2 0x565 JUMPI INVALID JUMPDEST PUSH1 0x20 MUL ADD MLOAD DUP2 MSTORE PUSH1 0x20 ADD PUSH2 0x589 DUP10 PUSH1 0x1 PUSH1 0xE DUP2 LT PUSH2 0x57F JUMPI INVALID JUMPDEST PUSH1 0x20 MUL ADD MLOAD PUSH2 0x10E9 JUMP JUMPDEST DUP2 MSTORE PUSH1 0x40 DUP10 DUP2 ADD MLOAD PUSH1 0x20 DUP4 ADD MSTORE PUSH1 0x60 DUP1 DUP12 ADD MLOAD SWAP2 DUP4 ADD SWAP2 SWAP1 SWAP2 MSTORE PUSH1 0x80 DUP1 DUP12 ADD MLOAD SWAP2 DUP4 ADD SWAP2 SWAP1 SWAP2 MSTORE PUSH1 0xA0 DUP1 DUP12 ADD MLOAD SWAP2 DUP4 ADD SWAP2 SWAP1 SWAP2 MSTORE DUP7 MLOAD SWAP1 DUP3 ADD MSTORE PUSH1 0xC0 ADD PUSH2 0x5D1 DUP7 PUSH1 0x1 PUSH2 0x57F JUMP JUMPDEST DUP2 MSTORE PUSH1 0xC0 DUP10 ADD MLOAD PUSH1 0x20 DUP3 ADD MSTORE PUSH1 0xE0 DUP10 ADD MLOAD PUSH1 0x40 DUP3 ADD MSTORE PUSH2 0x100 DUP10 ADD MLOAD PUSH1 0x60 DUP3 ADD MSTORE PUSH1 0x80 ADD DUP9 PUSH1 0x9 PUSH1 0x20 MUL ADD MLOAD DUP2 MSTORE PUSH1 0x20 ADD DUP12 PUSH1 0x6 DUP2 MLOAD DUP2 LT PUSH2 0x60F JUMPI INVALID JUMPDEST PUSH1 0x20 MUL PUSH1 0x20 ADD ADD MLOAD DUP2 MSTORE PUSH1 0x20 ADD PUSH2 0x639 DUP13 PUSH1 0x7 DUP2 MLOAD DUP2 LT PUSH2 0x62C JUMPI INVALID JUMPDEST PUSH1 0x20 MUL PUSH1 0x20 ADD ADD MLOAD PUSH2 0x10E9 JUMP JUMPDEST DUP2 MSTORE PUSH2 0x140 DUP10 ADD MLOAD PUSH1 0x20 DUP3 ADD MSTORE PUSH2 0x160 DUP10 ADD MLOAD PUSH1 0x40 DUP3 ADD MSTORE PUSH2 0x180 DUP10 ADD MLOAD PUSH1 0x60 DUP3 ADD MSTORE PUSH2 0x1A0 DUP10 ADD MLOAD PUSH1 0x80 SWAP1 SWAP2 ADD MSTORE SWAP1 POP PUSH2 0x672 PUSH2 0x1AC5 JUMP JUMPDEST PUSH1 0x20 DUP2 PUSH2 0x300 DUP5 PUSH1 0x8 PUSH2 0x7D0 GAS SUB STATICCALL SWAP4 POP DUP4 PUSH2 0x68D JUMPI PUSH1 0x0 DUP1 REVERT JUMPDEST MLOAD PUSH1 0x1 EQ SWAP11 SWAP10 POP POP POP POP POP POP POP POP POP POP JUMP JUMPDEST PUSH1 0x0 DUP2 PUSH1 0x1 EQ ISZERO PUSH2 0x6BB JUMPI PUSH2 0x6B4 DUP5 DUP5 PUSH2 0x33B JUMP JUMPDEST SWAP1 POP PUSH2 0xCE2 JUMP JUMPDEST PUSH1 0x0 PUSH2 0x6C5 PUSH2 0xD0D JUMP JUMPDEST SWAP1 POP PUSH1 0x0 PUSH2 0x6D1 PUSH2 0xF2F JUMP JUMPDEST SWAP1 POP DUP4 PUSH1 0x8 MUL DUP7 MLOAD EQ PUSH2 0x715 JUMPI PUSH1 0x40 MLOAD PUSH3 0x461BCD PUSH1 0xE5 SHL DUP2 MSTORE PUSH1 0x4 ADD DUP1 DUP1 PUSH1 0x20 ADD DUP3 DUP2 SUB DUP3 MSTORE PUSH1 0x21 DUP2 MSTORE PUSH1 0x20 ADD DUP1 PUSH2 0x1BA2 PUSH1 0x21 SWAP2 CODECOPY PUSH1 0x40 ADD SWAP2 POP POP PUSH1 0x40 MLOAD DUP1 SWAP2 SUB SWAP1 REVERT JUMPDEST DUP4 DUP6 MLOAD DUP2 PUSH2 0x71F JUMPI INVALID JUMPDEST MOD ISZERO PUSH2 0x75C JUMPI PUSH1 0x40 MLOAD PUSH3 0x461BCD PUSH1 0xE5 SHL DUP2 MSTORE PUSH1 0x4 ADD DUP1 DUP1 PUSH1 0x20 ADD DUP3 DUP2 SUB DUP3 MSTORE PUSH1 0x21 DUP2 MSTORE PUSH1 0x20 ADD DUP1 PUSH2 0x1BC3 PUSH1 0x21 SWAP2 CODECOPY PUSH1 0x40 ADD SWAP2 POP POP PUSH1 0x40 MLOAD DUP1 SWAP2 SUB SWAP1 REVERT JUMPDEST DUP4 DUP6 MLOAD DUP2 PUSH2 0x766 JUMPI INVALID JUMPDEST DIV PUSH1 0x1 PUSH1 0x2 DUP4 MLOAD DUP2 PUSH2 0x774 JUMPI INVALID JUMPDEST DIV SUB EQ PUSH2 0x7B2 JUMPI PUSH1 0x40 MLOAD PUSH3 0x461BCD PUSH1 0xE5 SHL DUP2 MSTORE PUSH1 0x4 ADD DUP1 DUP1 PUSH1 0x20 ADD DUP3 DUP2 SUB DUP3 MSTORE PUSH1 0x2E DUP2 MSTORE PUSH1 0x20 ADD DUP1 PUSH2 0x1BE4 PUSH1 0x2E SWAP2 CODECOPY PUSH1 0x40 ADD SWAP2 POP POP PUSH1 0x40 MLOAD DUP1 SWAP2 SUB SWAP1 REVERT JUMPDEST PUSH1 0x60 DUP1 PUSH2 0x7C0 DUP9 DUP9 DUP9 PUSH2 0x1113 JUMP JUMPDEST SWAP1 SWAP3 POP SWAP1 POP PUSH1 0x0 PUSH2 0x7D2 DUP6 DUP6 DUP5 PUSH2 0x173B JUMP JUMPDEST SWAP1 POP PUSH1 0x0 DUP8 PUSH1 0x6 MUL PUSH1 0x12 ADD PUSH8 0xFFFFFFFFFFFFFFFF DUP2 GT DUP1 ISZERO PUSH2 0x7F3 JUMPI PUSH1 0x0 DUP1 REVERT JUMPDEST POP PUSH1 0x40 MLOAD SWAP1 DUP1 DUP3 MSTORE DUP1 PUSH1 0x20 MUL PUSH1 0x20 ADD DUP3 ADD PUSH1 0x40 MSTORE DUP1 ISZERO PUSH2 0x81D JUMPI DUP2 PUSH1 0x20 ADD PUSH1 0x20 DUP3 MUL DUP1 CALLDATASIZE DUP4 CALLDATACOPY ADD SWAP1 POP JUMPDEST POP SWAP1 POP PUSH1 0x0 JUMPDEST DUP9 DUP2 LT ISZERO PUSH2 0x97C JUMPI DUP5 DUP2 PUSH1 0x2 MUL DUP2 MLOAD DUP2 LT PUSH2 0x83A JUMPI INVALID JUMPDEST PUSH1 0x20 MUL PUSH1 0x20 ADD ADD MLOAD DUP3 DUP3 PUSH1 0x6 MUL DUP2 MLOAD DUP2 LT PUSH2 0x851 JUMPI INVALID JUMPDEST PUSH1 0x20 MUL PUSH1 0x20 ADD ADD DUP2 DUP2 MSTORE POP POP DUP5 DUP2 PUSH1 0x2 MUL PUSH1 0x1 ADD DUP2 MLOAD DUP2 LT PUSH2 0x86F JUMPI INVALID JUMPDEST PUSH1 0x20 MUL PUSH1 0x20 ADD ADD MLOAD DUP3 DUP3 PUSH1 0x6 MUL PUSH1 0x1 ADD DUP2 MLOAD DUP2 LT PUSH2 0x889 JUMPI INVALID JUMPDEST PUSH1 0x20 MUL PUSH1 0x20 ADD ADD DUP2 DUP2 MSTORE POP POP DUP11 DUP2 PUSH1 0x8 MUL PUSH1 0x2 ADD DUP2 MLOAD DUP2 LT PUSH2 0x8A7 JUMPI INVALID JUMPDEST PUSH1 0x20 MUL PUSH1 0x20 ADD ADD MLOAD DUP3 DUP3 PUSH1 0x6 MUL PUSH1 0x2 ADD DUP2 MLOAD DUP2 LT PUSH2 0x8C1 JUMPI INVALID JUMPDEST PUSH1 0x20 MUL PUSH1 0x20 ADD ADD DUP2 DUP2 MSTORE POP POP DUP11 DUP2 PUSH1 0x8 MUL PUSH1 0x3 ADD DUP2 MLOAD DUP2 LT PUSH2 0x8DF JUMPI INVALID JUMPDEST PUSH1 0x20 MUL PUSH1 0x20 ADD ADD MLOAD DUP3 DUP3 PUSH1 0x6 MUL PUSH1 0x3 ADD DUP2 MLOAD DUP2 LT PUSH2 0x8F9 JUMPI INVALID JUMPDEST PUSH1 0x20 MUL PUSH1 0x20 ADD ADD DUP2 DUP2 MSTORE POP POP DUP11 DUP2 PUSH1 0x8 MUL PUSH1 0x4 ADD DUP2 MLOAD DUP2 LT PUSH2 0x917 JUMPI INVALID JUMPDEST PUSH1 0x20 MUL PUSH1 0x20 ADD ADD MLOAD DUP3 DUP3 PUSH1 0x6 MUL PUSH1 0x4 ADD DUP2 MLOAD DUP2 LT PUSH2 0x931 JUMPI INVALID JUMPDEST PUSH1 0x20 MUL PUSH1 0x20 ADD ADD DUP2 DUP2 MSTORE POP POP DUP11 DUP2 PUSH1 0x8 MUL PUSH1 0x5 ADD DUP2 MLOAD DUP2 LT PUSH2 0x94F JUMPI INVALID JUMPDEST PUSH1 0x20 MUL PUSH1 0x20 ADD ADD MLOAD DUP3 DUP3 PUSH1 0x6 MUL PUSH1 0x5 ADD DUP2 MLOAD DUP2 LT PUSH2 0x969 JUMPI INVALID JUMPDEST PUSH1 0x20 SWAP1 DUP2 MUL SWAP2 SWAP1 SWAP2 ADD ADD MSTORE PUSH1 0x1 ADD PUSH2 0x823 JUMP JUMPDEST POP DUP2 MLOAD DUP2 MLOAD DUP3 SWAP1 PUSH1 0x6 DUP12 MUL SWAP1 DUP2 LT PUSH2 0x990 JUMPI INVALID JUMPDEST PUSH1 0x20 SWAP1 DUP2 MUL SWAP2 SWAP1 SWAP2 ADD ADD MSTORE PUSH2 0x9A6 DUP3 PUSH1 0x1 PUSH2 0x57F JUMP JUMPDEST DUP2 DUP10 PUSH1 0x6 MUL PUSH1 0x1 ADD DUP2 MLOAD DUP2 LT PUSH2 0x9B8 JUMPI INVALID JUMPDEST PUSH1 0x20 SWAP1 DUP2 MUL SWAP2 SWAP1 SWAP2 ADD ADD MSTORE DUP6 PUSH1 0x2 PUSH1 0x20 MUL ADD MLOAD DUP2 DUP10 PUSH1 0x6 MUL PUSH1 0x2 ADD DUP2 MLOAD DUP2 LT PUSH2 0x9DD JUMPI INVALID JUMPDEST PUSH1 0x20 SWAP1 DUP2 MUL SWAP2 SWAP1 SWAP2 ADD ADD MSTORE DUP6 PUSH1 0x3 PUSH1 0x20 MUL ADD MLOAD DUP2 DUP10 PUSH1 0x6 MUL PUSH1 0x3 ADD DUP2 MLOAD DUP2 LT PUSH2 0xA02 JUMPI INVALID JUMPDEST PUSH1 0x20 SWAP1 DUP2 MUL SWAP2 SWAP1 SWAP2 ADD ADD MSTORE DUP6 PUSH1 0x4 PUSH1 0x20 MUL ADD MLOAD DUP2 DUP10 PUSH1 0x6 MUL PUSH1 0x4 ADD DUP2 MLOAD DUP2 LT PUSH2 0xA27 JUMPI INVALID JUMPDEST PUSH1 0x20 SWAP1 DUP2 MUL SWAP2 SWAP1 SWAP2 ADD ADD MSTORE DUP6 PUSH1 0x5 PUSH1 0x20 MUL ADD MLOAD DUP2 DUP10 PUSH1 0x6 MUL PUSH1 0x5 ADD DUP2 MLOAD DUP2 LT PUSH2 0xA4C JUMPI INVALID JUMPDEST PUSH1 0x20 SWAP1 DUP2 MUL SWAP2 SWAP1 SWAP2 ADD ADD MSTORE DUP2 PUSH1 0x2 PUSH1 0x20 MUL ADD MLOAD DUP2 DUP10 PUSH1 0x6 MUL PUSH1 0x6 ADD DUP2 MLOAD DUP2 LT PUSH2 0xA71 JUMPI INVALID JUMPDEST PUSH1 0x20 SWAP1 DUP2 MUL SWAP2 SWAP1 SWAP2 ADD ADD MSTORE PUSH2 0xA87 DUP3 PUSH1 0x3 PUSH2 0x57F JUMP JUMPDEST DUP2 DUP10 PUSH1 0x6 MUL PUSH1 0x7 ADD DUP2 MLOAD DUP2 LT PUSH2 0xA99 JUMPI INVALID JUMPDEST PUSH1 0x20 SWAP1 DUP2 MUL SWAP2 SWAP1 SWAP2 ADD ADD MSTORE DUP6 PUSH1 0x6 PUSH1 0x20 MUL ADD MLOAD DUP2 DUP10 PUSH1 0x6 MUL PUSH1 0x8 ADD DUP2 MLOAD DUP2 LT PUSH2 0xABE JUMPI INVALID JUMPDEST PUSH1 0x20 SWAP1 DUP2 MUL SWAP2 SWAP1 SWAP2 ADD ADD MSTORE DUP6 PUSH1 0x7 PUSH1 0x20 MUL ADD MLOAD DUP2 DUP10 PUSH1 0x6 MUL PUSH1 0x9 ADD DUP2 MLOAD DUP2 LT PUSH2 0xAE3 JUMPI INVALID JUMPDEST PUSH1 0x20 SWAP1 DUP2 MUL SWAP2 SWAP1 SWAP2 ADD ADD MSTORE DUP6 PUSH1 0x8 PUSH1 0x20 MUL ADD MLOAD DUP2 DUP10 PUSH1 0x6 MUL PUSH1 0xA ADD DUP2 MLOAD DUP2 LT PUSH2 0xB08 JUMPI INVALID JUMPDEST PUSH1 0x20 SWAP1 DUP2 MUL SWAP2 SWAP1 SWAP2 ADD ADD MSTORE DUP6 PUSH1 0x9 PUSH1 0x20 MUL ADD MLOAD DUP2 DUP10 PUSH1 0x6 MUL PUSH1 0xB ADD DUP2 MLOAD DUP2 LT PUSH2 0xB2D JUMPI INVALID JUMPDEST PUSH1 0x20 MUL PUSH1 0x20 ADD ADD DUP2 DUP2 MSTORE POP POP DUP4 DUP9 PUSH1 0x2 MUL DUP2 MLOAD DUP2 LT PUSH2 0xB48 JUMPI INVALID JUMPDEST PUSH1 0x20 MUL PUSH1 0x20 ADD ADD MLOAD DUP2 DUP10 PUSH1 0x6 MUL PUSH1 0xC ADD DUP2 MLOAD DUP2 LT PUSH2 0xB62 JUMPI INVALID JUMPDEST PUSH1 0x20 MUL PUSH1 0x20 ADD ADD DUP2 DUP2 MSTORE POP POP PUSH2 0xB83 DUP5 DUP10 PUSH1 0x2 MUL PUSH1 0x1 ADD DUP2 MLOAD DUP2 LT PUSH2 0x62C JUMPI INVALID JUMPDEST DUP2 DUP10 PUSH1 0x6 MUL PUSH1 0xD ADD DUP2 MLOAD DUP2 LT PUSH2 0xB95 JUMPI INVALID JUMPDEST PUSH1 0x20 SWAP1 DUP2 MUL SWAP2 SWAP1 SWAP2 ADD ADD MSTORE DUP6 PUSH1 0xA PUSH1 0x20 MUL ADD MLOAD DUP2 DUP10 PUSH1 0x6 MUL PUSH1 0xE ADD DUP2 MLOAD DUP2 LT PUSH2 0xBBA JUMPI INVALID JUMPDEST PUSH1 0x20 SWAP1 DUP2 MUL SWAP2 SWAP1 SWAP2 ADD ADD MSTORE DUP6 PUSH1 0xB PUSH1 0x20 MUL ADD MLOAD DUP2 DUP10 PUSH1 0x6 MUL PUSH1 0xF ADD DUP2 MLOAD DUP2 LT PUSH2 0xBDF JUMPI INVALID JUMPDEST PUSH1 0x20 SWAP1 DUP2 MUL SWAP2 SWAP1 SWAP2 ADD ADD MSTORE DUP6 PUSH1 0xC PUSH1 0x20 MUL ADD MLOAD DUP2 DUP10 PUSH1 0x6 MUL PUSH1 0x10 ADD DUP2 MLOAD DUP2 LT PUSH2 0xC04 JUMPI INVALID JUMPDEST PUSH1 0x20 SWAP1 DUP2 MUL SWAP2 SWAP1 SWAP2 ADD ADD MSTORE DUP6 PUSH1 0xD PUSH1 0x20 MUL ADD MLOAD DUP2 DUP10 PUSH1 0x6 MUL PUSH1 0x11 ADD DUP2 MLOAD DUP2 LT PUSH2 0xC29 JUMPI INVALID JUMPDEST PUSH1 0x20 MUL PUSH1 0x20 ADD ADD DUP2 DUP2 MSTORE POP POP PUSH1 0x0 DUP2 MLOAD PUSH1 0x20 MUL SWAP1 POP PUSH2 0xC46 PUSH2 0x1AC5 JUMP JUMPDEST PUSH1 0xC0 DUP3 MOD ISZERO PUSH2 0xC86 JUMPI PUSH1 0x40 MLOAD PUSH3 0x461BCD PUSH1 0xE5 SHL DUP2 MSTORE PUSH1 0x4 ADD DUP1 DUP1 PUSH1 0x20 ADD DUP3 DUP2 SUB DUP3 MSTORE PUSH1 0x2D DUP2 MSTORE PUSH1 0x20 ADD DUP1 PUSH2 0x1C12 PUSH1 0x2D SWAP2 CODECOPY PUSH1 0x40 ADD SWAP2 POP POP PUSH1 0x40 MLOAD DUP1 SWAP2 SUB SWAP1 REVERT JUMPDEST PUSH1 0x20 DUP2 DUP4 PUSH1 0x20 DUP7 ADD PUSH1 0x8 PUSH2 0x7D0 GAS SUB STATICCALL SWAP9 POP DUP9 PUSH2 0xCD4 JUMPI PUSH1 0x40 MLOAD PUSH3 0x461BCD PUSH1 0xE5 SHL DUP2 MSTORE PUSH1 0x4 ADD DUP1 DUP1 PUSH1 0x20 ADD DUP3 DUP2 SUB DUP3 MSTORE PUSH1 0x21 DUP2 MSTORE PUSH1 0x20 ADD DUP1 PUSH2 0x1B44 PUSH1 0x21 SWAP2 CODECOPY PUSH1 0x40 ADD SWAP2 POP POP PUSH1 0x40 MLOAD DUP1 SWAP2 SUB SWAP1 REVERT JUMPDEST MLOAD PUSH1 0x1 EQ SWAP8 POP POP POP POP POP POP POP POP JUMPDEST SWAP4 SWAP3 POP POP POP JUMP JUMPDEST PUSH32 0x30644E72E131A029B85045B68181585D2833E84879B9709143E1F593F0000001 SWAP1 JUMP JUMPDEST PUSH2 0xD15 PUSH2 0x1AE3 JUMP JUMPDEST PUSH32 0xF4AF1A7C696323ACD6CFEC8D893DFEC54905C08609DEFE43E9C996D9F6E012C DUP2 MSTORE PUSH32 0x2E3744879A66C454913EA7289F9D007BFD04A993C8B503A0215BFEA718441647 PUSH1 0x20 DUP3 ADD MSTORE PUSH32 0x7F2CEC2BE880856570FF0B07E5AC77570A6614DE2D578B606BD4F7BB7327DC4 PUSH1 0x40 DUP3 ADD MSTORE PUSH32 0x1A7FB767AD27051CB79101948FA0DDC4587D559BF285204A720A5CC79434768 PUSH1 0x60 DUP3 ADD MSTORE PUSH32 0x22A321DF8590C78AB3B80A7177312304B32142116D5B314C2F33688F51A90272 PUSH1 0x80 DUP3 ADD MSTORE PUSH32 0x1B19AD32A7BEC07E4ECD8A5DC4B2F0A331B50EC900B39FA9F9E54589992CF78C PUSH1 0xA0 DUP3 ADD MSTORE PUSH32 0x1E268EC51B4C2FA16F4480EFD34924DE4EF57518B34A3F284B9C23D2CBF32C06 PUSH1 0xC0 DUP3 ADD MSTORE PUSH32 0x16F40C4C83E8385935203F81A00635FA0103593354DFECDEE792F5DBF3518B8A PUSH1 0xE0 DUP3 ADD MSTORE PUSH32 0x24A977E99EA5D513F0D1B3320C7006F9A29C7577255E83BDEA21D3D9C0A84DAF PUSH2 0x100 DUP3 ADD MSTORE PUSH32 0x2A2A5B37ADAD4F5CCBE97AD51682B12E9DD1D0DD031335CAB8911B2811D60799 PUSH2 0x120 DUP3 ADD MSTORE PUSH32 0x34E28926FC4E179655C1857C18F88A5BE2FFED63F060A1AB74857F411755C23 PUSH2 0x140 DUP3 ADD MSTORE PUSH32 0x1605BA688CAD5256CBBF33BB812FE5861EAEEA375B3E410832E664021C7F14E7 PUSH2 0x160 DUP3 ADD MSTORE PUSH32 0x7EBFEE4F1CB7F5BCA0DC1B7BAA0DC164BF4D9EF678ECD7AF4D536CEA0E5F325 PUSH2 0x180 DUP3 ADD MSTORE PUSH32 0xB54E9E8E426B1A0DE04C629964AAA69E59665A72C4DA2FD587CA3277CB431AD PUSH2 0x1A0 DUP3 ADD MSTORE SWAP1 JUMP JUMPDEST PUSH1 0x40 DUP1 MLOAD PUSH1 0x8 DUP1 DUP3 MSTORE PUSH2 0x120 DUP3 ADD SWAP1 SWAP3 MSTORE PUSH1 0x60 SWAP2 PUSH1 0x20 DUP3 ADD PUSH2 0x100 DUP1 CALLDATASIZE DUP4 CALLDATACOPY ADD SWAP1 POP POP SWAP1 POP PUSH32 0x6D479D71797726BA36A366CA17F26679619DE916FCA4C01C8F736E4996956BE DUP2 PUSH1 0x0 DUP2 MLOAD DUP2 LT PUSH2 0xF82 JUMPI INVALID JUMPDEST PUSH1 0x20 MUL PUSH1 0x20 ADD ADD DUP2 DUP2 MSTORE POP POP PUSH32 0x5DFEB283F14178CECD2CAC00B7D4ECA893BAEC490107D07A786DC28B0A2DD41 DUP2 PUSH1 0x1 DUP2 MLOAD DUP2 LT PUSH2 0xFBC JUMPI INVALID JUMPDEST PUSH1 0x20 MUL PUSH1 0x20 ADD ADD DUP2 DUP2 MSTORE POP POP PUSH32 0xF6E76906CCC039D6B81518A6A73EADC525327E7F5E62ED719DF754168990BE2 DUP2 PUSH1 0x2 DUP2 MLOAD DUP2 LT PUSH2 0xFF6 JUMPI INVALID JUMPDEST PUSH1 0x20 MUL PUSH1 0x20 ADD ADD DUP2 DUP2 MSTORE POP POP PUSH32 0x12785A68902F36F49BA399B94D9C41933855A3754BF78F9E0C88B363448662B1 DUP2 PUSH1 0x3 DUP2 MLOAD DUP2 LT PUSH2 0x1030 JUMPI INVALID JUMPDEST PUSH1 0x20 MUL PUSH1 0x20 ADD ADD DUP2 DUP2 MSTORE POP POP PUSH32 0x1502D5D26257BB9859272361E710B05DC7B7296673FB7E83D2A408D25491B200 DUP2 PUSH1 0x4 DUP2 MLOAD DUP2 LT PUSH2 0x106A JUMPI INVALID JUMPDEST PUSH1 0x20 MUL PUSH1 0x20 ADD ADD DUP2 DUP2 MSTORE POP POP PUSH32 0x1371769DAE6705E1693EB61B017EC7217D2FDCAD1F7B2329718E3D5ABDAF8962 DUP2 PUSH1 0x5 DUP2 MLOAD DUP2 LT PUSH2 0x10A4 JUMPI INVALID JUMPDEST PUSH1 0x20 MUL PUSH1 0x20 ADD ADD DUP2 DUP2 MSTORE POP POP PUSH1 0x0 DUP2 PUSH1 0x6 DUP2 MLOAD DUP2 LT PUSH2 0x10BF JUMPI INVALID JUMPDEST PUSH1 0x20 MUL PUSH1 0x20 ADD ADD DUP2 DUP2 MSTORE POP POP PUSH1 0x0 DUP2 PUSH1 0x7 DUP2 MLOAD DUP2 LT PUSH2 0x10DA JUMPI INVALID JUMPDEST PUSH1 0x20 MUL PUSH1 0x20 ADD ADD DUP2 DUP2 MSTORE POP POP SWAP1 JUMP JUMPDEST PUSH32 0x30644E72E131A029B85045B68181585D97816A916871CA8D3C208C16D87CFD47 SWAP1 DUP2 SWAP1 MOD SWAP1 SUB SWAP1 JUMP JUMPDEST PUSH1 0x60 DUP1 PUSH1 0x0 PUSH32 0x30644E72E131A029B85045B68181585D2833E84879B9709143E1F593F0000001 SWAP1 POP PUSH1 0x0 DUP5 DUP7 MLOAD DUP2 PUSH2 0x1147 JUMPI INVALID JUMPDEST DIV SWAP1 POP PUSH1 0x0 DUP6 PUSH8 0xFFFFFFFFFFFFFFFF DUP2 GT DUP1 ISZERO PUSH2 0x1163 JUMPI PUSH1 0x0 DUP1 REVERT JUMPDEST POP PUSH1 0x40 MLOAD SWAP1 DUP1 DUP3 MSTORE DUP1 PUSH1 0x20 MUL PUSH1 0x20 ADD DUP3 ADD PUSH1 0x40 MSTORE DUP1 ISZERO PUSH2 0x118D JUMPI DUP2 PUSH1 0x20 ADD PUSH1 0x20 DUP3 MUL DUP1 CALLDATASIZE DUP4 CALLDATACOPY ADD SWAP1 POP JUMPDEST POP SWAP1 POP DUP2 PUSH1 0x1 ADD PUSH8 0xFFFFFFFFFFFFFFFF DUP2 GT DUP1 ISZERO PUSH2 0x11AA JUMPI PUSH1 0x0 DUP1 REVERT JUMPDEST POP PUSH1 0x40 MLOAD SWAP1 DUP1 DUP3 MSTORE DUP1 PUSH1 0x20 MUL PUSH1 0x20 ADD DUP3 ADD PUSH1 0x40 MSTORE DUP1 ISZERO PUSH2 0x11D4 JUMPI DUP2 PUSH1 0x20 ADD PUSH1 0x20 DUP3 MUL DUP1 CALLDATASIZE DUP4 CALLDATACOPY ADD SWAP1 POP JUMPDEST POP SWAP4 POP PUSH1 0x0 JUMPDEST DUP7 DUP2 LT ISZERO PUSH2 0x1374 JUMPI DUP1 PUSH2 0x1206 JUMPI PUSH1 0x1 DUP3 DUP3 DUP2 MLOAD DUP2 LT PUSH2 0x11F5 JUMPI INVALID JUMPDEST PUSH1 0x20 MUL PUSH1 0x20 ADD ADD DUP2 DUP2 MSTORE POP POP PUSH2 0x122A JUMP JUMPDEST PUSH2 0x1211 DUP10 DUP10 DUP4 PUSH2 0x1935 JUMP JUMPDEST DUP3 DUP3 DUP2 MLOAD DUP2 LT PUSH2 0x121D JUMPI INVALID JUMPDEST PUSH1 0x20 MUL PUSH1 0x20 ADD ADD DUP2 DUP2 MSTORE POP POP JUMPDEST DUP2 DUP2 DUP2 MLOAD DUP2 LT PUSH2 0x1236 JUMPI INVALID JUMPDEST PUSH1 0x20 MUL PUSH1 0x20 ADD ADD MLOAD PUSH1 0x0 EQ ISZERO PUSH2 0x1293 JUMPI PUSH1 0x40 DUP1 MLOAD PUSH3 0x461BCD PUSH1 0xE5 SHL DUP2 MSTORE PUSH1 0x20 PUSH1 0x4 DUP3 ADD MSTORE PUSH1 0x1A PUSH1 0x24 DUP3 ADD MSTORE PUSH32 0x456E74726F70792073686F756C64206E6F74206265207A65726F000000000000 PUSH1 0x44 DUP3 ADD MSTORE SWAP1 MLOAD SWAP1 DUP2 SWAP1 SUB PUSH1 0x64 ADD SWAP1 REVERT JUMPDEST DUP4 DUP1 PUSH2 0x129B JUMPI INVALID JUMPDEST DUP5 DUP1 PUSH2 0x12A3 JUMPI INVALID JUMPDEST DUP4 DUP4 DUP2 MLOAD DUP2 LT PUSH2 0x12AF JUMPI INVALID JUMPDEST PUSH1 0x20 MUL PUSH1 0x20 ADD ADD MLOAD PUSH1 0x1 MULMOD DUP7 PUSH1 0x0 DUP2 MLOAD DUP2 LT PUSH2 0x12C7 JUMPI INVALID JUMPDEST PUSH1 0x20 MUL PUSH1 0x20 ADD ADD MLOAD ADDMOD DUP6 PUSH1 0x0 DUP2 MLOAD DUP2 LT PUSH2 0x12DD JUMPI INVALID JUMPDEST PUSH1 0x20 MUL PUSH1 0x20 ADD ADD DUP2 DUP2 MSTORE POP POP PUSH1 0x0 JUMPDEST DUP4 DUP2 LT ISZERO PUSH2 0x136B JUMPI DUP5 DUP1 PUSH2 0x12FC JUMPI INVALID JUMPDEST DUP6 DUP1 PUSH2 0x1304 JUMPI INVALID JUMPDEST DUP11 DUP4 DUP8 DUP7 MUL ADD DUP2 MLOAD DUP2 LT PUSH2 0x1314 JUMPI INVALID JUMPDEST PUSH1 0x20 MUL PUSH1 0x20 ADD ADD MLOAD DUP6 DUP6 DUP2 MLOAD DUP2 LT PUSH2 0x1328 JUMPI INVALID JUMPDEST PUSH1 0x20 MUL PUSH1 0x20 ADD ADD MLOAD MULMOD DUP8 DUP4 PUSH1 0x1 ADD DUP2 MLOAD DUP2 LT PUSH2 0x1340 JUMPI INVALID JUMPDEST PUSH1 0x20 MUL PUSH1 0x20 ADD ADD MLOAD ADDMOD DUP7 DUP3 PUSH1 0x1 ADD DUP2 MLOAD DUP2 LT PUSH2 0x1358 JUMPI INVALID JUMPDEST PUSH1 0x20 SWAP1 DUP2 MUL SWAP2 SWAP1 SWAP2 ADD ADD MSTORE PUSH1 0x1 ADD PUSH2 0x12EC JUMP JUMPDEST POP PUSH1 0x1 ADD PUSH2 0x11DA JUMP JUMPDEST POP PUSH2 0x137D PUSH2 0x1A89 JUMP JUMPDEST PUSH1 0x0 DUP8 PUSH1 0x2 MUL PUSH1 0x2 ADD PUSH8 0xFFFFFFFFFFFFFFFF DUP2 GT DUP1 ISZERO PUSH2 0x139C JUMPI PUSH1 0x0 DUP1 REVERT JUMPDEST POP PUSH1 0x40 MLOAD SWAP1 DUP1 DUP3 MSTORE DUP1 PUSH1 0x20 MUL PUSH1 0x20 ADD DUP3 ADD PUSH1 0x40 MSTORE DUP1 ISZERO PUSH2 0x13C6 JUMPI DUP2 PUSH1 0x20 ADD PUSH1 0x20 DUP3 MUL DUP1 CALLDATASIZE DUP4 CALLDATACOPY ADD SWAP1 POP JUMPDEST POP SWAP7 POP DUP10 PUSH1 0x0 DUP2 MLOAD DUP2 LT PUSH2 0x13D6 JUMPI INVALID JUMPDEST PUSH1 0x20 MUL PUSH1 0x20 ADD ADD MLOAD DUP8 PUSH1 0x0 DUP2 MLOAD DUP2 LT PUSH2 0x13EB JUMPI INVALID JUMPDEST PUSH1 0x20 MUL PUSH1 0x20 ADD ADD DUP2 DUP2 MSTORE POP POP DUP10 PUSH1 0x1 DUP2 MLOAD DUP2 LT PUSH2 0x1404 JUMPI INVALID JUMPDEST PUSH1 0x20 MUL PUSH1 0x20 ADD ADD MLOAD DUP8 PUSH1 0x1 DUP2 MLOAD DUP2 LT PUSH2 0x1419 JUMPI INVALID JUMPDEST PUSH1 0x20 SWAP1 DUP2 MUL SWAP2 SWAP1 SWAP2 ADD ADD MSTORE PUSH1 0x1 JUMPDEST DUP9 DUP2 LT ISZERO PUSH2 0x1560 JUMPI DUP11 DUP2 PUSH1 0x8 MUL DUP2 MLOAD DUP2 LT PUSH2 0x143E JUMPI INVALID JUMPDEST PUSH1 0x20 MUL PUSH1 0x20 ADD ADD MLOAD DUP4 PUSH1 0x0 PUSH1 0x3 DUP2 LT PUSH2 0x1453 JUMPI INVALID JUMPDEST PUSH1 0x20 MUL ADD MSTORE DUP11 MLOAD DUP12 SWAP1 PUSH1 0x1 PUSH1 0x8 DUP5 MUL ADD SWAP1 DUP2 LT PUSH2 0x146C JUMPI INVALID JUMPDEST PUSH1 0x20 MUL PUSH1 0x20 ADD ADD MLOAD DUP4 PUSH1 0x1 PUSH1 0x3 DUP2 LT PUSH2 0x1481 JUMPI INVALID JUMPDEST PUSH1 0x20 MUL ADD MSTORE DUP4 MLOAD DUP5 SWAP1 DUP3 SWAP1 DUP2 LT PUSH2 0x1494 JUMPI INVALID JUMPDEST PUSH1 0x20 MUL PUSH1 0x20 ADD ADD MLOAD DUP4 PUSH1 0x2 PUSH1 0x3 DUP2 LT PUSH2 0x14A9 JUMPI INVALID JUMPDEST PUSH1 0x20 MUL ADD MSTORE PUSH1 0x40 DUP4 PUSH1 0x60 DUP2 PUSH1 0x7 PUSH2 0x7D0 GAS SUB STATICCALL SWAP2 POP DUP3 PUSH1 0x0 PUSH1 0x20 MUL ADD MLOAD DUP9 DUP3 PUSH1 0x2 MUL DUP2 MLOAD DUP2 LT PUSH2 0x14D5 JUMPI INVALID JUMPDEST PUSH1 0x20 SWAP1 DUP2 MUL SWAP2 SWAP1 SWAP2 ADD ADD MSTORE DUP3 PUSH1 0x1 PUSH1 0x20 MUL ADD MLOAD DUP9 DUP3 PUSH1 0x2 MUL PUSH1 0x1 ADD DUP2 MLOAD DUP2 LT PUSH2 0x14FA JUMPI INVALID JUMPDEST PUSH1 0x20 MUL PUSH1 0x20 ADD ADD DUP2 DUP2 MSTORE POP POP DUP2 PUSH2 0x1558 JUMPI PUSH1 0x40 DUP1 MLOAD PUSH3 0x461BCD PUSH1 0xE5 SHL DUP2 MSTORE PUSH1 0x20 PUSH1 0x4 DUP3 ADD MSTORE PUSH1 0x1B PUSH1 0x24 DUP3 ADD MSTORE PUSH32 0x4661696C656420746F2063616C6C206120707265636F6D70696C650000000000 PUSH1 0x44 DUP3 ADD MSTORE SWAP1 MLOAD SWAP1 DUP2 SWAP1 SUB PUSH1 0x64 ADD SWAP1 REVERT JUMPDEST PUSH1 0x1 ADD PUSH2 0x1427 JUMP JUMPDEST POP PUSH2 0x1569 PUSH2 0x1AA7 JUMP JUMPDEST DUP11 PUSH1 0x6 DUP2 MLOAD DUP2 LT PUSH2 0x1576 JUMPI INVALID JUMPDEST PUSH1 0x20 MUL PUSH1 0x20 ADD ADD MLOAD DUP2 PUSH1 0x0 PUSH1 0x4 DUP2 LT PUSH2 0x158B JUMPI INVALID JUMPDEST PUSH1 0x20 MUL ADD MSTORE DUP11 MLOAD DUP12 SWAP1 PUSH1 0x7 SWAP1 DUP2 LT PUSH2 0x159F JUMPI INVALID JUMPDEST PUSH1 0x20 MUL PUSH1 0x20 ADD ADD MLOAD DUP2 PUSH1 0x1 PUSH1 0x4 DUP2 LT PUSH2 0x15B4 JUMPI INVALID JUMPDEST PUSH1 0x20 MUL ADD MSTORE PUSH1 0x1 JUMPDEST DUP10 DUP2 LT ISZERO PUSH2 0x16E8 JUMPI DUP12 DUP2 PUSH1 0x8 MUL PUSH1 0x6 ADD DUP2 MLOAD DUP2 LT PUSH2 0x15D6 JUMPI INVALID JUMPDEST PUSH1 0x20 MUL PUSH1 0x20 ADD ADD MLOAD DUP5 PUSH1 0x0 PUSH1 0x3 DUP2 LT PUSH2 0x15EB JUMPI INVALID JUMPDEST PUSH1 0x20 MUL ADD MSTORE DUP12 MLOAD DUP13 SWAP1 PUSH1 0x7 PUSH1 0x8 DUP5 MUL ADD SWAP1 DUP2 LT PUSH2 0x1604 JUMPI INVALID JUMPDEST PUSH1 0x20 MUL PUSH1 0x20 ADD ADD MLOAD DUP5 PUSH1 0x1 PUSH1 0x3 DUP2 LT PUSH2 0x1619 JUMPI INVALID JUMPDEST PUSH1 0x20 MUL ADD MSTORE DUP5 MLOAD DUP6 SWAP1 DUP3 SWAP1 DUP2 LT PUSH2 0x162C JUMPI INVALID JUMPDEST PUSH1 0x20 MUL PUSH1 0x20 ADD ADD MLOAD DUP5 PUSH1 0x2 PUSH1 0x3 DUP2 LT PUSH2 0x1641 JUMPI INVALID JUMPDEST PUSH1 0x20 MUL ADD MSTORE PUSH1 0x40 DUP3 DUP2 ADD PUSH1 0x60 DUP7 PUSH1 0x7 PUSH2 0x7D0 GAS SUB STATICCALL SWAP3 POP DUP3 PUSH2 0x1694 JUMPI PUSH1 0x40 MLOAD PUSH3 0x461BCD PUSH1 0xE5 SHL DUP2 MSTORE PUSH1 0x4 ADD DUP1 DUP1 PUSH1 0x20 ADD DUP3 DUP2 SUB DUP3 MSTORE PUSH1 0x3D DUP2 MSTORE PUSH1 0x20 ADD DUP1 PUSH2 0x1B65 PUSH1 0x3D SWAP2 CODECOPY PUSH1 0x40 ADD SWAP2 POP POP PUSH1 0x40 MLOAD DUP1 SWAP2 SUB SWAP1 REVERT JUMPDEST PUSH1 0x40 DUP3 PUSH1 0x80 DUP5 PUSH1 0x6 PUSH2 0x7D0 GAS SUB STATICCALL SWAP3 POP DUP3 PUSH2 0x16E0 JUMPI PUSH1 0x40 MLOAD PUSH3 0x461BCD PUSH1 0xE5 SHL DUP2 MSTORE PUSH1 0x4 ADD DUP1 DUP1 PUSH1 0x20 ADD DUP3 DUP2 SUB DUP3 MSTORE PUSH1 0x37 DUP2 MSTORE PUSH1 0x20 ADD DUP1 PUSH2 0x1C3F PUSH1 0x37 SWAP2 CODECOPY PUSH1 0x40 ADD SWAP2 POP POP PUSH1 0x40 MLOAD DUP1 SWAP2 SUB SWAP1 REVERT JUMPDEST PUSH1 0x1 ADD PUSH2 0x15BC JUMP JUMPDEST POP DUP1 MLOAD DUP9 MLOAD DUP10 SWAP1 PUSH1 0x2 DUP13 MUL SWAP1 DUP2 LT PUSH2 0x16FC JUMPI INVALID JUMPDEST PUSH1 0x20 SWAP1 DUP2 MUL SWAP2 SWAP1 SWAP2 ADD ADD MSTORE DUP1 PUSH1 0x1 PUSH1 0x20 MUL ADD MLOAD DUP9 DUP11 PUSH1 0x2 MUL PUSH1 0x1 ADD DUP2 MLOAD DUP2 LT PUSH2 0x1721 JUMPI INVALID JUMPDEST PUSH1 0x20 MUL PUSH1 0x20 ADD ADD DUP2 DUP2 MSTORE POP POP POP POP POP POP POP POP SWAP4 POP SWAP4 SWAP2 POP POP JUMP JUMPDEST PUSH2 0x1743 PUSH2 0x1AA7 JUMP JUMPDEST PUSH2 0x174B PUSH2 0x1AA7 JUMP JUMPDEST PUSH2 0x1753 PUSH2 0x1A89 JUMP JUMPDEST PUSH1 0x0 DUP1 JUMPDEST DUP6 MLOAD DUP2 LT ISZERO PUSH2 0x1881 JUMPI DUP7 DUP2 PUSH1 0x2 MUL DUP2 MLOAD DUP2 LT PUSH2 0x176F JUMPI INVALID JUMPDEST PUSH1 0x20 MUL PUSH1 0x20 ADD ADD MLOAD DUP4 PUSH1 0x0 PUSH1 0x3 DUP2 LT PUSH2 0x1784 JUMPI INVALID JUMPDEST PUSH1 0x20 MUL ADD MSTORE DUP7 MLOAD DUP8 SWAP1 PUSH1 0x1 PUSH1 0x2 DUP5 MUL ADD SWAP1 DUP2 LT PUSH2 0x179D JUMPI INVALID JUMPDEST PUSH1 0x20 MUL PUSH1 0x20 ADD ADD MLOAD DUP4 PUSH1 0x1 PUSH1 0x3 DUP2 LT PUSH2 0x17B2 JUMPI INVALID JUMPDEST PUSH1 0x20 MUL ADD MSTORE DUP6 MLOAD DUP7 SWAP1 DUP3 SWAP1 DUP2 LT PUSH2 0x17C5 JUMPI INVALID JUMPDEST PUSH1 0x20 MUL PUSH1 0x20 ADD ADD MLOAD DUP4 PUSH1 0x2 PUSH1 0x3 DUP2 LT PUSH2 0x17DA JUMPI INVALID JUMPDEST PUSH1 0x20 MUL ADD MSTORE PUSH1 0x40 DUP5 DUP2 ADD PUSH1 0x60 DUP6 PUSH1 0x7 PUSH2 0x7D0 GAS SUB STATICCALL SWAP2 POP DUP2 PUSH2 0x182D JUMPI PUSH1 0x40 MLOAD PUSH3 0x461BCD PUSH1 0xE5 SHL DUP2 MSTORE PUSH1 0x4 ADD DUP1 DUP1 PUSH1 0x20 ADD DUP3 DUP2 SUB DUP3 MSTORE PUSH1 0x47 DUP2 MSTORE PUSH1 0x20 ADD DUP1 PUSH2 0x1CA7 PUSH1 0x47 SWAP2 CODECOPY PUSH1 0x60 ADD SWAP2 POP POP PUSH1 0x40 MLOAD DUP1 SWAP2 SUB SWAP1 REVERT JUMPDEST PUSH1 0x40 DUP5 PUSH1 0x80 DUP7 PUSH1 0x6 PUSH2 0x7D0 GAS SUB STATICCALL SWAP2 POP DUP2 PUSH2 0x1879 JUMPI PUSH1 0x40 MLOAD PUSH3 0x461BCD PUSH1 0xE5 SHL DUP2 MSTORE PUSH1 0x4 ADD DUP1 DUP1 PUSH1 0x20 ADD DUP3 DUP2 SUB DUP3 MSTORE PUSH1 0x41 DUP2 MSTORE PUSH1 0x20 ADD DUP1 PUSH2 0x1B03 PUSH1 0x41 SWAP2 CODECOPY PUSH1 0x60 ADD SWAP2 POP POP PUSH1 0x40 MLOAD DUP1 SWAP2 SUB SWAP1 REVERT JUMPDEST PUSH1 0x1 ADD PUSH2 0x1757 JUMP JUMPDEST POP DUP3 MLOAD PUSH1 0x40 DUP6 ADD MSTORE PUSH1 0x20 DUP4 ADD MLOAD PUSH1 0x60 DUP6 ADD MSTORE PUSH2 0x189B PUSH2 0x1A89 JUMP JUMPDEST DUP8 MLOAD DUP2 MSTORE PUSH1 0x20 DUP1 DUP10 ADD MLOAD SWAP1 DUP3 ADD MSTORE DUP6 MLOAD DUP7 SWAP1 PUSH1 0x0 SWAP1 PUSH2 0x18B6 JUMPI INVALID JUMPDEST PUSH1 0x20 MUL PUSH1 0x20 ADD ADD MLOAD DUP2 PUSH1 0x2 PUSH1 0x3 DUP2 LT PUSH2 0x18CB JUMPI INVALID JUMPDEST PUSH1 0x20 MUL ADD MSTORE PUSH1 0x40 DUP2 PUSH1 0x60 DUP2 PUSH1 0x7 PUSH2 0x7D0 GAS SUB STATICCALL SWAP2 POP DUP2 PUSH2 0x191C JUMPI PUSH1 0x40 MLOAD PUSH3 0x461BCD PUSH1 0xE5 SHL DUP2 MSTORE PUSH1 0x4 ADD DUP1 DUP1 PUSH1 0x20 ADD DUP3 DUP2 SUB DUP3 MSTORE PUSH1 0x31 DUP2 MSTORE PUSH1 0x20 ADD DUP1 PUSH2 0x1C76 PUSH1 0x31 SWAP2 CODECOPY PUSH1 0x40 ADD SWAP2 POP POP PUSH1 0x40 MLOAD DUP1 SWAP2 SUB SWAP1 REVERT JUMPDEST DUP1 MLOAD DUP6 MSTORE PUSH1 0x20 SWAP1 DUP2 ADD MLOAD SWAP1 DUP6 ADD MSTORE POP SWAP2 SWAP6 SWAP5 POP POP POP POP POP JUMP JUMPDEST PUSH1 0x0 PUSH1 0x3 DUP5 DUP4 PUSH1 0x8 MUL PUSH1 0x0 ADD DUP2 MLOAD DUP2 LT PUSH2 0x194B JUMPI INVALID JUMPDEST PUSH1 0x20 MUL PUSH1 0x20 ADD ADD MLOAD DUP6 DUP5 PUSH1 0x8 MUL PUSH1 0x1 ADD DUP2 MLOAD DUP2 LT PUSH2 0x1965 JUMPI INVALID JUMPDEST PUSH1 0x20 MUL PUSH1 0x20 ADD ADD MLOAD DUP7 DUP6 PUSH1 0x8 MUL PUSH1 0x2 ADD DUP2 MLOAD DUP2 LT PUSH2 0x197F JUMPI INVALID JUMPDEST PUSH1 0x20 MUL PUSH1 0x20 ADD ADD MLOAD DUP8 DUP7 PUSH1 0x8 MUL PUSH1 0x3 ADD DUP2 MLOAD DUP2 LT PUSH2 0x1999 JUMPI INVALID JUMPDEST PUSH1 0x20 MUL PUSH1 0x20 ADD ADD MLOAD DUP9 DUP8 PUSH1 0x8 MUL PUSH1 0x4 ADD DUP2 MLOAD DUP2 LT PUSH2 0x19B3 JUMPI INVALID JUMPDEST PUSH1 0x20 MUL PUSH1 0x20 ADD ADD MLOAD DUP10 DUP9 PUSH1 0x8 MUL PUSH1 0x5 ADD DUP2 MLOAD DUP2 LT PUSH2 0x19CD JUMPI INVALID JUMPDEST PUSH1 0x20 MUL PUSH1 0x20 ADD ADD MLOAD DUP11 DUP10 PUSH1 0x8 MUL PUSH1 0x6 ADD DUP2 MLOAD DUP2 LT PUSH2 0x19E7 JUMPI INVALID JUMPDEST PUSH1 0x20 MUL PUSH1 0x20 ADD ADD MLOAD DUP12 DUP11 PUSH1 0x8 MUL PUSH1 0x7 ADD DUP2 MLOAD DUP2 LT PUSH2 0x1A01 JUMPI INVALID JUMPDEST PUSH1 0x20 MUL PUSH1 0x20 ADD ADD MLOAD DUP12 DUP12 DUP2 MLOAD DUP2 LT PUSH2 0x1A15 JUMPI INVALID JUMPDEST PUSH1 0x20 MUL PUSH1 0x20 ADD ADD MLOAD PUSH1 0x40 MLOAD PUSH1 0x20 ADD DUP1 DUP11 DUP2 MSTORE PUSH1 0x20 ADD DUP10 DUP2 MSTORE PUSH1 0x20 ADD DUP9 DUP2 MSTORE PUSH1 0x20 ADD DUP8 DUP2 MSTORE PUSH1 0x20 ADD DUP7 DUP2 MSTORE PUSH1 0x20 ADD DUP6 DUP2 MSTORE PUSH1 0x20 ADD DUP5 DUP2 MSTORE PUSH1 0x20 ADD DUP4 DUP2 MSTORE PUSH1 0x20 ADD DUP3 DUP2 MSTORE PUSH1 0x20 ADD SWAP10 POP POP POP POP POP POP POP POP POP POP PUSH1 0x40 MLOAD PUSH1 0x20 DUP2 DUP4 SUB SUB DUP2 MSTORE SWAP1 PUSH1 0x40 MSTORE DUP1 MLOAD SWAP1 PUSH1 0x20 ADD KECCAK256 PUSH1 0x0 SHR SWAP1 SHR SWAP1 POP SWAP4 SWAP3 POP POP POP JUMP JUMPDEST PUSH1 0x40 MLOAD DUP1 PUSH1 0x60 ADD PUSH1 0x40 MSTORE DUP1 PUSH1 0x3 SWAP1 PUSH1 0x20 DUP3 MUL DUP1 CALLDATASIZE DUP4 CALLDATACOPY POP SWAP2 SWAP3 SWAP2 POP POP JUMP JUMPDEST PUSH1 0x40 MLOAD DUP1 PUSH1 0x80 ADD PUSH1 0x40 MSTORE DUP1 PUSH1 0x4 SWAP1 PUSH1 0x20 DUP3 MUL DUP1 CALLDATASIZE DUP4 CALLDATACOPY POP SWAP2 SWAP3 SWAP2 POP POP JUMP JUMPDEST PUSH1 0x40 MLOAD DUP1 PUSH1 0x20 ADD PUSH1 0x40 MSTORE DUP1 PUSH1 0x1 SWAP1 PUSH1 0x20 DUP3 MUL DUP1 CALLDATASIZE DUP4 CALLDATACOPY POP SWAP2 SWAP3 SWAP2 POP POP JUMP JUMPDEST PUSH1 0x40 MLOAD DUP1 PUSH2 0x1C0 ADD PUSH1 0x40 MSTORE DUP1 PUSH1 0xE SWAP1 PUSH1 0x20 DUP3 MUL DUP1 CALLDATASIZE DUP4 CALLDATACOPY POP SWAP2 SWAP3 SWAP2 POP POP JUMP INVALID CHAINID PUSH2 0x696C PUSH6 0x6420746F2063 PUSH2 0x6C6C KECCAK256 PUSH2 0x2070 PUSH19 0x65636F6D70696C6520666F7220473120616464 PUSH10 0x74696F6E20666F722069 PUSH15 0x70757420616363756D756C61746F72 CHAINID PUSH2 0x696C PUSH6 0x6420746F2063 PUSH2 0x6C6C KECCAK256 PUSH17 0x616972696E67732066756E6374696F6E73 CHAINID PUSH2 0x696C PUSH6 0x6420746F2063 PUSH2 0x6C6C KECCAK256 PUSH2 0x2070 PUSH19 0x65636F6D70696C6520666F72204731206D756C PUSH21 0x69706C69636174696F6E20666F722050726F6F6620 NUMBER 0x49 PUSH15 0x76616C69642070726F6F6673206C65 PUSH15 0x67746820666F722061206261746368 0x49 PUSH15 0x76616C696420696E70757473206C65 PUSH15 0x67746820666F722061206261746368 0x4D PUSH10 0x736D61746368696E6720 PUSH15 0x756D626572206F6620696E70757473 KECCAK256 PUSH7 0x6F722076657269 PUSH7 0x79696E67206B65 PUSH26 0x496E70757473206C656E6774682073686F756C64206265206D75 PUSH13 0x7469706C65206F662031393220 PUSH3 0x797465 PUSH20 0x4661696C656420746F2063616C6C206120707265 PUSH4 0x6F6D7069 PUSH13 0x6520666F722047312061646469 PUSH21 0x696F6E20666F722050726F6F6620434661696C6564 KECCAK256 PUSH21 0x6F2063616C6C206120707265636F6D70696C652066 PUSH16 0x72204731206D756C7469706C69636174 PUSH10 0x6F6E4661696C65642074 PUSH16 0x2063616C6C206120707265636F6D7069 PUSH13 0x6520666F72204731206D756C74 PUSH10 0x706C69636174696F6E20 PUSH7 0x6F7220696E7075 PUSH21 0x20616363756D756C61746F72A26469706673582212 KECCAK256 0xC7 LOG3 0xD3 EQ LT 0x5F 0xE0 SAR PUSH1 0x98 LOG2 PUSH27 0x14E66D5AFD40E4F1F4F29E93FCD85D949A6C276764736F6C634300 SMOD MOD STOP CALLER "
		},
		"gasEstimates": {
			"creation": {
				"codeDepositCost": "1491800",
				"executionCost": "1561",
				"totalCost": "1493361"
			},
			"external": {
				"ScalarField()": "242",
				"upgrade(bytes)": "348",
				"verifyBatchProofs(uint256[],uint256[],uint256)": "infinite",
				"verifyProof(uint256[],uint256[])": "infinite"
			},
			"internal": {
				"NegateY(uint256)": "35",
				"accumulate(uint256[] memory,uint256[] memory,uint256)": "infinite",
				"getProofEntropy(uint256[] memory,uint256[] memory,uint256)": "infinite",
				"ic()": "infinite",
				"prepareBatches(uint256[14] memory,uint256[] memory,uint256[] memory)": "infinite",
				"verifyingKey()": "infinite"
			}
		},
		"methodIdentifiers": {
			"ScalarField()": "daad1e63",
			"upgrade(bytes)": "25394645",
			"verifyBatchProofs(uint256[],uint256[],uint256)": "c50e8263",
			"verifyProof(uint256[],uint256[])": "721ea4ac"
		}
	},
	"abi": [
		{
			"inputs": [],
			"name": "ScalarField",
			"outputs": [
				{
					"internalType": "uint256",
					"name": "",
					"type": "uint256"
				}
			],
			"stateMutability": "pure",
			"type": "function"
		},
		{
			"inputs": [
				{
					"internalType": "bytes",
					"name": "upgradeParameters",
					"type": "bytes"
				}
			],
			"name": "upgrade",
			"outputs": [],
			"stateMutability": "nonpayable",
			"type": "function"
		},
		{
			"inputs": [
				{
					"internalType": "uint256[]",
					"name": "in_proof",
					"type": "uint256[]"
				},
				{
					"internalType": "uint256[]",
					"name": "proof_inputs",
					"type": "uint256[]"
				},
				{
					"internalType": "uint256",
					"name": "num_proofs",
					"type": "uint256"
				}
			],
			"name": "verifyBatchProofs",
			"outputs": [
				{
					"internalType": "bool",
					"name": "success",
					"type": "bool"
				}
			],
			"stateMutability": "view",
			"type": "function"
		},
		{
			"inputs": [
				{
					"internalType": "uint256[]",
					"name": "in_proof",
					"type": "uint256[]"
				},
				{
					"internalType": "uint256[]",
					"name": "proof_inputs",
					"type": "uint256[]"
				}
			],
			"name": "verifyProof",
			"outputs": [
				{
					"internalType": "bool",
					"name": "",
					"type": "bool"
				}
			],
			"stateMutability": "view",
			"type": "function"
		}
	]
}