{
	"data": {
		"bytecode": {
			"linkReferences": {},
			"object": "608060405234801561001057600080fd5b50600080546001600160a01b03191633179055610bc1806100326000396000f3fe608060405234801561001057600080fd5b50600436106100cf5760003560e01c8063a7fc7a071161008c578063ddf7fcb011610066578063ddf7fcb0146102ba578063deb931a2146102d4578063f2fde38b146102f1578063f6a74ed714610317576100cf565b8063a7fc7a07146101ef578063d7757da114610215578063da8c229e14610294576100cf565b80632f54bf6e146100d4578063439fab911461010e57806358ffb7fd146101805780635b817475146101a45780637a0d942b146101c15780638da5cb5b146101e7575b600080fd5b6100fa600480360360208110156100ea57600080fd5b50356001600160a01b031661033d565b604080519115158252519081900360200190f35b61017e6004803603602081101561012457600080fd5b81019060208101813564010000000081111561013f57600080fd5b82018360208201111561015157600080fd5b8035906020019184600183028401116401000000008311171561017357600080fd5b509092509050610354565b005b6101886103ae565b604080516001600160a01b039092168252519081900360200190f35b61017e600480360360208110156101ba57600080fd5b50356103bd565b61017e600480360360208110156101d757600080fd5b50356001600160a01b0316610441565b6101886104ab565b61017e6004803603602081101561020557600080fd5b50356001600160a01b03166104ba565b61017e6004803603606081101561022b57600080fd5b81019060208101813564010000000081111561024657600080fd5b82018360208201111561025857600080fd5b8035906020019184600183028401116401000000008311171561027a57600080fd5b91935091506001600160a01b038135169060200135610518565b6100fa600480360360208110156102aa57600080fd5b50356001600160a01b031661081c565b6102c2610831565b60408051918252519081900360200190f35b610188600480360360208110156102ea57600080fd5b5035610837565b61017e6004803603602081101561030757600080fd5b50356001600160a01b03166108b5565b61017e6004803603602081101561032d57600080fd5b50356001600160a01b0316610922565b6000546001600160a01b038281169116145b919050565b6000808383604081101561036757600080fd5b50600180546001600160a01b0319166001600160a01b0383351617815560209182013560025533600090815260039092526040909120805460ff1916909117905550505050565b6001546001600160a01b031681565b6103c63361033d565b6103cf57600080fd5b600154600254604080516386d5f0d960e01b8152600481019290925260248201849052516001600160a01b03909216916386d5f0d99160448082019260009290919082900301818387803b15801561042657600080fd5b505af115801561043a573d6000803e3d6000fd5b5050505050565b61044a3361033d565b61045357600080fd5b60015460025460408051630c4b7b8560e11b815260048101929092526001600160a01b0384811660248401529051921691631896f70a9160448082019260009290919082900301818387803b15801561042657600080fd5b6000546001600160a01b031681565b6104c33361033d565b6104cc57600080fd5b6001600160a01b038116600081815260036020526040808220805460ff19166001179055517f0a8bb31534c0ed46f380cb867bd5c803a189ced9a764e30b3a4991a9901d74749190a250565b3360009081526003602052604090205460ff1661053457600080fd5b61057384848080601f01602080910402602001604051908101604052809392919081815260200183838082843760009201919091525061097d92505050565b6105b3576040805162461bcd60e51b815260206004820152600c60248201526b696e76616c6964206e616d6560a01b604482015290519081900360640190fd5b6105bc8161099e565b610600576040805162461bcd60e51b815260206004820152601060248201526f130c881bdddb995c88195e1a5cdd195960821b604482015290519081900360640190fd5b60008484604051808383808284376040805191909301819003812060015460025463212a6bcd60e01b845260048401526024830182905293519097506001600160a01b03909316955063212a6bcd945060448082019450602093925090829003018186803b15801561067157600080fd5b505afa158015610685573d6000803e3d6000fd5b505050506040513d602081101561069b57600080fd5b5051156106e1576040805162461bcd60e51b815260206004820152600f60248201526e1cdd589b9bd91948195e1a5cdd1959608a1b604482015290519081900360640190fd5b60015460025460408051631c98504f60e31b81526004810192909252602482018490526001600160a01b038681166044840152606483018690529051600093919091169163e4c2827891608480830192602092919082900301818787803b15801561074b57600080fd5b505af115801561075f573d6000803e3d6000fd5b505050506040513d602081101561077557600080fd5b505160008481526004602090815260409182902083905581519081018390526001600160a01b0387169181019190915260608101859052608080825281018790529091507f36e1387993e62301c322576ae290f9934f5eb108709972fb6a5892e18544a08b90879087908490889088908060a08101878780828437600083820152604051601f909101601f19169092018290039850909650505050505050a1505050505050565b60036020526000908152604090205460ff1681565b60025481565b600154604080516302571be360e01b81526004810184905290516000926001600160a01b0316916302571be3916024808301926020929190829003018186803b15801561088357600080fd5b505afa158015610897573d6000803e3d6000fd5b505050506040513d60208110156108ad57600080fd5b505192915050565b6108be3361033d565b6108c757600080fd5b600080546040516001600160a01b03808516939216917f8be0079c531659141344cd1fd0a4f28419497f9722a3daafe3b4186f6b6457e091a3600080546001600160a01b0319166001600160a01b0392909216919091179055565b61092b3361033d565b61093457600080fd5b6001600160a01b038116600081815260036020526040808220805460ff19169055517f33d83959be2573f5453b12eb9d43b3499bc57d96bd2f067ba44803c859e811139190a250565b6000610988826109b1565b80156109985750610998826109bc565b92915050565b6000908152600460205260409020541590565b6000610998826109e5565b600060036109c983610a3f565b10158015610998575060206109dd83610a3f565b111592915050565b8051600090815b81811015610a35576000848281518110610a0257fe5b01602001516001600160f81b0319169050610a1c81610b26565b610a2c576000935050505061034f565b506001016109ec565b5060019392505050565b8051600090819081905b80821015610b1d576000858381518110610a5f57fe5b01602001516001600160f81b0319169050600160ff1b8111610a8657600183019250610b11565b600760fd1b6001600160f81b031982161015610aa757600283019250610b11565b600f60fc1b6001600160f81b031982161015610ac857600383019250610b11565b601f60fb1b6001600160f81b031982161015610ae957600483019250610b11565b603f60fa1b6001600160f81b031982161015610b0a57600583019250610b11565b6006830192505b50600190920191610a49565b50909392505050565b6000603960f81b6001600160f81b0319831611801590610b545750600360fc1b6001600160f81b0319831610155b806109985750603d60f91b6001600160f81b0319831611801590610998575050606160f81b6001600160f81b03199190911610159056fea26469706673582212209b348fcbc436e1d6282bb4914fed0732da43ceba31d431f90354342ded8aa2c064736f6c63430007060033",
			"opcodes": "PUSH1 0x80 PUSH1 0x40 MSTORE CALLVALUE DUP1 ISZERO PUSH2 0x10 JUMPI PUSH1 0x0 DUP1 REVERT JUMPDEST POP PUSH1 0x0 DUP1 SLOAD PUSH1 0x1 PUSH1 0x1 PUSH1 0xA0 SHL SUB NOT AND CALLER OR SWAP1 SSTORE PUSH2 0xBC1 DUP1 PUSH2 0x32 PUSH1 0x0 CODECOPY PUSH1 0x0 RETURN INVALID PUSH1 0x80 PUSH1 0x40 MSTORE CALLVALUE DUP1 ISZERO PUSH2 0x10 JUMPI PUSH1 0x0 DUP1 REVERT JUMPDEST POP PUSH1 0x4 CALLDATASIZE LT PUSH2 0xCF JUMPI PUSH1 0x0 CALLDATALOAD PUSH1 0xE0 SHR DUP1 PUSH4 0xA7FC7A07 GT PUSH2 0x8C JUMPI DUP1 PUSH4 0xDDF7FCB0 GT PUSH2 0x66 JUMPI DUP1 PUSH4 0xDDF7FCB0 EQ PUSH2 0x2BA JUMPI DUP1 PUSH4 0xDEB931A2 EQ PUSH2 0x2D4 JUMPI DUP1 PUSH4 0xF2FDE38B EQ PUSH2 0x2F1 JUMPI DUP1 PUSH4 0xF6A74ED7 EQ PUSH2 0x317 JUMPI PUSH2 0xCF JUMP JUMPDEST DUP1 PUSH4 0xA7FC7A07 EQ PUSH2 0x1EF JUMPI DUP1 PUSH4 0xD7757DA1 EQ PUSH2 0x215 JUMPI DUP1 PUSH4 0xDA8C229E EQ PUSH2 0x294 JUMPI PUSH2 0xCF JUMP JUMPDEST DUP1 PUSH4 0x2F54BF6E EQ PUSH2 0xD4 JUMPI DUP1 PUSH4 0x439FAB91 EQ PUSH2 0x10E JUMPI DUP1 PUSH4 0x58FFB7FD EQ PUSH2 0x180 JUMPI DUP1 PUSH4 0x5B817475 EQ PUSH2 0x1A4 JUMPI DUP1 PUSH4 0x7A0D942B EQ PUSH2 0x1C1 JUMPI DUP1 PUSH4 0x8DA5CB5B EQ PUSH2 0x1E7 JUMPI JUMPDEST PUSH1 0x0 DUP1 REVERT JUMPDEST PUSH2 0xFA PUSH1 0x4 DUP1 CALLDATASIZE SUB PUSH1 0x20 DUP2 LT ISZERO PUSH2 0xEA JUMPI PUSH1 0x0 DUP1 REVERT JUMPDEST POP CALLDATALOAD PUSH1 0x1 PUSH1 0x1 PUSH1 0xA0 SHL SUB AND PUSH2 0x33D JUMP JUMPDEST PUSH1 0x40 DUP1 MLOAD SWAP2 ISZERO ISZERO DUP3 MSTORE MLOAD SWAP1 DUP2 SWAP1 SUB PUSH1 0x20 ADD SWAP1 RETURN JUMPDEST PUSH2 0x17E PUSH1 0x4 DUP1 CALLDATASIZE SUB PUSH1 0x20 DUP2 LT ISZERO PUSH2 0x124 JUMPI PUSH1 0x0 DUP1 REVERT JUMPDEST DUP2 ADD SWAP1 PUSH1 0x20 DUP2 ADD DUP2 CALLDATALOAD PUSH5 0x100000000 DUP2 GT ISZERO PUSH2 0x13F JUMPI PUSH1 0x0 DUP1 REVERT JUMPDEST DUP3 ADD DUP4 PUSH1 0x20 DUP3 ADD GT ISZERO PUSH2 0x151 JUMPI PUSH1 0x0 DUP1 REVERT JUMPDEST DUP1 CALLDATALOAD SWAP1 PUSH1 0x20 ADD SWAP2 DUP5 PUSH1 0x1 DUP4 MUL DUP5 ADD GT PUSH5 0x100000000 DUP4 GT OR ISZERO PUSH2 0x173 JUMPI PUSH1 0x0 DUP1 REVERT JUMPDEST POP SWAP1 SWAP3 POP SWAP1 POP PUSH2 0x354 JUMP JUMPDEST STOP JUMPDEST PUSH2 0x188 PUSH2 0x3AE JUMP JUMPDEST PUSH1 0x40 DUP1 MLOAD PUSH1 0x1 PUSH1 0x1 PUSH1 0xA0 SHL SUB SWAP1 SWAP3 AND DUP3 MSTORE MLOAD SWAP1 DUP2 SWAP1 SUB PUSH1 0x20 ADD SWAP1 RETURN JUMPDEST PUSH2 0x17E PUSH1 0x4 DUP1 CALLDATASIZE SUB PUSH1 0x20 DUP2 LT ISZERO PUSH2 0x1BA JUMPI PUSH1 0x0 DUP1 REVERT JUMPDEST POP CALLDATALOAD PUSH2 0x3BD JUMP JUMPDEST PUSH2 0x17E PUSH1 0x4 DUP1 CALLDATASIZE SUB PUSH1 0x20 DUP2 LT ISZERO PUSH2 0x1D7 JUMPI PUSH1 0x0 DUP1 REVERT JUMPDEST POP CALLDATALOAD PUSH1 0x1 PUSH1 0x1 PUSH1 0xA0 SHL SUB AND PUSH2 0x441 JUMP JUMPDEST PUSH2 0x188 PUSH2 0x4AB JUMP JUMPDEST PUSH2 0x17E PUSH1 0x4 DUP1 CALLDATASIZE SUB PUSH1 0x20 DUP2 LT ISZERO PUSH2 0x205 JUMPI PUSH1 0x0 DUP1 REVERT JUMPDEST POP CALLDATALOAD PUSH1 0x1 PUSH1 0x1 PUSH1 0xA0 SHL SUB AND PUSH2 0x4BA JUMP JUMPDEST PUSH2 0x17E PUSH1 0x4 DUP1 CALLDATASIZE SUB PUSH1 0x60 DUP2 LT ISZERO PUSH2 0x22B JUMPI PUSH1 0x0 DUP1 REVERT JUMPDEST DUP2 ADD SWAP1 PUSH1 0x20 DUP2 ADD DUP2 CALLDATALOAD PUSH5 0x100000000 DUP2 GT ISZERO PUSH2 0x246 JUMPI PUSH1 0x0 DUP1 REVERT JUMPDEST DUP3 ADD DUP4 PUSH1 0x20 DUP3 ADD GT ISZERO PUSH2 0x258 JUMPI PUSH1 0x0 DUP1 REVERT JUMPDEST DUP1 CALLDATALOAD SWAP1 PUSH1 0x20 ADD SWAP2 DUP5 PUSH1 0x1 DUP4 MUL DUP5 ADD GT PUSH5 0x100000000 DUP4 GT OR ISZERO PUSH2 0x27A JUMPI PUSH1 0x0 DUP1 REVERT JUMPDEST SWAP2 SWAP4 POP SWAP2 POP PUSH1 0x1 PUSH1 0x1 PUSH1 0xA0 SHL SUB DUP2 CALLDATALOAD AND SWAP1 PUSH1 0x20 ADD CALLDATALOAD PUSH2 0x518 JUMP JUMPDEST PUSH2 0xFA PUSH1 0x4 DUP1 CALLDATASIZE SUB PUSH1 0x20 DUP2 LT ISZERO PUSH2 0x2AA JUMPI PUSH1 0x0 DUP1 REVERT JUMPDEST POP CALLDATALOAD PUSH1 0x1 PUSH1 0x1 PUSH1 0xA0 SHL SUB AND PUSH2 0x81C JUMP JUMPDEST PUSH2 0x2C2 PUSH2 0x831 JUMP JUMPDEST PUSH1 0x40 DUP1 MLOAD SWAP2 DUP3 MSTORE MLOAD SWAP1 DUP2 SWAP1 SUB PUSH1 0x20 ADD SWAP1 RETURN JUMPDEST PUSH2 0x188 PUSH1 0x4 DUP1 CALLDATASIZE SUB PUSH1 0x20 DUP2 LT ISZERO PUSH2 0x2EA JUMPI PUSH1 0x0 DUP1 REVERT JUMPDEST POP CALLDATALOAD PUSH2 0x837 JUMP JUMPDEST PUSH2 0x17E PUSH1 0x4 DUP1 CALLDATASIZE SUB PUSH1 0x20 DUP2 LT ISZERO PUSH2 0x307 JUMPI PUSH1 0x0 DUP1 REVERT JUMPDEST POP CALLDATALOAD PUSH1 0x1 PUSH1 0x1 PUSH1 0xA0 SHL SUB AND PUSH2 0x8B5 JUMP JUMPDEST PUSH2 0x17E PUSH1 0x4 DUP1 CALLDATASIZE SUB PUSH1 0x20 DUP2 LT ISZERO PUSH2 0x32D JUMPI PUSH1 0x0 DUP1 REVERT JUMPDEST POP CALLDATALOAD PUSH1 0x1 PUSH1 0x1 PUSH1 0xA0 SHL SUB AND PUSH2 0x922 JUMP JUMPDEST PUSH1 0x0 SLOAD PUSH1 0x1 PUSH1 0x1 PUSH1 0xA0 SHL SUB DUP3 DUP2 AND SWAP2 AND EQ JUMPDEST SWAP2 SWAP1 POP JUMP JUMPDEST PUSH1 0x0 DUP1 DUP4 DUP4 PUSH1 0x40 DUP2 LT ISZERO PUSH2 0x367 JUMPI PUSH1 0x0 DUP1 REVERT JUMPDEST POP PUSH1 0x1 DUP1 SLOAD PUSH1 0x1 PUSH1 0x1 PUSH1 0xA0 SHL SUB NOT AND PUSH1 0x1 PUSH1 0x1 PUSH1 0xA0 SHL SUB DUP4 CALLDATALOAD AND OR DUP2 SSTORE PUSH1 0x20 SWAP2 DUP3 ADD CALLDATALOAD PUSH1 0x2 SSTORE CALLER PUSH1 0x0 SWAP1 DUP2 MSTORE PUSH1 0x3 SWAP1 SWAP3 MSTORE PUSH1 0x40 SWAP1 SWAP2 KECCAK256 DUP1 SLOAD PUSH1 0xFF NOT AND SWAP1 SWAP2 OR SWAP1 SSTORE POP POP POP POP JUMP JUMPDEST PUSH1 0x1 SLOAD PUSH1 0x1 PUSH1 0x1 PUSH1 0xA0 SHL SUB AND DUP2 JUMP JUMPDEST PUSH2 0x3C6 CALLER PUSH2 0x33D JUMP JUMPDEST PUSH2 0x3CF JUMPI PUSH1 0x0 DUP1 REVERT JUMPDEST PUSH1 0x1 SLOAD PUSH1 0x2 SLOAD PUSH1 0x40 DUP1 MLOAD PUSH4 0x86D5F0D9 PUSH1 0xE0 SHL DUP2 MSTORE PUSH1 0x4 DUP2 ADD SWAP3 SWAP1 SWAP3 MSTORE PUSH1 0x24 DUP3 ADD DUP5 SWAP1 MSTORE MLOAD PUSH1 0x1 PUSH1 0x1 PUSH1 0xA0 SHL SUB SWAP1 SWAP3 AND SWAP2 PUSH4 0x86D5F0D9 SWAP2 PUSH1 0x44 DUP1 DUP3 ADD SWAP3 PUSH1 0x0 SWAP3 SWAP1 SWAP2 SWAP1 DUP3 SWAP1 SUB ADD DUP2 DUP4 DUP8 DUP1 EXTCODESIZE ISZERO DUP1 ISZERO PUSH2 0x426 JUMPI PUSH1 0x0 DUP1 REVERT JUMPDEST POP GAS CALL ISZERO DUP1 ISZERO PUSH2 0x43A JUMPI RETURNDATASIZE PUSH1 0x0 DUP1 RETURNDATACOPY RETURNDATASIZE PUSH1 0x0 REVERT JUMPDEST POP POP POP POP POP JUMP JUMPDEST PUSH2 0x44A CALLER PUSH2 0x33D JUMP JUMPDEST PUSH2 0x453 JUMPI PUSH1 0x0 DUP1 REVERT JUMPDEST PUSH1 0x1 SLOAD PUSH1 0x2 SLOAD PUSH1 0x40 DUP1 MLOAD PUSH4 0xC4B7B85 PUSH1 0xE1 SHL DUP2 MSTORE PUSH1 0x4 DUP2 ADD SWAP3 SWAP1 SWAP3 MSTORE PUSH1 0x1 PUSH1 0x1 PUSH1 0xA0 SHL SUB DUP5 DUP2 AND PUSH1 0x24 DUP5 ADD MSTORE SWAP1 MLOAD SWAP3 AND SWAP2 PUSH4 0x1896F70A SWAP2 PUSH1 0x44 DUP1 DUP3 ADD SWAP3 PUSH1 0x0 SWAP3 SWAP1 SWAP2 SWAP1 DUP3 SWAP1 SUB ADD DUP2 DUP4 DUP8 DUP1 EXTCODESIZE ISZERO DUP1 ISZERO PUSH2 0x426 JUMPI PUSH1 0x0 DUP1 REVERT JUMPDEST PUSH1 0x0 SLOAD PUSH1 0x1 PUSH1 0x1 PUSH1 0xA0 SHL SUB AND DUP2 JUMP JUMPDEST PUSH2 0x4C3 CALLER PUSH2 0x33D JUMP JUMPDEST PUSH2 0x4CC JUMPI PUSH1 0x0 DUP1 REVERT JUMPDEST PUSH1 0x1 PUSH1 0x1 PUSH1 0xA0 SHL SUB DUP2 AND PUSH1 0x0 DUP2 DUP2 MSTORE PUSH1 0x3 PUSH1 0x20 MSTORE PUSH1 0x40 DUP1 DUP3 KECCAK256 DUP1 SLOAD PUSH1 0xFF NOT AND PUSH1 0x1 OR SWAP1 SSTORE MLOAD PUSH32 0xA8BB31534C0ED46F380CB867BD5C803A189CED9A764E30B3A4991A9901D7474 SWAP2 SWAP1 LOG2 POP JUMP JUMPDEST CALLER PUSH1 0x0 SWAP1 DUP2 MSTORE PUSH1 0x3 PUSH1 0x20 MSTORE PUSH1 0x40 SWAP1 KECCAK256 SLOAD PUSH1 0xFF AND PUSH2 0x534 JUMPI PUSH1 0x0 DUP1 REVERT JUMPDEST PUSH2 0x573 DUP5 DUP5 DUP1 DUP1 PUSH1 0x1F ADD PUSH1 0x20 DUP1 SWAP2 DIV MUL PUSH1 0x20 ADD PUSH1 0x40 MLOAD SWAP1 DUP2 ADD PUSH1 0x40 MSTORE DUP1 SWAP4 SWAP3 SWAP2 SWAP1 DUP2 DUP2 MSTORE PUSH1 0x20 ADD DUP4 DUP4 DUP1 DUP3 DUP5 CALLDATACOPY PUSH1 0x0 SWAP3 ADD SWAP2 SWAP1 SWAP2 MSTORE POP PUSH2 0x97D SWAP3 POP POP POP JUMP JUMPDEST PUSH2 0x5B3 JUMPI PUSH1 0x40 DUP1 MLOAD PUSH3 0x461BCD PUSH1 0xE5 SHL DUP2 MSTORE PUSH1 0x20 PUSH1 0x4 DUP3 ADD MSTORE PUSH1 0xC PUSH1 0x24 DUP3 ADD MSTORE PUSH12 0x696E76616C6964206E616D65 PUSH1 0xA0 SHL PUSH1 0x44 DUP3 ADD MSTORE SWAP1 MLOAD SWAP1 DUP2 SWAP1 SUB PUSH1 0x64 ADD SWAP1 REVERT JUMPDEST PUSH2 0x5BC DUP2 PUSH2 0x99E JUMP JUMPDEST PUSH2 0x600 JUMPI PUSH1 0x40 DUP1 MLOAD PUSH3 0x461BCD PUSH1 0xE5 SHL DUP2 MSTORE PUSH1 0x20 PUSH1 0x4 DUP3 ADD MSTORE PUSH1 0x10 PUSH1 0x24 DUP3 ADD MSTORE PUSH16 0x130C881BDDDB995C88195E1A5CDD1959 PUSH1 0x82 SHL PUSH1 0x44 DUP3 ADD MSTORE SWAP1 MLOAD SWAP1 DUP2 SWAP1 SUB PUSH1 0x64 ADD SWAP1 REVERT JUMPDEST PUSH1 0x0 DUP5 DUP5 PUSH1 0x40 MLOAD DUP1 DUP4 DUP4 DUP1 DUP3 DUP5 CALLDATACOPY PUSH1 0x40 DUP1 MLOAD SWAP2 SWAP1 SWAP4 ADD DUP2 SWAP1 SUB DUP2 KECCAK256 PUSH1 0x1 SLOAD PUSH1 0x2 SLOAD PUSH4 0x212A6BCD PUSH1 0xE0 SHL DUP5 MSTORE PUSH1 0x4 DUP5 ADD MSTORE PUSH1 0x24 DUP4 ADD DUP3 SWAP1 MSTORE SWAP4 MLOAD SWAP1 SWAP8 POP PUSH1 0x1 PUSH1 0x1 PUSH1 0xA0 SHL SUB SWAP1 SWAP4 AND SWAP6 POP PUSH4 0x212A6BCD SWAP5 POP PUSH1 0x44 DUP1 DUP3 ADD SWAP5 POP PUSH1 0x20 SWAP4 SWAP3 POP SWAP1 DUP3 SWAP1 SUB ADD DUP2 DUP7 DUP1 EXTCODESIZE ISZERO DUP1 ISZERO PUSH2 0x671 JUMPI PUSH1 0x0 DUP1 REVERT JUMPDEST POP GAS STATICCALL ISZERO DUP1 ISZERO PUSH2 0x685 JUMPI RETURNDATASIZE PUSH1 0x0 DUP1 RETURNDATACOPY RETURNDATASIZE PUSH1 0x0 REVERT JUMPDEST POP POP POP POP PUSH1 0x40 MLOAD RETURNDATASIZE PUSH1 0x20 DUP2 LT ISZERO PUSH2 0x69B JUMPI PUSH1 0x0 DUP1 REVERT JUMPDEST POP MLOAD ISZERO PUSH2 0x6E1 JUMPI PUSH1 0x40 DUP1 MLOAD PUSH3 0x461BCD PUSH1 0xE5 SHL DUP2 MSTORE PUSH1 0x20 PUSH1 0x4 DUP3 ADD MSTORE PUSH1 0xF PUSH1 0x24 DUP3 ADD MSTORE PUSH15 0x1CDD589B9BD91948195E1A5CDD1959 PUSH1 0x8A SHL PUSH1 0x44 DUP3 ADD MSTORE SWAP1 MLOAD SWAP1 DUP2 SWAP1 SUB PUSH1 0x64 ADD SWAP1 REVERT JUMPDEST PUSH1 0x1 SLOAD PUSH1 0x2 SLOAD PUSH1 0x40 DUP1 MLOAD PUSH4 0x1C98504F PUSH1 0xE3 SHL DUP2 MSTORE PUSH1 0x4 DUP2 ADD SWAP3 SWAP1 SWAP3 MSTORE PUSH1 0x24 DUP3 ADD DUP5 SWAP1 MSTORE PUSH1 0x1 PUSH1 0x1 PUSH1 0xA0 SHL SUB DUP7 DUP2 AND PUSH1 0x44 DUP5 ADD MSTORE PUSH1 0x64 DUP4 ADD DUP7 SWAP1 MSTORE SWAP1 MLOAD PUSH1 0x0 SWAP4 SWAP2 SWAP1 SWAP2 AND SWAP2 PUSH4 0xE4C28278 SWAP2 PUSH1 0x84 DUP1 DUP4 ADD SWAP3 PUSH1 0x20 SWAP3 SWAP2 SWAP1 DUP3 SWAP1 SUB ADD DUP2 DUP8 DUP8 DUP1 EXTCODESIZE ISZERO DUP1 ISZERO PUSH2 0x74B JUMPI PUSH1 0x0 DUP1 REVERT JUMPDEST POP GAS CALL ISZERO DUP1 ISZERO PUSH2 0x75F JUMPI RETURNDATASIZE PUSH1 0x0 DUP1 RETURNDATACOPY RETURNDATASIZE PUSH1 0x0 REVERT JUMPDEST POP POP POP POP PUSH1 0x40 MLOAD RETURNDATASIZE PUSH1 0x20 DUP2 LT ISZERO PUSH2 0x775 JUMPI PUSH1 0x0 DUP1 REVERT JUMPDEST POP MLOAD PUSH1 0x0 DUP5 DUP2 MSTORE PUSH1 0x4 PUSH1 0x20 SWAP1 DUP2 MSTORE PUSH1 0x40 SWAP2 DUP3 SWAP1 KECCAK256 DUP4 SWAP1 SSTORE DUP2 MLOAD SWAP1 DUP2 ADD DUP4 SWAP1 MSTORE PUSH1 0x1 PUSH1 0x1 PUSH1 0xA0 SHL SUB DUP8 AND SWAP2 DUP2 ADD SWAP2 SWAP1 SWAP2 MSTORE PUSH1 0x60 DUP2 ADD DUP6 SWAP1 MSTORE PUSH1 0x80 DUP1 DUP3 MSTORE DUP2 ADD DUP8 SWAP1 MSTORE SWAP1 SWAP2 POP PUSH32 0x36E1387993E62301C322576AE290F9934F5EB108709972FB6A5892E18544A08B SWAP1 DUP8 SWAP1 DUP8 SWAP1 DUP5 SWAP1 DUP9 SWAP1 DUP9 SWAP1 DUP1 PUSH1 0xA0 DUP2 ADD DUP8 DUP8 DUP1 DUP3 DUP5 CALLDATACOPY PUSH1 0x0 DUP4 DUP3 ADD MSTORE PUSH1 0x40 MLOAD PUSH1 0x1F SWAP1 SWAP2 ADD PUSH1 0x1F NOT AND SWAP1 SWAP3 ADD DUP3 SWAP1 SUB SWAP9 POP SWAP1 SWAP7 POP POP POP POP POP POP POP LOG1 POP POP POP POP POP POP JUMP JUMPDEST PUSH1 0x3 PUSH1 0x20 MSTORE PUSH1 0x0 SWAP1 DUP2 MSTORE PUSH1 0x40 SWAP1 KECCAK256 SLOAD PUSH1 0xFF AND DUP2 JUMP JUMPDEST PUSH1 0x2 SLOAD DUP2 JUMP JUMPDEST PUSH1 0x1 SLOAD PUSH1 0x40 DUP1 MLOAD PUSH4 0x2571BE3 PUSH1 0xE0 SHL DUP2 MSTORE PUSH1 0x4 DUP2 ADD DUP5 SWAP1 MSTORE SWAP1 MLOAD PUSH1 0x0 SWAP3 PUSH1 0x1 PUSH1 0x1 PUSH1 0xA0 SHL SUB AND SWAP2 PUSH4 0x2571BE3 SWAP2 PUSH1 0x24 DUP1 DUP4 ADD SWAP3 PUSH1 0x20 SWAP3 SWAP2 SWAP1 DUP3 SWAP1 SUB ADD DUP2 DUP7 DUP1 EXTCODESIZE ISZERO DUP1 ISZERO PUSH2 0x883 JUMPI PUSH1 0x0 DUP1 REVERT JUMPDEST POP GAS STATICCALL ISZERO DUP1 ISZERO PUSH2 0x897 JUMPI RETURNDATASIZE PUSH1 0x0 DUP1 RETURNDATACOPY RETURNDATASIZE PUSH1 0x0 REVERT JUMPDEST POP POP POP POP PUSH1 0x40 MLOAD RETURNDATASIZE PUSH1 0x20 DUP2 LT ISZERO PUSH2 0x8AD JUMPI PUSH1 0x0 DUP1 REVERT JUMPDEST POP MLOAD SWAP3 SWAP2 POP POP JUMP JUMPDEST PUSH2 0x8BE CALLER PUSH2 0x33D JUMP JUMPDEST PUSH2 0x8C7 JUMPI PUSH1 0x0 DUP1 REVERT JUMPDEST PUSH1 0x0 DUP1 SLOAD PUSH1 0x40 MLOAD PUSH1 0x1 PUSH1 0x1 PUSH1 0xA0 SHL SUB DUP1 DUP6 AND SWAP4 SWAP3 AND SWAP2 PUSH32 0x8BE0079C531659141344CD1FD0A4F28419497F9722A3DAAFE3B4186F6B6457E0 SWAP2 LOG3 PUSH1 0x0 DUP1 SLOAD PUSH1 0x1 PUSH1 0x1 PUSH1 0xA0 SHL SUB NOT AND PUSH1 0x1 PUSH1 0x1 PUSH1 0xA0 SHL SUB SWAP3 SWAP1 SWAP3 AND SWAP2 SWAP1 SWAP2 OR SWAP1 SSTORE JUMP JUMPDEST PUSH2 0x92B CALLER PUSH2 0x33D JUMP JUMPDEST PUSH2 0x934 JUMPI PUSH1 0x0 DUP1 REVERT JUMPDEST PUSH1 0x1 PUSH1 0x1 PUSH1 0xA0 SHL SUB DUP2 AND PUSH1 0x0 DUP2 DUP2 MSTORE PUSH1 0x3 PUSH1 0x20 MSTORE PUSH1 0x40 DUP1 DUP3 KECCAK256 DUP1 SLOAD PUSH1 0xFF NOT AND SWAP1 SSTORE MLOAD PUSH32 0x33D83959BE2573F5453B12EB9D43B3499BC57D96BD2F067BA44803C859E81113 SWAP2 SWAP1 LOG2 POP JUMP JUMPDEST PUSH1 0x0 PUSH2 0x988 DUP3 PUSH2 0x9B1 JUMP JUMPDEST DUP1 ISZERO PUSH2 0x998 JUMPI POP PUSH2 0x998 DUP3 PUSH2 0x9BC JUMP JUMPDEST SWAP3 SWAP2 POP POP JUMP JUMPDEST PUSH1 0x0 SWAP1 DUP2 MSTORE PUSH1 0x4 PUSH1 0x20 MSTORE PUSH1 0x40 SWAP1 KECCAK256 SLOAD ISZERO SWAP1 JUMP JUMPDEST PUSH1 0x0 PUSH2 0x998 DUP3 PUSH2 0x9E5 JUMP JUMPDEST PUSH1 0x0 PUSH1 0x3 PUSH2 0x9C9 DUP4 PUSH2 0xA3F JUMP JUMPDEST LT ISZERO DUP1 ISZERO PUSH2 0x998 JUMPI POP PUSH1 0x20 PUSH2 0x9DD DUP4 PUSH2 0xA3F JUMP JUMPDEST GT ISZERO SWAP3 SWAP2 POP POP JUMP JUMPDEST DUP1 MLOAD PUSH1 0x0 SWAP1 DUP2 JUMPDEST DUP2 DUP2 LT ISZERO PUSH2 0xA35 JUMPI PUSH1 0x0 DUP5 DUP3 DUP2 MLOAD DUP2 LT PUSH2 0xA02 JUMPI INVALID JUMPDEST ADD PUSH1 0x20 ADD MLOAD PUSH1 0x1 PUSH1 0x1 PUSH1 0xF8 SHL SUB NOT AND SWAP1 POP PUSH2 0xA1C DUP2 PUSH2 0xB26 JUMP JUMPDEST PUSH2 0xA2C JUMPI PUSH1 0x0 SWAP4 POP POP POP POP PUSH2 0x34F JUMP JUMPDEST POP PUSH1 0x1 ADD PUSH2 0x9EC JUMP JUMPDEST POP PUSH1 0x1 SWAP4 SWAP3 POP POP POP JUMP JUMPDEST DUP1 MLOAD PUSH1 0x0 SWAP1 DUP2 SWAP1 DUP2 SWAP1 JUMPDEST DUP1 DUP3 LT ISZERO PUSH2 0xB1D JUMPI PUSH1 0x0 DUP6 DUP4 DUP2 MLOAD DUP2 LT PUSH2 0xA5F JUMPI INVALID JUMPDEST ADD PUSH1 0x20 ADD MLOAD PUSH1 0x1 PUSH1 0x1 PUSH1 0xF8 SHL SUB NOT AND SWAP1 POP PUSH1 0x1 PUSH1 0xFF SHL DUP2 GT PUSH2 0xA86 JUMPI PUSH1 0x1 DUP4 ADD SWAP3 POP PUSH2 0xB11 JUMP JUMPDEST PUSH1 0x7 PUSH1 0xFD SHL PUSH1 0x1 PUSH1 0x1 PUSH1 0xF8 SHL SUB NOT DUP3 AND LT ISZERO PUSH2 0xAA7 JUMPI PUSH1 0x2 DUP4 ADD SWAP3 POP PUSH2 0xB11 JUMP JUMPDEST PUSH1 0xF PUSH1 0xFC SHL PUSH1 0x1 PUSH1 0x1 PUSH1 0xF8 SHL SUB NOT DUP3 AND LT ISZERO PUSH2 0xAC8 JUMPI PUSH1 0x3 DUP4 ADD SWAP3 POP PUSH2 0xB11 JUMP JUMPDEST PUSH1 0x1F PUSH1 0xFB SHL PUSH1 0x1 PUSH1 0x1 PUSH1 0xF8 SHL SUB NOT DUP3 AND LT ISZERO PUSH2 0xAE9 JUMPI PUSH1 0x4 DUP4 ADD SWAP3 POP PUSH2 0xB11 JUMP JUMPDEST PUSH1 0x3F PUSH1 0xFA SHL PUSH1 0x1 PUSH1 0x1 PUSH1 0xF8 SHL SUB NOT DUP3 AND LT ISZERO PUSH2 0xB0A JUMPI PUSH1 0x5 DUP4 ADD SWAP3 POP PUSH2 0xB11 JUMP JUMPDEST PUSH1 0x6 DUP4 ADD SWAP3 POP JUMPDEST POP PUSH1 0x1 SWAP1 SWAP3 ADD SWAP2 PUSH2 0xA49 JUMP JUMPDEST POP SWAP1 SWAP4 SWAP3 POP POP POP JUMP JUMPDEST PUSH1 0x0 PUSH1 0x39 PUSH1 0xF8 SHL PUSH1 0x1 PUSH1 0x1 PUSH1 0xF8 SHL SUB NOT DUP4 AND GT DUP1 ISZERO SWAP1 PUSH2 0xB54 JUMPI POP PUSH1 0x3 PUSH1 0xFC SHL PUSH1 0x1 PUSH1 0x1 PUSH1 0xF8 SHL SUB NOT DUP4 AND LT ISZERO JUMPDEST DUP1 PUSH2 0x998 JUMPI POP PUSH1 0x3D PUSH1 0xF9 SHL PUSH1 0x1 PUSH1 0x1 PUSH1 0xF8 SHL SUB NOT DUP4 AND GT DUP1 ISZERO SWAP1 PUSH2 0x998 JUMPI POP POP PUSH1 0x61 PUSH1 0xF8 SHL PUSH1 0x1 PUSH1 0x1 PUSH1 0xF8 SHL SUB NOT SWAP2 SWAP1 SWAP2 AND LT ISZERO SWAP1 JUMP INVALID LOG2 PUSH5 0x6970667358 0x22 SLT KECCAK256 SWAP12 CALLVALUE DUP16 0xCB 0xC4 CALLDATASIZE 0xE1 0xD6 0x28 0x2B 0xB4 SWAP2 0x4F 0xED SMOD ORIGIN 0xDA NUMBER 0xCE 0xBA BALANCE 0xD4 BALANCE 0xF9 SUB SLOAD CALLVALUE 0x2D 0xED DUP11 LOG2 0xC0 PUSH5 0x736F6C6343 STOP SMOD MOD STOP CALLER "
		},
		"gasEstimates": {
			"creation": {
				"codeDepositCost": "601800",
				"executionCost": "21473",
				"totalCost": "623273"
			},
			"external": {
				"addController(address)": "23165",
				"baseNode()": "1020",
				"controllers(address)": "1203",
				"getOwner(bytes32)": "infinite",
				"initialize(bytes)": "62201",
				"isOwner(address)": "1104",
				"owner()": "1148",
				"registerZNS(string,address,bytes32)": "infinite",
				"removeController(address)": "23224",
				"setThisResolver(address)": "infinite",
				"setZecreyPubKey(bytes32)": "infinite",
				"transferOwnership(address)": "24378",
				"zns()": "1082"
			},
			"internal": {
				"_valid(string memory)": "infinite",
				"_validCharset(string memory)": "infinite",
				"_validLength(string memory)": "infinite",
				"_validZecreyPubKey(bytes32)": "890"
			}
		},
		"methodIdentifiers": {
			"addController(address)": "a7fc7a07",
			"baseNode()": "ddf7fcb0",
			"controllers(address)": "da8c229e",
			"getOwner(bytes32)": "deb931a2",
			"initialize(bytes)": "439fab91",
			"isOwner(address)": "2f54bf6e",
			"owner()": "8da5cb5b",
			"registerZNS(string,address,bytes32)": "d7757da1",
			"removeController(address)": "f6a74ed7",
			"setThisResolver(address)": "7a0d942b",
			"setZecreyPubKey(bytes32)": "5b817475",
			"transferOwnership(address)": "f2fde38b",
			"zns()": "58ffb7fd"
		}
	},
	"abi": [
		{
			"anonymous": false,
			"inputs": [
				{
					"indexed": true,
					"internalType": "address",
					"name": "controller",
					"type": "address"
				}
			],
			"name": "ControllerAdded",
			"type": "event"
		},
		{
			"anonymous": false,
			"inputs": [
				{
					"indexed": true,
					"internalType": "address",
					"name": "controller",
					"type": "address"
				}
			],
			"name": "ControllerRemoved",
			"type": "event"
		},
		{
			"anonymous": false,
			"inputs": [
				{
					"indexed": true,
					"internalType": "address",
					"name": "previousOwner",
					"type": "address"
				},
				{
					"indexed": true,
					"internalType": "address",
					"name": "newOwner",
					"type": "address"
				}
			],
			"name": "OwnershipTransferred",
			"type": "event"
		},
		{
			"anonymous": false,
			"inputs": [
				{
					"indexed": false,
					"internalType": "string",
					"name": "name",
					"type": "string"
				},
				{
					"indexed": false,
					"internalType": "bytes32",
					"name": "node",
					"type": "bytes32"
				},
				{
					"indexed": false,
					"internalType": "address",
					"name": "owner",
					"type": "address"
				},
				{
					"indexed": false,
					"internalType": "bytes32",
					"name": "L2Owner",
					"type": "bytes32"
				}
			],
			"name": "ZNSRegistered",
			"type": "event"
		},
		{
			"inputs": [
				{
					"internalType": "address",
					"name": "_controller",
					"type": "address"
				}
			],
			"name": "addController",
			"outputs": [],
			"stateMutability": "nonpayable",
			"type": "function"
		},
		{
			"inputs": [],
			"name": "baseNode",
			"outputs": [
				{
					"internalType": "bytes32",
					"name": "",
					"type": "bytes32"
				}
			],
			"stateMutability": "view",
			"type": "function"
		},
		{
			"inputs": [
				{
					"internalType": "address",
					"name": "",
					"type": "address"
				}
			],
			"name": "controllers",
			"outputs": [
				{
					"internalType": "bool",
					"name": "",
					"type": "bool"
				}
			],
			"stateMutability": "view",
			"type": "function"
		},
		{
			"inputs": [
				{
					"internalType": "bytes32",
					"name": "node",
					"type": "bytes32"
				}
			],
			"name": "getOwner",
			"outputs": [
				{
					"internalType": "address",
					"name": "",
					"type": "address"
				}
			],
			"stateMutability": "view",
			"type": "function"
		},
		{
			"inputs": [
				{
					"internalType": "bytes",
					"name": "initializationParameters",
					"type": "bytes"
				}
			],
			"name": "initialize",
			"outputs": [],
			"stateMutability": "nonpayable",
			"type": "function"
		},
		{
			"inputs": [
				{
					"internalType": "address",
					"name": "addr",
					"type": "address"
				}
			],
			"name": "isOwner",
			"outputs": [
				{
					"internalType": "bool",
					"name": "",
					"type": "bool"
				}
			],
			"stateMutability": "view",
			"type": "function"
		},
		{
			"inputs": [],
			"name": "owner",
			"outputs": [
				{
					"internalType": "address",
					"name": "",
					"type": "address"
				}
			],
			"stateMutability": "view",
			"type": "function"
		},
		{
			"inputs": [
				{
					"internalType": "string",
					"name": "_name",
					"type": "string"
				},
				{
					"internalType": "address",
					"name": "_owner",
					"type": "address"
				},
				{
					"internalType": "bytes32",
					"name": "_zecreyPubKey",
					"type": "bytes32"
				}
			],
			"name": "registerZNS",
			"outputs": [],
			"stateMutability": "nonpayable",
			"type": "function"
		},
		{
			"inputs": [
				{
					"internalType": "address",
					"name": "_controller",
					"type": "address"
				}
			],
			"name": "removeController",
			"outputs": [],
			"stateMutability": "nonpayable",
			"type": "function"
		},
		{
			"inputs": [
				{
					"internalType": "address",
					"name": "_resolver",
					"type": "address"
				}
			],
			"name": "setThisResolver",
			"outputs": [],
			"stateMutability": "nonpayable",
			"type": "function"
		},
		{
			"inputs": [
				{
					"internalType": "bytes32",
					"name": "_zecreyPubKey",
					"type": "bytes32"
				}
			],
			"name": "setZecreyPubKey",
			"outputs": [],
			"stateMutability": "nonpayable",
			"type": "function"
		},
		{
			"inputs": [
				{
					"internalType": "address",
					"name": "newOwner",
					"type": "address"
				}
			],
			"name": "transferOwnership",
			"outputs": [],
			"stateMutability": "nonpayable",
			"type": "function"
		},
		{
			"inputs": [],
			"name": "zns",
			"outputs": [
				{
					"internalType": "contract ZNS",
					"name": "",
					"type": "address"
				}
			],
			"stateMutability": "view",
			"type": "function"
		}
	]
}